002220M0699394012190940             G20250417154831TROIANI    000000
002220M0717260018003170075757       E20250417154831TROIANI    000000
002220M0717260018003170091146       E20250417154831TROIANI    000000
002220M0723309018003170091160       E20250417154831TROIANI    000000
002220M0699300012183420             G20250417154831TROIANI    000000
002220M0699300012189780             G20250417154831TROIANI    000000
002220M0729576012895559             G20250417154831TROIANI    000000
002220M0034042012198230             G20250417154831TROIANI    000000
002220M0034039012198250             G20250417154831TROIANI    000000
002220M0034039012327440             G20250417154831TROIANI    000000
002220M0034046012198260             G20250417154831TROIANI    000000
002220M0733508012340349             G20250417154831TROIANI    000000
002220M0085349012108630             G20250417154831TROIANI    000000
002220M0085349012266460             G20250417154831TROIANI    000000
002220M0675021018006473029496       E20250417154831TROIANI    000000
002220M0723123018006473905929       E20250417154831TROIANI    000000
