002220M0032590012201210             G20250418154708TROIANI    000000
002220M0032590012201240             G20250418154708TROIANI    000000
002220M0032590012202527             G20250418154708TROIANI    000000
002220M0032590012209776             G20250418154708TROIANI    000000
002220M0032590012439670             G20250418154708TROIANI    000000
002220M0032590012723953             G20250418154708TROIANI    000000
002220M0032590012826560             G20250418154708TROIANI    000000
002220M0032590012950458             G20250418154708TROIANI    000000
002220M0719471012704719             G20250418154708TROIANI    000000
002220M0688910012648950             G20250418154708TROIANI    000000
002220M0681064018008110260538       E20250418154708TROIANI    000000
002220M0672548018008110260033       E20250418154708TROIANI    000000
002220M0734971018008110042929       E20250418154708TROIANI    000000
002220M0734972018008110042943       E20250418154708TROIANI    000000
002220M0096933012228950             G20250418154708TROIANI    000000
002220M0096933012509913             G20250418154708TROIANI    000000
002220M0735207018008110043070       E20250418154708TROIANI    000000
002220M0690900018008110004330       E20250418154708TROIANI    000000
002220M0694612018008110001148       E20250418154708TROIANI    000000
002220M0712856018008110028077       E20250418154708TROIANI    000000
002220M0717749018008110259259       E20250418154708TROIANI    000000
002220M0697780018008110000141       E20250418154708TROIANI    000000
002220M0701050018008110008871       E20250418154708TROIANI    000000
002220M0674229018008110258948       E20250418154708TROIANI    000000
002220M0725405018008110035709       E20250418154708TROIANI    000000
