002220M0733358012849508             G20250417145748TROIANI    000000
002220M0725937018437011109156       E20250417145748TROIANI    000000
002220M0098476012465336             G20250417145748TROIANI    000000
002220M0709073012854279             G20250417145748TROIANI    000000
002220M0734726012752795             G20250417145748TROIANI    000000
002220M0699306012183390             G20250417145748TROIANI    000000
002220M0699306012189830             G20250417145748TROIANI    000000
002220M0735881018017806001096       E20250417145748TROIANI    000000
002220M0683649012195260             G20250417145748TROIANI    000000
002220M0729095018007281614843       E20250417145748TROIANI    000000
