002220M066714401070281164825        F20250417233755CGA        000000
002220M0667144010702811624825       E20250417233755CGA        000000
002220M066714402702811624818        F20250417233755CGA        000000
002220M0667144020702811624818       E20250417233755CGA        000000
