002220M069722301F.MERLUZ.PAST.FISHBAR FINDUS X2    1210104120005220160921100  1  NNKG000002400000002400N00000004000036004PZU00010000000001100000000IF.MERLUZ.PAST.FINDUS$00000I00000000069722301      F.MERLUZ.PAST.FISHBAR FINDUS X2    00000000069722301      IC00000010099999999900008IL0000000101202503139999999900000000345E0000012024102499999999U0001000000000004998020250418082938CALZUOLA  EUR000000 00000N      $$$$$      000000
002220M069722701NUGGETS MERLUZZO FISHBAR FINDUS    1210104120005220160921100  1  NNKG000002450000002450N00000004000036004PZU00010000000001100000000INUGGETS MERLUZ.FIND.$00000I00000000069722701      NUGGETS MERLUZZO FISHBAR FINDUS    00000000069722701      IC00000010099999999900008IL0000000101202503139999999900000000345E0000012024053099999999U0001000000000004998020250418082939CALZUOLA  EUR000000 00000S      $$$$$      000000
002220M071207001NUGGETS SALMONE FISHBAR FINDUS G2201210104120005320200427100  1  NNKG000002200000002200N00000004000036004PZU00010000000001100000000INUGG.SALMONE FINDUS Z00000I00000000071207001      NUGGETS SALMONE FISHBAR FINDUS G22000000000071207001      IC00000010099999999900008IL0000000101202503139999999900000000345E0000012024102499999999U0001000000000004998020250418082939CALZUOLA  EUR000000 00000N      $$$$$      000000
002220M071208001FISH & CROCK FISHBAR FINDUS GR250  1210104120005320200430100  1  NNKG000002500000002400N00000004000036004PZU00010000000001100000000IFISH & CROCK FINDUS X00000I00000000071208001      FISH & CROCK FISHBAR FINDUS GR250  00000000071208001      IC00000010099999999900010IL0000000101202503139999999900000000345E0000012024053099999999U0001000000000004998020250418082939CALZUOLA  EUR000000 00000S      $$$$$      000000
002220M073271301FISHBURGER XL FINDUS X2            1210104120055020240408100  1  NNKG000002700000002700N00000004000036004PZU00010000000001100000000IFISHBURGER XL FINDUSY00000I00000000073271301      FISHBURGER XL FINDUS X2            00000000073271301      IC00000010099999999900010IL0000000101202503139999999900000000351E0000012025031399999999U0001000000000005298020250418082939CALZUOLA  EUR000000 00000N      $$$$$      000000
002220M073271302FISH&CHIPS BURGER XL FINDUS X2     1210104120055020240408100  1  NNKG000002700000002700N00000004000036004PZU00010000000001100000000IFISH&CHIPS BURGER   Y00000I00000000073271302      FISH&CHIPS BURGER XL FINDUS X2     00000000073271302      IC00000010099999999900010IL0000000101202503139999999900000000351E0000012025031399999999U0001000000000005298020250418082939CALZUOLA  EUR000000 00000N      $$$$$      000000
002220M073240001CONO KIT KAT VANIGLIA X4 GR.253    1210301040030020240319100  1  NNKG000002530000002530N00000004000036004PZU00010000000001100000000ICONO KIT KAT VANIGLIY00000I00000000073240001      CONO KIT KAT VANIGLIA X4 GR.253    00000000073240001      IC00000010099999999900006IL0000000101202503209999999900000000310E0000012025032099999999U0001000000000004998020250418082939CALZUOLA  EUR000000 00000N      $$$$$      000000
002220M073240003CONO LION CARAMELLO X4             1210301040030020250124100  1  NNKG000002880000002880N00000004000036004PZU00010000000001100000000ICONO LION CARAMELLO Y00000I00000000073240003      CONO LION CARAMELLO X4             00000000073240003      IC00000010099999999900006IL0000000101202503209999999900000000310E0000012025032099999999U0001000000000004998020250418082939CALZUOLA  EUR000000 00000N      $$$$$      000000
