002220M021183101PIANTA CALIBRACHOA VASO 14         1320505010020220170516100  1  NN$$000000000000010000N00000006159999951PZU00010000000000900000000IPIANTA CALIBRACHOA  $00000S00000000021183101      PIANTA CALIBRACHOA VASO 14         00000000021183101      IC00000010000001500000006S 0000000000000000000000000000000000000 0000000000000000000000U0001000000000000009220250417210350EL5       EUR000000 00000S$ALL  $$$$$      000000N
002220M021301101MELE GOLDEN V.VEN.80/85 S&D IT.ICT 1330119010000120181128040  1  NSKG000010000000000000S00000006509999951KGU00010000000000900000000IMELE GOLDEN V.VEN.80$00000S00000000021301101      MELE GOLDEN V.VEN.80/85 S&D IT.ICT 00000000021301101      IC00000010000001500000001SL0000000101202503229999999900000000165C0000012025032299999999U0001000000000002499220250417210350EL5       EUR000000 00000SSALL  $$$$$      005001N
002220M021884801FRAG.CANDONGA TOP QUAL.400G ITA.ICT1330146010000920240229040  1  NNKG000004000000004000N00000006509999951PZU00010000000000900000000IFRAG.CANDONGA TOP QU$00000S00000000021884801      FRAG.CANDONGA TOP QUAL.400G ITA.ICT00000000021884801      IC00000010000001500000012SL0000000101202503249999999900000000280C0000012025032499999999U0001000000000003999220250417210350EL5       EUR000000 00000S$ALL  $$$$$      000000N
002220M021578901CIOTOLA RICETTA REG.TRENTINA 130G  1330302010000220220503040  1  NNKG000001300000001300N00000006509999953PZU00010000000000900000000ICIOTOLA RICETTA REG.$00000I00000000021578901      CIOTOLA RICETTA REG.TRENTINA 130G  00000000021578901      IC00000010000001500000005IL0000000101202504182025042600000000260C0000012025041820250426U0001000000000003699220250417210350EL5       EUR000000 00000S$ALL  $$$$$      000000N
002220M022007101CIOT.REGION.ALL'ITALIANA 130G BND  1330302010000220250310040  1  NNKG000001300000001300N00000006509999951PZU00010000000000900000000ICIOT.REGION.ALL'ITAL$00000I00000000022007101      CIOT.REGION.ALL'ITALIANA 130G BND  00000000022007101      IC00000010000001500000005IL0000000101202504182025042600000000250C0000012025041820250426U0001000000000003499220250417210350EL5       EUR000000 00000S$ALL  $$$$$      000000N
002220M021579201CIOTOLA RICETTA REG.SICILIANA 130G 1330302010000520220503040  1  NNKG000001300000001300N00000006509999953PZU00010000000000900000000ICIOTOLA RICETTA REG.$00000I00000000021579201      CIOTOLA RICETTA REG.SICILIANA 130G 00000000021579201      IC00000010000001500000005IL0000000101202504182025042600000000260C0000012025041820250426U0001000000000003699220250417210350EL5       EUR000000 00000S$ALL  $$$$$      000000N
002220M021827701INS.RICETTA PICCANTINA 120G BOND.  1330302030001220231027040  1  NNKG000001200000001200N00000006509999951PZU00010000000000900000000IINS.RICETTA PICCANTI$00000I00000000021827701      INS.RICETTA PICCANTINA 120G BOND.  00000000021827701      IC00000010000001500000006IL0000000101202503039999999900000000115C0000012025030399999999U0001000000000001699220250417210350EL5       EUR000000 00000S$ALL  $$$$$      000000N
002220M020174501FUNGHI PLEUROTUS LAZIO IT.I CAT.   1330308040041019960510040  1  NNKG000010000000000000S00000006509999951KGU00010000000000900000000IFUN.PLEUROTUS SFUSO $00000I00000000020174501      FUNGHI PLEUROTUS LAZIO IT.I CAT.   00000000020174501      IC00000010000001500000001I 0000000000000000000000000000000000000 0000000000000000000000U0001000000000000009220250417210350EL5       EUR000000 00000S$ALL  $$$$$      005001N
002220M020922101FUNGHI PLEUROTUS VAS.500G CPQ IT I 1330308040041020100407040  1  NSKG000005000000005000N00000006509999951PZU00010000000000900000000IFUNGHI PLEUROTUS VAS$00000I00000000020922101      FUNGHI PLEUROTUS VAS.500G CPQ IT I 00000000020922101      IC00000010000001500000006IL0000000101202501169999999900000000210C0000012022050299999999U0001000000000002989220250417210350EL5       EUR000000 00000SPALL  $$$$$      000000N
002220M021376801FUNGHI PLEUROTUS LAZIO 300G IT.I CT1330308040041120200123040  1  NNKG000003000000003000N00000006509999951PZU00010000000000900000000IFUNGHI PLEUROTUS LAZ$00000I00000000021376801      FUNGHI PLEUROTUS LAZIO 300G IT.I CT00000000021376801      IC00000010000001500000007IL0000000101202409249999999900000000170C0000012024092499999999U0001000000000002499220250417210350EL5       EUR000000 00000S$ALL  $$$$$      000000N
002220M021966901F.PORCINI SECCHI A FETTE 40G SPEC. 1330308100050020241107040  1  NNKG000000400000000400N00000006509999954PZU00010000000000900000000IF.PORCINI SECCHI A F900000I00000000021966901      F.PORCINI SECCHI A FETTE 40G SPEC. 00000000021966901      IC00000010000001500000020IL0000000101202503259999999900000000330C0000012025032599999999U0001000000000004989220250417210350EL5       EUR000000 00000S$ALL  $$$$$      000000N
002220M020625201CRAUTO VERZA ROSSA OR.ITALIA I CAT.1330310070007020030130040  1  NNKG000010000000000000S00000006509999951KGU00010000000000900000000ICRAUTO VERZA ROSSA O$00000I00000000020625201      CRAUTO VERZA ROSSA OR.ITALIA I CAT.00000000020625201      IC00000010000001500000001IL0000000101202504159999999900000000120C0000012025041599999999U0001000000000001699220250417210350EL5       EUR000000 00000S$ALL  $$$$$      003001N
002220M021653201ROS.BROCC.BARESANI 400 G CPQ ITI°CT1330310190000120221017040  1  NSKG000004000000004000N00000006509999951PZU00010000000000900000000SROS.BROCC.BARESANI 4$00000S00000000021653201      ROS.BROCC.BARESANI 400 G CPQ ITI°CT00000000021653201      IC00000010000001500000006SL0000000101202504089999999900000000165C0000012025040899999999U0001000000000002489220250417210350EL5       EUR000000 00000SPALL  $$$$$      000000N
002220M020984701FAVE FRESCHE VASCH.500G ITALIA ICAT1330312220000220130225040  1  NNKG000005000000005000N00000006509999951PZU00010000000000900000000IFAVE FRESCHE VASCH.5$00000I00000000020984701      FAVE FRESCHE VASCH.500G ITALIA ICAT00000000020984701      IC00000010000001500000008IL0000000101202504069999999900000000160C0000012025040699999999U0001000000000002299220250417210350EL5       EUR000000 00000S$ALL  $$$$$      000000N
002220M021389801ZUCCHINE TONDE VS.500G ITALIA ICAT 1330313100020120200504040  1  NNKG000005000000005000N00000006509999951PZU00010000000000900000000IZUCCHINE TONDE VS.50500000S00000000021389801      ZUCCHINE TONDE VS.500G ITALIA ICAT 00000000021389801      IC00000010000001500000010SL0000000101202504159999999900000000090C0000012025041599999999U0001000000000001299220250417210350EL5       EUR000000 00000S$ALL  $$$$$      000000N
002220M022009501CILIEGINO GIALLO A/N 350G BIO IT.I 1330325010000120250313040  1  NNKG000003500000003500N00000006509999951PZU00010000000000900000000ICILIEGINO GIALLO A/N$00000S00000000022009501      CILIEGINO GIALLO A/N 350G BIO IT.I 00000000022009501      IC00000010000001500000008SL0000000101202503179999999900000000140C0000012025031799999999U0001000000000001989220250417210350EL5       EUR000000 00000S$ALL  BIOOF      000000N
002220M021480601POM.CUORE DI BUE KG.1 ITALIA I CAT.1330325010070020210524040  1  NNKG000010000000010000N00000006509999951PZU00010000000000900000000IPOM.CUORE DI BUE KG.$00000I00000000021480601      POM.CUORE DI BUE KG.1 ITALIA I CAT.00000000021480601      IC00000010000001500000010I 0000000000000000000000000000000000000 0000000000000000000000U0001000000000000009220250417210350EL5       EUR000000 00000S$ALL  $$$$$      000000N
002220M020262501CARCIOFI VIOLETTI ORIG.ITALIA I CAT1330343010000219971202040  1  NNKG000003500000003500N00000006509999951PZU00010000000000900000000ICARC.VIOLETTI ITALIA$00000I00000000020262501      CARCIOFI VIOLETTI ORIG.ITALIA I CAT00000000020262501      IC00000010000001500000025IL0000000101202502119999999900000000048C0000012025021199999999U0001000000000000699220250417210350EL5       EUR000000 00000S$ALL  $$$$$      000000N
002220M020132001CARC.MAMMOLE ROSSE X25PZ ITA.ICT   1330343070001619940204040  1  NNKG000003500000003500N00000006509999951PZU00010000000000900000000ICARC.MAMMOLE ROSSE  $00000S00000000020132001      CARC.MAMMOLE ROSSE X25PZ ITA.ICT   00000000020132001      IC00000010000001500000025SL0000000101202503259999999900000000053C0000012025032599999999U0001000000000000799220250417210350EL5       EUR000000 00000S$ALL  $$$$$      000000N
002220M020900601ASPARAGI VERDI 500G CPQ.OR.IT.I CAT1330349010000120090423040  1  NSKG000005000000005000N00000006509999951PZU00010000000000900000000IASPARAGI VERDI 500G $00000O00000000020900601      ASPARAGI VERDI 500G CPQ.OR.IT.I CAT00000000020900601      IC00000010000001500000012OL0000000101202504099999999900000000320C0000012025040999999999U0001000000000004509220250417210350EL5       EUR000000 00000SPALL  $$$$$      000000N
002220M021730401ASPARAGO ALCENERO 250G 8/10 IT.ICT 1330349010000120230425040  1  NNKG000002500000002500N00000006509999951PZU00010000000000900000000IASPARAGO ALCENERO 25$00000I00000000021730401      ASPARAGO ALCENERO 250G 8/10 IT.ICT 00000000021730401      IC00000010000001500000010IL0000000101202504079999999900000000178C0000012025040799999999U0001000000000002489220250417210350EL5       EUR000000 00000S$ALL  BIOOF      000000N
002220M021800901PAT.IGP ALTO VITERBESE IT.KG.1,5 IC1330361010000520230814040  1  NNKG000015000000015000N00000006509999951PZU00010000000000900000000IPAT.IGP ALTO VITERBE$00000S00000000021800901      PAT.IGP ALTO VITERBESE IT.KG.1,5 IC00000000021800901      IC00000010000001500000010SL0000000101202407309999999900000000195C0000012024073099999999U0001000000000002989220250417210350EL5       EUR000000 00000S$ALL  $$$$$      000000N
002220M021902201PATATE SELENIO KG.1,25 ITALIA ICT  1330361010001020240410040  1  NNKG000012500000012500N00000006509999951PZU00010000000000900000000IPATATE SELENIO KG.1,$00000Z00000000021902201      PATATE SELENIO KG.1,25 ITALIA ICT  00000000021902201      IC00000010000001500000012ZL0000000101202404139999999900000000215C0000012024041399999999U0001000000000002999220250417210350EL5       EUR000000 00000S$ALL  $$$$$      000000N
002220M022015701PATATE GIALLE FRANCIA 1,5KG ICAT   1330361040000220250327040  1  NNKG000015000000015000N00000006509999951PZU00010000000000900000000IPATATE GIALLE FRANCI$00000S00000000022015701      PATATE GIALLE FRANCIA 1,5KG ICAT   00000000022015701      IC00000010000001500000010SL0000000101202504019999999900000000160C0000012025040199999999U0001000000000002389220250417210350EL5       EUR000000 00000S$ALL  $$$$$      000000N
