002220M003259001BRACIOLA DI AGNELLO CONFEZIONATA   1290410300010220020830100  1  NNKG000010000000000000S00000005009999903KGU00010000000000300000000IBRACIOLA DI AGNELLO $00000I00000000003259001      BRACIOLA DI AGNELLO CONFEZIONATA   00000000003259001      IC00000010099999999900001IL0000000101202503239999999900000001625E0004002024120899999999U0001000000000019909120250418154708TROIANI   EUR000000P00080N      $$$$$      000000
002220M071947101ARROSTICINI AGNELLO X6             1290410300014120211030100  1  NN$$000000000000000000S00000005009999903KGU00010000000000300000000IARROSTICINI AGNELLO $00000I00000000071947101      ARROSTICINI AGNELLO X6             00000000071947101      IC00000010099999999900001IL0000000101202412089999999900000001615E0004002024120899999999U0001000000000022909120250418154708TROIANI   EUR000000P00080N      $$$$$      000000
002220M068891001SOTTILISSIME FESA TACCHINO AIA     1290519340020320131001100  1  NNKG000010000000000000S00000005009999903KGU00010000000000300000000ISOTTILISSIME TACCH. $00000I00000000068891001      SOTTILISSIME FESA TACCHINO AIA     00000000068891001      IC00000010099999999900001IL0000000101202501129999999900000001230E0004002025011299999999U0001000000000019499120250418154708TROIANI   EUR000000P00080N      $$$$$      000000
002220M068106401HAMBURGER POLLO AIA G.200          1291102010001020101228100  1  NNKG000002000000002000N00000005009999903PZU00010000000000300000000IHAMBURGER POLLO AIA $00000I00000000068106401      HAMBURGER POLLO AIA G.200          00000000068106401      IC00000010099999999900012IL0000000101202502189999999900000000235E0004002025021899999999U0001000000000003759120250418154708TROIANI   EUR000000P00080N      $$$$$      000000
002220M067254801SALAMELLE AIA GR.340               1291103010006020070829100  1  NNKG000003400000003400N00000005009999903PZU00010000000000300000000ISALAMELLE AIA       $00000I00000000067254801      SALAMELLE AIA GR.340               00000000067254801      IC00000010099999999900009IL0000000101202502189999999900000000372E0004002025021899999999U0001000000000005999120250418154708TROIANI   EUR000000P00080N      $$$$$      000000
002220M073497101BON ROLL SPINACI AIA G.680         1291104010021520241017100  1  NNKG000006800000006800N00000005009999903PZU00010000000000300000000IBON ROLL SPINACI    $00000I00000000073497101      BON ROLL SPINACI AIA G.680         00000000073497101      IC00000000000000000000006IL0000000101202502259999999900000000695E0004002025022599999999U0001000000000010989120250418154708TROIANI   EUR000000 00000S      $$$$$      000000
002220M073497201BON ROLL SPECK AIA G.680           1291104010022020241017100  1  NNKG000006800000006800N00000005009999903PZU00010000000000300000000IBON ROLL SPECK      $00000I00000000073497201      BON ROLL SPECK AIA G.680           00000000073497201      IC00000000000000000000006IL0000000101202502259999999900000000695E0004002025022599999999U0001000000000010989120250418154708TROIANI   EUR000000 00000S      $$$$$      000000
002220M009693301DIAVOLETTO POLLO AIA               1291105010001020050203100  1  NNKG000010000000000000S00000005009999903KGU00010000000000300000000IDIAVOLETTO POLLO AIA$00000I00000000009693301      DIAVOLETTO POLLO AIA               00000000009693301      IC00000010099999999900001IL0000000101202501129999999900000000517E0004002025011299999999U0001000000000008299120250418154708TROIANI   EUR000000P00080N      $$$$$      000000
002220M073520701COTOLETTA DI POLLO AIA G.200       1291501010002120241113100  1  NNKG000002000000002000N00000005009999903PZU00010000000000300000000ICOTOLETTA POLLO AIA $00000I00000000073520701      COTOLETTA DI POLLO AIA G.200       00000000073520701      IC00000000000000000000010IL0000000101202411239999999900000000230E0004002024112399999999U0001000000000003799120250418154708TROIANI   EUR000000 00000S      $$$$$      000000
002220M069090001COTOLETTA LAMILANESE AIA G.280     1291501010005020140814100  1  NNKG000002800000002800N00000005009999903PZU00010000000000300000000ICOTOLETTA LAMILANESE$00000I00000000069090001      COTOLETTA LAMILANESE AIA G.280     00000000069090001      IC00000010099999999900010IL0000000101202302129999999900000000308E0004002023021299999999U0001000000000004999120250418154708TROIANI   EUR000000P00080N      $$$$$      000000
002220M069461201COT/SPINACI GRANCROCCANTI AIA G.3001291502010002520151012100  1  NNKG000003000000003000N00000005009999903PZU00010000000000300000000ICOT/SPINACI GRANCROC$00000I00000000069461201      COT/SPINACI GRANCROCCANTI AIA G.30000000000069461201      IC00000010099999999900008IL0000000101202302129999999900000000358E0004002023021299999999U0001000000000005749120250418154708TROIANI   EUR000000P00080N      $$$$$      000000
002220M071285601BOCCONCINI SEMPL.PANATI AIA G.280  1291504100001220200804100  1  NNKG000002800000002800N00000005009999903PZU00010000000000300000000IBOCCONC. PANATI AIA $00000I00000000071285601      BOCCONCINI SEMPL.PANATI AIA G.280  00000000071285601      IC00000010099999999900006IL0000000101202302129999999900000000372E0004002023021299999999U0001000000000005999120250418154708TROIANI   EUR000000 00000N      $$$$$      000000
002220M071774901BOCCONCINI CHICKEN NUGGETS AIA G2301291504100003920210622100  1  NNKG000002300000002300N00000005009999903PZU00010000000000300000000ICHICKEN NUGGETS AIA $00000I00000000071774901      BOCCONCINI CHICKEN NUGGETS AIA G23000000000071774901      IC00000010099999999900009IL0000000101202302129999999900000000275E0004002023021299999999U0001000000000004499120250418154708TROIANI   EUR000000 00000N      $$$$$      000000
002220M069778001SOTTILISSIME POLLO PANATE AIA G.1401291504100006520161114100  1  NNKG000001400000001400N00000005009999903PZU00010000000000300000000ISOTTILISSIME PANATE $00000I00000000069778001      SOTTILISSIME POLLO PANATE AIA G.14000000000069778001      IC00000010099999999900012IL0000000101202409269999999900000000180E0004002024092699999999U0001000000000002899120250418154708TROIANI   EUR000000 00000N      $$$$$      000000
002220M070105001COTOLETTA VALDOSTANA AIA G.200     1291504100010520180115100  1  NNKG000002000000002000N00000005009999903PZU00010000000000300000000IVALDOSTANA AIA      $00000I00000000070105001      COTOLETTA VALDOSTANA AIA G.200     00000000070105001      IC00000010099999999900008IL0000000101202302129999999900000000240E0004002023021299999999U0001000000000003999120250418154708TROIANI   EUR000000 00000N      $$$$$      000000
002220M067422901ALETTE POLLO DURANGO AIA G.500     1291504100014020080410100  1  NNKG000005000000005000N00000005009999903PZU00010000000000300000000IALETTE DURANGO AIA  $00000I00000000067422901      ALETTE POLLO DURANGO AIA G.500     00000000067422901      IC00000010099999999900006IL0000000101202502189999999900000000428E0004002025021899999999U0001000000000006999120250418154708TROIANI   EUR000000P00080N      $$$$$      000000
002220M072540501KEBAB KEB'S POLLO AIA G.300        1291504100014520230207100  1  NNKG000003000000003000N00000005009999903PZU00010000000000300000000IKEBAB POLLO AIA     $00000I00000000072540501      KEBAB KEB'S POLLO AIA G.300        00000000072540501      IC00000010099999999900008IL0000000101202302129999999900000000370E0004002023021299999999U0001000000000005999120250418154708TROIANI   EUR000000 00000S      $$$$$      000000
