002220M021140301PATATE KG.1 BIO CONAD VN.IT.I CT   1320101010000920160801040  1  NSKG000010000000010000N00000006509999951PZU00010000000000900000000IPATATE KG.1 BIO C   800000I00000000021140301      PATATE KG.1 BIO CONAD VN.IT.I CT   00000000021140301      IC00000010000001500000006IL0000000101202410299999999900000000215C0000012024102999999999U0001000000000002899220250412211137EL5       EUR000000 00000SVALL  BIOOF      000000N
002220M020826001MOUSSE DI MELE 100G MELINDA        1320201010000120070110100  1  NNKG000001000000001000N00000006500015051PZU00010000000000900000000IMOUSSE DI MELE 100G $00000I00000000020826001      MOUSSE DI MELE 100G MELINDA        00000000020826001      IC00000010000001500000018IL0000000101202504149999999900000000050C0000012025041499999999U0001000000000000799220250412211137EL5       EUR000000 00000S$ALL  $$$$$      000000N
002220M020826701MOUSSE MELE/PERE 100G MELINDA      1320201010000520070110100  1  NNKG000001000000001000N00000006500015051PZU00010000000000900000000IMOUSSE MELE/PERE 100$00000I00000000020826701      MOUSSE MELE/PERE 100G MELINDA      00000000020826701      IC00000010000001500000018IL0000000101202504149999999900000000050C0000012025041499999999U0001000000000000799220250412211137EL5       EUR000000 00000S$ALL  $$$$$      000000N
002220M020826401MOUSSE MELE/BANANE 100G MELINDA    1320201010001020070110100  1  NNKG000001000000001000N00000006500015051PZU00010000000000900000000IMOUSSE MELE/BANANE 1$00000I00000000020826401      MOUSSE MELE/BANANE 100G MELINDA    00000000020826401      IC00000010000001500000018IL0000000101202504149999999900000000050C0000012025041499999999U0001000000000000799220250412211137EL5       EUR000000 00000S$ALL  $$$$$      000000N
002220M020826101MOUSSE MELE/FRAGOLE 100G MELINDA   1320201010001520070110100  1  NNKG000001000000001000N00000006500015051PZU00010000000000900000000IMOUSSE MELE/FRAGOLE $00000I00000000020826101      MOUSSE MELE/FRAGOLE 100G MELINDA   00000000020826101      IC00000010000001500000018IL0000000101202504149999999900000000050C0000012025041499999999U0001000000000000799220250412211137EL5       EUR000000 00000S$ALL  $$$$$      000000N
002220M020826301MOUSSE MELE/ALBICOCCHE 100G        1320201010002020070110100  1  NNKG000001000000001000N00000006509999951PZU00010000000000900000000IMOUSSE MELE/ALBICOCC$00000I00000000020826301      MOUSSE MELE/ALBICOCCHE 100G        00000000020826301      IC00000010000001500000018IL0000000101202504149999999900000000050C0000012025041499999999U0001000000000000799220250412211137EL5       EUR000000 00000S$ALL  $$$$$      000000N
002220M020826201MOUSSE MELE/PRUGNE 100G MELINDA    1320201010002520070110100  1  NNKG000001000000001000N00000006500015051PZU00010000000000900000000IMOUSSE MELE/PRUGNE 1$00000I00000000020826201      MOUSSE MELE/PRUGNE 100G MELINDA    00000000020826201      IC00000010000001500000018IL0000000101202504149999999900000000050C0000012025041499999999U0001000000000000799220250412211137EL5       EUR000000 00000S$ALL  $$$$$      000000N
002220M020826801MOUSSE MELE/KIWI 100G MELINDA      1320201010003020070110100  1  NNKG000001000000001000N00000006500015051PZU00010000000000900000000IMOUSSE MELE/KIWI 100$00000I00000000020826801      MOUSSE MELE/KIWI 100G MELINDA      00000000020826801      IC00000010000001500000018IL0000000101202504149999999900000000050C0000012025041499999999U0001000000000000799220250412211137EL5       EUR000000 00000S$ALL  $$$$$      000000N
002220M020826601MOUSSE MELE/PESCHE 100G MELINDA    1320201010003520070110100  1  NNKG000001000000001000N00000006509999951PZU00010000000000900000000IMOUSSE MELE/PESCHE 1$00000I00000000020826601      MOUSSE MELE/PESCHE 100G MELINDA    00000000020826601      IC00000010000001500000018IL0000000101202504149999999900000000050C0000012025041499999999U0001000000000000799220250412211137EL5       EUR000000 00000S$ALL  $$$$$      000000N
002220M020826501MOUSSE MELE/MIRTILLI 100G MELINDA  1320201010004520070110100  1  NNKG000001000000001000N00000006500015051PZU00010000000000900000000IMOUSSE MELE/MIRTILLI$00000I00000000020826501      MOUSSE MELE/MIRTILLI 100G MELINDA  00000000020826501      IC00000010000001500000018IL0000000101202504149999999900000000050C0000012025041499999999U0001000000000000799220250412211137EL5       EUR000000 00000S$ALL  $$$$$      000000N
002220M020826901MOUSSE MELE/CILIEGIE 100G MELINDA  1320201010004620070110100  1  NNKG000001000000001000N00000006509999951PZU00010000000000900000000IMOUSSE MELE/CILIEGIE$00000I00000000020826901      MOUSSE MELE/CILIEGIE 100G MELINDA  00000000020826901      IC00000010000001500000018IL0000000101202504149999999900000000050C0000012025041499999999U0001000000000000799220250412211137EL5       EUR000000 00000S$ALL  $$$$$      000000N
002220M020827001MOUSSE MELE/FRUTTI DI BOSCO 100G   1320201010004720070110100  1  NNKG000001000000001000N00000006500015051PZU00010000000000900000000IMOUSSE MELE/FRUTTI D$00000I00000000020827001      MOUSSE MELE/FRUTTI DI BOSCO 100G   00000000020827001      IC00000010000001500000018IL0000000101202504149999999900000000050C0000012025041499999999U0001000000000000799220250412211137EL5       EUR000000 00000S$ALL  $$$$$      000000N
002220M021881201MOUSSE MELA/BERGAMOTTO 100G MELINDA1320201010004720240226100  1  NNKG000001000000001000N00000006509999951PZU00010000000000900000000IMOUSSE MELA/BERGAMOT$00000I00000000021881201      MOUSSE MELA/BERGAMOTTO 100G MELINDA00000000021881201      IC00000010000001500000018IL0000000101202504149999999900000000050C0000012025041499999999U0001000000000000799220250412211137EL5       EUR000000 00000S$ALL  $$$$$      005001N
002220M021881301MOUSSE MELA/MELAGRANA 100G MELINDA 1320201010004720240226100  1  NNKG000001000000001000N00000006509999951PZU00010000000000900000000IMOUSSE MELA/MELAGRAN$00000I00000000021881301      MOUSSE MELA/MELAGRANA 100G MELINDA 00000000021881301      IC00000010000001500000018IL0000000101202504149999999900000000050C0000012025041499999999U0001000000000000799220250412211137EL5       EUR000000 00000S$ALL  $$$$$      005001N
002220M020946901FRULLA'MELA E PERA DOYPACK 100G    1320201010021020110428100  1  NNKG000001000000001000N00000006509999951PZU00010000000000900000000IFRULLA'MELA E PERA  $00000I00000000020946901      FRULLA'MELA E PERA DOYPACK 100G    00000000020946901      IC00000010000001500000018IL0000000101202504089999999900000000052C0000012025040899999999U0001000000000000899220250412211137EL5       EUR000000 00000S$ALL  $$$$$      000000N
002220M021250901PIANTA ORTENSIA V.22 CONFEZIONATA  1320505010019820180322100  1  NN$$000000000000010000N00000006159999951PZU00010000000000900000000IPIANTA ORTENSIA V.22$00000I00000000021250901      PIANTA ORTENSIA V.22 CONFEZIONATA  00000000021250901      IC00000010000001500000004IL0000000101202504149999999900000000990C0000012025041499999999U0001000000000014909220250412211137EL5       EUR000000 00000S$ALL  $$$$$      000000N
002220M020989201PIANTA GARDENIA V.14 CONF.GIOIELLO 1320505010040020130412100  1  NN$$000000000000010000N00000006159999951PZU00010000000000900000000IPIANTA GARDENIA V.14$00000I00000000020989201      PIANTA GARDENIA V.14 CONF.GIOIELLO 00000000020989201      IC00000010000001500000012IL0000000101202504149999999900000000720C0000012025041499999999U0001000000000011909220250412211137EL5       EUR000000 00000S$ALL  $$$$$      000000N
002220M021249601PIANTA AZALEA V.17 CHIOMA 40/50    1320505010040020180320100  1  NN$$000000000000010000N00000006159999951PZU00010000000000900000000IPIANTA AZALEA V.17 C100000I00000000021249601      PIANTA AZALEA V.17 CHIOMA 40/50    00000000021249601      IC00000010000001500000006IL0000000101202504149999999900000000850C0000012025041499999999U0001000000000013909220250412211137EL5       EUR000000 00000S$ALL  $$$$$      000000N
002220M021321101TAROCCO SICILIA S&D CAL.4 4X6 IT.IC1330101010000220190304040  1  NSKG000010000000000000S00000006509999951KGU00010000000000900000000ITAROCCO SICILIA S&D $00000Z00000000021321101      TAROCCO SICILIA S&D CAL.4 4X6 IT.IC00000000021321101      IC00000010000001500000001ZL0000000101202503229999999900000000210C0000012025032299999999U0001000000000002989220250412211137EL5       EUR000000 00000SOALL  $$$$$      010001N
002220M021457601ARANCE TAROCCO C.7 KG.1,5 CPQ.IT.IC1330101010000620210223040  1  NSKG000015000000015000N00000006509999951PZU00010000000000900000000IARANCE TAROCCO C.7 K$00000I00000000021457601      ARANCE TAROCCO C.7 KG.1,5 CPQ.IT.IC00000000021457601      IC00000010000001500000008IL0000000101202504059999999900000000215C0000012025040599999999U0001000000000002999220250412211137EL5       EUR000000 00000SPALL  $$$$$      000000N
002220M021261801AR.VALENCIA CAL.5 CPQ ITALIA I CAT.1330101130005020180507040  1  NSKG000010000000000000S00000006509999951KGU00010000000000900000000IAR.VALENCIA CAL.5 CP$00000I00000000021261801      AR.VALENCIA CAL.5 CPQ ITALIA I CAT.00000000021261801      IC00000010000001500000001IL0000000101202504109999999900000000155C0000012025041099999999U0001000000000002299220250412211137EL5       EUR000000 00000SPALL  $$$$$      010001N
002220M021110001PERE ANGYS 70/75 ITALIA 30X40 ICAT.1330122130000120160316040  1  NNKG000010000000000000S00000006509999951KGU00010000000000900000000IPERE ANGYS 70/75 ITA$00000I00000000021110001      PERE ANGYS 70/75 ITALIA 30X40 ICAT.00000000021110001      IC00000010000001500000001IL0000000101202504149999999900000000240C0000012025041499999999U0001000000000003499220250412211137EL5       EUR000000 00000S$ALL  $$$$$      003001N
002220M022016901UVA MIX S.SEMI S.GLOBE 500G S.AFR.I1330125400001120250331040  1  NNKG000005000000005000N00000006509999951PZU00010000000000900000000IUVA MIX S.SEMI S.GLO$00000I00000000022016901      UVA MIX S.SEMI S.GLOBE 500G S.AFR.I00000000022016901      IC00000010000001500000010IL0000000101202504029999999900000000215C0000012025040299999999U0001000000000002999220250412211137EL5       EUR000000 00000S$ALL  $$$$$      000000N
002220M021468401FRAG.BAULETTO KG.1 SAPORI&IDEE IT.I1330146010000420210329040  1  NSKG000010000000010000N00000006509999951PZU00010000000000900000000IFRAG.BAULETTO KG.1 S$00000S00000000021468401      FRAG.BAULETTO KG.1 SAPORI&IDEE IT.I00000000021468401      IC00000010000001500000010S 0000000000000000000000000000000000000 0000000000000000000000U0001000000000000009220250412211137EL5       EUR000000 00000SIALL  $$$$$      000000N
002220M021884801FRAG.CANDONGA TOP QUAL.400G ITA.ICT1330146010000920240229040  1  NNKG000004000000004000N00000006509999951PZU00010000000000900000000IFRAG.CANDONGA TOP QU$00000S00000000021884801      FRAG.CANDONGA TOP QUAL.400G ITA.ICT00000000021884801      IC00000010000001500000012SL0000000101202503249999999900000000280C0000012025032499999999U0001000000000003999220250412211137EL5       EUR000000 00000S$ALL  $$$$$      000000N
002220M021090001MELONI GIALLI HONDURAS I CAT.      1330161070016020151105040  1  NNKG000010000000000000S00000006509999951KGU00010000000000900000000IMELONI GIALLI HONDUR$00000S00000000021090001      MELONI GIALLI HONDURAS I CAT.      00000000021090001      IC00000010000001500000001SL0000000101202504139999999900000000175C0000012025041399999999U0001000000000002499220250412211137EL5       EUR000000 00000S$ALL  $$$$$      005001N
002220M020991301NESPOLE SPAGNA CAL.G VASS.500G ICT 1330170070000120130506040  1  NNKG000005000000005000N00000006509999951PZU00010000000000900000000INESPOLE SPAGNA CAL.G$00000I00000000020991301      NESPOLE SPAGNA CAL.G VASS.500G ICT 00000000020991301      IC00000010000001500000012IL0000000101202504109999999900000000275C0000012025041099999999U0001000000000003909220250412211137EL5       EUR000000 00000S$ALL  $$$$$      000000N
002220M022018001INSALATA MISTA POKER 500G I CAT    1330302030000020250402040  1  NNKG000005000000005000N00000006509999951PZU00010000000000900000000IINSALATA MISTA POKER$00000I00000000022018001      INSALATA MISTA POKER 500G I CAT    00000000022018001      IC00000010000001500000008IL0000000101202504149999999900000000105C0000012025041499999999U0001000000000001499220250412211137EL5       EUR000000 00000S$ALL  $$$$$      000000N
002220M021993801INDIVIA BELGA VASS.500G OLANDA ICT 1330304010001020250130040  1  NNKG000005000000005000N00000006509999951PZU00010000000000900000000IINDIVIA BELGA VASS.5$00000I00000000021993801      INDIVIA BELGA VASS.500G OLANDA ICT 00000000021993801      IC00000010000001500000007IL0000000101202503039999999900000000135C0000012025030399999999U0001000000000001999220250412211137EL5       EUR000000 00000S$ALL  $$$$$      000000N
002220M021860801RADICCHIO VARIEGATO 500G OR.IT I CT1330307070000520240122040  1  NNKG000005000000005000N00000006509999951PZU00010000000000900000000SRADICCHIO VARIEGATO $00000Z00000000021860801      RADICCHIO VARIEGATO 500G OR.IT I CT00000000021860801      IC00000010000001500000004ZL0000000101202503129999999900000000215C0000012025031299999999U0001000000000002999220250412211137EL5       EUR000000 00000S$ALL  $$$$$      000000N
002220M020150801FUNGHI PORCINI ESSICCATI VASCH.50 G1330308100099019941201040  1  NNKG000000500000000500N00000006009999954PZU00010000000000900000000IFUNGHI PORCINI ESSIC900000I00000000020150801      FUNGHI PORCINI ESSICCATI VASCH.50 G00000000020150801      IC00000010000001500000012IL0000000101202504149999999900000000465C0000012025041499999999U0001000000000006389220250412211137EL5       EUR000000 00000S$ALL  $$$$$      000000N
002220M022014001TORTILLA ZUCCHINE DIMMIDISI 250G   1330309190000220250324100  1  NNKG000002500000002500N00000006009999951PZU00010000000000900000000ITORTILLA ZUCCHINE DI$00000I00000000022014001      TORTILLA ZUCCHINE DIMMIDISI 250G   00000000022014001      IC00000010000001500000006IL0000000101202504149999999900000000200C0000012025041499999999U0001000000000002989220250412211137EL5       EUR000000 00000S$ALL  $$$$$      000000N
002220M022014101TORTILLA CLASSICA DIMMIDISI 250G   1330309190000320250324100  1  NNKG000002500000002500N00000006509999951PZU00010000000000900000000ITORTILLA CLASSICA DI$00000I00000000022014101      TORTILLA CLASSICA DIMMIDISI 250G   00000000022014101      IC00000010000001500000006IL0000000101202504149999999900000000200C0000012025041499999999U0001000000000002989220250412211137EL5       EUR000000 00000S$ALL  $$$$$      000000N
002220M022014201TORTILLA CAMPESINA DIMMIDISI 250G  1330309190000320250324100  1  NNKG000002500000002500N00000006509999951PZU00010000000000900000000ITORTILLA CAMPESINA D$00000I00000000022014201      TORTILLA CAMPESINA DIMMIDISI 250G  00000000022014201      IC00000010000001500000006IL0000000101202504149999999900000000200C0000012025041499999999U0001000000000002989220250412211137EL5       EUR000000 00000S$ALL  $$$$$      000000N
002220M020510701BROCCOLETTI BARESANI 500G OR.ITA.IC1330310190000520020125040  1  NNKG000005000000005000N00000006509999951PZU00010000000000900000000IBROCCOLETTI BARESANI$00000I00000000020510701      BROCCOLETTI BARESANI 500G OR.ITA.IC00000000020510701      IC00000010000001500000012I 0000000000000000000000000000000000000 0000000000000000000000U0001000000000000009220250412211137EL5       EUR000000 00000S$ALL  $$$$$      000000N
002220M021321701BROCC.BARESANI 500G CPQ ITALIA ICAT1330310190002320190311040  1  NSKG000005000000005000N00000006509999951PZU00010000000000900000000IBROCC.BARESANI 500G $00000I00000000021321701      BROCC.BARESANI 500G CPQ ITALIA ICAT00000000021321701      IC00000010000001500000012IL0000000101202504089999999900000000125C0000012025040899999999U0001000000000001799220250412211137EL5       EUR000000 00000SPALL  $$$$$      000000N
002220M021389801ZUCCHINE TONDE VS.500G ITALIA ICAT 1330313100020120200504040  1  NNKG000005000000005000N00000006509999951PZU00010000000000900000000IZUCCHINE TONDE VS.50500000S00000000021389801      ZUCCHINE TONDE VS.500G ITALIA ICAT 00000000021389801      IC00000010000001500000010SL0000000101202503259999999900000000100C0000012025032599999999U0001000000000001499220250412211137EL5       EUR000000 00000S$ALL  $$$$$      000000N
002220M020239701PEP.GIALLI/ROSSI 80/100 ITALIA I CT1330322130000119970901040  1  NNKG000010000000000000S00000006509999951KGU00010000000000900000000IPEP.GIALLI/ROSSI    $00000O00000000020239701      PEP.GIALLI/ROSSI 80/100 ITALIA I CT00000000020239701      IC00000010000001500000001OL0000000101202504099999999900000000210C0000012025040999999999U0001000000000002989220250412211137EL5       EUR000000 00000S$ALL  $$$$$      003001N
002220M020982301POMODORI GRAPPOLO CPQ 700G OR.IT IC1330325010001520130118040  1  NSKG000007000000007000N00000006509999951PZU00010000000000900000000IPOMODORI GRAPPOLO CP$00000I00000000020982301      POMODORI GRAPPOLO CPQ 700G OR.IT IC00000000020982301      IC00000010000001500000010IL0000000101202503259999999900000000185C0000012025032599999999U0001000000000002699220250412211137EL5       EUR000000 00000SPALL  $$$$$      000000N
002220M021480601POM.CUORE DI BUE KG.1 ITALIA I CAT.1330325010070020210524040  1  NNKG000010000000010000N00000006509999951PZU00010000000000900000000IPOM.CUORE DI BUE KG.$00000I00000000021480601      POM.CUORE DI BUE KG.1 ITALIA I CAT.00000000021480601      IC00000010000001500000010I 0000000000000000000000000000000000000 0000000000000000000000U0001000000000000009220250412211137EL5       EUR000000 00000S$ALL  $$$$$      000000N
002220M020008001POM.ROSSO TONDO RISO 3B MAROCCO ICT1330325040006819921126040  1  NNKG000010000000000000S00000006509999951KGU00010000000000900000000IPOM.ROSSO TONDO RISO$00000I00000000020008001      POM.ROSSO TONDO RISO 3B MAROCCO ICT00000000020008001      IC00000010000001500000001IL0000000101202503259999999900000000270C0000012025032599999999U0001000000000003909220250412211137EL5       EUR000000 00000S$ALL  $$$$$      010001N
002220M021571801CARC.VIOLETTI ROSSI X30 PZ ITA. IC 1330343010005020220415040  1  NNKG000001000000001000N00000006509999951PZU00010000000000900000000ICARC.VIOLETTI ROSSI $00000I00000000021571801      CARC.VIOLETTI ROSSI X30 PZ ITA. IC 00000000021571801      IC00000010000001500000030IL0000000101202504019999999900000000052C0000012025040199999999U0001000000000000799220250412211137EL5       EUR000000 00000S$ALL  $$$$$      000000N
002220M020132001CARC.MAMMOLE ROSSE X25PZ ITA.ICT   1330343070001619940204040  1  NNKG000003500000003500N00000006509999951PZU00010000000000900000000ICARC.MAMMOLE ROSSE  $00000S00000000020132001      CARC.MAMMOLE ROSSE X25PZ ITA.ICT   00000000020132001      IC00000010000001500000025SL0000000101202503259999999900000000053C0000012025032599999999U0001000000000000799220250412211137EL5       EUR000000 00000S$ALL  $$$$$      000000N
002220M020900601ASPARAGI VERDI 500G CPQ.OR.IT.I CAT1330349010000120090423040  1  NSKG000005000000005000N00000006509999951PZU00010000000000900000000IASPARAGI VERDI 500G $00000S00000000020900601      ASPARAGI VERDI 500G CPQ.OR.IT.I CAT00000000020900601      IC00000010000001500000012SL0000000101202504099999999900000000320C0000012025040999999999U0001000000000004509220250412211137EL5       EUR000000 00000SPALL  $$$$$      000000N
002220M020923301ASPARAGI COLTIVATI 500G ITALIA IC  1330349010000220100427040  1  NNKG000005000000005000N00000006509999951PZU00010000000000900000000IASPARAGI COLTIVATI G$00000I00000000020923301      ASPARAGI COLTIVATI 500G ITALIA IC  00000000020923301      IC00000010000001500000012IL0000000101202504019999999900000000380C0000012025040199999999U0001000000000004989220250412211137EL5       EUR000000 00000S$ALL  $$$$$      000000N
002220M020006201CICORIA PUNTARELLE ITALIA I CAT    1330352040000619921124040  1  NNKG000010000000000000S00000006509999951KGU00010000000000900000000ICICORIA PUNTARELLE I$00000Z00000000020006201      CICORIA PUNTARELLE ITALIA I CAT    00000000020006201      IC00000010000001500000001Z 0000000000000000000000000000000000000 0000000000000000000000U0001000000000000009220250412211137EL5       EUR000000 00000S$ALL  $$$$$      005001N
002220M021800901PAT.IGP ALTO VITERBESE IT.KG.1,5 IC1330361010000520230814040  1  NNKG000015000000015000N00000006509999951PZU00010000000000900000000IPAT.IGP ALTO VITERBE$00000S00000000021800901      PAT.IGP ALTO VITERBESE IT.KG.1,5 IC00000000021800901      IC00000010000001500000010SL0000000101202407309999999900000000195C0000012024073099999999U0001000000000002989220250412211137EL5       EUR000000 00000S$ALL  $$$$$      000000N
002220M021985901PATATE IODI'RT.KG.1 FRANCIA I CAT  1330361010001220250116040  1  NNKG000010000000010000N00000006509999951PZU00010000000000900000000IPATATE IODI'RT.KG.1 $00000S00000000021985901      PATATE IODI'RT.KG.1 FRANCIA I CAT  00000000021985901      IC00000010000001500000009SL0000000101202501239999999900000000142C0000012025012399999999U0001000000000001989220250412211137EL5       EUR000000 00000S$ALL  $$$$$      000000N
002220M021476801NOCI SGUSCIATE BST.500G NOBERASCO  1330501130000320210507040  1  NNKG000005000000005000N00000006009999954PZU00010000000000900000000INOCI SGUSCIATE BST.5900000I00000000021476801      NOCI SGUSCIATE BST.500G NOBERASCO  00000000021476801      IC00000010000001500000010IL0000000101202504149999999900000000600C0000012025041499999999U0001000000000008509220250412211137EL5       EUR000000 00000S$ALL  $$$$$      000000N
002220M021016001NOCI BRASILIANE SGUSC.FATINA 150G  1330501130010220140520040  1  NNKG000001500000001500N00000006009999954PZU00010000000000900000000INOCI BRASILIANE SGUS900000I00000000021016001      NOCI BRASILIANE SGUSC.FATINA 150G  00000000021016001      IC00000010000001500000012IL0000000101202504149999999900000000290C0000012025041499999999U0001000000000003989220250412211137EL5       EUR000000 00000S$ALL  $$$$$      000000N
