002220M021467901SQUEEZ MELA E PESCA 90G MELINDA    1320201010008520210325100  1  NNKG000000900000000900N00000006500015051PZU00010000000000900000000ISQUEEZ MELA E PESCA $00000I00000000021467901      SQUEEZ MELA E PESCA 90G MELINDA    00000000021467901      IC00000010000001500000006IL0000000101202407159999999900000000066C0000012024071599999999U0001000000000000999220250411210406EL5       EUR000000 00000S$ALL  $$$$$      000000N
002220M021854501ESP.4PIANI SANSEVERIA/GRASSE LATTA 1320505010001020240104100  1  NN$$000000000000010000N00000006159999951PZU00010000000000900000000OESP.4PIANI SANSEVERI700000O00000000021854501      ESP.4PIANI SANSEVERIA/GRASSE LATTA 00000000021854501      IC00000010000001500000092O 0000000000000000000000000000000000000 0000000000000000000000U0001000000000000009220250411210406EL5       EUR000000 00000S$ALL  $$$$$      000000N
002220M021873201P.CACTUS/SUCCUL.V.6,5 MOTHER'S DAY 1320505010001020240215100  1  NN$$000000000000010000N00000006159999951PZU00010000000000900000000OP.CACTUS/SUCCUL.V.6,700000O00000000021873201      P.CACTUS/SUCCUL.V.6,5 MOTHER'S DAY 00000000021873201      IC00000010000001500000020OL0000000101202405079999999900000000160C0000012024050799999999U0001000000000002499220250411210406EL5       EUR000000 00000S$ALL  $$$$$      000000N
002220M020376301PIANTA ORNITOGALLO VASO 14         1320505010020320000209100  1  NN$$000000000000010000N00000006159999951PZU00010000000000900000000IPIANTA ORNITOGALLO  $00000I00000000020376301      PIANTA ORNITOGALLO VASO 14         00000000020376301      IC00000010000001500000006IL0000000101202504079999999900000000425C0000012025040799999999U0001000000000006909220250411210406EL5       EUR000000 00000S$ALL  $$$$$      000000N
002220M020388001M.CARR.COMP.SPECIALI F.DELLA MAMMA 1320505010049020000502100  1  NN$$000000000000010000N00000006159999951PZU00010000000000900000000OM.CARR.COMP.SPECIALI100000O00000000020388001      M.CARR.COMP.SPECIALI F.DELLA MAMMA 00000000020388001      IC00000010000001500000064O 0000000000000000000000000000000000000 0000000000000000000000U0001000000000000009220250411210406EL5       EUR000000 00000S$ALL  $$$$$      000000N
002220M020781901COMP.MINI BIS KALANCOLA CERAMICA   1320505010049020051203100  1  NN$$000000000000010000N00000006159999951PZU00010000000000900000000OCOMP.MINI BIS KALANC100000O00000000020781901      COMP.MINI BIS KALANCOLA CERAMICA   00000000020781901      IC00000010000001500000008OL0000000101202502149999999900000000595C0000012025021499999999U0001000000000008909220250411210406EL5       EUR000000 00000S$ALL  $$$$$      000000N
002220M020801801COMPOSIZIONE PALLINA IN CERAMICA   1320505010049020060428100  1  NN$$000000000000010000N00000006159999951PZU00010000000000900000000OCOMPOSIZIONE PALLINA200000O00000000020801801      COMPOSIZIONE PALLINA IN CERAMICA   00000000020801801      IC00000010000001500000006OL0000000101202502149999999900000000750C0000012025021499999999U0001000000000012009220250411210406EL5       EUR000000 00000S$ALL  $$$$$      000000N
002220M021728501COMP.BIS ROSA PRIMAVERA CERAM.F.MAM1320505010049020230419100  1  NN$$000000000000010000N00000006159999951PZU00010000000000900000000OCOMP.BIS ROSA PRIMAV$00000O00000000021728501      COMP.BIS ROSA PRIMAVERA CERAM.F.MAM00000000021728501      IC00000010000001500000006OL0000000101202405079999999900000000920C0000012024050799999999U0001000000000013909220250411210406EL5       EUR000000 00000S$ALL  $$$$$      000000N
002220M021872201PHALAENOPSIS CONFEZIONATO 2 RAMI   1320505010049020240213100  1  NN$$000000000000010000N00000006159999951PZU00010000000000900000000IPHALAENOPSIS CONFEZI100000I00000000021872201      PHALAENOPSIS CONFEZIONATO 2 RAMI   00000000021872201      IC00000010000001500000012IL0000000101202503189999999900000001000C0000012025031899999999U0001000000000014909220250411210406EL5       EUR000000 00000S$ALL  $$$$$      000000N
002220M021983601COMP.ROSA STABIL.SINGOLA CONF.CILIN1320505010049020250113220  1  NN$$000000000000010000N00000006159999951PZU00010000000000900000000OCOMP.ROSA STABIL.SIN$00000O00000000021983601      COMP.ROSA STABIL.SINGOLA CONF.CILIN00000000021983601      IC00000010000001500000012OL0000000101202501139999999900000001150C0000012025011399999999U0001000000000018909220250411210406EL5       EUR000000 00000S$ALL  $$$$$      000000N
002220M021261801AR.VALENCIA CAL.5 CPQ ITALIA I CAT.1330101130005020180507040  1  NSKG000010000000000000S00000006509999951KGU00010000000000900000000IAR.VALENCIA CAL.5 CP$00000I00000000021261801      AR.VALENCIA CAL.5 CPQ ITALIA I CAT.00000000021261801      IC00000010000001500000001IL0000000101202504109999999900000000155C0000012025041099999999U0001000000000002299220250411210406EL5       EUR000000 00000SPALL  $$$$$      010001N
002220M022016901UVA MIX S.SEMI S.GLOBE 500G S.AFR.I1330125400001120250331040  1  NNKG000005000000005000N00000006509999951PZU00010000000000900000000IUVA MIX S.SEMI S.GLO$00000I00000000022016901      UVA MIX S.SEMI S.GLOBE 500G S.AFR.I00000000022016901      IC00000010000001500000010IL0000000101202504029999999900000000215C0000012025040299999999U0001000000000002999220250411210406EL5       EUR000000 00000S$ALL  $$$$$      000000N
002220M021468401FRAG.BAULETTO KG.1 SAPORI&IDEE IT.I1330146010000420210329040  1  NSKG000010000000010000N00000006509999951PZU00010000000000900000000IFRAG.BAULETTO KG.1 S$00000S00000000021468401      FRAG.BAULETTO KG.1 SAPORI&IDEE IT.I00000000021468401      IC00000010000001500000010S 0000000000000000000000000000000000000 0000000000000000000000U0001000000000000009220250411210406EL5       EUR000000 00000SIALL  $$$$$      000000N
002220M020331101FRAGOLE FAVETTA 250G ITALIA I CAT  1330146010000719990427040  1  NNKG000002500000002500N00000006509999951PZU00010000000000900000000IFRAGOLE FAVETTA 250G$00000I00000000020331101      FRAGOLE FAVETTA 250G ITALIA I CAT  00000000020331101      IC00000010000001500000008IL0000000101202501039999999900000000210C0000012025010399999999U0001000000000002999220250411210406EL5       EUR000000 00000S$ALL  $$$$$      000000N
002220M022007201CIOT.BENESSERE VITALITY 130G BND   1330302010000220250310040  1  NNKG000001300000001300N00000006509999951PZU00010000000000900000000ICIOT.BENESSERE VITAL$00000I00000000022007201      CIOT.BENESSERE VITALITY 130G BND   00000000022007201      IC00000010000001500000005I 0000000000000000000000000000000000000 0000000000000000000000U0001000000000000009220250411210406EL5       EUR000000 00000S$ALL  $$$$$      000000N
002220M021993801INDIVIA BELGA VASS.500G OLANDA ICT 1330304010001020250130040  1  NNKG000005000000005000N00000006509999951PZU00010000000000900000000IINDIVIA BELGA VASS.5$00000I00000000021993801      INDIVIA BELGA VASS.500G OLANDA ICT 00000000021993801      IC00000010000001500000007IL0000000101202503039999999900000000135C0000012025030399999999U0001000000000001999220250411210406EL5       EUR000000 00000S$ALL  $$$$$      000000N
002220M020588901INSALATA BELGA OLANDA 500G I CAT   1330304010006220020924040  1  NNKG000005000000005000N00000006509999951PZU00010000000000900000000IINSALATA BELGA OLAND$00000S00000000020588901      INSALATA BELGA OLANDA 500G I CAT   00000000020588901      IC00000010000001500000010SL0000000101202504109999999900000000135C0000012025041099999999U0001000000000001999220250411210406EL5       EUR000000 00000S$ALL  $$$$$      000000N
002220M021860801RADICCHIO VARIEGATO 500G OR.IT I CT1330307070000520240122040  1  NNKG000005000000005000N00000006509999951PZU00010000000000900000000SRADICCHIO VARIEGATO $00000Z00000000021860801      RADICCHIO VARIEGATO 500G OR.IT I CT00000000021860801      IC00000010000001500000004ZL0000000101202503129999999900000000215C0000012025031299999999U0001000000000002999220250411210406EL5       EUR000000 00000S$ALL  $$$$$      000000N
002220M021153901PANNOCCHIE MAIS PRECOTTE CONAD 400G1330309190000020161110100  1  NSKG000004000000004000N00000006509999951PZU00010000000000900000000IPANNOCCHIE MAIS PREC$00000I00000000021153901      PANNOCCHIE MAIS PRECOTTE CONAD 400G00000000021153901      IC00000010000001500000012IL0000000101202311069999999900000000180C0000012023110699999999U0001000000000002799220250411210406EL5       EUR000000 00000SCALL  $$$$$      000000N
002220M021653101ROSETTE CAVOLF.B. 400G CPQ IT.ICAT 1330310010000120221017040  1  NSKG000004000000004000N00000006509999951PZU00010000000000900000000IROSETTE CAVOLF.B. 40$00000O00000000021653101      ROSETTE CAVOLF.B. 400G CPQ IT.ICAT 00000000021653101      IC00000010000001500000006OL0000000101202504089999999900000000165C0000012025040899999999U0001000000000002489220250411210406EL5       EUR000000 00000SOALL  $$$$$      000000N
002220M021958201MIX CAVOLFIORE E BARESANO 400G IT.I1330310011695620241007040  1  NNKG000004000000004000N00000006509999951PZU00010000000000900000000IMIX CAVOLFIORE E BAR500000O00000000021958201      MIX CAVOLFIORE E BARESANO 400G IT.I00000000021958201      IC00000010000001500000006OL0000000101202504089999999900000000200C0000012025040899999999U0001000000000002989220250411210406EL5       EUR000000 00000S$ALL  $$$$$      000000N
002220M021934801OL.NERE DENOCCIOL.SECCH.250G OROLI'1330312240005020240713100  1  NNKG000002500000002500N00000006509999951PZU00010000000000900000000IOL.NERE DENOCCIOL.SE$00000I00000000021934801      OL.NERE DENOCCIOL.SECCH.250G OROLI'00000000021934801      IC00000010000001500000016IL0000000101202407299999999900000000155C0000012024072999999999U0001000000000002399220250411210406EL5       EUR000000 00000S$ALL  $$$$$      000000N
002220M021389801ZUCCHINE TONDE VS.500G ITALIA ICAT 1330313100020120200504040  1  NNKG000005000000005000N00000006509999951PZU00010000000000900000000IZUCCHINE TONDE VS.50500000S00000000021389801      ZUCCHINE TONDE VS.500G ITALIA ICAT 00000000021389801      IC00000010000001500000010SL0000000101202503259999999900000000100C0000012025032599999999U0001000000000001499220250411210406EL5       EUR000000 00000S$ALL  $$$$$      000000N
002220M021480601POM.CUORE DI BUE KG.1 ITALIA I CAT.1330325010070020210524040  1  NNKG000010000000010000N00000006509999951PZU00010000000000900000000IPOM.CUORE DI BUE KG.$00000I00000000021480601      POM.CUORE DI BUE KG.1 ITALIA I CAT.00000000021480601      IC00000010000001500000010I 0000000000000000000000000000000000000 0000000000000000000000U0001000000000000009220250411210406EL5       EUR000000 00000S$ALL  $$$$$      000000N
002220M020008001POM.ROSSO TONDO RISO 3B MAROCCO ICT1330325040006819921126040  1  NNKG000010000000000000S00000006509999951KGU00010000000000900000000IPOM.ROSSO TONDO RISO$00000S00000000020008001      POM.ROSSO TONDO RISO 3B MAROCCO ICT00000000020008001      IC00000010000001500000001SL0000000101202503259999999900000000270C0000012025032599999999U0001000000000003909220250411210406EL5       EUR000000 00000S$ALL  $$$$$      010001N
002220M021571801CARC.VIOLETTI ROSSI X30 PZ ITA. IC 1330343010005020220415040  1  NNKG000001000000001000N00000006509999951PZU00010000000000900000000ICARC.VIOLETTI ROSSI $00000I00000000021571801      CARC.VIOLETTI ROSSI X30 PZ ITA. IC 00000000021571801      IC00000010000001500000030IL0000000101202504019999999900000000052C0000012025040199999999U0001000000000000799220250411210406EL5       EUR000000 00000S$ALL  $$$$$      000000N
002220M021575201CARCIOFI MADRIGAL X 20 PZ I CAT.   1330343070001120220427040  1  NNKG000003500000003500N00000006509999951PZU00010000000000900000000ICARCIOFI MADRIGAL X $00000I00000000021575201      CARCIOFI MADRIGAL X 20 PZ I CAT.   00000000021575201      IC00000010000001500000020IL0000000101202504059999999900000000045C0000012025040599999999U0001000000000000699220250411210406EL5       EUR000000 00000S$ALL  $$$$$      000000N
002220M020132001CARC.MAMMOLE ROSSE X25PZ ITA.ICT   1330343070001619940204040  1  NNKG000003500000003500N00000006509999951PZU00010000000000900000000ICARC.MAMMOLE ROSSE  $00000S00000000020132001      CARC.MAMMOLE ROSSE X25PZ ITA.ICT   00000000020132001      IC00000010000001500000025SL0000000101202503259999999900000000053C0000012025032599999999U0001000000000000799220250411210406EL5       EUR000000 00000S$ALL  $$$$$      000000N
002220M020281301CARC.MAMMOLE ROSSE G1 ITALIA I CAT 1330343070010019980417040  1  NNKG000003500000003500N00000006509999951PZU00010000000000900000000ICARC.MAMMOLE ROSSE G$00000I00000000020281301      CARC.MAMMOLE ROSSE G1 ITALIA I CAT 00000000020281301      IC00000010000001500000025I 0000000000000000000000000000000000000 0000000000000000000000U0001000000000000009220250411210406EL5       EUR000000 00000S$ALL  $$$$$      000000N
002220M020211501CARCIOFINA A PESO ITALIA I CAT     1330343100099019970506040  1  NNKG000010000000000000S00000006509999951KGU00010000000000900000000ICARCIOFINA A PESO   $00000I00000000020211501      CARCIOFINA A PESO ITALIA I CAT     00000000020211501      IC00000010000001500000001IL0000000101202504019999999900000000195C0000012025040199999999U0001000000000002799220250411210406EL5       EUR000000 00000S$ALL  $$$$$      010001N
002220M020900601ASPARAGI VERDI 500G CPQ.OR.IT.I CAT1330349010000120090423040  1  NSKG000005000000005000N00000006509999951PZU00010000000000900000000IASPARAGI VERDI 500G $00000S00000000020900601      ASPARAGI VERDI 500G CPQ.OR.IT.I CAT00000000020900601      IC00000010000001500000012SL0000000101202504099999999900000000320C0000012025040999999999U0001000000000004509220250411210406EL5       EUR000000 00000SPALL  $$$$$      000000N
002220M020923301ASPARAGI COLTIVATI 500G ITALIA IC  1330349010000220100427040  1  NNKG000005000000005000N00000006509999951PZU00010000000000900000000IASPARAGI COLTIVATI G$00000I00000000020923301      ASPARAGI COLTIVATI 500G ITALIA IC  00000000020923301      IC00000010000001500000012IL0000000101202504019999999900000000380C0000012025040199999999U0001000000000004989220250411210406EL5       EUR000000 00000S$ALL  $$$$$      000000N
002220M021800901PAT.IGP ALTO VITERBESE IT.KG.1,5 IC1330361010000520230814040  1  NNKG000015000000015000N00000006509999951PZU00010000000000900000000IPAT.IGP ALTO VITERBE$00000S00000000021800901      PAT.IGP ALTO VITERBESE IT.KG.1,5 IC00000000021800901      IC00000010000001500000010SL0000000101202407309999999900000000195C0000012024073099999999U0001000000000002989220250411210406EL5       EUR000000 00000S$ALL  $$$$$      000000N
002220M021100401BUSTA TRASPARENTE PER CORNICE A3   1910101010060120160115220  1  NNKG000010000000010000N00000009009999951PZU00010000000000900000000IBUSTA TRASPARENTE PE900000S00000000021100401      BUSTA TRASPARENTE PER CORNICE A3   00000000021100401      IC00000010000001500000010SL0000000101201601199999999900000000100C0000012016011999999999U0001000000000000019220250411210406EL5       EUR000000 00000S$ALL  $$$$$      000000N
