002220M022005301MOUSSE MELA DOLCEVITA 100GX2 MELIN.1320201010004820250304100  1  NNKG000001000000001000N00000006509999951PZU00010000000000900000000IMOUSSE MELA DOLCEVIT$00000I00000000022005301      MOUSSE MELA DOLCEVITA 100GX2 MELIN.00000000022005301      IC00000010000001500000007IL0000000101202504162025041800000000115C0000012025041620250418U0001000000000001599220250416210343EL5       EUR000000 00000S$ALL  $$$$$      000000N
002220M021310501FRULLA'BIO MELA/PESC.MANG.DOY 100G 1320201010023020190109100  1  NNKG000001000000001000N00000006500033051PZU00010000000000900000000SFRULL.BIO MELA/PESCA$00000S00000000021310501      FRULLA'BIO MELA/PESC.MANG.DOY 100G 00000000021310501      IC00000010000001500000018SL0000000101202401019999999900000000063C0000012024010199999999U0001000000000000999220250416210343EL5       EUR000000 00000S$ALL  $$$$$      000000N
002220M021781101FRULLA'BIO MELA/FRUT.ROSSI DOY 100G1320201010025520230613100  1  NNKG000001000000001000N00000006509999951PZU00010000000000900000000SFRULLA'BIO MELA/FRUT$00000E00000000021781101      FRULLA'BIO MELA/FRUT.ROSSI DOY 100G00000000021781101      IC00000010000001500000018EL0000000101202405239999999900000000063C0000012024052399999999U0001000000000000999220250416210343EL5       EUR000000 00000S$ALL  $$$$$      000000N
002220M021539101MELANZ.TONDE NICKEL FREE 800G IT.IC1320301010000320220218040  1  NNKG000008000000008000N00000006509999951PZU00010000000000900000000IMELANZ.TONDE NICKEL $00000I00000000021539101      MELANZ.TONDE NICKEL FREE 800G IT.IC00000000021539101      IC00000010000001500000006IL0000000101202504019999999900000000195C0000012025040199999999U0001000000000002799220250416210343EL5       EUR000000 00000S$ALL  $$$$$      000000N
002220M021854501ESP.4PIANI SANSEVERIA/GRASSE LATTA 1320505010001020240104100  1  NN$$000000000000010000N00000006159999951PZU00010000000000900000000OESP.4PIANI SANSEVERI700000O00000000021854501      ESP.4PIANI SANSEVERIA/GRASSE LATTA 00000000021854501      IC00000010000001500000092O 0000000000000000000000000000000000000 0000000000000000000000U0001000000000000009220250416210343EL5       EUR000000 00000S$ALL  $$$$$      000000N
002220M021301101MELE GOLDEN V.VEN.80/85 S&D IT.ICT 1330119010000120181128040  1  NSKG000010000000000000S00000006509999951KGU00010000000000900000000IMELE GOLDEN V.VEN.80$00000S00000000021301101      MELE GOLDEN V.VEN.80/85 S&D IT.ICT 00000000021301101      IC00000010000001500000001SL0000000101202503229999999900000000165C0000012025032299999999U0001000000000002499220250416210343EL5       EUR000000 00000SSALL  $$$$$      005001N
002220M021343101M.PINK LADY 75/80 VS.800G.IT.I CAT.1330119310001920190610040  1  NNPZ000008000000008000N00000006509999951PZU00010000000000900000000IM.PINK LADY 75/80 IT$00000I00000000021343101      M.PINK LADY 75/80 VS.800G.IT.I CAT.00000000021343101      IC00000010000001500000006IL0000000101202503189999999900000000195C0000012025031899999999U0001000000000002799220250416210343EL5       EUR000000 00000S$ALL  $$$$$      000000N
002220M021884801FRAG.CANDONGA TOP QUAL.400G ITA.ICT1330146010000920240229040  1  NNKG000004000000004000N00000006509999951PZU00010000000000900000000IFRAG.CANDONGA TOP QU$00000S00000000021884801      FRAG.CANDONGA TOP QUAL.400G ITA.ICT00000000021884801      IC00000010000001500000012SL0000000101202503249999999900000000280C0000012025032499999999U0001000000000003999220250416210343EL5       EUR000000 00000S$ALL  $$$$$      000000N
002220M021213101MELONI GIALLI BRASILE I CAT        1330161070005020171023040  1  NNKG000010000000000000S00000006509999951KGU00010000000000900000000SMELONI GIALLI BRASIL$00000S00000000021213101      MELONI GIALLI BRASILE I CAT        00000000021213101      IC00000010000001500000001SL0000000101202504159999999900000000165C0000012025041599999999U0001000000000002499220250416210343EL5       EUR000000 00000S$ALL  $$$$$      001001S
002220M020676101MELOGRANO CAL.10/12 TURCHIA I CAT  1330170100002220031219040  1  NNKG000010000000000000S00000006509999951KGU00010000000000900000000SMELOGRANO CAL.10/12 $00000Z00000000020676101      MELOGRANO CAL.10/12 TURCHIA I CAT  00000000020676101      IC00000010000001500000001ZL0000000101202503189999999900000000260C0000012025031899999999U0001000000000003499220250416210343EL5       EUR000000 00000S$ALL  $$$$$      008001N
002220M021564001ANANAS EXTRA DOLCE S&I C.7/8 ICT CR1330173070000120220401040  1  NSKG000010000000000000S00000006509999951KGU00010000000000900000000IANANAS EXTRA DOLCE S$00000I00000000021564001      ANANAS EXTRA DOLCE S&I C.7/8 ICT CR00000000021564001      IC00000010000001500000001IL0000000101202503189999999900000000185C0000012025031899999999U0001000000000002699220250416210343EL5       EUR000000 00000SIALL  $$$$$      014001N
002220M020360701LATTUGA ROMANA DELL'UMBRIA IT.I CAT1330301010001019991117040  1  NNKG000010000000000000S00000006509999951KGU00010000000000900000000ILATTUGA ROMANA DELL'500000I00000000020360701      LATTUGA ROMANA DELL'UMBRIA IT.I CAT00000000020360701      IC00000010000001500000001I 0000000000000000000000000000000000000 0000000000000000000000U0001000000000000009220250416210343EL5       EUR000000 00000S$ALL  $$$$$      005001N
002220M020173401INSALATA CANASTA UMBRIA ITALIA ICAT1330301010002219960502040  1  NNKG000010000000000000S00000006509999951KGU00010000000000900000000IINS.CANASTA UMBRIA  500000I00000000020173401      INSALATA CANASTA UMBRIA ITALIA ICAT00000000020173401      IC00000010000001500000001I 0000000000000000000000000000000000000 0000000000000000000000U0001000000000000009220250416210343EL5       EUR000000 00000S$ALL  $$$$$      005001N
002220M021321601INS.ICEBERG CPQ 400G SPAGNA ICT    1330301100000220190308040  1  NSKG000004000000004000N00000006509999951PZU00010000000000900000000IINS.ICEBERG CPQ 400G$00000I00000000021321601      INS.ICEBERG CPQ 400G SPAGNA ICT    00000000021321601      IC00000010000001500000010IL0000000101202412019999999900000000102C0000012024120199999999U0001000000000001499220250416210343EL5       EUR000000 00000SOALL  BEF        000000N
002220M020174501FUNGHI PLEUROTUS LAZIO IT.I CAT.   1330308040041019960510040  1  NNKG000010000000000000S00000006509999951KGU00010000000000900000000IFUN.PLEUROTUS SFUSO $00000I00000000020174501      FUNGHI PLEUROTUS LAZIO IT.I CAT.   00000000020174501      IC00000010000001500000001I 0000000000000000000000000000000000000 0000000000000000000000U0001000000000000009220250416210343EL5       EUR000000 00000S$ALL  $$$$$      005001N
002220M020922101FUNGHI PLEUROTUS VAS.500G CPQ IT I 1330308040041020100407040  1  NSKG000005000000005000N00000006509999951PZU00010000000000900000000IFUNGHI PLEUROTUS VAS$00000I00000000020922101      FUNGHI PLEUROTUS VAS.500G CPQ IT I 00000000020922101      IC00000010000001500000006IL0000000101202501169999999900000000210C0000012022050299999999U0001000000000002989220250416210343EL5       EUR000000 00000SPALL  $$$$$      000000N
002220M021376801FUNGHI PLEUROTUS LAZIO 300G IT.I CT1330308040041120200123040  1  NNKG000003000000003000N00000006509999951PZU00010000000000900000000IFUNGHI PLEUROTUS LAZ$00000I00000000021376801      FUNGHI PLEUROTUS LAZIO 300G IT.I CT00000000021376801      IC00000010000001500000007IL0000000101202409249999999900000000170C0000012024092499999999U0001000000000002499220250416210343EL5       EUR000000 00000S$ALL  $$$$$      000000N
002220M022014001TORTILLA ZUCCHINE DIMMIDISI 250G   1330309190000220250324100  1  NNKG000002500000002500N00000006509999951PZU00010000000000900000000ITORTILLA ZUCCHINE DI$00000I00000000022014001      TORTILLA ZUCCHINE DIMMIDISI 250G   00000000022014001      IC00000010000001500000006IL0000000101202504149999999900000000200C0000012025041499999999U0001000000000002989220250416210343EL5       EUR000000 00000S$ALL  $$$$$      000000N
002220M020009401CRAUTO VERZA BIANCA UMBRIA IT.I CAT1330310070000119921123040  1  NNKG000010000000000000S00000006509999951KGU00010000000000900000000ICRAUTO VERZA BIANCA 500000I00000000020009401      CRAUTO VERZA BIANCA UMBRIA IT.I CAT00000000020009401      IC00000010000001500000001I 0000000000000000000000000000000000000C0000012025022499999999U0001000000000001789220250416210343EL5       EUR000000 00000S$ALL  $$$$$      001001S
002220M021653201ROS.BROCC.BARESANI 400 G CPQ ITI°CT1330310190000120221017040  1  NSKG000004000000004000N00000006509999951PZU00010000000000900000000SROS.BROCC.BARESANI 4$00000S00000000021653201      ROS.BROCC.BARESANI 400 G CPQ ITI°CT00000000021653201      IC00000010000001500000006SL0000000101202504089999999900000000165C0000012025040899999999U0001000000000002489220250416210343EL5       EUR000000 00000SPALL  $$$$$      000000N
002220M021389801ZUCCHINE TONDE VS.500G ITALIA ICAT 1330313100020120200504040  1  NNKG000005000000005000N00000006509999951PZU00010000000000900000000IZUCCHINE TONDE VS.50500000S00000000021389801      ZUCCHINE TONDE VS.500G ITALIA ICAT 00000000021389801      IC00000010000001500000010SL0000000101202504159999999900000000090C0000012025041599999999U0001000000000001299220250416210343EL5       EUR000000 00000S$ALL  $$$$$      000000N
002220M021480601POM.CUORE DI BUE KG.1 ITALIA I CAT.1330325010070020210524040  1  NNKG000010000000010000N00000006509999951PZU00010000000000900000000IPOM.CUORE DI BUE KG.$00000I00000000021480601      POM.CUORE DI BUE KG.1 ITALIA I CAT.00000000021480601      IC00000010000001500000010I 0000000000000000000000000000000000000 0000000000000000000000U0001000000000000009220250416210343EL5       EUR000000 00000S$ALL  $$$$$      000000N
002220M020348201CIP.BIANCHE FRESCHE UMBRIA IT.I CT.1330331080066019990908040  1  NNKG000010000000000000S00000006509999951KGU00010000000000900000000ICIP.BIANCHE FRESCHE $00000I00000000020348201      CIP.BIANCHE FRESCHE UMBRIA IT.I CT.00000000020348201      IC00000010000001500000001I 0000000000000000000000000000000000000 0000000000000000000000U0001000000000000009220250416210343EL5       EUR000000 00000S$ALL  $$$$$      005001N
002220M020262501CARCIOFI VIOLETTI ORIG.ITALIA I CAT1330343010000219971202040  1  NNKG000003500000003500N00000006509999951PZU00010000000000900000000ICARC.VIOLETTI ITALIA$00000O00000000020262501      CARCIOFI VIOLETTI ORIG.ITALIA I CAT00000000020262501      IC00000010000001500000025OL0000000101202502119999999900000000048C0000012025021199999999U0001000000000000699220250416210343EL5       EUR000000 00000S$ALL  $$$$$      000000N
002220M021453701CARC.PEASTUM IGP MAZZO 4 PZ ITA.ICT1330343070000620210208040  1  NNKG000003500000003500N00000006509999951PZU00010000000000900000000ICARC.PEASTUM IGP MAZ$00000O00000000021453701      CARC.PEASTUM IGP MAZZO 4 PZ ITA.ICT00000000021453701      IC00000010000001500000004OL0000000101202503259999999900000000330C0000012025032599999999U0001000000000004909220250416210343EL5       EUR000000 00000S$ALL  $$$$$      000000N
002220M020132001CARC.MAMMOLE ROSSE X25PZ ITA.ICT   1330343070001619940204040  1  NNKG000003500000003500N00000006509999951PZU00010000000000900000000ICARC.MAMMOLE ROSSE  $00000S00000000020132001      CARC.MAMMOLE ROSSE X25PZ ITA.ICT   00000000020132001      IC00000010000001500000025SL0000000101202503259999999900000000053C0000012025032599999999U0001000000000000799220250416210343EL5       EUR000000 00000S$ALL  $$$$$      000000N
002220M020900601ASPARAGI VERDI 500G CPQ.OR.IT.I CAT1330349010000120090423040  1  NSKG000005000000005000N00000006509999951PZU00010000000000900000000IASPARAGI VERDI 500G $00000I00000000020900601      ASPARAGI VERDI 500G CPQ.OR.IT.I CAT00000000020900601      IC00000010000001500000012IL0000000101202504099999999900000000320C0000012025040999999999U0001000000000004509220250416210343EL5       EUR000000 00000SPALL  $$$$$      000000N
002220M021150601SPINACI SFUSI"PULITI"ITALIA I CAT  1330352070002120161011040  1  NNKG000010000000000000S00000006509999951KGU00010000000000900000000ISPINACI SFUSI PULITI$00000I00000000021150601      SPINACI SFUSI"PULITI"ITALIA I CAT  00000000021150601      IC00000010000001500000001I 0000000000000000000000000000000000000 0000000000000000000000U0001000000000000009220250416210343EL5       EUR000000 00000S$ALL  $$$$$      005001N
002220M021800901PAT.IGP ALTO VITERBESE IT.KG.1,5 IC1330361010000520230814040  1  NNKG000015000000015000N00000006509999951PZU00010000000000900000000IPAT.IGP ALTO VITERBE$00000S00000000021800901      PAT.IGP ALTO VITERBESE IT.KG.1,5 IC00000000021800901      IC00000010000001500000010SL0000000101202407309999999900000000195C0000012024073099999999U0001000000000002989220250416210343EL5       EUR000000 00000S$ALL  $$$$$      000000N
002220M021925501PAT.ORTI CAUD.RES.ZERO KG1 ITA.ICAT1330361010001220240610040  1  NNKG000010000000010000N00000006509999951PZU00010000000000900000000IPAT.ORTI CAUD.RES.ZE$00000I00000000021925501      PAT.ORTI CAUD.RES.ZERO KG1 ITA.ICAT00000000021925501      IC00000010000001500000012IL0000000101202410079999999900000000135C0000012024100799999999U0001000000000001989220250416210343EL5       EUR000000 00000S$ALL  $$$$$      000000N
002220M020528001PAT.GIALLE NOVELLE KG.1,5 CPQ.IT.IC1330361070000120020404040  1  NSKG000015000000015000N00000006509999951PZU00010000000000900000000IPAT.GIALLE NOVELLE K$00000I00000000020528001      PAT.GIALLE NOVELLE KG.1,5 CPQ.IT.IC00000000020528001      IC00000010000001500000010IL0000000101202504179999999900000000205C0000012025041799999999U0001000000000002989220250416210343EL5       EUR000000 00000SPALL  $$$$$      000000N
002220M020905201CIP.DORATE TUBO 300G CPQ IT.II CT  1330367070000120090727040  1  NSKG000003000000003000N00000006509999951PZU00010000000000900000000ICIP.DORATE TUBO 300G$00000I00000000020905201      CIP.DORATE TUBO 300G CPQ IT.II CT  00000000020905201      IC00000010000001500000012IL0000000101202504019999999900000000080C0000012025040199999999U0001000000000001299220250416210343EL5       EUR000000 00000SPALL  BEF        000000N
002220M022023301AGLIO ROSSO SPICCHIATO 100G ITA.ICT1330370040001020250415040  1  NNKG000001000000001000N00000006509999951PZU00010000000000900000000IAGLIO ROSSO SPICCHIA$00000I00000000022023301      AGLIO ROSSO SPICCHIATO 100G ITA.ICT00000000022023301      IC00000010000001500000015IL0000000101202504179999999900000000072C0000012025041799999999U0001000000000000999220250416210343EL5       EUR000000 00000S$ALL  $$$$$      000000N
002220M021338501FARRO PERLATO UMBRO BETTINI 250G   1330510190001520190522100  1  NNKG000002500000002500N00000006000072054PZU00010000000000900000000OFARRO PERLATO UMBRO 900000O00000000021338501      FARRO PERLATO UMBRO BETTINI 250G   00000000021338501      IC00000010000001500000020OL0000000101202504169999999900000000080C0000012025041699999999U0001000000000001289220250416210343EL5       EUR000000 00000S$ALL  $$$$$      000000N
