002220R055892901CUP QUADROTTI FARRO M/ROSSETTO     1010110050020020181213040  1  NNKG000000800000000800N00000001009999911PZU00010000000000101417801FCUP QUADROTTI FARRO Q99999F01417801    PPFMR901360                                   00000000055892901      IF00000010099999999900006FL0141780101201906069999999900000000185Q0000012019060699999999U0001000000000002499920250416010404EL5       EUR000000 00000S$ALL  $$$$$      000000N
002220R055892902CUP QUADROTTI CURCUMA M/ROSSETTO   1010110050020020181213040  1  NNKG000000800000000800N00000001009999911PZU00010000000000101417801FCUP QUADROTTI CURCU.Q99999F01417801    PPFMR901377                                   00000000055892902      IF00000010099999999900006FL0141780101201906069999999900000000185Q0000012019060699999999U0001000000000002499920250416010404EL5       EUR000000 00000N$ALL  $$$$$      000000N
002220R566697501CEREAL BISCOTTI NOCCIOLA S/ZUCCHERO1010501130086120250326100  1  NNKG000001320000001320N00000001009999911PZU00010000000000100967301ICEREAL BISCOTTI NOCC$99999I00967301         222869                                   00000000566697501      IF00000010099999999900001IL0096730101202504039999999900000000145Q0000012025040399999999U0001000000000002209920250416010325EL5       EUR000000 00000N$ALL  $$$$$      000000N
002220R056146301MENTOS PURE FRESH BIG BOTTLE       1010531010030220190620100  1  NNKG000001000000001000N00000001009999911PZU00010000000000102104201IMENTOS PURE FRESH BI$99999I02104201       09139100                                   00000000056146301      IF00000010099999999900008IL0210420101202504179999999900000000256Q0000012025041799999999U0001000000000003909920250416010405EL5       EUR000000 00000N$ALL  $$$$$      000000N
002220R054286101ALPENLIEBE ORIGINAL STICK GR.41    1010531010050020150514100  1  NNKG000000410000000410N00000001009999911PZU00010000000000102104201IALPENLIEBE CARAMELLE$99999I02104201       04112800                                   00000000054286101      IF00000010099999999900001IL0210420101202504179999999900000000061Q0000012025041799999999U0001000000000001109920250416010356EL5       EUR000000 00000N$ALL  $$$$$      000000N
002220R053935001GOLIA ACTIV LEMON HERBS S.Z AS.GR491010531010056320140904100  1  NNKG000000490000010000N00000001009999911PZU00010000000000102104201IGOLIA ACTIV LEMON   $99999I02104201       09745000                                   00000000053935001      IF00000010099999999900001IL0210420101202504179999999900000000118Q0000012025041799999999U0001000000000002009920250416010353EL5       EUR000000 00000N$ALL  $$$$$      000000N
002220R053935002GOLIA ACTIV LIQUIRIZ HERBS S/Z GR491010531010056320150323100  1  NNKG000000490000000980N00000001009999911PZU00010000000000102104201IGOLIA ACTIV GR.49   $99999I02104201       09745400                                   00000000053935002      IF00000010099999999900001IL0210420101202504179999999900000000118Q0000012025041799999999U0001000000000002009920250416010353EL5       EUR000000 00000N$ALL  $$$$$      000000N
002220R056113701GOLIA EXTRAFORTE AST.X24           1010531010056320190527100  1  NNKG000000340000000340N00000001009999911PZU00010000000000102104201IGOLIA EXTRAFORTE AST$99999I02104201       04718700                                   00000000056113701      IF00000010099999999900001IL0210420101202504179999999900000000061Q0000012025041799999999U0001000000000001109920250416010404EL5       EUR000000 00000N$ALL  $$$$$      000000N
002220R054286501GOLIA BIANCA STICK                 1010531010056820150514100  1  NNKG000000380000010000N00000001009999911PZU00010000000000102104201IGOLIA BIANCA STICK  $99999I02104201       06724200                                   00000000054286501      IF00000010099999999900001IL0210420101202504179999999900000000061Q0000012025041799999999U0001000000000001109920250416010356EL5       EUR000000 00000N$ALL  $$$$$      000000N
002220R056146601GOLIA HERBS EUCALIPTOLO AST.       1010531010057020190620100  1  NNKG000000490000000490N00000001009999911PZU00010000000000102104201IGOLIA HERBS EUCALIPT$99999I02104201       09714000                                   00000000056146601      IF00000010099999999900020IL0210420101202504179999999900000000118Q0000012025041799999999U0001000000000002009920250416010405EL5       EUR000000 00000N$ALL  $$$$$      000000N
002220R566741201CHUPA CHUPS BIG BABOL BST X8       1010531040028320250409100  1  NNKG000001440000001440N00000001009999911PZU00010000000000102104201ICHUPA CHUPS BIG BABO$99999I02104201        9312801                                   00000000566741201      IF00000010099999999900001IL0210420101202504179999999900000000155Q0000012025041799999999U0001000000000002199920250416010413EL5       EUR000000 00000N$ALL  $$$$$      000000N
002220R056113801FRUITTELLA FRUTTI ASS.TI X20 AST   1010531040030520190527100  1  NNKG000000410000000410N00000001009999911PZU00010000000000102104201IFRUITTELLA FRUTTI AS$99999I02104201       09385500                                   00000000056113801      IF00000010099999999900001IL0210420101202504179999999900000000061Q0000012025041799999999U0001000000000001109920250416010404EL5       EUR000000 00000N$ALL  $$$$$      000000N
002220R056126101FRUITTELLA FRIZZANTI BST           1010531040030520190605100  1  NNKG000000900000000900N00000001009999911PZU00010000000000102104201IFRUITTELLA FRIZZ    $99999I02104201       06395200                                   00000000056126101      IF00000010099999999900018IL0210420101202504179999999900000000071Q0000012025041799999999U0001000000000001209920250416010405EL5       EUR000000 00000N$ALL  $$$$$      000000N
002220R056126601FRUITTELLA ORSETTI BST             1010531040030520190606100  1  NNKG000000900000000900N00000001009999911PZU00010000000000102104201IFRUITTELLA ORSETTI  $99999I02104201       06385200                                   00000000056126601      IF00000010099999999900018IL0210420101202504179999999900000000071Q0000012025041799999999U0001000000000001209920250416010405EL5       EUR000000 00000N$ALL  $$$$$      000000N
002220R056126702FRUITTELLA PINKIS IMP              1010531040030520240513100  1  NNKG000000900000001000N00000001009999911PZU00010000000000102104201IFRUITTELLA PINKIS IM$99999I02104201      6385100                                     00000000056126702      IF00000010099999999900001IL0210420101202504179999999900000000071Q0000012024070499999999U0001000000000001209920250416010405EL5       EUR000000 00000S$ALL  $$$$$      000000N
002220R056126703FRUITTELLA COLA IMP.               1010531040030520240513100  1  NNKG000000900000001000N00000001009999911PZU00010000000000102104201IFRUITTELLA COLA IMP.$99999I02104201        6385500                                   00000000056126703      IF00000010099999999900001IL0210420101202504179999999900000000071Q0000012024070499999999U0001000000000001209920250416010405EL5       EUR000000 00000S$ALL  $$$$$      000000N
002220R057034201FRUITTELLA ROLL BST                1010531040030520200925100  1  NNKG000000900000000900N00000001009999911PZU00010000000000102104201IFRUITTELLA ROLL BST $99999I02104201        6398100                                   00000000057034201      IF00000010099999999900001IL0210420101202504179999999900000000071Q0000012025041799999999U0001000000000001209920250416010407EL5       EUR000000 00000N$ALL  $$$$$      000000N
002220R566486401CARAM.ORSETTO MULTIPACK HARIBO     1010531040070620241209100  1  NNKG000002500000002500N00000001009999911PZU00010000000000100455701ICARAM.ORSETTO MULTIP$99999I0045570125800/CO                                          00000000566486401      IF00000010099999999900001IL0045570101202412129999999900000000155Q0000012024121299999999U0001000000000002199920250416010325EL5       EUR000000 00000N$IPER $$$$$      000000N
002220R566238101GOLEADOR STRINGS BUSTA LIQUIRIZIA  1010531040220020240627100  1  NNKG000001250000001250N00000001009999911PZU00010000000000102104201IGOLEADOR STRINGS BUS$99999I02104201        6590900                                   00000000566238101      IF00000010099999999900001IL0210420101202504179999999900000000125Q0000012025041799999999U0001000000000001799920250416010413EL5       EUR000000 00000S$ALL  $$$$$      000000N
002220R053936002GOLIA FRUTTI ROSSI C AST.MPK X2 G921010531100001020250219100  1  NNKG000000920000000920N00000001009999911PZU00010000000000102104201IGOLIA FRUTTI ROSSI C$99999I02104201       09744900                                   00000000053936002      IF00000010099999999900001IL0210420101202502279999999900000000215Q0000012025022799999999U0001000000000002999920250416010325EL5       EUR000000 00000N$ALL  $$$$$      000000N
002220R566621601FRISK SOURS STRAWBERRY             1010531250050320250219100  1  NNKG000000490000000490N00000001009999911PZU00010000000000102104201IFRISK SOURS STRAWBER$99999I02104201       09142300                                   00000000566621601      IF00000010099999999900001IL0210420101202502279999999900000000170Q0000012025022799999999U0001000000000002499920250416010325EL5       EUR000000 00000N$ALL  $$$$$      000000N
002220R566621602FRISK SOURS LEMON S/ZUCCHERO       1010531250050320250219100  1  NNKG000000490000000490N00000001009999911PZU00010000000000102104201IFRISK SOURS LEMON S/$99999I02104201       09142400                                   00000000566621602      IF00000010099999999900001IL0210420101202502279999999900000000170Q0000012025022799999999U0001000000000002499920250416010325EL5       EUR000000 00000N$ALL  $$$$$      000000N
002220R055975601BROOKLYN CHLOROPHYLL X9 LASTRINE   1010534010000120190124100  1  NNKG000000500000000500N00000001009999911PZU00010000000000102104201IBROOKLYN CHLOROPHYLL$99999I02104201       09542001                                   00000000055975601      IF00000010099999999900360IL0210420101202504179999999900000000061Q0000012025041799999999U0001000000000001109920250416010404EL5       EUR000000 00000N$ALL  $$$$$      000000N
002220R054016701BROOKLYN SPEARMINT X9 LASTRINE GR501010534010001020141030100  1  NNKG000000500000000500N00000001009999911PZU00010000000000102104201IBROOKLYN SPEARMINT  $99999I02104201       09542002                                   00000000054016701      IF00000010099999999900001IL0210420101202504179999999900000000061Q0000012025041799999999U0001000000000001109920250416010354EL5       EUR000000 00000N$ALL  $$$$$      000000N
002220R054285701VIGORSOL STICK X10 CONFETTI        1010534070000420150514100  1  NNKG000000150000010000N00000001009999911PZU00010000000000102104201IVIGORSOL STICK X10  $99999I02104201       09601200                                   00000000054285701      IF00000010099999999900001IL0210420101202504179999999900000000061Q0000012025041799999999U0001000000000001109920250416010356EL5       EUR000000 00000N$ALL  $$$$$      000000N
002220R055976801VIGORSOL STICK ICE CASSIS X10 CONF 1010534070000620190124100  1  NNKG000000135000000135N00000001009999911PZU00010000000000102104201IVIGORSOL STICK ICE  $99999I02104201       09605502                                   00000000055976801      IF00000010099999999900800IL0210420101202504179999999900000000061Q0000012025041799999999U0001000000000001109920250416010404EL5       EUR000000 00000N$ALL  $$$$$      000000N
002220R056114301VIGORSOL AIR ACTION BLACK ICE      1010534070000620190528100  1  NNKG000000130000000130N00000001009999911PZU00010000000000102104201IVIGORSOL AIR ACTION $99999I02104201       09609301                                   00000000056114301      IF00000010099999999900001IL0210420101202504179999999900000000061Q0000012025041799999999U0001000000000001109920250416010404EL5       EUR000000 00000N$ALL  $$$$$      000000N
002220R056114701VIGORSOL REAL FRUIT STICK          1010534070000620190528100  1  NNKG000000130000000130N00000001009999911PZU00010000000000102104201IVIGORSOL REAL FRUIT $99999I02104201       09602900                                   00000000056114701      IF00000010099999999900001IL0210420101202504179999999900000000061Q0000012025041799999999U0001000000000001109920250416010404EL5       EUR000000 00000N$ALL  $$$$$      000000N
002220R054286001VIVIDENT X10 CONF.S.Z.SPEARMINT    1010534100001620150514100  1  NNKG000000160000000160N00000001009999911PZU00010000000000102104201IVIVIDENT X10 CONF.S.$99999I02104201       09592700                                   00000000054286001      IF00000010099999999900001IL0210420101202504179999999900000000061Q0000012025041799999999U0001000000000001109920250416010356EL5       EUR000000 00000N$ALL  $$$$$      000000N
002220R056596201VIVIDENT X10 CONF.S.Z.G/MINT STICK 1010534100001620200619100  1  NNKG000000140000000140N00000001009999911PZU00010000000000102104201IVIVIDENT X10 CONF.S.$99999I02104201       09598100                                   00000000056596201      IF00000010099999999900001IL0210420101202504179999999900000000061Q0000012025041799999999U0001000000000001109920250416010406EL5       EUR000000 00000N$ALL  $$$$$      000000N
002220R058612502MENTOS VITAMIN GUM SPEARMINT BARATT1010534100001620220427100  1  NNKG000001000000001000N00000001009999911PZU00010000000000102104201IMENTOS VITAMIN GUM  $99999I02104201       09134701                                   00000000058612502      IF00000010099999999900001IL0210420101202504179999999900000000256Q0000012025041799999999U0001000000000003909920250416010411EL5       EUR000000 00000S$ALL  $$$$$      000000N
002220R055987401VIVIDENT WHITE CHEW/GUM CONF.STICK 1010534100001820190130100  1  NNKG000000130000000130N00000001009999911PZU00010000000000102104201IVIVIDENT WHITE CHEW/$99999I02104201       09595200                                   00000000055987401      IF00000010099999999900800IL0210420101202504179999999900000000061Q0000012025041799999999U0001000000000001109920250416010404EL5       EUR000000 00000N$ALL  $$$$$      000000N
002220R053939201VIVIDENT XYLIT SPEAR.MPK X5 GR.66  1010534100003020140904100  1  NNKG000000660000000660N00000001009999911PZU00010000000000102104201IVIVIDENT XYLIT SPEAR$99999I02104201       09658700                                   00000000053939201      IF00000010099999999900001IL0210420101202504179999999900000000216Q0000012025041799999999U0001000000000003009920250416010325EL5       EUR000000 00000N$ALL  $$$$$      000000N
002220R053939202VIVIDENT XYLIT GREEN MINT X5       1010534100003020200421100  1  NNKG000000660000000660N00000001009999911PZU00010000000000102104201IVIVIDENT XYLIT GREEN$99999I02104201       09658800                                   00000000053939202      IF00000010099999999900001IL0210420101202504179999999900000000216Q0000012025041799999999U0001000000000003009920250416010325EL5       EUR000000 00000S$ALL  $$$$$      000000N
002220R057928101VIVIDENT XYLIT BIP.                1010534100010320210512100  1  NNKG000000600000000600N00000001009999911PZU00010000000000102104201IVIVIDENT XYLIT BIP. $99999I02104201       09658600                                   00000000057928101      IF00000010099999999900001I 0000000000000000000000000000000000000 0000000000000000000000U0001000000000000009920250416010325EL5       EUR000000 00000N$ALL  $$$$$      000000N
002220R053937101AIR ACTION VIGORSOL STICK X40      1010534100010520140904100  1  NN$$000000000000010000N00000001009999911PZU00010000000000102104201IAIR ACTION VIGORSOL $99999I02104201       09601801                                   00000000053937101      IF00000010099999999900001IL0210420101202504179999999900000000061Q0000012025041799999999U0001000000000001109920250416010354EL5       EUR000000 00000N$ALL  $$$$$      000000N
002220R053937301VIGORSOL STICK S.Z. X10 CONFETTI   1010534100010820140904100  1  NNKG000000150000010000N00000001009999911PZU00010000000000102104201IVIGORSOL STICK S.Z. $99999I02104201       09603045                                   00000000053937301      IF00000010099999999900001IL0210420101202504179999999900000000061Q0000012025041799999999U0001000000000001109920250416010354EL5       EUR000000 00000N$ALL  $$$$$      000000N
002220R056113501VIGORSOL AIR ACTION XTREME         1010534100010820190527100  1  NNKG000000130000000130N00000001009999911PZU00010000000000102104201IVIGORSOL AIR ACTION $99999I02104201       09606502                                   00000000056113501      IF00000010099999999900001IL0210420101202504179999999900000000061Q0000012025041799999999U0001000000000001109920250416010404EL5       EUR000000 00000N$ALL  $$$$$      000000N
002220R566093401DAYGUM WHITE AST.                  1010534100012320240315100  1  NNKG000000300000000300N00000001009999911PZU00010000000000102104201IDAYGUM WHITE AST.   $99999I02104201       09551400                                   00000000566093401      IF00000010099999999900001IL0210420101202404049999999900000000126Q0000012024040499999999U0001000000000001909920250416010325EL5       EUR000000 00000S$ALL  $$$$$      000000N
002220R058612501MENTOS VITAMIN GUM CITRUS BARATT   1010534100016020220427100  1  NNKG000001000000001000N00000001009999911PZU00010000000000102104201IMENTOS VITAMIN GUM  $99999I02104201       09134700                                   00000000058612501      IF00000010099999999900001IL0210420101202504179999999900000000256Q0000012025041799999999U0001000000000003909920250416010411EL5       EUR000000 00000S$ALL  $$$$$      000000N
002220R054285801MEGA BIG BABOL JUICY X5 PZ         1010534130000920150514100  1  NNKG000001400000010000N00000001009999911PZU00010000000000102104201IMEGA BIG BABOL JUICY$99999I02104201       09531215                                   00000000054285801      IF00000010099999999900001IL0210420101202504179999999900000000061Q0000012025041799999999U0001000000000001109920250416010356EL5       EUR000000 00000N$ALL  $$$$$      000000N
002220R056114401BIG BABOL PANNA/FRAGOLA X5         1010534130000920190528100  1  NNKG000000370000000370N00000001009999911PZU00010000000000102104201IBIG BABOL PANNA/FRAG$99999I02104201       09531238                                   00000000056114401      IF00000010099999999900001IL0210420101202504179999999900000000061Q0000012025041799999999U0001000000000001109920250416010404EL5       EUR000000 00000N$ALL  $$$$$      000000N
002220R566621801BIG BABOL UNICORN EGSS BOTTLE X10  1010534130001020250219100  1  NNKG000000900000000900N00000001009999911PZU00010000000000102104201IBIG BABOL UNICORN EG$99999I02104201       09510000                                   00000000566621801      IF00000010099999999900001IL0210420101202502279999999900000000160Q0000012025022799999999U0001000000000002299920250416010325EL5       EUR000000 00000N$ALL  $$$$$      000000N
002220R058301111UOVO KINDER SORPRESA HARRY POTTER  1010722190002520230110100  1  NNKG000002200000002200N00000001009999911PZU00010000000000101661001IUOVO KIND.SORP.GR220199999I0166100177259378   E272                                   00000000058301111      IF00000010099999999900001I 0000000000000000000000000000000000000 0000000000000000000000U0001000000000000009920250416010325EL5       EUR000000 00000N$ALL  $$$$$      000000N
002220R059211806TISANA FREDDA BEAUTY X18 ANGELICA  1011122040004020250310100  1  NNKG000000320000000320N00000001009999911PZU00010000000000100362803ITISANA FREDDA BEAUTY$99999I00362803      GA2171100                                   00000000059211806      IF00000010099999999900010IL0036280301202504179999999900000000195Q0000012025041799999999U0001000000000002989920250416010412EL5       EUR000000 00000N$ALL  $$$$$      000000N
002220R059211807TISANA FREDDA MAGNESIO X18 ANGELICA1011122040004020250310100  1  NNKG000000360000000360N00000001009999911PZU00010000000000100362803ITISANA FRED.MAGNESIO$99999I00362803      GA2171200                                   00000000059211807      IF00000010099999999900010IL0036280301202504179999999900000000195Q0000012025041799999999U0001000000000002989920250416010412EL5       EUR000000 00000N$ALL  $$$$$      000000N
002220R059211808TISANA FRED.MANGO/PASSION F.X18 ANG1011122040004020250310100  1  NNKG000000320000000320N00000001009999911PZU00010000000000100362803ITISANA FRED.MANGO/PA$99999I00362803      GA2179900                                   00000000059211808      IF00000010099999999900010IL0036280301202504179999999900000000195Q0000012025041799999999U0001000000000002989920250416010412EL5       EUR000000 00000N$ALL  $$$$$      000000N
002220R566068901SALSA YAKITORI KIKKOMAN BOTTIGLIA  1011307040078020240307100  1  NNLT000002500000002500N00000001009999911PZU00010000000000100301401ISALSA YAKITORI KIKKO$99999I00301401           3680                                   00000000566068901      IF00000010099999999900001IL0030140101202504109999999900000000440Q0000012025041099999999U0001000000000006909920250416010413EL5       EUR000000 00000N$ALL  $$$$$      000000N
002220R566137803CEREAL LE GALLETTINE S/GL.FORMAGGIO1011385010002120250326100  1  NNKG000000700000000700N00000001009999911PZU00010000000000100967301ICEREAL LE GALLETTINE$99999I00967301         222899                                   00000000566137803      IF00000010099999999900001IL0096730101202504039999999900000000075Q0000012025040399999999U0001000000000001159920250416010325EL5       EUR000000 00000N$ALL  $$$$$      000000N
002220R566697001CEREAL GALLETTE PROTEICH.28% S/G.X81011385010002220250326100  1  NNKG000000700000000700N00000001009999911PZU00010000000000100967301ICEREAL GALLETTE PROT$99999I00967301         223101                                   00000000566697001      IF00000010099999999900001IL0096730101202504039999999900000000130Q0000012025040399999999U0001000000000001999920250416010325EL5       EUR000000 00000N$ALL  $$$$$      000000N
002220R566697101CEREAL GALLETT.PROT.22% PAPRIKA S/G1011385010002320250326100  1  NNKG000000820000000820N00000001009999911PZU00010000000000100967301ICEREAL GALL.PROT.22%$99999I00967301         223102                                   00000000566697101      IF00000010099999999900001IL0096730101202504039999999900000000130Q0000012025040399999999U0001000000000001999920250416010325EL5       EUR000000 00000N$ALL  $$$$$      000000N
002220R055533101CEREAL BISC.GUSTO COCCO S/ZUCCHERI 1011385070000820180219100  1  NNKG000001320000001320N00000001009999911PZU00010000000000100967301ICEREAL BIS.GUS.COCCO$99999I00967301  3175681235663                                   00000000055533101      IF00000010099999999900012IL0096730101201802229999999900000000145Q0000012018022299999999U0001000000000002309920250416010325EL5       EUR000000 00000N$ALL  $$$$$      000000N
002220R566695901P/FORMA BARR.H.PROTEIN FOND/PIST.X21011385070001820250325100  1  NNKG000001350000001350N00000001009999911PZU00010000000000100967301IP/FORMA BAR.H.PRO.FO$99999I00967301         222829                                   00000000566695901      IF00000010099999999900001IL0096730101202504039999999900000000230Q0000012025040399999999U0001000000000003799920250416010325EL5       EUR000000 00000N$ALL  $$$$$      000000N
002220R566695902P/FORMA BAR.H.PROTEIN FOND/COCCO X21011385070001820250325100  1  NNKG000001350000001350N00000001009999911PZU00010000000000100967301IP/FORMA BAR.H.PRO.FO$99999I00967301         222830                                   00000000566695902      IF00000010099999999900001IL0096730101202504039999999900000000230Q0000012025040399999999U0001000000000003799920250416010325EL5       EUR000000 00000N$ALL  $$$$$      000000N
002220R566695903P/FORMA BAR.H.PROTE.FOND.CRUNCHY X21011385070001820250325100  1  NNKG000001350000001350N00000001009999911PZU00010000000000100967301IP/FORMA BAR.H.P.FOND$99999I00967301         222831                                   00000000566695903      IF00000010099999999900001IL0096730101202504039999999900000000230Q0000012025040399999999U0001000000000003799920250416010325EL5       EUR000000 00000N$ALL  $$$$$      000000N
002220R566696501ISOSTAD BARR.HIG PROTEIN 30% COCCO 1011385070001920250325100  1  NNKG000000550000000550N00000001009999911PZU00010000000000100967301IISOSTAD BARR.HIG.PRO$99999I00967301         221481                                   00000000566696501      IF00000010099999999900001IL0096730101202504039999999900000000120Q0000012025040399999999U0001000000000001959920250416010325EL5       EUR000000 00000N$ALL  $$$$$      000000N
002220R566697301CEREL BARR.PROT.CARAMELLO/MAND.S/Z.1011385070002320250326100  1  NNKG000000450000000450N00000001009999911PZU00010000000000100967301ICEREL BARR.PROT.CARA$99999I00967301         223082                                   00000000566697301      IF00000010099999999900001IL0096730101202504039999999900000000105Q0000012025040399999999U0001000000000001659920250416010325EL5       EUR000000 00000N$ALL  $$$$$      000000N
002220R566697302CEREL BARR.PROT.CIOCCOLATO/MAND.S/Z1011385070002320250326100  1  NNKG000000450000000450N00000001009999911PZU00010000000000100967301ICEREL BARR.PROT.CIOC$99999I00967301         223083                                   00000000566697302      IF00000010099999999900001IL0096730101202504039999999900000000105Q0000012025040399999999U0001000000000001659920250416010325EL5       EUR000000 00000N$ALL  $$$$$      000000N
002220R566163505WATERSTICK COCCO/LAMPONE BEAUTY X121011385280001820250310100  1  NNKG000000240000000240N00000001009999911PZU00010000000000100362803IWATERST.COCCO/LAMP.B$99999I00362803      GA2174400                                   00000000566163505      IF00000010099999999900006IL0036280301202504179999999900000000405Q0000012025041799999999U0001000000000005909920250416010413EL5       EUR000000 00000N$ALL  $$$$$      000000N
002220R566163506WATERSTICK PESCA SGON/DRENA X12 ANG1011385280001820250310100  1  NNKG000000240000000240N00000001009999911PZU00010000000000100362803IWATERS.PESCA SGON/DR$99999I00362803      GA2174500                                   00000000566163506      IF00000010099999999900006IL0036280301202504179999999900000000405Q0000012025041799999999U0001000000000005909920250416010413EL5       EUR000000 00000N$ALL  $$$$$      000000N
002220R566163507WATERST.LIMONE POWER ACTIVE X12 ANG1011385280001820250310100  1  NNKG000000240000000240N00000001009999911PZU00010000000000100362803IWATERST.LIMONE P/ACT$99999I00362803      GA2174600                                   00000000566163507      IF00000010099999999900006IL0036280301202504179999999900000000405Q0000012025041799999999U0001000000000005909920250416010413EL5       EUR000000 00000N$ALL  $$$$$      000000N
002220R566697701P/FORMA PROTEIN SHAKE COOKI/CARAMEL1011385314600120250326100  1  NNKG000003400000003400N00000001009999911PZU00010000000000100967301IP/FORMA PROT.SHAKE C$99999I00967301         223081                                   00000000566697701      IF00000010099999999900001IL0096730101202504039999999900000000730Q0000012025040399999999U0001000000000012509920250416010325EL5       EUR000000 00000N$ALL  $$$$$      000000N
002220R053793901FAG.ROSSI CHILI KIDNEY DON ENRICO  1011922010030220140707100  1  NNKG000004000000004000N00000001009999911PZU00010000000000101264901IFAG.ROS.CHILI KIDNEY$99999I01264901         498053                                   00000000053793901      IF00000010099999999900012IL0126490101202106019999999900000000140Q0000012021060199999999U0001000000000001909920250416010352EL5       EUR000000 00000N$IPER $$$$$      000000N
002220R053329001CABERNET SAUVIGNON M.FELLUGA DOC   1030707040095020130610220  1  NNLT000007500000007500N00000001009999911PZU00010000000000101452101ICABERNET SAUVIGN.DOC$99999I01452101          00283                                   00000000053329001      IF00000010099999999900001IL0145210101201811019999999900000000790Q0000012018110199999999U0001000000000010909920250416010325EL5       EUR000000 00000N$ALL  $$$$$      000000N
002220R057931002ELASTICI HF CAP.NORM.ELISON X4     1090934130031620210512220  1  NN$$000000000000001000N00000001009999911PZU00010000000000100757901IELASTICI HF CAP.NORM$99999I00757901          13711                                   00000000057931002      IF00000010099999999900006IL0075790101202105019999999900000000190Q0000012021050199999999U0001000000000002999920250416010325EL5       EUR000000 00000S$ALL  $$$$$      000000N
002220R054092301CANNELLONI A/RICOT.SPINACI *I L.P.*1210501010030220150114100  1  NNKG000010000000000000S00000002559999911KGU00010000000001100106101ICANNELLONI A/RICOTTA$99999I00106101          20035                                   00000000054092301      IF00000010099999999900001IL0010610101202504142025050300000000455Q0000012022030199999999U0001000000000008909920250416010355EL5       EUR000000 00000N$ALL  $$$$$      000000N
002220R058801301CANNELLONI RIC/SPIN GEA            1210501011597920220901100  1  NN$$000000000000000000S00000002559999911KGU00010000000001101597903ICANNELLONI RIC/SPIN $99999I01597903         252466                                   00000000058801301      IF00000010099999999900001IL0159790301202504142025050300000000556Q0000012024052399999999U0001000000000010909920250416010412EL5       EUR000000 00000S$ALL  $$$$$      000000N
002220R566277401LATTE DURA DI PIU' INTERO          1230104010010020240726040  1  NNLT000010000000001000N00000003009999912PZU00010000000000200158710ILATTE DURA DI PIU' I$00000I00158710        4001039                                   00000000566277401      IF00000010099999999900001IL0015871001202408299999999900000000152Q0000012024082999999999U0001000000000001899920250416010325EL5       EUR000000$00000N$ALL  $$$$$      000000N
002220R059204301LATTE DURA DI PIU'INT. LT.1 FLASH  1230104010015020230316040  1  NNLT000010000000010000N00000003009999912PZU00010000000000200158710ELATTE DURA DI PIU'IN$00000E00158710        4000539                                   00000000059204301      IF00000010099999999900001EL0015871001202304139999999900000000144Q0000012023041399999999U0001000000000001799920250416010325EL5       EUR000000$00000N$ALL  $$$$$      000000N
002220R059204401LATTE DURA DI PIU'P.S. LT.1 FLASH  1230104040013020230316040  1  NNLT000010000000010000N00000003009999912PZU00010000000000200158710ELATTE DURA DI PIU'P.$00000E00158710        4000537                                   00000000059204401      IF00000010099999999900001EL0015871001202304139999999900000000144Q0000012023041399999999U0001000000000001799920250416010325EL5       EUR000000$00000N$ALL  $$$$$      000000N
002220R566277501LATTE DURA DI PIU' P.S. LT 1 FLASH 1230104040013020240726040  1  NNLT000010000000010000N00000003009999912PZU00010000000000200158710ILATTE DURA DI PIU' P$00000I00158710        4001034                                   00000000566277501      IF00000010099999999900001IL0015871001202408299999999900000000152Q0000012024082999999999U0001000000000001899920250416010325EL5       EUR000000$00000N$ALL  $$$$$      000000N
002220R053673001UOVA OVITO CRESCITA EX.FRESCHE L X61231101010072220140228100  1  NNKG000003780000003780N00000003009999912PZU00010000000000202287701FUOVA OVITO CRESCITA $99999F02287701           4696                                   00000000053673001      IF00000010099999999900012FL0228770101201403069999999900000000176Q0000012014030699999999U0001000000000002859920250416010352EL5       EUR000000 00000N$ALL  $$$$$      000000N
002220R005801001CROCCHETTE DI PATATE IL GASTRONOMO 1250704190000119920214100  1  NNKG000010000000010000S00000002009999912KGU00010000000000200097205FCROCCHETTE DI PATATE$99999F000972054993                                              00000000005801001      KG00000010099999999900001FL0009720501201402279999999900000000460Q0000012014022799999999U0001000000000007609920250416010326EL5       EUR000000 00000N$ALL  $$$$$      000000N
002220R007330801OLIVE ASCOLANE GASTRONOMO          1250704190000120011001100  1  NNKG000010000000010000S00000002009999912KGU00010000000000200097205FOLIVE ASCOLANE GASTR$99999F000972054980                                              00000000007330801      IF00000010099999999900001FL0009720501201402279999999900000000850Q0000012014022799999999U0001000000000013909920250416010328EL5       EUR000000 00000N$ALL  $$$$$      000000N
002220R005799101ARANCINI DI RISO IL GASTRONOMO     1250704190001019920213100  1  NNKG000010000000010000S00000002009999912KGU00010000000000200097205FARANCINI DI RISO IL $99999F000972054809                                              00000000005799101      KG00000010099999999900001FL0009720501201402279999999900000000550Q0000012014022799999999U0001000000000009309920250416010326EL5       EUR000000 00000N$ALL  $$$$$      000000N
002220R051134301SFOGLIATINE PROSC/FORMAG.CORRADI   1250704220030220100122100  1  NNKG000010000000000000S00000009109999912KGU00010000000000200097205FSFOGLIATINE PROSC/FO$99999F000972054815                                              00000000051134301      IF00000010099999999900001FL0009720501201402279999999900000000805Q0000012014022799999999U0001000000000012809920250416010343EL5       EUR000000 00000N$ALL  $$$$$      000000N
002220R053799801PANE DI SEMOLA (CONF.)MATTOR. GR5001270101010103620140708040  1  NNKG000010000000000000S00000009109999912KGU00010000000000201195301FPANE DI SEMOLA (CONF$99999F01195301          0012C                                   00000000053799801      IF00000010099999999900001FL0119530101202110289999999900000000150Q0000012021102899999999U0001000000000002499920250416010352EL5       EUR000000 00000N$ALL  $$$$$      000000N
002220R054962701CIABATTON GRANO DURO LANTERNA      1270101130280020161018040  1  NNKG000010000000077500S00000009109999911KGS00077500000001102061101ICIABATTON GRANO DURO$99999I0206110149150                                             00000000054962701      IF00000010099999999900001IL0206110101202305049999999900000003780Q0000012023050499999999S0007750000000008909920250416010325EL5       EUR000000 00000N$ALL  $$$$$      000000N
002220R566579001PANE BAGUELINO SCURO G125 VM       1270101162061120250131100  1  NNKG000010000000000000S00000009109999911KGS00075000000001102061101IPANE BAGUELINO SCURO$99999I0206110141758                                             00000000566579001      IF00000010099999999900001IL0206110101202502139999999900000004746Q0000012025021399999999S0007500000000011909920250416010325EL5       EUR000000 00000N$ALL  $$$$$      000000N
002220R566579901PANE SCHIOCCO G65 VM               1270101162061120250131040  1  NNKG000000650000000650N00000009109999911PZS00680000000001102061101IPANE SCHIOCCO       $00000I02061101          56432                                   00000000566579901      IF00000010099999999900001IL0206110101202502139999999900000002063Q0000012025021399999999S0068000000000000559920250416010325EL5       EUR000000 00000N$ALL  $$$$$      000000N
002220R006177801IPA PIZZA CIPOLLA                  1270110010007419901030100  1  NN$$000000000000010000S00000009109999912KGU00010000000000201740701FIPA PIZZA CIPOLLA   $99999F01740701            497                                   00000000006177801      KG00000010099999999900001FL0174070101202205039999999900000000615Q0000012022050399999999U0001000000000009809920250416010327EL5       EUR000000 00000N$ALL  $$$$$      000000N
002220R005799702BRIGHELLE AL CIOCCOL.IL GASTRONOMO 1270301010001020110111100  1  NNKG000010000000010000S00000009109999912KGU00010000000000200097205FBRIGHELLE A/CIOCCOL.$99999F000972054861                                              00000000005799702      IF00000010099999999900001FL0009720501201201129999999900000000960Q0000012012011299999999U0001000000000014509920250416010326EL5       EUR000000 00000N$ALL  $$$$$      000000N
002220R051134701PASTICCERIA MIGNON IL GASTRONOMO   1270301010001020100122100  1  NNKG000010000000000000S00000009109999912KGU00010000000000200097205FPASTICCERIA MIGNON I$99999F000972054831                                              00000000051134701      IF00000010099999999900001FL0009720501201001259999999900000001060Q0000012010012599999999U0001000000000016909920250416010343EL5       EUR000000 00000N$PAC  $$$$$      000000N
002220R050485201CORNETTI FRESCHI CONF.X5 MATTORRE  1270301010060020080325100  1  NN$$000000000000002000N00000009109999912PZU00010000000000201195301FCORNETTI FRESCHI    $99999F011953010351          *                                   00000000050485201      IF00000010099999999900001FL0119530101201802019999999900000000200Q0000012018020199999999U0001000000000003609920250416010340EL5       EUR000000 00000N$ALL  $$$$$      000000N
002220R566044401CHRISTMAS DONUT GR.55              1270316102061120240221100  1  NNKG000000550000000550N00000009109999911PZS00360000000001102061101ICHRISTMAS DONUT VM  $99999I02061101          53932                                   00000000566044401      IF00000010099999999900001IL0206110101202312019999999900000002197Q0000012023120199999999S0036000000000001159920250416010325EL5       EUR000000 00000S$ALL  $$$$$      000000N
002220R566583301GRAN CORNETTO CV VUOTO G80 VM PZ5  1270316102061120250131100  1  NNKG000000800000000800N00000009109999911PZS00520000000001102061101ICORNETTO VUOTO      $99999I02061101          56385                                   00000000566583301      IF00000010099999999900001IL0206110101202502139999999900000002681Q0000012025021399999999S0052000000000000959920250416010325EL5       EUR000000 00000N$ALL  $$$$$      000000N
002220R566585701CORNETTO CV MULTIC FBOSCO G80 VM   1270316102061120250203100  1  NNKG000000800000000800N00000009109999911PZS00520000000001102061101ICORNETTO MULTIC F.BO$99999I02061101          56406                                   00000000566585701      IF00000010099999999900001IL0206110101202502139999999900000003004Q0000012025021399999999S0052000000000001109920250416010325EL5       EUR000000 00000N$ALL  $$$$$      000000N
002220R566588701DOONY'S WONDER MIX G61 VM          1270316102061120250203100  1  NNKG000000610000000610N00000009109999911PZS00600000000001102061101IDOONY'S WONDER MIX  $99999I02061101          55237                                   00000000566588701      IF00000010099999999900001IL0206110101202502139999999900000005693Q0000012025021399999999S0060000000000001759920250416010325EL5       EUR000000 00000N$ALL  $$$$$      000000N
002220R005801801DOLCE RUSTICO IL GASTRONOMO        1270501070001019920214100  1  NNKG000010000000010000S00000009109999912KGU00010000000000200097205FDOLCE RUSTICO IL GAS$99999F000972054845                                              00000000005801801      KG00000010099999999900001FL0009720501201001259999999900000000620Q0000012010012599999999U0001000000000010509920250416010326EL5       EUR000000 00000N$ALL  $$$$$      000000N
002220R008159501TORTA DELLA NONNA IL GASTRONOMO    1270501070050020070123100  1  NNKG000010000000010000S00000009109999912KGU00010000000000200097205FTORTA DELLA NONNA IL$99999F000972054837                                              00000000008159501      IF00000010099999999900001FL0009720501201001259999999900000000650Q0000012010012599999999U0001000000000010809920250416010331EL5       EUR000000 00000N$ALL  $$$$$      000000N
002220R059951501S1-OCCHIALE SOLE BNI PERSON        1830318070000120240206220  1  NN$$000000000000010000N00000008009999916PZU00010000000000600757903IS1-OCCHIALE SOLE BNI299999I00757903           2398                                   00000000059951501      IF00000010099999999900001IL0075790301202502049999999900000000730Q0000012025020499999999U0001000000000012909920250416010325EL5       EUR000000 00000S$ALL  $$$$$      000000N
002220R059952001S5-OCCHIALE SOLE BNA         ¤ 14,91830318070000120240206220  1  NN$$000000000000010000N00000008009999916PZU00010000000000600757903IS4-OCCHIALE SOLE BNA299999I00757903           2635                                   00000000059952001      IF00000010099999999900001IL0075790301202502049999999900000000810Q0000012025020499999999U0001000000000014909920250416010325EL5       EUR000000 00000S$ALL  $$$$$      000000N
002220R566595701S5-OCCHIALI SOLE ADULTO   ¤10,9    1830318070000120250204220  1  NN$$000000000000010000N00000008009999916PZU00010000000000600757903IS5-OCCHIALI SOLE ADU299999I00757903          S5185                                   00000000566595701      IF00000010099999999900001IL0075790301202502049999999900000000608Q0000012025020499999999U0001000000000010909920250416010325EL5       EUR000000 00000N$ALL  $$$$$      000000N
002220R566595702S5-OCCHIALI SOLE ADULTO   ¤14,9    1830318070000120250204220  1  NN$$000000000000010000N00000008009999916PZU00010000000000600757903IS5-OCCHIALI SOLE ADU299999I00757903          S5198                                   00000000566595702      IF00000010099999999900001IL0075790301202502049999999900000000795Q0000012025020499999999U0001000000000014909920250416010325EL5       EUR000000 00000N$ALL  $$$$$      000000N
002220R566595801S5-OCCHIALI SOLE BNI        ¤ 9,90 1830318070000220250204220  1  NN$$000000000000010000N00000008009999916PZU00010000000000600757903IS5-OCCHIALI SOLE BNI299999I00757903           2622                                   00000000566595801      IF00000010099999999900001IL0075790301202502049999999900000000575Q0000012025020499999999U0001000000000009909920250416010325EL5       EUR000000 00000N$ALL  $$$$$      000000N
002220R566690401S5-OCCHIALI SOLE ADULTO GOLA ¤19,901830318070000220250324220  1  NN$$000000000000010000N00000008009999916PZU00010000000000600757903IS5-OCCHIALI SOLE ADU299999I00757903          S9122                                   00000000566690401      IF00000010099999999900001IL0075790301202503249999999900000001160Q0000012025032499999999U0001000000000019909920250416010325EL5       EUR000000 00000N$ALL  $$$$$      000000N
002220R566690402S5-OCCHIALI SOLE ADULTO CAMO ¤19,901830318070000220250324220  1  NN$$000000000000010000N00000008009999916PZU00010000000000600757903IS5-OCCHIALI SOLE ADU299999I00757903          S9120                                   00000000566690402      IF00000010099999999900001IL0075790301202503249999999900000001160Q0000012025032499999999U0001000000000019909920250416010325EL5       EUR000000 00000N$ALL  $$$$$      000000N
002220R566593601S5-CIABATTA U OWEN 40-45 GRIFF PE  1830509030010020250203220  1  NN$$000000000000010000N00000008009999916PZU00010000000000600359301IS5-CIABATTA U OWEN 4299999I00359301PGR3294                                           00000000566593601      IF00000010099999999900018IL0035930101202502019999999900000000685Q0000012025020199999999U0001000000000014909920250416010413EL5       EUR000000 00000N$ALL  $$$$$      000000N
002220R050639501PRYM AGHI MACCH.JERSEY ASS.78/80 X51830601040069220080821220  1  NN$$000000000000001000N00000008009999916PZU00010000000001601666801IPRYM AGHI MACCHINA  $99999I01666801000000011542320                                   00000000050639501      IF00000010099999999900010I 0000000000000000000000000000000000000 0000000000000000000000U0001000000000000009920250416010325EL5       EUR000000 00000N$ALL  $$$$$      000000N
002220R055940104TOVAGLIETTA SPIDERMAN              1840119010010020190123220  1  NN$$000000000000010000N00000008009999916PZU00010000000000600757902ITOVAGLIETTA SPIDERMAB99999I00757902          39243                                   00000000055940104      IF00000010099999999900012I 0000000000000000000000000000000000000 0000000000000000000000U0001000000000000009920250416010325EL5       EUR000000 00000S$ALL  $$$$$      000000N
002220R566190202SET LUNC.BAG PIRATES WORL GAB      1840119010100020240522220  1  NN$$000000000000010000N00000008009999916PZU00010000000000600757902ISET LUNC.BAG PIRATESB00000I00757902          39495                                   00000000566190202      IF00000010099999999900012IL0075790201202504019999999900000000599Q0000012025040199999999U0001000000000009909920250416010325EL5       EUR000000 00000S$ALL  $$$$$      000000N
002220R566202301TOVAGLIETTA UNICORN SMILE          1840122040010020240529220  1  NN$$000000000000010000N00000008009999916PZU00010000000000600757902ITOVAGLIETTA UNICORN B99999I00757902          39485                                   00000000566202301      IF00000010099999999900006IL0075790201202504019999999900000000130Q0000012025040199999999U0001000000000002609920250416010325EL5       EUR000000 00000S$ALL  $$$$$      000000N
002220R059049002SALVIETTINE IMB.KLEVBABY 72PZ.TALCO1840127050010020230831220  1  NN$$000000000000010000N00000008009999916PZU00010000000000601733001ISALVIETTINE IMB.KLEVB00000I01733001          39609                                   00000000059049002      IF00000010099999999900024I 0000000000000000000000000000000000000 0000000000000000000000U0001000000000000009920250416010325EL5       EUR000000 00000S$IPER $$$$$      000000N
002220R059055101ALZAIMMONDIZIA SNODATA COLORI ASS. 1840127050030020230208220  1  NN$$000000000000010000N00000008009999916PZU00010000000000601733001IALZAIMMONDIZIA SNODAB99999I01733001          36157                                   00000000059055101      IF00000010099999999900020IL0173300101202309219999999900000000110Q0000012023092199999999U0001000000000002009920250416010325EL5       EUR000000 00000S$ALL  $$$$$      000000N
002220R553934101S2-MATITE CON GOMMA 6PZ AGEDIS     1840201010000120220530220  1  NN$$000000000000010000N00000008009999916PZU00010000000000600743131IMATITE CON GOMMA 6PZB00000I00743131C827                                              00000000553934101      IF00000010099999999900060I 0000000000000000000000000000000000000 0000000000000000000000U0001000000000000009920250416010325EL5       EUR000000 00000N$IPER $$$$$      000000N
002220R553936001S2-MATIT.3PZ+GOM+TEMP AGE          1840201010000120220530220  1  NN$$000000000000010000N00000008009999916PZU00010000000000600743131IMATIT.3PZ+GOM+TEMP AB00000I0074313156838                                             00000000553936001      IF00000010099999999900020I 0000000000000000000000000000000000000 0000000000000000000000U0001000000000000009920250416010325EL5       EUR000000 00000N$IPER $$$$$      000000N
002220R553939101S2-MATITE 6PZ FUN TRIA.AGE         1840201010000120220530220  1  NN$$000000000000010000N00000008009999916PZU00010000000000600743131IMATITE 6PZ FUN TRIA.B00000I0074313157743                                             00000000553939101      IF00000010099999999900040I 0000000000000000000000000000000000000 0000000000000000000000U0001000000000000009920250416010325EL5       EUR000000 00000N$IPER $$$$$      000000N
002220R553940001S2-MATITE C.GOM 12PZ AGE           1840201010000120220530220  1  NN$$000000000000010000N00000008009999916PZU00010000000000600743131IMATITE C.GOM 12PZ AGB00000I0074313113375                                             00000000553940001      IF00000010099999999900030I 0000000000000000000000000000000000000 0000000000000000000000U0001000000000000009920250416010325EL5       EUR000000 00000N$IPER $$$$$      000000N
002220R553944001S2-GOMME 2PZ ANIM.SKUL AGE         1840201010000120220530220  1  NN$$000000000000010000N00000008009999916PZU00010000000000600743131IGOMME 2PZ ANIM.SKUL B00000I0074313161316                                             00000000553944001      IF00000010099999999900010I 0000000000000000000000000000000000000 0000000000000000000000U0001000000000000009920250416010325EL5       EUR000000 00000N$IPER $$$$$      000000N
002220R553944101S2-MATITE PZ6+GOMMA AGE            1840201010000120220530220  1  NN$$000000000000010000N00000008009999916PZU00010000000000600743131IMATITE PZ6+GOMMA AGEB00000I0074313161315                                             00000000553944101      IF00000010099999999900020I 0000000000000000000000000000000000000 0000000000000000000000U0001000000000000009920250416010325EL5       EUR000000 00000N$IPER $$$$$      000000N
002220R553948301S2-PORTAMINE 0,9 CON MINE AGE      1840201010000120220530220  1  NN$$000000000000010000N00000008009999916PZU00010000000000600743131IPORTAMINE 0,9 CON MIB00000I0074313170592                                             00000000553948301      IF00000010099999999900020I 0000000000000000000000000000000000000 0000000000000000000000U0001000000000000009920250416010325EL5       EUR000000 00000N$IPER $$$$$      000000N
002220R553948501S2-PORTAMINE 0,5 CON MINE AGE      1840201010000120220530220  1  NN$$000000000000010000N00000008009999916PZU00010000000000600743131IPORTAMINE 0,5 CON MIB00000I00743131C1492                                             00000000553948501      IF00000010099999999900015I 0000000000000000000000000000000000000 0000000000000000000000U0001000000000000009920250416010325EL5       EUR000000 00000N$IPER $$$$$      000000N
002220R553952401S2-PORTAMINE 2MM CON MINE AGE      1840201010000120220530220  1  NN$$000000000000010000N00000008009999916PZU00010000000000600743131IPORTAMINE 2MM CON MIB00000I00743131C5040                                             00000000553952401      IF00000010099999999900020I 0000000000000000000000000000000000000 0000000000000000000000U0001000000000000009920250416010325EL5       EUR000000 00000N$IPER $$$$$      000000N
002220R553954701S2-KIT 4PZ MAT.+GOM+TEMP AGE       1840201010000120220530220  1  NN$$000000000000010000N00000008009999916PZU00010000000000600743131IKIT 4PZ MAT.+GOM+TEMB00000I0074313176558                                             00000000553954701      IF00000010099999999900020I 0000000000000000000000000000000000000 0000000000000000000000U0001000000000000009920250416010325EL5       EUR000000 00000N$IPER $$$$$      000000N
002220R553954901S2-KIT 4PZ MAT+RIG+GON AGE         1840201010000120220530220  1  NN$$000000000000010000N00000008009999916PZU00010000000000600743131IKIT 4PZ MAT+RIG+GON B00000I0074313176560                                             00000000553954901      IF00000010099999999900020I 0000000000000000000000000000000000000 0000000000000000000000U0001000000000000009920250416010325EL5       EUR000000 00000N$IPER $$$$$      000000N
002220R553956601S2-KIT 6PZ NEON MAT+RIG AGE        1840201010000120220530220  1  NN$$000000000000010000N00000008009999916PZU00010000000000600743131IKIT 6PZ NEON MAT+RIGB00000I0074313176559                                             00000000553956601      IF00000010099999999900020I 0000000000000000000000000000000000000 0000000000000000000000U0001000000000000009920250416010325EL5       EUR000000 00000N$IPER $$$$$      000000N
002220R553935101S2-MARCAT.2P P.SCALP.AGE           1840201020000120220530220  1  NN$$000000000000010000N00000008009999916PZU00010000000000600743131IMARCAT.2P P.SCALP.AGB00000I0074313141093                                             00000000553935101      IF00000010099999999900015I 0000000000000000000000000000000000000 0000000000000000000000U0001000000000000009920250416010325EL5       EUR000000 00000N$IPER $$$$$      000000N
002220R553944501S2-MARC.TRATTO MARKALL ASS FIL     1840201020000120220530220  1  NN$$000000000000010000N00000008009999916PZU00010000000000600743131IMARC.TRATTO MARKALL B00000I0074313125714                                             00000000553944501      IF00000010099999999900020I 0000000000000000000000000000000000000 0000000000000000000000U0001000000000000009920250416010325EL5       EUR000000 00000N$IPER $$$$$      000000N
002220R553944601S2-MARC.TRATTO MARKALL ORO FIL     1840201020000120220530220  1  NN$$000000000000010000N00000008009999916PZU00010000000000600743131IMARC.TRATTO MARKALL B00000I0074313125715                                             00000000553944601      IF00000010099999999900010I 0000000000000000000000000000000000000 0000000000000000000000U0001000000000000009920250416010325EL5       EUR000000 00000N$IPER $$$$$      000000N
002220R553945401S2-MARCATORE 2PZ ASS AGE           1840201020000120220530220  1  NN$$000000000000010000N00000008009999916PZU00010000000000600743131IMARCATORE 2PZ ASS AGB00000I0074313172128                                             00000000553945401      IF00000010099999999900020I 0000000000000000000000000000000000000 0000000000000000000000U0001000000000000009920250416010325EL5       EUR000000 00000N$IPER $$$$$      000000N
002220R553956801S2-MARKER LAVAGNA ASS AGE          1840201020000120220530220  1  NN$$000000000000010000N00000008009999916PZU00010000000000600743131IMARKER LAVAGNA ASS AB00000I0074313176598                                             00000000553956801      IF00000010099999999900020I 0000000000000000000000000000000000000 0000000000000000000000U0001000000000000009920250416010325EL5       EUR000000 00000N$IPER $$$$$      000000N
002220R553958401S2-MARKER GESSETTO BIANCO AGE      1840201020000120220530220  1  NN$$000000000000010000N00000008009999916PZU00010000000000600743131IMARKER GESSETTO BIANB00000I0074313174553                                             00000000553958401      IF00000010099999999900010I 0000000000000000000000000000000000000 0000000000000000000000U0001000000000000009920250416010325EL5       EUR000000 00000N$IPER $$$$$      000000N
002220R553958501S2-MARKER GESSETTO GIALLO AGE      1840201020000120220530220  1  NN$$000000000000010000N00000008009999916PZU00010000000000600743131IMARKER GESSETTO GIALB00000I0074313174554                                             00000000553958501      IF00000010099999999900010I 0000000000000000000000000000000000000 0000000000000000000000U0001000000000000009920250416010325EL5       EUR000000 00000N$IPER $$$$$      000000N
002220R553960401S2-MARKER LAVAGNA 4PZ AGE          1840201020000120220530220  1  NN$$000000000000010000N00000008009999916PZU00010000000000600743131IMARKER LAVAGNA 4PZ AB00000I0074313176599                                             00000000553960401      IF00000010099999999900015I 0000000000000000000000000000000000000 0000000000000000000000U0001000000000000009920250416010325EL5       EUR000000 00000N$IPER $$$$$      000000N
002220R553962301S2-CANCELL.+2 WHITE BOARD AGE      1840201020000120220530220  1  NN$$000000000000010000N00000008009999916PZU00010000000000600743131ICANCELL.+2 WHITE BOAB00000I0074313176600                                             00000000553962301      IF00000010099999999900004I 0000000000000000000000000000000000000 0000000000000000000000U0001000000000000009920250416010325EL5       EUR000000 00000N$IPER $$$$$      000000N
002220R553936101S2-PENNA SF.SC.4COL AGE            1840201030000120220530220  1  NN$$000000000000010000N00000008009999916PZU00010000000000600743131IPENNA SF.SC.4COL AGEB00000I0074313153312                                             00000000553936101      IF00000010099999999900010I 0000000000000000000000000000000000000 0000000000000000000000U0001000000000000009920250416010325EL5       EUR000000 00000N$IPER $$$$$      000000N
002220R553937501S2-PENNA SF.10COL AGE              1840201030000120220530220  1  NN$$000000000000010000N00000008009999916PZU00010000000000600743131IPENNA SF.10COL AGE  B00000I0074313137306                                             00000000553937501      IF00000010099999999900020I 0000000000000000000000000000000000000 0000000000000000000000U0001000000000000009920250416010325EL5       EUR000000 00000N$IPER $$$$$      000000N
002220R553947201S2-PENNE 2PZ GOLDFABER BLU AGE     1840201030000120220530220  1  NN$$000000000000010000N00000008009999916PZU00010000000000600743131IPENNE 2PZ GOLDFABER B00000I0074313171177                                             00000000553947201      IF00000010099999999900020I 0000000000000000000000000000000000000 0000000000000000000000U0001000000000000009920250416010325EL5       EUR000000 00000N$IPER $$$$$      000000N
002220R553947301S2-PENNE 2PZ GOLDFABER NER AGE     1840201030000120220530220  1  NN$$000000000000010000N00000008009999916PZU00010000000000600743131IPENNE 2PZ GOLDFABER B00000I0074313171178                                             00000000553947301      IF00000010099999999900020I 0000000000000000000000000000000000000 0000000000000000000000U0001000000000000009920250416010325EL5       EUR000000 00000N$IPER $$$$$      000000N
002220R553947401S2-PENNE 2PZ GOLDFABER ROS AGE     1840201030000120220530220  1  NN$$000000000000010000N00000008009999916PZU00010000000000600743131IPENNE 2PZ GOLDFABER B00000I0074313171179                                             00000000553947401      IF00000010099999999900020I 0000000000000000000000000000000000000 0000000000000000000000U0001000000000000009920250416010325EL5       EUR000000 00000N$IPER $$$$$      000000N
002220R553956901S2-PENNA SFERA 5PZ AGE             1840201030000120220530220  1  NN$$000000000000010000N00000008009999916PZU00010000000000600743131IPENNA SFERA 5PZ AGE B00000I0074313119838                                             00000000553956901      IF00000010099999999900060I 0000000000000000000000000000000000000 0000000000000000000000U0001000000000000009920250416010325EL5       EUR000000 00000N$IPER $$$$$      000000N
002220R553957301S2-KIT PREMIUM 5PZ PEN/MA AGE      1840201030000120220530220  1  NN$$000000000000010000N00000008009999916PZU00010000000000600743131IKIT PREMIUM 5PZ PEN B00000I0074313176562                                             00000000553957301      IF00000010099999999900025I 0000000000000000000000000000000000000 0000000000000000000000U0001000000000000009920250416010325EL5       EUR000000 00000N$IPER $$$$$      000000N
002220R553957901S2-PENNA REDO BLU CAP+REF AGE      1840201030000120220530220  1  NN$$000000000000010000N00000008009999916PZU00010000000000600743131IPENNA REDO BLU CAP+RB00000I0074313176804                                             00000000553957901      IF00000010099999999900030I 0000000000000000000000000000000000000 0000000000000000000000U0001000000000000009920250416010325EL5       EUR000000 00000N$IPER $$$$$      000000N
002220R553959001S2-KIT 21PZ 7902 AGE               1840201030000120220530220  1  NN$$000000000000010000N00000008009999916PZU00010000000000600743131IKIT 21PZ 7902 AGE   B00000I0074313176588                                             00000000553959001      IF00000010099999999900020I 0000000000000000000000000000000000000 0000000000000000000000U0001000000000000009920250416010325EL5       EUR000000 00000N$IPER $$$$$      000000N
002220R553933201S5-EVID.BOSS+MINI ASS STA          1840201040000120220530220  1  NN$$000000000000010000N00000008009999916PZU00010000000000600743131IEVID.BOSS+MINI ASS SB00000I0074313131729                                             00000000553933201      IF00000010099999999900005I 0000000000000000000000000000000000000 0000000000000000000000U0001000000000000009920250416010325EL5       EUR000000 00000N$IPER $$$$$      000000N
002220R553933301S2-EVID. STABILO BOSS+GOM. AGE     1840201040000120220530220  1  NN$$000000000000010000N00000008009999916PZU00010000000000600743131IEVID. STABILO BOSS+GB00000I0074313131730                                             00000000553933301      IF00000010099999999900010I 0000000000000000000000000000000000000 0000000000000000000000U0001000000000000009920250416010325EL5       EUR000000 00000N$IPER $$$$$      000000N
002220R553939001S2-EVIDENZ.2PZ AGE                 1840201040000120220530220  1  NN$$000000000000010000N00000008009999916PZU00010000000000600743131IEVIDENZ.2PZ AGE     B00000I0074313113213                                             00000000553939001      IF00000010099999999900030I 0000000000000000000000000000000000000 0000000000000000000000U0001000000000000009920250416010325EL5       EUR000000 00000N$IPER $$$$$      000000N
002220R553944201S2-EVIDENZIATORE 6PZ FLUO AGE      1840201040000120220530220  1  NN$$000000000000010000N00000008009999916PZU00010000000000600743131IEVIDENZIATORE 6PZ FLB00000I0074313159866                                             00000000553944201      IF00000010099999999900024I 0000000000000000000000000000000000000 0000000000000000000000U0001000000000000009920250416010325EL5       EUR000000 00000N$IPER $$$$$      000000N
002220R553944301S2-EVIDENZIATORE 6P PASTEL AGE     1840201040000120220530220  1  NN$$000000000000010000N00000008009999916PZU00010000000000600743131IEVIDENZIATORE 6P PASB00000I0074313159867                                             00000000553944301      IF00000010099999999900024I 0000000000000000000000000000000000000 0000000000000000000000U0001000000000000009920250416010325EL5       EUR000000 00000N$IPER $$$$$      000000N
002220R553946701S2-EVID.STAB.BOSSPAST+GOM AGE      1840201040000120220530220  1  NN$$000000000000010000N00000008009999916PZU00010000000000600743131IEVID.STAB.BOSSPAST+GB00000I0074313154234                                             00000000553946701      IF00000010099999999900010I 0000000000000000000000000000000000000 0000000000000000000000U0001000000000000009920250416010325EL5       EUR000000 00000N$IPER $$$$$      000000N
002220R553948401S2-EVID. 3PZ FLUO AGE              1840201040000120220530220  1  NN$$000000000000010000N00000008009999916PZU00010000000000600743131IEVID. 3PZ FLUO AGE  B00000I0074313161310                                             00000000553948401      IF00000010099999999900020I 0000000000000000000000000000000000000 0000000000000000000000U0001000000000000009920250416010325EL5       EUR000000 00000N$IPER $$$$$      000000N
002220R553948601S2-EVID. 3PZ  PAST AGE             1840201040000120220530220  1  NN$$000000000000010000N00000008009999916PZU00010000000000600743131IEVID. 3PZ  PAST AG  B00000I0074313161311                                             00000000553948601      IF00000010099999999900020I 0000000000000000000000000000000000000 0000000000000000000000U0001000000000000009920250416010325EL5       EUR000000 00000N$IPER $$$$$      000000N
002220R554147901S2-EVIDENZ.FLUO 3PZ AGE            1840201040000120220810220  1  NN$$000000000000010000N00000008009999916PZU00010000000000600743131IEVIDENZ.FLUO 3PZ AGEB00000I00743131C3489                                             00000000554147901      IF00000010099999999900020I 0000000000000000000000000000000000000 0000000000000000000000U0001000000000000009920250416010325EL5       EUR000000 00000N$IPER $$$$$      000000N
002220R553934301S2-CORRET.NASTRO 12MT AGE          1840201070000120220530220  1  NN$$000000000000010000N00000008009999916PZU00010000000000600743131ICORRET.NASTRO 12MT AB00000I00743131C1490                                             00000000553934301      IF00000010099999999900040I 0000000000000000000000000000000000000 0000000000000000000000U0001000000000000009920250416010325EL5       EUR000000 00000N$IPER $$$$$      000000N
002220R553937601S2-CORRET.SCATTO 5MM AGE           1840201070000120220530220  1  NN$$000000000000010000N00000008009999916PZU00010000000000600743131ICORRET.SCATTO 5MM AGB00000I0074313156842                                             00000000553937601      IF00000010099999999900010I 0000000000000000000000000000000000000 0000000000000000000000U0001000000000000009920250416010325EL5       EUR000000 00000N$IPER $$$$$      000000N
002220R553938201S2-CORRET.PEN FLUID AGE            1840201070000120220530220  1  NN$$000000000000010000N00000008009999916PZU00010000000000600743131ICORRET.PEN FLUID AGEB00000I0074313130284                                             00000000553938201      IF00000010099999999900030I 0000000000000000000000000000000000000 0000000000000000000000U0001000000000000009920250416010325EL5       EUR000000 00000N$IPER $$$$$      000000N
002220R553939501S2-CORRET.2PZ PEN AGE              1840201070000120220530220  1  NN$$000000000000010000N00000008009999916PZU00010000000000600743131ICORRET.2PZ PEN AGE  B00000I00743131C818                                              00000000553939501      IF00000010099999999900020I 0000000000000000000000000000000000000 0000000000000000000000U0001000000000000009920250416010325EL5       EUR000000 00000N$IPER $$$$$      000000N
002220R553947901S2-CORRETTORE NASTRO 20MT AGE      1840201070000120220530220  1  NN$$000000000000010000N00000008009999916PZU00010000000000600743131ICORRETTORE NASTRO 20B00000I0074313172564                                             00000000553947901      IF00000010099999999900030I 0000000000000000000000000000000000000 0000000000000000000000U0001000000000000009920250416010325EL5       EUR000000 00000N$IPER $$$$$      000000N
002220R553938601S2-GOMMA 2PZ TECNICA AGE           1840201080000120220530220  1  NN$$000000000000010000N00000008009999916PZU00010000000000600743131IGOMMA 2PZ TECNICA AGB00000I0074313119137                                             00000000553938601      IF00000010099999999900030I 0000000000000000000000000000000000000 0000000000000000000000U0001000000000000009920250416010325EL5       EUR000000 00000N$IPER $$$$$      000000N
002220R553939201S2-TEMPER.SERBAT.AGE               1840201080000120220530220  1  NN$$000000000000010000N00000008009999916PZU00010000000000600743131ITEMPER.SERBAT.AGE   B00000I0074313110694                                             00000000553939201      IF00000010099999999900040I 0000000000000000000000000000000000000 0000000000000000000000U0001000000000000009920250416010325EL5       EUR000000 00000N$IPER $$$$$      000000N
002220R553939701S2-TEMPER.2F PASTEL AGE            1840201080000120220530220  1  NN$$000000000000010000N00000008009999916PZU00010000000000600743131ITEMPER.2F PASTEL AGEB00000I0074313157994                                             00000000553939701      IF00000010099999999900020I 0000000000000000000000000000000000000 0000000000000000000000U0001000000000000009920250416010325EL5       EUR000000 00000N$IPER $$$$$      000000N
002220R553943101S2-TEMPERAMATITE 4IN1 AGE          1840201080000120220530220  1  NN$$000000000000010000N00000008009999916PZU00010000000000600743131ITEMPERAMATITE 4IN1 AB00000I0074313154992                                             00000000553943101      IF00000010099999999900020I 0000000000000000000000000000000000000 0000000000000000000000U0001000000000000009920250416010325EL5       EUR000000 00000N$IPER $$$$$      000000N
002220R554153501S5-GOMME FANTASY CTOP 2PZ AGE      1840201080000120220810220  1  NN$$000000000000010000N00000008009999916PZU00010000000000600743131IGOMME FANTASY CTOP  B00000I0074313161317                                             00000000554153501      IF00000010099999999900030I 0000000000000000000000000000000000000 0000000000000000000000U0001000000000000009920250416010325EL5       EUR000000 00000N$IPER $$$$$      000000N
002220R553949501S2-QUAD.SPIRAL.1R A5  80FG AGE     1840202060000120220530220  1  NN$$000000000000010000N00000008009999916PZU00010000000000600743131IQUAD.SPIRAL.1R A5   B00000I0074313170634                                             00000000553949501      IF00000010099999999900018I 0000000000000000000000000000000000000 0000000000000000000000U0001000000000000009920250416010325EL5       EUR000000 00000N$IPER $$$$$      000000N
002220R553949601S2-QUAD.SPIRAL.5MM A5 80FG AGE     1840202060000120220530220  1  NN$$000000000000010000N00000008009999916PZU00010000000000600743131IQUAD.SPIRAL.5MM A5 8B00000I0074313170635                                             00000000553949601      IF00000010099999999900018I 0000000000000000000000000000000000000 0000000000000000000000U0001000000000000009920250416010325EL5       EUR000000 00000N$IPER $$$$$      000000N
002220R553953201S2-QUAD.CART.1R 96F 80G AGE        1840202060000120220530220  1  NN$$000000000000010000N00000008009999916PZU00010000000000600743131IQUAD.CART.1R 96F 80GB00000I0074313121679                                             00000000553953201      IF00000010099999999900006I 0000000000000000000000000000000000000 0000000000000000000000U0001000000000000009920250416010325EL5       EUR000000 00000N$IPER $$$$$      000000N
002220R553953301S2-QUAD.CART. 5MM96F 80G AGE       1840202060000120220530220  1  NN$$000000000000010000N00000008009999916PZU00010000000000600743131IQUAD.CART. 5MM96F 80B00000I0074313121680                                             00000000553953301      IF00000010099999999900006I 0000000000000000000000000000000000000 0000000000000000000000U0001000000000000009920250416010325EL5       EUR000000 00000N$IPER $$$$$      000000N
002220R553953401S2-QUAD.CART. 4MM 96F 80G AGE      1840202060000120220530220  1  NN$$000000000000010000N00000008009999916PZU00010000000000600743131IQUAD.CART. 4MM 96F 8B00000I0074313121681                                             00000000553953401      IF00000010099999999900006I 0000000000000000000000000000000000000 0000000000000000000000U0001000000000000009920250416010325EL5       EUR000000 00000N$IPER $$$$$      000000N
002220R553953501S2-QUAD.CART.MON.10MM 96F 80G      1840202060000120220530220  1  NN$$000000000000010000N00000008009999916PZU00010000000000600743131IQUAD.CART.MON.10MM 9B00000I0074313170725                                             00000000553953501      IF00000010099999999900006I 0000000000000000000000000000000000000 0000000000000000000000U0001000000000000009920250416010325EL5       EUR000000 00000N$IPER $$$$$      000000N
002220R553954101S2-QUAD.SPIR.1R A4 140F 4F AGE     1840202060000120220530220  1  NN$$000000000000010000N00000008009999916PZU00010000000000600743131IQUAD.SPIR.1R A4 140FB00000I0074313170631                                             00000000553954101      IF00000010099999999900006I 0000000000000000000000000000000000000 0000000000000000000000U0001000000000000009920250416010325EL5       EUR000000 00000N$IPER $$$$$      000000N
002220R553954201S2-QUAD.SPIR.5MMA4 140F 4F AGE     1840202060000120220530220  1  NN$$000000000000010000N00000008009999916PZU00010000000000600743131IQUAD.SPIR.5MMA4 140FB00000I0074313170632                                             00000000553954201      IF00000010099999999900006I 0000000000000000000000000000000000000 0000000000000000000000U0001000000000000009920250416010325EL5       EUR000000 00000N$IPER $$$$$      000000N
002220R553954301S2-QUAD.SPIR.4MMA4 140F 4F AGE     1840202060000120220530220  1  NN$$000000000000010000N00000008009999916PZU00010000000000600743131IQUAD.SPIR.4MMA4 140FB00000I0074313170633                                             00000000553954301      IF00000010099999999900006I 0000000000000000000000000000000000000 0000000000000000000000U0001000000000000009920250416010325EL5       EUR000000 00000N$IPER $$$$$      000000N
002220R553937801S2-ETICHETTE BNC 10F AGE           1840202070000120220530220  1  NN$$000000000000010000N00000008009999916PZU00010000000000600743131IETICHETTE BNC 10F AGB00000I0074313127308                                             00000000553937801      IF00000010099999999900050I 0000000000000000000000000000000000000 0000000000000000000000U0001000000000000009920250416010325EL5       EUR000000 00000N$IPER $$$$$      000000N
002220R553933501S2-COP.AN.A4 D30 AGE               1840202080000120220530220  1  NN$$000000000000010000N00000008009999916PZU00010000000000600743131ICOP.AN.A4 D30 AGE   B00000I0074313112293                                             00000000553933501      IF00000010099999999900020I 0000000000000000000000000000000000000 0000000000000000000000U0001000000000000009920250416010325EL5       EUR000000 00000N$IPER $$$$$      000000N
002220R553949801S2-COP.AN.A4 D30 PPL PAST AGE      1840202080000120220530220  1  NN$$000000000000010000N00000008009999916PZU00010000000000600743131ICOP.AN.A4 D30 PPL PAB00000I0074313157992                                             00000000553949801      IF00000010099999999900010I 0000000000000000000000000000000000000 0000000000000000000000U0001000000000000009920250416010325EL5       EUR000000 00000N$IPER $$$$$      000000N
002220R553933401S2-CART.3L C.EL.A4 25X35 AGE       1840202090000120220530220  1  NN$$000000000000010000N00000008009999916PZU00010000000000600743131ICART.3L C.EL.A4 25X3B00000I00743131C0514                                             00000000553933401      IF00000010099999999900030I 0000000000000000000000000000000000000 0000000000000000000000U0001000000000000009920250416010325EL5       EUR000000 00000N$IPER $$$$$      000000N
002220R553934801S5-POCKET FOLDER A4-A3 AGE         1840202090000120220530220  1  NN$$000000000000010000N00000008009999916PZU00010000000000600743131IPOCKET FOLDER A4-A3 B00000I0074313130319                                             00000000553934801      IF00000010099999999900025I 0000000000000000000000000000000000000 0000000000000000000000U0001000000000000009920250416010325EL5       EUR000000 00000N$IPER $$$$$      000000N
002220R553934901S2-CART.3L 8PZ AGE                 1840202090000120220530220  1  NN$$000000000000010000N00000008009999916PZU00010000000000600743131ICART.3L 8PZ AGE     B00000I0074313112371                                             00000000553934901      IF00000010099999999900025I 0000000000000000000000000000000000000 0000000000000000000000U0001000000000000009920250416010325EL5       EUR000000 00000N$IPER $$$$$      000000N
002220R553943001S2-CART.SOFFIET.MAN.AGE            1840202090000120220530220  1  NN$$000000000000010000N00000008009999916PZU00010000000000600743131ICART.SOFFIET.MAN.AGEB00000I0074313125026                                             00000000553943001      IF00000010099999999900020I 0000000000000000000000000000000000000 0000000000000000000000U0001000000000000009920250416010325EL5       EUR000000 00000N$IPER $$$$$      000000N
002220R553949001S2-CARTELLA C/EL 3L A4 PPL AGE     1840202090000120220530220  1  NN$$000000000000010000N00000008009999916PZU00010000000000600743131ICARTELLA CEL 3L A4  B00000I0074313134432                                             00000000553949001      IF00000010099999999900030I 0000000000000000000000000000000000000 0000000000000000000000U0001000000000000009920250416010325EL5       EUR000000 00000N$IPER $$$$$      000000N
002220R553949101S2-CART.C/EL 3L A4 PPL PASTAGE     1840202090000120220530220  1  NN$$000000000000010000N00000008009999916PZU00010000000000600743131ICART.CEL 3L A4 PPL  B00000I0074313171269                                             00000000553949101      IF00000010099999999900030I 0000000000000000000000000000000000000 0000000000000000000000U0001000000000000009920250416010325EL5       EUR000000 00000N$IPER $$$$$      000000N
002220R553949901S2-CART. C/EL D/4 PASTEL AGE       1840202090000120220530220  1  NN$$000000000000010000N00000008009999916PZU00010000000000600743131ICART. CEL D4 PASTE  B00000I0074313172459                                             00000000553949901      IF00000010099999999900010I 0000000000000000000000000000000000000 0000000000000000000000U0001000000000000009920250416010325EL5       EUR000000 00000N$IPER $$$$$      000000N
002220R553960501S2-PENNELLI 0/2/4/6 TONDI AGE      1840203010000120220530220  1  NN$$000000000000010000N00000008009999916PZU00010000000000600743131IPENNELLI 0246 TON   B00000I0074313176605                                             00000000553960501      IF00000010099999999900015I 0000000000000000000000000000000000000 0000000000000000000000U0001000000000000009920250416010325EL5       EUR000000 00000N$IPER $$$$$      000000N
002220R553961901S2-PENNELLI 1/2/4/6 PIATTI AGE     1840203010000120220530220  1  NN$$000000000000010000N00000008009999916PZU00010000000000600743131IPENNELLI 1246 PIA   B00000I0074313176603                                             00000000553961901      IF00000010099999999900010I 0000000000000000000000000000000000000 0000000000000000000000U0001000000000000009920250416010325EL5       EUR000000 00000N$IPER $$$$$      000000N
002220R553939601S2-TEMPER.TRIS XOFF AGE            1840203050000120220530220  1  NN$$000000000000010000N00000008009999916PZU00010000000000600743131ITEMPER.TRIS XOFF AGEB00000I0074313130294                                             00000000553939601      IF00000010099999999900020I 0000000000000000000000000000000000000 0000000000000000000000U0001000000000000009920250416010325EL5       EUR000000 00000N$IPER $$$$$      000000N
002220R553942501S2-TEMPERA 12TUBI 7,5ML AGE        1840203050000120220530220  1  NN$$000000000000010000N00000008009999916PZU00010000000000600743131ITEMPERA 12TUBI 7,5MLB00000I0074313156848                                             00000000553942501      IF00000010099999999900008I 0000000000000000000000000000000000000 0000000000000000000000U0001000000000000009920250416010325EL5       EUR000000 00000N$IPER $$$$$      000000N
002220R553954801S2-TEMPERE 6PZ+PENNELLO AGE        1840203050000120220530220  1  NN$$000000000000010000N00000008009999916PZU00010000000000600743131ITEMPERE 6PZ+PENNELLOB00000I0074313176576                                             00000000553954801      IF00000010099999999900015I 0000000000000000000000000000000000000 0000000000000000000000U0001000000000000009920250416010325EL5       EUR000000 00000N$IPER $$$$$      000000N
002220R553960201S2-ACQUAR.12PZ D23+PENNELL AGE     1840203050000120220530220  1  NN$$000000000000010000N00000008009999916PZU00010000000000600743131IACQUAR.12PZ D23+PENNB00000I0074313176578                                             00000000553960201      IF00000010099999999900015I 0000000000000000000000000000000000000 0000000000000000000000U0001000000000000009920250416010325EL5       EUR000000 00000N$IPER $$$$$      000000N
002220R553962001S2-ACQUAR. 36PZ D23+2PEN. AGE      1840203050000120220530220  1  NN$$000000000000010000N00000008009999916PZU00010000000000600743131IACQUAR. 36PZ D23+2PEB00000I0074313176581                                             00000000553962001      IF00000010099999999900005I 0000000000000000000000000000000000000 0000000000000000000000U0001000000000000009920250416010325EL5       EUR000000 00000N$IPER $$$$$      000000N
002220R553933901S2-BUSTE A5 C.BOTTONE AGE          1840203080000120220530220  1  NN$$000000000000010000N00000008009999916PZU00010000000000600743131IBUSTE A5 C.BOTTONE AB00000I0074313130315                                             00000000553933901      IF00000010099999999900050I 0000000000000000000000000000000000000 0000000000000000000000U0001000000000000009920250416010325EL5       EUR000000 00000N$IPER $$$$$      000000N
002220R553934701S2-BUSTE A4 PERF.C.BOTT.AGE        1840203080000120220530220  1  NN$$000000000000010000N00000008009999916PZU00010000000000600743131IBUSTE A4 PERF.C.BOTTB00000I0074313130318                                             00000000553934701      IF00000010099999999900050I 0000000000000000000000000000000000000 0000000000000000000000U0001000000000000009920250416010325EL5       EUR000000 00000N$IPER $$$$$      000000N
002220R553957101S2-PAST.12PZ+ALLUNG+TEMPER AGE     1840203090000120220530220  1  NN$$000000000000010000N00000008009999916PZU00010000000000600743131IPAST.12PZ+ALLUNG+TEMB00000I0074313176566                                             00000000553957101      IF00000010099999999900030I 0000000000000000000000000000000000000 0000000000000000000000U0001000000000000009920250416010325EL5       EUR000000 00000N$IPER $$$$$      000000N
002220R553957201S2-PASTELLI CERA 12P+1ARG. AGE     1840203090000120220530220  1  NN$$000000000000010000N00000008009999916PZU00010000000000600743131IPASTELLI CERA 12P+1AB00000I0074313176572                                             00000000553957201      IF00000010099999999900030I 0000000000000000000000000000000000000 0000000000000000000000U0001000000000000009920250416010325EL5       EUR000000 00000N$IPER $$$$$      000000N
002220R553960101S2-PAST.CERA 24PZ+1ARG. AGE        1840203090000120220530220  1  NN$$000000000000010000N00000008009999916PZU00010000000000600743131IPAST.CERA 24PZ+1ARG.B00000I0074313176573                                             00000000553960101      IF00000010099999999900010I 0000000000000000000000000000000000000 0000000000000000000000U0001000000000000009920250416010325EL5       EUR000000 00000N$IPER $$$$$      000000N
002220R553960301S2-PAST.12PZ+1ARG BARATTOL AGE     1840203090000120220530220  1  NN$$000000000000010000N00000008009999916PZU00010000000000600743131IPAST.12PZ+1ARG BARATB00000I0074313176570                                             00000000553960301      IF00000010099999999900024I 0000000000000000000000000000000000000 0000000000000000000000U0001000000000000009920250416010325EL5       EUR000000 00000N$IPER $$$$$      000000N
002220R553961501S2-KIT 39PZ AGE                    1840203090000120220530220  1  NN$$000000000000010000N00000008009999916PZU00010000000000600743131IKIT 39PZ AGE        B00000I0074313176587                                             00000000553961501      IF00000010099999999900010I 0000000000000000000000000000000000000 0000000000000000000000U0001000000000000009920250416010325EL5       EUR000000 00000N$IPER $$$$$      000000N
002220R553962101S2-KIT ART 47PZ AGE                1840203090000120220530220  1  NN$$000000000000010000N00000008009999916PZU00010000000000600743131IKIT ART 47PZ AGE    B00000I0074313176589                                             00000000553962101      IF00000010099999999900010I 0000000000000000000000000000000000000 0000000000000000000000U0001000000000000009920250416010325EL5       EUR000000 00000N$IPER $$$$$      000000N
002220R553962501S2-PENNAR.BRUSH PENNE 14PZ AGE     1840203090000120220530220  1  NN$$000000000000010000N00000008009999916PZU00010000000000600743131IPENNAR.BRUSH PENNE 1B00000I0074313176592                                             00000000553962501      IF00000010099999999900015I 0000000000000000000000000000000000000 0000000000000000000000U0001000000000000009920250416010325EL5       EUR000000 00000N$IPER $$$$$      000000N
002220R553940701S2-ELASTICI FLUO 70PZ AGE          1840204010000120220530220  1  NN$$000000000000010000N00000008009999916PZU00010000000000600743131IELASTICI FLUO 70PZ AB00000I0074313154986                                             00000000553940701      IF00000010099999999900018I 0000000000000000000000000000000000000 0000000000000000000000U0001000000000000009920250416010325EL5       EUR000000 00000N$IPER $$$$$      000000N
002220R553940801S2-ELASTICI BARAT.100GR AGE        1840204010000120220530220  1  NN$$000000000000010000N00000008009999916PZU00010000000000600743131IELASTICI BARAT.100GRB00000I007431319476044/4                                         00000000553940801      IF00000010099999999900018I 0000000000000000000000000000000000000 0000000000000000000000U0001000000000000009920250416010325EL5       EUR000000 00000N$IPER $$$$$      000000N
002220R553955201S2-FERMAGLI 100PZ N3 AGE           1840204010000120220530220  1  NN$$000000000000010000N00000008009999916PZU00010000000000600743131IFERMAGLI 100PZ N3 AGB00000I0074313176069                                             00000000553955201      IF00000010099999999900010I 0000000000000000000000000000000000000 0000000000000000000000U0001000000000000009920250416010325EL5       EUR000000 00000N$IPER $$$$$      000000N
002220R553955301S2-FERMAGLI 80PZ N4 AGE            1840204010000120220530220  1  NN$$000000000000010000N00000008009999916PZU00010000000000600743131IFERMAGLI 80PZ N4 AGEB00000I0074313176082                                             00000000553955301      IF00000010099999999900010I 0000000000000000000000000000000000000 0000000000000000000000U0001000000000000009920250416010325EL5       EUR000000 00000N$IPER $$$$$      000000N
002220R553955401S2-MAGNETI 20MM 6 PZ AGE           1840204010000120220530220  1  NN$$000000000000010000N00000008009999916PZU00010000000000600743131IMAGNETI 20MM 6 PZ AGB00000I0074313115324                                             00000000553955401      IF00000010099999999900010I 0000000000000000000000000000000000000 0000000000000000000000U0001000000000000009920250416010325EL5       EUR000000 00000N$IPER $$$$$      000000N
002220R553955501S2-MAGNETI 30MM 3 PZ AGE           1840204010000120220530220  1  NN$$000000000000010000N00000008009999916PZU00010000000000600743131IMAGNETI 30MM 3 PZ AGB00000I0074313115325                                             00000000553955501      IF00000010099999999900010I 0000000000000000000000000000000000000 0000000000000000000000U0001000000000000009920250416010325EL5       EUR000000 00000N$IPER $$$$$      000000N
002220R553955601S2-MAGNETI 40MM 2PZ AGE            1840204010000120220530220  1  NN$$000000000000010000N00000008009999916PZU00010000000000600743131IMAGNETI 40MM 2PZ AGEB00000I0074313115326                                             00000000553955601      IF00000010099999999900010I 0000000000000000000000000000000000000 0000000000000000000000U0001000000000000009920250416010325EL5       EUR000000 00000N$IPER $$$$$      000000N
002220R553955701S5-FERMAGLI 40PZ N 5 AGE           1840204010000120220530220  1  NN$$000000000000010000N00000008009999916PZU00010000000000600743131IFERMAGLI 40PZ N 5 AGB00000I0074313176081                                             00000000553955701      IF00000010099999999900010I 0000000000000000000000000000000000000 0000000000000000000000U0001000000000000009920250416010325EL5       EUR000000 00000N$IPER $$$$$      000000N
002220R553957001S2-FERMAGLI 80PZ 3COL AGE          1840204010000120220530220  1  NN$$000000000000010000N00000008009999916PZU00010000000000600743131IFERMAGLI 80PZ 3COL AB00000I0074313176080                                             00000000553957001      IF00000010099999999900010I 0000000000000000000000000000000000000 0000000000000000000000U0001000000000000009920250416010325EL5       EUR000000 00000N$IPER $$$$$      000000N
002220R553957401S2-PUNTINE COLORATE 100PZ AGE      1840204010000120220530220  1  NN$$000000000000010000N00000008009999916PZU00010000000000600743131IPUNTINE COLORATE 100B00000I0074313176079                                             00000000553957401      IF00000010099999999900010I 0000000000000000000000000000000000000 0000000000000000000000U0001000000000000009920250416010325EL5       EUR000000 00000N$IPER $$$$$      000000N
002220R553957501S2-PUNTINE COLORATI 40PZ AGE       1840204010000120220530220  1  NN$$000000000000010000N00000008009999916PZU00010000000000600743131IPUNTINE COLORATI 40PB00000I0074313176072                                             00000000553957501      IF00000010099999999900010I 0000000000000000000000000000000000000 0000000000000000000000U0001000000000000009920250416010325EL5       EUR000000 00000N$IPER $$$$$      000000N
002220R553958301S5-GANCI AD 15PZ N 1 AGE           1840204010000120220530220  1  NN$$000000000000010000N00000008009999916PZU00010000000000600743131IGANCI AD 15PZ N 1 AGB00000I0074313176076                                             00000000553958301      IF00000010099999999900010I 0000000000000000000000000000000000000 0000000000000000000000U0001000000000000009920250416010325EL5       EUR000000 00000N$IPER $$$$$      000000N
002220R553959501S5-FERMACAMPIONI 80PZ N5 AGE       1840204010000120220530220  1  NN$$000000000000010000N00000008009999916PZU00010000000000600743131IFERMACAMPIONI 80PZ NB00000I0074313176077                                             00000000553959501      IF00000010099999999900010I 0000000000000000000000000000000000000 0000000000000000000000U0001000000000000009920250416010325EL5       EUR000000 00000N$IPER $$$$$      000000N
002220R553959601S2-SPILLI COLORATI100PZ AGE        1840204010000120220530220  1  NN$$000000000000010000N00000008009999916PZU00010000000000600743131ISPILLI COLORATI100PZB00000I0074313176073                                             00000000553959601      IF00000010099999999900010I 0000000000000000000000000000000000000 0000000000000000000000U0001000000000000009920250416010325EL5       EUR000000 00000N$IPER $$$$$      000000N
002220R553959701S2-MOLLE FERMACARTE COL 8P AGE     1840204010000120220530220  1  NN$$000000000000010000N00000008009999916PZU00010000000000600743131IMOLLE FERMACARTE COLB00000I0074313176070                                             00000000553959701      IF00000010099999999900010I 0000000000000000000000000000000000000 0000000000000000000000U0001000000000000009920250416010325EL5       EUR000000 00000N$IPER $$$$$      000000N
002220R553935001S2-BUSTA 11X23 S-F 50P AGE         1840204020000120220530220  1  NN$$000000000000010000N00000008009999916PZU00010000000000600743131IBUSTA 11X23 S-F 50P B00000I0074313112322                                             00000000553935001      IF00000010099999999900010I 0000000000000000000000000000000000000 0000000000000000000000U0001000000000000009920250416010325EL5       EUR000000 00000N$IPER $$$$$      000000N
002220R553935401S2-BUSTA 114X162 50P AGE           1840204020000120220530220  1  NN$$000000000000010000N00000008009999916PZU00010000000000600743131IBUSTA 114X162 50P AGB00000I0074313112320                                             00000000553935401      IF00000010099999999900010I 0000000000000000000000000000000000000 0000000000000000000000U0001000000000000009920250416010325EL5       EUR000000 00000N$IPER $$$$$      000000N
002220R553935501S2-BUSTA 11X23 C-F 25P AGE         1840204020000120220530220  1  NN$$000000000000010000N00000008009999916PZU00010000000000600743131IBUSTA 11X23 C-F 25P B00000I0074313110480                                             00000000553935501      IF00000010099999999900020I 0000000000000000000000000000000000000 0000000000000000000000U0001000000000000009920250416010325EL5       EUR000000 00000N$IPER $$$$$      000000N
002220R553945701S2-BUSTA 22X30 10PZ AGE            1840204020000120220530220  1  NN$$000000000000010000N00000008009999916PZU00010000000000600743131IBUSTA 22X30 10PZ AGEB00000I0074313170210                                             00000000553945701      IF00000010099999999900060I 0000000000000000000000000000000000000 0000000000000000000000U0001000000000000009920250416010325EL5       EUR000000 00000N$IPER $$$$$      000000N
002220R553945901S2-BUSTA COPY 15X21 25PZ AGE       1840204020000120220530220  1  NN$$000000000000010000N00000008009999916PZU00010000000000600743131IBUSTA COPY 15X21 25PB00000I0074313170211                                             00000000553945901      IF00000010099999999900020I 0000000000000000000000000000000000000 0000000000000000000000U0001000000000000009920250416010325EL5       EUR000000 00000N$IPER $$$$$      000000N
002220R058544001S5-BUSTA CARTA 3FG 100X70 ASS.     1840204020022020220318220  1  NN$$000000000000010000N00000008009999916PZU00010000000001600743131IBUSTA CARTA 3FG 100X$99999I0074313128542                                             00000000058544001      IF00000010099999999900030IL0074313101202212019999999900000000110Q0000012022120199999999U0001000000000002399920250416010325EL5       EUR000000 00000S$IPER $$$$$      000000N
002220R553933601S2-MEMO TIP 76X76 100FG AGE        1840204040000120220530220  1  NN$$000000000000010000N00000008009999916PZU00010000000000600743131IMEMO TIP 76X76 100FGB00000I00743131836700                                            00000000553933601      IF00000010099999999900024I 0000000000000000000000000000000000000 0000000000000000000000U0001000000000000009920250416010325EL5       EUR000000 00000N$IPER $$$$$      000000N
002220R553936501S2-CUBO MEMO 76X76 400F AGE        1840204040000120220530220  1  NN$$000000000000010000N00000008009999916PZU00010000000000600743131ICUBO MEMO 76X76 400FB00000I0074313120679                                             00000000553936501      IF00000010099999999900012I 0000000000000000000000000000000000000 0000000000000000000000U0001000000000000009920250416010325EL5       EUR000000 00000N$IPER $$$$$      000000N
002220R553936601S2-CUBO BCO 8,7X8,7 AGE            1840204040000120220530220  1  NN$$000000000000010000N00000008009999916PZU00010000000000600743131ICUBO BCO 8,7X8,7 AGEB00000I0074313112177                                             00000000553936601      IF00000010099999999900006I 0000000000000000000000000000000000000 0000000000000000000000U0001000000000000009920250416010325EL5       EUR000000 00000N$IPER $$$$$      000000N
002220R553937701S2-DIVISORI A4 DA 6 AGE            1840204040000120220530220  1  NN$$000000000000010000N00000008009999916PZU00010000000000600743131IDIVISORI A4 DA 6 AGEB00000I0074313130255                                             00000000553937701      IF00000010099999999900050I 0000000000000000000000000000000000000 0000000000000000000000U0001000000000000009920250416010325EL5       EUR000000 00000N$IPER $$$$$      000000N
002220R553941601S2-MEZZATASCA FIN.10P 140G AGE     1840204040000120220530220  1  NN$$000000000000010000N00000008009999916PZU00010000000000600743131IMEZZATASCA FIN.10P 1B00000I0074313116529                                             00000000553941601      IF00000010099999999900010I 0000000000000000000000000000000000000 0000000000000000000000U0001000000000000009920250416010325EL5       EUR000000 00000N$IPER $$$$$      000000N
002220R553943801S2-CUBO MEMO TIP YELL 76X76 40     1840204040000120220530220  1  NN$$000000000000010000N00000008009999916PZU00010000000000600743131ICUBO MEMO TIP YELL 7B00000I0074313119773                                             00000000553943801      IF00000010099999999900012I 0000000000000000000000000000000000000 0000000000000000000000U0001000000000000009920250416010325EL5       EUR000000 00000N$IPER $$$$$      000000N
002220R553954001S2-LAVAGNA MAGNETICA 28X35 AGE     1840204040000120220530220  1  NN$$000000000000010000N00000008009999916PZU00010000000000600743131ILAVAGNA MAGNETICA 28B00000I0074313122504                                             00000000553954001      IF00000010099999999900012I 0000000000000000000000000000000000000 0000000000000000000000U0001000000000000009920250416010325EL5       EUR000000 00000N$IPER $$$$$      000000N
002220R553933801S2-BUSTA A4 C.BOTT. AGE            1840204050000120220530220  1  NN$$000000000000010000N00000008009999916PZU00010000000000600743131IBUSTA A4 C.BOTT. AGEB00000I0074313130314                                             00000000553933801      IF00000010099999999900100I 0000000000000000000000000000000000000 0000000000000000000000U0001000000000000009920250416010325EL5       EUR000000 00000N$IPER $$$$$      000000N
002220R553936901S2-PORTAD.4/5  PASTEL BOT AGE      1840204050000120220530220  1  NN$$000000000000010000N00000008009999916PZU00010000000000600743131IPORTAD.45  PASTEL   B00000I0074313125028                                             00000000553936901      IF00000010099999999900010I 0000000000000000000000000000000000000 0000000000000000000000U0001000000000000009920250416010325EL5       EUR000000 00000N$IPER $$$$$      000000N
002220R553937201S2-REGISTR.D8 NERO ASS.AGE         1840204050000120220530220  1  NN$$000000000000010000N00000008009999916PZU00010000000000600743131IRACCOGLITORE D.8 ASSB00000I0074313137908                                             00000000553937201      IF00000010099999999900060I 0000000000000000000000000000000000000 0000000000000000000000U0001000000000000009920250416010325EL5       EUR000000 00000N$IPER $$$$$      000000N
002220R553937301S2-REGISTR.D8 NERO ROS.AGE         1840204050000120220530220  1  NN$$000000000000010000N00000008009999916PZU00010000000000600743131IRACCOGLITORE D.8 BLUB00000I0074313137910                                             00000000553937301      IF00000010099999999900060I 0000000000000000000000000000000000000 0000000000000000000000U0001000000000000009920250416010325EL5       EUR000000 00000N$IPER $$$$$      000000N
002220R553937401S2-REGISTR.D8 NERO BLU.AGE         1840204050000120220530220  1  NN$$000000000000010000N00000008009999916PZU00010000000000600743131IRACCOGLITORE D.8 BLUB00000I0074313137909                                             00000000553937401      IF00000010099999999900060I 0000000000000000000000000000000000000 0000000000000000000000U0001000000000000009920250416010325EL5       EUR000000 00000N$IPER $$$$$      000000N
002220R553944701S2-BUSTA A4 C.BOTT. PASTEL AGE     1840204050000120220530220  1  NN$$000000000000010000N00000008009999916PZU00010000000000600743131IBUSTA A4 C.BOTT. PASB00000I0074313157993                                             00000000553944701      IF00000010099999999900050I 0000000000000000000000000000000000000 0000000000000000000000U0001000000000000009920250416010325EL5       EUR000000 00000N$IPER $$$$$      000000N
002220R553945001S2-BUSTA A4 C.BOTT. PERF. AGE      1840204050000120220530220  1  NN$$000000000000010000N00000008009999916PZU00010000000000600743131IBUSTA A4 C.BOTT. PERB00000I0074313130317                                             00000000553945001      IF00000010099999999900050I 0000000000000000000000000000000000000 0000000000000000000000U0001000000000000009920250416010325EL5       EUR000000 00000N$IPER $$$$$      000000N
002220R553953101S2-PORTAD.8  PAST BOTTONE AGE      1840204050000120220530220  1  NN$$000000000000010000N00000008009999916PZU00010000000000600743131IPORTAD.8  PAST BOTT B00000I0074313172450                                             00000000553953101      IF00000010099999999900006I 0000000000000000000000000000000000000 0000000000000000000000U0001000000000000009920250416010325EL5       EUR000000 00000N$IPER $$$$$      000000N
002220R553935801S2-BUSTE F.22X30 50FG AGE          1840204080000120220530220  1  NN$$000000000000010000N00000008009999916PZU00010000000000600743131IBUSTE F.22X30 50FG AB00000I00743131C97350                                            00000000553935801      IF00000010099999999900030I 0000000000000000000000000000000000000 0000000000000000000000U0001000000000000009920250416010325EL5       EUR000000 00000N$IPER $$$$$      000000N
002220R553935901S2-BUSTA 22X30 25F BC 70MY AGE     1840204080000120220530220  1  NN$$000000000000010000N00000008009999916PZU00010000000000600743131IBUSTA 22X30 25F BC 7B00000I0074313130049                                             00000000553935901      IF00000010099999999900020I 0000000000000000000000000000000000000 0000000000000000000000U0001000000000000009920250416010325EL5       EUR000000 00000N$IPER $$$$$      000000N
002220R553946301S2-BUSTA ZIPPER BAG FB8066 AGE     1840204080000120220530220  1  NN$$000000000000010000N00000008009999916PZU00010000000000600743131IBUSTA ZIPPER BAG FB8B00000I0074313161500                                             00000000553946301      IF00000010099999999900018I 0000000000000000000000000000000000000 0000000000000000000000U0001000000000000009920250416010325EL5       EUR000000 00000N$IPER $$$$$      000000N
002220R553941401S2-PORTALIST.10FG PERS.AGE         1840204090000120220530220  1  NN$$000000000000010000N00000008009999916PZU00010000000000600743131IPORTALIST.10FG PERS.B00000I0074313125029                                             00000000553941401      IF00000010099999999900010I 0000000000000000000000000000000000000 0000000000000000000000U0001000000000000009920250416010325EL5       EUR000000 00000N$IPER $$$$$      000000N
002220R553941701S2-PORTAL.30FG AGE                 1840204090000120220530220  1  NN$$000000000000010000N00000008009999916PZU00010000000000600743131IPORTALISTINO 30FG AGB00000I0074313125036                                             00000000553941701      IF00000010099999999900012I 0000000000000000000000000000000000000 0000000000000000000000U0001000000000000009920250416010325EL5       EUR000000 00000N$IPER $$$$$      000000N
002220R553953901S2-PORTALISTINI 50FG PERS.AGE      1840204090000120220530220  1  NN$$000000000000010000N00000008009999916PZU00010000000000600743131IPORTALISTINI 50FG PEB00000I0074313126161                                             00000000553953901      IF00000010099999999900020I 0000000000000000000000000000000000000 0000000000000000000000U0001000000000000009920250416010325EL5       EUR000000 00000N$IPER $$$$$      000000N
002220R553961801S2-PORTABLOCCO CLIP COLOR AGE      1840204090000120220530220  1  NN$$000000000000010000N00000008009999916PZU00010000000000600743131IPORTABLOCCO CLIP COLB00000I0074313173862                                             00000000553961801      IF00000010099999999900010I 0000000000000000000000000000000000000 0000000000000000000000U0001000000000000009920250416010325EL5       EUR000000 00000N$IPER $$$$$      000000N
002220R553935301S2-CUCITR.PINZA10+PUNTI AGE        1840204100000120220530220  1  NN$$000000000000010000N00000008009999916PZU00010000000000600743131ICUCITR.PINZA10+PUNTIB00000I0074313120660                                             00000000553935301      IF00000010099999999900030I 0000000000000000000000000000000000000 0000000000000000000000U0001000000000000009920250416010325EL5       EUR000000 00000N$IPER $$$$$      000000N
002220R553937001S2-CUCITR.VIRG AGE                 1840204100000120220530220  1  NN$$000000000000010000N00000008009999916PZU00010000000000600743131ICUCITR.VIRG AGE     B00000I0074313124882                                             00000000553937001      IF00000010099999999900020I 0000000000000000000000000000000000000 0000000000000000000000U0001000000000000009920250416010325EL5       EUR000000 00000N$IPER $$$$$      000000N
