002198M0687795016190                U20250417160522TROIANI    000000
002198M0687795016778                U20250417160522TROIANI   A000000
002198M0699401012190920             G20250417160523TROIANI    000000
