002198M0663179018033315788488       E20250418081447SPINA      000000
002198M0908200018034116122716       E20250418081447SPINA      000000
002198M0908201018034116122730       E20250418081447SPINA      000000
002198M0663180018058269510046       E20250418081447SPINA      000000
002198M0663180018033315788495       E20250418081447SPINA      000000
002198M0642210018009271054110       E20250418081447SPINA      000000
002198M0667145018016141439410       E20250418081447SPINA      000000
002198M0620785028033315789362       E20250418081447SPINA      000000
002198M0656232018033315789454       E20250418081447SPINA      000000
