002198R0555454018300081959764       E20250418082033SPINA      000000
002198R0555454028300081959771       E20250418082033SPINA      000000
002198R0555454038300081959788       E20250418082033SPINA      000000
002198R0555454048300081959795       E20250418082033SPINA      000000
002198R0555454058300081959801       E20250418082033SPINA      000000
002198R0555454068300081959818       E20250418082033SPINA      000000
002198R0564791018008583069829       E20250418082033SPINA      000000
002198R0564791028008583069836       E20250418082033SPINA      000000
002198R0564791038008583069843       E20250418082033SPINA      000000
002198R0564791048008583069850       E20250418082033SPINA      000000
002198R0564791058008583069867       E20250418082033SPINA      000000
002198R0564791068008583069874       E20250418082033SPINA      000000
