002198M0668046018014966409724       E20250418081534SPINA      000000
002198M0902013018014966421368       E20250418081535SPINA      000000
002198M0014722028001011010349       E20250418081535SPINA      000000
002198M0014722028001011021123       E20250418081535SPINA      000000
