002198M0909007018015244524504       E20250418082113SPINA      000000
002198M0909008018015244526584       E20250418082113SPINA      000000
002198M0909009018015244527406       E20250418082113SPINA      000000
