002198M0035775016100                U20250418154504TROIANI    000000
002198M0699394012190940             G20250418154504TROIANI    000000
002198M0733546016007                U20250418154504TROIANI    000000
002198M0717260018003170075757       E20250418154504TROIANI    000000
002198M0717260018003170091146       E20250418154504TROIANI    000000
002198M0723309018003170091160       E20250418154504TROIANI    000000
002198M0035962016300                U20250418154504TROIANI    000000
002198M0699300012183420             G20250418154504TROIANI    000000
002198M0699300012189780             G20250418154504TROIANI    000000
002198M0729576012895559             G20250418154504TROIANI    000000
002198M0091102016513                U20250418154504TROIANI    000000
002198M0032590012201210             G20250418154504TROIANI    000000
002198M0032590012201240             G20250418154504TROIANI    000000
002198M0032590012202527             G20250418154504TROIANI    000000
002198M0032590012209776             G20250418154504TROIANI    000000
002198M0032590012439670             G20250418154504TROIANI    000000
002198M0032590012723953             G20250418154504TROIANI    000000
002198M0032590012826560             G20250418154504TROIANI    000000
002198M0032590012950458             G20250418154504TROIANI    000000
002198M0719471012704719             G20250418154504TROIANI    000000
002198M0036003016408                U20250418154504TROIANI    000000
002198M0036004016407                U20250418154504TROIANI    000000
002198M0680325016449                U20250418154504TROIANI    000000
002198M0034042012198230             G20250418154504TROIANI    000000
002198M0034039012198250             G20250418154504TROIANI    000000
002198M0034039012327440             G20250418154504TROIANI    000000
002198M0034046012198260             G20250418154504TROIANI    000000
002198M0733508012340349             G20250418154504TROIANI    000000
002198M0085349012108630             G20250418154504TROIANI    000000
002198M0085349012266460             G20250418154504TROIANI    000000
002198M0675021018006473029496       E20250418154504TROIANI    000000
002198M0723123018006473905929       E20250418154504TROIANI    000000
