002198R0542564018003170049055       E20250418081934SPINA      000000
002198R0542564028003170049062       E20250418081934SPINA      000000
002198R0542564038003170049079       E20250418081934SPINA      000000
002198R0542564118003170049086       E20250418081934SPINA      000000
002198R0542564128003170049093       E20250418081934SPINA      000000
002198R0542564138003170049109       E20250418081934SPINA      000000
002198R0542564218003170049116       E20250418081934SPINA      000000
002198R0542564228003170049123       E20250418081934SPINA      000000
002198R0542564238003170049130       E20250418081934SPINA      000000
002198R0542582018003170049239       E20250418081934SPINA      000000
002198R0542582028003170049246       E20250418081934SPINA      000000
002198R0542582118003170049253       E20250418081934SPINA      000000
002198R0542582128003170049260       E20250418081934SPINA      000000
002198R0542582218003170049277       E20250418081934SPINA      000000
002198R0542582228003170049284       E20250418081934SPINA      000000
002198R0543903018003170049352       E20250418081934SPINA      000000
002198R0543903028003170049369       E20250418081934SPINA      000000
002198R0543903118003170049376       E20250418081934SPINA      000000
002198R0543903128003170049383       E20250418081934SPINA      000000
002198R0543903218003170049390       E20250418081934SPINA      000000
002198R0543903228003170049406       E20250418081934SPINA      000000
002198R0542563018003170048966       E20250418081934SPINA      000000
002198R0542563028003170048973       E20250418081934SPINA      000000
002198R0542563038003170048980       E20250418081934SPINA      000000
002198R0542563118003170048997       E20250418081934SPINA      000000
002198R0542563128003170049000       E20250418081934SPINA      000000
002198R0542563138003170049017       E20250418081934SPINA      000000
002198R0542563218003170049024       E20250418081934SPINA      000000
002198R0542563228003170049031       E20250418081934SPINA      000000
002198R0542563238003170049048       E20250418081934SPINA      000000
002198R0542571018003170049147       E20250418081934SPINA      000000
002198R0542571028003170049154       E20250418081934SPINA      000000
002198R0542571038003170049161       E20250418081934SPINA      000000
002198R0542571118003170049178       E20250418081934SPINA      000000
002198R0542571128003170049185       E20250418081934SPINA      000000
002198R0542571138003170049192       E20250418081934SPINA      000000
002198R0542571218003170049208       E20250418081934SPINA      000000
002198R0542571228003170049215       E20250418081934SPINA      000000
002198R0542571238003170049222       E20250418081934SPINA      000000
002198R0543902018003170049291       E20250418081934SPINA      000000
002198R0543902028003170049307       E20250418081934SPINA      000000
002198R0543902118003170049314       E20250418081934SPINA      000000
002198R0543902128003170049321       E20250418081934SPINA      000000
002198R0543902218003170049338       E20250418081934SPINA      000000
002198R0543902228003170049345       E20250418081934SPINA      000000
002198R0542590018003170049475       E20250418081934SPINA      000000
002198R0542590028003170049482       E20250418081934SPINA      000000
002198R0542590118003170049413       E20250418081934SPINA      000000
002198R0542590128003170049420       E20250418081934SPINA      000000
002198R0542590218003170049437       E20250418081934SPINA      000000
002198R0542590228003170049444       E20250418081934SPINA      000000
002198R0542600018003170049550       E20250418081934SPINA      000000
002198R0542600028003170049567       E20250418081934SPINA      000000
002198R0542600118003170049499       E20250418081934SPINA      000000
002198R0542600128003170049505       E20250418081934SPINA      000000
002198R0542600218003170049512       E20250418081934SPINA      000000
002198R0542600228003170049529       E20250418081934SPINA      000000
002198R0542600318003170049536       E20250418081934SPINA      000000
002198R0542600328003170049543       E20250418081934SPINA      000000
002198R0542609018003170049598       E20250418081934SPINA      000000
002198R0542609028003170049604       E20250418081934SPINA      000000
002198R0542609118003170049574       E20250418081934SPINA      000000
002198R0542609128003170049581       E20250418081934SPINA      000000
