002198RT08127009 SE RIFAT.SCONTO 30% 23/4-4 T081270        054256401L0185020201202504232025050400000000145202504232025050400000000349$%03000000000000000000000000000000000 0000000000000000000 000000000000000000000000000000000000000000020250418081934SPINA     EUR000
002198RT08127009 SE RIFAT.SCONTO 30% 23/4-4 T081270        054256402L0185020201202504232025050400000000145202504232025050400000000349$%03000000000000000000000000000000000 0000000000000000000 000000000000000000000000000000000000000000020250418081934SPINA     EUR000
002198RT08127009 SE RIFAT.SCONTO 30% 23/4-4 T081270        054256403L0185020201202504232025050400000000145202504232025050400000000349$%03000000000000000000000000000000000 0000000000000000000 000000000000000000000000000000000000000000020250418081934SPINA     EUR000
002198RT08127009 SE RIFAT.SCONTO 30% 23/4-4 T081270        054256411L0185020201202504232025050400000000145202504232025050400000000349$%03000000000000000000000000000000000 0000000000000000000 000000000000000000000000000000000000000000020250418081934SPINA     EUR000
002198RT08127009 SE RIFAT.SCONTO 30% 23/4-4 T081270        054256412L0185020201202504232025050400000000145202504232025050400000000349$%03000000000000000000000000000000000 0000000000000000000 000000000000000000000000000000000000000000020250418081934SPINA     EUR000
002198RT08127009 SE RIFAT.SCONTO 30% 23/4-4 T081270        054256413L0185020201202504232025050400000000145202504232025050400000000349$%03000000000000000000000000000000000 0000000000000000000 000000000000000000000000000000000000000000020250418081934SPINA     EUR000
002198RT08127009 SE RIFAT.SCONTO 30% 23/4-4 T081270        054256421L0185020201202504232025050400000000145202504232025050400000000349$%03000000000000000000000000000000000 0000000000000000000 000000000000000000000000000000000000000000020250418081934SPINA     EUR000
002198RT08127009 SE RIFAT.SCONTO 30% 23/4-4 T081270        054256422L0185020201202504232025050400000000145202504232025050400000000349$%03000000000000000000000000000000000 0000000000000000000 000000000000000000000000000000000000000000020250418081934SPINA     EUR000
002198RT08127009 SE RIFAT.SCONTO 30% 23/4-4 T081270        054256423L0185020201202504232025050400000000145202504232025050400000000349$%03000000000000000000000000000000000 0000000000000000000 000000000000000000000000000000000000000000020250418081934SPINA     EUR000
002198RT08127009 SE RIFAT.SCONTO 30% 23/4-4 T081270        054258201L0185020201202504232025050400000000167202504232025050400000000399$%03000000000000000000000000000000000 0000000000000000000 000000000000000000000000000000000000000000020250418081934SPINA     EUR000
002198RT08127009 SE RIFAT.SCONTO 30% 23/4-4 T081270        054258202L0185020201202504232025050400000000167202504232025050400000000399$%03000000000000000000000000000000000 0000000000000000000 000000000000000000000000000000000000000000020250418081934SPINA     EUR000
002198RT08127009 SE RIFAT.SCONTO 30% 23/4-4 T081270        054258211L0185020201202504232025050400000000167202504232025050400000000399$%03000000000000000000000000000000000 0000000000000000000 000000000000000000000000000000000000000000020250418081934SPINA     EUR000
002198RT08127009 SE RIFAT.SCONTO 30% 23/4-4 T081270        054258212L0185020201202504232025050400000000167202504232025050400000000399$%03000000000000000000000000000000000 0000000000000000000 000000000000000000000000000000000000000000020250418081934SPINA     EUR000
002198RT08127009 SE RIFAT.SCONTO 30% 23/4-4 T081270        054258221L0185020201202504232025050400000000167202504232025050400000000399$%03000000000000000000000000000000000 0000000000000000000 000000000000000000000000000000000000000000020250418081934SPINA     EUR000
002198RT08127009 SE RIFAT.SCONTO 30% 23/4-4 T081270        054258222L0185020201202504232025050400000000167202504232025050400000000399$%03000000000000000000000000000000000 0000000000000000000 000000000000000000000000000000000000000000020250418081934SPINA     EUR000
002198RT08127009 SE RIFAT.SCONTO 30% 23/4-4 T081270        054390301L0185020201202504232025050400000000145202504232025050400000000345$%03000000000000000000000000000000000 0000000000000000000 000000000000000000000000000000000000000000020250418081934SPINA     EUR000
002198RT08127009 SE RIFAT.SCONTO 30% 23/4-4 T081270        054390302L0185020201202504232025050400000000145202504232025050400000000345$%03000000000000000000000000000000000 0000000000000000000 000000000000000000000000000000000000000000020250418081934SPINA     EUR000
002198RT08127009 SE RIFAT.SCONTO 30% 23/4-4 T081270        054390311L0185020201202504232025050400000000145202504232025050400000000345$%03000000000000000000000000000000000 0000000000000000000 000000000000000000000000000000000000000000020250418081934SPINA     EUR000
002198RT08127009 SE RIFAT.SCONTO 30% 23/4-4 T081270        054390312L0185020201202504232025050400000000145202504232025050400000000345$%03000000000000000000000000000000000 0000000000000000000 000000000000000000000000000000000000000000020250418081934SPINA     EUR000
002198RT08127009 SE RIFAT.SCONTO 30% 23/4-4 T081270        054390321L0185020201202504232025050400000000145202504232025050400000000345$%03000000000000000000000000000000000 0000000000000000000 000000000000000000000000000000000000000000020250418081934SPINA     EUR000
002198RT08127009 SE RIFAT.SCONTO 30% 23/4-4 T081270        054390322L0185020201202504232025050400000000145202504232025050400000000345$%03000000000000000000000000000000000 0000000000000000000 000000000000000000000000000000000000000000020250418081934SPINA     EUR000
002198RT08127009 SE RIFAT.SCONTO 30% 23/4-4 T081270        054256301L0185020201202504232025050400000000185202504232025050400000000399$%03000000000000000000000000000000000 0000000000000000000 000000000000000000000000000000000000000000020250418081934SPINA     EUR000
002198RT08127009 SE RIFAT.SCONTO 30% 23/4-4 T081270        054256302L0185020201202504232025050400000000185202504232025050400000000399$%03000000000000000000000000000000000 0000000000000000000 000000000000000000000000000000000000000000020250418081934SPINA     EUR000
002198RT08127009 SE RIFAT.SCONTO 30% 23/4-4 T081270        054256303L0185020201202504232025050400000000185202504232025050400000000399$%03000000000000000000000000000000000 0000000000000000000 000000000000000000000000000000000000000000020250418081934SPINA     EUR000
002198RT08127009 SE RIFAT.SCONTO 30% 23/4-4 T081270        054256311L0185020201202504232025050400000000185202504232025050400000000399$%03000000000000000000000000000000000 0000000000000000000 000000000000000000000000000000000000000000020250418081934SPINA     EUR000
002198RT08127009 SE RIFAT.SCONTO 30% 23/4-4 T081270        054256312L0185020201202504232025050400000000185202504232025050400000000399$%03000000000000000000000000000000000 0000000000000000000 000000000000000000000000000000000000000000020250418081934SPINA     EUR000
002198RT08127009 SE RIFAT.SCONTO 30% 23/4-4 T081270        054256313L0185020201202504232025050400000000185202504232025050400000000399$%03000000000000000000000000000000000 0000000000000000000 000000000000000000000000000000000000000000020250418081934SPINA     EUR000
002198RT08127009 SE RIFAT.SCONTO 30% 23/4-4 T081270        054256321L0185020201202504232025050400000000185202504232025050400000000399$%03000000000000000000000000000000000 0000000000000000000 000000000000000000000000000000000000000000020250418081934SPINA     EUR000
002198RT08127009 SE RIFAT.SCONTO 30% 23/4-4 T081270        054256322L0185020201202504232025050400000000185202504232025050400000000399$%03000000000000000000000000000000000 0000000000000000000 000000000000000000000000000000000000000000020250418081934SPINA     EUR000
002198RT08127009 SE RIFAT.SCONTO 30% 23/4-4 T081270        054256323L0185020201202504232025050400000000185202504232025050400000000399$%03000000000000000000000000000000000 0000000000000000000 000000000000000000000000000000000000000000020250418081934SPINA     EUR000
002198RT08127009 SE RIFAT.SCONTO 30% 23/4-4 T081270        054257101L0185020201202504232025050400000000185202504232025050400000000399$%03000000000000000000000000000000000 0000000000000000000 000000000000000000000000000000000000000000020250418081934SPINA     EUR000
002198RT08127009 SE RIFAT.SCONTO 30% 23/4-4 T081270        054257102L0185020201202504232025050400000000185202504232025050400000000399$%03000000000000000000000000000000000 0000000000000000000 000000000000000000000000000000000000000000020250418081934SPINA     EUR000
002198RT08127009 SE RIFAT.SCONTO 30% 23/4-4 T081270        054257103L0185020201202504232025050400000000185202504232025050400000000399$%03000000000000000000000000000000000 0000000000000000000 000000000000000000000000000000000000000000020250418081934SPINA     EUR000
002198RT08127009 SE RIFAT.SCONTO 30% 23/4-4 T081270        054257111L0185020201202504232025050400000000185202504232025050400000000399$%03000000000000000000000000000000000 0000000000000000000 000000000000000000000000000000000000000000020250418081934SPINA     EUR000
002198RT08127009 SE RIFAT.SCONTO 30% 23/4-4 T081270        054257112L0185020201202504232025050400000000185202504232025050400000000399$%03000000000000000000000000000000000 0000000000000000000 000000000000000000000000000000000000000000020250418081934SPINA     EUR000
002198RT08127009 SE RIFAT.SCONTO 30% 23/4-4 T081270        054257113L0185020201202504232025050400000000185202504232025050400000000399$%03000000000000000000000000000000000 0000000000000000000 000000000000000000000000000000000000000000020250418081934SPINA     EUR000
002198RT08127009 SE RIFAT.SCONTO 30% 23/4-4 T081270        054257121L0185020201202504232025050400000000185202504232025050400000000399$%03000000000000000000000000000000000 0000000000000000000 000000000000000000000000000000000000000000020250418081934SPINA     EUR000
002198RT08127009 SE RIFAT.SCONTO 30% 23/4-4 T081270        054257122L0185020201202504232025050400000000185202504232025050400000000399$%03000000000000000000000000000000000 0000000000000000000 000000000000000000000000000000000000000000020250418081934SPINA     EUR000
002198RT08127009 SE RIFAT.SCONTO 30% 23/4-4 T081270        054257123L0185020201202504232025050400000000185202504232025050400000000399$%03000000000000000000000000000000000 0000000000000000000 000000000000000000000000000000000000000000020250418081934SPINA     EUR000
002198RT08127009 SE RIFAT.SCONTO 30% 23/4-4 T081270        054390201L0185020201202504232025050400000000170202504232025050400000000399$%03000000000000000000000000000000000 0000000000000000000 000000000000000000000000000000000000000000020250418081934SPINA     EUR000
002198RT08127009 SE RIFAT.SCONTO 30% 23/4-4 T081270        054390202L0185020201202504232025050400000000170202504232025050400000000399$%03000000000000000000000000000000000 0000000000000000000 000000000000000000000000000000000000000000020250418081934SPINA     EUR000
002198RT08127009 SE RIFAT.SCONTO 30% 23/4-4 T081270        054390211L0185020201202504232025050400000000170202504232025050400000000399$%03000000000000000000000000000000000 0000000000000000000 000000000000000000000000000000000000000000020250418081934SPINA     EUR000
002198RT08127009 SE RIFAT.SCONTO 30% 23/4-4 T081270        054390212L0185020201202504232025050400000000170202504232025050400000000399$%03000000000000000000000000000000000 0000000000000000000 000000000000000000000000000000000000000000020250418081934SPINA     EUR000
002198RT08127009 SE RIFAT.SCONTO 30% 23/4-4 T081270        054390221L0185020201202504232025050400000000170202504232025050400000000399$%03000000000000000000000000000000000 0000000000000000000 000000000000000000000000000000000000000000020250418081934SPINA     EUR000
002198RT08127009 SE RIFAT.SCONTO 30% 23/4-4 T081270        054390222L0185020201202504232025050400000000170202504232025050400000000399$%03000000000000000000000000000000000 0000000000000000000 000000000000000000000000000000000000000000020250418081934SPINA     EUR000
002198RT08127009 SE RIFAT.SCONTO 30% 23/4-4 T081270        054259001L0185020201202504232025050400000000196202504232025050400000000499$%03000000000000000000000000000000000 0000000000000000000 000000000000000000000000000000000000000000020250418081934SPINA     EUR000
002198RT08127009 SE RIFAT.SCONTO 30% 23/4-4 T081270        054259002L0185020201202504232025050400000000196202504232025050400000000499$%03000000000000000000000000000000000 0000000000000000000 000000000000000000000000000000000000000000020250418081934SPINA     EUR000
002198RT08127009 SE RIFAT.SCONTO 30% 23/4-4 T081270        054259011L0185020201202504232025050400000000196202504232025050400000000499$%03000000000000000000000000000000000 0000000000000000000 000000000000000000000000000000000000000000020250418081934SPINA     EUR000
002198RT08127009 SE RIFAT.SCONTO 30% 23/4-4 T081270        054259012L0185020201202504232025050400000000196202504232025050400000000499$%03000000000000000000000000000000000 0000000000000000000 000000000000000000000000000000000000000000020250418081934SPINA     EUR000
002198RT08127009 SE RIFAT.SCONTO 30% 23/4-4 T081270        054259021L0185020201202504232025050400000000196202504232025050400000000499$%03000000000000000000000000000000000 0000000000000000000 000000000000000000000000000000000000000000020250418081934SPINA     EUR000
002198RT08127009 SE RIFAT.SCONTO 30% 23/4-4 T081270        054259022L0185020201202504232025050400000000196202504232025050400000000499$%03000000000000000000000000000000000 0000000000000000000 000000000000000000000000000000000000000000020250418081934SPINA     EUR000
002198RT08127009 SE RIFAT.SCONTO 30% 23/4-4 T081270        054260001L0185020201202504232025050400000000205202504232025050400000000499$%03000000000000000000000000000000000 0000000000000000000 000000000000000000000000000000000000000000020250418081934SPINA     EUR000
002198RT08127009 SE RIFAT.SCONTO 30% 23/4-4 T081270        054260002L0185020201202504232025050400000000205202504232025050400000000499$%03000000000000000000000000000000000 0000000000000000000 000000000000000000000000000000000000000000020250418081934SPINA     EUR000
002198RT08127009 SE RIFAT.SCONTO 30% 23/4-4 T081270        054260011L0185020201202504232025050400000000205202504232025050400000000499$%03000000000000000000000000000000000 0000000000000000000 000000000000000000000000000000000000000000020250418081934SPINA     EUR000
002198RT08127009 SE RIFAT.SCONTO 30% 23/4-4 T081270        054260012L0185020201202504232025050400000000205202504232025050400000000499$%03000000000000000000000000000000000 0000000000000000000 000000000000000000000000000000000000000000020250418081934SPINA     EUR000
002198RT08127009 SE RIFAT.SCONTO 30% 23/4-4 T081270        054260021L0185020201202504232025050400000000205202504232025050400000000499$%03000000000000000000000000000000000 0000000000000000000 000000000000000000000000000000000000000000020250418081934SPINA     EUR000
002198RT08127009 SE RIFAT.SCONTO 30% 23/4-4 T081270        054260022L0185020201202504232025050400000000205202504232025050400000000499$%03000000000000000000000000000000000 0000000000000000000 000000000000000000000000000000000000000000020250418081934SPINA     EUR000
002198RT08127009 SE RIFAT.SCONTO 30% 23/4-4 T081270        054260031L0185020201202504232025050400000000205202504232025050400000000499$%03000000000000000000000000000000000 0000000000000000000 000000000000000000000000000000000000000000020250418081934SPINA     EUR000
002198RT08127009 SE RIFAT.SCONTO 30% 23/4-4 T081270        054260032L0185020201202504232025050400000000205202504232025050400000000499$%03000000000000000000000000000000000 0000000000000000000 000000000000000000000000000000000000000000020250418081934SPINA     EUR000
002198RT08127009 SE RIFAT.SCONTO 30% 23/4-4 T081270        054260901L0185020201202504232025050400000000275202504232025050400000000599$%03000000000000000000000000000000000 0000000000000000000 000000000000000000000000000000000000000000020250418081934SPINA     EUR000
002198RT08127009 SE RIFAT.SCONTO 30% 23/4-4 T081270        054260902L0185020201202504232025050400000000275202504232025050400000000599$%03000000000000000000000000000000000 0000000000000000000 000000000000000000000000000000000000000000020250418081934SPINA     EUR000
002198RT08127009 SE RIFAT.SCONTO 30% 23/4-4 T081270        054260911L0185020201202504232025050400000000275202504232025050400000000599$%03000000000000000000000000000000000 0000000000000000000 000000000000000000000000000000000000000000020250418081934SPINA     EUR000
002198RT08127009 SE RIFAT.SCONTO 30% 23/4-4 T081270        054260912L0185020201202504232025050400000000275202504232025050400000000599$%03000000000000000000000000000000000 0000000000000000000 000000000000000000000000000000000000000000020250418081934SPINA     EUR000
