002198MT08087109 SE FRESC.CONV.23/4-4/5     T080871        090160201L0000000101202504232025050400000000493202504232025050400000000790$T00000000000000000000000000000000000 0000000000000000000 000000000000000000000000000000000000000000020250418081344SPINA     EUR000
002198MT08087109 SE FRESC.CONV.23/4-4/5     T080871        090936001L0000000101202504232025050400000000610202504232025050400000000990$T00000000000000000000000000000000000 0000000000000000000 000000000000000000000000000000000000000000020250418081344SPINA     EUR000
002198MT08087109 SE FRESC.CONV.23/4-4/5     T080871        066956399L0000000101202504232025050400000033600202504232025050400000052050$T00000000000000000000000000000000000 0000000000000000000 000000000000000000000000000000000000000000020250418081344SPINA     EUR000
002198MT08087109 SE FRESC.CONV.23/4-4/5     T080871        090936101L0000000101202504232025050400000000610202504232025050400000000990$T00000000000000000000000000000000000 0000000000000000000 000000000000000000000000000000000000000000020250418081344SPINA     EUR000
002198MT08087109 SE FRESC.CONV.23/4-4/5     T080871        066590601L0000000101202504232025050400000000752202504232025050400000001090$T00000000000000000000000000000000000 0000000000000000000 000000000000000000000000000000000000000000020250418081344SPINA     EUR000
002198MT08087109 SE FRESC.CONV.23/4-4/5     T080871        066956302L0000000101202504232025050400000000550202504232025050400000000790$T00000000000000000000000000000000000 0000000000000000000 000000000000000000000000000000000000000000020250418081344SPINA     EUR000
002198MT08087109 SE FRESC.CONV.23/4-4/5     T080871        066956303L0000000101202504232025050400000000390202504232025050400000000590$T00000000000000000000000000000000000 0000000000000000000 000000000000000000000000000000000000000000020250418081344SPINA     EUR000
002198MT08087109 SE FRESC.CONV.23/4-4/5     T080871        066956304L0000000101202504232025050400000000390202504232025050400000000590$T00000000000000000000000000000000000 0000000000000000000 000000000000000000000000000000000000000000020250418081344SPINA     EUR000
002198MT08087109 SE FRESC.CONV.23/4-4/5     T080871        066956301L0000000101202504232025050400000000480202504232025050400000000790$T00000000000000000000000000000000000 0000000000000000000 000000000000000000000000000000000000000000020250418081344SPINA     EUR000
002198MT08087109 SE FRESC.CONV.23/4-4/5     T080871        090835601L0000000101202504232025050400000000600202504232025050400000000990$T00000000000000000000000000000000000 0000000000000000000 000000000000000000000000000000000000000000020250418081344SPINA     EUR000
002198MT08087109 SE FRESC.CONV.23/4-4/5     T080871        090835602L0000000101202504232025050400000000640202504232025050400000000990$T00000000000000000000000000000000000 0000000000000000000 000000000000000000000000000000000000000000020250418081344SPINA     EUR000
002198MT08087109 SE FRESC.CONV.23/4-4/5     T080871        090835699L0000000101202504232025050400000022320202504232025050400000035640$T00000000000000000000000000000000000 0000000000000000000 000000000000000000000000000000000000000000020250418081344SPINA     EUR000
002198MT08087109 SE FRESC.CONV.23/4-4/5     T080871        090936301L0000000101202504232025050400000000337202504232025050400000000499$T00000000000000000000000000000000000 0000000000000000000 000000000000000000000000000000000000000000020250418081344SPINA     EUR000
002198MT08087109 SE FRESC.CONV.23/4-4/5     T080871        090936401L0000000101202504232025050400000000337202504232025050400000000499$T00000000000000000000000000000000000 0000000000000000000 000000000000000000000000000000000000000000020250418081344SPINA     EUR000
002198MT08087109 SE FRESC.CONV.23/4-4/5     T080871        090939801L0000000101202504232025050400000011900202504232025050400000014900$T00000000000000000000000000000000000 0000000000000000000 000000000000000000000000000000000000000000020250418081344SPINA     EUR000
002198MT08087109 SE FRESC.CONV.23/4-4/5     T080871        090939701L0000000101202504232025050400000019100202504232025050400000024900$T00000000000000000000000000000000000 0000000000000000000 000000000000000000000000000000000000000000020250418081344SPINA     EUR000
002198MT08087109 SE FRESC.CONV.23/4-4/5     T080871        065315501L0000000101202504232025050400000001460202504232025050400000001990$T00000000000000000000000000000000000 0000000000000000000 000000000000000000000000000000000000000000020250418081344SPINA     EUR000
