002198RT08087409 SE RIFAT.FRES.CONV.23/4-4/5T080874        055545401L0038610101202504232025050400000000215202504232025050400000000350$T00000000000000000000000000000000000 0000000000000000000 000000000000000000000000000000000000000000020250418082033SPINA     EUR000
002198RT08087409 SE RIFAT.FRES.CONV.23/4-4/5T080874        055545402L0038610101202504232025050400000000215202504232025050400000000350$T00000000000000000000000000000000000 0000000000000000000 000000000000000000000000000000000000000000020250418082033SPINA     EUR000
002198RT08087409 SE RIFAT.FRES.CONV.23/4-4/5T080874        055545403L0038610101202504232025050400000000215202504232025050400000000350$T00000000000000000000000000000000000 0000000000000000000 000000000000000000000000000000000000000000020250418082033SPINA     EUR000
002198RT08087409 SE RIFAT.FRES.CONV.23/4-4/5T080874        055545404L0038610101202504232025050400000000215202504232025050400000000350$T00000000000000000000000000000000000 0000000000000000000 000000000000000000000000000000000000000000020250418082033SPINA     EUR000
002198RT08087409 SE RIFAT.FRES.CONV.23/4-4/5T080874        055545405L0038610101202504232025050400000000215202504232025050400000000350$T00000000000000000000000000000000000 0000000000000000000 000000000000000000000000000000000000000000020250418082033SPINA     EUR000
002198RT08087409 SE RIFAT.FRES.CONV.23/4-4/5T080874        055545406L0038610101202504232025050400000000215202504232025050400000000350$T00000000000000000000000000000000000 0000000000000000000 000000000000000000000000000000000000000000020250418082033SPINA     EUR000
002198RT08087409 SE RIFAT.FRES.CONV.23/4-4/5T080874        056479101L0038610101202504232025050400000000205202504232025050400000000350$T00000000000000000000000000000000000 0000000000000000000 000000000000000000000000000000000000000000020250418082033SPINA     EUR000
002198RT08087409 SE RIFAT.FRES.CONV.23/4-4/5T080874        056479102L0038610101202504232025050400000000205202504232025050400000000350$T00000000000000000000000000000000000 0000000000000000000 000000000000000000000000000000000000000000020250418082033SPINA     EUR000
002198RT08087409 SE RIFAT.FRES.CONV.23/4-4/5T080874        056479103L0038610101202504232025050400000000205202504232025050400000000350$T00000000000000000000000000000000000 0000000000000000000 000000000000000000000000000000000000000000020250418082033SPINA     EUR000
002198RT08087409 SE RIFAT.FRES.CONV.23/4-4/5T080874        056479104L0038610101202504232025050400000000205202504232025050400000000350$T00000000000000000000000000000000000 0000000000000000000 000000000000000000000000000000000000000000020250418082033SPINA     EUR000
002198RT08087409 SE RIFAT.FRES.CONV.23/4-4/5T080874        056479105L0038610101202504232025050400000000205202504232025050400000000350$T00000000000000000000000000000000000 0000000000000000000 000000000000000000000000000000000000000000020250418082033SPINA     EUR000
002198RT08087409 SE RIFAT.FRES.CONV.23/4-4/5T080874        056479106L0038610101202504232025050400000000205202504232025050400000000350$T00000000000000000000000000000000000 0000000000000000000 000000000000000000000000000000000000000000020250418082033SPINA     EUR000
