002198M070693101ALICI ESTERE                       1310101040041120191014100  1  NNKG000010000000000000S00000007009999932KGU00010000000000800000000IALICI ESTERI        $00000I00000000070693101      ALICI ESTERE                       00000000070693101        00000010099999999900001IL0000000101201910149999999900000000690E0004002019101499999999U0001000000000011909120250417210033EL5       EUR000000P00026S$ALL  $$$$$      000000N
002198M003234301ORATE SELVAGGE                     1310101040053420020826100  1  NNKG000010000000000000S00000007009999932KGU00010000000000800000000IORATE SELVAGGE      $00000I00000000003234301      ORATE SELVAGGE                     00000000003234301        00000010099999999900001IL0000000101202412199999999900000002890E0004002024121999999999U0001000000000044909120250417210033EL5       EUR000000P00026S$ALL  $$$$$      000000N
002198M070470601ORATE SELVAGGE                     1310101040053420190214100  1  NNKG000010000000000000S00000007009999932KGU00010000000000800000000IORATE SELVAGGE      $00000I00000000070470601      ORATE SELVAGGE                     00000000070470601        00000010099999999900001IL0000000101202412199999999900000002690E0004002024121999999999U0001000000000042909120250417210033EL5       EUR000000P00026S$ALL  $$$$$      000000N
002198M003246201PAGELLO I°                         1310101040068520020827100  1  NNKG000010000000000000S00000007009999932KGU00010000000000800000000IPAGELLO I°          $00000I00000000003246201      PAGELLO I°                         00000000003246201        00000010099999999900001IL0000000101202412199999999900000001990E0004002024121999999999U0001000000000032909120250417210033EL5       EUR000000P00026S$ALL  $$$$$      000000N
002198M009503301OCCHI VERDI(OCCHIALONE)            1310101040071320040518100  1  NNKG000010000000000000S00000007009999932KGU00010000000000800000000IOCCHI VERDI(OCCHIALO$00000I00000000009503301      OCCHI VERDI(OCCHIALONE)            00000000009503301        00000010099999999900001IL0000000101202202239999999900000000990E0004002022022399999999U0001000000000015909120250417210033EL5       EUR000000P00026N$ALL  $$$$$      000000N
002198M073643301BUSBANA KG 3                       1310101040075120250220100  1  NNKG000010000000000000S00000007009999932KGU00010000000000800000000IBUSBANA KG 3        $00000I00000000073643301      BUSBANA KG 3                       00000000073643301        00000010099999999900001IL0000000101202502209999999900000001398E0004002025022099999999U0001000000000021999120250417210034EL5       EUR000000P00026N$ALL  $$$$$      000000N
002198M003245701FRITTURA TIRRENO                   1310101040085620020827100  1  NN$$000000000000000000S00000007009999932KGU00010000000000800000000IFRITTURA TIRRENO    $00000I00000000003245701      FRITTURA TIRRENO                   00000000003245701        00000010099999999900001IL0000000101202202239999999900000001690E0004002022022399999999U0001000000000026909120250417210033EL5       EUR000000P00026S$ALL  $$$$$      000000N
002198M068515801ZANCHETTA ATLANTICA                1310101040088020120615100  1  NNKG000010000000000000S00000007009999932KGU00010000000000800000000IZANCHETTA ATLANTICA $00000I00000000068515801      ZANCHETTA ATLANTICA                00000000068515801        00000010099999999900001IL0000000101202202239999999900000001290E0004002022022399999999U0001000000000021909120250417210033EL5       EUR000000P00026S$ALL  $$$$$      000000N
002198M003246001SAN PIETRO                         1310101100068020020827100  1  NNKG000010000000000000S00000007009999932KGU00010000000000800000000ISAN PIETRO          $00000I00000000003246001      SAN PIETRO                         00000000003246001        00000010099999999900001IL0000000101202404029999999900000003890E0004002024040299999999U0001000000000055909120250417210033EL5       EUR000000P00026S$ALL  $$$$$      000000N
002198M070244501SAN PIETRO                         1310101100068020180522100  1  NNKG000010000000000000S00000007009999932KGU00010000000000800000000ISAN PIETRO          $00000I00000000070244501      SAN PIETRO                         00000000070244501        00000010099999999900001IL0000000101202503319999999900000002590E0004002025033199999999U0001000000000039909120250417210033EL5       EUR000000P00026S$ALL  $$$$$      000000N
002198M069032701CALAMARI ESTERI                    1310101130011920140516100  1  NNKG000010000000000000S00000007009999932KGU00010000000000800000000ICALAMARI ESTERI     $00000I00000000069032701      CALAMARI ESTERI                    00000000069032701        00000010099999999900001IL0000000101202412169999999900000001890E0004002024121699999999U0001000000000031989120250417210033EL5       EUR000000P00026S$ALL  $$$$$      000000N
002198M003217001SEPPIA NERA NAZIONALE              1310101130012520020822100  1  NNKG000010000000000000S00000007009999932KGU00010000000000800000000ISEPPIA NERA NAZIONAL$00000I00000000003217001      SEPPIA NERA NAZIONALE              00000000003217001        00000010099999999900001IL0000000101202401159999999900000001890E0004002024011599999999U0001000000000031989120250417210033EL5       EUR000000P00026S$ALL  $$$$$      000000N
002198M003241601CAPESANTE MEZZO GUSCIO             1310101160003020020827100  1  NNKG000010000000000000S00000007009999932KGU00010000000000800000000ICAPESANTE MEZZO GUSC$00000I00000000003241601      CAPESANTE MEZZO GUSCIO             00000000003241601        00000010099999999900001IL0000000101202308019999999900000001098E0004002023080199999999U0001000000000018909120250417210033EL5       EUR000000P00037S$ALL  $$$$$      000000N
002198M003360801SCAMPI NAZIONALI I                 1310101190005820020930100  1  NNKG000010000000000000S00000007009999932KGU00010000000000800000000ISCAMPI NAZIONALI I° $00000I00000000003360801      SCAMPI NAZIONALI I                 00000000003360801        00000010099999999900001IL0000000101201605309999999900000007298E0004002016053099999999U0001000000000130909120250417210033EL5       EUR000000P00026S$ALL  $$$$$      000000N
002198M003360901SCAMPI NAZIONALI II°               1310101190005920020930100  1  NNKG000010000000000000S00000007009999932KGU00010000000000800000000ISCAMPI NAZIONALI II°$00000I00000000003360901      SCAMPI NAZIONALI II°               00000000003360901        00000010099999999900001IL0000000101201512229999999900000004590E0004002015122299999999U0001000000000089909120250417210033EL5       EUR000000P00026S$ALL  $$$$$      000000N
002198M073246701GAMBERI ROSA I° TIRRENO            1310101190008020240322100  1  NNKG000010000000000000S00000007009999932KGU00010000000000800000000IGAMBERI ROSA I° TIRR$00000I00000000073246701      GAMBERI ROSA I° TIRRENO            00000000073246701        00000010099999999900001IL0000000101202412229999999900000001590E0004002024122299999999U0001000000000027989120250417210034EL5       EUR000000P00026S$ALL  $$$$$      000000N
002198M069010401GOBETTO                            1310101190008420140403100  1  NNKG000010000000000000S00000007009999932KGU00010000000000800000000IGOBETTO             $00000I00000000069010401      GOBETTO                            00000000069010401        00000010099999999900001IL0000000101201709069999999900000003598E0004002017090699999999U0001000000000059989120250417210033EL5       EUR000000P00026S$ALL  $$$$$      000000N
002198M008851901TOMBARELLO O BISO                  1310101250062520030616100  1  NNKG000010000000000000S00000007009999932KGU00010000000000800000000ITOMBARELLO O BISO   $00000I00000000008851901      TOMBARELLO O BISO                  00000000008851901        00000010099999999900001IL0000000101202206229999999900000000598E0004002022062299999999U0001000000000009909120250417210033EL5       EUR000000P00026S$ALL  $$$$$      000000N
002198M073718801FILETTO DI SALMONE                 1310703040006020250416100  1  NNKG000002500000000000S00000007009999908KGU00010000000000800000000IFILETTO DI SALMONE  $00000I00000000073718801      FILETTO DI SALMONE                 00000000073718801        00000010099999999900006IL0000000101202504179999999900000002490E0004002025041799999999U0001000000000034909120250417210034EL5       EUR000000P00060N$ALL  $$$$$      000000N
