002198M066804601S3-SPADA BOLLE SAPONE 45CM GLB     1840314010049920230103220  1  NN$$000000000000010000N00000008009999906PZU00010000000000600000000OSPADA BOLLE SAPONE 4B99999O00000000066804601      S3-SPADA BOLLE SAPONE 45CM GLB     00000000066804601      IC00000010099999999900012OL0000000101202503019999999900000000240E0000012025030199999999U0001000000000004998020250418081534SPINA     EUR000000 00000N      $$$$$      000000
002198M090201301S4-SEDIA IN METALLO GLB            1840314010109020230802220  1  NN$$000000000000010000N00000008009999906PZU00010000000000600000000OSEDIA IN METALLO GLBB99999O00000000090201301      S4-SEDIA IN METALLO GLB            00000000090201301      IC00000010099999999900016OL0000000101202503019999999900000000650E0000012025030199999999U0001000000000010908020250418081535SPINA     EUR000000 00000N      $$$$$      000000
002198M001472202PALLONE SUPER SANTOS GR.280-MON    1840314030049920131120220  1  NN$$000000000000010000N00000008009999906PZU00010000000001600000000IPALL.S.SANTOS BIO MO$99999I00000000001472202      PALLONE SUPER SANTOS GR.280-MON    00000000001472202      IC00000010099999999900012IL0000000101202503019999999900000000295E0000012025030199999999U0001000000000004998020250418081535SPINA     EUR000000 00000S      $$$$$      000000
