002198R055545401S4-SALVAPIEDE COT 2P GL 098A BCO 351830302120000120180306220  1  NN$$000000000000010000N00000008009999916PZU00010000000001600386101ISALVAPIEDE COT 2P GL$99999I00386101           6NGD                                   00000000055545401      IF00000010099999999900001IL0038610101202504072025050400000000215Q0000012023020199999999U0001000000000004099920250418082033SPINA     EUR000000 00000N      $$$$$      000000
002198R055545402S4-SALVAPIEDE COT 2P GL 098A BCO 391830302120000120180306220  1  NN$$000000000000010000N00000008009999916PZU00010000000001600386101ISALVAPIEDE COT 2P GL$99999I00386101           6NGD                                   00000000055545402      IF00000010099999999900005IL0038610101202504072025050400000000215Q0000012023020199999999U0001000000000004099920250418082033SPINA     EUR000000 00000N      $$$$$      000000
002198R055545403S4-SALVAPIEDE COT 2P GL 099A NERO 31830302120000120180306220  1  NN$$000000000000010000N00000008009999916PZU00010000000001600386101ISALVAPIEDE COT 2P GL$99999I00386101           6NGD                                   00000000055545403      IF00000010099999999900001IL0038610101202504072025050400000000215Q0000012023020199999999U0001000000000004099920250418082033SPINA     EUR000000 00000N      $$$$$      000000
002198R055545404S4-SALVAPIEDE COT 2P GL 099A NERO 31830302120000120180306220  1  NN$$000000000000010000N00000008009999916PZU00010000000001600386101ISALVAPIEDE COT 2P GL$99999I00386101           6NGD                                   00000000055545404      IF00000010099999999900005IL0038610101202504072025050400000000215Q0000012023020199999999U0001000000000004099920250418082033SPINA     EUR000000 00000N      $$$$$      000000
002198R055545405S4-SALVAPIEDE COT 2P GL C01A NAT.351830302120000120180306220  1  NN$$000000000000010000N00000008009999916PZU00010000000001600386101ISALVAPIEDE COT 2P GL$99999I00386101           6NGD                                   00000000055545405      IF00000010099999999900005IL0038610101202504072025050400000000215Q0000012023020199999999U0001000000000004099920250418082033SPINA     EUR000000 00000N      $$$$$      000000
002198R055545406S4-SALVAPIEDE COT 2P GL C01A NAT.391830302120000120180306220  1  NN$$000000000000010000N00000008009999916PZU00010000000001600386101ISALVAPIEDE COT 2P GL$99999I00386101           6NGD                                   00000000055545406      IF00000010099999999900005IL0038610101202504072025050400000000215Q0000012023020199999999U0001000000000004099920250418082033SPINA     EUR000000 00000N      $$$$$      000000
002198R056479101A4-MINICALZ. UNISEX 2P GL BIANCO S/1830307100010020200218220  1  NN$$000000000000010000N00000008009999916PZU00010000000000600386101IMINICALZ. UNISEX 2P $99999I0038610134UBP                                             00000000056479101      IF00000010099999999900003IL0038610101202504072025050400000000205Q0000012020021899999999U0001000000000003999920250418082033SPINA     EUR000000 00000S      $$$$$      000000
002198R056479102A4-MINICALZ. UNISEX 2P GL BIANCO M/1830307100010020200218220  1  NN$$000000000000010000N00000008009999916PZU00010000000000600386101IMINICALZ. UNISEX 2P $99999I0038610134UBP                                             00000000056479102      IF00000010099999999900003IL0038610101202504072025050400000000205Q0000012020021899999999U0001000000000003999920250418082033SPINA     EUR000000 00000S      $$$$$      000000
002198R056479103A4-MINICALZ. UNISEX 2P GL NERO S/M 1830307100010020200218220  1  NN$$000000000000010000N00000008009999916PZU00010000000000600386101IMINICALZ. UNISEX 2P $99999I0038610134UBP                                             00000000056479103      IF00000010099999999900003IL0038610101202504072025050400000000205Q0000012020021899999999U0001000000000003999920250418082033SPINA     EUR000000 00000S      $$$$$      000000
002198R056479104A4-MINICALZ. UNISEX 2P GL NERO M/L 1830307100010020200218220  1  NN$$000000000000010000N00000008009999916PZU00010000000000600386101IMINICALZ. UNISEX 2P $99999I0038610134UBP                                             00000000056479104      IF00000010099999999900003IL0038610101202504072025050400000000205Q0000012020021899999999U0001000000000003999920250418082033SPINA     EUR000000 00000S      $$$$$      000000
002198R056479105A4-MINICALZ. UNISEX 2P GL GRIGIO ME1830307100010020200218220  1  NN$$000000000000010000N00000008009999916PZU00010000000000600386101IMINICALZ. UNISEX 2P $99999I0038610134UBP                                             00000000056479105      IF00000010099999999900003IL0038610101202504072025050400000000205Q0000012020021899999999U0001000000000003999920250418082033SPINA     EUR000000 00000S      $$$$$      000000
002198R056479106A4-MINICALZ. UNISEX 2P GL GRIGIO ME1830307100010020200218220  1  NN$$000000000000010000N00000008009999916PZU00010000000000600386101IMINICALZ. UNISEX 2P $99999I0038610134UBP                                             00000000056479106      IF00000010099999999900003IL0038610101202504072025050400000000205Q0000012020021899999999U0001000000000003999920250418082033SPINA     EUR000000 00000S      $$$$$      000000
