002198M003577501BISTECCA DI LOMBO C/O BOVINO ADULTO1290101010010020021128100  1  NNKG000010000000000000S00000005009999931KGU00010000000000300000000OBISTECCA LOMBO C/OSS$00000O00000000003577501      BISTECCA DI LOMBO C/O BOVINO ADULTO00000000003577501      IC00000010099999999900001OL0000000101202502109999999900000000947E0004002025021099999999U0001000000000018459120250418154504TROIANI   EUR000000 00000N      $$$$$      000000
002198M069939401BISTECCA LOMBO C/O BOVINO ADULTO   1290101490010620170530100  1  NSKG000010000000000000S00000005009999903KGU00010000000000300000000IBIS.LOMBO C/O BOV.AD$00000I00000000069939401      BISTECCA LOMBO C/O BOVINO ADULTO   00000000069939401      IC00000000000000000000001IL0000000101202412089999999900000001272E0004002024120899999999U0001000000000017959120250418154504TROIANI   EUR000000P00080N      $$$$$      000000
002198M073354601SPIEDINI MISTI POLL/TACC           1290101650010020240625100  1  NNKG000010000000000000S00000005009999931KGU00010000000000300000000OSPIEDINI MISTI P/TAC$00000O00000000073354601      SPIEDINI MISTI POLL/TACC           00000000073354601      IC00000010099999999900001OL0000000101202406289999999900000000640E0004002024062899999999U0001000000000010909120250418154504TROIANI   EUR000000 00000S      $$$$$      000000
002198M071726001HAMBUR.SCOTT.S&I 180G SKIN G/RAFF. 1290113550011920210505100  1  NSKG000001800000001800N00000005009999903PZU00010000000000300000000IHAMBUR.SCOTT.S&I 180$00000I00000000071726001      HAMBUR.SCOTT.S&I 180G SKIN G/RAFF. 00000000071726001      IC00000000000000000000008IL0000000101202503162025050400000000230E0004002025031620250504U0001000000000003509120250418154504TROIANI   EUR000000P00080N      $$$$$      000000
002198M072330901TARTARE SCOTTONA S&I GR.210 SKIN   1290113550012520220915100  1  NSKG000002100000002100N00000005009999903PZU00010000000000300000000ITARTARE SCOTTONA S&I$00000I00000000072330901      TARTARE SCOTTONA S&I GR.210 SKIN   00000000072330901      IC00000000000000000000006IL0000000101202503162025050400000000370E0004002025031620250504U0001000000000005459120250418154504TROIANI   EUR000000P00080N      $$$$$      000000
002198M003596201BRACIOLE DI LOMBO SUINO            1290301190010020021203100  1  NNKG000010000000000000S00000005009999931KGU00010000000000300000000OBRACIOLE DI LOMBO SU$00000O00000000003596201      BRACIOLE DI LOMBO SUINO            00000000003596201      IC00000010099999999900001OL0000000101202502109999999900000000341E0004002025021099999999U0001000000000008959120250418154504TROIANI   EUR000000 00000N      $$$$$      000000
002198M069930001LOMBATINE SUINO CPQ X6             1290301340030320170519100  1  NS$$000000000000000000S00000005009999903KGU00010000000000300000000ILOMBATINE SUINO CPQ $00000I00000000069930001      LOMBATINE SUINO CPQ X6             00000000069930001      IC00000010099999999900001IL0000000101202412089999999900000000630E0004002024120899999999U0001000000000008909120250418154504TROIANI   EUR000000 00000N      $$$$$      000000
002198M072957601SALSICCIA SUINO UMBRA NATURALE     1290301400010020231003100  1  NN$$000000000000002500S00000005009999903KGU00010000000000300000000ISALSICCIA SUINO UMBR$00000I00000000072957601      SALSICCIA SUINO UMBRA NATURALE     00000000072957601      IC00000000000000000000001IL0000000101202412089999999900000000630E0004002024120899999999U0001000000000008909120250418154504TROIANI   EUR000000 00000S      $$$$$      000000
002198M009110201BRACIOLE DI AGNELLO                1290410100010020031028100  1  NNKG000010000000000000S00000005009999931KGU00010000000000300000000OBRACIOLE DI AGNELLO $00000O00000000009110201      BRACIOLE DI AGNELLO                00000000009110201      IC00000010099999999900001OL0000000101202411069999999900000001250E0004002024110699999999U0001000000000016959120250418154504TROIANI   EUR000000 00000N      $$$$$      000000
002198M003259001BRACIOLA DI AGNELLO CONFEZIONATA   1290410300010220020830100  1  NNKG000010000000000000S00000005009999903KGU00010000000000300000000IBRACIOLA DI AGNELLO $00000I00000000003259001      BRACIOLA DI AGNELLO CONFEZIONATA   00000000003259001      IC00000010099999999900001IL0000000101202503239999999900000001625E0004002024120899999999U0001000000000019909120250418154504TROIANI   EUR000000P00080N      $$$$$      000000
002198M071947101ARROSTICINI AGNELLO X6             1290410300014120211030100  1  NN$$000000000000000000S00000005009999903KGU00010000000000300000000IARROSTICINI AGNELLO $00000I00000000071947101      ARROSTICINI AGNELLO X6             00000000071947101      IC00000010099999999900001IL0000000101202412089999999900000001615E0004002024120899999999U0001000000000022909120250418154504TROIANI   EUR000000P00080N      $$$$$      000000
002198M003600301SOVRACOSCIA DI POLLO               1290501010010020021203100  1  NNKG000010000000000000S00000005009999931KGU00010000000000300000000OSOVRACOSCIA DI POLLO$00000O00000000003600301      SOVRACOSCIA DI POLLO               00000000003600301      IC00000010099999999900001OL0000000101202411069999999900000000404E0004002024110699999999U0001000000000006459120250418154504TROIANI   EUR000000 00000N      $$$$$      000000
002198M003600401FUSELLI DI POLLO                   1290501010010020021203100  1  NNKG000010000000000000S00000005009999931KGU00010000000000300000000OFUSELLI DI POLLO    $00000O00000000003600401      FUSELLI DI POLLO                   00000000003600401      IC00000010099999999900001OL0000000101202411069999999900000000410E0004002024110699999999U0001000000000006459120250418154504TROIANI   EUR000000 00000N      $$$$$      000000
002198M068032501PETTO DI POLLO FETTE CONF.RISPAR   1290501010010020100921100  1  NNKG000010000000000000S00000005009999931KGU00010000000000300000000OPETTO POLLO FET. C/R$00000O00000000068032501      PETTO DI POLLO FETTE CONF.RISPAR   00000000068032501      IC00000010099999999900001OL0000000101202411069999999900000000708E0004002024110699999999U0001000000000010959120250418154504TROIANI   EUR000000 00000N      $$$$$      000000
002198M003404201PETTO POLLO FETTE CPQ              1290501280050020021010100  1  NSKG000010000000000000S00000005009999903KGU00010000000000300000000IPETTO POLLO FETTE   $00000I00000000003404201      PETTO POLLO FETTE CPQ              00000000003404201      IC00000010099999999900001IL0000000101202411109999999900000000820E0004002024111099999999U0001000000000012959120250418154504TROIANI   EUR000000P00040N      $$$$$      000000
002198M003403901FUSI POLLO CPQ CONF.               1290501280053520021010100  1  NSKG000010000000000000S00000005009999903KGU00010000000000300000000IFUSI POLLO CPQ      $00000I00000000003403901      FUSI POLLO CPQ CONF.               00000000003403901      IC00000010099999999900001IL0000000101202411109999999900000000480E0004002024111099999999U0001000000000007459120250418154504TROIANI   EUR000000P00080N      $$$$$      000000
002198M003404601SOVRACOSCIA POLLO CPQ CONF.        1290501280054020021010100  1  NSKG000010000000000000S00000005009999903KGU00010000000000300000000ISOVRACOSCIA POLLO   $00000I00000000003404601      SOVRACOSCIA POLLO CPQ CONF.        00000000003404601      IC00000010099999999900001IL0000000101202411109999999900000000480E0004002024111099999999U0001000000000007459120250418154504TROIANI   EUR000000P00040N      $$$$$      000000
002198M073350801SPIEDINI MISTI POLLO E TACCHINO    1291001020002020240618100  1  NNKG000010000000000000S00000005009999903KGU00010000000000300000000ISPIEDINI MISTI      $00000I00000000073350801      SPIEDINI MISTI POLLO E TACCHINO    00000000073350801      IC00000000000000000000001IL0000000101202407109999999900000000700E0004002024071099999999U0001000000000010909120250418154504TROIANI   EUR000000 00000S      $$$$$      000000
002198M008534901SPIEDINO RUSTICO AMADORI           1291101010007020021219100  1  NNKG000010000000000000S00000005009999903KGU00010000000000300000000ISPIEDINO RUSTICO AMA$00000I00000000008534901      SPIEDINO RUSTICO AMADORI           00000000008534901      IC00000010099999999900001IL0000000101202301159999999900000001105E0004002023011599999999U0001000000000017999120250418154504TROIANI   EUR000000P00080N      $$$$$      000000
002198M067502101HAMBURGER MAXI AMADORI G.408       1291102010006020080924100  1  NNKG000004080000004080N00000005009999903PZU00010000000000300000000IHAMBURGER AMADORI   $00000I00000000067502101      HAMBURGER MAXI AMADORI G.408       00000000067502101      IC00000010099999999900006IL0000000101202301159999999900000000430E0004002023011599999999U0001000000000006999120250418154504TROIANI   EUR000000P00080N      $$$$$      000000
002198M072312301SALSICCIA CLASSICA AMADORI GR.400  1291103010001920220831100  1  NNKG000004000000004000N00000005009999903PZU00010000000000300000000ISALSICCIA CLASSICA  $00000I00000000072312301      SALSICCIA CLASSICA AMADORI GR.400  00000000072312301      IC00000010099999999900008IL0000000101202301159999999900000000365E0004002023011599999999U0001000000000005999120250418154504TROIANI   EUR000000 00000N      $$$$$      000000
