002198M068833501FRUTTOLO ASS. MULTIPACK 2X300G     1230122010014320130730040  1  NNKG000006000000006000N00000003000002002PZU00010000000000200000000OFRUTTOLO ASS. MULTIP$00000O00000000068833501      FRUTTOLO ASS. MULTIPACK 2X300G     00000000068833501      IC00000010099999999900006OL0000000101202503139999999900000000288E0000012025031399999999U0001000000000004398020250418082919CALZUOLA  EUR000000P00608N      $$$$$      000000
002198M073648901FORMAGGIO CREMOSISSIMO BERGADER    1230325160001320250225040  1  NNKG000003000000003000N00000003000003002PZU00010000000000200000000IFORMAG.CREMOSISSIMO M00000I00000000073648901      FORMAGGIO CREMOSISSIMO BERGADER    00000000073648901      IC00000010099999999900007IL0000000101202503069999999900000000300E0000012025030699999999U0001000000000004298020250418082919CALZUOLA  EUR000000$00000N      $$$$$      000000
002198M067990101SPECIAL TOAST LEERDAMMER           1230331280002720100809040  1  NNKG000001250000001250N00000003000004502PZU00010000000000200000000ISPECIAL TOAST LEERD.$00000I00000000067990101      SPECIAL TOAST LEERDAMMER           00000000067990101      IC00000010099999999900012IL0000000101202504109999999900000000216E0000012025041099999999U0001000000000003098020250418082919CALZUOLA  EUR000000 00000S      $$$$$      000000
002198M070817901MORTADELLA SUPREMA AFFETTATA GR.1201230501220010020200306100  1  NNKG000001200000001200N00000003000002802PZU00010000000000200000000IMORTADELLA SUPREMA A$00000I00000000070817901      MORTADELLA SUPREMA AFFETTATA GR.12000000000070817901      IC00000010099999999900010IL0000000101202303029999999900000000225E0000012023030299999999U0001000000000003598020250418082919CALZUOLA  EUR000000 00000S      $$$$$      000000
002198M070149401MERENDA AL LATTE PLASMON GR.22 X4  1230901010110020180207100  1  NNKG000000880000000880N00000003000002302PZU00010000000000200000000IMERENDA LATTE PLASM.$00000I00000000070149401      MERENDA AL LATTE PLASMON GR.22 X4  00000000070149401      IC00000010099999999900010IL0000000101202307139999999900000000109E0000012023071399999999U0001000000000001598020250418082919CALZUOLA  EUR000000 00000S      $$$$$      000000
002198M070149402MERENDA LATTE C/BISC.PLASMON GR22X41230901010110020240412100  1  NNKG000000880000008800N00000003000002302PZU00010000000000200000000IMERENDA LATTE C/BISC$00000I00000000070149402      MERENDA LATTE C/BISC.PLASMON GR22X400000000070149402      IC00000010099999999900010IL0000000101202404189999999900000000109E0000012024041899999999U0001000000000001598020250418082919CALZUOLA  EUR000000 00000S      $$$$$      000000
002198M069488601TENERONI LA MERENDA                1230901040160020151117000     SNKG000001700000001700N00000003000003002PZU00010000000000200000000ITENERONI LA MERENDA $00000I00000000069488601      TENERONI LA MERENDA                00000000069488601      IC00000010099999999900008IL0000000101202401189999999900000000130E0000012024011899999999U0001000000000001998020250418082919CALZUOLA  EUR000000P00100S      $$$$$      000000
002198M070171401TENERONI MERENDA BRIOCHE           1230901040160420180305100  1  NNKG000001700000001700N00000003000003002PZU00010000000000200000000ITENER.MEREN.BRIOCHE $00000I00000000070171401      TENERONI MERENDA BRIOCHE           00000000070171401      IC00000010099999999900008IL0000000101202401189999999900000000150E0000012024011899999999U0001000000000002358020250418082919CALZUOLA  EUR000000 00000N      $$$$$      000000
002198M070617201TENERONI MERENDA BAGUETTE CRUDO+THE1230901040160520190807000     SNKG000001700000001700N00000003000003002PZU00010000000000200000000ITENER.MEREN.BAGUETTE$00000I00000000070617201      TENERONI MERENDA BAGUETTE CRUDO+THE00000000070617201      IC00000010099999999900008IL0000000101202401189999999900000000150E0000012024011899999999U0001000000000002358020250418082919CALZUOLA  EUR000000 00000S      $$$$$      000000
002198M071273201TENER.MERENDA PANINO COTTO+THE G1801230901040160620200724000     SNKG000001800000001800N00000003000003002PZU00010000000000200000000ITENER.MERENDA PANINO$00000I00000000071273201      TENER.MERENDA PANINO COTTO+THE G18000000000071273201      IC00000010099999999900008IL0000000101202401189999999900000000150E0000012024011899999999U0001000000000002358020250418082919CALZUOLA  EUR000000 00000S      $$$$$      000000
