002198M003231001SPIGOLA SELVAGGIA ESTERA           1310101040046020020826100  1  NN$$000000000000000000S00000007009999932KGU00010000000000800000000ISPIGOLA SELVAGGIA ES$00000I00000000003231001      SPIGOLA SELVAGGIA ESTERA           00000000003231001        00000010099999999900001IL0000000101202210139999999900000001998E0004002022101399999999U0001000000000033989120250412210813EL5       EUR000000P00015S$ALL  $$$$$      000000N
002198M070073501SPIGOLA ALL. ESTERA 300/600        1310101040046820171113100  1  NNKG000010000000000000S00000007009999932KGU00010000000000800000000ISPIGOLA ESTERA      $00000I00000000070073501      SPIGOLA ALL. ESTERA 300/600        00000000070073501        00000010099999999900001IL0000000101202301219999999900000000698E0004002023012199999999U0001000000000011899120250412210813EL5       EUR000000P00026S$ALL  $$$$$      000000N
002198M070708301ORATA ALLEVATA ESTERA              1310101040053420191114100  1  NNKG000010000000000000S00000007009999932KGU00010000000000800000000IORATA ALLEVATA ESTER$00000I00000000070708301      ORATA ALLEVATA ESTERA              00000000070708301        00000010099999999900001IL0000000101202010129999999900000000890E0004002020101299999999U0001000000000014989120250412210813EL5       EUR000000 00000S$ALL  $$$$$      000000N
002198M073156701ORATE ALLEVATE ESTERE 800/1000     1310101040053820240129100  1  NNKG000010000000000000S00000007009999932KGU00010000000000800000000IORATE ALLEVATE ESTER$00000I00000000073156701      ORATE ALLEVATE ESTERE 800/1000     00000000073156701        00000010099999999900001IL0000000101202403169999999900000000998E0004002024031699999999U0001000000000016899120250412210813EL5       EUR000000P00026S$ALL  $$$$$      000000N
002198M003240201TRIGLIA DI SCOGLIO                 1310101040062320020826100  1  NNKG000010000000000000S00000007009999932KGU00010000000000800000000ITRIGLIA ESTERA      $00000I00000000003240201      TRIGLIA DI SCOGLIO                 00000000003240201        00000010099999999900001IL0000000101202307089999999900000001290E0004002023070899999999U0001000000000021909120250412210813EL5       EUR000000P00026S$ALL  $$$$$      000000N
002198M069875801PESCE PETTINE                      1310101040062520170320100  1  NNKG000010000000000000S00000007009999932KGU00010000000000800000000IPESCE PETTINE       $00000I00000000069875801      PESCE PETTINE                      00000000069875801        00000010099999999900001IL0000000101202112029999999900000001190E0004002021120299999999U0001000000000019989120250412210813EL5       EUR000000P00026S$ALL  $$$$$      000000N
002198M003242601MERLUZZO I°                        1310101040063520020827100  1  NNKG000010000000000000S00000007009999932KGU00010000000000800000000IMERLUZZO I°         $00000I00000000003242601      MERLUZZO I°                        00000000003242601        00000010099999999900001IL0000000101202207089999999900000001398E0004002022070899999999U0001000000000023909120250412210813EL5       EUR000000P00026S$ALL  $$$$$      000000N
002198M003242901RAZZA                              1310101040064520020827100  1  NNKG000010000000000000S00000007009999932KGU00010000000000800000000IRAZZA               $00000I00000000003242901      RAZZA                              00000000003242901        00000010099999999900001IL0000000101202412229999999900000000598E0004002024122299999999U0001000000000009989120250412210813EL5       EUR000000P00026S$ALL  $$$$$      000000N
002198M003244501SGOMBRO                            1310101040066120020827100  1  NNKG000010000000000000S00000007009999932KGU00010000000000800000000ISGOMBRO             $00000I00000000003244501      SGOMBRO                            00000000003244501        00000010099999999900001IL0000000101202308029999999900000000550E0004002023080299999999U0001000000000009499120250412210813EL5       EUR000000P00026S$ALL  $$$$$      000000N
002198M009137401RICCIOLE PICCOLE                   1310101040068820031117100  1  NN$$000000000000000000S00000007009999932KGU00010000000000800000000IRICCIOLE PICCOLE    $00000I00000000009137401      RICCIOLE PICCOLE                   00000000009137401        00000010099999999900001IL0000000101202404029999999900000001398E0004002024040299999999U0001000000000023909120250412210813EL5       EUR000000P00026S$ALL  $$$$$      000000N
002198M071919301RICCIOLA PICCOLA CPQ               1310101040068920211007100  1  NS$$000000000000000000S00000007009999932KGU00010000000000800000000IRICCIOLA PICCOLA CPQ$00000I00000000071919301      RICCIOLA PICCOLA CPQ               00000000071919301        00000010099999999900001IL0000000101202110089999999900000001390E0004002021100899999999U0001000000000023599120250412210813EL5       EUR000000P00026SPALL  $$$$$      000000N
002198M003282101CEFALI                             1310101040075020020909100  1  NNKG000010000000000000S00000007009999932KGU00010000000000800000000ICEFALI              $00000I00000000003282101      CEFALI                             00000000003282101        00000010099999999900001IL0000000101202409179999999900000000289E0004002024091799999999U0001000000000004899120250412210813EL5       EUR000000P00026S$ALL  $$$$$      000000N
002198M003352101SPINAROLO SPELLATO                 1310101040076020020926100  1  NNKG000010000000000000S00000007009999932KGU00010000000000800000000ISPINAROLO SPELLATO  $00000I00000000003352101      SPINAROLO SPELLATO                 00000000003352101        00000010099999999900001IL0000000101202301189999999900000000998E0004002023011899999999U0001000000000016899120250412210813EL5       EUR000000P00026S$ALL  $$$$$      000000N
002198M070059001PALOMBO SPELLATO                   1310101040076220171021100  1  NNKG000010000000000000S00000007009999932KGU00010000000000800000000IPALOMBO SPELLATO    $00000I00000000070059001      PALOMBO SPELLATO                   00000000070059001        00000010099999999900001IL0000000101202301189999999900000000898E0004002023011899999999U0001000000000014989120250412210813EL5       EUR000000P00026S$ALL  $$$$$      000000N
002198M003352201GATTUCCIO SPELLATO                 1310101040076520020926100  1  NNKG000010000000000000S00000007009999932KGU00010000000000800000000IGATTUCCIO SPELLATO  $00000I00000000003352201      GATTUCCIO SPELLATO                 00000000003352201        00000010099999999900001IL0000000101202405229999999900000000698E0004002024052299999999U0001000000000011899120250412210813EL5       EUR000000P00037S$ALL  $$$$$      000000N
002198M003235301SALMONE 1000/2000                  1310101070056020020826100  1  NNKG000010000000000000S00000007009999932KGU00010000000000800000000ISALMONE             $00000I00000000003235301      SALMONE 1000/2000                  00000000003235301        00000010099999999900001IL0000000101202405199999999900000000790E0004002024051999999999U0001000000000013499120250412210813EL5       EUR000000P00006S$ALL  $$$$$      000000N
002198M003237401ROMBO LISCIO O SOASO               1310101100059320020826100  1  NNKG000010000000000000S00000007009999932KGU00010000000000800000000IROMBO LISCIO O SOASO$00000I00000000003237401      ROMBO LISCIO O SOASO               00000000003237401        00000010099999999900001IL0000000101202301179999999900000001790E0004002023011799999999U0001000000000029989120250412210813EL5       EUR000000P00026S$ALL  $$$$$      000000N
002198M003237501ROMBO LISCIO O SOASO               1310101100059420020826100  1  NNKG000010000000000000S00000007009999932KGU00010000000000800000000IROMBO LISCIO O SOASO$00000I00000000003237501      ROMBO LISCIO O SOASO               00000000003237501        00000010099999999900001IL0000000101202301179999999900000001998E0004002023011799999999U0001000000000033909120250412210813EL5       EUR000000P00026S$ALL  $$$$$      000000N
002198M003238101SOGLIOLE ESTERE EV./03             1310101100060020020826100  1  NNKG000010000000000000S00000007009999932KGU00010000000000800000000ISOGLIOLE ESTERE EV. $00000I00000000003238101      SOGLIOLE ESTERE EV./03             00000000003238101        00000010099999999900001IL0000000101202109159999999900000002198E0004002021091599999999U0001000000000036909120250412210813EL5       EUR000000P00037S$ALL  $$$$$      000000N
002198M003242501SARAGO ESTERO                      1310101100063320020827100  1  NNKG000010000000000000S00000007009999932KGU00010000000000800000000ISARAGO ESTERO       $00000I00000000003242501      SARAGO ESTERO                      00000000003242501        00000010099999999900001IL0000000101202308199999999900000001298E0004002023081999999999U0001000000000021989120250412210813EL5       EUR000000P00026S$ALL  $$$$$      000000N
002198M003243101GALLINELLA ESTERA 100/200          1310101100064820020827100  1  NNKG000010000000000000S00000007009999932KGU00010000000000800000000IGALLINELLA ESTERA 10$00000I00000000003243101      GALLINELLA ESTERA 100/200          00000000003243101        00000010099999999900001IL0000000101202307299999999900000000790E0004002023072999999999U0001000000000013499120250412210813EL5       EUR000000P00037S$ALL  $$$$$      000000N
002198M003243201GALLINELLA ESTERA 200/400          1310101100064920020827100  1  NNKG000010000000000000S00000007009999932KGU00010000000000800000000IGALLINELLA ESTERA 20$00000I00000000003243201      GALLINELLA ESTERA 200/400          00000000003243201        00000010099999999900001IL0000000101202306109999999900000000790E0004002023061099999999U0001000000000013499120250412210813EL5       EUR000000P00037S$ALL  $$$$$      000000N
002198M003244201SCORFANI ESTERI                    1310101100065620020827100  1  NNKG000010000000000000S00000007009999932KGU00010000000000800000000ISCORFANI ESTERI     $00000I00000000003244201      SCORFANI ESTERI                    00000000003244201        00000010099999999900001IL0000000101202401179999999900000001790E0004002024011799999999U0001000000000029989120250412210813EL5       EUR000000P00026S$ALL  $$$$$      000000N
002198M003244801MORMORA                            1310101100066520020827100  1  NNKG000010000000000000S00000007009999932KGU00010000000000800000000IMORMORA             $00000I00000000003244801      MORMORA                            00000000003244801        00000010099999999900001IL0000000101202205149999999900000001298E0004002022051499999999U0001000000000021989120250412210813EL5       EUR000000P00026S$ALL  $$$$$      000000N
002198M003246001SAN PIETRO                         1310101100068020020827100  1  NNKG000010000000000000S00000007009999932KGU00010000000000800000000ISAN PIETRO          $00000I00000000003246001      SAN PIETRO                         00000000003246001        00000010099999999900001IL0000000101202404029999999900000001690E0004002024040299999999U0001000000000028909120250412210813EL5       EUR000000P00026S$ALL  $$$$$      000000N
002198M003508701CODA DI R.PESCATRICE 300/500       1310101100068920021109100  1  NNKG000010000000000000S00000007009999932KGU00010000000000800000000ICODA DI R.PESCATRICE$00000I00000000003508701      CODA DI R.PESCATRICE 300/500       00000000003508701        00000010099999999900001IL0000000101202401259999999900000001690E0004002024012599999999U0001000000000028909120250412210813EL5       EUR000000P00026N$ALL  $$$$$      000000N
002198M003245201CODA DI R.PESCATRICE 500/1000      1310101100069020020827100  1  NNKG000010000000000000S00000007009999932KGU00010000000000800000000ICODA DI R.PESCATRICE$00000I00000000003245201      CODA DI R.PESCATRICE 500/1000      00000000003245201        00000010099999999900001IL0000000101202403169999999900000001798E0004002024031699999999U0001000000000030909120250412210813EL5       EUR000000P00026S$ALL  $$$$$      000000N
002198M003247001CODA DI R.PESCATRICE 1000/2000     1310101100069220020827100  1  NNKG000010000000000000S00000007009999932KGU00010000000000800000000ICODA DI R.PESCATRICE$00000I00000000003247001      CODA DI R.PESCATRICE 1000/2000     00000000003247001        00000010099999999900001IL0000000101202405119999999900000001898E0004002024051199999999U0001000000000031909120250412210813EL5       EUR000000P00026S$ALL  $$$$$      000000N
002198M003380501PAGRO ESTERO                       1310101100078020021004100  1  NNKG000010000000000000S00000007009999932KGU00010000000000800000000IPAGRO               $00000I00000000003380501      PAGRO ESTERO                       00000000003380501        00000010099999999900001IL0000000101202503319999999900000001398E0004002025033199999999U0001000000000023909120250412210813EL5       EUR000000P00026S$ALL  $$$$$      000000N
002198M003245601PAGRO                              1310101100079020020827100  1  NNKG000010000000000000S00000007009999932KGU00010000000000800000000IPAGRO               $00000I00000000003245601      PAGRO                              00000000003245601        00000010099999999900001IL0000000101202301219999999900000001398E0004002023012199999999U0001000000000023909120250412210813EL5       EUR000000P00026N$ALL  $$$$$      000000N
002198M069426201DENTICE ATLANTICO                  1310101100080520150921100  1  NNKG000010000000000000S00000007009999932KGU00010000000000800000000IDENTICE ATLANTICO   $00000I00000000069426201      DENTICE ATLANTICO                  00000000069426201        00000010099999999900001IL0000000101201901149999999900000001398E0004002019011499999999U0001000000000023909120250412210813EL5       EUR000000P00026S$ALL  $$$$$      000000N
002198M003246901DENTICE                            1310101100081020020827100  1  NNKG000010000000000000S00000007009999932KGU00010000000000800000000IDENTICE             $00000I00000000003246901      DENTICE                            00000000003246901        00000010099999999900001IL0000000101202110309999999900000001890E0004002021103099999999U0001000000000031989120250412210813EL5       EUR000000P00026S$ALL  $$$$$      000000N
002198M003246801CERNIA DORATA                      1310101100082020020827100  1  NNKG000010000000000000S00000007009999932KGU00010000000000800000000ICERNIA DORATA       $00000I00000000003246801      CERNIA DORATA                      00000000003246801        00000010099999999900001IL0000000101202101189999999900000001498E0004002021011899999999U0001000000000024989120250412210813EL5       EUR000000P00026S$ALL  $$$$$      000000N
002198M003101901CERNIA ATLANTICA                   1310101100085020020719100  1  NNKG000010000000000000S00000007009999932KGU00010000000000800000000ICERNIA ATLANTICA    $00000I00000000003101901      CERNIA ATLANTICA                   00000000003101901        00000010099999999900001IL0000000101202401189999999900000001498E0004002024011899999999U0001000000000024989120250412210813EL5       EUR000000P00026N$ALL  $$$$$      000000N
002198M003216301MOSCARDINO BIANCO MEDIO ESTERO     1310101130012220020822100  1  NNKG000010000000000000S00000007009999932KGU00010000000000800000000IMOSCARDINO BIANCO ES$00000I00000000003216301      MOSCARDINO BIANCO MEDIO ESTERO     00000000003216301        00000010099999999900001IL0000000101202406179999999900000001098E0004002024061799999999U0001000000000018599120250412210813EL5       EUR000000P00026S$ALL  $$$$$      000000N
002198M003216501MOSCARDINO BIANCO MEDIO NAZ.       1310101130012220020822100  1  NNKG000010000000000000S00000007009999932KGU00010000000000800000000IMOSCARDINO BIANCO NA$00000I00000000003216501      MOSCARDINO BIANCO MEDIO NAZ.       00000000003216501        00000010099999999900001IL0000000101202309129999999900000001098E0004002023091299999999U0001000000000018599120250412210813EL5       EUR000000P00026S$ALL  $$$$$      000000N
002198M072352701MOSCARDINO MEDIO MEDITERRANEO      1310101130012220220929100  1  NNKG000010000000000000S00000007009999932KGU00010000000000800000000IMOSCARDINO MEDIO MED$00000I00000000072352701      MOSCARDINO MEDIO MEDITERRANEO      00000000072352701        00000010099999999900001IL0000000101202304299999999900000001098E0004002023042999999999U0001000000000018599120250412210813EL5       EUR000000P00026S$ALL  $$$$$      000000N
002198M072352001POLPO DI SCOGLIO MEDITERRANEO      1310101130012320220929100  1  NNKG000010000000000000S00000007009999932KGU00010000000000800000000IPOLPO SCOGLIO MEDIT $00000I00000000072352001      POLPO DI SCOGLIO MEDITERRANEO      00000000072352001        00000010099999999900001IL0000000101202403169999999900000001698E0004002024031699999999U0001000000000028909120250412210813EL5       EUR000000P00026S$ALL  $$$$$      000000N
002198M003217001SEPPIA NERA NAZIONALE              1310101130012520020822100  1  NNKG000010000000000000S00000007009999932KGU00010000000000800000000ISEPPIA NERA NAZIONAL$00000I00000000003217001      SEPPIA NERA NAZIONALE              00000000003217001        00000010099999999900001IL0000000101202401159999999900000001590E0004002024011599999999U0001000000000026909120250412210813EL5       EUR000000P00026S$ALL  $$$$$      000000N
002198M003217201SEPPIA NERA ESTERA                 1310101130012520020822100  1  NNKG000010000000000000S00000007009999932KGU00010000000000800000000ISEPPIA NERA ESTERA  $00000I00000000003217201      SEPPIA NERA ESTERA                 00000000003217201        00000010099999999900001IL0000000101202308029999999900000000949E0004002023080299999999U0001000000000015989120250412210813EL5       EUR000000P00026S$ALL  $$$$$      000000N
002198M068597501TOTANO ESTERO                      1310101130013620120928100  1  NNKG000010000000000000S00000007009999932KGU00010000000000800000000ITOTANO ESTERO       $00000I00000000068597501      TOTANO ESTERO                      00000000068597501        00000010099999999900001IL0000000101202309079999999900000000690E0004002023090799999999U0001000000000011599120250412210813EL5       EUR000000P00026S$ALL  $$$$$      000000N
002198M003208901SCAMPI ESTERI 8/12                 1310101190006620020820100  1  NNKG000010000000000000S00000007009999932KGU00010000000000800000000ISCAMPI ESTERI 8/12  $00000I00000000003208901      SCAMPI ESTERI 8/12                 00000000003208901        00000010099999999900001IL0000000101202401169999999900000002290E0004002024011699999999U0001000000000038909120250412210813EL5       EUR000000P00026S$ALL  $$$$$      000000N
002198M008719501GAMBERI ROSA II° NAZIONALI         1310101190008020030322100  1  NNKG000010000000000000S00000007009999932KGU00010000000000800000000IGAMBERI ROSA II° NAZ$00000I00000000008719501      GAMBERI ROSA II° NAZIONALI         00000000008719501        00000010099999999900001IL0000000101202106269999999900000000498E0004002021062699999999U0001000000000008499120250412210813EL5       EUR000000P00026S$ALL  $$$$$      000000N
002198M003248301FIL.DI PLATESSA                    1310101220070620020827100  1  NNKG000010000000000000S00000007009999932KGU00010000000000800000000IFIL.DI PLATESSA     $00000I00000000003248301      FIL.DI PLATESSA                    00000000003248301        00000010099999999900001IL0000000101202309099999999900000001290E0004002023090999999999U0001000000000021909120250412210813EL5       EUR000000P00037S$ALL  $$$$$      000000N
002198M008994601FILONE DI TONNO DEC                1310101220071120030812100  1  NNKG000050000000000000S00000007009999932KGU00010000000000800000000IFILONE DI TONNO DEC $00000I00000000008994601      FILONE DI TONNO DEC                00000000008994601        00000010099999999900001IL0000000101202106269999999900000001398E0004002021062699999999U0001000000000023909120250412210813EL5       EUR000000P00026S$ALL  $$$$$      000000N
002198M009000001FILETTO DI SCORFANO                1310101220071220030819100  1  NNKG000010000000000000S00000007009999932KGU00010000000000800000000IFILETTO DI SCORFANO $00000I00000000009000001      FILETTO DI SCORFANO                00000000009000001        00000010099999999900001IL0000000101202211149999999900000001490E0004002022111499999999U0001000000000024989120250412210813EL5       EUR000000P00037S$ALL  $$$$$      000000N
002198M009507601FILETTO DI CARBONARO               1310101220071620040520100  1  NNKG000010000000000000S00000007009999932KGU00010000000000800000000IFILETTO DI CARBONARO$00000I00000000009507601      FILETTO DI CARBONARO               00000000009507601        00000010099999999900001IL0000000101202405119999999900000000898E0004002024051199999999U0001000000000014989120250412210813EL5       EUR000000P00037S$ALL  $$$$$      000000N
002198M069637601FILETTO DI PESCE BROTULA           1310101220076020160523100  1  NNKG000010000000000000S00000007009999932KGU00010000000000800000000IFILETTO DI PESCE BRO$00000I00000000069637601      FILETTO DI PESCE BROTULA           00000000069637601        00000010099999999900001IL0000000101201803199999999900000001398E0004002018031999999999U0001000000000023909120250412210813EL5       EUR000000P00026S$ALL  $$$$$      000000N
002198M003240401TONNO ALLETTERATO                  1310101250062020020826100  1  NNKG000010000000000000S00000007009999932KGU00010002000000800000000ITONNO ALLETTERATO   $00000I00000000003240401      TONNO ALLETTERATO                  00000000003240401        00000010099999999900001IL0000000101202409179999999900000000498E0004002023090799999999U0001000000000010599120250412210813EL5       EUR000000P00009S$ALL  $$$$$      000000N
002198M003246301RICCIOLA                           1310101250068820020827100  1  NNKG000010000000000000S00000007009999932KGU00010002500000800000000IRICCIOLA            $00000I00000000003246301      RICCIOLA                           00000000003246301        00000010099999999900001IL0000000101202202269999999900000001398E0004002022022699999999U0001000000000031909120250412210813EL5       EUR000000P00001S$ALL  $$$$$      000000N
002198M003248901ANELLI DI TOTANO DEC.IN SOLUZ.     1310101280050020020827100  1  NNKG000010000000000000S00000007009999932KGU00010000000000800000000IANELLI DI TOTANO DEC$00000I00000000003248901      ANELLI DI TOTANO DEC.IN SOLUZ.     00000000003248901        00000010099999999900001IL0000000101201907139999999900000000998E0004002019071399999999U0001000000000016899120250412210813EL5       EUR000000P00026S$ALL  $$$$$      000000N
002198M003216101CALAMARETTI DEC.                   1310101280050320020822100  1  NNKG000010000000000000S00000007009999932KGU00010000000000800000000ICALAMARETTI DEC.    $00000I00000000003216101      CALAMARETTI DEC.                   00000000003216101        00000010099999999900001IL0000000101202405119999999900000000550E0004002024051199999999U0001000000000009499120250412210813EL5       EUR000000P00026S$ALL  $$$$$      000000N
002198M068569901CIUFFI DI TOTANO GRANDI IN SOL.    1310101280052020120910100  1  NNKG000010000000000000S00000007009999932KGU00010000000000800000000ICIUFFI DI TOTANO GRA$00000I00000000068569901      CIUFFI DI TOTANO GRANDI IN SOL.    00000000068569901        00000010099999999900001IL0000000101202212219999999900000000698E0004002022122199999999U0001000000000011909120250412210813EL5       EUR000000P00026S$ALL  $$$$$      000000N
002198M003248701POLPO PICCOLO DEC.                 1310101280055020020827100  1  NNKG000010000000000000S00000007009999932KGU00010000000000800000000IPOLPO PICCOLO DEC.  $00000I00000000003248701      POLPO PICCOLO DEC.                 00000000003248701        00000010099999999900001IL0000000101202308199999999900000000798E0004002023081999999999U0001000000000013599120250412210813EL5       EUR000000P00026S$ALL  $$$$$      000000N
002198M009560401STRISCE/TAGLIATELLE IN SOLUZ.      1310101280057020040618100  1  NN$$000000000000000000S00000007009999932KGU00010000000000800000000ISTRISCE/TAGLIATELLE $00000I00000000009560401      STRISCE/TAGLIATELLE IN SOLUZ.      00000000009560401        00000010099999999900001IL0000000101202404029999999900000000698E0004002024040299999999U0001000000000011899120250412210813EL5       EUR000000P00026S$ALL  $$$$$      000000N
