002198M021195701RUCOLA CONAD VERSO NATURA BIO 80G  1320101010005020170707040  1  NSKG000000800000000800N00000006509999953PZU00010000000000900000000IRUCOLA CONAD VERSO N800000I00000000021195701      RUCOLA CONAD VERSO NATURA BIO 80G  00000000021195701      IC00000010000001500000006IL0000000101202102069999999900000000093C0000012021020699999999U0001000000000001399220250411104902PARADISI  EUR000000 00000S      BIOOF      000000
002198M020785801P.TIPO PICCAD.500G NICKEL FREE IT.I1320301010000720051230040  1  NNKG000005000000005000N00000006509999951PZU00010000000000900000000IP.TIPO PICCAD.500G N$00000I00000000020785801      P.TIPO PICCAD.500G NICKEL FREE IT.I00000000020785801      IC00000010000001500000009IL0000000101202401169999999900000000230C0000012024011699999999U0001000000000002999220250411104902PARADISI  EUR000000 00000S      $$$$$      000000
002198M021250901PIANTA ORTENSIA V.22 CONFEZIONATA  1320505010019820180322100  1  NN$$000000000000010000N00000006159999951PZU00010000000000900000000IPIANTA ORTENSIA V.22$00000I00000000021250901      PIANTA ORTENSIA V.22 CONFEZIONATA  00000000021250901      IC00000010000001500000004IL0000000101202504149999999900000000990C0000012025041499999999U0001000000000014909220250411104902PARADISI  EUR000000 00000S      $$$$$      000000
002198M020989201PIANTA GARDENIA V.14 CONF.GIOIELLO 1320505010040020130412100  1  NN$$000000000000010000N00000006159999951PZU00010000000000900000000IPIANTA GARDENIA V.14$00000I00000000020989201      PIANTA GARDENIA V.14 CONF.GIOIELLO 00000000020989201      IC00000010000001500000012IL0000000101202504149999999900000000720C0000012025041499999999U0001000000000011909220250411104902PARADISI  EUR000000 00000S      $$$$$      000000
002198M021249601PIANTA AZALEA V.17 CHIOMA 40/50    1320505010040020180320100  1  NN$$000000000000010000N00000006159999951PZU00010000000000900000000IPIANTA AZALEA V.17 C100000I00000000021249601      PIANTA AZALEA V.17 CHIOMA 40/50    00000000021249601      IC00000010000001500000006IL0000000101202504149999999900000000850C0000012025041499999999U0001000000000013909220250411104902PARADISI  EUR000000 00000S      $$$$$      000000
002198M020569901PERE COSCIA OR.CILE 45+ 500G I CAT.1330122280001620020806040  1  NNKG000005000000005000N00000006509999951PZU00010000000000900000000IPERE COSCIA OR.CILE $00000I00000000020569901      PERE COSCIA OR.CILE 45+ 500G I CAT.00000000020569901      IC00000010000001500000010IL0000000101202504019999999900000000160C0000012025040199999999U0001000000000002299220250411104902PARADISI  EUR000000 00000S      $$$$$      000000
002198M020544501MELONI RETATI OR.ITALIA 3X4 I CAT. 1330161010000320020514040  1  NNKG000010000000000000S00000006509999951KGU00010000000000900000000IMELONI RETATI OR.ITA$00000I00000000020544501      MELONI RETATI OR.ITALIA 3X4 I CAT. 00000000020544501      IC00000010000001500000001IL0000000101202504079999999900000000250C0000012025040799999999U0001000000000003499220250411104902PARADISI  EUR000000 00000S      $$$$$      000000
002198M021979201KIWI ZESPRI GREEN 115/125 450G IT.I1330167010001020241216040  1  NNKG000004500000004500N00000006509999951PZU00010000000000900000000IKIWI ZESPRI GREEN 11$00000I00000000021979201      KIWI ZESPRI GREEN 115/125 450G IT.I00000000021979201      IC00000010000001500000008IL0000000101202503049999999900000000255C0000012025030499999999U0001000000000003499220250411104902PARADISI  EUR000000 00000S      $$$$$      000000
002198M020363401INSALATA SCAROLA BST.500G IT.I CAT.1330301160001119991214040  1  NNKG000005000000005000N00000006509999951PZU00010000000000900000000IINSALATA SCAROLA BST$00000I00000000020363401      INSALATA SCAROLA BST.500G IT.I CAT.00000000020363401      IC00000010000001500000008IL0000000101202504089999999900000000120C0000012025040899999999U0001000000000001799220250411104902PARADISI  EUR000000 00000S      $$$$$      000000
002198M022018001INSALATA MISTA POKER 500G I CAT    1330302030000020250402040  1  NNKG000005000000005000N00000006509999951PZU00010000000000900000000IINSALATA MISTA POKER$00000I00000000022018001      INSALATA MISTA POKER 500G I CAT    00000000022018001      IC00000010000001500000008IL0000000101202504149999999900000000105C0000012025041499999999U0001000000000001499220250411104902PARADISI  EUR000000 00000S      $$$$$      000000
002198M020150801FUNGHI PORCINI ESSICCATI VASCH.50 G1330308100099019941201040  1  NNKG000000500000000500N00000006009999954PZU00010000000000900000000IFUNGHI PORCINI ESSIC900000I00000000020150801      FUNGHI PORCINI ESSICCATI VASCH.50 G00000000020150801      IC00000010000001500000012IL0000000101202504149999999900000000465C0000012025041499999999U0001000000000006389220250411104902PARADISI  EUR000000 00000S      $$$$$      000000
002198M022013801PURE'DI PATATE 420G BONTA'STAGIONE 1330309190000020250324100  1  NNKG000004200000004200N00000006509999951PZU00010000000000900000000IPURE'DI PATATE 420G $00000I00000000022013801      PURE'DI PATATE 420G BONTA'STAGIONE 00000000022013801      IC00000010000001500000008IL0000000101202504159999999900000000130L0000002025041599999999U0001000000000001989220250411104902PARADISI  EUR000000 00000S      $$$$$      000000
002198M021178801BONTA DI STAG.VELL.DI ASPARAGI 350G1330309190027820170424100  1  NNKG000003500000003500N00000006509999953PZU00010000000000900000000IBONTA DI STAG.VELL.D$00000I00000000021178801      BONTA DI STAG.VELL.DI ASPARAGI 350G00000000021178801      IC00000010000001500000008IL0000000101202403269999999900000000160C0000012024032699999999U0001000000000002499220250411104902PARADISI  EUR000000 00000S      $$$$$      000000
002198M021478701FAG.BOBY FINI RACC.A MANO 400G IT.I1330312010000220210515040  1  NNKG000004000000004000N00000006509999951PZU00010000000000900000000IFAG.BOBY FINI RACC.A$00000I00000000021478701      FAG.BOBY FINI RACC.A MANO 400G IT.I00000000021478701      IC00000010000001500000008IL0000000101202504099999999900000000295C0000012025040999999999U0001000000000003989220250411104902PARADISI  EUR000000 00000S      $$$$$      000000
002198M020859601OLI.VERDI SICILIA SEC.350G OROLI   1330312240005020080207040  1  NNKG000003500000003500N00000006500030051PZU00010000000000900000000IOLI.VERDI SICILIA SE$00000I00000000020859601      OLI.VERDI SICILIA SEC.350G OROLI   00000000020859601      IC00000010000001500000016IL0000000101202311079999999900000000200C0000012023110799999999U0001000000000002789220250411104902PARADISI  EUR000000 00000S      $$$$$      000000
002198M020117301ZUCCHINE VERDI OR.ITALIA 14/21 I CT1330313010002019930312040  1  NNKG000010000000000000S00000006509999951KGU00010000000000900000000IZUCCHINE VERDI OR.IT$00000I00000000020117301      ZUCCHINE VERDI OR.ITALIA 14/21 I CT00000000020117301      IC00000010000001500000001IL0000000101202503239999999900000000135C0000012025032399999999U0001000000000001999220250411104902PARADISI  EUR000000 00000S      $$$$$      000000
002198M021422001ZUCCHINE ROMANESCHE VS.500G IT.ICT 1330313011695620200930040  1  NNKG000005000000005000N00000006509999951PZU00010000000000900000000IZUCCHINE ROMANESCHE $00000I00000000021422001      ZUCCHINE ROMANESCHE VS.500G IT.ICT 00000000021422001      IC00000010000001500000006IL0000000101202504019999999900000000130C0000012025040199999999U0001000000000001899220250411104902PARADISI  EUR000000 00000S      $$$$$      000000
002198M020253901ZUCCHINE TONDE ITALIA I CAT.       1330313100020019971020040  1  NNKG000010000000000000S00000006509999951KGU00010000000000900000000IZUCCHINE TONDE      $00000I00000000020253901      ZUCCHINE TONDE ITALIA I CAT.       00000000020253901      IC00000010000001500000001IL0000000101202503259999999900000000130C0000012025032599999999U0001000000000001899220250411104902PARADISI  EUR000000 00000S      $$$$$      000000
