002198M090160201FANTASMINO U/D COT X5 KAPPA ASS.   1830301050010020230608220  1  NN$$000000000000010000N00000008009999906PZU00010000000000600000000SFANTASMINO U/D COT XB99999S00000000090160201      FANTASMINO U/D COT X5 KAPPA ASS.   00000000090160201      IC00000010099999999900050SL0000000101202501239999999900000000493E0000012025012399999999U0001000000000008908020250418081344SPINA     EUR000000 00000S      $$$$$      000000
002198M090936001PIGIAMA U MM COT.     M/XXL LIABEL 1830301070010020250121220  1  NN$$000000000000010000N00000008009999906PZU00010000000000600000000SPIGIAMA U MM COT.   B99999S00000000090936001      PIGIAMA U MM COT.     M/XXL LIABEL 00000000090936001      IC00000010099999999900012SL0000000101202501239999999900000000650E0000012025012399999999U0001000000000012908020250418081344SPINA     EUR000000 00000N      $$$$$      000000
002198M066956399EXPO INTIMO DONNA SEAM.X2  PZ75 POM1830302030010020230307220  1  NN$$000000000000010000N00000008009999906PZU00010000000000600000000SEXPO INTIMO DONNA SEB99999S00000000066956399      EXPO INTIMO DONNA SEAM.X2  PZ75 POM00000000066956399      IC00000010099999999900001SL0000000101202501239999999900000035820E0000012025012399999999U0001000000000634508020250418081344SPINA     EUR000000 00000S      $$$$$      000000
002198M090936101PIGIAMA D MM COT.      S/XL LIABEL 1830302080010020250121220  1  NN$$000000000000010000N00000008009999906PZU00010000000000600000000SPIGIAMA D MM COT.   B99999S00000000090936101      PIGIAMA D MM COT.      S/XL LIABEL 00000000090936101      IC00000010099999999900012SL0000000101202501239999999900000000650E0000012025012399999999U0001000000000012908020250418081344SPINA     EUR000000 00000N      $$$$$      000000
002198M066590601CORPO U.MM COT.X3 BCO LIABEL 4/7   1830306020010020211118220  1  NN$$000000000000010000N00000008009999906PZU00010000000000600000000TCORPO U.MM COT.X3 BCB99999T00000000066590601      CORPO U.MM COT.X3 BCO LIABEL 4/7   00000000066590601      IC00000010099999999900030TL0000000101202501239999999900000000751E0000012025012399999999U0001000000000012908020250418081344SPINA     EUR000000 00000S      $$$$$      000000
002198M066956302T3-CANOTTA SS D SEAML X2 POM-      1830307010010020230307220  1  NN$$000000000000010000N00000008009999906PZU00010000000000600000000SCANOTTA SEAMLESS X2 B99999S00000000066956302      T3-CANOTTA SS D SEAML X2 POM-      00000000066956302      IC00000010099999999900001SL0000000101202501239999999900000000600E0000012025012399999999U0001000000000009908020250418081344SPINA     EUR000000 00000S      $$$$$      000000
002198M066956303T3-SLIP D SEAML X2 POM-            1830307040010020230307220  1  NN$$000000000000010000N00000008009999906PZU00010000000000600000000SSLIP SEAMLESS X2 POMB99999S00000000066956303      T3-SLIP D SEAML X2 POM-            00000000066956303      IC00000010099999999900001SL0000000101202501239999999900000000420E0000012025012399999999U0001000000000006908020250418081344SPINA     EUR000000 00000S      $$$$$      000000
002198M066956304T3-BRASIL.D SEAML X2 POM-          1830307040010020230307220  1  NN$$000000000000010000N00000008009999906PZU00010000000000600000000SBRASIL.SEAMLESS X2 PB99999S00000000066956304      T3-BRASIL.D SEAML X2 POM-          00000000066956304      IC00000010099999999900001SL0000000101202501239999999900000000420E0000012025012399999999U0001000000000006908020250418081344SPINA     EUR000000 00000S      $$$$$      000000
002198M066956301T3-BRASSIERE D SEAML X2 POM-       1830307060010020230307220  1  NN$$000000000000010000N00000008009999906PZU00010000000000600000000SBRASSIERE SEAMLESS XB99999S00000000066956301      T3-BRASSIERE D SEAML X2 POM-       00000000066956301      IC00000010099999999900001SL0000000101202501239999999900000000500E0000012025012399999999U0001000000000009908020250418081344SPINA     EUR000000 00000S      $$$$$      000000
002198M090835601T4-SLIP U SEAMLESS X3 POM          1830313030010020240827220  1  NN$$000000000000010000N00000008009999906PZU00010000000000600000000ST4-SLIP U SEAMLESS XB99999S00000000090835601      T4-SLIP U SEAMLESS X3 POM          00000000090835601      IC00000010099999999900024SL0000000101202501239999999900000000660E0000012025012399999999U0001000000000012908020250418081344SPINA     EUR000000 00000S      $$$$$      000000
002198M090835602T4-BOXER U SEAMLESS X3 POM         1830313030010020240827220  1  NN$$000000000000010000N00000008009999906PZU00010000000000600000000ST4-BOXER U SEAMLESS B99999S00000000090835602      T4-BOXER U SEAMLESS X3 POM         00000000090835602      IC00000010099999999900030SL0000000101202501239999999900000000700E0000012025012399999999U0001000000000013908020250418081344SPINA     EUR000000 00000S      $$$$$      000000
002198M090835699T4-EXPO P.BASSE U SEAML X3 36P     1830313030010020240827220  1  NN$$000000000000010000N00000008009999906PZU00010000000000600000000ST4-EXPO P.BASSE U SEB99999S00000000090835699      T4-EXPO P.BASSE U SEAML X3 36P     00000000090835699      IC00000010099999999900001SL0000000101202501239999999900000024480E0000012025012399999999U0001000000000482408020250418081344SPINA     EUR000000 00000S      $$$$$      000000
002198M090936301S5-SABOT UOMO  40-45 -        CEBO 1830509030010020250121220  1  NN$$000000000000010000N00000008009999906PZU00010000000000600000000TS5-SABOT UOMO  40-45B99999T00000000090936301      S5-SABOT UOMO  40-45 -        CEBO 00000000090936301      IC00000010099999999900024TL0000000101202501239999999900000000370E0000012025012399999999U0001000000000006908020250418081344SPINA     EUR000000 00000N      $$$$$      000000
002198M090936401S5-SABOT DONNA 36-41          CEBO 1830509030010020250121220  1  NN$$000000000000010000N00000008009999906PZU00010000000000600000000TS5-SABOT DONNA 36-41B99999T00000000090936401      S5-SABOT DONNA 36-41          CEBO 00000000090936401      IC00000010099999999900024TL0000000101202501239999999900000000370E0000012025012399999999U0001000000000006908020250418081344SPINA     EUR000000 00000N      $$$$$      000000
002198M090939801SMARTPH.REDMI 14C 8/256GB 4G RCS   1850108080000120250127220  1  NN$$000000000000010000N00000008009999906PZU00010000000000600000000SREDMI 14C 8/256GB 4GB99999S00000000090939801      SMARTPH.REDMI 14C 8/256GB 4G RCS   00000000090939801      IC00000010099999999900001SL0000000101202503019999999900000012300E0000012025030199999999U0001000000000159008020250418081344SPINA     EUR000000 00000N      $$$$$      000000
002198M090939701LAVATRICE CANDY 8KG/1200G A INV BA 1850302010000120250127220  1  NN$$000000000000010000N00000008009999906PZU00010000000000600000000SLAV.CANDY EY284DWM5 B99999S00000000090939701      LAVATRICE CANDY 8KG/1200G A INV BA 00000000090939701      IC00000010099999999900001SL0000000101202503019999999900000019300E0000012025030199999999U0001000000000259008020250418081344SPINA     EUR000000 00000N      $$$$$      000000
002198M065315501REGOLAB. 6 IN 1 PHILIPS MG3710/15  1850310010249020190911220  1  NN$$000000000000010000N00000008009999906PZU00010000000000600000000SREGOLAB.PHIL.MG3710 B99999S00000000065315501      REGOLAB. 6 IN 1 PHILIPS MG3710/15  00000000065315501      IC00000010099999999900004SL0000000101202503019999999900000001575E0000012025030199999999U0001000000000024908020250418081344SPINA     EUR000000 00000S      $$$$$      000000
