002198M020438301PIANTA GERANIO BASKET V.18 VAR.MIX 1320505010019920010222100  1  NN$$000000000000010000N00000006159999951PZU00010000000000900000000IPIANTA GERANIO BASKE100000I00000000020438301      PIANTA GERANIO BASKET V.18 VAR.MIX 00000000020438301      IC00000010000001500000006I 0000000000000000000000000000000000000C0000012023042220250421U0001000000000005909220250415211806EL5       EUR000000 00000S$ALL  $$$$$      000000N
002198M020445201GERANIO PARIGINO MIX COLOR V/12    1320505010019920010322100  1  NN$$000000000000010000N00000006159999951PZU00010000000000900000000IGERANIO PARIGINO MIX100000I00000000020445201      GERANIO PARIGINO MIX COLOR V/12    00000000020445201      IC00000010000001500000015I 0000000000000000000000000000000000000 0000000000000000000000U0001000000000000009220250415211806EL5       EUR000000 00000S$ALL  $$$$$      000000N
002198M020753801GERANIO ZONALE MIX COLOR V/12      1320505010019920050531100  1  NN$$000000000000010000N00000006159999951PZU00010000000000900000000IGERANIO ZONALE MIX C100000I00000000020753801      GERANIO ZONALE MIX COLOR V/12      00000000020753801      IC00000010000001500000015I 0000000000000000000000000000000000000C0000012024042720250421U0001000000000001399220250415211806EL5       EUR000000 00000S$ALL  $$$$$      000000N
002198M020797401PIANTA GERANIO MACRANTA VASO 14    1320505010019920060317100  1  NN$$000000000000010000N00000006159999951PZU00010000000000900000000IPIANTA GERANIO VASO 100000I00000000020797401      PIANTA GERANIO MACRANTA VASO 14    00000000020797401      IC00000010000001500000012IL0000000101202504079999999900000000180C0000012025040799999999U0001000000000003009220250415211806EL5       EUR000000 00000S$ALL  $$$$$      000000N
002198M021324401PIANTA ANTHURIUM VASO 17           1320505010070020190328100  1  NN$$000000000000010000N00000006159999951PZU00010000000000900000000OPIANTA ANTHURIUM VAS400000O00000000021324401      PIANTA ANTHURIUM VASO 17           00000000021324401      IC00000010000001500000008OL0000000101202504169999999900000000380C0000012025041699999999U0001000000000005909220250415211806EL5       EUR000000 00000S$ALL  $$$$$      000000N
002198M021261801AR.VALENCIA CAL.5 CPQ ITALIA I CAT.1330101130005020180507040  1  NSKG000010000000000000S00000006509999951KGU00010000000000900000000IAR.VALENCIA CAL.5 CP$00000I00000000021261801      AR.VALENCIA CAL.5 CPQ ITALIA I CAT.00000000021261801      IC00000010000001500000001IL0000000101202504109999999900000000155C0000012025041099999999U0001000000000002299220250415211806EL5       EUR000000 00000SPALL  $$$$$      010001N
002198M020915101LIMONI AMALFI IGP.500G S&D.IT.I CAT1330116040000320100204040  1  NSKG000005000000005000N00000006509999951PZU00010000000000900000000ILIMONI AMALFI S&D.IT$00000I00000000020915101      LIMONI AMALFI IGP.500G S&D.IT.I CAT00000000020915101      IC00000010000001500000016IL0000000101202504169999999900000000135C0000012025041699999999U0001000000000001999220250415211806EL5       EUR000000 00000SSALL  $$$$$      000000N
002198M021950401M.GOLDEN 75/85 400G BIO A.NERO IT  1330119010000120240923040  1  NNKG000004000000004000N00000006509999951PZU00010000000000900000000IM.GOLDEN 75/85 400G $00000I00000000021950401      M.GOLDEN 75/85 400G BIO A.NERO IT  00000000021950401      IC00000010000001500000006IL0000000101202409249999999900000000072C0000012024092499999999U0001000000000000999220250415211806EL5       EUR000000 00000S$ALL  BIOOF      000000N
002198M021803601ROYAL GALA 75/85 A.NERO BIO 400G IT1330119310000120230825040  1  NNKG000004000000004000N00000006509999951PZU00010000000000900000000IROYAL GALA 75/85 A.N$00000I00000000021803601      ROYAL GALA 75/85 A.NERO BIO 400G IT00000000021803601      IC00000010000001500000006IL0000000101202409189999999900000000074C0000012024091899999999U0001000000000000999220250415211806EL5       EUR000000 00000S$ALL  BIOOF      000000N
002198M021055801MELE PINOVA 75/80 CPQ 1F.4X6 IT.ICT1330119310001120150128040  1  NSKG000010000000000000S00000006509999951KGU00010000000000900000000IMELE PINOVA 75/80 CP$00000I00000000021055801      MELE PINOVA 75/80 CPQ 1F.4X6 IT.ICT00000000021055801      IC00000010000001500000001I 0000000000000000000000000000000000000 0000000000000000000000U0001000000000000009220250415211806EL5       EUR000000 00000SPALL  $$$$$      010001N
002198M021040901M.NICOTER KANZI 75/80 750G IT.ICT  1330119310002420141021040  1  NNKG000007500000007500N00000006509999951PZU00010000000000900000000IM.NICOTER KANZI 75/8$00000I00000000021040901      M.NICOTER KANZI 75/80 750G IT.ICT  00000000021040901      IC00000010000001500000006IL0000000101202502019999999900000000155C0000012025020199999999U0001000000000001989220250415211806EL5       EUR000000 00000S$ALL  $$$$$      000000N
002198M020569901PERE COSCIA OR.CILE 45+ 500G I CAT.1330122280001620020806040  1  NNKG000005000000005000N00000006509999951PZU00010000000000900000000IPERE COSCIA OR.CILE $00000I00000000020569901      PERE COSCIA OR.CILE 45+ 500G I CAT.00000000020569901      IC00000010000001500000010IL0000000101202504019999999900000000160C0000012025040199999999U0001000000000002299220250415211806EL5       EUR000000 00000S$ALL  $$$$$      000000N
002198M022016901UVA MIX S.SEMI S.GLOBE 500G S.AFR.I1330125400001120250331040  1  NNKG000005000000005000N00000006509999951PZU00010000000000900000000SUVA MIX S.SEMI S.GLO$00000Z00000000022016901      UVA MIX S.SEMI S.GLOBE 500G S.AFR.I00000000022016901      IC00000010000001500000010ZL0000000101202504029999999900000000215C0000012025040299999999U0001000000000002999220250415211806EL5       EUR000000 00000S$ALL  $$$$$      000000N
002198M021884801FRAG.CANDONGA TOP QUAL.400G ITA.ICT1330146010000920240229040  1  NNKG000004000000004000N00000006509999951PZU00010000000000900000000IFRAG.CANDONGA TOP QU$00000S00000000021884801      FRAG.CANDONGA TOP QUAL.400G ITA.ICT00000000021884801      IC00000010000001500000012SL0000000101202503249999999900000000280C0000012025032499999999U0001000000000003999220250415211806EL5       EUR000000 00000S$ALL  $$$$$      000000N
002198M021424701MELONI GIALLI ITALIA I CAT         1330161070152020201002040  1  NNKG000010000000000000S00000006509999951KGU00010000000000900000000IMELONI GIALLI ITALIA$00000I00000000021424701      MELONI GIALLI ITALIA I CAT         00000000021424701      IC00000010000001500000001IL0000000101202504169999999900000000215C0000012025041699999999U0001000000000002999220250415211806EL5       EUR000000 00000S$ALL  $$$$$      012012S
002198M021077801BANANE CONAD P.Q.I°CAT.            1330164010000220150807040  1  NSKG000010000000000000S00000006509999951KGU00010000000000900000000IBANANE CONAD P.Q.   $00000I00000000021077801      BANANE CONAD P.Q.I°CAT.            00000000021077801      IC00000010000001500000001I 0000000000000000000000000000000000000C0000012025010799999999U0001000000000001799220250415211806EL5       EUR000000 00000SPALL  $$$$$      005001N
002198M021346701SPREMUTA DI ARANCE HPP CONAD 250G  1330174040070020190710100  1  NSLT000002500000002500N00000006509999951PZU00010000000000900000000ISPREMUTA DI ARANCE H$00000I00000000021346701      SPREMUTA DI ARANCE HPP CONAD 250G  00000000021346701      IC00000010000001500000008IL0000000101202501022025043000000000130C0000012025010220250430U0001000000000001999220250415211806EL5       EUR000000 00000SCALL  BEF        000000N
002198M021347101SPR.MELAGR.MELA UVA HPP CONAD 250G 1330174040070020190710100  1  NSLT000002500000002500N00000006509999951PZU00010000000000900000000ISPR.MELAGR.MELA UVA $00000I00000000021347101      SPR.MELAGR.MELA UVA HPP CONAD 250G 00000000021347101      IC00000010000001500000008IL0000000101202501022025043000000000130C0000012025010220250430U0001000000000001999220250415211806EL5       EUR000000 00000SCALL  BEF        000000N
002198M021589501SPR.MELA/LIMONE/MENTA 250ML CONAD  1330174040070020220601100  1  NSLT000002500000002500N00000006509999951PZU00010000000000900000000ISPR.MELA/LIMONE/MENT$00000I00000000021589501      SPR.MELA/LIMONE/MENTA 250ML CONAD  00000000021589501      IC00000010000001500000008IL0000000101202501022025043000000000130C0000012025010220250430U0001000000000001999220250415211806EL5       EUR000000 00000SCALL  BEF        000000N
002198M020174501FUNGHI PLEUROTUS LAZIO IT.I CAT.   1330308040041019960510040  1  NNKG000010000000000000S00000006509999951KGU00010000000000900000000IFUN.PLEUROTUS SFUSO $00000I00000000020174501      FUNGHI PLEUROTUS LAZIO IT.I CAT.   00000000020174501      IC00000010000001500000001IL0000000101202409279999999900000000305C0000012024092799999999U0001000000000004499220250415211806EL5       EUR000000 00000S$ALL  $$$$$      005001N
002198M020922101FUNGHI PLEUROTUS VAS.500G CPQ IT I 1330308040041020100407040  1  NSKG000005000000005000N00000006509999951PZU00010000000000900000000IFUNGHI PLEUROTUS VAS$00000I00000000020922101      FUNGHI PLEUROTUS VAS.500G CPQ IT I 00000000020922101      IC00000010000001500000006IL0000000101202501169999999900000000210C0000012022050299999999U0001000000000002989220250415211806EL5       EUR000000 00000SPALL  $$$$$      000000N
002198M021376801FUNGHI PLEUROTUS LAZIO 300G IT.I CT1330308040041120200123040  1  NNKG000003000000003000N00000006509999951PZU00010000000000900000000IFUNGHI PLEUROTUS LAZ$00000I00000000021376801      FUNGHI PLEUROTUS LAZIO 300G IT.I CT00000000021376801      IC00000010000001500000007IL0000000101202409249999999900000000170C0000012024092499999999U0001000000000002499220250415211806EL5       EUR000000 00000S$ALL  $$$$$      000000N
002198M021688701FUNGHI CARDONCELLO 30X50 IT.I CAT. 1330308100010020221206040  1  NN$$000000000000000000S00000006509999951KGU00010000000000900000000SFUNGHI CARDONCELLO 3$00000I00000000021688701      FUNGHI CARDONCELLO 30X50 IT.I CAT. 00000000021688701      IC00000010000001500000001I 0000000000000000000000000000000000000 0000000000000000000000U0001000000000000009220250415211806EL5       EUR000000 00000S$ALL  $$$$$      005001N
002198M021653201ROS.BROCC.BARESANI 400 G CPQ ITI°CT1330310190000120221017040  1  NSKG000004000000004000N00000006509999951PZU00010000000000900000000SROS.BROCC.BARESANI 4$00000S00000000021653201      ROS.BROCC.BARESANI 400 G CPQ ITI°CT00000000021653201      IC00000010000001500000006SL0000000101202504089999999900000000165C0000012025040899999999U0001000000000002489220250415211806EL5       EUR000000 00000SPALL  $$$$$      000000N
002198M021180701OLIVE BELLA CERIGN.SALAM.350G BIO  1330312240003520170504040  1  NNKG000003500000003500N00000006500030051PZU00010000000000900000000SOLIVE BELLA CERIGN.S$00000I00000000021180701      OLIVE BELLA CERIGN.SALAM.350G BIO  00000000021180701      IC00000010000001500000006IL0000000101202504019999999900000000166C0000012025040199999999U0001000000000002489220250415211806EL5       EUR000000 00000S$ALL  $$$$$      000000N
002198M021389801ZUCCHINE TONDE VS.500G ITALIA ICAT 1330313100020120200504040  1  NNKG000005000000005000N00000006509999951PZU00010000000000900000000IZUCCHINE TONDE VS.50500000S00000000021389801      ZUCCHINE TONDE VS.500G ITALIA ICAT 00000000021389801      IC00000010000001500000010SL0000000101202504159999999900000000090C0000012025041599999999U0001000000000001299220250415211806EL5       EUR000000 00000S$ALL  $$$$$      000000N
002198M020615801PEPERONI GIALLI IT CL 80/100 ICT 1F1330322040010020021127040  1  NNKG000010000000000000S00000006509999951KGU00010000000000900000000IPEPERONI GIALLI IT C$00000I00000000020615801      PEPERONI GIALLI IT CL 80/100 ICT 1F00000000020615801      IC00000010000001500000001IL0000000101202504159999999900000000295C0000012025041599999999U0001000000000003909220250415211806EL5       EUR000000 00000S$ALL  $$$$$      005001N
002198M021480601POM.CUORE DI BUE KG.1 ITALIA I CAT.1330325010070020210524040  1  NNKG000010000000010000N00000006509999951PZU00010000000000900000000IPOM.CUORE DI BUE KG.$00000I00000000021480601      POM.CUORE DI BUE KG.1 ITALIA I CAT.00000000021480601      IC00000010000001500000010IL0000000101202504159999999900000000175C0000012025041599999999U0001000000000002499220250415211806EL5       EUR000000 00000S$ALL  $$$$$      000000N
002198M020348101POM.TONDO ROSSO"RISO"OLANDA 3B ICT 1330325040007019990902040  1  NNKG000010000000000000S00000006509999951KGU00010000000000900000000IPOM.TONDO ROSSO"RISO$00000O00000000020348101      POM.TONDO ROSSO"RISO"OLANDA 3B ICT 00000000020348101      IC00000010000001500000001O 0000000000000000000000000000000000000 0000000000000000000000U0001000000000000009220250415211806EL5       EUR000000 00000S$ALL  $$$$$      005001N
002198M021178301CIP.BIANCHE PIATTA 750G IGP IT.ICAT1330331080000520170424040  1  NNKG000007500000007500N00000006509999951PZU00010000000000900000000ICIP.BIANCHE PIATTA  $00000I00000000021178301      CIP.BIANCHE PIATTA 750G IGP IT.ICAT00000000021178301      IC00000010000001500000010IL0000000101202504159999999900000000130C0000012025041599999999U0001000000000001899220250415211806EL5       EUR000000 00000S$ALL  $$$$$      000000N
002198M020262501CARCIOFI VIOLETTI ORIG.ITALIA I CAT1330343010000219971202040  1  NNKG000003500000003500N00000006509999951PZU00010000000000900000000ICARC.VIOLETTI ITALIA$00000O00000000020262501      CARCIOFI VIOLETTI ORIG.ITALIA I CAT00000000020262501      IC00000010000001500000025OL0000000101202502119999999900000000048C0000012025021199999999U0001000000000000699220250415211806EL5       EUR000000 00000S$ALL  $$$$$      000000N
002198M021575201CARCIOFI MADRIGAL X 20 PZ I CAT.   1330343070001120220427040  1  NNKG000003500000003500N00000006509999951PZU00010000000000900000000ICARCIOFI MADRIGAL X $00000I00000000021575201      CARCIOFI MADRIGAL X 20 PZ I CAT.   00000000021575201      IC00000010000001500000020IL0000000101202504059999999900000000045C0000012025040599999999U0001000000000000699220250415211806EL5       EUR000000 00000S$ALL  $$$$$      000000N
002198M020132001CARC.MAMMOLE ROSSE X25PZ ITA.ICT   1330343070001619940204040  1  NNKG000003500000003500N00000006509999951PZU00010000000000900000000ICARC.MAMMOLE ROSSE  $00000S00000000020132001      CARC.MAMMOLE ROSSE X25PZ ITA.ICT   00000000020132001      IC00000010000001500000025SL0000000101202503259999999900000000053C0000012025032599999999U0001000000000000799220250415211806EL5       EUR000000 00000S$ALL  $$$$$      000000N
002198M020900601ASPARAGI VERDI 500G CPQ.OR.IT.I CAT1330349010000120090423040  1  NSKG000005000000005000N00000006509999951PZU00010000000000900000000IASPARAGI VERDI 500G $00000S00000000020900601      ASPARAGI VERDI 500G CPQ.OR.IT.I CAT00000000020900601      IC00000010000001500000012SL0000000101202504099999999900000000320C0000012025040999999999U0001000000000004509220250415211806EL5       EUR000000 00000SPALL  $$$$$      000000N
002198M020923301ASPARAGI COLTIVATI 500G ITALIA IC  1330349010000220100427040  1  NNKG000005000000005000N00000006509999951PZU00010000000000900000000IASPARAGI COLTIVATI G$00000I00000000020923301      ASPARAGI COLTIVATI 500G ITALIA IC  00000000020923301      IC00000010000001500000012IL0000000101202504159999999900000000320C0000012025041599999999U0001000000000004509220250415211806EL5       EUR000000 00000S$ALL  $$$$$      000000N
002198M021150601SPINACI SFUSI"PULITI"ITALIA I CAT  1330352070002120161011040  1  NNKG000010000000000000S00000006509999951KGU00010000000000900000000ISPINACI SFUSI PULITI$00000I00000000021150601      SPINACI SFUSI"PULITI"ITALIA I CAT  00000000021150601      IC00000010000001500000001I 0000000000000000000000000000000000000 0000000000000000000000U0001000000000000009220250415211806EL5       EUR000000 00000S$ALL  $$$$$      005001N
002198M021800901PAT.IGP ALTO VITERBESE IT.KG.1,5 IC1330361010000520230814040  1  NNKG000015000000015000N00000006509999951PZU00010000000000900000000IPAT.IGP ALTO VITERBE$00000S00000000021800901      PAT.IGP ALTO VITERBESE IT.KG.1,5 IC00000000021800901      IC00000010000001500000010SL0000000101202407309999999900000000195C0000012024073099999999U0001000000000002989220250415211806EL5       EUR000000 00000S$ALL  $$$$$      000000N
002198M021925501PAT.ORTI CAUD.RES.ZERO KG1 ITA.ICAT1330361010001220240610040  1  NNKG000010000000010000N00000006509999951PZU00010000000000900000000IPAT.ORTI CAUD.RES.ZE$00000I00000000021925501      PAT.ORTI CAUD.RES.ZERO KG1 ITA.ICAT00000000021925501      IC00000010000001500000012IL0000000101202410079999999900000000135C0000012024100799999999U0001000000000001989220250415211806EL5       EUR000000 00000S$ALL  $$$$$      000000N
002198M021743601PATATE DOLCI SF.ARANCIONI EGITTO IC1330361130001920230516100  1  NNKG000010000000010000S00000006509999951KGU00010000000000900000000IPATATE DOLCI SF.ARAN$00000I00000000021743601      PATATE DOLCI SF.ARANCIONI EGITTO IC00000000021743601      IC00000010000001500000001IL0000000101202504169999999900000000195C0000012025041699999999U0001000000000002899220250415211806EL5       EUR000000 00000S$SICIL$$$$$      005001N
002198M020146201CIP.BIANCA SFUSA 70/80 INDIA I CAT.1330367010009919940909040  1  NNKG000010000000000000S00000006509999951KGU00010000000000900000000SCIP.BIANCA SFUSA    $00000S00000000020146201      CIP.BIANCA SFUSA 70/80 INDIA I CAT.00000000020146201      IC00000010000001500000001SL0000000101202305259999999900000000180C0000012023052599999999U0001000000000002499220250415211806EL5       EUR000000 00000S$ALL  $$$$$      000000N
