002198M003214801ALICI ADRIATICO                    1310101040040120020822100  1  NNKG000010000000000000S00000007009999932KGU00010000000000800000000IALICI ADRIATICO     $00000I00000000003214801      ALICI ADRIATICO                    00000000003214801        00000010099999999900001IL0000000101202411219999999900000000498E0004002024112199999999U0001000000000008509120250414210123EL5       EUR000000P00026S$ALL  $$$$$      000000N
002198M003215001ALI DI RAZZA                       1310101040042520020822100  1  NNKG000010000000000000S00000007009999932KGU00010000000000800000000IALI DI RAZZA        $00000I00000000003215001      ALI DI RAZZA                       00000000003215001        00000010099999999900001IL0000000101202407049999999900000001098E0004002024070499999999U0001000000000018909120250414210123EL5       EUR000000P00026S$ALL  $$$$$      000000N
002198M003240201TRIGLIA DI SCOGLIO                 1310101040062320020826100  1  NNKG000010000000000000S00000007009999932KGU00010000000000800000000ITRIGLIA ESTERA      $00000I00000000003240201      TRIGLIA DI SCOGLIO                 00000000003240201        00000010099999999900001IL0000000101202307089999999900000001098E0004002023070899999999U0001000000000018909120250414210124EL5       EUR000000P00026S$ALL  $$$$$      000000N
002198M003245501PAGRO ALLEVATO                     1310101040067220020827100  1  NNKG000010000000000000S00000007009999932KGU00010000000000800000000IPAGRO ALLEVATO      $00000I00000000003245501      PAGRO ALLEVATO                     00000000003245501        00000010099999999900001IL0000000101202111139999999900000001198E0004002021111399999999U0001000000000019989120250414210124EL5       EUR000000P00026S$ALL  $$$$$      000000N
002198M009503301OCCHI VERDI(OCCHIALONE)            1310101040071320040518100  1  NNKG000010000000000000S00000007009999932KGU00010000000000800000000IOCCHI VERDI(OCCHIALO$00000I00000000009503301      OCCHI VERDI(OCCHIALONE)            00000000009503301        00000010099999999900001IL0000000101202202239999999900000000798E0004002022022399999999U0001000000000013509120250414210124EL5       EUR000000P00026N$ALL  $$$$$      000000N
002198M003282101CEFALI                             1310101040075020020909100  1  NNKG000010000000000000S00000007009999932KGU00010000000000800000000ICEFALI              $00000I00000000003282101      CEFALI                             00000000003282101        00000010099999999900001IL0000000101202409179999999900000000390E0004002024091799999999U0001000000000005999120250414210124EL5       EUR000000P00026S$ALL  $$$$$      000000N
002198M003245701FRITTURA TIRRENO                   1310101040085620020827100  1  NN$$000000000000000000S00000007009999932KGU00010000000000800000000IFRITTURA TIRRENO    $00000I00000000003245701      FRITTURA TIRRENO                   00000000003245701        00000010099999999900001IL0000000101202202239999999900000001398E0004002022022399999999U0001000000000023909120250414210124EL5       EUR000000P00026S$ALL  $$$$$      000000N
002198M070027401SOGLIOLA ATLANTICA                 1310101100060620170926100  1  NN$$000000000000000000S00000007009999932KGU00010000000000800000000ISOGLIOLA ATL.       $00000I00000000070027401      SOGLIOLA ATLANTICA                 00000000070027401        00000010099999999900001IL0000000101202205219999999900000001698E0004002022052199999999U0001000000000028909120250414210124EL5       EUR000000P00037S$ALL  $$$$$      000000N
002198M003243101GALLINELLA ESTERA 100/200          1310101100064820020827100  1  NNKG000010000000000000S00000007009999932KGU00010000000000800000000IGALLINELLA ESTERA 10$00000I00000000003243101      GALLINELLA ESTERA 100/200          00000000003243101        00000010099999999900001IL0000000101202307299999999900000000698E0004002023072999999999U0001000000000011899120250414210124EL5       EUR000000P00037S$ALL  $$$$$      000000N
002198M003244201SCORFANI ESTERI                    1310101100065620020827100  1  NNKG000010000000000000S00000007009999932KGU00010000000000800000000ISCORFANI ESTERI     $00000I00000000003244201      SCORFANI ESTERI                    00000000003244201        00000010099999999900001IL0000000101202401179999999900000001690E0004002024011799999999U0001000000000028909120250414210124EL5       EUR000000P00026S$ALL  $$$$$      000000N
002198M003246001SAN PIETRO                         1310101100068020020827100  1  NNKG000010000000000000S00000007009999932KGU00010000000000800000000ISAN PIETRO          $00000I00000000003246001      SAN PIETRO                         00000000003246001        00000010099999999900001IL0000000101202404029999999900000001598E0004002024040299999999U0001000000000026989120250414210124EL5       EUR000000P00026S$ALL  $$$$$      000000N
002198M070244501SAN PIETRO                         1310101100068020180522100  1  NNKG000010000000000000S00000007009999932KGU00010000000000800000000ISAN PIETRO          $00000I00000000070244501      SAN PIETRO                         00000000070244501        00000010099999999900001IL0000000101202503319999999900000002590E0004002025033199999999U0001000000000039909120250414210124EL5       EUR000000P00026S$ALL  $$$$$      000000N
002198M003274801PEZZOGNA SELV ESTERA               1310101100071120020905100  1  NNKG000010000000000000S00000007009999932KGU00010000000000800000000IPEZZOGNA SELV ESTERA$00000I00000000003274801      PEZZOGNA SELV ESTERA               00000000003274801        00000010099999999900001IL0000000101202412199999999900000002390E0004002024121699999999U0001000000000037909120250414210124EL5       EUR000000P00026S$ALL  $$$$$      000000N
002198M070044801DENTICE 800/1000                   1310101100077920171009100  1  NNKG000010000000000000S00000007009999932KGU00010000000000800000000IDENTICE             $00000I00000000070044801      DENTICE 800/1000                   00000000070044801        00000010099999999900001IL0000000101202412299999999900000002290E0004002024122999999999U0001000000000036909120250414210124EL5       EUR000000P00026S$ALL  $$$$$      000000N
002198M073246601DENTICI                            1310101100077920240322100  1  NNKG000010000000000000S00000007009999932KGU00010000000000800000000IDENTICI             $00000I00000000073246601      DENTICI                            00000000073246601        00000010099999999900001IL0000000101202412299999999900000002290E0004002024122999999999U0001000000000036909120250414210124EL5       EUR000000P00026S$ALL  $$$$$      000000N
002198M003246901DENTICE                            1310101100081020020827100  1  NNKG000010000000000000S00000007009999932KGU00010000000000800000000IDENTICE             $00000I00000000003246901      DENTICE                            00000000003246901        00000010099999999900001IL0000000101202110309999999900000001790E0004002021103099999999U0001000000000029989120250414210124EL5       EUR000000P00026S$ALL  $$$$$      000000N
002198M003246801CERNIA DORATA                      1310101100082020020827100  1  NNKG000010000000000000S00000007009999932KGU00010000000000800000000ICERNIA DORATA       $00000I00000000003246801      CERNIA DORATA                      00000000003246801        00000010099999999900001IL0000000101202101189999999900000001398E0004002021011899999999U0001000000000023989120250414210124EL5       EUR000000P00026S$ALL  $$$$$      000000N
002198M003101901CERNIA ATLANTICA                   1310101100085020020719100  1  NNKG000010000000000000S00000007009999932KGU00010000000000800000000ICERNIA ATLANTICA    $00000I00000000003101901      CERNIA ATLANTICA                   00000000003101901        00000010099999999900001IL0000000101202401189999999900000001398E0004002024011899999999U0001000000000023909120250414210123EL5       EUR000000P00026N$ALL  $$$$$      000000N
002198M003216401MOSCARDINO BIANCO PICCOLO NAZ      1310101130012120020822100  1  NNKG000010000000000000S00000007009999932KGU00010000000000800000000IMOSCARDINO BIANCO PI$00000I00000000003216401      MOSCARDINO BIANCO PICCOLO NAZ      00000000003216401        00000010099999999900001IL0000000101202401169999999900000001690E0004002024011699999999U0001000000000028909120250414210123EL5       EUR000000P00026S$ALL  $$$$$      000000N
002198M003216601POLPO DI SCOGLIO NAZIONALE         1310101130012320020822100  1  NNKG000010000000000000S00000007009999932KGU00010000000000800000000IPOLPO DI SCOGLIO NAZ$00000I00000000003216601      POLPO DI SCOGLIO NAZIONALE         00000000003216601        00000010099999999900001IL0000000101202501039999999900000001890E0004002025010399999999U0001000000000029909120250414210123EL5       EUR000000P00026S$ALL  $$$$$      000000N
002198M003217001SEPPIA NERA NAZIONALE              1310101130012520020822100  1  NNKG000010000000000000S00000007009999932KGU00010000000000800000000ISEPPIA NERA NAZIONAL$00000I00000000003217001      SEPPIA NERA NAZIONALE              00000000003217001        00000010099999999900001IL0000000101202401159999999900000001698E0004002024011599999999U0001000000000026909120250414210123EL5       EUR000000P00026S$ALL  $$$$$      000000N
002198M068944001LUMACHINE DI MARE                  1310101160018020140117100  1  NNKG000010000000000000S00000007009999932KGU00010000000000800000000ILUMACHINE DI MARE   $00000I00000000068944001      LUMACHINE DI MARE                  00000000068944001        00000010099999999900001IL0000000101201902139999999900000001198E0004002019021399999999U0001000000000019989120250414210124EL5       EUR000000P00026S$ALL  $$$$$      000000N
002198M003241801LUMACHINE DI MARE                  1310101160019020020827100  1  NNKG000010000000000000S00000007009999932KGU00010000000000800000000ILUMACHINE DI MARE   $00000I00000000003241801      LUMACHINE DI MARE                  00000000003241801        00000010099999999900001IL0000000101201902139999999900000001198E0004002019021399999999U0001000000000019989120250414210124EL5       EUR000000P00026S$ALL  $$$$$      000000N
002198M008719501GAMBERI ROSA II° NAZIONALI         1310101190008020030322100  1  NNKG000010000000000000S00000007009999932KGU00010000000000800000000IGAMBERI ROSA II° NAZ$00000I00000000008719501      GAMBERI ROSA II° NAZIONALI         00000000008719501        00000010099999999900001IL0000000101202106269999999900000000598E0004002021062699999999U0001000000000009989120250414210124EL5       EUR000000P00026S$ALL  $$$$$      000000N
002198M073246701GAMBERI ROSA I° TIRRENO            1310101190008020240322100  1  NNKG000010000000000000S00000007009999932KGU00010000000000800000000IGAMBERI ROSA I° TIRR$00000I00000000073246701      GAMBERI ROSA I° TIRRENO            00000000073246701        00000010099999999900001IL0000000101202412229999999900000000898E0004002024122299999999U0001000000000014989120250414210124EL5       EUR000000P00026S$ALL  $$$$$      000000N
002198M073246801GAMBERI ROSA II° TIRRENO           1310101190008020240322100  1  NNKG000010000000000000S00000007009999932KGU00010000000000800000000IGAMBERI ROSA II° TIR$00000I00000000073246801      GAMBERI ROSA II° TIRRENO           00000000073246801        00000010099999999900001IL0000000101202403269999999900000000590E0004002024032699999999U0001000000000009909120250414210124EL5       EUR000000P00026S$ALL  $$$$$      000000N
002198M003247701FILETTO DI CERNIA                  1310101220070320020827100  1  NNKG000010000000000000S00000007009999932KGU00010000000000800000000IFILETTO DI CERNIA   $00000I00000000003247701      FILETTO DI CERNIA                  00000000003247701        00000010099999999900001IL0000000101202309059999999900000001598E0004002023090599999999U0001000000000026989120250414210124EL5       EUR000000P00037S$ALL  $$$$$      000000N
002198M068898601FILETTO DI SOGLIOLA                1310101220073020131007100  1  NNKG000030000000000000S00000007009999932KGU00010000000000800000000IFILETTO DI SOGLIOLA $00000I00000000068898601      FILETTO DI SOGLIOLA                00000000068898601        00000010099999999900001IL0000000101202104199999999900000001590E0004002021041999999999U0001000000000026989120250414210124EL5       EUR000000P00037S$ALL  $$$$$      000000N
002198M003240401TONNO ALLETTERATO                  1310101250062020020826100  1  NNKG000010000000000000S00000007009999932KGU00010002000000800000000ITONNO ALLETTERATO   $00000I00000000003240401      TONNO ALLETTERATO                  00000000003240401        00000010099999999900001IL0000000101202409179999999900000000440E0004002023090799999999U0001000000000010599120250414210124EL5       EUR000000P00009S$ALL  $$$$$      000000N
