002198M003215001ALI DI RAZZA                       1310101040042520020822100  1  NNKG000010000000000000S00000007009999932KGU00010000000000800000000IALI DI RAZZA        $00000I00000000003215001      ALI DI RAZZA                       00000000003215001      IC00000010099999999900001IL0000000101202407049999999900000000890E0004002024070499999999U0001000000000014909120250411210034EL5       EUR000000P00026S$ALL  $$$$$      000000N
002198M070073501SPIGOLA ALL. ESTERA 300/600        1310101040046820171113100  1  NNKG000010000000000000S00000007009999932KGU00010000000000800000000ISPIGOLA ESTERA      $00000I00000000070073501      SPIGOLA ALL. ESTERA 300/600        00000000070073501      IC00000010099999999900001IL0000000101202301219999999900000000598E0004002023012199999999U0001000000000009989120250411210034EL5       EUR000000P00026S$ALL  $$$$$      000000N
002198M003227201SPIGOLA ORBETELLO 400/700          1310101040051720020826100  1  NNKG000010000000000000S00000007009999932KGU00010000000000800000000ISPIGOLA ORBETELLO 40$00000I00000000003227201      SPIGOLA ORBETELLO 400/700          00000000003227201      IC00000010099999999900001IL0000000101202101239999999900000001098E0004002021012399999999U0001000000000018909120250411210034EL5       EUR000000P00026S$ALL  $$$$$      000000N
002198M003233901ORATE ORBETELLO                    1310101040054920020826100  1  NNKG000010000000000000S00000007009999932KGU00010000000000800000000IORATE ORBETELLO     $00000I00000000003233901      ORATE ORBETELLO                    00000000003233901      IC00000010099999999900001IL0000000101201709099999999900000001098E0004002017090999999999U0001000000000018909120250411210034EL5       EUR000000P00026S$ALL  $$$$$      000000N
002198M003242901RAZZA                              1310101040064520020827100  1  NNKG000010000000000000S00000007009999932KGU00010000000000800000000IRAZZA               $00000I00000000003242901      RAZZA                              00000000003242901      IC00000010099999999900001IL0000000101202412229999999900000000690E0004002024122299999999U0001000000000010989120250411210034EL5       EUR000000P00026S$ALL  $$$$$      000000N
002198M068431501PAGELLO II°                        1310101040068620120327100  1  NNKG000010000000000000S00000007009999932KGU00010000000000800000000IPAGELLO II°         $00000I00000000068431501      PAGELLO II°                        00000000068431501      IC00000010099999999900001IL0000000101201911159999999900000000990E0004002019111599999999U0001000000000016599120250411210034EL5       EUR000000P00026S$ALL  $$$$$      000000N
002198M009503301OCCHI VERDI(OCCHIALONE)            1310101040071320040518100  1  NNKG000010000000000000S00000007009999932KGU00010000000000800000000IOCCHI VERDI(OCCHIALO$00000I00000000009503301      OCCHI VERDI(OCCHIALONE)            00000000009503301      IC00000010099999999900001IL0000000101202202239999999900000000790E0004002022022399999999U0001000000000013509120250411210034EL5       EUR000000P00026N$ALL  $$$$$      000000N
002198M003352201GATTUCCIO SPELLATO                 1310101040076520020926100  1  NNKG000010000000000000S00000007009999932KGU00010000000000800000000IGATTUCCIO SPELLATO  $00000I00000000003352201      GATTUCCIO SPELLATO                 00000000003352201      IC00000010099999999900001IL0000000101202405229999999900000000659E0004002024052299999999U0001000000000010989120250411210034EL5       EUR000000P00037S$ALL  $$$$$      000000N
002198M003235301SALMONE 1000/2000                  1310101070056020020826100  1  NNKG000010000000000000S00000007009999932KGU00010000000000800000000ISALMONE             $00000I00000000003235301      SALMONE 1000/2000                  00000000003235301      IC00000010099999999900001IL0000000101202405199999999900000000698E0004002024051999999999U0001000000000011909120250411210034EL5       EUR000000P00006S$ALL  $$$$$      000000N
002198M003237401ROMBO LISCIO O SOASO               1310101100059320020826100  1  NNKG000010000000000000S00000007009999932KGU00010000000000800000000IROMBO LISCIO O SOASO$00000I00000000003237401      ROMBO LISCIO O SOASO               00000000003237401      IC00000010099999999900001IL0000000101202301179999999900000001590E0004002023011799999999U0001000000000026909120250411210034EL5       EUR000000P00026S$ALL  $$$$$      000000N
002198M003243901SCORFANI NAZIONALI                 1310101100065520020827100  1  NNKG000010000000000000S00000007009999932KGU00010000000000800000000ISCORFANI NAZIONALI  $00000I00000000003243901      SCORFANI NAZIONALI                 00000000003243901      IC00000010099999999900001IL0000000101202104239999999900000003690E0004002021042399999999U0001000000000059909120250411210034EL5       EUR000000P00026S$ALL  $$$$$      000000N
002198M003246901DENTICE                            1310101100081020020827100  1  NNKG000010000000000000S00000007009999932KGU00010000000000800000000IDENTICE             $00000I00000000003246901      DENTICE                            00000000003246901      IC00000010099999999900001IL0000000101202110309999999900000003790E0004002021103099999999U0001000000000059909120250411210034EL5       EUR000000P00026S$ALL  $$$$$      000000N
002198M003216601POLPO DI SCOGLIO NAZIONALE         1310101130012320020822100  1  NNKG000010000000000000S00000007009999932KGU00010000000000800000000IPOLPO DI SCOGLIO NAZ$00000I00000000003216601      POLPO DI SCOGLIO NAZIONALE         00000000003216601      IC00000010099999999900001IL0000000101202501039999999900000001698E0004002025010399999999U0001000000000029909120250411210034EL5       EUR000000P00026S$ALL  $$$$$      000000N
002198M003217001SEPPIA NERA NAZIONALE              1310101130012520020822100  1  NNKG000010000000000000S00000007009999932KGU00010000000000800000000ISEPPIA NERA NAZIONAL$00000I00000000003217001      SEPPIA NERA NAZIONALE              00000000003217001      IC00000010099999999900001IL0000000101202401159999999900000001498E0004002024011599999999U0001000000000024989120250411210034EL5       EUR000000P00026S$ALL  $$$$$      000000N
002198M003225801TOTANO NAZIONALE                   1310101130013520020826100  1  NNKG000010000000000000S00000007009999932KGU00010000000000800000000ITOTANO NAZIONALE    $00000I00000000003225801      TOTANO NAZIONALE                   00000000003225801      IC00000010099999999900001IL0000000101202309019999999900000001398E0004002023090199999999U0001000000000023909120250411210034EL5       EUR000000P00026S$ALL  $$$$$      000000N
002198M003360901SCAMPI NAZIONALI II°               1310101190005920020930100  1  NNKG000010000000000000S00000007009999932KGU00010000000000800000000ISCAMPI NAZIONALI II°$00000I00000000003360901      SCAMPI NAZIONALI II°               00000000003360901      IC00000010099999999900001IL0000000101201512229999999900000002998E0004002015122299999999U0001000000000056909120250411210034EL5       EUR000000P00026S$ALL  $$$$$      000000N
002198M003208901SCAMPI ESTERI 8/12                 1310101190006620020820100  1  NNKG000010000000000000S00000007009999932KGU00010000000000800000000ISCAMPI ESTERI 8/12  $00000I00000000003208901      SCAMPI ESTERI 8/12                 00000000003208901      IC00000010099999999900001IL0000000101202401169999999900000001990E0004002024011699999999U0001000000000033909120250411210034EL5       EUR000000P00026S$ALL  $$$$$      000000N
002198M070254101GAMBERI VIOLA I° NAZIONALI         1310101190008020180605100  1  NNKG000010000000000000S00000007009999932KGU00010000000000800000000IGAMBERI VIOLA I° NAZ$00000I00000000070254101      GAMBERI VIOLA I° NAZIONALI         00000000070254101      IC00000010099999999900001IL0000000101201808019999999900000006698E0004002018080199999999U0001000000000098909120250411210034EL5       EUR000000P00026S$ALL  $$$$$      000000N
002198M073246701GAMBERI ROSA I° TIRRENO            1310101190008020240322100  1  NNKG000010000000000000S00000007009999932KGU00010000000000800000000IGAMBERI ROSA I° TIRR$00000I00000000073246701      GAMBERI ROSA I° TIRRENO            00000000073246701      IC00000010099999999900001IL0000000101202412229999999900000000799E0004002024122299999999U0001000000000012989120250411210034EL5       EUR000000P00026S$ALL  $$$$$      000000N
002198M009616101GAMBERI ROSSI I°NAZIONALI          1310101190008120040809100  1  NN$$000000000000000000S00000007009999932KGU00010000000000800000000IGAMBERI ROSSI I°NAZI$00000I00000000009616101      GAMBERI ROSSI I°NAZIONALI          00000000009616101      IC00000010099999999900001IL0000000101202412229999999900000006698E0004002024122299999999U0001000000000098909120250411210034EL5       EUR000000P00026S$ALL  $$$$$      000000N
002198M003208701GAMBERI ROSSI II°NAZIONALI         1310101190008220020820100  1  NNKG000010000000000000S00000007009999932KGU00010000000000800000000IGAMBERI ROSSI II°NAZ$00000I00000000003208701      GAMBERI ROSSI II°NAZIONALI         00000000003208701      IC00000010099999999900001IL0000000101201709279999999900000004699E0004002017092799999999U0001000000000078989120250411210034EL5       EUR000000P00026S$ALL  $$$$$      000000N
002198M070472401GOBETTO III° NAZIONALE             1310101190008520190216100  1  NNKG000010000000000000S00000007009999932KGU00010000000000800000000IGOBETTO III° NAZ    $00000I00000000070472401      GOBETTO III° NAZIONALE             00000000070472401      IC00000010099999999900001IL0000000101201902219999999900000001390E0004002019022199999999U0001000000000021989120250411210034EL5       EUR000000P00026S$ALL  $$$$$      000000N
002198M008994601FILONE DI TONNO DEC                1310101220071120030812100  1  NNKG000050000000000000S00000007009999932KGU00010000000000800000000IFILONE DI TONNO DEC $00000I00000000008994601      FILONE DI TONNO DEC                00000000008994601      IC00000010099999999900001IL0000000101202106269999999900000001098E0004002021062699999999U0001000000000018599120250411210034EL5       EUR000000P00026S$ALL  $$$$$      000000N
002198M003248901ANELLI DI TOTANO DEC.IN SOLUZ.     1310101280050020020827100  1  NNKG000010000000000000S00000007009999932KGU00010000000000800000000IANELLI DI TOTANO DEC$00000I00000000003248901      ANELLI DI TOTANO DEC.IN SOLUZ.     00000000003248901      IC00000010099999999900001IL0000000101201907139999999900000000898E0004002019071399999999U0001000000000014989120250411210034EL5       EUR000000P00026S$ALL  $$$$$      000000N
002198M003216101CALAMARETTI DEC.                   1310101280050320020822100  1  NNKG000010000000000000S00000007009999932KGU00010000000000800000000ICALAMARETTI DEC.    $00000I00000000003216101      CALAMARETTI DEC.                   00000000003216101      IC00000010099999999900001IL0000000101202405119999999900000000498E0004002024051199999999U0001000000000008499120250411210034EL5       EUR000000P00026S$ALL  $$$$$      000000N
002198M003248701POLPO PICCOLO DEC.                 1310101280055020020827100  1  NNKG000010000000000000S00000007009999932KGU00010000000000800000000IPOLPO PICCOLO DEC.  $00000I00000000003248701      POLPO PICCOLO DEC.                 00000000003248701      IC00000010099999999900001IL0000000101202308199999999900000000698E0004002023081999999999U0001000000000011909120250411210034EL5       EUR000000P00026S$ALL  $$$$$      000000N
002198M009560401STRISCE/TAGLIATELLE IN SOLUZ.      1310101280057020040618100  1  NN$$000000000000000000S00000007009999932KGU00010000000000800000000ISTRISCE/TAGLIATELLE $00000I00000000009560401      STRISCE/TAGLIATELLE IN SOLUZ.      00000000009560401      IC00000010099999999900001IL0000000101202404029999999900000000650E0004002024040299999999U0001000000000010909120250411210034EL5       EUR000000P00026S$ALL  $$$$$      000000N
