002198M003215001ALI DI RAZZA                       1310101040042520020822100  1  NNKG000010000000000000S00000007009999932KGU00010000000000800000000IALI DI RAZZA        $00000I00000000003215001      ALI DI RAZZA                       00000000003215001      IC00000010099999999900001IL0000000101202407049999999900000001190E0004002024070499999999U0001000000000018909120250415211509EL5       EUR000000P00026S$ALL  $$$$$      000000N
002198M003239901TRIGLIA DI FANGO                   1310101040062220020826100  1  NNKG000010000000000000S00000007009999932KGU00010000000000800000000ITRIGLIA DI FANGO    $00000I00000000003239901      TRIGLIA DI FANGO                   00000000003239901      IC00000010099999999900001IL0000000101202412229999999900000001298E0004002024122299999999U0001000000000022909120250415211509EL5       EUR000000P00026S$ALL  $$$$$      000000N
002198M003351601MERLUZZO                           1310101040063420020926100  1  NNKG000010000000000000S00000007009999932KGU00010000000000800000000IMERLUZZO            $00000I00000000003351601      MERLUZZO                           00000000003351601      IC00000010099999999900001IL0000000101202401159999999900000001890E0004002024011599999999U0001000000000029989120250415211509EL5       EUR000000P00026N$ALL  $$$$$      000000N
002198M003242601MERLUZZO I°                        1310101040063520020827100  1  NNKG000010000000000000S00000007009999932KGU00010000000000800000000IMERLUZZO I°         $00000I00000000003242601      MERLUZZO I°                        00000000003242601      IC00000010099999999900001IL0000000101202207089999999900000001890E0004002022070899999999U0001000000000028989120250415211509EL5       EUR000000P00026S$ALL  $$$$$      000000N
002198M003242701MERLUZZO II°                       1310101040063620020827100  1  NNKG000010000000000000S00000007009999932KGU00010000000000800000000IMERLUZZO II°        $00000I00000000003242701      MERLUZZO II°                       00000000003242701      IC00000010099999999900001IL0000000101202001119999999900000001490E0004002020011199999999U0001000000000023989120250415211509EL5       EUR000000P00026S$ALL  $$$$$      000000N
002198M003242801MERLUZZO III°                      1310101040064020020827100  1  NNKG000010000000000000S00000007009999932KGU00010000000000800000000IMERLUZZO III°       $00000I00000000003242801      MERLUZZO III°                      00000000003242801      IC00000010099999999900001IL0000000101202205129999999900000001490E0004002022051299999999U0001000000000023989120250415211509EL5       EUR000000P00026S$ALL  $$$$$      000000N
002198M003244701LANZARDO                           1310101040066220020827100  1  NNKG000010000000000000S00000007009999932KGU00010000000000800000000ILANZARDO            $00000I00000000003244701      LANZARDO                           00000000003244701      IC00000010099999999900001IL0000000101202209169999999900000000490E0004002022091699999999U0001000000000007989120250415211509EL5       EUR000000P00026S$ALL  $$$$$      000000N
002198M003361101FRITTURA ADRIATICO I°              1310101040084820020930100  1  NNKG000010000000000000S00000007009999932KGU00010000000000800000000IFRITTURA ADRIATICO I$00000I00000000003361101      FRITTURA ADRIATICO I°              00000000003361101      IC00000010099999999900001IL0000000101202301189999999900000001348E0004002023011899999999U0001000000000021909120250415211509EL5       EUR000000P00026S$ALL  $$$$$      000000N
002198M003361001FRITTURA ADRIATICO II°             1310101040085020020930100  1  NNKG000010000000000000S00000007009999932KGU00010000000000800000000IFRITTURA ADRIATICO I$00000I00000000003361001      FRITTURA ADRIATICO II°             00000000003361001      IC00000010099999999900001IL0000000101202010299999999900000001348E0004002020102999999999U0001000000000021909120250415211509EL5       EUR000000P00026S$ALL  $$$$$      000000N
002198M009795801MELU'                              1310101040086820050810100  1  NNKG000010000000000000S00000007009999932KGU00010000000000800000000IMELU'               $00000I00000000009795801      MELU'                              00000000009795801      IC00000010099999999900001IL0000000101202401159999999900000000848E0004002024011599999999U0001000000000013909120250415211509EL5       EUR000000P00026S$ALL  $$$$$      000000N
002198M009795901PESCE SCIABOLA                     1310101040086920050810100  1  NN$$000000000000000000S00000007009999932KGU00010000000000800000000IPESCE SCIABOLA      $00000I00000000009795901      PESCE SCIABOLA                     00000000009795901      IC00000010099999999900001IL0000000101202111189999999900000001598E0004002021111899999999U0001000000000025909120250415211509EL5       EUR000000P00026S$ALL  $$$$$      000000N
002198M070067901PDA MERLUZZO I°                    1310101040104320171109100  1  NNKG000010000000000000S00000007009999932KGU00010000000000800000000IPDA MERLUZZO I°     $00000I00000000070067901      PDA MERLUZZO I°                    00000000070067901      IC00000010099999999900001IL0000000101201911239999999900000001690E0004002019112399999999U0001000000000026989120250415211509EL5       EUR000000P00026S$ALL  $$$$$      000000N
002198M070068001PDA MERLUZZO II°                   1310101040104420171109100  1  NNKG000010000000000000S00000007009999932KGU00010000000000800000000IPDA MERLUZZO II°    $00000I00000000070068001      PDA MERLUZZO II°                   00000000070068001      IC00000010099999999900001IL0000000101201906059999999900000001490E0004002019060599999999U0001000000000024909120250415211509EL5       EUR000000P00026S$ALL  $$$$$      000000N
002198M070068101PDA MERLUZZO III                   1310101040104520171109100  1  NNKG000010000000000000S00000007009999932KGU00010000000000800000000IPDA MERLUZZO III    $00000I00000000070068101      PDA MERLUZZO III                   00000000070068101      IC00000010099999999900001IL0000000101202207189999999900000001498E0004002022071899999999U0001000000000023999120250415211509EL5       EUR000000P00026S$ALL  $$$$$      000000N
002198M003238801SOGLIOLE INTERE NAZIONALI          1310101100060420020826100  1  NNKG000010000000000000S00000007009999932KGU00010000000000800000000ISOGLIOLE INTERE NAZI$00000I00000000003238801      SOGLIOLE INTERE NAZIONALI          00000000003238801      IC00000010099999999900001IL0000000101202211079999999900000001898E0004002023012199999999U0001000000000037989120250415211509EL5       EUR000000P00037S$ALL  $$$$$      000000N
002198M070244801SARAGO                             1310101100063320180522100  1  NNKG000010000000000000S00000007009999932KGU00010000000000800000000ISARAGO              $00000I00000000070244801      SARAGO                             00000000070244801      IC00000010099999999900001IL0000000101201807239999999900000001590E0004002018072399999999U0001000000000025909120250415211509EL5       EUR000000P00026S$ALL  $$$$$      000000N
002198M070244701PAGELLO/PEZZOGNA                   1310101100071020180522100  1  NNKG000010000000000000S00000007009999932KGU00010000000000800000000IPAGELLO/PEZZOGNA    $00000I00000000070244701      PAGELLO/PEZZOGNA                   00000000070244701      IC00000010099999999900001IL0000000101202201319999999900000002899E0004002022013199999999U0001000000000045909120250415211509EL5       EUR000000P00026S$ALL  $$$$$      000000N
002198M003241601CAPESANTE MEZZO GUSCIO             1310101160003020020827100  1  NNKG000010000000000000S00000007009999932KGU00010000000000800000000ICAPESANTE MEZZO GUSC$00000I00000000003241601      CAPESANTE MEZZO GUSCIO             00000000003241601      IC00000010099999999900001IL0000000101202308019999999900000000998E0004002023080199999999U0001000000000016909120250415211509EL5       EUR000000P00037S$ALL  $$$$$      000000N
002198M003207601ASTICE AMERICANO                   1310101190005620020820220  1  NNKG000010000000000000S00000007009999932KGU00010000000000800000000IASTICE AMERICANO    $00000I00000000003207601      ASTICE AMERICANO                   00000000003207601      IC00000010099999999900001IL0000000101201902029999999900000003490E0004002019020299999999U0001000000000059909120250415211509EL5       EUR000000P00026S$ALL  $$$$$      000000N
002198M003360801SCAMPI NAZIONALI I                 1310101190005820020930100  1  NNKG000010000000000000S00000007009999932KGU00010000000000800000000ISCAMPI NAZIONALI I° $00000I00000000003360801      SCAMPI NAZIONALI I                 00000000003360801      IC00000010099999999900001IL0000000101201605309999999900000008398E0004002016053099999999U0001000000000130909120250415211509EL5       EUR000000P00026S$ALL  $$$$$      000000N
002198M008719501GAMBERI ROSA II° NAZIONALI         1310101190008020030322100  1  NNKG000010000000000000S00000007009999932KGU00010000000000800000000IGAMBERI ROSA II° NAZ$00000I00000000008719501      GAMBERI ROSA II° NAZIONALI         00000000008719501      IC00000010099999999900001IL0000000101202106269999999900000000790E0004002021062699999999U0001000000000012999120250415211509EL5       EUR000000P00026S$ALL  $$$$$      000000N
002198M009155701MAZZANCOLLA NAZIONALE              1310101190077120031127100  1  NN$$000000000000000000S00000007009999932KGU00010000000000800000000IMAZZANCOLLA NAZIONAL$00000I00000000009155701      MAZZANCOLLA NAZIONALE              00000000009155701      IC00000010099999999900001IL0000000101202112299999999900000002898E0004002021122999999999U0001000000000048909120250415211509EL5       EUR000000P00026S$ALL  $$$$$      000000N
002198M071459101PANNOCCHIE/CANOCCHIA               1310101190082020201125100  1  NNKG000010000000000000S00000007009999932KGU00010000000000800000000IPANNOCCHIE/CANOCCHIA$00000I00000000071459101      PANNOCCHIE/CANOCCHIA               00000000071459101      IC00000010099999999900001IL0000000101202409179999999900000001298E0004002024091799999999U0001000000000021999120250415211509EL5       EUR000000P00026S$ALL  $$$$$      000000N
002198M069835601PALOMBO INTERO                     1310101250072020170202100  1  NNKG000010000000000000S00000007009999932KGU00010000000000800000000IPALOMBO INTERO      $00000I00000000069835601      PALOMBO INTERO                     00000000069835601      IC00000010099999999900001IL0000000101201702189999999900000000899E0004002017021899999999U0001000000000016989120250415211509EL5       EUR000000P00026S$ALL  $$$$$      000000N
002198M073479301BACCALA'MANTECATO CREMOSO          1310703350140020241003100  1  NNKG000002000000002000N00000007009999908PZU00010000000000800000000IBACCALA'MANTECATO CR$00000I00000000073479301      BACCALA'MANTECATO CREMOSO          00000000073479301      IC00000010099999999900006IL0000000101202410049999999900000000549E0004002024100499999999U0001000000000008909120250415211509EL5       EUR000000P00060S$ALL  $$$$$      000000N
