002198M003215001ALI DI RAZZA                       1310101040042520020822100  1  NNKG000010000000000000S00000007009999932KGU00010000000000800000000IALI DI RAZZA        $00000I00000000003215001      ALI DI RAZZA                       00000000003215001      IC00000010099999999900001IL0000000101202407049999999900000001098E0004002024070499999999U0001000000000018599120250416210030EL5       EUR000000P00026S$ALL  $$$$$      000000N
002198M003234101ORATE SELVAGGIA                    1310101040053420020826100  1  NNKG000010000000000000S00000007009999932KGU00010000000000800000000IORATE SELVAGGIA     $00000I00000000003234101      ORATE SELVAGGIA                    00000000003234101      IC00000010099999999900001IL0000000101201909149999999900000003698E0004002019091499999999U0001000000000068909120250416210030EL5       EUR000000P00026S$ALL  $$$$$      000000N
002198M003239701SURO/SUGARELLO                     1310101040062020020826100  1  NNKG000010000000000000S00000007009999932KGU00010000000000800000000ISURO/SUGARELLO      $00000I00000000003239701      SURO/SUGARELLO                     00000000003239701      IC00000010099999999900001IL0000000101202307059999999900000000598E0004002023070599999999U0001000000000009909120250416210030EL5       EUR000000P00026S$ALL  $$$$$      000000N
002198M003239901TRIGLIA DI FANGO                   1310101040062220020826100  1  NNKG000010000000000000S00000007009999932KGU00010000000000800000000ITRIGLIA DI FANGO    $00000I00000000003239901      TRIGLIA DI FANGO                   00000000003239901      IC00000010099999999900001IL0000000101202412229999999900000001398E0004002024122299999999U0001000000000022909120250416210030EL5       EUR000000P00026S$ALL  $$$$$      000000N
002198M003385801TRIGLIA DI SCOGLIO                 1310101040062220021005100  1  NNKG000010000000000000S00000007009999932KGU00010000000000800000000ITRIGLIA DI SCOGLIO  $00000I00000000003385801      TRIGLIA DI SCOGLIO                 00000000003385801      IC00000010099999999900001IL0000000101202412229999999900000002698E0004002024122299999999U0001000000000041909120250416210030EL5       EUR000000P00026S$ALL  $$$$$      000000N
002198M003242601MERLUZZO I°                        1310101040063520020827100  1  NNKG000010000000000000S00000007009999932KGU00010000000000800000000IMERLUZZO I°         $00000I00000000003242601      MERLUZZO I°                        00000000003242601      IC00000010099999999900001IL0000000101202207089999999900000001990E0004002022070899999999U0001000000000028909120250416210030EL5       EUR000000P00026S$ALL  $$$$$      000000N
002198M003242701MERLUZZO II°                       1310101040063620020827100  1  NNKG000010000000000000S00000007009999932KGU00010000000000800000000IMERLUZZO II°        $00000I00000000003242701      MERLUZZO II°                       00000000003242701      IC00000010099999999900001IL0000000101202001119999999900000001790E0004002020011199999999U0001000000000027989120250416210030EL5       EUR000000P00026S$ALL  $$$$$      000000N
002198M003242901RAZZA                              1310101040064520020827100  1  NNKG000010000000000000S00000007009999932KGU00010000000000800000000IRAZZA               $00000I00000000003242901      RAZZA                              00000000003242901      IC00000010099999999900001IL0000000101202412229999999900000000898E0004002024122299999999U0001000000000013989120250416210030EL5       EUR000000P00026S$ALL  $$$$$      000000N
002198M003244501SGOMBRO                            1310101040066120020827100  1  NNKG000010000000000000S00000007009999932KGU00010000000000800000000ISGOMBRO             $00000I00000000003244501      SGOMBRO                            00000000003244501      IC00000010099999999900001IL0000000101202308029999999900000000498E0004002023080299999999U0001000000000008509120250416210030EL5       EUR000000P00026S$ALL  $$$$$      000000N
002198M003246201PAGELLO I°                         1310101040068520020827100  1  NNKG000010000000000000S00000007009999932KGU00010000000000800000000IPAGELLO I°          $00000I00000000003246201      PAGELLO I°                         00000000003246201      IC00000010099999999900001IL0000000101202412199999999900000001990E0004002024121999999999U0001000000000029989120250416210030EL5       EUR000000P00026S$ALL  $$$$$      000000N
002198M068431501PAGELLO II°                        1310101040068620120327100  1  NNKG000010000000000000S00000007009999932KGU00010000000000800000000IPAGELLO II°         $00000I00000000068431501      PAGELLO II°                        00000000068431501      IC00000010099999999900001IL0000000101201911159999999900000001190E0004002019111599999999U0001000000000018989120250416210030EL5       EUR000000P00026S$ALL  $$$$$      000000N
002198M003237401ROMBO LISCIO O SOASO               1310101100059320020826100  1  NNKG000010000000000000S00000007009999932KGU00010000000000800000000IROMBO LISCIO O SOASO$00000I00000000003237401      ROMBO LISCIO O SOASO               00000000003237401      IC00000010099999999900001IL0000000101202301179999999900000001590E0004002023011799999999U0001000000000026909120250416210030EL5       EUR000000P00026S$ALL  $$$$$      000000N
002198M003237501ROMBO LISCIO O SOASO               1310101100059420020826100  1  NNKG000010000000000000S00000007009999932KGU00010000000000800000000IROMBO LISCIO O SOASO$00000I00000000003237501      ROMBO LISCIO O SOASO               00000000003237501      IC00000010099999999900001IL0000000101202301179999999900000001798E0004002023011799999999U0001000000000029989120250416210030EL5       EUR000000P00026S$ALL  $$$$$      000000N
002198M003238101SOGLIOLE ESTERE EV./03             1310101100060020020826100  1  NNKG000010000000000000S00000007009999932KGU00010000000000800000000ISOGLIOLE ESTERE EV. $00000I00000000003238101      SOGLIOLE ESTERE EV./03             00000000003238101      IC00000010099999999900001IL0000000101202109159999999900000002290E0004002021091599999999U0001000000000038909120250416210030EL5       EUR000000P00037S$ALL  $$$$$      000000N
002198M003242401SARAGO NAZIONALE                   1310101100063120020827100  1  NNKG000010000000000000S00000007009999932KGU00010000000000800000000ISARAGO NAZIONALE    $00000I00000000003242401      SARAGO NAZIONALE                   00000000003242401      IC00000010099999999900001IL0000000101201812189999999900000001890E0004002018121899999999U0001000000000032909120250416210030EL5       EUR000000P00026S$ALL  $$$$$      000000N
002198M068588101GALLINELLA ESTERA 400/1000         1310101100064920120926100  1  NNKG000010000000000000S00000007009999932KGU00010000000000800000000IGALLINELLA ESTERA   $00000I00000000068588101      GALLINELLA ESTERA 400/1000         00000000068588101      IC00000010099999999900001IL0000000101202302189999999900000001490E0004002023021899999999U0001000000000024989120250416210030EL5       EUR000000P00026S$ALL  $$$$$      000000N
002198M070244501SAN PIETRO                         1310101100068020180522100  1  NNKG000010000000000000S00000007009999932KGU00010000000000800000000ISAN PIETRO          $00000I00000000070244501      SAN PIETRO                         00000000070244501      IC00000010099999999900001IL0000000101202503319999999900000003890E0004002025033199999999U0001000000000059909120250416210030EL5       EUR000000P00026S$ALL  $$$$$      000000N
002198M003245201CODA DI R.PESCATRICE 500/1000      1310101100069020020827100  1  NNKG000010000000000000S00000007009999932KGU00010000000000800000000ICODA DI R.PESCATRICE$00000I00000000003245201      CODA DI R.PESCATRICE 500/1000      00000000003245201      IC00000010099999999900001IL0000000101202403169999999900000001698E0004002024031699999999U0001000000000028909120250416210030EL5       EUR000000P00026S$ALL  $$$$$      000000N
002198M003247101RANA PESCATRICE ESTERA             1310101100069320020827100  1  NNKG000010000000000000S00000007009999932KGU00010000000000800000000IRANA PESCATRICE ESTE$00000I00000000003247101      RANA PESCATRICE ESTERA             00000000003247101      IC00000010099999999900001IL0000000101202407049999999900000000990E0004002024070499999999U0001000000000015989120250416210030EL5       EUR000000P00026S$ALL  $$$$$      000000N
002198M068419001RANA PESCATRICE NAZIONALE          1310101100069420120319100  1  NNKG000010000000000000S00000007009999932KGU00010000000000800000000IRANA PESCATRICE NAZI$00000I00000000068419001      RANA PESCATRICE NAZIONALE          00000000068419001      IC00000010099999999900001IL0000000101202412229999999900000001498E0004002024122299999999U0001000000000023909120250416210030EL5       EUR000000P00026S$ALL  $$$$$      000000N
002198M003246901DENTICE                            1310101100081020020827100  1  NNKG000010000000000000S00000007009999932KGU00010000000000800000000IDENTICE             $00000I00000000003246901      DENTICE                            00000000003246901      IC00000010099999999900001IL0000000101202110309999999900000003990E0004002021103099999999U0001000000000058909120250416210030EL5       EUR000000P00026S$ALL  $$$$$      000000N
002198M009769201CALAMARO NAZIONALE                 1310101130011520050614100  1  NN$$000000000000000000S00000007009999932KGU00010000000000800000000ICALAMARO NAZIONALE  $00000I00000000009769201      CALAMARO NAZIONALE                 00000000009769201      IC00000010099999999900001IL0000000101202311109999999900000004290E0004002023111099999999U0001000000000075909120250416210030EL5       EUR000000P00026S$ALL  $$$$$      000000N
002198M003214101CALAMARO/CALAMARETTO NAZIONALE     1310101130011620020821100  1  NNKG000010000000000000S00000007009999932KGU00010000000000800000000ICALAMARO PICCOLO NAZ$00000I00000000003214101      CALAMARO/CALAMARETTO NAZIONALE     00000000003214101      IC00000010099999999900001IL0000000101202412229999999900000003798E0004002024122299999999U0001000000000062909120250416210030EL5       EUR000000P00026S$ALL  $$$$$      000000N
002198M003216401MOSCARDINO BIANCO PICCOLO NAZ      1310101130012120020822100  1  NNKG000010000000000000S00000007009999932KGU00010000000000800000000IMOSCARDINO BIANCO PI$00000I00000000003216401      MOSCARDINO BIANCO PICCOLO NAZ      00000000003216401      IC00000010099999999900001IL0000000101202401169999999900000001798E0004002024011699999999U0001000000000028909120250416210030EL5       EUR000000P00026S$ALL  $$$$$      000000N
002198M003216301MOSCARDINO BIANCO MEDIO ESTERO     1310101130012220020822100  1  NNKG000010000000000000S00000007009999932KGU00010000000000800000000IMOSCARDINO BIANCO ES$00000I00000000003216301      MOSCARDINO BIANCO MEDIO ESTERO     00000000003216301      IC00000010099999999900001IL0000000101202406179999999900000000998E0004002024061799999999U0001000000000016909120250416210030EL5       EUR000000P00026S$ALL  $$$$$      000000N
002198M072352701MOSCARDINO MEDIO MEDITERRANEO      1310101130012220220929100  1  NNKG000010000000000000S00000007009999932KGU00010000000000800000000IMOSCARDINO MEDIO MED$00000I00000000072352701      MOSCARDINO MEDIO MEDITERRANEO      00000000072352701      IC00000010099999999900001IL0000000101202304299999999900000000998E0004002023042999999999U0001000000000016909120250416210030EL5       EUR000000P00026S$ALL  $$$$$      000000N
002198M003216601POLPO DI SCOGLIO NAZIONALE         1310101130012320020822100  1  NNKG000010000000000000S00000007009999932KGU00010000000000800000000IPOLPO DI SCOGLIO NAZ$00000I00000000003216601      POLPO DI SCOGLIO NAZIONALE         00000000003216601      IC00000010099999999900001IL0000000101202501039999999900000001990E0004002025010399999999U0001000000000029909120250416210030EL5       EUR000000P00026S$ALL  $$$$$      000000N
002198M072352001POLPO DI SCOGLIO MEDITERRANEO      1310101130012320220929100  1  NNKG000010000000000000S00000007009999932KGU00010000000000800000000IPOLPO SCOGLIO MEDIT $00000I00000000072352001      POLPO DI SCOGLIO MEDITERRANEO      00000000072352001      IC00000010099999999900001IL0000000101202403169999999900000001798E0004002024031699999999U0001000000000029989120250416210030EL5       EUR000000P00026S$ALL  $$$$$      000000N
002198M073643501POLPESSA                           1310101130012320250220100  1  NNKG000010000000000000S00000007009999932KGU00010000000000800000000IPOLPESSA            $00000I00000000073643501      POLPESSA                           00000000073643501      IC00000010099999999900001IL0000000101202502209999999900000001198E0004002025022099999999U0001000000000018989120250416210030EL5       EUR000000P00026N$ALL  $$$$$      000000N
002198M003217001SEPPIA NERA NAZIONALE              1310101130012520020822100  1  NNKG000010000000000000S00000007009999932KGU00010000000000800000000ISEPPIA NERA NAZIONAL$00000I00000000003217001      SEPPIA NERA NAZIONALE              00000000003217001      IC00000010099999999900001IL0000000101202401159999999900000001990E0004002024011599999999U0001000000000031909120250416210030EL5       EUR000000P00026S$ALL  $$$$$      000000N
002198M003217201SEPPIA NERA ESTERA                 1310101130012520020822100  1  NNKG000010000000000000S00000007009999932KGU00010000000000800000000ISEPPIA NERA ESTERA  $00000I00000000003217201      SEPPIA NERA ESTERA                 00000000003217201      IC00000010099999999900001IL0000000101202308029999999900000000898E0004002023080299999999U0001000000000014989120250416210030EL5       EUR000000P00026S$ALL  $$$$$      000000N
002198M003225801TOTANO NAZIONALE                   1310101130013520020826100  1  NNKG000010000000000000S00000007009999932KGU00010000000000800000000ITOTANO NAZIONALE    $00000I00000000003225801      TOTANO NAZIONALE                   00000000003225801      IC00000010099999999900001IL0000000101202309019999999900000001890E0004002023090199999999U0001000000000028909120250416210030EL5       EUR000000P00026S$ALL  $$$$$      000000N
002198M068485001TOTANO/TOTANELLO PICCOLO           1310101130013820120509100  1  NNKG000010000000000000S00000007009999932KGU00010000000000800000000ITOTANO/TOTANELLO PIC$00000I00000000068485001      TOTANO/TOTANELLO PICCOLO           00000000068485001      IC00000010099999999900001IL0000000101202309089999999900000001298E0004002023090899999999U0001000000000021909120250416210030EL5       EUR000000P00026S$ALL  $$$$$      000000N
002198M003210101SCAMPI ESTERI SMALL                1310101190006820020821100  1  NNKG000010000000000000S00000007009999932KGU00010000000000800000000ISCAMPI ESTERI SMALL $00000I00000000003210101      SCAMPI ESTERI SMALL                00000000003210101      IC00000010099999999900001IL0000000101202302189999999900000001059E0004002023021899999999U0001000000000017909120250416210030EL5       EUR000000P00026S$ALL  $$$$$      000000N
002198M073246701GAMBERI ROSA I° TIRRENO            1310101190008020240322100  1  NNKG000010000000000000S00000007009999932KGU00010000000000800000000IGAMBERI ROSA I° TIRR$00000I00000000073246701      GAMBERI ROSA I° TIRRENO            00000000073246701      IC00000010099999999900001IL0000000101202412229999999900000001798E0004002024122299999999U0001000000000027989120250416210030EL5       EUR000000P00026S$ALL  $$$$$      000000N
002198M073246801GAMBERI ROSA II° TIRRENO           1310101190008020240322100  1  NNKG000010000000000000S00000007009999932KGU00010000000000800000000IGAMBERI ROSA II° TIR$00000I00000000073246801      GAMBERI ROSA II° TIRRENO           00000000073246801      IC00000010099999999900001IL0000000101202403269999999900000001398E0004002024032699999999U0001000000000023989120250416210030EL5       EUR000000P00026S$ALL  $$$$$      000000N
002198M073643401GAMBERI ROSA III° TIRRENO          1310101190008120250220100  1  NNKG000010000000000000S00000007009999932KGU00010000000000800000000IGAMBERI ROSA III° TI$00000I00000000073643401      GAMBERI ROSA III° TIRRENO          00000000073643401      IC00000010099999999900001IL0000000101202502209999999900000001190E0004002025022099999999U0001000000000018909120250416210030EL5       EUR000000P00026N$ALL  $$$$$      000000N
002198M009155701MAZZANCOLLA NAZIONALE              1310101190077120031127100  1  NN$$000000000000000000S00000007009999932KGU00010000000000800000000IMAZZANCOLLA NAZIONAL$00000I00000000009155701      MAZZANCOLLA NAZIONALE              00000000009155701      IC00000010099999999900001IL0000000101202112299999999900000002690E0004002021122999999999U0001000000000044989120250416210030EL5       EUR000000P00026S$ALL  $$$$$      000000N
002198M003240501PANNOCCHIE/CANOCCHIA               1310101190077520020826100  1  NNKG000010000000000000S00000007009999932KGU00010000000000800000000IPANNOCCHIE/CANOCCHIA$00000I00000000003240501      PANNOCCHIE/CANOCCHIA               00000000003240501      IC00000010099999999900001IL0000000101202209139999999900000001799E0004002022091399999999U0001000000000027989120250416210030EL5       EUR000000P00026S$ALL  $$$$$      000000N
002198M009507601FILETTO DI CARBONARO               1310101220071620040520100  1  NNKG000010000000000000S00000007009999932KGU00010000000000800000000IFILETTO DI CARBONARO$00000I00000000009507601      FILETTO DI CARBONARO               00000000009507601      IC00000010099999999900001IL0000000101202405119999999900000000949E0004002024051199999999U0001000000000015989120250416210030EL5       EUR000000P00037S$ALL  $$$$$      000000N
002198M003240401TONNO ALLETTERATO                  1310101250062020020826100  1  NNKG000010000000000000S00000007009999932KGU00010002000000800000000ITONNO ALLETTERATO   $00000I00000000003240401      TONNO ALLETTERATO                  00000000003240401      IC00000010099999999900001IL0000000101202409179999999900000000498E0004002023090799999999U0001000000000010599120250416210030EL5       EUR000000P00009S$ALL  $$$$$      000000N
002198M073718801FILETTO DI SALMONE                 1310703040006020250416100  1  NNKG000002500000000000S00000007009999908KGU00010000000000800000000IFILETTO DI SALMONE  $00000I00000000073718801      FILETTO DI SALMONE                 00000000073718801      IC00000010099999999900006IL0000000101202504162025041600000002490E0004002025041620250416U0001000000000034999120250416210030EL5       EUR000000P00060N$ALL  $$$$$      000000N
002198M070228401SALMONE SASHIMI PISTACCHIO         1310703220103120180509100  1  NNKG000001000000001000N00000007009999908PZU00010000000000800000000ISALMONE SAS.PISTACCH$00000I00000000070228401      SALMONE SASHIMI PISTACCHIO         00000000070228401      IC00000010099999999900012IL0000000101202201299999999900000000475E0004002022012999999999U0001000000000007989120250416210030EL5       EUR000000P00060S$ALL  $$$$$      000000N
002198M070228501SALMONE SASHIMI                    1310703220103220180509100  1  NNKG000001000000001000N00000007009999908PZU00010000000000800000000ISALMONE SASHIMI     $00000I00000000070228501      SALMONE SASHIMI                    00000000070228501      IC00000010099999999900012IL0000000101202201299999999900000000475E0004002022012999999999U0001000000000007989120250416210030EL5       EUR000000P00060S$ALL  $$$$$      000000N
002198M070228701SALMONE SASHIMI ALGA               1310703220103320180509100  1  NNKG000001000000001000N00000007009999908PZU00010000000000800000000ISALMONE SASHIMI ALGA$00000I00000000070228701      SALMONE SASHIMI ALGA               00000000070228701      IC00000010099999999900012IL0000000101202201299999999900000000475E0004002022012999999999U0001000000000007989120250416210030EL5       EUR000000P00060S$ALL  $$$$$      000000N
002198M070228901SALMONE SASHIMI SESAMO             1310703220103420180509100  1  NNKG000001000000001000N00000007009999908PZU00010000000000800000000ISALMONE SASHIMI SESA$00000I00000000070228901      SALMONE SASHIMI SESAMO             00000000070228901      IC00000010099999999900012IL0000000101202201299999999900000000475E0004002022012999999999U0001000000000007989120250416210030EL5       EUR000000P00060S$ALL  $$$$$      000000N
002198M073479301BACCALA'MANTECATO CREMOSO          1310703350140020241003100  1  NNKG000002000000002000N00000007009999908PZU00010000000000800000000IBACCALA'MANTECATO CR$00000I00000000073479301      BACCALA'MANTECATO CREMOSO          00000000073479301      IC00000010099999999900006IL0000000101202410049999999900000000498E0004002024100499999999U0001000000000007989120250416210030EL5       EUR000000P00060S$ALL  $$$$$      000000N
