002198R055117501UOVO NOCCIOLATTE LINDT             1010722010101620170208100  1  NNKG000003200000003200N00000001009999911PZU00010000000000100427102IUOVO NOCCIOLAT.LINDT199999I00427102         853761                                   00000000055117501      IF00000010099999999900001IL0042710201202502139999999900000001540Q0000012025021399999999U0001000000000023909920250414145311CALZUOLA  EUR000000 00000N      $$$$$      000000
002198R055117601UOVO NOCCIONOIR LINDT              1010722040160220170208100  1  NNKG000003200000003200N00000001009999911PZU00010000000000100427102IUOVO NOCCIONIORLINDT199999I00427102         853764                                   00000000055117601      IF00000010099999999900001IL0042710201202502139999999900000001540Q0000012025021399999999U0001000000000023909920250414145311CALZUOLA  EUR000000 00000N      $$$$$      000000
002198R058965601UOVO CIOCC.BIANCO LINDT            1010722190250120230112100  1  NNKG000002400000002400N00000001009999911PZU00010000000000100427102IUOVO CIOC.BIAN.LINDT199999I00427102         865506                                   00000000058965601      IF00000010099999999900001IL0042710201202502139999999900000001000Q0000012025021399999999U0001000000000014909920250414145311CALZUOLA  EUR000000 00000N      $$$$$      000000
002198R058434101UOVO LINDOR PISTACCHIO             1010722190250420220218100  1  NNKG000003600000003600N00000001009999911PZU00010000000000100427102IUOVO LINDOR PISTACC.199999I00427102         865532                                   00000000058434101      IF00000010099999999900001IL0042710201202502139999999900000001850Q0000012025021399999999U0001000000000034909920250414145311CALZUOLA  EUR000000 00000N      $$$$$      000000
002198R059114701UOVO CIOC.CARAM.SALATO LINDOR      1010722190250620230220100  1  NNKG000003200000003200N00000001000027011PZU00010000000000100427102IUOV.CAR.SALATO LIND.199999I00427102         865280                                   00000000059114701      IF00000010099999999900001IL0042710201202502139999999900000001540Q0000012025021399999999U0001000000000023909920250414145311CALZUOLA  EUR000000 00000N      $$$$$      000000
002198R566549001UOVO TIRAMISU LINDOR               1010722190250620250121100  1  NNKG000003200000003200N00000001009999911PZU00010000000000100427102IUOVO TIRAMISU LINDOR199999I00427102         865696                                   00000000566549001      IF00000010099999999900001IL0042710201202502139999999900000001540Q0000012025021399999999U0001000000000025909920250414145311CALZUOLA  EUR000000 00000N      $$$$$      000000
