002270M0732654012866835             G20250905083435MALTONI    000000
002270M0705354012638452             G20250905083435MALTONI    000000
002270M0704958012929336             G20250905083435MALTONI    000000
002270M0725861012574957             G20250905083435MALTONI    000000
002270M0732648018059020960995       E20250905083435MALTONI    000000
002270M0703460018059020960575       E20250905083435MALTONI    000000
002270M0717260018003170075757       E20250905083435MALTONI    000000
002270M0717260018003170091146       E20250905083435MALTONI    000000
002270M0035953016303                U20250905083435MALTONI    000000
002270M0699308012193300             G20250905083435MALTONI    000000
002270M0729576012895559             G20250905083435MALTONI    000000
002270M0036015016431                U20250905083435MALTONI    000000
002270M0085300012106245             G20250905083435MALTONI    000000
002270M0085300012197780             G20250905083435MALTONI    000000
002270M0085300012923000             G20250905083435MALTONI    000000
