002270M073265401REALE BOV.AD.ALL.UMBRI SKIN X 6    1290101490056020240403100  1  NNKG000010000000000000S00000005009999903KGU00010000000000300000000IREALE BOV.AD.ALL.UMB$00000I00000000073265401      REALE BOV.AD.ALL.UMBRI SKIN X 6    00000000073265401      IC00000000000000000000001IL0000000101202507139999999900000001340E0004002025071399999999U0001000000000018909120250905083435MALTONI   EUR000000P00080S      $$$$$      000000
002270M070535401FETTINE SPALLA BOV.AD.X6 ALL.UMBRIA1290101490056620190429100  1  NNKG000010000000000000S00000005009999903KGU00010000000000300000000IFETTINE SPALLA BOV.A$00000I00000000070535401      FETTINE SPALLA BOV.AD.X6 ALL.UMBRIA00000000070535401      IC00000000000000000000001IL0000000101202507139999999900000001202E0004002025071399999999U0001000000000016959120250905083435MALTONI   EUR000000P00080N      $$$$$      000000
002270M070495801BOCCONCINI BOV.ADULTO X6 ALL.UMBRIA1290101490056720190314100  1  NNKG000010000000000000S00000005009999903KGU00010000000000300000000IBOCCONCINI BOV.ADULT$00000I00000000070495801      BOCCONCINI BOV.ADULTO X6 ALL.UMBRIA00000000070495801      IC00000000000000000000001IL0000000101202507139999999900000001025E0004002025071399999999U0001000000000014459120250905083435MALTONI   EUR000000P00080N      $$$$$      000000
002270M072586101BOLLITO C/OSSO BOV.AD.X6 ALL.UMBRI 1290101490056820230221100  1  NNKG000010000000000000S00000005009999903KGU00010000000000300000000IBOLLITO C/OSSO BOV.A$00000I00000000072586101      BOLLITO C/OSSO BOV.AD.X6 ALL.UMBRI 00000000072586101      IC00000000000000000000001IL0000000101202509029999999900000000830E0004002025090299999999U0001000000000011909120250905083435MALTONI   EUR000000 00000S      $$$$$      000000
002270M073264801HAMBURGER BOV.AD.4X80 GR.ALL.UMBRI 1290101520003520240403100  1  NNKG000003200000003200N00000005009999903PZU00010000000000300000000IHAMBURGER BOV.AD.4X8$00000I00000000073264801      HAMBURGER BOV.AD.4X80 GR.ALL.UMBRI 00000000073264801      IC00000000000000000000006IL0000000101202507139999999900000000319E0004002025071399999999U0001000000000004509120250905083435MALTONI   EUR000000P00080S      $$$$$      000000
002270M070346001MACINATO BOV.AD.GR.300 ALL.UMBRIA  1290101520050220180925100  1  NNKG000003000000003000N00000005009999903PZU00010000000000300000000IMACINATO BOV.AD.GR.3$00000I00000000070346001      MACINATO BOV.AD.GR.300 ALL.UMBRIA  00000000070346001      IC00000000000000000000006IL0000000101202507139999999900000000333E0004002025071399999999U0001000000000004709120250905083435MALTONI   EUR000000P00080N      $$$$$      000000
002270M071726001HAMBUR.SCOTT.S&I 180G SKIN G/RAFF. 1290113550011920210505100  1  NSKG000001800000001800N00000005009999903PZU00010000000000300000000IHAMBUR.SCOTT.S&I 180$00000I00000000071726001      HAMBUR.SCOTT.S&I 180G SKIN G/RAFF. 00000000071726001      IC00000000000000000000008IL0000000101202509109999999900000000212E0004002025060199999999U0001000000000003909120250905083435MALTONI   EUR000000P00080N      $$$$$      000000
002270M003595301ARISTA (LONZA) A FETTE DI SUINO    1290301190010020021202100  1  NNKG000010000000000000S00000005009999931KGU00010000000000300000000OARISTA (LONZA) A FET$00000O00000000003595301      ARISTA (LONZA) A FETTE DI SUINO    00000000003595301      IC00000010099999999900001OL0000000101202505269999999900000000525E0004002025052699999999U0001000000000009959120250905083435MALTONI   EUR000000 00000N      $$$$$      000000
002270M069930801ARISTA DI SUINO A FETTE            1290301340031120170519100  1  NS$$000000000000000000S00000005009999903KGU00010000000000300000000IARISTA DI SUINO A FE$00000I00000000069930801      ARISTA DI SUINO A FETTE            00000000069930801      IC00000010099999999900001IL0000000101202507139999999900000000915E0004002025071399999999U0001000000000012909120250905083435MALTONI   EUR000000 00000N      $$$$$      000000
002270M072957601SALSICCIA SUINO UMBRA              1290301400010020231003100  1  NN$$000000000000002500S00000005009999903KGU00010000000000300000000ISALSICCIA SUINO UMBR$00000I00000000072957601      SALSICCIA SUINO UMBRA              00000000072957601      IC00000000000000000000001IL0000000101202505179999999900000000630E0004002025051799999999U0001000000000008909120250905083435MALTONI   EUR000000 00000S      $$$$$      000000
002270M003601501FESA DI TACCHINO A FETTE           1290519010010020021203100  1  NNKG000010000000000000S00000005009999931KGU00010000000000300000000OFESA DI TACCHINO A F$00000O00000000003601501      FESA DI TACCHINO A FETTE           00000000003601501      IC00000010099999999900001OL0000000101202508049999999900000000867E0004002025080499999999U0001000000000013959120250905083435MALTONI   EUR000000 00000N      $$$$$      000000
002270M008530001FESA TACCHINO FETTE CPQ CONF.      1290519340003020021219100  1  NSKG000010000000000000S00000005009999903KGU00010000000000300000000IFESA TACCHINO FETTE $00000I00000000008530001      FESA TACCHINO FETTE CPQ CONF.      00000000008530001      IC00000010099999999900001IL0000000101202506029999999900000000910E0004002025060299999999U0001000000000014459120250905083435MALTONI   EUR000000P00040N      $$$$$      000000
