300372M073656701PIADINA PROTEICA LORIANA           1010116010003420250227040  1  NNKG000002250000003000N00000001000012001PZU00010000000000100000000IPIADINA PROTEICA    $00000I00000000073656701      PIADINA PROTEICA LORIANA           00000000073656701      IC00000010099999999900012IL0000000101202504179999999900000000187E0000012025041799999999U0001000000000002458020250415220425EL5       EUR000000P00060N$ALL  $$$$$      000000N
300372M073557501CRACKERS G.PAVESI SALATI BIPACCO   1010122010020020250113040  1  NNKG000011200000011200N00000001000021001PZU00010000000000100000000OCRACKERS G PAVESI SA$00000O00000000073557501      CRACKERS G.PAVESI SALATI BIPACCO   00000000073557501      IC00000010099999999900006OL0000000101202504179999999900000000290E0000012025041799999999U0001000000000003908020250415220424EL5       EUR000000P00018N$ALL  $$$$$      000000N
300372M073557601CRACKERS GP NON SALATI BIPACCO     1010122040001020250113040  1  NNKG000011200000011200N00000001000021001PZU00010000000000100000000OCRACK.GP NON SALATI $00000O00000000073557601      CRACKERS GP NON SALATI BIPACCO     00000000073557601      IC00000010099999999900006OL0000000101202504179999999900000000290E0000012025041799999999U0001000000000003908020250415220424EL5       EUR000000P00018N$ALL  $$$$$      000000N
300372M000531701RISO FLORA BELL'INSALATE           1010322010001619940223040  1  NNKG000010000000010000N00000001000054001PZU00010000000000100000000IRISO FLORA INSALATE $00000O00000000000531701      RISO FLORA BELL'INSALATE           00000000000531701      IC00000010099999999900010OL0000000101202504179999999900000000198E0000012025041799999999U0001000000000002598020250415220333EL5       EUR000000P00078S$ALL  $$$$$      000000N
300372M073710201ALVEARI BURRO SALATO/MIELE M.BIANCO1010501040013420250409100  1  NNKG000003000000003000N00000001000030001PZU00010000000000100000000IALVEARI BURRO SALATO$00000I00000000073710201      ALVEARI BURRO SALATO/MIELE M.BIANCO00000000073710201      IC00000010099999999900012IL0000000101202504179999999900000000155E0000012025041799999999U0001000000000002298020250415220425EL5       EUR000000P00048S$ALL  $$$$$      000000N
300372M000216401BALCONI TRONCO FAR.NOCCIOLA        1010510040001119931102100  1  NNKG000002500000002500N00000001000018001PZU00010000000000100000000IBALCONI TRONCO FARC.P00000I00000000000216401      BALCONI TRONCO FAR.NOCCIOLA        00000000000216401      IC00000010099999999900012IL0000000101202212299999999900000000069E0000012022122999999999U0001000000000000988020250415220333EL5       EUR000000P00048S$ALL  $$$$$      000000N
300372M072000701CORNETTI INTEGRALI CONAD X6        1010513010000220220114100  1  NSKG000002400000002400N00000001000006001PZU00010000000000100000000ICORNET.INTEGR.CONAD $00000I00000000072000701      CORNETTI INTEGRALI CONAD X6        00000000072000701      IC00000010099999999900008I 0000000000000000000000000000000000000 0000000000000000000000U0001000000000000008020250415220333EL5       EUR000000P00030SCALL  $$$$$      000000N
300372M072000803CORNETTI CONAD INT.MIELE X6        1010513040000320220114100  1  NSKG000003000000003000N00000001000006001PZU00010000000000100000000ICORNETTI CONAD INT. $00000I00000000072000803      CORNETTI CONAD INT.MIELE X6        00000000072000803      IC00000010099999999900008I 0000000000000000000000000000000000000 0000000000000000000000U0001000000000000008020250415220333EL5       EUR000000P00030SCALL  $$$$$      000000N
300372M009136901BALCONI ROLL.NOCCIOLA X6 ***       1010513040003520031117100  1  NNKG000002220000002220N00000001000018001PZU00010000000000100000000IROLLINO NOCCIOLA    P00000I00000000009136901      BALCONI ROLL.NOCCIOLA X6 ***       00000000009136901      IC00000010099999999900020IL0000000101202212299999999900000000092E0000012022122999999999U0001000000000001298020250415220333EL5       EUR000000P00027S$ALL  $$$$$      000000N
300372M071727701BALCONI TRANCINO CHOCO MAGIA X10   1010513040003520210506100  1  NNKG000002800000002800N00000001000018001PZU00010000000000100000000IBALCONI TRANC.CHOCO $00000I00000000071727701      BALCONI TRANCINO CHOCO MAGIA X10   00000000071727701      IC00000010099999999900015IL0000000101202212299999999900000000125E0000012022122999999999U0001000000000001848020250415220333EL5       EUR000000P00024S$ALL  $$$$$      000000N
300372M069977401WHEELLY BALCONI X8                 1010513040018020170713100  1  NNKG000002800000002800N00000001000018001PZU00010000000000100000000FWHEELLY BALCONI X8  $00000F00000000069977401      WHEELLY BALCONI X8                 00000000069977401      IC00000010099999999900015FL0000000101201808309999999900000000110E0000012018083099999999U0001000000000001608020250415220406EL5       EUR000000P00056S$ALL  $$$$$      000000N
300372M002291301TAV.CIOC.LINDT LINDOR LATTE        1010516011000820011015100  1  NNKG000001000000001000N00000001000021001PZU00010000000000100000000ITAV.LINDT LINDOR    $00000E00000000002291301      TAV.CIOC.LINDT LINDOR LATTE        00000000002291301      IC00000010099999999900018EL0000000101202503069999999900000000250E0000012025030699999999U0001000000000003498020250415220333EL5       EUR000000P00297S$PAC  $$$$$      000000N
300372M002929401KINDER CEREALI TAV. T.72           1010519010012519961217100  1  NNKG000000235000000235N00000001000015001PZU00010000000000100000000IKINDER CEREALI TAV. $00000E00000000002929401      KINDER CEREALI TAV. T.72           00000000002929401      IC00000010099999999900040EL0000000101202408299999999900000000057E0000012024082999999999U0001000000000000798020250415220333EL5       EUR000000P00384S$ALL  $$$$$      000000N
300372M070304902KINDER LOVE CUORE                  1010522070009620181008100  1  NNKG000000370000000370N00000001000018001PZU00010000000000100000000IKINDER LOVE CUORE   $00000E00000000070304902      KINDER LOVE CUORE                  00000000070304902      IC00000010099999999900030EL0000000101202408299999999900000000095E0000012024082999999999U0001000000000001398020250415220333EL5       EUR000000P00048N$ALL  $$$$$      000000N
300372M072104501CARAM.ROSSANA PISTACCHIO BST       1010531040003620220309100  1  NNKG000001350000001350N00000001000054001PZU00010000000000100000000ECARAM.ROSSANA PISTAC$00000E00000000072104501      CARAM.ROSSANA PISTACCHIO BST       00000000072104501      IC00000010099999999900024EL0000000101202310269999999900000000177E0000012023102699999999U0001000000000002498020250415220333EL5       EUR000000P00032S$ALL  $$$$$      000000N
300372M073661201CARAM.ROSSANA PISTACCHIO BST       1010531040003620250304100  1  NNKG000001500000001500N00000001000054001PZU00010000000000100000000ICARAM.ROSSANA PISTAC$00000I00000000073661201      CARAM.ROSSANA PISTACCHIO BST       00000000073661201      IC00000010099999999900024IL0000000101202504179999999900000000180E0000012025041799999999U0001000000000002498020250415220425EL5       EUR000000P00080N$ALL  $$$$$      000000N
300372M000023001CARAMELLE ASS.RIPIENE SPERLARI BS  1010531040016019861202100  1  NNKG000005000000005000N00000001000072001PZU00010000000000100000000ICARAM.ASS.RIPIENE SP$00000E00000000000023001      CARAMELLE ASS.RIPIENE SPERLARI BS  00000000000023001      IC00000010099999990000020EL0000000101202311169999999900000000235E0000012023111699999999U0001000000000003098020250415220333EL5       EUR000000P00024S$ALL  $$$$$      000000N
300372M004658201CAR.SPERLARI SACCH.CAFFE'LAVAZZA   1010531040054019990330100  1  NNKG000001750000001750N00000001000036001PZU00010000000000100000000ICAR.SPERLARI SACCH.C$00000I00000000004658201      CAR.SPERLARI SACCH.CAFFE'LAVAZZA   00000000004658201      IC00000010099999999900018IL0000000101202309149999999900000000125E0000012023091499999999U0001000000000001798020250415220333EL5       EUR000000P00036S$ALL  $$$$$      000000N
300372M073412601M&M'S MINIS                        1010531220004120240821100  1  NNKG000001760000002000N00000001000036001PZU00010000000000100000000IM&M'S MINIS         $00000O00000000073412601      M&M'S MINIS                        00000000073412601      IC00000010099999999900027OL0000000101202409059999999900000000205E0000012024090599999999U0001000000000002958020250415220333EL5       EUR000000P00080S$ALL  $$$$$      000000N
300372M000277801CAFFE CONAD GUSTO CLASSICO         1011101190000519880519220  1  NSKG000002500000002500N00000001000054001PZU00010000000000100000000ICAFFE CONAD GU/CLASS$00000I00000000000277801      CAFFE CONAD GUSTO CLASSICO         00000000000277801      IC00000010099999990000020IL0000000101202501029999999900000000206E0000012025010299999999U0001000000000002898020250415220333EL5       EUR000000P00060SCALL  $$$$$      000000N
300372M004047601CAFFE' CONAD GUSTO CLASS. GR.250X2 1011101190000619980518220  1  NSKG000005000000005000N00000001000054001PZU00010000000000100000000ICAFFE' CONAD GUSTO C$00000I00000000004047601      CAFFE' CONAD GUSTO CLASS. GR.250X2 00000000004047601      IC00000010099999999900010IL0000000101202501029999999900000000390E0000012025010299999999U0001000000000005198020250415220333EL5       EUR000000P00060SCALL  $$$$$      000000N
300372M004047801CAFFE'CONAD GUSTO AROMA GR.250X2   1011101190024019980518220  1  NSKG000005000000005000N00000001000054001PZU00010000000000100000000ICAFFE'CONAD GUST/ARO$00000I00000000004047801      CAFFE'CONAD GUSTO AROMA GR.250X2   00000000004047801      IC00000010099999999900010IL0000000101202501029999999900000000411E0000012025010299999999U0001000000000005398020250415220333EL5       EUR000000P00055SCALL  $$$$$      000000N
300372M002435801CAFFE'CONAD GUSTO AROMA            1011101190026019930816220  1  NSKG000002500000002500N00000001000054001PZU00010000000000100000000ICAFFE'CONAD GUST/ARO$00000I00000000002435801      CAFFE'CONAD GUSTO AROMA            00000000002435801      IC00000010099999990000020IL0000000101202501029999999900000000210E0000012025010299999999U0001000000000002898020250415220333EL5       EUR000000P00066SCALL  $$$$$      000000N
300372M004318601CAFFE'CONAD GUSTO E AROMA DOLCE    1011101190026319981023220  1  NSKG000002500000002500N00000001000054001PZU00010000000000100000000ICAFFE'CONAD AR.DOLCE$00000I00000000004318601      CAFFE'CONAD GUSTO E AROMA DOLCE    00000000004318601      IC00000010099999999900020IL0000000101202501029999999900000000210E0000012025010299999999U0001000000000002898020250415220333EL5       EUR000000P00066SCALL  $$$$$      000000N
300372M067730401CAFFE'CONAD ORO ARAB.100% GR.250 X21011101220001020090807220  1  NSKG000005000000005000N00000001000054001PZU00010000000000100000000ICAFFE'CONAD ORO ARAB$00000I00000000067730401      CAFFE'CONAD ORO ARAB.100% GR.250 X200000000067730401      IC00000010099999999900010IL0000000101202501029999999900000000502E0000012025010299999999U0001000000000006598020250415220333EL5       EUR000000P00066SCALL  $$$$$      000000N
300372M000278001CAFFE CONAD ESPRESSO BAR GR.250    1011101250000119880519220  1  NSKG000002500000002500N00000001000054001PZU00010000000000100000000ICAFFE CONAD ESPRESSO$00000I00000000000278001      CAFFE CONAD ESPRESSO BAR GR.250    00000000000278001      IC00000010099999990000020IL0000000101202501029999999900000000220E0000012025010299999999U0001000000000002998020250415220333EL5       EUR000000P00066SCALL  $$$$$      000000N
300372M004387901CAFFE' CONAD ESPRESSO BAR  GR.250X21011101250000119981215220  1  NSKG000005000000005000N00000001000054001PZU00010000000000100000000ICAFFE' CONAD ESP.BAR$00000I00000000004387901      CAFFE' CONAD ESPRESSO BAR  GR.250X200000000004387901      IC00000010099999999900010IL0000000101202501029999999900000000426E0000012025010299999999U0001000000000005598020250415220333EL5       EUR000000P00066SCALL  $$$$$      000000N
300372M004047701CAFFE' CONAD DECAFFEINATO          1011104010000119980518220  1  NSKG000002500000002500N00000001000054001PZU00010000000000100000000ICAFFE'CONAD DECAFFEI$00000I00000000004047701      CAFFE' CONAD DECAFFEINATO          00000000004047701      IC00000010099999999900020IL0000000101202501029999999900000000205E0000012025010299999999U0001000000000002998020250415220333EL5       EUR000000P00066SCALL  $$$$$      000000N
300372M071984901CAPS.BORBONE A M.MIO DECISA X50    1011105340162020220103220  1  NNKG000003600000003600N00000001000072001PZU00010000000000100000000ICAPS.BORB.A M.MIO DE$00000I00000000071984901      CAPS.BORBONE A M.MIO DECISA X50    00000000071984901      IC00000010099999999900016IL0000000101202504179999999900000000780E0000012025041799999999U0001000000000011908020250415220420EL5       EUR000000P00008S$PAC  $$$$$      000000N
300372M071985601CAPS.BORBONE NESPRESSO DECISA X50  1011105371608020220103220  1  NNKG000002500000002500N00000001000072001PZU00010000000000100000000ICAPS.BORBONE NESP.DE$00000I00000000071985601      CAPS.BORBONE NESPRESSO DECISA X50  00000000071985601      IC00000010099999999900016IL0000000101202504179999999900000000780E0000012025041799999999U0001000000000011908020250415220420EL5       EUR000000P00256S$PAC  $$$$$      000000N
300372M070878901CIALDE LAVAZ.CREMA E GUSTO X50     1011106010039820200526220  1  NNKG000003500000003500N00000001000072001PZU00010000000000100000000ICIALDE LAVAZ.CREMA E$00000I00000000070878901      CIALDE LAVAZ.CREMA E GUSTO X50     00000000070878901      IC00000010099999999900004IL0000000101202502139999999900000000715E0000012025021399999999U0001000000000011498020250415220333EL5       EUR000000P00050S$ALL  $$$$$      000000N
300372M070522801TISANE FREDDE FITNESS X18          1011122040053120190415100  1  NNKG000000450000000450N00000001000036001PZU00010000000000100000000FTISANE FREDDE FITNES$00000F00000000070522801      TISANE FREDDE FITNESS X18          00000000070522801      IC00000010099999999900010FL0000000101202204079999999900000000212E0000012022040799999999U0001000000000003258020250415220412EL5       EUR000000P00072N$PAC  $$$$$      000000N
300372M067505101CONAD CREMA CON ASPARAGI BUSTA     1011301010000220080926100  1  NSKG000001010000001010N00000001000036001PZU00010000000000100000000ICONAD CREMA C/ASPAR.$00000I00000000067505101      CONAD CREMA CON ASPARAGI BUSTA     00000000067505101      IC00000010099999999900012IL0000000101202308179999999900000000082E0000012023081799999999U0001000000000001298020250415220333EL5       EUR000000P00100SCALL  $$$$$      000000N
300372M068365801CONAD CREMA CON FUNGHI PORCINI     1011301010000220111219100  1  NSKG000001010000001010N00000001000036001PZU00010000000000100000000ICONAD CREMA C/FUNGHI$00000I00000000068365801      CONAD CREMA CON FUNGHI PORCINI     00000000068365801      IC00000010099999999900012IL0000000101202308179999999900000000082E0000012023081799999999U0001000000000001298020250415220333EL5       EUR000000P00060SCALL  $$$$$      000000N
300372M069778901CONAD CREMA PATATE E PORRI         1011301010000220161116100  1  NSKG000001000000001000N00000001000036001PZU00010000000000100000000ICONAD CREMA GR.100  $00000I00000000069778901      CONAD CREMA PATATE E PORRI         00000000069778901      IC00000010099999999900012IL0000000101202308179999999900000000082E0000012023081799999999U0001000000000001298020250415220333EL5       EUR000000P00120SCALL  $$$$$      000000N
300372M069778902CONAD CREMA ZUCCA/PATATE/PORCINI   1011301010000220161116100  1  NSKG000000700000000700N00000001000036001PZU00010000000000100000000ICONAD CREMA GR.70   $00000I00000000069778902      CONAD CREMA ZUCCA/PATATE/PORCINI   00000000069778902      IC00000010099999999900012IL0000000101202308179999999900000000082E0000012023081799999999U0001000000000001298020250415220333EL5       EUR000000P00120SCALL  $$$$$      000000N
300372M068098601CONAD MINESTRONE DI VERDURE        1011301040000320101130100  1  NSKG000005000000005000N00000001000036001PZU00010000000000100000000IMINESTRONE D/VERDURE$00000I00000000068098601      CONAD MINESTRONE DI VERDURE        00000000068098601      IC00000010099999999900012IL0000000101202308179999999900000000082E0000012023081799999999U0001000000000001298020250415220333EL5       EUR000000P00102SCALL  $$$$$      000000N
300372M068098701CONAD PASSATO DI VERDURE ASTUCCIO  1011301040000520101130100  1  NSKG000005000000005000N00000001000036001PZU00010000000000100000000ICONAD PASSATO VERD. $00000I00000000068098701      CONAD PASSATO DI VERDURE ASTUCCIO  00000000068098701      IC00000010099999999900012IL0000000101202308179999999900000000082E0000012023081799999999U0001000000000001298020250415220333EL5       EUR000000P00102SCALL  $$$$$      000000N
300372M068098801CONAD ZUPPA DI FAGIOLI ASTUCCIO    1011301040000520101130100  1  NSKG000005000000005000N00000001000036001PZU00010000000000100000000ICONAD ZUPPA FAGIOLI $00000I00000000068098801      CONAD ZUPPA DI FAGIOLI ASTUCCIO    00000000068098801      IC00000010099999999900012IL0000000101202308179999999900000000082E0000012023081799999999U0001000000000001298020250415220333EL5       EUR000000P00102SCALL  $$$$$      000000N
300372M068514801CONAD ZUPPA DI ZUCCA               1011301040000520120612100  1  NSKG000005000000005000N00000001000036001PZU00010000000000100000000ICONAD ZUPPA DI ZUCCA$00000I00000000068514801      CONAD ZUPPA DI ZUCCA               00000000068514801      IC00000010099999999900012IL0000000101202308179999999900000000082E0000012023081799999999U0001000000000001298020250415220333EL5       EUR000000P00102SCALL  $$$$$      000000N
300372M069735201CONAD ZUPPA DI CECI BRIK           1011301040000520160928100  1  NSKG000005000000005000N00000001000027001PZU00010000000000100000000ICONAD ZUPPA DI CECI $00000I00000000069735201      CONAD ZUPPA DI CECI BRIK           00000000069735201      IC00000010099999999900012IL0000000101202308179999999900000000082E0000012023081799999999U0001000000000001298020250415220333EL5       EUR000000P00102SCALL  $$$$$      000000N
300372M069735301CONAD PASSATO PATATE/CAROTE BRIK   1011301040000520160928100  1  NSKG000005000000005000N00000001000027001PZU00010000000000100000000ICONAD PASSAT.PAT/CAR$00000I00000000069735301      CONAD PASSATO PATATE/CAROTE BRIK   00000000069735301      IC00000010099999999900012IL0000000101202308179999999900000000082E0000012023081799999999U0001000000000001298020250415220333EL5       EUR000000P00102SCALL  $$$$$      000000N
300372M072000201CONAD MINESTRONE LEGUMI BRIK       1011301040000520220114100  1  NSLT000005000000005000N00000001000027001PZU00010000000000100000000ICONAD MINESTR.LEGUMI$00000I00000000072000201      CONAD MINESTRONE LEGUMI BRIK       00000000072000201      IC00000010099999999900012IL0000000101202308179999999900000000082E0000012023081799999999U0001000000000001298020250415220333EL5       EUR000000P00102SCALL  $$$$$      000000N
300372M069042601PAT.P/GUSTO LIME E.1,00 S.CARLO    1011316010057620140529100  1  NNKG000000700000000700N00000001000015001PZU00010000000000100000000FPATATINE PIU' GUSTO $00000F00000000069042601      PAT.P/GUSTO LIME E.1,00 S.CARLO    00000000069042601      IC00000010099999999900015FL0000000101201612089999999900000000059E0000012014060599999999U0001000000000000998020250415220355EL5       EUR000000P00012N$ALL  $$$$$      000000N
300372M071626703TORTILLAS DORITOS BBQ              1011319010150020230726100  1  NNKG000001400000001400N00000001000015001PZU00010000000000100000000ITORTILLAS DORITOS   $00000I00000000071626703      TORTILLAS DORITOS BBQ              00000000071626703      IC00000010099999999900010IL0000000101202308109999999900000000162E0000012023081099999999U0001000000000002488020250415220333EL5       EUR000000P00024S$ALL  $$$$$      000000N
300372M068783801MISTO SALATO TOST.VENTURA          1011325220070520130531100  1  NNKG000002500000002500N00000001000036001PZU00010000000000100000000IMISTO SALATO VENTURA$00000I00000000068783801      MISTO SALATO TOST.VENTURA          00000000068783801      IC00000010099999999900012IL0000000101202504179999999900000000280E0000012022082599999999U0001000000000003998020250415220352EL5       EUR000000P00064S$ALL  $$$$$      000000N
300372M070755501LATTE MELLIN GUM CRESCITA 3 BTG    1011328060003620200127100  1  NNLT000010000000010000N00000001000030001PZU00010000000000100000000ILATTE MELLIN GUM CRE$00000I00000000070755501      LATTE MELLIN GUM CRESCITA 3 BTG    00000000070755501      IC00000010099999999900006IL0000000101202310269999999900000000223E0000012023102699999999U0001000000000002598020250415220333EL5       EUR000000P00120S$ALL  $$$$$      000000N
300372M070755601LATTE MELLIN GUM CRESC.4 BTG ML10001011328060003620200127100  1  NNLT000010000000010000N00000001000030001PZU00010000000000100000000ILATTE MELLIN GUM CRE$00000I00000000070755601      LATTE MELLIN GUM CRESC.4 BTG ML100000000000070755601      IC00000010099999999900006IL0000000101202310269999999900000000223E0000012023102699999999U0001000000000002598020250415220333EL5       EUR000000P00120S$ALL  $$$$$      000000N
300372M070284601SUGO POMODORO C/LEGUMI BIO A.NERO  1011328330010020180717100  1  NNKG000001600000001600N00000001000072001PZU00010000000000100000000FSUGO POM.C/LEGUM.BIOQ00000F00000000070284601      SUGO POMODORO C/LEGUMI BIO A.NERO  00000000070284601      IC00000010099999999900006FL0000000101202204079999999900000000072E0000012022040799999999U0001000000000001298020250415220410EL5       EUR000000P00360S$ALL  $$$$$      000000N
300372M069159101FRUTTA CANDITA MACEDONIA SETOLA VS 1011346010021020141009100  1  NNKG000001000000001000N00000001000036001PZU00010000000000100000000IFRUT.CAND.MACEDONIA $00000E00000000069159101      FRUTTA CANDITA MACEDONIA SETOLA VS 00000000069159101      IC00000010099999999900012EL0000000101202409129999999900000000080E0000012024091299999999U0001000000000001288020250415220333EL5       EUR000000P00031S$ALL  $$$$$      000000N
300372M068804901CEDRO CUBETTI SETOLA VASETTO       1011346010022720130627100  1  NNKG000001000000002000N00000001000036001PZU00010000000000100000000ICEDRO CUBETTI GR.100$00000E00000000068804901      CEDRO CUBETTI SETOLA VASETTO       00000000068804901      IC00000010099999999900012EL0000000101202409129999999900000000097E0000012024091299999999U0001000000000001558020250415220333EL5       EUR000000P00150S$ALL  $$$$$      000000N
300372M068805401CEDRO INTERO SETOLA VASETTO        1011346010023220130627100  1  NNKG000002000000002000N00000001000036001PZU00010000000000100000000ICEDRO INTERO GR.200 $00000E00000000068805401      CEDRO INTERO SETOLA VASETTO        00000000068805401      IC00000010099999999900012EL0000000101202409129999999900000000195E0000012024091299999999U0001000000000002998020250415220333EL5       EUR000000P00120S$ALL  $$$$$      000000N
300372M068805402CEDRO MISTO SETOLA VASETTO         1011346010023220130627100  1  NNKG000002000000002000N00000001000036001PZU00010000000000100000000ICEDRO MISTO SETOLA  $00000E00000000068805402      CEDRO MISTO SETOLA VASETTO         00000000068805402      IC00000010099999999900012EL0000000101202409129999999900000000195E0000012024091299999999U0001000000000002998020250415220333EL5       EUR000000P00120S$ALL  $$$$$      000000N
300372M068804601CILIEGE MISTE SETOLA VASETTO       1011346010024420130627100  1  NNKG000001000000001000N00000001000072001PZU00010000000000100000000ICILIEGE MISTE SETOLA$00000E00000000068804601      CILIEGE MISTE SETOLA VASETTO       00000000068804601      IC00000010099999999900012EL0000000101202409129999999900000000097E0000012024091299999999U0001000000000001558020250415220333EL5       EUR000000P00150S$ALL  $$$$$      000000N
300372M068804701CILIEGE ROSSE SETOLA VASETTO       1011346010024520130627100  1  NNKG000001000000001000N00000001000036001PZU00010000000000100000000ICILIEGE ROSSE SETOLA$00000E00000000068804701      CILIEGE ROSSE SETOLA VASETTO       00000000068804701      IC00000010099999999900012EL0000000101202409129999999900000000097E0000012024091299999999U0001000000000001558020250415220333EL5       EUR000000P00150S$ALL  $$$$$      000000N
300372M068804801CILIEGE VERDI SETOLA VASETTO       1011346010025220130627100  1  NNKG000001000000001000N00000001000072001PZU00010000000000100000000ICILIEGE VERDI SETOLA$00000E00000000068804801      CILIEGE VERDI SETOLA VASETTO       00000000068804801      IC00000010099999999900012EL0000000101202409129999999900000000097E0000012024091299999999U0001000000000001558020250415220333EL5       EUR000000P00150S$ALL  $$$$$      000000N
300372M068805301FRUTTA CAND.CUBE.LIMONE SETOLA VS. 1011346010026020130627100  1  NNKG000001000000001000N00000001000072001PZU00010000000000100000000IFR.CAND.CUBET.SETOLA$00000E00000000068805301      FRUTTA CAND.CUBE.LIMONE SETOLA VS. 00000000068805301      IC00000010099999999900012EL0000000101202409129999999900000000072E0000012024091299999999U0001000000000001208020250415220333EL5       EUR000000P00150S$ALL  $$$$$      000000N
300372M068805101FRUTTA CAN.TOND.ARANCIO SETOLA VS. 1011346010026220130627100  1  NNKG000001000000001000N00000001000072001PZU00010000000000100000000IFR.CAND.TOND.ARANCIO$00000E00000000068805101      FRUTTA CAN.TOND.ARANCIO SETOLA VS. 00000000068805101      IC00000010099999999900012EL0000000101202409129999999900000000070E0000012024091299999999U0001000000000001108020250415220333EL5       EUR000000P00150S$ALL  $$$$$      000000N
300372M068805001FRUTTA CUBETTI MISTI SETOLA        1011346010026520130627100  1  NNKG000001000000001000N00000001000036001PZU00010000000000100000000IFRUTTA MISTA CUBETTI$00000E00000000068805001      FRUTTA CUBETTI MISTI SETOLA        00000000068805001      IC00000010099999999900012EL0000000101202409129999999900000000070E0000012024091299999999U0001000000000001108020250415220333EL5       EUR000000P00150S$ALL  $$$$$      000000N
300372M070840501GHIACCIOLI POLARETTI DOLFIN X10    1011358100002220200331100  1  NNLT000004200000004200N00000001000072001PZU00010000000000100000000IGHIACC.POLARETTI    $00000I00000000070840501      GHIACCIOLI POLARETTI DOLFIN X10    00000000070840501      IC00000010099999999900040IL0000000101202503279999999900000000150E0000012025032799999999U0001000000000002198020250415220333EL5       EUR000000P00040N$PAC  $$$$$      000000N
300372M070840502POLARETTI GIRL DOLFIN X10          1011358100002220200331100  1  NNLT000004200000004200N00000001000072001PZU00010000000000100000000IPOLARETTI GIRL      $00000I00000000070840502      POLARETTI GIRL DOLFIN X10          00000000070840502      IC00000010099999999900040IL0000000101202503279999999900000000150E0000012025032799999999U0001000000000002198020250415220333EL5       EUR000000P00024S$PAC  $$$$$      000000N
300372M070840503POLARETTI SUMMER DOLFIN X10        1011358100002220220408100  1  NNLT000004200000004200N00000001000072001PZU00010000000000100000000IPOLARETTI SUMMER X10$00000I00000000070840503      POLARETTI SUMMER DOLFIN X10        00000000070840503      IC00000010099999999900040IL0000000101202503279999999900000000150E0000012025032799999999U0001000000000002198020250415220333EL5       EUR000000P00012S$PAC  $$$$$      000000N
300372M070840901GHIACCIOLI SENSO FREDDO DOLFIN X10 1011358100002520200331100  1  NNLT000004200000004200N00000001000036001PZU00010000000000100000000IGHIACC.SENSO FREDDO $00000I00000000070840901      GHIACCIOLI SENSO FREDDO DOLFIN X10 00000000070840901      IC00000010099999999900018IL0000000101202503279999999900000000150E0000012025032799999999U0001000000000002198020250415220333EL5       EUR000000P00064S$PAC  $$$$$      000000N
300372M068684401CREMA SPALMABILE NOVI              1011361018000020130205100  1  NNKG000002000000002000N00000001000036001PZU00010000000000100000000ICREMA SPALMABILE    $00000I00000000068684401      CREMA SPALMABILE NOVI              00000000068684401      IC00000010099999999900012IL0000000101202504179999999900000000335E0000012025041799999999U0001000000000004498020250415220352EL5       EUR000000P00072S$PAC  $$$$$      000000N
300372M069866401FITNESS CUP CIOCCOLATO             1011370010003720170309100  1  NNKG000000450000000450N00000001000033001PZU00010000000000100000000FFITNESS CUP CIOCC.  $00000F00000000069866401      FITNESS CUP CIOCCOLATO             00000000069866401      IC00000010099999999900008FL0000000101201703239999999900000000062E0000012017032399999999U0001000000000001008020250415220405EL5       EUR000000P00120S$ALL  $$$$$      000000N
300372M068104501PETALI CEREALI CACAO CONAD         1011370070000620101217100  1  NSKG000003750000003750N00000001000042001PZU00010000000000100000000IPETALI CEREALI CACAO$00000I00000000068104501      PETALI CEREALI CACAO CONAD         00000000068104501      IC00000010099999999900006IL0000000101202404259999999900000000145E0000012024050299999999U0001000000000002158020250415220333EL5       EUR000000P00036SCALL  $$$$$      000000N
300372M067977501PALLINE CEREALI CACAO CONAD        1011370070000720100705100  1  NSKG000003750000003750N00000001000042001PZU00010000000000100000000IPALLINE CER.CACAO   $00000I00000000067977501      PALLINE CEREALI CACAO CONAD        00000000067977501      IC00000010099999999900006IL0000000101202404259999999900000000145E0000012024050299999999U0001000000000002158020250415220333EL5       EUR000000P00036SCALL  $$$$$      000000N
300372M067977401CIAMBELLINE MIELE CONAD            1011370070001020100705100  1  NSKG000003750000003750N00000001000030001PZU00010000000000100000000ICIAMBELLINE AL MIELE$00000I00000000067977401      CIAMBELLINE MIELE CONAD            00000000067977401      IC00000010099999999900006IL0000000101202404259999999900000000145E0000012024050299999999U0001000000000002158020250415220333EL5       EUR000000P00036SCALL  $$$$$      000000N
300372M067977402PALLINE AL MIELE CONAD             1011370070001020241126100  1  NSKG000003750000003750N00000001000030001PZU00010000000000100000000IPALLINE AL MIELE CON$00000I00000000067977402      PALLINE AL MIELE CONAD             00000000067977402      IC00000010099999999900006IL0000000101202501239999999900000000145E0000012025012399999999U0001000000000002158020250415220333EL5       EUR000000P00036SCALL  $$$$$      000000N
300372M073077701KELLOGG COCO POPS LOOPS E.2,49     1011370070011120231115100  1  NNKG000002850000002850N00000001000036001PZU00010000000000100000000IKELLOGG COCO POPS   $00000E00000000073077701      KELLOGG COCO POPS LOOPS E.2,49     00000000073077701      IC00000010099999999900005EL0000000101202402019999999900000000180E0000012024020199999999U0001000000000002498020250415220333EL5       EUR000000P00064N$ALL  $$$$$      000000N
300372M072827903BEVANDA SOIA BARISTA CONAD LT 1    1011385190020120250210220  1  NSLT000010000000010000N00000001000024002PZU00010000000000100000000IBEVANDA SOIA BARISTA$00000I00000000072827903      BEVANDA SOIA BARISTA CONAD LT 1    00000000072827903      IC00000010099999999900008IL0000000101202503272025043000000000105E0000012025032720250430U0001000000000001798020250415220333EL5       EUR000000P00095NCALL  BEF        000000N
300372M073323301BEVANDA DI RISO ORASI'             1011385190070020240520220  1  NNLT000010000000010000N00000001000036001PZU00010000000000100000000IBEVANDA RISO ORASI' $00000I00000000073323301      BEVANDA DI RISO ORASI'             00000000073323301      IC00000010099999999900012IL0000000101202406139999999900000000136E0000012024061399999999U0001000000000002398020250415220333EL5       EUR000000P00065S$ALL  $$$$$      000000N
300372M073323801BEV.AVENA C/CALCIO S/ZUC.AGG.ORASI'1011385190070420240520220  1  NNLT000010000000010000N00000001000036001PZU00010000000000100000000IBEV.AVEN.S.Z.A.ORASI$00000I00000000073323801      BEV.AVENA C/CALCIO S/ZUC.AGG.ORASI'00000000073323801      IC00000010099999999900012IL0000000101202406139999999900000000152E0000012024061399999999U0001000000000002698020250415220333EL5       EUR000000P00065S$ALL  $$$$$      000000N
300372M072389802SCIROPPO D' ACERO ZERO PROZIS      1011385310000220230116100  1  NNKG000003550000003550N00000001000036001PZU00010000000000100000000ISCIROPPO D' ACERO ZE$00000I00000000072389802      SCIROPPO D' ACERO ZERO PROZIS      00000000072389802      IC00000010099999999900012IL0000000101202411149999999900000000190E0000012024111499999999U0001000000000002758020250415220333EL5       EUR000000P00105S$ALL  $$$$$      000000N
300372M072244101ACETO DUE VITTORIE MELE INVECCHIATO1011701100030020220629100  1  NNLT000002500000002500N00000001000180001PZU00010000000000100000000IACETO DUE VITTORIE M$00000I00000000072244101      ACETO DUE VITTORIE MELE INVECCHIATO00000000072244101      IC00000010099999999900006IL0000000101202403219999999900000000183E0000012024032199999999U0001000000000002898020250415220333EL5       EUR000000P00252N$ALL  $$$$$      000000N
300372M067642901CONDIMENTO DOLCEAGRO PONTI         1011701100100020090401100  1  NNLT000005000000005000N00000001000054001PZU00010000000000100000000ICONDIMENTO DOLCEAGRO$00000I00000000067642901      CONDIMENTO DOLCEAGRO PONTI         00000000067642901      IC00000010099999999900006IL0000000101202504179999999900000000177E0000012025041799999999U0001000000000002398020250415220345EL5       EUR000000P00075S$ALL  $$$$$      000000N
300372M073383701SALSA CILIEGINO GIALLO BOTT.SICILIA1011713040120520240719100  1  NNKG000003300000003300N00000001000108001PZU00010000000000100000000ESALSA CILIEG.GIALLO $00000E00000000073383701      SALSA CILIEGINO GIALLO BOTT.SICILIA00000000073383701      IC00000010099999999900012EL0000000101202411289999999900000000140E0000012024112899999999U0001000000000001958020250415220333EL5       EUR000000P00120S$ALL  $$$$$      000000N
300372M073311801SALSA PR.CILIEGINO AGROMONTE G330X21011713100160020240509100  1  NNKG000006600000006600N00000001000108001PZU00010000000000100000000OSALSA PRON.AGROMONTE$00000O00000000073311801      SALSA PR.CILIEGINO AGROMONTE G330X200000000073311801      IC00000010099999999900006OL0000000101202405169999999900000000198E0000012024051699999999U0001000000000002998020250415220333EL5       EUR000000P00135N$ALL  $$$$$      000000N
300372M073311802SALSA PR.DATTERINO AGROMONTE G330X21011713100160020240509100  1  NNKG000006600000006600N00000001000108001PZU00010000000000100000000OSALSA PRON.AGROMONTE$00000O00000000073311802      SALSA PR.DATTERINO AGROMONTE G330X200000000073311802      IC00000010099999999900006O 0000000000000000000000000000000000000 0000000000000000000000U0001000000000000008020250415220333EL5       EUR000000P00135N$ALL  $$$$$      000000N
300372M069184101POMOD.DATTERINI COLLINA LA TORRENTE1011904010049620141110040  1  NNKG000002600000004000N00000001000120001PZU00010000000000100000000IPOMODORINI DATTERINI$00000I00000000069184101      POMOD.DATTERINI COLLINA LA TORRENTE00000000069184101      IC00000010099999999900024IL0000000101202303029999999900000000070E0000012025041799999999U0001000000000000908020250415220356EL5       EUR000000P00048N$ALL  $$$$$      000000N
300372M009718301POMODORINI COLLINA TORRENTE        1011904010050020050317040  1  NNKG000002400000004000N00000001000108001PZU00010000000000100000000IPOMODORINI TORRENTE $00000I00000000009718301      POMODORINI COLLINA TORRENTE        00000000009718301      IC00000010099999999900024IL0000000101202504109999999900000000070E0000012021050699999999U0001000000000000908020250415220341EL5       EUR000000P00048N$ALL  $$$$$      000000N
300372M070298001PISELLI CONAD BIO V.NATURA V.V.    1011934040000420180810100  1  NSKG000002400000003400N00000001000072001PZU00010000000000100000000IPISELLI CONAD BIO VNQ00000E00000000070298001      PISELLI CONAD BIO V.NATURA V.V.    00000000070298001      IC00000010099999999900012EL0000000101202309289999999900000000098E0000012023092899999999U0001000000000001608020250415220333EL5       EUR000000P00100SVALL  $$$$$      000000N
300372M070145701CARNE IN GELATINA CONAD GR.90 X3   1012101010000320180206100  1  NSKG000002700000002700N00000001000090001PZU00010000000000100000000ICARNE GELATINA CONAD$00000I00000000070145701      CARNE IN GELATINA CONAD GR.90 X3   00000000070145701      IC00000010099999999900016IL0000000101202501029999999900000000215E0000012025010299999999U0001000000000003158020250415220333EL5       EUR000000P00100SCALL  $$$$$      000000N
300372M071695101CARNE IN GELATINA CONAD GR.90 X6   1012101010000320210413100  1  NSKG000005400000005400N00000001000090001PZU00010000000000100000000ICARNE GELATINA CONAD$00000I00000000071695101      CARNE IN GELATINA CONAD GR.90 X6   00000000071695101      IC00000010099999999900008IL0000000101202501029999999900000000425E0000012025010299999999U0001000000000005658020250415220333EL5       EUR000000P00100SCALL  $$$$$      000000N
300372M070769801CARNE IN GELATINA CONAD GR.140 X3  1012101010000420200213100  1  NSKG000004200000004200N00000001000090001PZU00010000000000100000000ICARNE IN GELAT.CONAD$00000I00000000070769801      CARNE IN GELATINA CONAD GR.140 X3  00000000070769801      IC00000010099999999900016IL0000000101202501029999999900000000325E0000012025010299999999U0001000000000004158020250415220333EL5       EUR000000P00066SCALL  $$$$$      000000N
300372M001880701TONNO RIOMARE O.OLIVA GR.80X4      1012107010005019921224100  1  NNKG000003200000003200N00000001000180001PZU00010000000000100000000ITONNO RIOMARE 80G.X4$00000E00000000001880701      TONNO RIOMARE O.OLIVA GR.80X4      00000000001880701      IC00000010099999990000024EL0000000101202408299999999900000000478P0000732024082999999999U0001000000000005598020250415220333EL5       EUR000000P00054S$ALL  RIB        000000N
300372M072672601TONNO MARE APERTO OL.OLIVA GR.70 X61012107010012520230420100  1  NNKG000004200000004200N00000001000144001PZU00010000000000100000000ITONNO M.APERTO 70GX6$00000O00000000072672601      TONNO MARE APERTO OL.OLIVA GR.70 X600000000072672601      IC00000010099999999900016O 0000000000000000000000000000000000000 0000000000000000000000U0001000000000000008020250415220333EL5       EUR000000P00056S$ALL  $$$$$      000000N
300372M070440601BEVANDA SKIP.ALBIC.BRIK S.Z.ML200X31030301040021020190118220  1  NNLT000006000000006000N00000001000042001PZU00010000000000100000000IBEVANDA SKIP.ALBIC.B$00000I00000000070440601      BEVANDA SKIP.ALBIC.BRIK S.Z.ML200X300000000070440601      IC00000010099999999900008IL0000000101202504179999999900000000107E0000012019030799999999U0001000000000001598020250415220411EL5       EUR000000P00108S$ALL  $$$$$      000000N
300372M070440602BEVANDA SKIP.PERA BRIK S.Z.ML200X3 1030301040021020190118220  1  NNLT000006000000006000N00000001000042001PZU00010000000000100000000IBEVANDA SKIP.PERA BR$00000I00000000070440602      BEVANDA SKIP.PERA BRIK S.Z.ML200X3 00000000070440602      IC00000010099999999900008IL0000000101202504179999999900000000107E0000012019030799999999U0001000000000001598020250415220411EL5       EUR000000P00108S$ALL  $$$$$      000000N
300372M070440603BEVANDA SKIP.PESCA BRIK S.Z.ML200X31030301040021020190118220  1  NNLT000006000000006000N00000001000042001PZU00010000000000100000000IBEVANDA SKIP.PESCA B$00000I00000000070440603      BEVANDA SKIP.PESCA BRIK S.Z.ML200X300000000070440603      IC00000010099999999900008IL0000000101202504179999999900000000107E0000012019030799999999U0001000000000001598020250415220411EL5       EUR000000P00108S$ALL  $$$$$      000000N
300372M070440604BEVANDA SKIPP.MELA BRIK S.Z.ML200X31030301040021020190118220  1  NNLT000006000000006000N00000001000042001PZU00010000000000100000000IBEVANDA SKIPP.MELA B$00000I00000000070440604      BEVANDA SKIPP.MELA BRIK S.Z.ML200X300000000070440604      IC00000010099999999900008IL0000000101202504179999999900000000107E0000012019030799999999U0001000000000001598020250415220411EL5       EUR000000P00108S$ALL  $$$$$      000000N
300372M070440605BEV.SKIPPER ACE BRIK S.Z.ML200X3   1030301040021020190118220  1  NNLT000006000000006000N00000001000042001PZU00010000000000100000000IBEV.SKIPPER ACE BRIK$00000I00000000070440605      BEV.SKIPPER ACE BRIK S.Z.ML200X3   00000000070440605      IC00000010099999999900008IL0000000101202504179999999900000000107E0000012019030799999999U0001000000000001598020250415220411EL5       EUR000000P00108S$ALL  $$$$$      000000N
300372M070440606BEVANDA SK.F.BOSCO BRIK S.Z.ML200X31030301040021020190118220  1  NNLT000006000000006000N00000001000042001PZU00010000000000100000000IBEVANDA SK.F.BOSCO B$00000I00000000070440606      BEVANDA SK.F.BOSCO BRIK S.Z.ML200X300000000070440606      IC00000010099999999900008IL0000000101202504179999999900000000107E0000012019030799999999U0001000000000001598020250415220411EL5       EUR000000P00108S$ALL  $$$$$      000000N
300372M069905801FRULL.100% MIX VEGGIE VERDE VALFRUT1030304040060020170426220  1  NNLT000010000000010000N00000001000036001PZU00010000000000100000000IFRULLATO 100% MIX   $00000I00000000069905801      FRULL.100% MIX VEGGIE VERDE VALFRUT00000000069905801      IC00000010099999999900006IL0000000101202504179999999900000000130E0000012025041799999999U0001000000000001998020250415220405EL5       EUR000000P00140S$ALL  $$$$$      000000N
300372M069905802FRULL.100% MIX VEGGIE VIOLA VALFRUT1030304040060020170426220  1  NNLT000010000000010000N00000001000036001PZU00010000000000100000000IFRULLATO 100% MIX   $00000I00000000069905802      FRULL.100% MIX VEGGIE VIOLA VALFRUT00000000069905802      IC00000010099999999900006IL0000000101202504179999999900000000130E0000012025041799999999U0001000000000001998020250415220405EL5       EUR000000P00140S$ALL  $$$$$      000000N
300372M069905803FRULL.100% MIX VEGGIE ARANC.VALFRUT1030304040060020170426220  1  NNLT000010000000010000N00000001000036001PZU00010000000000100000000IFRULLATO 100% MIX   $00000I00000000069905803      FRULL.100% MIX VEGGIE ARANC.VALFRUT00000000069905803      IC00000010099999999900006IL0000000101202504179999999900000000130E0000012025041799999999U0001000000000001998020250415220405EL5       EUR000000P00140S$ALL  $$$$$      000000N
300372M072652501BEVANDA ACE/P.FRUIT DIFESA+ VF     1030304040060020230405220  1  NNLT000010000000010000N00000001000045001PZU00010000000000100000000IBEVANDA ACE/P.FRUIT $00000I00000000072652501      BEVANDA ACE/P.FRUIT DIFESA+ VF     00000000072652501      IC00000010099999999900006IL0000000101202504179999999900000000133E0000012025041799999999U0001000000000001998020250415220423EL5       EUR000000P00060S$ALL  $$$$$      000000N
300372M072652502BEVANDA MELOGRANO DIFESA+ VF       1030304040060020230405220  1  NNLT000010000000010000N00000001000045001PZU00010000000000100000000IBEVANDA MELOGRANO DI$00000I00000000072652502      BEVANDA MELOGRANO DIFESA+ VF       00000000072652502      IC00000010099999999900006IL0000000101202504179999999900000000133E0000012025041799999999U0001000000000001998020250415220423EL5       EUR000000P00140S$ALL  $$$$$      000000N
300372M072652503BEVANDA ANANAS DIFESA+ VALFRUTTA   1030304040060020230405220  1  NNLT000010000000010000N00000001000045001PZS00010000000000100000000IBEVANDA ANANAS DIFES$00000I00000000072652503      BEVANDA ANANAS DIFESA+ VALFRUTTA   00000000072652503      IC00000010099999999900006IL0000000101202504179999999900000000133E0000012025041799999999S0001000000000001998020250415220423EL5       EUR000000P00140S$ALL  $$$$$      000000N
300372M072148901FRUL.PROT.MELA/BOSCO AVENA VALFRUTT1030304100008420220407220  1  NNLT000010000000010000N00000001000045001PZU00010000000000100000000IFRUL.PROT.MELA/BOSCO$00000I00000000072148901      FRUL.PROT.MELA/BOSCO AVENA VALFRUTT00000000072148901      IC00000010099999999900006IL0000000101202504179999999900000000130E0000012025041799999999U0001000000000001998020250415220421EL5       EUR000000P00140S$ALL  $$$$$      000000N
300372M072148902FRUL.PRO.PER/UVA/NOCCIOLA AVENA VAL1030304100008420220407220  1  NNLT000010000000010000N00000001000045001PZU00010000000000100000000IFRUL.PRO.PER/UVA/NOC$00000I00000000072148902      FRUL.PRO.PER/UVA/NOCCIOLA AVENA VAL00000000072148902      IC00000010099999999900006IL0000000101202504179999999900000000130E0000012025041799999999U0001000000000001998020250415220421EL5       EUR000000P00140S$ALL  $$$$$      000000N
300372M072148903FRUL.PROT.MAN/PES/MANDOR.AVENA VALF1030304100008420220407220  1  NNLT000010000000010000N00000001000045001PZU00010000000000100000000IFRUL.PROT.MAN/PES/MA$00000I00000000072148903      FRUL.PROT.MAN/PES/MANDOR.AVENA VALF00000000072148903      IC00000010099999999900006IL0000000101202504179999999900000000130E0000012025041799999999U0001000000000001998020250415220421EL5       EUR000000P00140S$ALL  $$$$$      000000N
300372M068719007MONSTER WATERMELON LATTINA         1030316040060020220407220  1  NNLT000005000000005000N00000001000054001PZU00010000000000100000000IMONSTER WATERMELON L$00000E00000000068719007      MONSTER WATERMELON LATTINA         00000000068719007      IC00000010099999999900024EL0000000101202403149999999900000000110E0000012024031499999999U0001000000000001698020250415220333EL5       EUR000000P00072S$ALL  $$$$$      000000N
300372M068719009MONSTER ULTRA GOLD PINE APPLE      1030316040060020230413220  1  NNLT000005000000005000N00000001000054001PZU00010000000000100000000IMONSTER ULTRA GOLD P$00000E00000000068719009      MONSTER ULTRA GOLD PINE APPLE      00000000068719009      IC00000010099999999900024EL0000000101202403149999999900000000110E0000012024031499999999U0001000000000001698020250415220333EL5       EUR000000P00072S$ALL  $$$$$      000000N
300372M068395301BEVANDA VITAMINIZ.CONAD ACE PET    1030319010000120120210220  1  NSLT000010000000010000N00000001000036001PZU00010000000000100000000FBEV.VITAMINIZ.CONAD $00000F00000000068395301      BEVANDA VITAMINIZ.CONAD ACE PET    00000000068395301      IC00000010099999999900006FL0000000101201604289999999900000000069E0000012016042899999999U0001000000000001008020250415220350EL5       EUR000000P00095SCALL  $$$$$      000000N
300372M068395302BEV.VITAMINIZ.CONAD ACE ROS.PET    1030319010000120120210220  1  NSLT000010000000010000N00000001000036001PZU00010000000000100000000FBEV.VITAMINIZ.CONAD $00000F00000000068395302      BEV.VITAMINIZ.CONAD ACE ROS.PET    00000000068395302      IC00000010099999999900006FL0000000101201604289999999900000000069E0000012016042899999999U0001000000000001008020250415220350EL5       EUR000000P00095SCALL  $$$$$      000000N
300372M000895601ARANCIATA CONAD PET                1030322040000219940615220  1  NSLT000015000000015000N00000001000024001PZU00010000000000100000000IARANCIATA CONAD     $00000I00000000000895601      ARANCIATA CONAD PET                00000000000895601      IC00000010009999990000006IL0000000101202308319999999900000000053E0000012023083199999999U0001000000000000798020250415220333EL5       EUR000000P00084SCALL  BEF        000000N
300372M067996501ARANCIATA ZERO CONAD PET           1030322040000220100816220  1  NSLT000015000000015000N00000001000036001PZU00010000000000100000000IARANCIATA ZERO CONAD$00000I00000000067996501      ARANCIATA ZERO CONAD PET           00000000067996501      IC00000010000999990000006IL0000000101202308319999999900000000053E0000012023083199999999U0001000000000000798020250415220333EL5       EUR000000P00084SCALL  BEF        000000N
300372M067570201ARANCIATA CONAD CL.50X4            1030322040000320081229220  1  NSLT000020000000020000N00000001000018001PZU00010000000000100000000IARANCIATA CL.50X4   $00000I00000000067570201      ARANCIATA CONAD CL.50X4            00000000067570201      IC00000010000099990000006IL0000000101202303239999999900000000120E0000012023032399999999U0001000000000002008020250415220333EL5       EUR000000P00063SCALL  $$$$$      000000N
300372M070161201FANTA ARANCIATA MINI LATT.ML150X6  1030322070003620180221220  1  NNLT000009000000009000N00000001000036001PZU00010000000000100000000IFANTA ARAN.MINI LATT$00000I00000000070161201      FANTA ARANCIATA MINI LATT.ML150X6  00000000070161201      IC00000010099999999900004IL0000000101202307209999999900000000220E0000012023072099999999U0001000000000003198020250415220333EL5       EUR000000P00072S$ALL  $$$$$      000000N
300372M072201101BIBITE CHINOTTO LURISIA ML.275 COX41030331010030020220517220  1  NNLT000011000000011000N00000001000072001PZU00010000000000100000000IBIBITE CHINOTTO LURI$00000E00000000072201101      BIBITE CHINOTTO LURISIA ML.275 COX400000000072201101      IC00000010099999999900006EL0000000101202305119999999900000000345E0000012023051199999999U0001000000000004998020250415220333EL5       EUR000000P00066S$ALL  $$$$$      000000N
300372M072201103BIBITE ARANCIATA LURISIA ML275 COX41030331010030020220517220  1  NNLT000011000000011000N00000001000072001PZU00010000000000100000000IBIBITE ARANCIATA LUR$00000E00000000072201103      BIBITE ARANCIATA LURISIA ML275 COX400000000072201103      IC00000010099999999900006EL0000000101202305119999999900000000345E0000012023051199999999U0001000000000004998020250415220333EL5       EUR000000P00066S$ALL  $$$$$      000000N
300372M069921801BIRRA ICHNUSA CL.33 X3             1030501010003420170515220  1  NNLT000009900000079200N00000001000045001PZS00080000000000100000000FBIR.ICHNUSA CL.33 X3$00000F00000000069921801      BIRRA ICHNUSA CL.33 X3             00000000069921801      IC00000010099999999900001FL0000000101202303309999999900000001550E0000012023033099999999S0008000000000002808020250415220406EL5       EUR000000P00070S$ALL  $$$$$      000000N
300372M068468701BIRRA ICHNUSA BOTTIGLIA            1030501010003520120424220  1  NNLT000006600000099000N00000001000045001PZS00150000000000100000000FBIRRA ICHNUSA       $00000F00000000068468701      BIRRA ICHNUSA BOTTIGLIA            00000000068468701      IC00000010099999999900001FL0000000101202302029999999900000001680E0000012023020299999999S0015000000000001658020250415220350EL5       EUR000000P00066S$ALL  $$$$$      000000N
300372M070844701BIRRA ICHNUSA NON FILT.CL20X4 CO.X61030501010003620200403220  1  NNLT000008000000008000N00000001000027001PZS00060000000000100000000FICHNUSA N/FILT.CL.20$00000F00000000070844701      BIRRA ICHNUSA NON FILT.CL20X4 CO.X600000000070844701      IC00000010099999999900001FL0000000101202302029999999900000001580E0000012023020299999999S0006000000000003998020250415220416EL5       EUR000000P00099S$ALL  $$$$$      000000N
300372M072648301BIRRA ICHNUSA NON FILTRATA         1030501010003620230405220  1  NNLT000009900000009900N00000001000027001PZS00080000000000100000000FBIRRA ICHNUSA NON FI$00000F00000000072648301      BIRRA ICHNUSA NON FILTRATA         00000000072648301      IC00000010099999999900001FL0000000101202304209999999900000002355E0000012023042099999999S0008000000000004498020250415220423EL5       EUR000000P00072S$ALL  $$$$$      000000N
300372M068992601BIRRA PERONI PURO MALTO CL50 CO.X121030501010005920140305220  1  NNLT000005000000060000N00000001000045001PZS00120000000000100000000FB/PERONI PURO MALTO $00000F00000000068992601      BIRRA PERONI PURO MALTO CL50 CO.X1200000000068992601      IC00000010099999999900001FL0000000101202305119999999900000001370E0000012023051199999999S0012000000000001758020250415220354EL5       EUR000000P00060S$ALL  $$$$$      000000N
300372M070188701BIRRA PERONI GRAN RISERVA BIANCA   1030501010006320180321220  1  NNLT000005000000060000N00000001000036001PZS00120000000000100000000FBIR.PERONI G.RISERVA$00000F00000000070188701      BIRRA PERONI GRAN RISERVA BIANCA   00000000070188701      IC00000010099999999900001FL0000000101202305119999999900000001370E0000012023051199999999S0012000000000001758020250415220409EL5       EUR000000P00060S$ALL  $$$$$      000000N
300372M070479601BIRRA PERONI CRUDA                 1030501010008820190226220  1  NNLT000005000000100000N00000001000027001PZS00200000000000100000000FBIRRA PERONI CRUDA  $00000F00000000070479601      BIRRA PERONI CRUDA                 00000000070479601      IC00000010099999999900001FL0000000101201903149999999900000001795E0000012023051199999999S0020000000000001398020250415220412EL5       EUR000000P00054S$ALL  $$$$$      000000N
300372M071618801BIRRA MORETTI FILTR.FREDDO CL55X15 1030501010009020210302220  1  NNLT000005500000082500N00000001000045001PZS00150000000000100000000FBIRRA MORETTI FILTR.$00000F00000000071618801      BIRRA MORETTI FILTR.FREDDO CL55X15 00000000071618801      IC00000010099999999900001FL0000000101202302029999999900000001650E0000012023020299999999S0015000000000001698020250415220418EL5       EUR000000P00072S$ALL  $$$$$      000000N
300372M068991901BIRRA PERONI GRAN RISERVA ROSSA    1030501010012520140305220  1  NNLT000005000000060000N00000001000045001PZS00120000000000100000000FBIR.PERONI GR.RISER.$00000F00000000068991901      BIRRA PERONI GRAN RISERVA ROSSA    00000000068991901      IC00000010099999999900001FL0000000101202305119999999900000001370E0000012023051199999999S0012000000000001758020250415220354EL5       EUR000000P00060S$ALL  $$$$$      000000N
300372M001538601BIRRA MORETTI BOTT CL33 X3         1030501010013020001222220  1  NNLT000009900000079200N00000001000036001PZS00080000000000100000000FBIRRA MORETTI CL33X3$00000F00000000001538601      BIRRA MORETTI BOTT CL33 X3         00000000001538601      IC00000010099999999900001FL0000000101202302029999999900000001330E0000012023020299999999S0008000000000002358020250415220336EL5       EUR000000P00063S$ALL  $$$$$      000000N
300372M001543001BIRRA NASTRO AZZURRO BOTT.CL33 X3  1030501010013020001227220  1  NNLT000009900000079200N00000001000045001PZS00080000000000100000000FBIRRA N.AZZURRO 33X3$00000F00000000001543001      BIRRA NASTRO AZZURRO BOTT.CL33 X3  00000000001543001      IC00000010099999999900001FL0000000101202301269999999900000001670E0000012023012699999999S0008000000000002998020250415220336EL5       EUR000000P00063S$ALL  $$$$$      000000N
300372M073006701BIRRA AGRUMI 1664 BLANC            1030501010060220231024220  1  NNLT000003300000003300N00000001000036001PZU00010000000000100000000IBIRRA AGRUMI 1664 BL$00000I00000000073006701      BIRRA AGRUMI 1664 BLANC            00000000073006701      IC00000010099999999900024IL0000000101202504102025043000000000050E0000012025041020250430U0001000000000001498020250415220423EL5       EUR000000P00063S$ALL  $$$$$      000000N
300372M069333201BIRRA DANA CONAD LATTINA           1030501040001020150514220  1  NSLT000003300000003300N00000001000048001PZU00010000000000100000000FBIR.DANA CONAD LATT.$00000F00000000069333201      BIRRA DANA CONAD LATTINA           00000000069333201      IC00000010099999999900024FL0000000101201505149999999900000000034E0000012015051499999999U0001000000000000598020250415220358EL5       EUR000000P00108SCALL  $$$$$      000000N
300372M009711401BIRRA MORETTI LATTINA CL33 X2      1030501040005020050302220  1  NNLT000006600000079200N00000001000036001PZS00120000000000100000000FBIR.MORETTI LATTINA $00000F00000000009711401      BIRRA MORETTI LATTINA CL33 X2      00000000009711401      IC00000010099999999900001FL0000000101202302029999999900000001560E0000012023020299999999S0012000000000001758020250415220341EL5       EUR000000P00108S$ALL  $$$$$      000000N
300372M069067201BIRRA HEINEKEN CL.15 X8            1030501070001820140708220  1  NNLT000012000000036000N00000001000036001PZS00030000000000100000000FBIR.HEINEKEN CL15 X8$00000F00000000069067201      BIRRA HEINEKEN CL.15 X8            00000000069067201      IC00000010099999999900001FL0000000101202308109999999900000001028E0000012023081099999999S0003000000000004898020250415220355EL5       EUR000000P00160S$ALL  $$$$$      000000N
300372M072648501BIRRA HEINEKEN SILVER              1030501070001820230405220  1  NNLT000003300000079200N00000001000036001PZS00240000000000100000000FBIRRA HEINEKEN SILVE$00000F00000000072648501      BIRRA HEINEKEN SILVER              00000000072648501      IC00000010099999999900001FL0000000101202304209999999900000002030E0000012023042099999999S0024000000000001298020250415220423EL5       EUR000000P00054S$ALL  $$$$$      000000N
300372M072596001BIRRA DOPPIO MALTO BLOND DUVEL     1030501070004320230301220  1  NNLT000003300000007000N00000001000036001PZU00010000000000100000000IBIRRA DOPPIO MALTO B$00000E00000000072596001      BIRRA DOPPIO MALTO BLOND DUVEL     00000000072596001      IC00000010099999999900012EL0000000101202303309999999900000000158E0000012023033099999999U0001000000000002308020250415220333EL5       EUR000000P00117S$ALL  $$$$$      000000N
300372M072840601BIRRA AUGUSTINER OKTOBERFEST BIER  1030501130010020230804220  1  NNLT000005000000005000N00000001000036001PZU00010000000000100000000PBI.AUGUSTINER OKTOBE$00000P00000000072840601      BIRRA AUGUSTINER OKTOBERFEST BIER  00000000072840601      IC00000010099999999900020PL0000000101202408019999999900000000180E0000012024080199999999U0001000000000002698020250415220333EL5       EUR000000P00040N$ALL  $$$$$      000000N
300372M067200201BIRRA FRANZISKANER HEFE WEISS CL.501030501130013320070605220  1  NNLT000005000000005000N00000001000036001PZU00010000000000100000000IBIRRA FRANZISKANER  $00000I00000000067200201      BIRRA FRANZISKANER HEFE WEISS CL.5000000000067200201      IC00000010099999999900020IL0000000101202504179999999900000000100P0000732025041799999999U0001000000000001398020250415220343EL5       EUR000000P00045S$ALL  RIB        000000N
300372M068809501BIRRA FRANZISKANER HEFE DUNKEL     1030501130013520130705220  1  NNLT000005000000005000N00000001000036001PZU00010000000000100000000IBIRRA FRANZISKANER  $00000I00000000068809501      BIRRA FRANZISKANER HEFE DUNKEL     00000000068809501      IC00000010099999999900020IL0000000101202504179999999900000000100P0000732025041799999999U0001000000000001398020250415220353EL5       EUR000000P00045S$ALL  RIB        000000N
300372M071642401BIRRA N.AZZURRO ZERO CL33X3 CON.X8 1030501190002120210312220  1  NNLT000009900000079200N00000001000027001PZS00080000000000100000000FBIRRA N.AZZURRO ZERO$00000F00000000071642401      BIRRA N.AZZURRO ZERO CL33X3 CON.X8 00000000071642401      IC00000010099999999900001FL0000000101202301129999999900000001600E0000012023011299999999S0008000000000002998020250415220419EL5       EUR000000P00063S$ALL  $$$$$      000000N
300372M072847701VERMENTINO BOLGHERI DOC POD.ROSETO 1030707010131720230809220  1  NNLT000007500000007500N00000001009999901PZU00010000000000100000000IVERMENT.BOLGHERI DOC$00000I00000000072847701      VERMENTINO BOLGHERI DOC POD.ROSETO 00000000072847701      IC00000010099999999900006IL0000000101202310059999999900000000810E0000012023100599999999U0001000000000012508020250415220333EL5       EUR000000P00100S$ALL  $$$$$      000000N
300372M068265601TEROLDEGO ROTALIANO "COSTALTA" DOC 1030707040041020110822220  1  NSLT000007500000007500N00000001009999901PZU00010000000000100000000ITEROLDEGO ROTAL.DOC $00000E00000000068265601      TEROLDEGO ROTALIANO "COSTALTA" DOC 00000000068265601      IC00000010099999990000006EL0000000101202210139999999900000000335E0000012022101399999999U0001000000000005308020250415220333EL5       EUR000000P00050SMALL  $$$$$      000000N
300372M070555501MONTEFALCO ROSSO DOC BENEDET.&GRIGI1030707040156320190521220  1  NNLT000007500000007500N00000001009999901PZU00010000000000100000000IMONTEFALCO ROSSO DOC$00000I00000000070555501      MONTEFALCO ROSSO DOC BENEDET.&GRIGI00000000070555501      IC00000010099999999900006IL0000000101202504179999999900000000350E0000012025041799999999U0001000000000006408020250415220413EL5       EUR000000P00100S$ALL  $$$$$      000000N
300372M069173901PASSITO PANTELLER.LI RACI DOC      1030713010314820141023220  1  NSLT000005000000005000N00000001009999901PZU00010000000000100000000IPASS.PANTEL.LI RACI $00000I00000000069173901      PASSITO PANTELLER.LI RACI DOC      00000000069173901      IC00000010099999999900006IL0000000101202210209999999900000000470E0000012022102099999999U0001000000000007408020250415220333EL5       EUR000000P00042SMALL  $$$$$      000000N
300372M073709501ROSSO ZERO ALCOHOL MASSO ANTICO    1030715010010020250408220  1  NNLT000007500000007500N00000001009999901PZU00010000000000100000000IROSSO ZERO ALCOHOL  $00000I00000000073709501      ROSSO ZERO ALCOHOL MASSO ANTICO    00000000073709501      IC00000010099999999900006IL0000000101202504179999999900000000360E0000012025041799999999U0001000000000005908020250415220425EL5       EUR000000P00100N$ALL  $$$$$      000000N
300372M073709502BIANCO ZERO ALCOHOL MASSO ANTICO   1030715010010020250408220  1  NNLT000007500000007500N00000001009999901PZU00010000000000100000000IBIANCO ZERO ALCOHOL $00000I00000000073709502      BIANCO ZERO ALCOHOL MASSO ANTICO   00000000073709502      IC00000010099999999900006IL0000000101202504179999999900000000360E0000012025041799999999U0001000000000005908020250415220425EL5       EUR000000P00100N$ALL  $$$$$      000000N
300372M073668801PROSECCO SUP.DOCG DIAMOMD S.ORSOLA 1030716070002620250307220  1  NNLT000007500000007500N00000001009999901PZU00010000000000100000000IPROSECC.SUP.DOCG DIA$00000I00000000073668801      PROSECCO SUP.DOCG DIAMOMD S.ORSOLA 00000000073668801      IC00000010099999999900006IL0000000101202504179999999900000000600E0000012025041799999999U0001000000000009908020250415220425EL5       EUR000000P00080N$ALL  $$$$$      000000N
300372M070554901SPUMANTE ALCOHOLFREE BIO ASTORIA   1030716190010220190520220  1  NNLT000007500000007500N00000001009999901PZU00010000000000100000000ISPUM.ALCOHOLFREE BIOQ00000I00000000070554901      SPUMANTE ALCOHOLFREE BIO ASTORIA   00000000070554901      IC00000010099999999900006IL0000000101202502279999999900000000445E0000012025022799999999U0001000000000006598020250415220333EL5       EUR000000P00080N$ALL  $$$$$      000000N
300372M070018401GRAPPA DI MOSCATO INVECCH.LANTERNA 1031101013016020170914220  1  NNLT000005000000005000N00000001009999901PZU00010000000000100000000FGRAP.MOSCATO INVECC.$00000F00000000070018401      GRAPPA DI MOSCATO INVECCH.LANTERNA 00000000070018401      IC00000010099999999900003FL0000000101201910249999999900000002080E0000012019102499999999U0001000000000029908020250415220407EL5       EUR000000P00024N$ALL  $$$$$      000000N
300372M070305301CONF.GRAPPA RISERVA SEGNI DEL TEMPO1031101013016020180821220  1  NNLT000007000000007000N00000001009999901PZU00010000000000100000000FCON.GRAPPA RIS.MAZZ.$00000F00000000070305301      CONF.GRAPPA RISERVA SEGNI DEL TEMPO00000000070305301      IC00000010099999999900006FL0000000101201810259999999900000002210E0000012018102599999999U0001000000000035908020250415220410EL5       EUR000000P00055N$ALL  $$$$$      000000N
300372M070650501CONF.IDROPLANO GRAPPA MAZZETTI     1031101013016120190916220  1  NNLT000001000000001000N00000001009999901PZU00010000000000100000000FCONF.IDROPLANO GRAPP$00000F00000000070650501      CONF.IDROPLANO GRAPPA MAZZETTI     00000000070650501      IC00000010099999999900001FL0000000101201910249999999900000003700E0000012019102499999999U0001000000000059908020250415220414EL5       EUR000000P00048N$ALL  $$$$$      000000N
300372M069713501CONF.FUCILE GRAPPA INVECCH.MAZZETTI1031101013016220160915220  1  NNLT000002000000002000N00000001009999901PZU00010000000000100000000FCONF.FUCILE GRAPPA  $00000F00000000069713501      CONF.FUCILE GRAPPA INVECCH.MAZZETTI00000000069713501      IC00000010099999999900004FL0000000101201710269999999900000002990E0000012017102699999999U0001000000000049008020250415220403EL5       EUR000000P00020N$ALL  $$$$$      000000N
300372M069053701CONAD GEL LAVASTOVIGLIE LIMONE     1050107100000520140612220  1  NSLT000006500000006500N00000001009999901PZU00010000000000100000000ICONAD GEL LIMONE    $00000I00000000069053701      CONAD GEL LAVASTOVIGLIE LIMONE     00000000069053701      IC00000010099999999900006IL0000000101202302029999999900000000235E0000012022120899999999U0001000000000003498020250415220333EL5       EUR000000P00072SCALL  $$$$$      000000N
300372M067122101PRIL CURA LAVASTOVIGLIE            1050110070007220070426220  1  NNLT000002500000002500N00000001009999901PZU00010000000000100000000IPRIL CURA LAVASTOVIG$00000E00000000067122101      PRIL CURA LAVASTOVIGLIE            00000000067122101      IC00000010099999999900008EL0000000101202407049999999900000000200E0000012024070499999999U0001000000000002798020250415220333EL5       EUR000000P00144S$ALL  $$$$$      000000N
300372M073564401PRIL CURA LAVASTOVIGLIE INTENS.    1050110070007220250116220  1  NNLT000002500000002500N00000001009999901PZU00010000000000100000000IPRIL CURA LAVASTOVIG$00000E00000000073564401      PRIL CURA LAVASTOVIGLIE INTENS.    00000000073564401      IC00000010099999999900008EL0000000101202502139999999900000000200E0000012025021399999999U0001000000000002798020250415220333EL5       EUR000000P00144N$ALL  $$$$$      000000N
300372M070080801PRIL CURALAVAST.3 TABS CICLO PIENO 1050110070007520171129220  1  NNLT000000600000002500N00000001009999901PZU00010000000000100000000EPRIL CURALAVASTOVIG.$00000E00000000070080801      PRIL CURALAVAST.3 TABS CICLO PIENO 00000000070080801      IC00000010099999999900006EL0000000101202309289999999900000000192E0000012023092899999999U0001000000000002698020250415220333EL5       EUR000000P00288S$ALL  $$$$$      000000N
300372M072487101DASH DET.POLVERE 64 MIS.           1050310100080020221228220  1  NNKG000032000000032000N00000001009999901PZU00010000000000100000000IDASH DET.POLVERE 64 $00000P00000000072487101      DASH DET.POLVERE 64 MIS.           00000000072487101      IC00000010099999999900001PL0000000101202306229999999900000001350E0000012023062299999999U0001000000000019908020250415220333EL5       EUR000000P00160S$ALL  $$$$$      000000N
300372M071979001CONAD LAV.COLOR 3IN1 X44 CAPS      1050313100001120211221220  1  NS$$000010780000010780N00000001009999901PZU00010000000000100000000ICONAD LAV.COLOR 3IN1$00000I00000000071979001      CONAD LAV.COLOR 3IN1 X44 CAPS      00000000071979001      IC00000010099999999900004IL0000000101202305049999999900000000590E0000012023050499999999U0001000000000007998020250415220333EL5       EUR000000P00048SCALL  BEF        000000N
300372M071979002CONAD LAV.C/AMMORBID.3IN1 X44 CAPS 1050313100001120211221220  1  NS$$000010780000010780N00000001009999901PZU00010000000000100000000ICONAD LAV.C/AMM.3IN1$00000I00000000071979002      CONAD LAV.C/AMMORBID.3IN1 X44 CAPS 00000000071979002      IC00000010099999999900004IL0000000101202305049999999900000000590E0000012023050499999999U0001000000000007998020250415220333EL5       EUR000000P00048SCALL  BEF        000000N
300372M073002301CHANTECL.VERT AMM.CON.BEBE'TALC.X451050322040050120231023220  1  NNLT000009000000009000N00000001009999901PZU00010000000000100000000ECHA.VERT AMM.CON.BEB$00000E00000000073002301      CHANTECL.VERT AMM.CON.BEBE'TALC.X4500000000073002301      IC00000010099999999900008EL0000000101202311029999999900000000215E0000012023110299999999U0001000000000003298020250415220333EL5       EUR000000P00072S$ALL  $$$$$      000000N
300372M001252401CONAD ANTICALCARE POLVERE          1050328010000220000829220  1  NSKG000008500000008500N00000001009999901PZU00010000000000100000000ICONAD ANTICALCARE PO$00000I00000000001252401      CONAD ANTICALCARE POLVERE          00000000001252401      IC00000010099999999900014IL0000000101202501029999999900000000195E0000012025010299999999U0001000000000003198020250415220333EL5       EUR000000P00024SCALL  BFLOC      000000N
300372M073396801AMBIPUR 3VOL.RICAR.RIS.PRIM.ML20 X21050531040009920240805220  1  NNLT000000400000000400N00000001009999901PZU00010000000000100000000IAMBIPUR 3VOL.RICAR.R$00000I00000000073396801      AMBIPUR 3VOL.RICAR.RIS.PRIM.ML20 X200000000073396801      IC00000010099999999900006IL0000000101202408089999999900000000530E0000012024080899999999U0001000000000007998020250415220333EL5       EUR000000P00276S$ALL  $$$$$      000000N
300372M069665201FUFI TOP GATTI STERILIZ.MANZO/RISO 1070101040000820160629220  1  NSKG000008000000008000N00000001000033001PZU00010000000000100000000FFUFI T.GAT.STERILIZ.$00000F00000000069665201      FUFI TOP GATTI STERILIZ.MANZO/RISO 00000000069665201      IC00000010099999999900008FL0000000101201608259999999900000000175E0000012016082599999999U0001000000000003108020250415220402EL5       EUR000000P00040SCALL  $$$$$      000000N
300372M009763202CONAD CAT CROC.SALMONE/TROTA/TONNO 1070101040000920050531220  1  NSKG000020000000020000N00000001000024001PZU00010000000000100000000ICONAD CAT C.SA/TR/TO$00000I00000000009763202      CONAD CAT CROC.SALMONE/TROTA/TONNO 00000000009763202      IC00000010099999999900008IL0000000101202501022025043000000000255E0000012025010220250430U0001000000000003798020250415220333EL5       EUR000000P00020SCALL  BEF        000000N
300372M009763203CONAD CAT POLLO/CONIGLIO/VERDURE   1070101040000920220510220  1  NSKG000020000000020000N00000001000024001PZU00010000000000100000000ICONAD CAT PO/CO/VE  $00000I00000000009763203      CONAD CAT POLLO/CONIGLIO/VERDURE   00000000009763203      IC00000010099999999900008IL0000000101202501022025043000000000255E0000012025010220250430U0001000000000003798020250415220333EL5       EUR000000P00020SCALL  BEF        000000N
300372M070876401PETFRIEND DOG PATE'AGNELLO/POLLO   1070101070001220200522220  1  NSKG000003000000003000N00000001000054001PZU00010000000000100000000IPETFR.DOG PATE'AG/PO$00000I00000000070876401      PETFRIEND DOG PATE'AGNELLO/POLLO   00000000070876401      IC00000010099999999900018IL0000000101202405232025043000000000055E0000012024053020250430U0001000000000000858020250415220333EL5       EUR000000P00072SCALL  BEF        000000N
300372M070876402PETFRIEND DOG PATE'MANZO/POLLO 0   1070101070001220200603220  1  NSKG000003000000003000N00000001000054001PZU00010000000000100000000IPETFR.DOG PATE'MA/PO$00000I00000000070876402      PETFRIEND DOG PATE'MANZO/POLLO 0   00000000070876402      IC00000010099999999900018IL0000000101202405232025043000000000055E0000012024053020250430U0001000000000000858020250415220333EL5       EUR000000P00072SCALL  BEF        000000N
300372M068934801ALMO NAT.CANE POLLO/PISELLI VASCH. 1070101070090020131218220  1  NNKG000003000000003000N00000001000045001PZU00010000000000100000000IALMO NAT.MENU CANE  $00000I00000000068934801      ALMO NAT.CANE POLLO/PISELLI VASCH. 00000000068934801      IC00000010099999999900009IL0000000101202504179999999900000000108E0000012025041799999999U0001000000000001698020250415220354EL5       EUR000000P00160S$ALL  $$$$$      000000N
300372M068934802ALMO NAT.CANE VITELLO/CAROTE VASCH.1070101070090020131218220  1  NNKG000003000000003000N00000001000045001PZU00010000000000100000000IALMO NAT.MENU CANE  $00000I00000000068934802      ALMO NAT.CANE VITELLO/CAROTE VASCH.00000000068934802      IC00000010099999999900009IL0000000101202504179999999900000000108E0000012025041799999999U0001000000000001698020250415220354EL5       EUR000000P00160S$ALL  $$$$$      000000N
300372M068934804ALMO NAT.CANE MERLUZZO/FAGIOL. VAS.1070101070090020190114220  1  NNKG000003000000003000N00000001000045001PZU00010000000000100000000IALMO NAT.CANE MERLU/$00000I00000000068934804      ALMO NAT.CANE MERLUZZO/FAGIOL. VAS.00000000068934804      IC00000010099999999900009IL0000000101202504179999999900000000108E0000012025041799999999U0001000000000001698020250415220354EL5       EUR000000P00240S$ALL  $$$$$      000000N
300372M070865801PETFR.DOG STICK IGIENE DENTALE "M" 1070101160001820200506220  1  NSKG000001800000001800N00000001000051001PZU00010000000000100000000IPETFR.DOG STICK IGI.$00000I00000000070865801      PETFR.DOG STICK IGIENE DENTALE "M" 00000000070865801      IC00000010099999990000020IL0000000101202401112025043000000000073E0000012023122820250430U0001000000000001298020250415220333EL5       EUR000000P00100SCALL  BEF        000000N
300372M070865901PETFR.DOG STICK IGIENE DENTALE MINI1070101160001820200506220  1  NSKG000001100000001100N00000001000051001PZU00010000000000100000000IPETFR.DOG STICK IGIE$00000I00000000070865901      PETFR.DOG STICK IGIENE DENTALE MINI00000000070865901      IC00000010099999990000023IL0000000101202405022025043000000000072E0000012024050220250430U0001000000000001298020250415220333EL5       EUR000000P00100SCALL  BEF        000000N
300372M073586001PETFR.DOG STICK IGIENE DENTALE "L" 1070101160001820250131220  1  NSKG000002700000002700N00000001000036001PZU00010000000000100000000IPETFR.DOG STICK IGI.$00000I00000000073586001      PETFR.DOG STICK IGIENE DENTALE "L" 00000000073586001      IC00000010099999999900018IL0000000101202503272025043000000000115E0000012025032720250430U0001000000000002198020250415220333EL5       EUR000000P00090NCALL  BEF        000000N
300372M072537302PAMPERS BABY DRY MUT.SPEC. XXL X60 1070501040030020230203100  1  NN$$000000000000010000N00000001009999901PZU00010000000000100000000IPAMPERS SPECIAL XXL $00000P00000000072537302      PAMPERS BABY DRY MUT.SPEC. XXL X60 00000000072537302      IC00000010099999999900001PL0000000101202405099999999900000002100E0000012023020999999999U0001000000000025908020250415220333EL5       EUR000000P00063S$ALL  $$$$$      000000N
300372M072384201PANNOL.MUTANDINO CONAD XL TG.6 X18 1070501040034820221017100  1  NS$$000000000000010000N00000001009999901PZU00010000000000100000000IPANNOL.MUTANDINO CON$00000I00000000072384201      PANNOL.MUTANDINO CONAD XL TG.6 X18 00000000072384201      IC00000010099999999900006IL0000000101202501022025043000000000330E0000012025010220250430U0001000000000004558020250415220333EL5       EUR000000P00018SCALL  BEF        000000N
300372M072384301PAN.MUTANDINO CONAD JUNIOR TG.5 X201070501040034820221017100  1  NS$$000000000000010000N00000001009999901PZU00010000000000100000000IPAN.MUTANDINO CONAD $00000I00000000072384301      PAN.MUTANDINO CONAD JUNIOR TG.5 X2000000000072384301      IC00000010099999999900006IL0000000101202501022025043000000000330E0000012025010220250430U0001000000000004558020250415220333EL5       EUR000000P00024SCALL  BEF        000000N
300372M069997501PIAT.PL.DESSERT CONAD COLORATI X50 1070913010005020170822220  1  NS$$000000000000010000N00000001009999901PZS00180000000000100000000FPIATTI DESSERT CONAD$00000F00000000069997501      PIAT.PL.DESSERT CONAD COLORATI X50 00000000069997501      IC00000010099999999900001FL0000000101201710129999999900000002034E0000012017101299999999S0018000000000001998020250415220406EL5       EUR000000P00040SCALL  $$$$$      000000N
300372M071798501PIATTI PIANI BIO BIA.BIBO D21,5 X151070913070018120210714220  1  NN$$000000000000010000N00000001009999901PZU00010000000000100000000IPIATTI PIANI BIO BIA$00000I00000000071798501      PIATTI PIANI BIO BIA.BIBO D21,5 X1500000000071798501      IC00000010099999999900024IL0000000101202504179999999900000000155E0000012025041799999999U0001000000000002498020250415220419EL5       EUR000000P00075S$ALL  $$$$$      000000N
300372M071798601PIATTI FONDI BIO BIA.BIBO D21,5 X151070913070018120210714220  1  NN$$000000000000010000N00000001009999901PZU00010000000000100000000IPIATTI FONDI BIO BIA$00000I00000000071798601      PIATTI FONDI BIO BIA.BIBO D21,5 X1500000000071798601      IC00000010099999999900024IL0000000101202504179999999900000000155E0000012025041799999999U0001000000000002498020250415220419EL5       EUR000000P00075S$ALL  $$$$$      000000N
300372M071361601PIATTI PIANI BIO ROS.BIBO D21,5 X201070913070065020200923220  1  NN$$000000000000010000N00000001009999901PZU00010000000000100000000IPIATTI PIANI BIO ROS$00000I00000000071361601      PIATTI PIANI BIO ROS.BIBO D21,5 X2000000000071361601      IC00000010099999999900030IL0000000101202504179999999900000000213E0000012025041799999999U0001000000000003498020250415220418EL5       EUR000000P00060S$ALL  $$$$$      000000N
300372M071361602PIA.PIANI BIO GIALLO BIBO CM21,5X201070913070065020210714220  1  NN$$000000000000010000N00000001009999901PZU00010000000000100000000IPIA.PIANI BIO GIALLO$00000I00000000071361602      PIA.PIANI BIO GIALLO BIBO CM21,5X2000000000071361602      IC00000010099999999900030IL0000000101202504179999999900000000213E0000012025041799999999U0001000000000003498020250415220418EL5       EUR000000P00060S$ALL  $$$$$      000000N
300372M071361603PIATT.PIANI BIO ROSA BIBO D21,5 X201070913070065020210714220  1  NN$$000000000000010000N00000001009999901PZU00010000000000100000000IPIATT.PIANI BIO ROSA$00000I00000000071361603      PIATT.PIANI BIO ROSA BIBO D21,5 X2000000000071361603      IC00000010099999999900030IL0000000101202504179999999900000000213E0000012025041799999999U0001000000000003498020250415220418EL5       EUR000000P00060S$ALL  $$$$$      000000N
300372M071361604PIATTI PIANI BIO AZZ.BIBO D21,5 X201070913070065020210714220  1  NN$$000000000000010000N00000001009999901PZU00010000000000100000000IPIATTI PIANI BIO AZZ$00000I00000000071361604      PIATTI PIANI BIO AZZ.BIBO D21,5 X2000000000071361604      IC00000010099999999900030IL0000000101202504179999999900000000213E0000012025041799999999U0001000000000003498020250415220418EL5       EUR000000P00060S$ALL  $$$$$      000000N
300372M071361605PIAT.PIANI BIO VERDI BIBO D21,5 X201070913070065020210714220  1  NN$$000000000000010000N00000001009999901PZU00010000000000100000000IPIAT.PIANI BIO VERD $00000I00000000071361605      PIAT.PIANI BIO VERDI BIBO D21,5 X2000000000071361605      IC00000010099999999900030IL0000000101202504179999999900000000213E0000012025041799999999U0001000000000003498020250415220418EL5       EUR000000P00060S$ALL  $$$$$      000000N
300372M071361901PIATTI DESSERT BIO ROS.BIBO D17 X201070913070065020200923220  1  NN$$000000000000010000N00000001009999901PZU00010000000000100000000IPIATTI DESSERT BIO R$00000I00000000071361901      PIATTI DESSERT BIO ROS.BIBO D17 X2000000000071361901      IC00000010099999999900030IL0000000101202504179999999900000000135E0000012025041799999999U0001000000000002198020250415220418EL5       EUR000000P00060S$ALL  $$$$$      000000N
300372M071361902PIATTI DESSERT BIO GIAL.BIBO D17X201070913070065020210714220  1  NN$$000000000000010000N00000001009999901PZU00010000000000100000000IPIATTI DESSERT BIO G$00000I00000000071361902      PIATTI DESSERT BIO GIAL.BIBO D17X2000000000071361902      IC00000010099999999900030IL0000000101202504179999999900000000135E0000012025041799999999U0001000000000002198020250415220418EL5       EUR000000P00060S$ALL  $$$$$      000000N
300372M071361903PIATTI DESSERT BIO ROSA BIBO D17X201070913070065020210714220  1  NN$$000000000000010000N00000001009999901PZU00010000000000100000000IPIATTI DESSERT BIO R$00000I00000000071361903      PIATTI DESSERT BIO ROSA BIBO D17X2000000000071361903      IC00000010099999999900024IL0000000101202504179999999900000000135E0000012025041799999999U0001000000000002198020250415220418EL5       EUR000000P00060S$ALL  $$$$$      000000N
300372M071361904PIATTI DESSERT BIO AZZ.BIBO D17 X201070913070065020210714220  1  NN$$000000000000010000N00000001009999901PZU00010000000000100000000IPIATTI DESSERT BIO A$00000I00000000071361904      PIATTI DESSERT BIO AZZ.BIBO D17 X2000000000071361904      IC00000010099999999900024IL0000000101202504179999999900000000135E0000012025041799999999U0001000000000002198020250415220418EL5       EUR000000P00060S$ALL  $$$$$      000000N
300372M071361905PIATT.DESSERT BIO VERDI BIBO D17X201070913070065020210714220  1  NN$$000000000000010000N00000001009999901PZU00010000000000100000000IPIATT.DESSERT BIO VE$00000I00000000071361905      PIATT.DESSERT BIO VERDI BIBO D17X2000000000071361905      IC00000010099999999900024IL0000000101202504179999999900000000135E0000012025041799999999U0001000000000002198020250415220418EL5       EUR000000P00060S$ALL  $$$$$      000000N
300372M072009701BICCH.CAFFE' VNAT CONAD ECO X60    1070916100000120220121220  1  NS$$000000000000010000N00000001009999901PZU00010000000000100000000IBICCH.CAFFE' VNAT CO$00000I00000000072009701      BICCH.CAFFE' VNAT CONAD ECO X60    00000000072009701      IC00000010099999999900020IL0000000101202504179999999900000000120E0000012025041799999999U0001000000000001858020250415220420EL5       EUR000000P00036SVALL  $$$$$      000000N
300372M072009901BICCHIERI ACQUA V.NATURA ECO X50   1070916100000120220121220  1  NS$$000000000000010000N00000001009999901PZU00010000000000100000000IBICCHIERI ACQUA V.NA$00000I00000000072009901      BICCHIERI ACQUA V.NATURA ECO X50   00000000072009901      IC00000010099999999900020IL0000000101202504179999999900000000135E0000012025041799999999U0001000000000002198020250415220420EL5       EUR000000P00016SVALL  $$$$$      000000N
300372M072010201BICCHIERI BIBITA V/NAT ECO X25     1070916100000120220121220  1  NS$$000000000000010000N00000001009999901PZU00010000000000100000000IBICCHIERI BIBITA V/N$00000I00000000072010201      BICCHIERI BIBITA V/NAT ECO X25     00000000072010201      IC00000010099999999900016IL0000000101202504179999999900000000120E0000012025041799999999U0001000000000002198020250415220420EL5       EUR000000P00012SVALL  $$$$$      000000N
300372M071799201 BICCHIERI BIO BIANCHI BIBO        1070916100003020210714220  1  NN$$000000000000010000N00000001009999901PZU00010000000000100000000I BICCHIERI BIO      $00000I00000000071799201       BICCHIERI BIO BIANCHI BIBO        00000000071799201      IC00000010099999999900030IL0000000101202504179999999900000000122E0000012025041799999999U0001000000000001998020250415220419EL5       EUR000000P00024S$ALL  $$$$$      000000N
300372M071362001BICCHIERI BIO ROSSI BIBO ML200 X50 1070916100065020200923220  1  NN$$000000000000010000N00000001009999901PZU00010000000000100000000IBICCHIERI BIO ROSSI $00000I00000000071362001      BICCHIERI BIO ROSSI BIBO ML200 X50 00000000071362001      IC00000010099999999900030IL0000000101202504179999999900000000135E0000012025041799999999U0001000000000002198020250415220418EL5       EUR000000P00024S$ALL  $$$$$      000000N
300372M071362002BICCHIERI BIO GIALLO BIBO ML200 X501070916100065020210714220  1  NN$$000000000000010000N00000001009999901PZU00010000000000100000000IBICCHIERI BIO GIALLO$00000I00000000071362002      BICCHIERI BIO GIALLO BIBO ML200 X5000000000071362002      IC00000010099999999900030IL0000000101202504179999999900000000135E0000012025041799999999U0001000000000002198020250415220418EL5       EUR000000P00048S$ALL  $$$$$      000000N
300372M071362003BICCHIERI BIO ROSA BIBO ML200 X50  1070916100065020210714220  1  NN$$000000000000010000N00000001009999901PZU00010000000000100000000IBICCHIERI BIO ROSA B$00000I00000000071362003      BICCHIERI BIO ROSA BIBO ML200 X50  00000000071362003      IC00000010099999999900030IL0000000101202504179999999900000000135E0000012025041799999999U0001000000000002198020250415220418EL5       EUR000000P00048S$ALL  $$$$$      000000N
300372M071362004BICCHIERI BIO AZZUR.BIBO ML200 X50 1070916100065020210714220  1  NN$$000000000000010000N00000001009999901PZU00010000000000100000000IBICCHIERI BIO AZZUR.$00000I00000000071362004      BICCHIERI BIO AZZUR.BIBO ML200 X50 00000000071362004      IC00000010099999999900030IL0000000101202504179999999900000000135E0000012025041799999999U0001000000000002198020250415220418EL5       EUR000000P00048S$ALL  $$$$$      000000N
300372M071362005BICCHIERI BIO VERDI BIBO ML200 X50 1070916100065020210714220  1  NN$$000000000000010000N00000001009999901PZU00010000000000100000000IBICCHIERI BIO VERDI $00000I00000000071362005      BICCHIERI BIO VERDI BIBO ML200 X50 00000000071362005      IC00000010099999999900030IL0000000101202504179999999900000000135E0000012025041799999999U0001000000000002198020250415220418EL5       EUR000000P00030S$ALL  $$$$$      000000N
300372M071658801CUCCHIAI BIANCHI X20 PRESTO        1070919070029020210322220  1  NN$$000000000000010000N00000001009999901PZU00010000000000100000000FCUCCHIAI BIANCHI X20$00000F00000000071658801      CUCCHIAI BIANCHI X20 PRESTO        00000000071658801      IC00000010000000010000060FL0000000101202104019999999900000000040E0000012021040199999999U0001000000000000598020250415220419EL5       EUR000000P00084S$ALL  $$$$$      000000N
300372M070820901GUANTI LATTICE S/POL.SAFE TG.L X1001071101040011020200310050  1  NN$$000000000000010000N00000001009999901PZU00010000000000100000000FGUANTI LATTICE S/POL$00000F00000000070820901      GUANTI LATTICE S/POL.SAFE TG.L X10000000000070820901      IC00000010000000010000010FL0000000101202101019999999900000000525E0000012021010199999999U0001000000000006938020250415220415EL5       EUR000000P00040S$ALL  $$$$$      000000N
300372M070825301GUANTI NITRILE S/PO.EXTREME XL X1001071101040011020200311050  1  NN$$000000000000010000N00000001009999901PZU00010000000000100000000FGUANTI NITRILE S/PO.$00000F00000000070825301      GUANTI NITRILE S/PO.EXTREME XL X10000000000070825301      IC00000010000000010000010FL0000000101202102189999999900000000720E0000012021021899999999U0001000000000009808020250415220415EL5       EUR000000P00072S$ALL  $$$$$      000000N
300372M070829001GUANTI NITRIL.S/POLV.STRONG L X100 1071101040011020200313050  1  NN$$000000000000010000N00000001009999901PZU00010000000000100000000FGUANTI NITRIL.S/POLV$00000F00000000070829001      GUANTI NITRIL.S/POLV.STRONG L X100 00000000070829001      IC00000010000000010000010FL0000000101202102189999999900000000720E0000012021021899999999U0001000000000009808020250415220415EL5       EUR000000P00090S$ALL  $$$$$      000000N
300372M070851401GUANTI NITRILE S/POLVERE BLU S X1001071101040011020200410050  1  NN$$000000000000010000N00000001009999901PZU00010000000000100000000FGUANTI NITRILE S/POL$00000F00000000070851401      GUANTI NITRILE S/POLVERE BLU S X10000000000070851401      IC00000010000000010000010FL0000000101202102189999999900000000720E0000012021021899999999U0001000000000009808020250415220416EL5       EUR000000P00036S$ALL  $$$$$      000000N
300372M070851501GUANTI NITRILE S/POLVERE BLU M X1001071101040011020200410050  1  NN$$000000000000010000N00000001009999901PZU00010000000000100000000FGUANTI NITRILE S/POL$00000F00000000070851501      GUANTI NITRILE S/POLVERE BLU M X10000000000070851501      IC00000010000000010000010FL0000000101202102189999999900000000720E0000012021021899999999U0001000000000009808020250415220416EL5       EUR000000P00036S$ALL  $$$$$      000000N
300372M070851601GUANTI NITRILE S/POLVERE BLU L X1001071101040011020200410050  1  NN$$000000000000010000N00000001009999901PZU00010000000000100000000FGUANTI NITRILE S/POL$00000F00000000070851601      GUANTI NITRILE S/POLVERE BLU L X10000000000070851601      IC00000010000000010000010FL0000000101202102189999999900000000720E0000012021021899999999U0001000000000009808020250415220416EL5       EUR000000P00036S$ALL  $$$$$      000000N
300372M067584601DIAVOLINA SUPERVETRO RICARICA      1071113070065120090127220  1  NNLT000010000000010000N00000001009999901PZU00010000000000100000000ODIAVOLINA SUPERVETRO$00000O00000000067584601      DIAVOLINA SUPERVETRO RICARICA      00000000067584601      IC00000010099999999900006OL0000000101201811299999999900000000335E0000012019012499999999U0001000000000005108020250415220333EL5       EUR000000P00057N$ALL  $$$$$      000000N
300372M067728401NEO EMOFORM DENTIFRICIO            1090101070130020090804220  1  NNLT000000750000000750N00000001009999901PZU00010000000000100000000ENEO EMOFORM DENTIFR.F00000E00000000067728401      NEO EMOFORM DENTIFRICIO            00000000067728401      IC00000010099999999900024EL0000000101202405099999999900000000233E0000012024050999999999U0001000000000003798020250415220333EL5       EUR000000P00060S$ALL  $$$$$      000000N
300372M067127001SPAZZOLINO MENTADENT TECNIC MEDIO  1090107010007920070427220  1  NN$$000000000000001000N00000001009999901PZU00010000000000100000000ISPAZZOLINO MENTADENT$00000I00000000067127001      SPAZZOLINO MENTADENT TECNIC MEDIO  00000000067127001      IC00000010099999999900012IL0000000101202503209999999900000000125E0000012025032099999999U0001000000000001998020250415220333EL5       EUR000000 00000N$ALL  $$$$$      000000N
300372M073210703BAGNO VIDAL MILKY/VANILLA          1090310010038520240223220  1  NNLT000005000000005000N00000001009999901PZU00010000000000100000000OBAGNO VIDAL MILKY/VA$00000O00000000073210703      BAGNO VIDAL MILKY/VANILLA          00000000073210703      IC00000010099999999900012OL0000000101202504109999999900000000125E0000012025041099999999U0001000000000001998020250415220333EL5       EUR000000P00051S$ALL  $$$$$      000000N
300372M072995609DEOD.DOVE FRUITY BASE CARE         1090319040019920250306220  1  NNLT000001500000001500N00000001009999901PZU00010000000000100000000IDEOD.DOVE FRUITY BAS$00000I00000000072995609      DEOD.DOVE FRUITY BASE CARE         00000000072995609      IC00000010099999999900006IL0000000101202503209999999900000000219E0000012025032099999999U0001000000000003298020250415220333EL5       EUR000000P00448N$ALL  $$$$$      000000N
300372M072789802SHAMPOO TE'VERDE IALURONICO EQUIL. 1090701040400120230628220  1  NNLT000002650000002650N00000001009999901PZU00010000000000100000000ESHAMPOO TE'VER.IALUR$00000E00000000072789802      SHAMPOO TE'VERDE IALURONICO EQUIL. 00000000072789802      IC00000010099999999900006EL0000000101202307279999999900000000305E0000012023072799999999U0001000000000004808020250415220333EL5       EUR000000P00342S$ALL  $$$$$      000000N
300372M073125002GARN.FLUIDO ANTI MACCH.VIT.C GLOW  1090907010003220240111220  1  NNLT000000400000000400N00000001009999901PZU00010000000000100000000IGARN.FLUIDO ANTI MAC$00000I00000000073125002      GARN.FLUIDO ANTI MACCH.VIT.C GLOW  00000000073125002      IC00000010099999999900006IL0000000101202401259999999900000000820E0000012024012599999999U0001000000000011908020250415220333EL5       EUR000000P00608S$ALL  $$$$$      000000N
300372M069342301NIVEA F.MEN CREMA IDRATANTE        1090907030008020150525220  1  NNLT000000750000000750N00000001009999901PZU00010000000000100000000INIVEA F.MEN CREMA   $00000I00000000069342301      NIVEA F.MEN CREMA IDRATANTE        00000000069342301      IC00000010099999999900010IL0000000101202501029999999900000000239E0000012015061899999999U0001000000000003958020250415220333EL5       EUR000000P00200S$ALL  $$$$$      000000N
300372M072169701ACQUA MICELLARE ROSA IALUR.EQUIL.  1090910010180020220420220  1  NNLT000004000000004000N00000001009999901PZU00010000000000100000000EACQUA MICEL.ROSA IAL$00000E00000000072169701      ACQUA MICELLARE ROSA IALUR.EQUIL.  00000000072169701      IC00000010099999999900006EL0000000101202205129999999900000000300E0000012022051299999999U0001000000000004908020250415220333EL5       EUR000000P00216S$ALL  $$$$$      000000N
300372M072597601CERA ROLL CONAD ESS.               1090919040000120230302220  1  NSLT000001000000001000N00000001009999901PZU00010000000000100000000ICERA ROLL CONAD ESS.$00000I00000000072597601      CERA ROLL CONAD ESS.               00000000072597601      IC00000010099999999900012IL0000000101202405232025043000000000100E0000012024053020250430U0001000000000001498020250415220333EL5       EUR000000P00192SCALL  BEF        000000N
300372M072597401STRISCE DEP.VISO CONAD ESS X24     1090919070000120230302220  1  NS$$000000000000010000N00000001009999901PZU00010000000000100000000ISTRISCE DEP.VISO CON$00000I00000000072597401      STRISCE DEP.VISO CONAD ESS X24     00000000072597401      IC00000010099999999900012IL0000000101202405232025043000000000105E0000012024053020250430U0001000000000002398020250415220333EL5       EUR000000P00228SCALL  BEF        000000N
300372M072597301STRISCE DEP.BIKINI CONAD ESS.X20   1090919070000220230302220  1  NS$$000000000000010000N00000001009999901PZU00010000000000100000000ISTRISCE DEP.BIKINI  $00000I00000000072597301      STRISCE DEP.BIKINI CONAD ESS.X20   00000000072597301      IC00000010099999999900012IL0000000101202405232025043000000000105E0000012024053020250430U0001000000000002398020250415220333EL5       EUR000000P00180SCALL  BEF        000000N
300372M072597501STRISCE TNT CONAD ESS.X100         1090919070000220230302220  1  NS$$000000000000010000N00000001009999901PZU00010000000000100000000ISTRISCE TNT CONAD ES$00000I00000000072597501      STRISCE TNT CONAD ESS.X100         00000000072597501      IC00000010099999999900012IL0000000101202405232025043000000000130E0000012024053020250430U0001000000000002108020250415220333EL5       EUR000000P00064SCALL  BEF        000000N
300372M072402801RAS.FEM.CONAD ESS.ESA/GET.3 LAME X61090919090000220221024220  1  NS$$000000000000010000N00000001009999901PZU00010000000000100000000IRAS.FEM.CONAD ESS.ES$00000I00000000072402801      RAS.FEM.CONAD ESS.ESA/GET.3 LAME X600000000072402801      IC00000010099999999900010IL0000000101202405232025043000000000195E0000012024053020250430U0001000000000002998020250415220333EL5       EUR000000P00162SCALL  BEF        000000N
300372M072403001RAS.DON.US/GET.CONAD ESS.2 LAME X101090919090000320221024220  1  NS$$000000000000010000N00000001009999901PZU00010000000000100000000IRAS.DON.US/GET.CONAD$00000I00000000072403001      RAS.DON.US/GET.CONAD ESS.2 LAME X1000000000072403001      IC00000010099999999900020IL0000000101202211242025043000000000120E0000012024053020250430U0001000000000001858020250415220333EL5       EUR000000P00080SCALL  BEF        000000N
300372M072597101STRISCE DEPIL.NORM.CONAD ESS.X32   1090919100000220230302220  1  NS$$000000000000010000N00000001009999901PZU00010000000000100000000ISTRISCE DEPIL.NORM.C$00000I00000000072597101      STRISCE DEPIL.NORM.CONAD ESS.X32   00000000072597101      IC00000010099999999900012IL0000000101202405232025043000000000160E0000012024053020250430U0001000000000002798020250415220333EL5       EUR000000P00096SCALL  BEF        000000N
300372M072597102STRISCE DEPIL.SENS.CONAD ESS.X32   1090919100000220230302220  1  NS$$000000000000010000N00000001009999901PZU00010000000000100000000ISTRISCE DEPIL.SENS. $00000I00000000072597102      STRISCE DEPIL.SENS.CONAD ESS.X32   00000000072597102      IC00000010099999999900012IL0000000101202405232025043000000000160E0000012024053020250430U0001000000000002798020250415220333EL5       EUR000000P00096SCALL  BEF        000000N
300372M072597001CREMA DEPIL.NORM.CONAD ESS         1090919100000420230302220  1  NSLT000002000000002000N00000001009999901PZU00010000000000100000000ICREMA DEPIL.NORM.CON$00000I00000000072597001      CREMA DEPIL.NORM.CONAD ESS         00000000072597001      IC00000010099999999900012IL0000000101202405232025043000000000160E0000012024053020250430U0001000000000002798020250415220333EL5       EUR000000P00096SCALL  BEF        000000N
300372M072597002CREMA DEPIL.SENS.CONAD ESS.        1090919100000420230302220  1  NSLT000002000000002000N00000001009999901PZU00010000000000100000000ICREMA DEPIL.SENS.CON$00000I00000000072597002      CREMA DEPIL.SENS.CONAD ESS.        00000000072597002      IC00000010099999999900012IL0000000101202405232025043000000000160E0000012024053020250430U0001000000000002798020250415220333EL5       EUR000000P00096SCALL  BEF        000000N
300372M068406601LYCIA STRISCE DEPIL.P/NORM.VISO X201090919100060020120302220  1  NN$$000000000000010000N00000001009999901PZU00010000000000100000000FLYCIA STRISCE DEPIL.$00000F00000000068406601      LYCIA STRISCE DEPIL.P/NORM.VISO X2000000000068406601      IC00000010099999999900012FL0000000101201604219999999900000000215E0000012016042199999999U0001000000000004908020250415220350EL5       EUR000000P00140S$ALL  $$$$$      000000N
300372M067849501SOLARE CONAD CREMA DOPOSOLE        1091101220000920100212220  1  NSLT000003000000003000N00000001009999901PZU00010000000000100000000FCREMA DOPOSOLE CONAD$00000F00000000067849501      SOLARE CONAD CREMA DOPOSOLE        00000000067849501      IC00000010099999999900006FL0000000101201604079999999900000000315E0000012016040799999999U0001000000000005908020250415220346EL5       EUR000000P00150NCALL  $$$$$      000000N
300372M069504501SOLARE CONAD LATTE FP.50           1091101220003020151221220  1  NSLT000002000000002000N00000001009999901PZU00010000000000100000000FSOLARE CONAD LATTE  $00000F00000000069504501      SOLARE CONAD LATTE FP.50           00000000069504501      IC00000010099999999900006FL0000000101201604079999999900000000455E0000012016040799999999U0001000000000008908020250415220400EL5       EUR000000P00252SCALL  $$$$$      000000N
300372M073676301SALV.DET.MULTIUSO CONAD ESS.X20    1091301040000720250313220  1  NS$$000000000000010000N00000001009999901PZU00010000000000100000000ISALV.DET.MULTIUSO CO$00000I00000000073676301      SALV.DET.MULTIUSO CONAD ESS.X20    00000000073676301      IC00000010099999999900014IL0000000101202504179999999900000000055E0000012025041799999999U0001000000000000968020250415220425EL5       EUR000000P00100NCALL  $$$$$      000000N
300372M073676401SALV.DET.MULTIUSO CONAD ESS.X72    1091301040000820250313220  1  NS$$000000000000010000N00000001009999901PZU00010000000000100000000ISALV.DET.MULTIUSO CO$00000I00000000073676401      SALV.DET.MULTIUSO CONAD ESS.X72    00000000073676401      IC00000010099999999900012IL0000000101202504179999999900000000105E0000012025041799999999U0001000000000001838020250415220425EL5       EUR000000P00048NCALL  $$$$$      000000N
300372M070852201SALV.INTIME LENITIV.CONAD ESSEN.X121091301070000520200411220  1  NS$$000000000000001000N00000001009999901PZU00010000000000100000000ISALV.INTIME LENITIV.$00000I00000000070852201      SALV.INTIME LENITIV.CONAD ESSEN.X1200000000070852201      IC00000010099999999900012IL0000000101202312282025043000000000050E0000012023122820250430U0001000000000000998020250415220333EL5       EUR000000P00217SCALL  BEF        000000N
300372M070852202SALV.INTIME RINFRES.CONAD ESSEN.X121091301070000520200411220  1  NS$$000000000000001000N00000001009999901PZU00010000000000100000000ISALV.INTIME RINFRES.$00000I00000000070852202      SALV.INTIME RINFRES.CONAD ESSEN.X1200000000070852202      IC00000010099999999900012IL0000000101202312282025043000000000050E0000012023122820250430U0001000000000000998020250415220333EL5       EUR000000P00217SCALL  BEF        000000N
300372M000487001COTTON FIOC JOHNSON'S X100         1091304010004019790521220  1  NN$$000000000000010000N00000001009999901PZU00010000000000100000000ICOTTON FIOC JOHNSONS$00000I00000000000487001      COTTON FIOC JOHNSON'S X100         00000000000487001      IC00000010099999990000024IL0000000101202302169999999900000000135E0000012023021699999999U0001000000000001998020250415220333EL5       EUR000000P00144S$ALL  $$$$$      000000N
300372M072743401DISCH.LEVASMALTO COTONEVE X60      1091307100020520230614220  1  NN$$000000000000010000N00000001009999901PZU00010000000000100000000EDISCH.LEVASMALTO COT$00000E00000000072743401      DISCH.LEVASMALTO COTONEVE X60      00000000072743401      IC00000010099999999900024EL0000000101202306229999999900000000095E0000012023062299999999U0001000000000001608020250415220333EL5       EUR000000P00100S$ALL  $$$$$      000000N
300372M069723401CONF.NIVEA MEN SENSITIVE SET       1091501010251320160921220  1  NN$$000000000000010000N00000001009999901PZU00010000000000100000000FCONF.REG.NIVEA MEN  $00000F00000000069723401      CONF.NIVEA MEN SENSITIVE SET       00000000069723401      IC00000010099999999900006FL0000000101201611039999999900000000920E0000012016110399999999U0001000000000016908020250415220403EL5       EUR000000P00018N$ALL  $$$$$      000000N
300372M072883501CROCCOLE DI MERLUZZO FINDUS X5     1210104120004720230904100  1  NNKG000005400000005400N00000004000036004PZU00010000000001100000000OCROCCOLE DI MERLUZZOZ00000O00000000072883501      CROCCOLE DI MERLUZZO FINDUS X5     00000000072883501      IC00000010099999999900006OL0000000101202401119999999900000000564E0000012024112899999999U0001000000000008998020250415220333EL5       EUR000000 00000S$ALL  $$$$$      000000N
300372M070300501BURGER DI SALMONE FINDUS X2        1210104120006620180814100  1  NNKG000001700000001700N00000004000036004PZU00010000000001100000000IBURGER SALMONE FIND.Y00000P00000000070300501      BURGER DI SALMONE FINDUS X2        00000000070300501      IC00000010009999999900006PL0000000101202503139999999900000000340E0000012025031399999999U0001000000000005298020250415220333EL5       EUR000000 00000S$ALL  $$$$$      000000N
300372M071913901PISELLI FINI D.ITALIA OROGEL GR.6001210107010014020210930040  1  NNKG000006000000006000N00000004000036004PZU00010000000001100000000IPISELLI FINI D.ITALIY00000I00000000071913901      PISELLI FINI D.ITALIA OROGEL GR.60000000000071913901      IC00000010099999999900012IL0000000101202111119999999900000000212E0000012021111199999999U0001000000000002998020250415220333EL5       EUR000000 00000S$ALL  $$$$$      000000N
300372M070300802ZUPPA FARRO E CECI FINDUS GRANO SAR1210107260001220180814100  1  NNKG000005000000005000N00000004000036004PZU00010000000001100000000IZUPPA FAR.CECI FIND.Y00000P00000000070300802      ZUPPA FARRO E CECI FINDUS GRANO SAR00000000070300802      IC00000010099999999900012PL0000000101202503139999999900000000224E0000012025031399999999U0001000000000003298020250415220333EL5       EUR000000 00000S$ALL  $$$$$      000000N
300372M070613204CREMOSA FINDUS +PROTEINE GR.600    1210107260002520230905100  1  NNKG000006000000006000N00000004000036004PZU00010000000001100000000ICREMOSA FINDUS +PROTY00000P00000000070613204      CREMOSA FINDUS +PROTEINE GR.600    00000000070613204      IC00000010099999999900012PL0000000101202503139999999900000000260E0000012025031399999999U0001000000000003898020250415220333EL5       EUR000000 00000S$ALL  $$$$$      000000N
300372M003500501PATATINE DA FRIGGERE CONAD         1210107340000719970613040  1  NSKG000010000000010000N00000004000036004PZU00010000000001100000000IPATAT.D/FRIGG.CONAD $00000I00000000003500501      PATATINE DA FRIGGERE CONAD         00000000003500501      IC00000010000999990000010IL0000000101202503132025043000000000192E0000012025031320250430U0001000000000002698020250415220333EL5       EUR000000 00000SCALL  BEF        000000N
