002270M021165601GRASSE/SUCCULENTE V.10,5 BOX CART. 1320505010001020170201100  1  NN$$000000000000010000N00000006159999951PZU00010000000000900000000IGRASSE/SUCCULENTE V.700000O00000000021165601      GRASSE/SUCCULENTE V.10,5 BOX CART. 00000000021165601      IC00000010000001500000012OL0000000101202501149999999900000000270C0000012025011499999999U0001000000000004509220250328210422EL5       EUR000000 00000S$ALL  $$$$$      000000N
002270M021250901PIANTA ORTENSIA V.22 CONFEZIONATA  1320505010019820180322100  1  NN$$000000000000010000N00000006159999951PZU00010000000000900000000OPIANTA ORTENSIA V.22$00000O00000000021250901      PIANTA ORTENSIA V.22 CONFEZIONATA  00000000021250901      IC00000010000001500000004OL0000000101202303222025041300000000990C0000012024032520250413U0001000000000014909220250328210422EL5       EUR000000 00000S$ALL  $$$$$      000000N
002270M021008001PIANTA PETUNIA IN BASKET MIX V.18  1320505010020020140228100  1  NN$$000000000000010000N00000006159999951PZU00010000000000900000000IPIANTA PETUNIA IN BA$00000I00000000021008001      PIANTA PETUNIA IN BASKET MIX V.18  00000000021008001      IC00000010000001500000006I 0000000000000000000000000000000000000 0000000000000000000000U0001000000000000009220250328210422EL5       EUR000000 00000S$ALL  $$$$$      000000N
002270M020989201PIANTA GARDENIA V.14 CONF.GIOIELLO 1320505010040020130412100  1  NN$$000000000000010000N00000006159999951PZU00010000000000900000000OPIANTA GARDENIA V.14$00000O00000000020989201      PIANTA GARDENIA V.14 CONF.GIOIELLO 00000000020989201      IC00000010000001500000012OL0000000101202503282025041300000000620C0000012025032820250413U0001000000000008909220250328210422EL5       EUR000000 00000S$ALL  $$$$$      000000N
002270M021249601PIANTA AZALEA V.17 CHIOMA 40/50    1320505010040020180320100  1  NN$$000000000000010000N00000006159999951PZU00010000000000900000000OPIANTA AZALEA V.17 C100000O00000000021249601      PIANTA AZALEA V.17 CHIOMA 40/50    00000000021249601      IC00000010000001500000006OL0000000101202503282025041300000000790C0000012025032820250413U0001000000000012909220250328210422EL5       EUR000000 00000S$ALL  $$$$$      000000N
002270M021726801PIANTA DIPLADENIA PIRAMIDE V.17    1320505010060020230414100  1  NN$$000000000000010000N00000006159999951PZU00010000000000900000000IPIANTA DIPLADENIA PI100000S00000000021726801      PIANTA DIPLADENIA PIRAMIDE V.17    00000000021726801      IC00000010000001500000006SL0000000101202305189999999900000000850C0000012023051899999999U0001000000000012909220250328210422EL5       EUR000000 00000S$ALL  $$$$$      000000N
002270M020862501AR.SANGUINELLO C.7 KG.1,5 CPQ.IT.IC1330101040002520080229040  1  NSKG000015000000015000N00000006509999951PZU00010000000000900000000IAR.SANGUINELLO C.7 K$00000S00000000020862501      AR.SANGUINELLO C.7 KG.1,5 CPQ.IT.IC00000000020862501      IC00000010000001500000008SL0000000101202503199999999900000000210C0000012025031999999999U0001000000000002989220250328210422EL5       EUR000000 00000SPALL  $$$$$      000000N
002270M021224501AR.NAVEL CAL.5 CONAD P.Q.4X6 ITA IC1330101190000120171206040  1  NSKG000010000000000000S00000006509999951KGU00010000000000900000000SAR.NAVEL CAL.5 CONAD$00000Z00000000021224501      AR.NAVEL CAL.5 CONAD P.Q.4X6 ITA IC00000000021224501      IC00000010000001500000001ZL0000000101202412319999999900000000140C0000012024123199999999U0001000000000001999220250328210422EL5       EUR000000 00000SPALL  $$$$$      010001N
002270M020532201AR.NAVEL CAL.6 KG.1,5 CPQ OR.SPA.IC1330101190000520020418040  1  NSKG000015000000015000N00000006509999951PZU00010000000000900000000IAR.NAVEL CAL.6 KG.1,$00000S00000000020532201      AR.NAVEL CAL.6 KG.1,5 CPQ OR.SPA.IC00000000020532201      IC00000010000001500000008SL0000000101202503239999999900000000170C0000012025032399999999U0001000000000002499220250328210422EL5       EUR000000 00000SPALL  $$$$$      000000N
002270M021316901AR.LANELATE ROSARIA CAL.5 ITA I CAT1330101190000720190218040  1  NNKG000010000000000000S00000006509999951KGU00010000000000900000000SAR.LANELATE ROSARIA $00000I00000000021316901      AR.LANELATE ROSARIA CAL.5 ITA I CAT00000000021316901      IC00000010000001500000001IL0000000101202503129999999900000000155C0000012025031299999999U0001000000000002299220250328210422EL5       EUR000000 00000S$ALL  $$$$$      004001N
002270M021705801MELA ENVY CAL.80/85 ITALIA ICAT    1330119310002020230203040  1  NNKG000010000000000000S00000006509999951KGU00010000000000900000000IMELA ENVY CAL.80/85 $00000S00000000021705801      MELA ENVY CAL.80/85 ITALIA ICAT    00000000021705801      IC00000010000001500000001SL0000000101202412249999999900000000200C0000012024122499999999U0001000000000002989220250328210422EL5       EUR000000 00000S$ALL  $$$$$      004001N
002270M021414201MELE MORGANA 80/85 VASS.900G ITA.IC1330119310002520200908040  1  NNKG000009000000009000N00000006509999951PZU00010000000000900000000IMELE MORGANA 80/85 V$00000I00000000021414201      MELE MORGANA 80/85 VASS.900G ITA.IC00000000021414201      IC00000010000001500000006IL0000000101202503269999999900000000190C0000012025032699999999U0001000000000002799220250328210422EL5       EUR000000 00000S$ALL  $$$$$      000000N
002270M021472201FRAGOLE 300G SAPORI&IDEE ITA.ICAT  1330146010000320210412040  1  NSKG000003000000003000N00000006509999951PZU00010000000000900000000IFRAGOLE 300G SAPORI&$00000I00000000021472201      FRAGOLE 300G SAPORI&IDEE ITA.ICAT  00000000021472201      IC00000010000001500000010IL0000000101202503259999999900000000170C0000012025032599999999U0001000000000002499220250328210422EL5       EUR000000 00000SIALL  $$$$$      000000N
002270M020038601FRAGOLE CANDONGA ORIGINE ITALIA ICT1330146010000819921204040  1  NNKG000010000000000000S00000006509999951KGU00010000000000900000000IFRAGOLE CANDONGA ITA$00000S00000000020038601      FRAGOLE CANDONGA ORIGINE ITALIA ICT00000000020038601      IC00000010000001500000001SL0000000101202503259999999900000000530C0000012025032599999999U0001000000000007909220250328210422EL5       EUR000000 00000S$ALL  $$$$$      005001N
002270M020109101MELONI RETATI OR.SENEGAL  I CAT    1330161010000819921204040  1  NNKG000010000000000000S00000006509999951KGU00010000000000900000000IMELONI RETATI OR.SEN$00000S00000000020109101      MELONI RETATI OR.SENEGAL  I CAT    00000000020109101      IC00000010000001500000001S 0000000000000000000000000000000000000 0000000000000000000000U0001000000000000009220250328210422EL5       EUR000000 00000S$ALL  $$$$$      001001S
002270M020037701MELONI RETATI HONDURAS 3X4 ICAT    1330161010005019921204040  1  NNKG000010000000000000S00000006509999951KGU00010000000000900000000SMELONI RETATI HONDUR$00000Z00000000020037701      MELONI RETATI HONDURAS 3X4 ICAT    00000000020037701      IC00000010000001500000001ZL0000000101202503149999999900000000240C0000012025031499999999U0001000000000003489220250328210422EL5       EUR000000 00000S$ALL  $$$$$      001001S
002270M020812301MIRTILLI 125G OR.ITALIA I CAT      1330170040010020060904040  1  NNKG000001250000001250N00000006509999951PZU00010000000000900000000IMIRTILLI 125G OR.ITA$00000S00000000020812301      MIRTILLI 125G OR.ITALIA I CAT      00000000020812301      IC00000010000001500000008SL0000000101202503289999999900000000205C0000012025032899999999U0001000000000002899220250328210422EL5       EUR000000 00000S$ALL  $$$$$      000000N
002270M021841201ANANAS PELATA VAS.500G OR.C.RICA IC1330174010005020231123040  1  NNKG000005000000005000N00000006509999951PZU00010000000000900000000IANANAS PELATA VAS.50$00000I00000000021841201      ANANAS PELATA VAS.500G OR.C.RICA IC00000000021841201      IC00000010000001500000006IL0000000101202311289999999900000000290C0000012023112899999999U0001000000000003999220250328210422EL5       EUR000000 00000S$ALL  $$$$$      000000N
002270M021860801RADICCHIO VARIEGATO 500G OR.IT I CT1330307070000520240122040  1  NNKG000005000000005000N00000006509999951PZU00010000000000900000000IRADICCHIO VARIEGATO $00000S00000000021860801      RADICCHIO VARIEGATO 500G OR.IT I CT00000000021860801      IC00000010000001500000004SL0000000101202503129999999900000000215C0000012025031299999999U0001000000000002999220250328210422EL5       EUR000000 00000S$ALL  $$$$$      000000N
002270M020921801F.CHAMP.GRANDI VAS.500G CPQ IT.IC  1330308010008020100407040  1  NSKG000005000000005000N00000006509999951PZU00010000000000900000000IFUNGHI VASS.500G    $00000I00000000020921801      F.CHAMP.GRANDI VAS.500G CPQ IT.IC  00000000020921801      IC00000010000001500000006IL0000000101202211109999999900000000170C0000012022111099999999U0001000000000002499220250328210422EL5       EUR000000 00000SPALL  $$$$$      000000N
002270M020922501F.CHAMP.RIPIENI LAZIO 400G IT.ICT  1330308010013120100407040  1  NNKG000004000000004000N00000006509999951PZU00010000000000900000000IF.CHAMP.RIPIENI LAZI$00000I00000000020922501      F.CHAMP.RIPIENI LAZIO 400G IT.ICT  00000000020922501      IC00000010000001500000006IL0000000101202205022025033100000000255C0000012022050220250331U0001000000000003499220250328210422EL5       EUR000000 00000S$ALL  $$$$$      000000N
002270M020922301F.MISTI TRIFOLATI LAZIO 250G IT.I  1330308100013320100407040  1  NNKG000002500000002500N00000006509999951PZU00010000000000900000000IF.MISTI TRIFOLATI LA$00000I00000000020922301      F.MISTI TRIFOLATI LAZIO 250G IT.I  00000000020922301      IC00000010000001500000006IL0000000101202304042025033100000000158C0000012023040420250331U0001000000000002299220250328210422EL5       EUR000000 00000S$ALL  $$$$$      000000N
002270M021906901PASSATO DI ZUCCA E CAROTE BDS 350G 1330309190000220240422100  1  NNKG000003500000003500N00000006509999951PZU00010000000000900000000IPASSATO DI ZUCCA E C$00000I00000000021906901      PASSATO DI ZUCCA E CAROTE BDS 350G 00000000021906901      IC00000010000001500000008IL0000000101202503299999999900000000160C0000012025032999999999U0001000000000002499220250328210422EL5       EUR000000 00000S$ALL  $$$$$      000000N
002270M021204001PASTA E FAGIOLI BDS 350G           1330309190000720170919100  1  NNKG000003500000003500N00000006509999953PZU00010000000000900000000IPASTA E FAGIOLI BDS $00000I00000000021204001      PASTA E FAGIOLI BDS 350G           00000000021204001      IC00000010000001500000008IL0000000101202503292025040500000000160C0000012025032920250405U0001000000000002499220250328210422EL5       EUR000000 00000S$ALL  $$$$$      000000N
002270M021204401MINESTRONE INVERNALE BDS 350G      1330309190001520170919100  1  NNKG000003500000003500N00000006509999951PZU00010000000000900000000IMINESTRONE INVERNALE$00000I00000000021204401      MINESTRONE INVERNALE BDS 350G      00000000021204401      IC00000010000001500000008IL0000000101202503292025040500000000160C0000012025032920250405U0001000000000002499220250328210422EL5       EUR000000 00000S$ALL  $$$$$      000000N
002270M022006901COUS COUS INT.CER./GAMBERETTI 200G 1330309190005020250310100  1  NNKG000002000000002000N00000006509999951PZU00010000000000900000000ICOUS COUS INT.CER./G$00000I00000000022006901      COUS COUS INT.CER./GAMBERETTI 200G 00000000022006901      IC00000010000001500000008IL0000000101202503292025040500000000250C0000012025032920250405U0001000000000003499220250328210422EL5       EUR000000 00000S$ALL  $$$$$      000000N
002270M021204601PASSATO DI VERDURE INVERN.BDS 350G 1330309190006020170919100  1  NNKG000003500000003500N00000006509999953PZU00010000000000900000000IPASSATO DI VERDURE I$00000I00000000021204601      PASSATO DI VERDURE INVERN.BDS 350G 00000000021204601      IC00000010000001500000008IL0000000101202503292025040500000000160C0000012025032920250405U0001000000000002499220250328210422EL5       EUR000000 00000S$ALL  $$$$$      000000N
002270M021178801BONTA DI STAG.VELL.DI ASPARAGI 350G1330309190027820170424100  1  NNKG000003500000003500N00000006509999953PZU00010000000000900000000FBONTA DI STAG.VELL.D$00000I00000000021178801      BONTA DI STAG.VELL.DI ASPARAGI 350G00000000021178801      IC00000010000001500000008IL0000000101202403269999999900000000160C0000012024032699999999U0001000000000002499220250328210422EL5       EUR000000 00000S$ALL  $$$$$      000000N
002270M021683101CEREALLEGRE FREGOLA/ZUCCA/FETA 200G1330309190030020221121100  1  NNKG000002000000002000N00000006509999953PZU00010000000000900000000ICEREALLEGRE FREGOLA/$00000I00000000021683101      CEREALLEGRE FREGOLA/ZUCCA/FETA 200G00000000021683101      IC00000010000001500000008IL0000000101202503292025040500000000210C0000012025032920250405U0001000000000002999220250328210422EL5       EUR000000 00000S$ALL  $$$$$      000000N
002270M021732101COUS COUS CON POLLO 200G BONDUELLE 1330309190030320230502100  1  NNKG000002000000002000N00000006509999953PZU00010000000000900000000ICOUS COUS CON POLLO $00000I00000000021732101      COUS COUS CON POLLO 200G BONDUELLE 00000000021732101      IC00000010000001500000008IL0000000101202503292025040500000000260C0000012025032920250405U0001000000000003699220250328210422EL5       EUR000000 00000S$ALL  $$$$$      000000N
002270M021069001COUS COUS DELIZIOSO 200G BONDUELLE 1330309190030520150505100  1  NNKG000002000000002000N00000006509999953PZU00010000000000900000000ICOUS COUS DELIZIOSO $00000I00000000021069001      COUS COUS DELIZIOSO 200G BONDUELLE 00000000021069001      IC00000010000001500000008IL0000000101202503292025040500000000260C0000012025032920250405U0001000000000003699220250328210422EL5       EUR000000 00000S$ALL  4GAM       000000N
002270M021653201ROS.BROCC.BARESANI 400 G CPQ ITI°CT1330310190000120221017040  1  NSKG000004000000004000N00000006509999951PZU00010000000000900000000IROS.BROCC.BARESANI 4$00000I00000000021653201      ROS.BROCC.BARESANI 400 G CPQ ITI°CT00000000021653201      IC00000010000001500000006IL0000000101202412109999999900000000105C0000012024121099999999U0001000000000001499220250328210422EL5       EUR000000 00000SPALL  $$$$$      000000N
002270M021889201PISELLI FRESCHI 500G ITALIA CAT.I  1330312160010020240307040  1  NNKG000005000000005000N00000006509999951PZU00010000000000900000000IPISELLI FRESCHI 500G$00000I00000000021889201      PISELLI FRESCHI 500G ITALIA CAT.I  00000000021889201      IC00000010000001500000010IL0000000101202503259999999900000000250C0000012025032599999999U0001000000000003499220250328210422EL5       EUR000000 00000S$ALL  $$$$$      000000N
002270M021157401PEPERONE CRUSCO ZAFARAN BS.100G    1330312240000120161207040  1  NNKG000001000000001000N00000006509999951PZU00010000000000900000000IPEPERONE CRUSCO ZAFA$00000I00000000021157401      PEPERONE CRUSCO ZAFARAN BS.100G    00000000021157401      IC00000010000001500000020IL0000000101202502119999999900000000390C0000012025021199999999U0001000000000005499220250328210422EL5       EUR000000 00000S$ALL  $$$$$      000000N
002270M021389801ZUCCHINE TONDE VS.500G ITALIA ICAT 1330313100020120200504040  1  NNKG000005000000005000N00000006509999951PZU00010000000000900000000IZUCCHINE TONDE VS.50500000S00000000021389801      ZUCCHINE TONDE VS.500G ITALIA ICAT 00000000021389801      IC00000010000001500000010SL0000000101202503259999999900000000100C0000012025032599999999U0001000000000001499220250328210422EL5       EUR000000 00000S$ALL  $$$$$      000000N
002270M020011301MELANZANE LUNGHE 45+ ITALIA I CAT  1330319010040019921124040  1  NNKG000010000000000000S00000006509999951KGU00010000000000900000000IMELANZANE LUNGHE 45+$00000I00000000020011301      MELANZANE LUNGHE 45+ ITALIA I CAT  00000000020011301      IC00000010000001500000001I 0000000000000000000000000000000000000 0000000000000000000000U0001000000000000009220250328210422EL5       EUR000000 00000S$ALL  $$$$$      005001N
002270M021459501PEPERONI SW.PALERMO MIX 500G IT ICT1330322130000520210304040  1  NNKG000005000000005000N00000006509999951PZU00010000000000900000000IPEPERONI SW.PALERMO $00000I00000000021459501      PEPERONI SW.PALERMO MIX 500G IT ICT00000000021459501      IC00000010000001500000008IL0000000101202503189999999900000000230C0000012025031899999999U0001000000000003299220250328210422EL5       EUR000000 00000S$ALL  $$$$$      000000N
002270M021095501POMODORO CAMONE S&D 300G IT.I CAT  1330325010001920151130040  1  NSKG000003000000003000N00000006509999951PZU00010000000000900000000IPOMODORO CAMONE S&D $00000Z00000000021095501      POMODORO CAMONE S&D 300G IT.I CAT  00000000021095501      IC00000010000001500000010ZL0000000101202503119999999900000000130C0000012025031199999999U0001000000000001899220250328210422EL5       EUR000000 00000SSALL  $$$$$      000000N
002270M020012101CARC.VIOLETTI X 20PZ ITALIA I CAT  1330343010000119921124040  1  NNKG000003500000003500N00000006509999951PZU00010000000000900000000ICARC.VIOLETTI X 20PZ$00000I00000000020012101      CARC.VIOLETTI X 20PZ ITALIA I CAT  00000000020012101      IC00000010000001500000020I 0000000000000000000000000000000000000 0000000000000000000000U0001000000000000009220250328210422EL5       EUR000000 00000S$ALL  $$$$$      000000N
002270M021453701CARC.PEASTUM IGP MAZZO 4 PZ ITA.ICT1330343070000620210208040  1  NNKG000003500000003500N00000006509999951PZU00010000000000900000000ICARC.PEASTUM IGP MAZ$00000S00000000021453701      CARC.PEASTUM IGP MAZZO 4 PZ ITA.ICT00000000021453701      IC00000010000001500000004SL0000000101202503259999999900000000330C0000012025032599999999U0001000000000004909220250328210422EL5       EUR000000 00000S$ALL  $$$$$      000000N
002270M020923301ASPARAGI COLTIVATI 500G ITALIA IC  1330349010000220100427040  1  NNKG000005000000005000N00000006509999951PZU00010000000000900000000IASPARAGI COLTIVATI G$00000I00000000020923301      ASPARAGI COLTIVATI 500G ITALIA IC  00000000020923301      IC00000010000001500000012IL0000000101202503259999999900000000365C0000012025032599999999U0001000000000004989220250328210422EL5       EUR000000 00000S$ALL  $$$$$      000000N
002270M020013801SPINACI SFUSI CON RADICI ITALIA ICT1330352070002019921123040  1  NNKG000010000000000000S00000006509999951KGU00010000000000900000000ISPINACI SFUSI CON RA$00000I00000000020013801      SPINACI SFUSI CON RADICI ITALIA ICT00000000020013801      IC00000010000001500000001IL0000000101202503259999999900000000160C0000012025032599999999U0001000000000002299220250328210422EL5       EUR000000 00000S$ALL  $$$$$      010001N
002270M021133301PATATE ROSSE CPQ.KG.1,5 ITALIA ICT 1330361010000320160627040  1  NSKG000015000000015000N00000006509999951PZU00010000000000900000000IPATATE ROSSE CPQ.KG.$00000S00000000021133301      PATATE ROSSE CPQ.KG.1,5 ITALIA ICT 00000000021133301      IC00000010000001500000010SL0000000101202407239999999900000000170C0000012024072399999999U0001000000000002499220250328210422EL5       EUR000000 00000SPALL  $$$$$      000000N
002270M021431201PATATE NATUR.BOLL/FORNO KG1,5 FR IC1330361010000720201026040  1  NNKG000015000000015000N00000006509999951PZU00010000000000900000000IPATATE NATUR.BOLL/FO$00000S00000000021431201      PATATE NATUR.BOLL/FORNO KG1,5 FR IC00000000021431201      IC00000010000001500000012SL0000000101202503259999999900000000210C0000012025032599999999U0001000000000002989220250328210422EL5       EUR000000 00000S$ALL  $$$$$      000000N
002270M021508901CROCCANTI DELIZIE S&I CONAD 240G   1330501220000520210916040  1  NSKG000002400000002400N00000006000012054PZU00010000000000900000000ICROCCANTI DELIZIE S&900000S00000000021508901      CROCCANTI DELIZIE S&I CONAD 240G   00000000021508901      IC00000010000001500000016SL0000000101202411049999999900000000320C0000012024110499999999U0001000000000004799220250328210422EL5       EUR000000 00000SIALL  $$$$$      000000N
