002130M000046700100086701000046701      PECORINO ROMANO DOP BRONZETTO      10001001000046701      IC00000010000099990000001IL000867010120140508999912310000000113000        20250408092012RIVO
002130M000048200100086701000048201      FORMAGGIO MISTO VERGARO KG.3       10001001000048201      IC00000010000099990000002IL000867010120250327999912310000000113500        20250408092012RIVO
002130M000388500100086701000388501      PANCET.MAGRETTA AGLIO/PEPE S.C     10001001000388501      IC00000010000099990000001IL000867010120230330999912310000000121000        20250408092012RIVO
002130M001446300100086701001446301      COPPA DI TESTA AL TARTUFO VIAN     10001001001446301      IC00000010000099990000001IL000867010120190613999912310000000080000        20250408092012RIVO
002130M069394100200086701069394102      PARMIGIANO REGGIANO DOP 36 MES     10001001069394102      IC00000010000099990000010IL000867010120250226999912310000000177000        20250408092012RIVO
