002130M000039900100086701000039901      ARROSTO BOCCONE DEL RE ISAL        10001001000039901      IC00000010000099990000001IL000867010120200109999912310000000090000        20250408102026RIVO
002130M000046700100086701000046701      PECORINO ROMANO DOP BRONZETTO      10001001000046701      IC00000010000099990000001IL000867010120140508999912310000000113000        20250408102026RIVO
002130M000048200100086701000048201      FORMAGGIO MISTO VERGARO KG.3       10001001000048201      IC00000010000099990000002IL000867010120250327999912310000000113500        20250408102026RIVO
002130M000058600100086701000058601      MORTADELLA DUETORRI IGP ALCISA     10001001000058601      IC00000010000099990000001IL000867010120200109999912310000000075000        20250408102026RIVO
002130M000123900100086701000123901      WURSTEL PARISER WUBER              10001001000123901      IC00000010000099990000002IL000867010120070531999912310000000064600        20250408102026RIVO
002130M000242600100086701000242601      SALAME CITTERINO CITTERIO          10001001000242601      IC00000010000099990000006IL000867010120200109999912310000000144100        20250408102026RIVO
002130M000286200100086701000286201      FORMAGGIO TRENTINGRANA 20 MESI     10001001000286201      IC00000010000099990000001IL000867010120210204999912310000000105000        20250408102026RIVO
002130M000334200100086701000334201      BRESAOLA PUNTA DANCA IGP RIGAM     10001001000334201      IC00000010000099990000001IL000867010120220519999912310000000270000        20250408102026RIVO
002130M000388500100086701000388501      PANCET.MAGRETTA AGLIO/PEPE S.C     10001001000388501      IC00000010000099990000001IL000867010120230330999912310000000121000        20250408102026RIVO
002130M000397500100086701000397501      CACIO NOCELLO VALMETAURO CONF.     10001001000397501      IC00000010000099990000006IL000867010120230810999912310000000149000        20250408102026RIVO
002130M000399100100086701000399101      CACIOTTONE AL PEPERONCINO NORC     10001001000399101      IC00000010000099990000002IL000867010120220926999912310000000177000        20250408102026RIVO
002130M000399100200086701000399102      CACIOTTONE AL PEPE NERO NORCIA     10001001000399102      IC00000010000099990000002IL000867010120220926999912310000000177000        20250408102026RIVO
002130M000474500100086701000474501      PANCETTA TESA CLASSICA S.CARLO     10001001000474501      IC00000010000099990000002IL000867010120200116999912310000000094000        20250408102026RIVO
002130M000512000100086701000512001      FORMAGGIO BERGADER EDELPILZ        10001001000512001      IC00000010000099990000001IL000867010120231122999912310000000086000        20250408102026RIVO
002130M000515900100086701000515901      CACIOCAVALLO SILANO DOP CROCE      10001001000515901      IC00000010000099990000004IL000867010120140220999912310000000120000        20250408102026RIVO
002130M000516000100086701000516001      CACIOCAVALLO AL TARTUFO            10001001000516001      IC00000010000099990000004IL000867010120221103999912310000000169000        20250408102026RIVO
002130M000557600100086701000557601      SALAMELLA ROMANA FIORUCCI          10001001000557601      IC00000010000099990000008IL000867010120230302999912310000000152000        20250408102026RIVO
002130M000571200100086701000571201      FORMAGGIO  NONNO TITO  TONIOLO     10001001000571201      IC00000010000099990000001IL000867010120220728999912310000000105000        20250408102026RIVO
002130M000579000100086701000579001      MORTADELLA SUPREMA FIORUCCI        10001001000579001      IC00000010000099990000001IL000867010120220122999912310000000071000        20250408102026RIVO
002130M000581900100086701000581901      BACCALASECCO NORVEGESE A/B 10/     10001001000581901      IC00000010000099990000001IL000867010120150924999912310000000096000        20250408102026RIVO
002130M000620100100086701000620101      PANCETTA BACON TESA ISAL           10001001000620101      IC00000010000099990000001IL000867010120200109999912310000000096000        20250408102026RIVO
002130M000703700100086701000703701      SALAMINO NORCINETTO FIORUCCI       10001001000703701      IC00000010000099990000008IL000867010120230302999912310000000188000        20250408102026RIVO
002130M000748200100086701000748201      PEC.STAGIONATO VESSILLO ROCCA      10001001000748201      IC00000010000099990000003IL000867010120221006999912310000000140000        20250408102026RIVO
002130M000748300100086701000748301      PECORINO STAGIONATO TESTANERA      10001001000748301      IC00000010000099990000002IL000867010120170824999912310000000133000        20250408102026RIVO
002130M000844500100086701000844501      ARROSTINO DOPPIO LOMBO ARROSTO     10001001000844501      IC00000010000099990000002IL000867010120220428999912310000000102000        20250408102026RIVO
002130M000916100100086701000916101      GORGONZOLA DOP PICCANTE CROCE      10001001000916101      IC00000010000099990000001IL000867010120211125999912310000000103500        20250408102026RIVO
002130M000992800100086701000992801      PECORINO DI PIENZA STAGIONATO      10001001000992801      IC00000010000099990000004IL000867010120190328999912310000000139000        20250408102026RIVO
002130M001021300100086701001021301      CACIOTTONE MISTO NORCIA            10001001001021301      IC00000010000099990000002IL000867010120230608999912310000000132700        20250408102026RIVO
002130M001025800100086701001025801      PEC.PIENZA GRAN RISERVA STAG.1     10001001001025801      IC00000010000099990000001IL000867010120191031999912310000000169000        20250408102026RIVO
002130M001051900100086701001051901      SALAME TIPO MILANO MONTEROSA ISAL  00086701001051901      IC00000010099999990000001FL000867010120200109999912310000000088000        20250408102026RIVO
002130M001051900100086701001051901      SALAME TIPO MILANO MONTEROSA I     10001001001051901      IC00000010000099990000001IL000867010120200109999912310000000088000        20250408102026RIVO
002130M001063200100086701001063201      SALAME NEGRONETTO CLASSICO         10001001001063201      IC00000010000099990000014IL000867010120090507999912310000000130800        20250408102026RIVO
002130M001256600100086701001256601      PROVOLONE GIOVANE SILANO AURIC     10001001001256601      IC00000010000099990000006IL000867010120140320999912310000000099000        20250408102026RIVO
002130M001260100100086701001260101      PROSCIUTTO COTTO DELICOTTO ISA     10001001001260101      IC00000010000099990000002IL000867010120200109999912310000000068000        20250408102026RIVO
002130M001275500100086701001275501      ACCIUGHE SPAGNA                    10001001001275501      IC00000010000099990000001IL000867010120240302999912310000000999000        20250408102026RIVO
002130M001442100100086701001442101      PROSC.NAZ.MONTAGNA MARCHIG.FAL     10001001001442101      IC00000010000099990000002IL000867010120200430999912310000000094000        20250408102026RIVO
002130M001446300100086701001446301      COPPA DI TESTA AL TARTUFO VIAN     10001001001446301      IC00000010000099990000001IL000867010120190613999912310000000080000        20250408102026RIVO
002130M001453600100086701001453601      CACIOTTINA GRIFO GR.800            10001001001453601      IC00000010000099990000004IL000867010120220113999912310000000096000        20250408102026RIVO
002130M001571500100086701001571501      TONNO IN OLIO DOLIVA NOSTROMO      10001001001571501      IC00000010000099990000001IL000867010120240817999912310000024200000        20250408102026RIVO
002130M001753600100086701001753601      RICOTTA PECORA GENTILE AMATRIC     10001001001753601      IC00000010000099990000002IL000867010120160218999912310000000057000        20250408102026RIVO
002130M001759400100086701001759401      FORMAGGGIO CASTELMAGNO DOP S&D     10001001001759401      IC00000010000099990000001IL000867010120230126999912310000000194000        20250408102027RIVO
002130M001873000100086701001873001      SOPRASSATA IN TESTA                10001001001873001      IC00000010000099990000001IL000867010120171005999912310000000076000        20250408102027RIVO
002130M001946800100086701001946801      PECORINO TOSCANO DOP STAGIONAT     10001001001946801      IC00000010000099990000002IL000867010120131128999912310000000126000        20250408102027RIVO
002130M001985900100086701001985901      PROSC.PARMA ALCISA CLASSICO SE     10001001001985901      IC00000010000099990000001IL000867010120120209999912310000000127000        20250408102027RIVO
002130M002014400100086701002014401      GORGONZOLA PICCANTE MAURI          10001001002014401      IC00000010000099990000001IL000867010120081009999912310000000092000        20250408102027RIVO
002130M002047800100086701002047801      BRESAOLA DI TACCHINO VIANI         10001001002047801      IC00000010000099990000002IL000867010120220428999912310000000189500        20250408102027RIVO
002130M002939100100086701002939101      MANZO COTTO TIROLESE SENFTER       10001001002939101      IC00000010000099990000002IL000867010120200123999912310000000130000        20250408102027RIVO
002130M003434900100086701003434901      CARCIOFI ARROSTITI                 10001001003434901      IC00000010000099990000001IL000867010120240814999912310000023400000        20250408102027RIVO
002130M003435600100086701003435601      ANTIPASTO CALABRESE                10001001003435601      IC00000010000099990000001IL000867010120250408999912310000011850000        20250408102027RIVO
002130M003435900100086701003435901      CARCIOFINI MEDI INTERI BUSCEMA     10001001003435901      IC00000010000099990000001IL000867010120240302999912310000022450000        20250408102027RIVO
002130M003732300100086701003732301      FORMAGGIO PRIMO SALE NONNO NANNI   00086701003732301      IC00000010099999999900004EL000867010120140819999912310000000090000        20250408102027RIVO
002130M003732300100086701003732301      FORMAGGIO PRIMO SALE NONNO NAN     10001001003732301      IC00000010000099990000001IL000867010120140819999912310000000090000        20250408102027RIVO
002130M004379700100086701004379701      PEPERONI ARROSTITI BUSCEMA IN      10001001004379701      IC00000010000099990000001IL000867010120240814999912310000013100000        20250408102027RIVO
002130M009589700100086701009589701      FORMAGGIO FRESCO N.NANNI RUCOL     10001001009589701      IC00000010000099990000002IL000867010120150507999912310000000093000        20250408102027RIVO
002130M009953100100086701009953101      CARPACCIO DI POLPO MEDUSA          10001001009953101      IC00000010000099990000001IL000867010120180426999912310000000169000        20250408102027RIVO
002130M009953200100086701009953201      CARPACCIO DI SALMONE MARINATO      10001001009953201      IC00000010000099990000001IL000867010120240302999912310000022900000        20250408102027RIVO
002130M010128100100086701010128101      LIEVITO PANETTO GR.500             10001001010128101      IC00000010000099990000001IL000867010120200323999912310000000012000        20250408102027RIVO
002130M010144800100086701010144801      FIGLIATA DI BUFALA                 10001001010144801      IC00000010000099990000001IL000867010120210806999912310000000168000        20250408102027RIVO
002130M0501170001000972096500                                              00086701050117001      IF00000010099999999900001IL000972090120220922999912310000000138000        20250408102027RIVO
002130M0501170001000972096511                                              00086701050117001      IF00000010099999999900001IL000972090120220922999912310000000138000        20250408102027RIVO
002130M0511135001000972016571           PECORINO STAGIONATO TESTANERA      10001001051113501      IC00000010000099990000001IL000972010120220922999912310000000192000        20250408102027RIVO
002130M067626800100086701067626801      FORM.FIORONI DI CAPRA MAURI        10001001067626801      IC00000010000099990000003IL000867010120140710999912310000000061000        20250408102027RIVO
002130M068006200100086701068006201      P.CRUDO SPAGNOLO JAMON SERRANO     10001001068006201      IC00000010000099990000001IL000867010120161013999912310000000105000        20250408102027RIVO
002130M069250000100086701069250001      FORMAGGIO ASIAGO DOP LATTEBUSC     10001001069250001      IC00000010000099990000001IL000867010120150709999912310000000062000        20250408102027RIVO
002130M069394100200086701069394102      PARMIGIANO REGGIANO DOP 36 MES     10001001069394102      IC00000010000099990000010IL000867010120250226999912310000000177000        20250408102027RIVO
002130M069653700100086701069653701      INSALATA DI POLPO MEDUSA           10001001069653701      IC00000010000099990000004IL000867010120180426999912310000000159000        20250408102027RIVO
002130M070182500100086701070182501      PROSC.COTTO NATURISSIMO AQ FIO     10001001070182501      IC00000010000099990000002IL000867010120180405999912310000000116000        20250408102027RIVO
002130M070480400100086701070480401      MORTAD.FAVOLA IN COTENNA C/PIS     10001001070480401      IC00000010000099990000001IL000867010120191212999912310000000088000        20250408102027RIVO
002130M072328000100086701072328001      ARINGHE ARGENT.AFF.HS EX.LARG.     10001001072328001      IC00000010000099990000001IL000867010120220929999912310000000250000        20250408102027RIVO
002130M566239400102332301130031         LONZINO STAG.ALTOPIANO COLFIOR     10001001566239401      IC00000010000099990000001IL023323010120240725999912310000000166000        20250408102027RIVO
