002130M000058600100086701000058601      MORTADELLA DUETORRI IGP ALCISA     10001001000058601      IC00000010000099990000001IL000867010120200109999912310000000075000        20250408113357RIVO
002130M000123900100086701000123901      WURSTEL PARISER WUBER              10001001000123901      IC00000010000099990000002IL000867010120070531999912310000000064600        20250408113357RIVO
002130M000242600100086701000242601      SALAME CITTERINO CITTERIO          10001001000242601      IC00000010000099990000006IL000867010120200109999912310000000144100        20250408113357RIVO
002130M000286200100086701000286201      FORMAGGIO TRENTINGRANA 20 MESI     10001001000286201      IC00000010000099990000001IL000867010120210204999912310000000105000        20250408113357RIVO
002130M000334200100086701000334201      BRESAOLA PUNTA DANCA IGP RIGAM     10001001000334201      IC00000010000099990000001IL000867010120220519999912310000000270000        20250408113357RIVO
002130M000388500100086701000388501      PANCET.MAGRETTA AGLIO/PEPE S.C     10001001000388501      IC00000010000099990000001IL000867010120230330999912310000000121000        20250408113357RIVO
002130M000397500100086701000397501      CACIO NOCELLO VALMETAURO CONF.     10001001000397501      IC00000010000099990000006IL000867010120230810999912310000000149000        20250408113357RIVO
002130M000399100100086701000399101      CACIOTTONE AL PEPERONCINO NORC     10001001000399101      IC00000010000099990000002IL000867010120220926999912310000000177000        20250408113357RIVO
002130M000399100200086701000399102      CACIOTTONE AL PEPE NERO NORCIA     10001001000399102      IC00000010000099990000002IL000867010120220926999912310000000177000        20250408113357RIVO
002130M000474500100086701000474501      PANCETTA TESA CLASSICA S.CARLO     10001001000474501      IC00000010000099990000002IL000867010120200116999912310000000094000        20250408113357RIVO
002130M000512000100086701000512001      FORMAGGIO BERGADER EDELPILZ        10001001000512001      IC00000010000099990000001IL000867010120231122999912310000000086000        20250408113357RIVO
002130M000515900100086701000515901      CACIOCAVALLO SILANO DOP CROCE      10001001000515901      IC00000010000099990000004IL000867010120140220999912310000000120000        20250408113357RIVO
002130M000516000100086701000516001      CACIOCAVALLO AL TARTUFO            10001001000516001      IC00000010000099990000004IL000867010120221103999912310000000169000        20250408113357RIVO
002130M000557600100086701000557601      SALAMELLA ROMANA FIORUCCI          10001001000557601      IC00000010000099990000008IL000867010120230302999912310000000152000        20250408113357RIVO
002130M000571200100086701000571201      FORMAGGIO  NONNO TITO  TONIOLO     10001001000571201      IC00000010000099990000001IL000867010120220728999912310000000105000        20250408113357RIVO
002130M000579000100086701000579001      MORTADELLA SUPREMA FIORUCCI        10001001000579001      IC00000010000099990000001IL000867010120220122999912310000000071000        20250408113357RIVO
002130M000581900100086701000581901      BACCALASECCO NORVEGESE A/B 10/     10001001000581901      IC00000010000099990000001IL000867010120150924999912310000000096000        20250408113357RIVO
002130M000620100100086701000620101      PANCETTA BACON TESA ISAL           10001001000620101      IC00000010000099990000001IL000867010120200109999912310000000096000        20250408113357RIVO
002130M000703700100086701000703701      SALAMINO NORCINETTO FIORUCCI       10001001000703701      IC00000010000099990000008IL000867010120230302999912310000000188000        20250408113357RIVO
002130M000748200100086701000748201      PEC.STAGIONATO VESSILLO ROCCA      10001001000748201      IC00000010000099990000003IL000867010120221006999912310000000140000        20250408113357RIVO
002130M000748300100086701000748301      PECORINO STAGIONATO TESTANERA      10001001000748301      IC00000010000099990000002IL000867010120170824999912310000000133000        20250408113357RIVO
002130M000844500100086701000844501      ARROSTINO DOPPIO LOMBO ARROSTO     10001001000844501      IC00000010000099990000002IL000867010120220428999912310000000102000        20250408113357RIVO
002130M000916100100086701000916101      GORGONZOLA DOP PICCANTE CROCE      10001001000916101      IC00000010000099990000001IL000867010120211125999912310000000103500        20250408113357RIVO
002130M000992800100086701000992801      PECORINO DI PIENZA STAGIONATO      10001001000992801      IC00000010000099990000004IL000867010120190328999912310000000139000        20250408113357RIVO
002130M001021300100086701001021301      CACIOTTONE MISTO NORCIA            10001001001021301      IC00000010000099990000002IL000867010120230608999912310000000132700        20250408113357RIVO
002130M001025800100086701001025801      PEC.PIENZA GRAN RISERVA STAG.1     10001001001025801      IC00000010000099990000001IL000867010120191031999912310000000169000        20250408113357RIVO
002130M001051900100086701001051901      SALAME TIPO MILANO MONTEROSA ISAL  00086701001051901      IC00000010099999990000001FL000867010120200109999912310000000088000        20250408113357RIVO
002130M001051900100086701001051901      SALAME TIPO MILANO MONTEROSA I     10001001001051901      IC00000010000099990000001IL000867010120200109999912310000000088000        20250408113357RIVO
002130M001063200100086701001063201      SALAME NEGRONETTO CLASSICO         10001001001063201      IC00000010000099990000014IL000867010120090507999912310000000130800        20250408113357RIVO
002130M001256600100086701001256601      PROVOLONE GIOVANE SILANO AURIC     10001001001256601      IC00000010000099990000006IL000867010120140320999912310000000099000        20250408113357RIVO
002130M001260100100086701001260101      PROSCIUTTO COTTO DELICOTTO ISA     10001001001260101      IC00000010000099990000002IL000867010120200109999912310000000068000        20250408113357RIVO
002130M001275500100086701001275501      ACCIUGHE SPAGNA                    10001001001275501      IC00000010000099990000001IL000867010120240302999912310000099900000        20250408113357RIVO
002130M001442100100086701001442101      PROSC.NAZ.MONTAGNA MARCHIG.FAL     10001001001442101      IC00000010000099990000002IL000867010120200430999912310000000094000        20250408113357RIVO
002130M001446300100086701001446301      COPPA DI TESTA AL TARTUFO VIAN     10001001001446301      IC00000010000099990000001IL000867010120190613999912310000000080000        20250408113357RIVO
002130M001453600100086701001453601      CACIOTTINA GRIFO GR.800            10001001001453601      IC00000010000099990000004IL000867010120220113999912310000000096000        20250408113357RIVO
002130M001571500100086701001571501      TONNO IN OLIO DOLIVA NOSTROMO      10001001001571501      IC00000010000099990000001IL000867010120250408999912310000024200000        20250408113357RIVO
002130M001753600100086701001753601      RICOTTA PECORA GENTILE AMATRIC     10001001001753601      IC00000010000099990000002IL000867010120160218999912310000000057000        20250408113358RIVO
002130M001759400100086701001759401      FORMAGGGIO CASTELMAGNO DOP S&D     10001001001759401      IC00000010000099990000001IL000867010120230126999912310000000194000        20250408113358RIVO
002130M001873000100086701001873001      SOPRASSATA IN TESTA                10001001001873001      IC00000010000099990000001IL000867010120171005999912310000000076000        20250408113358RIVO
002130M001946800100086701001946801      PECORINO TOSCANO DOP STAGIONAT     10001001001946801      IC00000010000099990000002IL000867010120131128999912310000000126000        20250408113358RIVO
002130M001985900100086701001985901      PROSC.PARMA ALCISA CLASSICO SE     10001001001985901      IC00000010000099990000001IL000867010120120209999912310000000127000        20250408113358RIVO
002130M002014400100086701002014401      GORGONZOLA PICCANTE MAURI          10001001002014401      IC00000010000099990000001IL000867010120081009999912310000000092000        20250408113358RIVO
002130M002047800100086701002047801      BRESAOLA DI TACCHINO VIANI         10001001002047801      IC00000010000099990000002IL000867010120220428999912310000000189500        20250408113358RIVO
002130M002151600100086701002151601      PECORINO CUORE DI SARDEGNA         10001001002151601      IC00000010000099990000001IL000867010120220210999912310000000113500        20250408113358RIVO
002130M002151700100086701002151701      PECORINO PASTORE SARDO C.A.O.      10001001002151701      IC00000010000099990000002IL000867010120220210999912310000000105000        20250408113358RIVO
002130M002292500100086701002292501      SALAME PICCANTE GERONIMO ISAL      10001001002292501      IC00000010000099990000001IL000867010120200109999912310000000090000        20250408113358RIVO
002130M002328800100086701002328801      BONTALEGGIO MAURI                  10001001002328801      IC00000010000099990000001IL000867010120150226999912310000000089000        20250408113358RIVO
002130M002497900100086701002497901      PROSC.NAZIONALE MARCHIGIANO FA     10001001002497901      IC00000010000099990000002IL000867010120200430999912310000000112000        20250408113358RIVO
002130M002509900100086701002509901      OLIVE NERE DENOCCIOLATE FICACC     10001001002509901      IC00000010000099990000002IL000867010120240302999912310000012000000        20250408113358RIVO
002130M002541800100086701002541801      BARBOZZO GOTA STAGIONATO           10001001002541801      IC00000010000099990000002IL000867010120200102999912310000000070000        20250408113358RIVO
002130M002731200100086701002731201      MONTAGNOLO  I.SAL.                 10001001002731201      IC00000010000099990000002IL000867010120200109999912310000000112000        20250408113358RIVO
002130M002827200100086701002827201      MOZZARELLA CONAD                   10001001002827201      IC00000010000099990000015IL000867010120220728999912310000000066000        20250408113358RIVO
002130M002939100100086701002939101      MANZO COTTO TIROLESE SENFTER       10001001002939101      IC00000010000099990000002IL000867010120200123999912310000000130000        20250408113358RIVO
002130M002986400100086701002986401      FORMAGGIO GOUDA TEDESCO            10001001002986401      IC00000010000099990000001IL000867010120140130999912310000000067000        20250408113358RIVO
002130M003083200100086701003083201      QUARTIROLO LOMBARDO DOP CADEMA     10001001003083201      IC00000010000099990000002IL000867010120160505999912310000000075000        20250408113358RIVO
002130M003089400100086701003089401      PECORINO FIORE SARDO DOP SAP.&     10001001003089401      IC00000010000099990000002IL000867010120220113999912310000000155000        20250408113358RIVO
002130M003434900100086701003434901      CARCIOFI ARROSTITI                 10001001003434901      IC00000010000099990000001IL000867010120250408999912310000023400000        20250408113358RIVO
002130M003435600100086701003435601      ANTIPASTO CALABRESE                10001001003435601      IC00000010000099990000001IL000867010120250408999912310000011850000        20250408113358RIVO
002130M003435900100086701003435901      CARCIOFINI MEDI INTERI BUSCEMA     10001001003435901      IC00000010000099990000001IL000867010120250408999912310000022450000        20250408113358RIVO
002130M003442100100086701003442101      COCKTAIL OLIVE VOGLIAZZI           10001001003442101      IC00000010000099990000001IL000867010120240817999912310000008650000        20250408113358RIVO
002130M003502200100086701003502201      FORM.SPRESSA D.GIUDICARIE DOP      10001001003502201      IC00000010000099990000001IL000867010120140306999912310000000107000        20250408113358RIVO
002130M003593200100086701003593201      FETTINE DI SPALLA VITELLO          10001001003593201      IC00000010000099990000001IL000867010120250210999912310000000101800        20250408113358RIVO
002130M003594900100086701003594901      HAMBURGER DI VITELLO               10001001003594901      IC00000010000099990000001IL000867010120241216999912310000000098500        20250408113358RIVO
002130M003730800100086701003730801      SALSA TARTUFONA CORRADI            10001001003730801      IC00000010000099990000003IL000867010120220428999912310000000095400        20250408113358RIVO
002130M003732300100086701003732301      FORMAGGIO PRIMO SALE NONNO NANNI   00086701003732301      IC00000010099999999900004EL000867010120140819999912310000000090000        20250408113358RIVO
002130M003732300100086701003732301      FORMAGGIO PRIMO SALE NONNO NAN     10001001003732301      IC00000010000099990000001IL000867010120140819999912310000000090000        20250408113358RIVO
002130M003768000100086701003768001      COCKTAIL REALE SURIMI FORMA GA     10001001003768001      IC00000010000099990000001IL000867010120240814999912310000016900000        20250408113358RIVO
002130M003782800100086701003782801      EMMENTAL BAVARESE BURLANDER        10001001003782801      IC00000010000099990000001IL000867010120071115999912310000000056600        20250408113358RIVO
002130M003903200100086701003903201      PECORINO CAMPAGNOLO PETRUCCI       10001001003903201      IC00000010000099990000007IL000867010120220804999912310000000154000        20250408113358RIVO
002130M004046000100086701004046001      CASCIOTTA DURBINO D.O.P.           10001001004046001      IC00000010000099990000005IL000867010120220407999912310000000097000        20250408113358RIVO
002130M004379700100086701004379701      PEPERONI ARROSTITI BUSCEMA IN      10001001004379701      IC00000010000099990000001IL000867010120250408999912310000013100000        20250408113358RIVO
002130M004639500100086701004639501      PECORINO STAGIONATO  GRAN CAO      10001001004639501      IC00000010000099990000001IL000867010120121115999912310000000125000        20250408113358RIVO
002130M004920600100086701004920601      TRENTA CON POCO COLESTEROLO        10001001004920601      IC00000010000099990000001IL000867010120221027999912310000000147500        20250408113358RIVO
002130M005812200102065501201                                               00086701005812201      KG00000010099999999900001FL020655010120130509999912310000000170000        20250408113358RIVO
002130M005812200102065501201            GIRELLO IN SALSA VERDE GASTRO.     10001001005812201      IC00000010000099990000001IL020655010120130509999912310000000170000        20250408113358RIVO
002130M008584700100086701008584701      FORMAGGIO FILANTE GALBANI          10001001008584701      IC00000010000099990000001IL000867010120221117999912310000000201500        20250408113358RIVO
002130M008643100100086701008643101      RICOTTA AL FORNO AL LIMONE ZAP     10001001008643101      IC00000010000099990000001IL000867010120180628999912310000000089000        20250408113358RIVO
002130M008702200100086701008702201      FORMAGGIO LATTERIA VAL DI FASS     10001001008702201      IC00000010000099990000001IL000867010120121108999912310000000086000        20250408113358RIVO
002130M008705700100086701008705701      FORMAGGIO VEZZENA STAGIONATO       10001001008705701      IC00000010000099990000001IL000867010120180412999912310000000107000        20250408113358RIVO
002130M008721400100086701008721401      TOMA DI CAPRA CAPRITILLA           10001001008721401      IC00000010000099990000001IL000867010120230105999912310000000195000        20250408113358RIVO
002130M008878000100086701008878001      ANTIPASTO TRE GUSTI IN OLIO        10001001008878001      IC00000010000099990000001IL000867010120061019999912310000000132000        20250408113358RIVO
002130M009108600100086701009108601      FETTINE DI COLLO SENZA OSSO SU     10001001009108601      IC00000010000099990000001IL000867010120250210999912310000000056500        20250408113358RIVO
002130M009116600100086701009116601      FORMAGGIO PUZZONE DI MOENA DOP     10001001009116601      IC00000010000099990000001IL000867010120130103999912310000000117000        20250408113359RIVO
002130M009589700100086701009589701      FORMAGGIO FRESCO N.NANNI RUCOL     10001001009589701      IC00000010000099990000002IL000867010120150507999912310000000093000        20250408113359RIVO
002130M009652700100086701009652701      FORMAGGIO ASIAGO VECCHIO DOP       10001001009652701      IC00000010000099990000001IL000867010120220728999912310000000117000        20250408113359RIVO
002130M009665400100086701009665401      FORMAGGIO LATTERIA STAG.SOTTO      10001001009665401      IC00000010000099990000001IL000867010120220728999912310000000113000        20250408113359RIVO
002130M009665500100086701009665501      FORMAGGIO PINCION RISERVA          10001001009665501      IC00000010000099990000001IL000867010120210429999912310000000103000        20250408113359RIVO
002130M009894300100086701009894301      PECORINO PRATICELLO COOPERLAT      10001001009894301      IC00000010000099990000004IL000867010120150226999912310000000083000        20250408113359RIVO
002130M009953100100086701009953101      CARPACCIO DI POLPO MEDUSA          10001001009953101      IC00000010000099990000001IL000867010120250408999912310000016900000        20250408113359RIVO
002130M009953200100086701009953201      CARPACCIO DI SALMONE MARINATO      10001001009953201      IC00000010000099990000001IL000867010120250408999912310000022900000        20250408113359RIVO
002130M009961600100086701009961601      FORMAGGIO GALBANONE AFFUMICATO     10001001009961601      IC00000010000099990000001IL000867010120230518999912310000000119000        20250408113359RIVO
002130M010128100100086701010128101      LIEVITO PANETTO GR.500             10001001010128101      IC00000010000099990000001IL000867010120200323999912310000000012000        20250408113359RIVO
002130M010144800100086701010144801      FIGLIATA DI BUFALA                 10001001010144801      IC00000010000099990000001IL000867010120210806999912310000000168000        20250408113359RIVO
002130M0501170001000972016500           CACIOTTA MORBIDA GRIFO             10001001050117001      IC00000010000099990000001IL000972010120250408999912310000000090500        20250408113359RIVO
002130M0501170001000972016511           CACIOTTA MORBIDA GRIFO             10001001050117001      IC00000010000099990000001IL000972010120250408999912310000000090500        20250408113359RIVO
002130M0501170001000972096500                                              00086701050117001      IF00000010099999999900001IL000972090120220922999912310000000138000        20250408113359RIVO
002130M0501170001000972096511                                              00086701050117001      IF00000010099999999900001IL000972090120220922999912310000000138000        20250408113359RIVO
002130M0511135001000972016571           PECORINO STAGIONATO TESTANERA      10001001051113501      IC00000010000099990000001IL000972010120220922999912310000000192000        20250408113359RIVO
002130M051647800101356801000000000012002STRACCIATELLA CAS.ARTIGIANA        10001001051647801      IC00000010000099990000001IL013568010120230817999912310000000133000        20250408113359RIVO
002130M05164780010135680100102AA                                           00086701051647801      IF00000010099999999900001FL013568010120230817999912310000000133000        20250408113359RIVO
002130M05164780010135680100102AA        STRACCIATELLA CAS.ARTIGIANA        10001001051647801      IC00000010000099990000001IL013568010120230817999912310000000133000        20250408113359RIVO
002130M067017000100086701067017001      INSALATA MARE LAGUNE NATURALE      10001001067017001      IC00000010000099990000001IL000867010120180531999912310000000429000        20250408113359RIVO
002130M067059500100086701067059501      EMMENTAL GRAN PAVOIS               10001001067059501      IC00000010000099990000002IL000867010120240510999912310000000089000        20250408113359RIVO
002130M067239500200086701067239502      OLIVE GIG.C/PEPERONCINO VER.CO     10001001067239502      IC00000010000099990000001IL000867010120070802999912310000000159000        20250408113359RIVO
002130M067291600100086701067291601      STRACCHINO CREMOSO CONAD           10001001067291601      IC00000010000099990000002IL000867010120230105999912310000000085000        20250408113359RIVO
002130M067364400100086701067364401      SALAMINO PICCANTE ISAL             10001001067364401      IC00000010000099990000006IL000867010120200109999912310000000096000        20250408113359RIVO
002130M067532300100086701067532301      FORMAGGIO AL VINO LAGREIN          10001001067532301      IC00000010000099990000001IL000867010120230126999912310000000156000        20250408113359RIVO
002130M067555900100086701067555901      FORM.OCCHIATO NOSTRANO TRENTO      10001001067555901      IC00000010000099990000001IL000867010120140306999912310000000076000        20250408113359RIVO
002130M067559400200086701067559402      FORM.GROTTONE AFFUMICATO           10001001067559402      IC00000010000099990000001IL000867010120221006999912310000000175800        20250408113359RIVO
002130M067601600100086701067601601      FIORDILATTE COLFIORITO             00086701067601601      IC00000010099999999900001FL000867010120230401999912310000000270000        20250408113359RIVO
002130M067601600100086701067601601      FIORDILATTE COLFIORITO             10001001067601601      IC00000010000099990000001IL000867010120230401999912310000000270000        20250408113359RIVO
002130M067621300100086701067621301      FIORDILATTE VALLELATA SFUSA        10001001067621301      IC00000010000099990000002IL000867010120220630999912310000000167000        20250408113359RIVO
002130M067626800100086701067626801      FORM.FIORONI DI CAPRA MAURI        10001001067626801      IC00000010000099990000003IL000867010120250408999912310000006100000        20250408113359RIVO
002130M067626800200086701067626802      FORM.FIORONI CAPRA ERBE MAURI      10001001067626802      IC00000010000099990000003IL000867010120140710999912310000000061000        20250408113359RIVO
002130M067639500100086701067639501      CREMA DI MAGGIO CAMOSCIO DORO      10001001067639501      IC00000010000099990000001IL000867010120230216999912310000000228000        20250408113359RIVO
002130M067809800100086701067809801      PROSCIUTTO DI CINGHIALE VIANI      10001001067809801      IC00000010000099990000001IL000867010120200430999912310000000293000        20250408113359RIVO
002130M067811600100086701067811601      FIOCCO DI PROSCIUTTO NAZ.LA BA     10001001067811601      IC00000010000099990000002IL000867010120211104999912310000000106000        20250408113359RIVO
002130M067905800100086701067905801      PECORINO DEL PASTORELLO PETRUC     10001001067905801      IC00000010000099990000004IL000867010120230504999912310000000131000        20250408113359RIVO
002130M067911000100086701067911001      BISTECCA DI LOMBO S/O BOVINO A     10001001067911001      IC00000010000099990000001IL000867010120250210999912310000000094700        20250408113359RIVO
002130M068006200100086701068006201      P.CRUDO SPAGNOLO JAMON SERRANO     10001001068006201      IC00000010000099990000001IL000867010120161013999912310000000105000        20250408113359RIVO
002130M068030300100086701068030301      SPEZZATINO DI BOVINO ADULTO CO     10001001068030301      IC00000010000099990000001IL000867010120241216999912310000000092000        20250408113359RIVO
002130M068031200100086701068031201      BRACIOLA DI LOMBO SUINO CONF.R     10001001068031201      IC00000010000099990000001IL000867010120250210999912310000000034100        20250408113359RIVO
002130M068032400100086701068032401      COSCIOTTO DI POLLO CONFEZ RISP     10001001068032401      IC00000010000099990000001IL000867010120241106999912310000000033100        20250408113359RIVO
002130M068042600100086701068042601      PECORINO STAGION.IN GIARA LULI     10001001068042601      IC00000010000099990000004IL000867010120230202999912310000000200000        20250408113359RIVO
002130M068049600100086701068049601      FORMAGGIO IL CASOLET               10001001068049601      IC00000010000099990000001IL000867010120101118999912310000000089000        20250408113359RIVO
002130M068139900100086701068139901      FIOCCO PROSC.NAZ.CONAD INTERO      10001001068139901      IC00000010000099990000002IL000867010120240304999912310000000113000        20250408113359RIVO
002130M068144600100086701068144601      FILETTI DI SGOMBRO IN OLIO MED     10001001068144601      IC00000010000099990000001IL000867010120180426999912310000000215000        20250408113359RIVO
002130M068260700200086701068260702      TOMETTA AL PEPERONCINO BOTALLA     10001001068260702      IC00000010000099990000004IL000867010120230105999912310000000134000        20250408113359RIVO
002130M068260900100086701068260901      CACIOTTA CAPRINA BOTALLA           10001001068260901      IC00000010000099990000004IL000867010120230105999912310000000195000        20250408113359RIVO
002130M068300900100086701068300901      MORTADELLA FAVOLA IN COTENNA       10001001068300901      IC00000010000099990000001IL000867010120191212999912310000000088000        20250408113359RIVO
002130M068326400100086701068326401      FORMAGGIO BORSO GRAN RISERVA       10001001068326401      IC00000010000099990000001IL000867010120111110999912310000000078000        20250408113359RIVO
002130M068401200100086701068401201      TRECCIONE AFFUMICATO ALIVAL        10001001068401201      IC00000010000099990000001IL000867010120220714999912310000000089000        20250408113359RIVO
002130M068420100100086701068420101      FET.E DI FRACOSTA BOVINO ADULT     10001001068420101      IC00000010000099990000001IL000867010120241216999912310000000092000        20250408113400RIVO
002130M068431600100086701068431601      FORMAGGIO DOLCESELVA TONIOLO       10001001068431601      IC00000010000099990000001IL000867010120180111999912310000000076000        20250408113400RIVO
002130M068446300100086701068446301      PANCETTA INTERA DA SALE DI SUI     10001001068446301      IC00000010000099990000001IL000867010120240122999912310000000039800        20250408113400RIVO
002130M068488100100086701068488101      SPALLA STAGIONATA LANZI            10001001068488101      IC00000010000099990000002IL000867010120230202999912310000000064500        20250408113400RIVO
002130M068496700100086701068496701      CIAUSCOLO CORTE MARCHIGIANA IG     10001001068496701      IC00000010000099990000004IL000867010120231012999912310000000096500        20250408113400RIVO
002130M068529800100086701068529801      FORMAGGIO LUNATICO BOTALLA         10001001068529801      IC00000010000099990000004IL000867010120230105999912310000000147000        20250408113400RIVO
002130M068575900100086701068575901      FORMAGGIO GALBANINO                10001001068575901      IC00000010000099990000001IL000867010120220630999912310000000189000        20250408113400RIVO
002130M068577000100086701068577001      BOLLITO C/OSSO BOVINO ADULTO C     10001001068577001      IC00000010000099990000001IL000867010120241216999912310000000092000        20250408113400RIVO
002130M068584100100086701068584101      SQUACQUERONE AL CUCCHIAIO          10001001068584101      IC00000010000099990000002IL000867010120220224999912310000000093000        20250408113400RIVO
002130M068652200100086701068652201      CONF.SQUACQUERONE + GIARINA        10001001068652201      IC00000010000099990000001IL000867010120220224999912310000000099000        20250408113400RIVO
002130M068728600100086701068728601      PECORINO SARDO DOP S.TERESA PI     10001001068728601      IC00000010000099990000002IL000867010120221201999912310000000140000        20250408113400RIVO
002130M068774800100086701068774801      SQUACQUERONE DI ROMAGNA DOP SA     10001001068774801      IC00000010000099990000004IL000867010120221013999912310000000080000        20250408113400RIVO
002130M068777700100086701068777701      SALAME CONTADINO P.SUINO CAVAZ     10001001068777701      IC00000010000099990000001IL000867010120230112999912310000000108000        20250408113400RIVO
002130M068779600100086701068779601      FETTINE ANTER.BOVINO ADULTO C/     10001001068779601      IC00000010000099990000001IL000867010120250210999912310000000084000        20250408113400RIVO
002130M068966400100086701068966401      FORM.CASATICO DI BUFALA QUATTR     10001001068966401      IC00000010000099990000001IL000867010120140306999912310000000165000        20250408113400RIVO
002130M069004700100086701069004701      CACIOCAV.SILANO DOP CAMPOLONGO     10001001069004701      IC00000010000099990000006IL000867010120191030999912310000000094000        20250408113400RIVO
002130M069040000100086701069040001      FORMAG.PIAVE DOP VECCHIO ORO       10001001069040001      IC00000010000099990000001IL000867010120140904999912310000000106000        20250408113400RIVO
002130M069163800100086701069163801      BURRATA IN FOGLIA GIOIELLA         10001001069163801      IC00000010000099990000002IL000867010120240502999912310000000091000        20250408113400RIVO
002130M069163900100086701069163901      BURRATA AL TARTUFO GIOIELLA        10001001069163901      IC00000010000099990000002IL000867010120220915999912310000000101000        20250408113400RIVO
002130M069164000100086701069164001      BURRATA FUME GIOIELLA              10001001069164001      IC00000010000099990000002IL000867010120220915999912310000000076000        20250408113400RIVO
002130M069248900100086701069248901      MORTADELLA S&D C/PEPE SV KG14      10001001069248901      IC00000010000099990000001IL000867010120230202999912310000000079500        20250408113400RIVO
002130M069250000100086701069250001      FORMAGGIO ASIAGO DOP LATTEBUSC     10001001069250001      IC00000010000099990000001IL000867010120150709999912310000000062000        20250408113400RIVO
002130M069394100200086701069394102      PARMIGIANO REGGIANO DOP 36 MES     10001001069394102      IC00000010000099990000010IL000867010120250226999912310000000177000        20250408113400RIVO
002130M069653700100086701069653701      INSALATA DI POLPO MEDUSA           10001001069653701      IC00000010000099990000004IL000867010120250408999912310000015900000        20250408113400RIVO
002130M070182500100086701070182501      PROSC.COTTO NATURISSIMO AQ FIO     10001001070182501      IC00000010000099990000002IL000867010120180405999912310000000116000        20250408113400RIVO
002130M070480400100086701070480401      MORTAD.FAVOLA IN COTENNA C/PIS     10001001070480401      IC00000010000099990000001IL000867010120191212999912310000000088000        20250408113400RIVO
002130M070865000100086701070865001      MORTAD.FAVOLA IN COTENNA C/PIS     10001001070865001      IC00000010000099990000001IL000867010120230301999912310000000098000        20250408113400RIVO
002130M072328000100086701072328001      ARINGHE ARGENT.AFF.HS EX.LARG.     10001001072328001      IC00000010000099990000001IL000867010120220929999912310000000250000        20250408113400RIVO
002130M072585300100086701072585301      BOCCONCINI BOVINO ADULTO CONVE     10001001072585301      IC00000010000099990000001IL000867010120250408999912310000000072000        20250408113400RIVO
002130M566239400102332301130031         LONZINO STAG.ALTOPIANO COLFIOR     10001001566239401      IC00000010000099990000001IL023323010120240725999912310000000166000        20250408113400RIVO
