002130M0000399001ARROSTO BOCCONE DEL RE ISAL        10000250000030000220000130000119870116100  1  N$KG000010000000010000S00000002000009010KGU00010001000000100086701FARROSTO BOCC.DEL RE $00090F00086701000039901      ARROSTO BOCCONE DEL RE ISAL        00086701000039901      IC00000010099999990000001FL000867010120200109999912310000000090000L0000012020010999991231U0001000000000015908020250408102026RIVO      False 0 0 0     0  0 ALL$$$$$$ $$$$ FalseFalseTrue False  N20210320FalseFalseFalse
002130M0000467001PECORINO ROMANO DOP BRONZETTO      10000250000010000140000010000119790521040  1  NCKG000010000000010000S00000002000012010KGU00010000100000100086701EPECORINO ROMANO DOP $00120E00086701000046701      PECORINO ROMANO DOP BRONZETTO      00086701000046701      IC00000010099999990000001EL000867010120140508999912310000000113000L0000012014050899991231U0001000000000016508020250408102026RIVO      False 0 0 0     0  0 LL$$ $$$$ $$$$ FalseFalseTrue False  N20180206FalseFalseFalse
002130M0000482001FORMAGGIO MISTO VERGARO KG.3       10000250000010000070000040000119790521040  1  N$KG000010000000010000S00000002000027010KGU00010000300000100086701IFORMAGGIO MISTO VERG$00270I00086701000048201      FORMAGGIO MISTO VERGARO KG.3       00086701000048201      IC00000010099999990000002IL000867010120250327999912310000000113500L0000012025032799991231U0001000000000016908020250408102026RIVO      False 0 0 0     0  0  ALL$$$$$ $$$$ FalseFalseTrue False  N20230718FalseFalseFalse
002130M0000586001MORTADELLA DUETORRI IGP ALCISA     10000250000030000340000010000119790521100  1  N$KG000010000000010000S00000002000005010KGU00010000500000100086701FMORTADELLA DUETORRI $00050F00086701000058601      MORTADELLA DUETORRI IGP ALCISA     00086701000058601      IC00000010099999990000001FL000867010120200109999912310000000075000L0000012020010999991231U0001000000000012508020250408102026RIVO      False 0 0 0     0  0 ALL$$$$$$ $$$$ FalseFalseTrue False  N20141028FalseFalseFalse
002130M0001239001WURSTEL PARISER WUBER              10000250000030000460000010000119870514100  1  N$KG000010000000010000S00000002000006010KGU00010001000000100086701FWURSTEL PARISER     $00060F00086701000123901      WURSTEL PARISER WUBER              00086701000123901      IC00000010099999990000002FL000867010120070531999912310000000064600L0000012007053199991231U0001000000000011908020250408102026RIVO      False 0 0 0     0  0 ALL$$$$$$ $$$$ FalseFalseTrue False  N00000000FalseFalseFalse
002130M0002426001SALAME CITTERINO CITTERIO          10000250000030000250000220000119931110100  1  N$KG000002000000002000S00000002009999910KGU00010000300000100086701FSALAME CITTERINO    $99999F00086701000242601      SALAME CITTERINO CITTERIO          00086701000242601      IC00000010099999999900006FL000867010120200109999912310000000144100L0000012020010999991231U0001000000000022408020250408102026RIVO      False 0 0 0     0  0 ALL$$$$$$ $$$$ FalseFalseTrue False  N20231215FalseFalseFalse
002130M0002862001FORMAGGIO TRENTINGRANA 20 MESI     10000250000010000160000070000119880601040  1  N$KG000010000000010000S00000002009999910KGU00010000100000100086701FFORMAGG.TRENTINGRANA$99999F00086701000286201      FORMAGGIO TRENTINGRANA 20 MESI     00086701000286201      IC00000005099999990000001FL000867010120210204999912310000000105000L0000012021020499991231U0001000000000015908020250408102026RIVO      False 0 0 0     0  0 ALL$$$$$$ $$$$ FalseFalseTrue False  N20240409FalseFalseFalse
002130M0003342001BRESAOLA PUNTA DANCA IGP RIGAMONTI 10000250000030000100000010000119880617100  1  N$KG000010000000010000S00000002000006010KGU00010000500000100086701FBRESAOLA IGP RIGAMON$00060F00086701000334201      BRESAOLA PUNTA D'ANCA IGP RIGAMONTI00086701000334201      IC00000010099999990000001FL000867010120220519999912310000000270000L0000012022051999991231U0001000000000043508020250408102026RIVO      False 0 0 0     0  0  ALL$$$$$ $$$$ FalseFalseTrue False  N20220105FalseFalseFalse
002130M0003885001PANCET.MAGRETTA AGLIO/PEPE S.CARLO 10000250000030000310000070000119880809100  1  N$KG000010000000010000S00000002000009010KGU00010000500000100086701IPANCETTA MAGRETTA   $00090E00086701000388501      PANCET.MAGRETTA AGLIO/PEPE S.CARLO 00086701000388501      IC00000010099999990000001EL000867010120230330999912310000000121000L0000012023033099991231U0001000000000020508020250408102026RIVO      False 0 0 0     0  0 ALL$ $$$$ $$$$ FalseFalseTrue False  N20250228FalseFalseFalse
002130M0003975001CACIO NOCELLO VALMETAURO CONF.     10000250000010000070000040000119991019040  1  N$KG000010000000010000S00000002009999910KGU00010000300000100086701FCACIO NOCELLO VALMET$99999F00086701000397501      CACIO NOCELLO VALMETAURO CONF.     00086701000397501      IC00000010099999999900006FL000867010120230810999912310000000149000L0000012023081099991231U0001000000000022908020250408102026RIVO      False 0 0 0     0  0  ALL$$$$$$$$$$ FalseFalseTrue False  N20190325FalseFalseFalse
002130M0003991001CACIOTTONE AL PEPERONCINO NORCIA   10000250000010000070000040000119991019040  1  N$KG000010000000010000S00000002000009010KGU00010000300000100086701FCACIOTTONE PEPERONCI$00090F00086701000399101      CACIOTTONE AL PEPERONCINO NORCIA   00086701000399101      IC00000010099999999900002FL000867010120220926999912310000000177000L0000012022092699991231U0001000000000026508020250408102026RIVO      False 0 0 0     0  0  ALL$$$$$$$$$$ FalseFalseTrue False  N20160125FalseFalseFalse
002130M0003991002CACIOTTONE AL PEPE NERO NORCIA     10000250000010000070000040000119991019040  1  N$KG000010000000010000S00000002000009010KGU00010000300000100086701FCACIOTTONE PEPE NERO$00090F00086701000399102      CACIOTTONE AL PEPE NERO NORCIA     00086701000399102      IC00000010099999999900002FL000867010120220926999912310000000177000L0000012022092699991231U0001000000000026508020250408102026RIVO      False 0 0 0     0  0  ALL$$$$$$$$$$ FalseFalseTrue False  N20220329FalseFalseFalse
002130M0004745001PANCETTA TESA CLASSICA S.CARLO     10000250000030000310000010000119940214100  1  N$KG000010000000025000S00000002000009010KGU00010000500000100086701FPANCETTA SAN CARLO  $00090F00086701000474501      PANCETTA TESA CLASSICA S.CARLO     00086701000474501      IC00000005099999999900002FL000867010120200116999912310000000094000L0000012020011699991231U0001000000000015908020250408102026RIVO      False 0 0 0     0  0 ALL$$$$$$ $$$$ FalseFalseTrue False  N20241024FalseFalseFalse
002130M0005120001FORMAGGIO BERGADER EDELPILZ        10000250000010000190000070000119940221040  1  N$KG000010000000010000S00000002000009010KGU00010000300000100086701FFORMAGGIO BERGADER E$00090F00086701000512001      FORMAGGIO BERGADER EDELPILZ        00086701000512001      IC00000010099999999900001FL000867010120231122999912310000000086000L0000012023112299991231U0001000000000013508020250408102026RIVO      False 0 0 0     0  0  ALL$$$$$ $$$$ FalseFalseTrue False  N20200505FalseFalseFalse
002130M0005159001CACIOCAVALLO SILANO DOP CROCE MAG. 10000250000010000130000010000119940221040  1  N$KG000010000000010000S00000002000004510KGU00010000300000100086701FCACIOCAVALLO SILANO $00045F00086701000515901      CACIOCAVALLO SILANO DOP CROCE MAG. 00086701000515901      IC00000005099999999900004FL000867010120140220999912310000000120000L0000012014022099991231U0001000000000017908020250408102026RIVO      False 0 0 0     0  0 ALL$$$$$$ $$$$ FalseFalseTrue False  N20191109FalseFalseFalse
002130M0005160001CACIOCAVALLO AL TARTUFO            10000250000010000130000010000119940221040  1  N$KG000010000000010000S00000002000030010KGU00010000300000100086701FCACIOCAVA AL TARTUFO$00300F00086701000516001      CACIOCAVALLO AL TARTUFO            00086701000516001      IC00000010099999999900004FL000867010120221103999912310000000169000L0000012022110399991231U0001000000000025908020250408102026RIVO      False 0 0 0     0  0  ALL$$$$$$$$$$ FalseFalseTrue False  N20200909FalseFalseFalse
002130M0005576001SALAMELLA ROMANA FIORUCCI          10000250000030000250000190000119910617100  1  N$KG000010000000010000S00000002000004510KGU00010000500000100086701FSALAMELLA ROMANA    $00045F00086701000557601      SALAMELLA ROMANA FIORUCCI          00086701000557601      IC00000010099999990000008FL000867010120230302999912310000000152000L0000012023030299991231U0001000000000024908020250408102026RIVO      False 0 0 0     0  0 ALL$$$$$$ $$$$ FalseFalseTrue False  N20240315FalseFalseFalse
002130M0005712001FORMAGGIO  NONNO TITO  TONIOLO     10000250000010000130000250000119940303040  1  N$KG000010000000010000S00000002000009010KGU00010000100000100086701FFORMAGGIO NONNO TITO$00090F00086701000571201      FORMAGGIO "NONNO TITO" TONIOLO     00086701000571201      IC00000010099999999900001FL000867010120220728999912310000000105000L0000012022072899991231U0001000000000015908020250408102026RIVO      False 0 0 0     0  0  ALL$$$$$$$$$$ FalseFalseTrue False  N20140817FalseFalseFalse
002130M0005790001MORTADELLA SUPREMA FIORUCCI        10000250000030000340000010000119910614100  1  N$KG000010000000010000S00000002000006310KGU00010000500000100086701FMORTADELLA SUPREMA  $00063F00086701000579001      MORTADELLA SUPREMA FIORUCCI        00086701000579001      IC00000010099999990000001FL000867010120220122999912310000000071000L0000012020011699991231U0001000000000012908020250408102026RIVO      False 0 0 0     0  0 ALL$$$$$$ $$$$ FalseFalseTrue False  N20250303FalseFalseFalse
002130M0005819001BACCALASECCO NORVEGESE A/B 10/12   10000250000070000130000010000119890324100  1  N$KG000100000000100000S00000002000036010KGU00010000000000100086701IBACCALASECCO NORV.  $00360I00086701000581901      BACCALA'SECCO NORVEGESE A/B 10/12  00086701000581901      IC00000010099999990000001EL000867010120150924999912310000000096000L0000012015092499991231U0001000000000014908020250408102026RIVO      False 0 0 0     0  0$$$$$ $$$$ $$$$ FalseFalseTrue False  N20180309FalseFalseFalse
002130M0006201001PANCETTA BACON TESA ISAL           10000250000030000310000040000119890428100  1  N$KG000010000000010000S00000002000009010KGU00010000500000100086701FPANCETTA BACON ISAL $00090F00086701000620101      PANCETTA BACON TESA ISAL           00086701000620101      IC00000010099999990000001FL000867010120200109999912310000000096000L0000012020010999991231U0001000000000015908020250408102026RIVO      False 0 0 0     0  0 ALL$$$$$$ $$$$ FalseFalseTrue False  N00000000FalseFalseFalse
002130M0007037001SALAMINO NORCINETTO FIORUCCI       10000250000030000250000220000119940401100  1  N$KG000010000000010000S00000002000006010KGU00010000300000100086701FSALAMINO NORCINETTO $00060F00086701000703701      SALAMINO NORCINETTO FIORUCCI       00086701000703701      IC00000010099999999900008FL000867010120230302999912310000000188000L0000012023030299991231U0001000000000028908020250408102026RIVO      False 0 0 0     0  0  ALL$$$$$$$$$$ FalseFalseTrue False  N20231107FalseFalseFalse
002130M0007482001PEC.STAGIONATO VESSILLO ROCCA      10000250000010000070000010000120000209040  1  N$KG000010000000010000S00000002000018010KGU00010000100000100086701FPECORINO STAGIONATO $00180F00086701000748201      PEC.STAGIONATO VESSILLO ROCCA      00086701000748201      IC00000010099999999900003FL000867010120221006999912310000000140000L0000012022100699991231U0001000000000020908020250408102026RIVO      False 0 0 0     0  0 ALL$$$$$$ $$$$ FalseFalseTrue False  N20220225FalseFalseFalse
002130M0007483001PECORINO STAGIONATO TESTANERA      10000250000010000070000010000120000209040  1  N$KG000010000000010000S00000002000009010KGU00010000100000100086701EPECORINO STAGIONATO $00090E00086701000748301      PECORINO STAGIONATO TESTANERA      00086701000748301      IC00000010099999999900002EL000867010120170824999912310000000133000L0000012017082499991231U0001000000000021908020250408102026RIVO      False 0 0 0     0  0$$$$$$$$$$$$$$$ FalseFalseTrue False  N20250405FalseFalseFalse
002130M0008445001ARROSTINO DOPPIO LOMBO ARROSTO     10000250000030000220000070000119940524100  1  N$KG000010000000010000S00000002000009010KGU00010001000000100086701FARROSTINO DOPPIO LOM$00000E00086701000844501      ARROSTINO DOPPIO LOMBO ARROSTO     00086701000844501      IC00000010099999999900002EL000867010120220428999912310000000102000L0000012022042899991231U0001000000000018508020250408102026RIVO      False 0 0 0     0  0  ALL$$$$$ $$$$ FalseFalseTrue False  N20191007FalseFalseFalse
002130M0009161001GORGONZOLA DOP PICCANTE CROCE      10000250000010000040000040000120000313040  1  N$KG000010000000010000S00000002000003010KGU00010000300000100086701FGORGO.DOP PICCANTE C$00030F00086701000916101      GORGONZOLA DOP PICCANTE CROCE      00086701000916101      IC00000010099999999900001FL000867010120211125999912310000000103500L0000012021112599991231U0001000000000015908020250408102026RIVO      False 0 0 0     0  0 ALL$$$$$$ $$$$ FalseFalseTrue False  N20240313FalseFalseFalse
002130M0009928001PECORINO DI PIENZA STAGIONATO 12M  10000250000010000070000010000119900116040  1  N$KG000010000000010000S00000002009999910KGU00010000100000100086701FPECORINO DI PIENZA S$99999F00086701000992801      PECORINO DI PIENZA STAGIONATO 12M  00086701000992801      IC00000005099999990000004FL000867010120190328999912310000000139000L0000012019032899991231U0001000000000021908020250408102026RIVO      False 0 0 0     0  0 ALL$$$$$$ $$$$ FalseFalseTrue False  N20230520FalseFalseFalse
002130M0010213001CACIOTTONE MISTO NORCIA            10000250000010000070000040000120000510040  1  N$KG000010000000010000S00000002000009010KGU00010000300000100086701FCACIOTTONE MISTO    $00090F00086701001021301      CACIOTTONE MISTO NORCIA            00086701001021301      IC00000010099999999900002FL000867010120230608999912310000000132700L0000012023060899991231U0001000000000019508020250408102026RIVO      False 0 0 0     0  0  ALL$$$$$ $$$$ FalseFalseTrue False  N20250128FalseFalseFalse
002130M0010258001PEC.PIENZA GRAN RISERVA STAG.18 M. 10000250000010000070000010000119940823040  1  N$PZ000010000000010000S00000002000021010PZU00010000300000100086701FPEC.PIENZA G.RISERVA$00210F00086701001025801      PEC.PIENZA GRAN RISERVA STAG.18 M. 00086701001025801      IC00000010009999990000001FL000867010120191031999912310000000169000L0000012019103199991231U0001000000000025908020250408102026RIVO      False 0 0 0     0  0 ALL$$$$$$ $$$$ FalseFalseTrue False  N20191220FalseFalseFalse
002130M0010519001SALAME TIPO MILANO MONTEROSA ISAL  10000250000030000250000010000119900216100  1  N$KG000010000000010000S00000002000012010KGU00010000500000100086701FSALAME T.MILANO ISAL$00120F00086701               SALAME MILANO MONTEROSA ISAL       00086701               IC00000010009999990000001FL000867010120200109999912310000000088000L0000012020010999991231U0001000000000015908020250408102026RIVO      False 0 0 0     0  0 ALL$$$$$$ $$$$ FalseFalseTrue False  N20221230FalseFalseFalse
002130M0010632001SALAME NEGRONETTO CLASSICO         10000250000030000250000220000120000607100  1  N$KG000010000000010000S00000002009999910KGU00010000300000100086701FSALAME NEGRONETTO   $99999F00086701001063201      SALAME NEGRONETTO CLASSICO         00086701001063201      IC00000010099999999900014FL000867010120090507999912310000000130800L0000012009050799991231U0001000000000021408020250408102026RIVO      False 0 0 0     0  0 ALL$$$$$$ $$$$ FalseFalseTrue False  N20240507FalseFalseFalse
002130M0012566001PROVOLONE GIOVANE SILANO AURICCHIO 10000250000010000130000070000119950123040  1  N$KG000010000000010000S00000002009999910KGU00010000300000100086701FPROVOLONE GIOVANE   $99999F00086701001256601      PROVOLONE GIOVANE SILANO AURICCHIO 00086701001256601      IC00000010099999999900006FL000867010120140320999912310000000099000L0000012014032099991231U0001000000000014408020250408102026RIVO      False 0 0 0     0  0  ALL$$$$$ $$$$ FalseFalseTrue False  N20180820FalseFalseFalse
002130M0012601001PROSCIUTTO COTTO DELICOTTO ISAL    10000250000030000160000010000119900515100  1  N$KG000010000000010000S00000002000009010KGU00010001000000100086701FPROSCIUTTO DELICOTTO$00090F00086701001260101      PROSCIUTTO COTTO DELICOTTO ISAL    00086701001260101      IC00000010099999990000002FL000867010120200109999912310000000068000L0000012020010999991231U0001000000000012908020250408102026RIVO      False 0 0 0     0  0 ALL$$$$$$ $$$$ FalseFalseTrue False  N20231023FalseFalseFalse
002130M0012755001ACCIUGHE SPAGNA                    10000250000070000160000010000120000914100  1  N$KG000016130000016130S00000002000090010KGU00010000000000100086701FACCIUGHE SPAGNA     $00900F00086701001275501      ACCIUGHE SPAGNA                    00086701001275501      IC00000010099999999900001FL000867010120240302999912310000000999000L0000012016101399991231U0001000000000049908020250408102026RIVO      False 0 0 0     0  0 LL$$ $$$$ $$$$ FalseFalseTrue False  N20190625FalseFalseFalse
002130M0014421001PROSC.NAZ.MONTAGNA MARCHIG.FALERIA 10000250000030000010000160000119950410100  1  N$KG000010000000010000S00000002000015010KGU00010004200000100086701FPROSC.NAZ.FALERIA   $00150F00086701001442101      PROSC.NAZ.MONTAGNA MARCHIG.FALERIA 00086701001442101      IC00000005099999999900002FL000867010120200430999912310000000094000L0000012020043099991231U0001000000000025908020250408102026RIVO      False 0 0 0     0  0  ALL$$$$$$$$$$ FalseFalseTrue False  N20250109FalseFalseFalse
002130M0014463001COPPA DI TESTA AL TARTUFO VIANI TES10000250000030000400000010000120001108100  1  N$KG000010000000010000S00000002000006010KGU00010001000000100086701ECOPPA DI TESTA TART.$00060E00086701001446301      COPPA DI TESTA AL TARTUFO VIANI    00086701001446301      IC00000010099999999900001EL000867010120190613999912310000000080000L0000012023073099991231U0001000000000014908020250408102026RIVO      False 0 0 0     0  0  ALL$$$$$$$$$$ FalseFalseTrue False  N20230805FalseFalseFalse
002130M0014536001CACIOTTINA GRIFO GR.800            10000250000010000040000010000120001110040  1  N$KG000010000000003000S00000002000005010KGU00010000300000100086701FCACIOTTINA GRIFO GR.$00050F00086701001453601      CACIOTTINA GRIFO GR.800            00086701001453601      IC00000010099999999900004FL000867010120220113999912310000000096000L0000012022011399991231U0001000000000014808020250408102026RIVO      False 0 0 0     0  0  ALL$$$$$$$$$$ FalseFalseTrue False  N20250407FalseFalseFalse
002130M0015715001TONNO IN OLIO DOLIVA NOSTROMO      10000250000070000100000010000119901015100  1  N$KG000010000000013310S00000002000144010KGU00010000000000100086701ETONNO NOSTROMO TAMB.$01440E00086701001571501      TONNO IN OLIO D'OLIVA NOSTROMO     00086701001571501      IC00000010009999990000001EL000867010120240817999912310000024200000L0000012014040899991231U0001000000000022908020250408102026RIVO      False 0 0 0     0  0$$$$$$$$$$ $$$$ FalseFalseTrue False  N20181121FalseFalseFalse
002130M0017536001RICOTTA PECORA GENTILE AMATRICE    10000250000010000010000190000120010312040  1  N$KG000010000000010000S00000002000001010KGU00010000500000100086701ERIC.PECORA AMATRICE $00010E00086701001753601      RICOTTA PECORA GENTILE AMATRICE    00086701001753601      IC00000010099999999900002EL000867010120160218999912310000000057000L0000012016021899991231U0001000000000008908020250408102026RIVO      False 0 0 0     0  0$$$$$$$$$$$$$$$ FalseFalseTrue False  N20160609FalseFalseFalse
002130M0017594001FORMAGGGIO CASTELMAGNO DOP S&D     10000250000010000130000250000120010315040  1  NCKG000010000000010000S00000002000005010KGU00010000300000100086701FFORMAGGGI.CASTELMAGN$00050F00086701001759401      FORMAGGGIO CASTELMAGNO DOP S&D     00086701001759401      IC00000010099999999900001FL000867010120230126999912310000000194000L0000012023012699991231U0001000000000028908020250408102027RIVO      False 0 0 0     0  0  ALL$$$$$$$$$$ FalseFalseTrue False  N20250325FalseFalseFalse
002130M0018730001SOPRASSATA IN TESTA                10000250000030000400000010000119951017100  1  N$KG000010000000010000S00000002000003010KGU00010001000000100086701ESOPRASSATA IN TESTA $00030E00086701001873001      SOPRASSATA IN TESTA                00086701001873001      IC00000010099999999900001EL000867010120171005999912310000000076000L0000012017100599991231U0001000000000013908020250408102027RIVO      False 0 0 0     0  0$$$$$$$$$$$$$$$ FalseFalseTrue False  N20200108FalseFalseFalse
002130M0019468001PECORINO TOSCANO DOP STAGIONATO    10000250000010000070000010000119850624040  1  N$KG000010000000010000S00000002000036010KGU00010000100000100086701EPECORINO TOSCANO DOP$00360E00086701001946801      PECORINO TOSCANO DOP STAGIONATO    00086701001946801      IC00000010099999990000002EL000867010120131128999912310000000126000L0000012013112899991231U0001000000000017908020250408102027RIVO      False 0 0 0     0  0  ALL$$$$$$$$$$ FalseFalseTrue False  N20190710FalseFalseFalse
002130M0019859001PROSC.PARMA ALCISA CLASSICO SELEZ. 10000250000030000010000070000119951212100  1  N$KG000010000000010000S00000002000009010KGU00010002200000100086701EPROSCIUTTO PARMA    $00090E00086701001985901      PROSC.PARMA ALCISA CLASSICO SELEZ. 00086701001985901      IC00000010099999999900001EL000867010120120209999912310000000127000L0000012016012199991231U0001000000000024908020250408102027RIVO      False 0 0 0     0  0$$$$$$$$$$$$$$$ FalseFalseTrue False  N20211207FalseFalseFalse
002130M0020144001GORGONZOLA PICCANTE MAURI          10000250000010000040000040000119851120040  1  N$KG000010000000010000S00000002000003010KGU00010000300000100086701EGORGONZOLA PICCANTE $00030E00086701002014401      GORGONZOLA PICCANTE MAURI          00086701002014401      IC00000010099999990000001EL000867010120081009999912310000000092000L0000012011111099991231U0001000000000014958020250408102027RIVO      False 0 0 0     0  0  ALL$$$$$$$$$$ FalseFalseTrue False  N20240223FalseFalseFalse
002130M0020478001BRESAOLA DI TACCHINO VIANI         10000250000030000100000100000120010704100  1  N$KG000010000000010000S00000002000009010KGU00010000500000100086701FBRESAOLA DI TACCHINO$00090F00086701002047801      BRESAOLA DI TACCHINO VIANI         00086701002047801      IC00000010099999999900002EL000867010120220428999912310000000189500L0000012022042899991231U0001000000000030908020250408102027RIVO      False 0 0 0     0  0  ALL$$$$$$$$$$ FalseFalseTrue False  N20190828FalseFalseFalse
002130M0029391001MANZO COTTO TIROLESE SENFTER       10000250000030000400000010000119970102100  1  N$KG000010000000010000S00000002000006010KGU00010000500000100086701EMANZO COTTO TIROLESE$00060E00086701002939101      MANZO COTTO TIROLESE SENFTER       00086701002939101      IC00000010099999999900002EL000867010120200123999912310000000130000L0000012020012399991231U0001000000000022908020250408102027RIVO      False 0 0 0     0  0  PAC$$$$$$$$$$ FalseFalseTrue False  N20230722FalseFalseFalse
002130M0034349001CARCIOFI ARROSTITI                 10000250000070000190000010000120021014100  1  N$KG000010000000015380S00000002000006010KGU00010000000000100086701ECARCIOFI ARROSTITI  $00060E00086701003434901      CARCIOFI ARROSTITI                 00086701003434901      IC00000010099999999900001EL000867010120240814999912310000023400000L0000012008112799991231U0001000000000027908020250408102027RIVO      False 0 0 0     0  0 $$$$ $$$$ $$$$ FalseFalseTrue False  N20210412FalseFalseFalse
002130M0034356001ANTIPASTO CALABRESE                10000250000070000190000010000120021014100  1  N$KG000010000000015380S00000002000009010KGU00010000000000100086701IANTIPASTO CALABRESE $00090I00086701003435601      ANTIPASTO CALABRESE                00086701003435601      IC00000010099999999900001EL000867010120250408999912310000011850000L0000012008051599991231U0001000000000014908020250408102027RIVO      False 0 0 0     0  0$$$$$ $$$$ $$$$ FalseFalseTrue False  N20190816FalseFalseFalse
002130M0034359001CARCIOFINI MEDI INTERI BUSCEMA     10000250000070000190000010000120021014100  1  N$KG000015380000015380S00000002000009010KGU00010000000000100086701ECARCIOFINI MEDI INTE$00090E00086701003435901      CARCIOFINI MEDI INTERI BUSCEMA     00086701003435901      IC00000010099999999900001EL000867010120240302999912310000022450000L0000012008112799991231U0001000000000029308020250408102027RIVO      False 0 0 0     0  0 $$$$ $$$$ $$$$ FalseFalseTrue False  N20210814FalseFalseFalse
002130M0037323001FORMAGGIO PRIMO SALE NONNO NANNI   10000250000010000010000220000120021209040  1  N$KG000010000000010000S00000002000001410KGU00010000000000100086701EFORMAGGIO PRIMO SALE$00014E00086701               FROM.GOLOSETTA NONNO NANNI GR.180  00086701               IC00000010009999990000001IL000867010120140819999912310000000090000L0000012014081999991231U0001000000000012608020250408102027RIVO      False 0 0 0     0  0$$$$$$$$$$$$$$$ FalseFalseTrue False  N20240408FalseFalseFalse
002130M0043797001PEPERONI ARROSTITI BUSCEMA IN OLIO 10000250000070000190000010000119981202100  1  N$KG000010000000015380S00000002000006010KGU00010000000000100086701EPEPERONI ARROSTITI B$00060E00086701004379701      PEPERONI ARROSTITI BUSCEMA IN OLIO 00086701004379701      IC00000010099999999900001EL000867010120240814999912310000013100000L0000012008051599991231U0001000000000017908020250408102027RIVO      False 0 0 0     0  0 $$$$ $$$$ $$$$ FalseFalseTrue False  N20241202FalseFalseFalse
002130M0095897001FORMAGGIO FRESCO N.NANNI RUCOLA    10000250000010000010000220000120040702040  1  N$KG000010000000010000S00000002000001210KGU00010000300000100086701EFORM.FRESCO RUCOLA  $00012E00086701009589701      FORMAGGIO FRESCO N.NANNI RUCOLA    00086701009589701      IC00000010099999999900002EL000867010120150507999912310000000093000L0000012015050799991231U0001000000000014508020250408102027RIVO      False 0 0 0     0  0  ALL$$$$$$$$$$ FalseFalseTrue False  S20230727FalseFalseFalse
002130M0099531001CARPACCIO DI POLPO MEDUSA          10000250000070000040000100000120060703100  1  N$KG000018180000018180S00000002000006010KGU00010000000000100086701ECARPACCIO DI POLPO M$00060E00086701009953101      CARPACCIO DI POLPO MEDUSA          00086701009953101      IC00000010099999999900001EL000867010120180426999912310000000169000L0000012018042699991231U0001000000000047908020250408102027RIVO      False 0 0 0     0  0$$$$$$$$$$$$$$$ FalseFalseTrue False  N00000000FalseFalseFalse
002130M0099532001CARPACCIO DI SALMONE MARINATO      10000250000070000040000100000120060703100  1  N$KG000016130000016130S00000002550006010KGU00010000000000100086701ECARPACCIO DI SALMONE$00060E00086701009953201      CARPACCIO DI SALMONE MARINATO MED. 00086701009953201      IC00000010099999999900001EL000867010120240302999912310000022900000L0000012012010599991231U0001000000000054908020250408102027RIVO      False 0 0 0     0  0 $$$$ $$$$ $$$$ FalseFalseTrue False  S20201030FalseFalseFalse
002130M0101281001LIEVITO PANETTO GR.500             10000230000090000100000010000120200323100  1  N$KG000005000000005000S00000002000003010KGU00010000000000100086701ILIEVITO PANETTO GR.5$00030I00086701               LIEVITO PANETTO GR.500             00086701               IC00000010009999990000001IL000867010120200323999912310000000012000L0000012025040899991231U0001000000000004508020250408102027RIVO      False 0 0 0     0  0$$$$$$$$$$ $$$$ FalseFalseFalseFalse  S20230415FalseFalseFalse
002130M0101448001FIGLIATA DI BUFALA                 10000250000010000010000070000120210806040  1  N$KG000010000000010000S00000002000002510KGU00010000300000100086701EFIGLIATA DI BUFALA  $00025E00086701               FIGLIATA DI BUFALA                 00086701               IC00000010009999990000001EL000867010120210806999912310000000168000L0000012021080699991231U0001000000000026508020250408102027RIVO      False 0 0 0     0  0$$$$$$$$$$$$$$$ FalseFalseFalseFalse  S20210911FalseFalseFalse
002130M0501170001CACIOTTA MORBIDA GRIFO             10000250000010000040000010002520071115040  1  N$KG000010000000010000S00000002009999912KGU00010000300000200097209ICACIOTTA MORBIDA GRI$99999I000972016500                                              00086701050117001      IF00000010099999999900001IL000972010120120223999912310000000090500L0000012022092299991231U0001000000000019509920250408102027RIVO      False 0 0 0     0  0$ALL  $$$$$     FalseFalseTrue False  N20150520FalseFalseFalse
002130M0511135001PECORINO STAGIONATO TESTANERA      10000250000010000070000010000120091127040  1  N$KG000010000000010000N00000002009999910KGU00010000100000100097201IPECORINO STAGIONATO $99999I000972016571                                              00086701051113501      IF00000010099999999900001IL000972010120220922999912310000000192000L0000012022092299991231U0001000000000027909920250408102027RIVO      False 0 0 00    0  0$  ALL$$$$$$$$$$FalseFalseTrue False  N20230724FalseFalseFalse
002130M0676268001FORM.FIORONI DI CAPRA MAURI        10000250000010000010000220000120090310040  1  N$KG000010000000010000S00000002000003010KGU00010000300000100086701EFORM.FIORONI CAPRA  $00030E00086701067626801      FORM.FIORONI DI CAPRA MAURI        00086701067626801      IC00000010099999999900003EL000867010120140710999912310000000061000L0000012014071099991231U0001000000000016908020250408102027RIVO      False 0 0 0     0  0$$$$$$$$$$$$$$$ FalseFalseTrue False  N20181024FalseFalseFalse
002130M0680062001P.CRUDO SPAGNOLO JAMON SERRANO 16M 10000250000030000010000220000120100826100  1  N$KG000010000000010000S00000002000012010KGU00010006000000100086701EP.CRUDO SPAGNOLO JAM$00120E00086701068006201      P.CRUDO SPAGNOLO JAMON SERRANO 16M 00086701068006201      IC00000010099999999900001EL000867010120161013999912310000000105000L0000012016101399991231U0001000000000039908020250408102027RIVO      False 0 0 0     0  0$$$$$$$$$$$$$$$ FalseFalseTrue False  N20190503FalseFalseFalse
002130M0692500001FORMAGGIO ASIAGO DOP LATTEBUSCHE   10000250000010000130000130000120150305040  1  N$KG000010000000010000S00000002000018010KGU00010000300000100086701EFORM.ASIAGO DOP     $00180E00086701069250001      FORMAGGIO ASIAGO DOP LATTEBUSCHE   00086701069250001      IC00000010099999999900001EL000867010120150709999912310000000062000L0000012015070999991231U0001000000000008908020250408102027RIVO      False 0 0 0     0  0$$$$$$$$$$$$$$$ FalseFalseTrue False  N20240125FalseFalseFalse
002130M0693941002PARMIGIANO REGGIANO DOP 36 MESIOS  10000250000010000160000010000120151211040  1  N$KG000010000000010000S00000002000004510KGU00010000000000100086701IP.REGGIANO DOP 36 M.$00045I00086701069394102      PARMIGIANO REGGIANO DOP 36 MESI"OS"00086701069394102      IC00000010099999999900010IL000867010120250226999912310000000177000L0000012025020899991231U0001000000000021908020250408102027RIVO      False 0 0 0     0  0  ALL$$$$$$$$$$ FalseFalseTrue False  N20250219FalseFalseFalse
002130M0696537001INSALATA DI POLPO MEDUSA           10000250000070000040000010000120160615100  1  N$KG000016130000016130S00000002000013510KGU00010000000000100086701EINSALATA DI POLPO   $00135E00086701069653701      INSALATA DI POLPO MEDUSA           00086701069653701      IC00000010099999999900004EL000867010120180426999912310000000159000L0000012018042699991231U0001000000000039908020250408102027RIVO      False 0 0 0     0  0$$$$$$$$$$$$$$$ FalseFalseTrue False  N20230801FalseFalseFalse
002130M0701825001PROSC.COTTO NATURISSIMO AQ FIORUCCI10000250000030000160000010000120180313100  1  N$KG000010000000010000S00000002000009010KGU00010001000000100086701EPR.COTTO NATURISSIMO$00090E00086701070182501      PROSC.COTTO NATURISSIMO AQ FIORUCCI00086701070182501      IC00000010099999999900002EL000867010120180405999912310000000116000L0000012018040599991231U0001000000000019908020250408102027RIVO      False 0 0 0     0  0$$$$$$$$$$$$$$$ FalseFalseTrue False  N20201028FalseFalseFalse
002130M0704804001MORTAD.FAVOLA IN COTENNA C/PISTACCH10000250000030000340000010000120190226100  1  N$KG000010000000010000S00000002000004510KGU00010001300000100086701EMORTAD.FAVOLA IN COT$00045E00086701070480401      MORTAD.FAVOLA IN COTENNA C/PISTACCH00086701070480401      IC00000010099999999900001EL000867010120191212999912310000000088000L0000012019121299991231U0001000000000017908020250408102027RIVO      False 0 0 0     0  0  ALL$$$$$$$$$$ FalseFalseTrue False  N20240210FalseFalseFalse
002130M0708650001MORTAD.FAVOLA IN COTENNA C/PISTACC.10000250000030000340000010095120200504100  1  N$KG000010000000000000S00000002000009002KGU00010001300000200086701IMORTAD.FAVOLA COTEN.$00000I00086701070865001      MORTAD.FAVOLA IN COTENNA C/PISTACC.00086701070865001      IC00000010099999999900001IL000867010120230226999912310000000098000L0000012023022699991231U0001000000000018908020250408102027RIVO      False 0 0 0     0  0$ALL  $$$$$     True FalseTrue False  N00000000FalseFalseFalse
002130M0723280001ARINGHE ARGENT.AFF.HS EX.LARG.KG.3 10000250000070000160000040000120220909100  1  N$KG000010000000010000S00000002000018010KGS00030000500000100086701EARINGHE ARGENT.AFF.H$00000E00086701072328001      ARINGHE ARGENT.AFF.HS EX.LARG.KG.3 00086701072328001      IC00000010099999999900001EL000867010120220929999912310000000250000L0000012022092999991231S0003000000000014908020250408102027RIVO      False 0 0 0     0  0  ALL$$$$$$$$$$ FalseFalseTrue False  N20241109FalseFalseFalse
002130M5662394001LONZINO STAG.ALTOPIANO COLFIORITO  10000250000030000130000100000120240701100  1  N$KG000010000000010000S00000002009999910KGU00010000500000102332301ILONZINO STAG.ALTOPIA$99999I02332301130031                                            00086701566239401      IF00000010099999999900001IL023323010120240725999912310000000166000L0000012024072599991231U0001000000000027909920250408102027RIVO      False 0 0 0     0  0 ALL$$$$$$ $$$$ FalseFalseTrue False  N00000000FalseFalseFalse
