002130M0000467001PECORINO ROMANO DOP BRONZETTO      10000250000010000140000010000119790521040  1  N$KG000010000000010000S00000002000012010KGU00010000100000100086701IPECORINO ROMANO DOP $00120I00086701000046701      PECORINO ROMANO DOP BRONZETTO      00086701000046701      IC00000010099999990000001EL000867010120140508999912310000000113000L0000012014050899991231U0001000000000016508020250408094747RIVO      False 0 0 0     0  0ALL$$ $$$$ $$$$ FalseFalseTrue False  N20180206FalseFalseFalse
002130M0000482001FORMAGGIO MISTO VERGARO KG.3       10000250000010000070000040000119790521040  1  N$KG000010000000010000S00000002000027010KGU00010000300000100086701IFORMAGGIO MISTO VERG$00270I00086701000048201      FORMAGGIO MISTO VERGARO KG.3       00086701000048201      IC00000010099999990000002IL000867010120250327999912310000000113500L0000012025032799991231U0001000000000016908020250408094747RIVO      False 0 0 0     0  0  ALL$$$$$ $$$$ FalseFalseTrue False  N20230718FalseFalseFalse
002130M0003885001PANCET.MAGRETTA AGLIO/PEPE S.CARLO 10000250000030000310000070000119880809100  1  N$KG000010000000010000S00000002000009010KGU00010000500000100086701IPANCETTA MAGRETTA   $00090I00086701000388501      PANCET.MAGRETTA AGLIO/PEPE S.CARLO 00086701000388501      IC00000010099999990000001EL000867010120230330999912310000000121000L0000012023033099991231U0001000000000020508020250408094747RIVO      False 0 0 0     0  0 ALL$ $$$$ $$$$ FalseFalseTrue False  N20250228FalseFalseFalse
002130M0005819001BACCALASECCO NORVEGESE A/B 10/12   10000250000070000130000010000119890324100  1  N$KG000100000000100000S00000002000036010KGU00010000000000100086701EBACCALASECCO NORV.  $00360E00086701000581901      BACCALA'SECCO NORVEGESE A/B 10/12  00086701000581901      IC00000010099999990000001EL000867010120150924999912310000000096000L0000012015092499991231U0001000000000014908020250408094747RIVO      False 0 0 0     0  0$$$$$$$$$$ $$$$ FalseFalseTrue False  N20180309FalseFalseFalse
002130M0007483001PECORINO STAGIONATO TESTANERA      10000250000010000070000010000120000209040  1  N$KG000010000000010000S00000002000009010KGU00010000100000100086701EPECORINO STAGIONATO $00090E00086701000748301      PECORINO STAGIONATO TESTANERA      00086701000748301      IC00000010099999999900002EL000867010120170824999912310000000133000L0000012017082499991231U0001000000000021908020250408094747RIVO      False 0 0 0     0  0$$$$$$$$$$$$$$$ FalseFalseTrue False  N20250405FalseFalseFalse
002130M0014463001COPPA DI TESTA AL TARTUFO VIANI TES10000250000030000400000010000120001108100  1  N$KG000010000000010000S00000002000006010KGU00010001000000100086701ECOPPA DI TESTA TART.$00060E00086701001446301      COPPA DI TESTA AL TARTUFO VIANI    00086701001446301      IC00000010099999999900001EL000867010120190613999912310000000080000L0000012023073099991231U0001000000000014908020250408094747RIVO      False 0 0 0     0  0  ALL$$$$$$$$$$ FalseFalseTrue False  N20230805FalseFalseFalse
002130M0034356001ANTIPASTO CALABRESE                10000250000070000190000010000120021014100  1  N$KG000010000000015380N00000002000009010KGU00010000000000100086701EANTIPASTO CALABRESE $00090E00086701003435601      ANTIPASTO CALABRESE                00086701003435601      IC00000010099999999900001EL000867010120240814999912310000011850000L0000012008051599991231U0001000000000014908020250408094747RIVO      False 0 0 00    0  0$$$$$$ $$$$ $$$$FalseFalseTrue False  N20190816FalseFalseFalse
002130M0511135001PECORINO STAGIONATO TESTANERA      10000250000010000070000010000120091127040  1  N$KG000010000000010000N00000002009999910KGU00010000100000100097201IPECORINO STAGIONATO $99999I000972016571                                              00086701051113501      IF00000010099999999900001IL000972010120220922999912310000000192000L0000012022092299991231U0001000000000027909920250408094748RIVO      False 0 0 00    0  0$  ALL$$$$$$$$$$FalseFalseTrue False  N20230724FalseFalseFalse
002130M0693941002PARMIGIANO REGGIANO DOP 36 MESIOS  10000250000010000160000010000120151211040  1  N$KG000010000000010000S00000002000004510KGU00010000000000100086701IP.REGGIANO DOP 36 M.$00045I00086701069394102      PARMIGIANO REGGIANO DOP 36 MESI"OS"00086701069394102      IC00000010099999999900010IL000867010120250226999912310000000177000L0000012025020899991231U0001000000000021908020250408094748RIVO      False 0 0 0     0  0  ALL$$$$$$$$$$ FalseFalseTrue False  N20250219FalseFalseFalse
002130M5662394001LONZINO STAG.ALTOPIANO COLFIORITO  10000250000030000130000100000120240701100  1  N$KG000010000000010000S00000002009999910KGU00010000500000102332301ILONZINO STAG.ALTOPIA$99999I02332301130031                                            00086701566239401      IF00000010099999999900001IL023323010120240725999912310000000166000L0000012024072599991231U0001000000000027909920250408094748RIVO      False 0 0 0     0  0  ALL$$$$$$$$$$ FalseFalseTrue False  N00000000FalseFalseFalse
