002130M0000467001PECORINO ROMANO DOP BRONZETTO      10000250000010000140000010000119790521040  1  N$KG000010000000010000S00000002000012010KGU00010000100000100086701EPECORINO ROMANO DOP $00120E00086701000046701      PECORINO ROMANO DOP BRONZETTO      00086701000046701      IC00000010099999990000001EL000867010120140508999912310000000113000L0000012014050899991231U0001000000000016508020250408092012RIVO      False 0 0 0     0  0 ALL$$$$$$ $$$$ FalseFalseTrue False  N20180206FalseFalseFalse
002130M0000482001FORMAGGIO MISTO VERGARO KG.3       10000250000010000070000040000119790521040  1  N$KG000010000000010000S00000002000027010KGU00010000300000100086701IFORMAGGIO MISTO VERG$00270I00086701000048201      FORMAGGIO MISTO VERGARO KG.3       00086701000048201      IC00000010099999990000002IL000867010120250327999912310000000113500L0000012025032799991231U0001000000000016908020250408092012RIVO      False 0 0 0     0  0  ALL$$$$$ $$$$ FalseFalseTrue False  N20230718FalseFalseFalse
002130M0003885001PANCET.MAGRETTA AGLIO/PEPE S.CARLO 10000250000030000310000070000119880809100  1  N$KG000010000000010000S00000002000009010KGU00010000500000100086701EPANCETTA MAGRETTA   $00090E00086701000388501      PANCET.MAGRETTA AGLIO/PEPE S.CARLO 00086701000388501      IC00000010099999990000001EL000867010120230330999912310000000121000L0000012023033099991231U0001000000000020508020250408092012RIVO      False 0 0 0     0  0  ALL$$$$$ $$$$ FalseFalseTrue False  N20250228FalseFalseFalse
002130M0014463001COPPA DI TESTA AL TARTUFO VIANI TES10000250000030000400000010000120001108100  1  N$KG000010000000010000S00000002000006010KGU00010001000000100086701ECOPPA DI TESTA TART.$00060E00086701001446301      COPPA DI TESTA AL TARTUFO VIANI    00086701001446301      IC00000010099999999900001EL000867010120190613999912310000000080000L0000012023073099991231U0001000000000014908020250408092012RIVO      False 0 0 0     0  0  ALL$$$$$$$$$$ FalseFalseTrue False  N20230805FalseFalseFalse
002130M0693941002PARMIGIANO REGGIANO DOP 36 MESIOS  10000250000010000160000010000120151211040  1  N$KG000010000000010000S00000002000004510KGU00010000000000100086701IP.REGGIANO DOP 36 M.$00045I00086701069394102      PARMIGIANO REGGIANO DOP 36 MESI"OS"00086701069394102      IC00000010099999999900010IL000867010120250226999912310000000177000L0000012025020899991231U0001000000000021908020250408092012RIVO      False 0 0 0     0  0  ALL$$$$$$$$$$ FalseFalseTrue False  N20250219FalseFalseFalse
002130M5662394001LONZINO STAG.ALTOPIANO COLFIORITO  10000250000030000130000100035020240701100  1  N$KG000010000000000000S00000002009999912KGU00010000500000202332301ILONZINO STAG.ALTOPIA$99999I02332301130031                                            00086701566239401      IF00000010099999999900001IL023323010120240725999912310000000166000L0000012024072599991231U0001000000000027909920250408092012RIVO      False 0 0 0     0  0$ALL  $$$$$     True FalseTrue False  N00000000FalseFalseFalse
