002130M0000586001MORTADELLA DUETORRI IGP ALCISA     10000250000030000340000010000119790521100  1  N$KG000010000000010000S00000002000005010KGU00010000500000100086701IMORTADELLA DUETORRI $00050I00086701000058601      MORTADELLA DUETORRI IGP ALCISA     00086701000058601      IC00000010099999990000001FL000867010120200109999912310000000075000L0000012020010999991231U0001000000000012508020250408113357RIVO      False 0 0 0     0  0ALL$$ $$$$ $$$$ FalseFalseTrue False  N20141028FalseFalseFalse
002130M0001239001WURSTEL PARISER WUBER              10000250000030000460000010000119870514100  1  N$KG000010000000010000S00000002000006010KGU00010001000000100086701IWURSTEL PARISER     $00060I00086701000123901      WURSTEL PARISER WUBER              00086701000123901      IC00000010099999990000002FL000867010120070531999912310000000064600L0000012007053199991231U0001000000000011908020250408113357RIVO      False 0 0 0     0  0ALL$$ $$$$ $$$$ FalseFalseTrue False  N00000000FalseFalseFalse
002130M0002426001SALAME CITTERINO CITTERIO          10000250000030000250000220000119931110100  1  N$KG000002000000002000S00000002009999910KGU00010000300000100086701ISALAME CITTERINO    $99999I00086701000242601      SALAME CITTERINO CITTERIO          00086701000242601      IC00000010099999999900006FL000867010120200109999912310000000144100L0000012020010999991231U0001000000000022408020250408113357RIVO      False 0 0 0     0  0ALL$$ $$$$ $$$$ FalseFalseTrue False  N20231215FalseFalseFalse
002130M0002862001FORMAGGIO TRENTINGRANA 20 MESI     10000250000010000160000070000119880601040  1  N$KG000010000000010000S00000002009999910KGU00010000100000100086701IFORMAGG.TRENTINGRANA$99999I00086701000286201      FORMAGGIO TRENTINGRANA 20 MESI     00086701000286201      IC00000005099999990000001FL000867010120210204999912310000000105000L0000012021020499991231U0001000000000015908020250408113357RIVO      False 0 0 0     0  0ALL$$ $$$$ $$$$ FalseFalseTrue False  N20240409FalseFalseFalse
002130M0003342001BRESAOLA PUNTA DANCA IGP RIGAMONTI 10000250000030000100000010000119880617100  1  N$KG000010000000010000S00000002000006010KGU00010000500000100086701FBRESAOLA IGP RIGAMON$00060F00086701000334201      BRESAOLA PUNTA D'ANCA IGP RIGAMONTI00086701000334201      IC00000010099999990000001FL000867010120220519999912310000000270000L0000012022051999991231U0001000000000043508020250408113357RIVO      False 0 0 0     0  0 ALL$ $$$$ $$$$ FalseFalseTrue False  N20220105FalseFalseFalse
002130M0003885001PANCET.MAGRETTA AGLIO/PEPE S.CARLO 10000250000030000310000070000119880809100  1  N$KG000010000000010000S00000002000009010KGU00010000500000100086701IPANCETTA MAGRETTA   $00090E00086701000388501      PANCET.MAGRETTA AGLIO/PEPE S.CARLO 00086701000388501      IC00000010099999990000001EL000867010120230330999912310000000121000L0000012023033099991231U0001000000000020508020250408113357RIVO      False 0 0 0     0  0 ALL$ $$$$ $$$$ FalseFalseTrue False  N20250228FalseFalseFalse
002130M0003975001CACIO NOCELLO VALMETAURO CONF.     10000250000010000070000040000119991019040  1  N$KG000010000000010000S00000002009999910KGU00010000300000100086701ICACIO NOCELLO VALMET$99999I00086701000397501      CACIO NOCELLO VALMETAURO CONF.     00086701000397501      IC00000010099999999900006FL000867010120230810999912310000000149000L0000012023081099991231U0001000000000022908020250408113357RIVO      False 0 0 0     0  0 ALL$$$$$$ $$$$ FalseFalseTrue False  N20190325FalseFalseFalse
002130M0003991001CACIOTTONE AL PEPERONCINO NORCIA   10000250000010000070000040000119991019040  1  N$KG000010000000010000S00000002000009010KGU00010000300000100086701ICACIOTTONE PEPERONCI$00090I00086701000399101      CACIOTTONE AL PEPERONCINO NORCIA   00086701000399101      IC00000010099999999900002FL000867010120220926999912310000000177000L0000012022092699991231U0001000000000026508020250408113357RIVO      False 0 0 0     0  0 ALL$$$$$$ $$$$ FalseFalseTrue False  N20160125FalseFalseFalse
002130M0003991002CACIOTTONE AL PEPE NERO NORCIA     10000250000010000070000040000119991019040  1  N$KG000010000000010000S00000002000009010KGU00010000300000100086701ICACIOTTONE PEPE NERO$00090I00086701000399102      CACIOTTONE AL PEPE NERO NORCIA     00086701000399102      IC00000010099999999900002FL000867010120220926999912310000000177000L0000012022092699991231U0001000000000026508020250408113357RIVO      False 0 0 0     0  0 ALL$$$$$$ $$$$ FalseFalseTrue False  N20220329FalseFalseFalse
002130M0004745001PANCETTA TESA CLASSICA S.CARLO     10000250000030000310000010000119940214100  1  N$KG000010000000025000S00000002000009010KGU00010000500000100086701IPANCETTA SAN CARLO  $00090I00086701000474501      PANCETTA TESA CLASSICA S.CARLO     00086701000474501      IC00000005099999999900002FL000867010120200116999912310000000094000L0000012020011699991231U0001000000000015908020250408113357RIVO      False 0 0 0     0  0ALL$$ $$$$ $$$$ FalseFalseTrue False  N20241024FalseFalseFalse
002130M0005120001FORMAGGIO BERGADER EDELPILZ        10000250000010000190000070000119940221040  1  N$KG000010000000010000S00000002000009010KGU00010000300000100086701IFORMAGGIO BERGADER E$00090I00086701000512001      FORMAGGIO BERGADER EDELPILZ        00086701000512001      IC00000010099999999900001FL000867010120231122999912310000000086000L0000012023112299991231U0001000000000013508020250408113357RIVO      False 0 0 0     0  0 ALL$ $$$$ $$$$ FalseFalseTrue False  N20200505FalseFalseFalse
002130M0005159001CACIOCAVALLO SILANO DOP CROCE MAG. 10000250000010000130000010000119940221040  1  N$KG000010000000010000S00000002000004510KGU00010000300000100086701ICACIOCAVALLO SILANO $00045I00086701000515901      CACIOCAVALLO SILANO DOP CROCE MAG. 00086701000515901      IC00000005099999999900004FL000867010120140220999912310000000120000L0000012014022099991231U0001000000000017908020250408113357RIVO      False 0 0 0     0  0ALL$$ $$$$ $$$$ FalseFalseTrue False  N20191109FalseFalseFalse
002130M0005160001CACIOCAVALLO AL TARTUFO            10000250000010000130000010000119940221040  1  N$KG000010000000010000S00000002000030010KGU00010000300000100086701ICACIOCAVA AL TARTUFO$00300I00086701000516001      CACIOCAVALLO AL TARTUFO            00086701000516001      IC00000010099999999900004FL000867010120221103999912310000000169000L0000012022110399991231U0001000000000025908020250408113357RIVO      False 0 0 0     0  0 ALL$$$$$$ $$$$ FalseFalseTrue False  N20200909FalseFalseFalse
002130M0005576001SALAMELLA ROMANA FIORUCCI          10000250000030000250000190000119910617100  1  N$KG000010000000010000S00000002000004510KGU00010000500000100086701ISALAMELLA ROMANA    $00045I00086701000557601      SALAMELLA ROMANA FIORUCCI          00086701000557601      IC00000010099999990000008FL000867010120230302999912310000000152000L0000012023030299991231U0001000000000024908020250408113357RIVO      False 0 0 0     0  0ALL$$ $$$$ $$$$ FalseFalseTrue False  N20240315FalseFalseFalse
002130M0005712001FORMAGGIO  NONNO TITO  TONIOLO     10000250000010000130000250000119940303040  1  N$KG000010000000010000S00000002000009010KGU00010000100000100086701IFORMAGGIO NONNO TITO$00090I00086701000571201      FORMAGGIO "NONNO TITO" TONIOLO     00086701000571201      IC00000010099999999900001FL000867010120220728999912310000000105000L0000012022072899991231U0001000000000015908020250408113357RIVO      False 0 0 0     0  0 ALL$$$$$$ $$$$ FalseFalseTrue False  N20140817FalseFalseFalse
002130M0005790001MORTADELLA SUPREMA FIORUCCI        10000250000030000340000010000119910614100  1  N$KG000010000000010000S00000002000006310KGU00010000500000100086701IMORTADELLA SUPREMA  $00063I00086701000579001      MORTADELLA SUPREMA FIORUCCI        00086701000579001      IC00000010099999990000001FL000867010120220122999912310000000071000L0000012020011699991231U0001000000000012908020250408113357RIVO      False 0 0 0     0  0ALL$$ $$$$ $$$$ FalseFalseTrue False  N20250303FalseFalseFalse
002130M0005819001BACCALASECCO NORVEGESE A/B 10/12   10000250000070000130000010000119890324100  1  N$KG000100000000100000S00000002000036010KGU00010000000000100086701IBACCALASECCO NORV.  $00360E00086701000581901      BACCALA'SECCO NORVEGESE A/B 10/12  00086701000581901      IC00000010099999990000001EL000867010120150924999912310000000096000L0000012015092499991231U0001000000000014908020250408113357RIVO      False 0 0 0     0  0 $$$$ $$$$ $$$$ FalseFalseTrue False  N20180309FalseFalseFalse
002130M0006201001PANCETTA BACON TESA ISAL           10000250000030000310000040000119890428100  1  N$KG000010000000010000S00000002000009010KGU00010000500000100086701IPANCETTA BACON ISAL $00090I00086701000620101      PANCETTA BACON TESA ISAL           00086701000620101      IC00000010099999990000001FL000867010120200109999912310000000096000L0000012020010999991231U0001000000000015908020250408113357RIVO      False 0 0 0     0  0ALL$$ $$$$ $$$$ FalseFalseTrue False  N00000000FalseFalseFalse
002130M0007037001SALAMINO NORCINETTO FIORUCCI       10000250000030000250000220000119940401100  1  N$KG000010000000010000S00000002000006010KGU00010000300000100086701ISALAMINO NORCINETTO $00060I00086701000703701      SALAMINO NORCINETTO FIORUCCI       00086701000703701      IC00000010099999999900008FL000867010120230302999912310000000188000L0000012023030299991231U0001000000000028908020250408113357RIVO      False 0 0 0     0  0 ALL$$$$$$ $$$$ FalseFalseTrue False  N20231107FalseFalseFalse
002130M0007482001PEC.STAGIONATO VESSILLO ROCCA      10000250000010000070000010000120000209040  1  N$KG000010000000010000S00000002000018010KGU00010000100000100086701IPECORINO STAGIONATO $00180I00086701000748201      PEC.STAGIONATO VESSILLO ROCCA      00086701000748201      IC00000010099999999900003FL000867010120221006999912310000000140000L0000012022100699991231U0001000000000020908020250408113357RIVO      False 0 0 0     0  0ALL$$ $$$$ $$$$ FalseFalseTrue False  N20220225FalseFalseFalse
002130M0007483001PECORINO STAGIONATO TESTANERA      10000250000010000070000010000120000209040  1  N$KG000010000000010000S00000002000009010KGU00010000100000100086701EPECORINO STAGIONATO $00090E00086701000748301      PECORINO STAGIONATO TESTANERA      00086701000748301      IC00000010099999999900002EL000867010120170824999912310000000133000L0000012017082499991231U0001000000000021908020250408113357RIVO      False 0 0 0     0  0$$$$$$$$$$$$$$$ FalseFalseTrue False  N20250405FalseFalseFalse
002130M0008445001ARROSTINO DOPPIO LOMBO ARROSTO     10000250000030000220000070000119940524100  1  N$KG000010000000010000S00000002000009010KGU00010001000000100086701IARROSTINO DOPPIO LOM$00090I00086701000844501      ARROSTINO DOPPIO LOMBO ARROSTO     00086701000844501      IC00000010099999999900002EL000867010120220428999912310000000102000L0000012022042899991231U0001000000000018508020250408113357RIVO      False 0 0 0     0  0 ALL$ $$$$ $$$$ FalseFalseTrue False  N20191007FalseFalseFalse
002130M0009161001GORGONZOLA DOP PICCANTE CROCE      10000250000010000040000040000120000313040  1  N$KG000010000000010000S00000002000003010KGU00010000300000100086701IGORGO.DOP PICCANTE C$00030I00086701000916101      GORGONZOLA DOP PICCANTE CROCE      00086701000916101      IC00000010099999999900001FL000867010120211125999912310000000103500L0000012021112599991231U0001000000000015908020250408113357RIVO      False 0 0 0     0  0ALL$$ $$$$ $$$$ FalseFalseTrue False  N20240313FalseFalseFalse
002130M0009928001PECORINO DI PIENZA STAGIONATO 12M  10000250000010000070000010000119900116040  1  N$KG000010000000010000S00000002009999910KGU00010000100000100086701IPECORINO DI PIENZA S$99999I00086701000992801      PECORINO DI PIENZA STAGIONATO 12M  00086701000992801      IC00000005099999990000004FL000867010120190328999912310000000139000L0000012019032899991231U0001000000000021908020250408113357RIVO      False 0 0 0     0  0ALL$$ $$$$ $$$$ FalseFalseTrue False  N20230520FalseFalseFalse
002130M0010213001CACIOTTONE MISTO NORCIA            10000250000010000070000040000120000510040  1  N$KG000010000000010000S00000002000009010KGU00010000300000100086701ICACIOTTONE MISTO    $00090I00086701001021301      CACIOTTONE MISTO NORCIA            00086701001021301      IC00000010099999999900002FL000867010120230608999912310000000132700L0000012023060899991231U0001000000000019508020250408113357RIVO      False 0 0 0     0  0 ALL$ $$$$ $$$$ FalseFalseTrue False  N20250128FalseFalseFalse
002130M0010258001PEC.PIENZA GRAN RISERVA STAG.18 M. 10000250000010000070000010000119940823040  1  N$PZ000010000000010000S00000002000021010PZU00010000300000100086701IPEC.PIENZA G.RISERVA$00210I00086701001025801      PEC.PIENZA GRAN RISERVA STAG.18 M. 00086701001025801      IC00000010009999990000001FL000867010120191031999912310000000169000L0000012019103199991231U0001000000000025908020250408113357RIVO      False 0 0 0     0  0ALL$$ $$$$ $$$$ FalseFalseTrue False  N20191220FalseFalseFalse
002130M0010519001SALAME TIPO MILANO MONTEROSA ISAL  10000250000030000250000010000119900216100  1  N$KG000010000000010000S00000002000012010KGU00010000500000100086701FSALAME T.MILANO ISAL$00120F00086701               SALAME MILANO MONTEROSA ISAL       00086701               IC00000010009999990000001FL000867010120200109999912310000000088000L0000012020010999991231U0001000000000015908020250408113357RIVO      False 0 0 0     0  0ALL$$ $$$$ $$$$ FalseFalseTrue False  N20221230FalseFalseFalse
002130M0010632001SALAME NEGRONETTO CLASSICO         10000250000030000250000220000120000607100  1  N$KG000010000000010000S00000002009999910KGU00010000300000100086701ISALAME NEGRONETTO   $99999I00086701001063201      SALAME NEGRONETTO CLASSICO         00086701001063201      IC00000010099999999900014FL000867010120090507999912310000000130800L0000012009050799991231U0001000000000021408020250408113357RIVO      False 0 0 0     0  0ALL$$ $$$$ $$$$ FalseFalseTrue False  N20240507FalseFalseFalse
002130M0012566001PROVOLONE GIOVANE SILANO AURICCHIO 10000250000010000130000070000119950123040  1  N$KG000010000000010000S00000002009999910KGU00010000300000100086701IPROVOLONE GIOVANE   $99999I00086701001256601      PROVOLONE GIOVANE SILANO AURICCHIO 00086701001256601      IC00000010099999999900006FL000867010120140320999912310000000099000L0000012014032099991231U0001000000000014408020250408113357RIVO      False 0 0 0     0  0 ALL$ $$$$ $$$$ FalseFalseTrue False  N20180820FalseFalseFalse
002130M0012601001PROSCIUTTO COTTO DELICOTTO ISAL    10000250000030000160000010000119900515100  1  N$KG000010000000010000S00000002000009010KGU00010001000000100086701IPROSCIUTTO DELICOTTO$00090I00086701001260101      PROSCIUTTO COTTO DELICOTTO ISAL    00086701001260101      IC00000010099999990000002FL000867010120200109999912310000000068000L0000012020010999991231U0001000000000012908020250408113357RIVO      False 0 0 0     0  0ALL$$ $$$$ $$$$ FalseFalseTrue False  N20231023FalseFalseFalse
002130M0012755001ACCIUGHE SPAGNA                    10000250000070000160000010000120000914100  1  N$KG000016130000016130S00000002000090010KGU00010000000000100086701IACCIUGHE SPAGNA     $00900I00086701001275501      ACCIUGHE SPAGNA                    00086701001275501      IC00000010099999999900001FL000867010120240302999912310000099900000L0000012016101399991231U0001000000000049908020250408113357RIVO      False 0 0 0     0  0 LL$$ $$$$ $$$$ FalseFalseTrue False  N20190625FalseFalseFalse
002130M0014421001PROSC.NAZ.MONTAGNA MARCHIG.FALERIA 10000250000030000010000160000119950410100  1  N$KG000010000000010000S00000002000015010KGU00010004200000100086701IPROSC.NAZ.FALERIA   $00150I00086701001442101      PROSC.NAZ.MONTAGNA MARCHIG.FALERIA 00086701001442101      IC00000005099999999900002FL000867010120200430999912310000000094000L0000012020043099991231U0001000000000025908020250408113357RIVO      False 0 0 0     0  0 ALL$$$$$$ $$$$ FalseFalseTrue False  N20250109FalseFalseFalse
002130M0014463001COPPA DI TESTA AL TARTUFO VIANI TES10000250000030000400000010000120001108100  1  N$KG000010000000010000S00000002000006010KGU00010001000000100086701ECOPPA DI TESTA TART.$00060E00086701001446301      COPPA DI TESTA AL TARTUFO VIANI    00086701001446301      IC00000010099999999900001EL000867010120190613999912310000000080000L0000012023073099991231U0001000000000014908020250408113357RIVO      False 0 0 0     0  0  ALL$$$$$$$$$$ FalseFalseTrue False  N20230805FalseFalseFalse
002130M0014536001CACIOTTINA GRIFO GR.800            10000250000010000040000010000120001110040  1  N$KG000010000000003000N00000002000005010KGU00010000300000100086701ICACIOTTINA GRIFO GR.$00050I00086701001453601      CACIOTTINA GRIFO GR.800            00086701001453601      IC00000010099999999900004FL000867010120220113999912310000000096000L0000012022011399991231U0001000000000014808020250408113357RIVO      False 0 0 00    0  0$ ALL$$$$$$ $$$$FalseFalseTrue False  N20250407FalseFalseFalse
002130M0015715001TONNO IN OLIO DOLIVA NOSTROMO      10000250000070000100000010000119901015100  1  N$KG000010000000013310S00000002000144010KGU00010000000000100086701ITONNO NOSTROMO TAMB.$01440I00086701001571501      TONNO IN OLIO D'OLIVA NOSTROMO     00086701001571501      IC00000010009999990000001EL000867010120250408999912310000024200000L0000012014040899991231U0001000000000022908020250408113357RIVO      False 0 0 0     0  0$$$$$ $$$$ $$$$ FalseFalseTrue False  N20181121FalseFalseFalse
002130M0017536001RICOTTA PECORA GENTILE AMATRICE    10000250000010000010000190000120010312040  1  N$KG000010000000010000S00000002000001010KGU00010000500000100086701IRIC.PECORA AMATRICE $00010I00086701001753601      RICOTTA PECORA GENTILE AMATRICE    00086701001753601      IC00000010099999999900002EL000867010120160218999912310000000057000L0000012016021899991231U0001000000000008908020250408113358RIVO      False 0 0 0     0  0$$$$$$$$$$ $$$$ FalseFalseTrue False  N20160609FalseFalseFalse
002130M0017594001FORMAGGGIO CASTELMAGNO DOP S&D     10000250000010000130000250000120010315040  1  N$KG000010000000010000S00000002000005010KGU00010000300000100086701IFORMAGGGI.CASTELMAGN$00050I00086701001759401      FORMAGGGIO CASTELMAGNO DOP S&D     00086701001759401      IC00000010099999999900001FL000867010120230126999912310000000194000L0000012023012699991231U0001000000000028908020250408113358RIVO      False 0 0 0     0  0 ALL$$$$$$ $$$$ FalseFalseTrue False  N20250325FalseFalseFalse
002130M0018730001SOPRASSATA IN TESTA                10000250000030000400000010000119951017100  1  N$KG000010000000010000S00000002000003010KGU00010001000000100086701ISOPRASSATA IN TESTA $00030I00086701001873001      SOPRASSATA IN TESTA                00086701001873001      IC00000010099999999900001EL000867010120171005999912310000000076000L0000012017100599991231U0001000000000013908020250408113358RIVO      False 0 0 0     0  0$$$$$$$$$$ $$$$ FalseFalseTrue False  N20200108FalseFalseFalse
002130M0019468001PECORINO TOSCANO DOP STAGIONATO    10000250000010000070000010000119850624040  1  N$KG000010000000010000S00000002000036010KGU00010000100000100086701EPECORINO TOSCANO DOP$00360E00086701001946801      PECORINO TOSCANO DOP STAGIONATO    00086701001946801      IC00000010099999990000002EL000867010120131128999912310000000126000L0000012013112899991231U0001000000000017908020250408113358RIVO      False 0 0 0     0  0  ALL$$$$$$$$$$ FalseFalseTrue False  N20190710FalseFalseFalse
002130M0019859001PROSC.PARMA ALCISA CLASSICO SELEZ. 10000250000030000010000070000119951212100  1  N$KG000010000000010000S00000002000009010KGU00010002200000100086701IPROSCIUTTO PARMA    $00090I00086701001985901      PROSC.PARMA ALCISA CLASSICO SELEZ. 00086701001985901      IC00000010099999999900001EL000867010120120209999912310000000127000L0000012016012199991231U0001000000000024908020250408113358RIVO      False 0 0 0     0  0$$$$$$$$$$ $$$$ FalseFalseTrue False  N20211207FalseFalseFalse
002130M0020144001GORGONZOLA PICCANTE MAURI          10000250000010000040000040000119851120040  1  N$KG000010000000010000S00000002000003010KGU00010000300000100086701IGORGONZOLA PICCANTE $00030I00086701002014401      GORGONZOLA PICCANTE MAURI          00086701002014401      IC00000010099999990000001EL000867010120081009999912310000000092000L0000012011111099991231U0001000000000014958020250408113358RIVO      False 0 0 0     0  0 ALL$$$$$$ $$$$ FalseFalseTrue False  N20240223FalseFalseFalse
002130M0020478001BRESAOLA DI TACCHINO VIANI         10000250000030000100000100000120010704100  1  N$KG000010000000010000S00000002000009010KGU00010000500000100086701IBRESAOLA DI TACCHINO$00090I00086701002047801      BRESAOLA DI TACCHINO VIANI         00086701002047801      IC00000010099999999900002EL000867010120220428999912310000000189500L0000012022042899991231U0001000000000030908020250408113358RIVO      False 0 0 0     0  0 ALL$$$$$$ $$$$ FalseFalseTrue False  N20190828FalseFalseFalse
002130M0021516001PECORINO CUORE DI SARDEGNA         10000250000010000070000010000119960227040  1  N$KG000010000000010000S00000002009999910KGU00010000100000100086701FPECORINO CUORE DI S.$99999F00086701002151601      PECORINO CUORE DI SARDEGNA         00086701002151601      IC00000010099999999900001FL000867010120220210999912310000000113500L0000012022021099991231U0001000000000016908020250408113358RIVO      False 0 0 0     0  0  ALL$$$$$$$$$$ FalseFalseTrue False  N20161127FalseFalseFalse
002130M0021517001PECORINO PASTORE SARDO C.A.O.      10000250000010000070000010000119960227040  1  N$KG000010000000010000S00000002000015010KGU00010000300000100086701FPASTORE SARDO C.A.O.$00150F00086701002151701      PECORINO PASTORE SARDO C.A.O.      00086701002151701      IC00000010099999999900002FL000867010120220210999912310000000105000L0000012022021099991231U0001000000000015908020250408113358RIVO      False 0 0 0     0  0  ALL$$$$$$$$$$ FalseFalseTrue False  N20240606FalseFalseFalse
002130M0022925001SALAME PICCANTE GERONIMO ISAL      10000250000030000250000130000119930428100  1  N$KG000010000000010000S00000002000018010KGU00010000500000100086701FSALAME PICCANTE ISAL$00180F00086701002292501      SALAME PICCANTE GERONIMO ISAL      00086701002292501      IC00000010099999990000001FL000867010120200109999912310000000090000L0000012020010999991231U0001000000000015908020250408113358RIVO      False 0 0 0     0  0  ALL$$$$$$$$$$ FalseFalseTrue False  N20230607FalseFalseFalse
002130M0023288001BONTALEGGIO MAURI                  10000250000010000040000100000119930512040  1  N$KG000010000000010000S00000002000004010KGU00010000300000100086701FTALEGGIO MAURI      $00040F00086701002328801      BONTALEGGIO MAURI                  00086701002328801      IC00000010099999990000001FL000867010120150226999912310000000089000L0000012015022699991231U0001000000000014908020250408113358RIVO      False 0 0 0     0  0  ALL$$$$$$$$$$ FalseFalseTrue False  N20221118FalseFalseFalse
002130M0024979001PROSC.NAZIONALE MARCHIGIANO FALERIA10000250000030000010000190000119960419100  1  N$KG000010000000010000S00000002000018010KGU00010002200000100086701FPROSC.NAZ.FALERIA   $00180F00086701002497901      PROSC.NAZIONALE MARCHIGIANO FALERIA00086701002497901      IC00000010099999999900002FL000867010120200430999912310000000112000L0000012020043099991231U0001000000000025908020250408113358RIVO      False 0 0 0     0  0  ALL$$$$$$$$$$ FalseFalseTrue False  N20230518FalseFalseFalse
002130M0025099001OLIVE NERE DENOCCIOLATE FICACCI    10000250000070000190000100000119960430100  1  N$KG000010000000010000S00000002000036010KGU00010000000000100086701FOLIVE N.DENOCCIOLATE$00360F00086701002509901      OLIVE NERE DENOCCIOLATE FICACCI    00086701002509901      IC00000010099999999900002FL000867010120240302999912310000012000000L0000012004060399991231U0001000000000004708020250408113358RIVO      False 0 0 0     0  0 LL$$ $$$$ $$$$ FalseFalseTrue False  N20190724FalseFalseFalse
002130M0025418001BARBOZZO GOTA STAGIONATO           10000250000030000310000010000119960520100  1  N$KG000010000000010000S00000002000012010KGU00010000500000100086701FBARBOZZO GOTA STAG  $00120F00086701002541801      BARBOZZO GOTA STAGIONATO           00086701002541801      IC00000010099999999900002FL000867010120200102999912310000000070000L0000012021012199991231U0001000000000011908020250408113358RIVO      False 0 0 0     0  0  ALL$$$$$$$$$$ FalseFalseTrue False  N20230128FalseFalseFalse
002130M0027312001MONTAGNOLO  I.SAL.                 10000250000030000010000250000119910903100  1  N$KG000010000000010000S00000002000018010KGU00010002000000100086701FMONTAGNOLO I.SAL.   $00180F00086701002731201      MONTAGNOLO  I.SAL.                 00086701002731201      IC00000010099999990000002FL000867010120200109999912310000000112000L0000012020010999991231U0001000000000021908020250408113358RIVO      False 0 0 0     0  0  ALL$$$$$$$$$$ FalseFalseTrue False  N20250319FalseFalseFalse
002130M0028272001MOZZARELLA CONAD                   10000250000010000010000010000119961008040  1  NCKG000010000000010000S00000002000001010KGU00010000000000100086701FMOZZARELLA CONAD    $00010F00086701002827201      MOZZARELLA CONAD                   00086701002827201      IC00000010099999999900015FL000867010120220728999912310000000066000L0000012022072899991231U0001000000000009908020250408113358RIVO      False 0 0 0     0  0  ALL$$$$$$$$$$ FalseFalseTrue False  N20231212FalseFalseFalse
002130M0029391001MANZO COTTO TIROLESE SENFTER       10000250000030000400000010000119970102100  1  N$KG000010000000010000S00000002000006010KGU00010000500000100086701IMANZO COTTO TIROLESE$00060I00086701002939101      MANZO COTTO TIROLESE SENFTER       00086701002939101      IC00000010099999999900002EL000867010120200123999912310000000130000L0000012020012399991231U0001000000000022908020250408113358RIVO      False 0 0 0     0  0 PAC$$$$$$ $$$$ FalseFalseTrue False  N20230722FalseFalseFalse
002130M0029864001FORMAGGIO GOUDA TEDESCO            10000250000010000130000160000119920131040  1  N$KG000010000000010000S00000002000009010KGU00010000100000100086701FFORMAGGIO GOUDA     $00090F00086701002986401      FORMAGGIO GOUDA TEDESCO            00086701002986401      IC00000010099999999900001FL000867010120140130999912310000000067000L0000012014013099991231U0001000000000009908020250408113358RIVO      False 0 0 0     0  0  ALL$$$$$$$$$$ FalseFalseTrue False  N20220331FalseFalseFalse
002130M0030832001QUARTIROLO LOMBARDO DOP CADEMARTORI10000250000010000040000130000120020712040  1  N$KG000010000000010000S00000002000004010KGU00010000300000100086701FQUARTIROLO LOMBARDO $00040F00086701003083201      QUARTIROLO LOMBARDO DOP CADEMARTORI00086701003083201      IC00000010099999999900002FL000867010120160505999912310000000075000L0000012016050599991231U0001000000000011908020250408113358RIVO      False 0 0 0     0  0  ALL$$$$$$$$$$ FalseFalseTrue False  N20160611FalseFalseFalse
002130M0030894001PECORINO FIORE SARDO DOP SAP.&DINT.10000250000010000070000010000119920317040  1  NCKG000010000000010000S00000002000015010KGU00010000100000100086701FPECORINO FIORE SARDO$00150F00086701003089401      PECORINO FIORE SARDO DOP SAP.&DINT.00086701003089401      IC00000010099999990000002FL000867010120220113999912310000000155000L0000012022011399991231U0001000000000023908020250408113358RIVO      False 0 0 0     0  0  ALL$$$$$$$$$$ FalseFalseTrue False  N20220701FalseFalseFalse
002130M0034349001CARCIOFI ARROSTITI                 10000250000070000190000010000120021014100  1  N$KG000010000000015380S00000002000006010KGU00010000000000100086701ICARCIOFI ARROSTITI  $00060I00086701003434901      CARCIOFI ARROSTITI                 00086701003434901      IC00000010099999999900001EL000867010120250408999912310000023400000L0000012008112799991231U0001000000000027908020250408113358RIVO      False 0 0 0     0  0 $$$$ $$$$ $$$$ FalseFalseTrue False  N20210412FalseFalseFalse
002130M0034356001ANTIPASTO CALABRESE                10000250000070000190000010000120021014100  1  N$KG000010000000015380S00000002000009010KGU00010000000000100086701IANTIPASTO CALABRESE $00090E00086701003435601      ANTIPASTO CALABRESE                00086701003435601      IC00000010099999999900001EL000867010120250408999912310000011850000L0000012008051599991231U0001000000000014908020250408113358RIVO      False 0 0 0     0  0 $$$$ $$$$ $$$$ FalseFalseTrue False  N20190816FalseFalseFalse
002130M0034359001CARCIOFINI MEDI INTERI BUSCEMA     10000250000070000190000010000120021014100  1  N$KG000015380000015380S00000002000009010KGU00010000000000100086701ICARCIOFINI MEDI INTE$00090I00086701003435901      CARCIOFINI MEDI INTERI BUSCEMA     00086701003435901      IC00000010099999999900001EL000867010120250408999912310000022450000L0000012008112799991231U0001000000000029308020250408113358RIVO      False 0 0 0     0  0 $$$$ $$$$ $$$$ FalseFalseTrue False  N20210814FalseFalseFalse
002130M0034421001COCKTAIL OLIVE VOGLIAZZI           10000250000070000190000100000120021015100  1  N$KG000010000000011540S00000002000015010KGU00010000000000100086701FCOCKTAIL OLIVE VOGL.$00150F00086701003442101      COCKTAIL OLIVE VOGLIAZZI           00086701003442101      IC00000010099999999900001FL000867010120240817999912310000008650000L0000012007011199991231U0001000000000011208020250408113358RIVO      False 0 0 0     0  0 LL$$ $$$$ $$$$ FalseFalseTrue False  N20250306FalseFalseFalse
002130M0035022001FORM.SPRESSA D.GIUDICARIE DOP      10000250000010000130000250000120021105040  1  N$KG000010000000010000S00000002000006010KGU00010000300000100086701FFORM.SPRESSA D.GIUDI$00060F00086701003502201      FORM.SPRESSA D.GIUDICARIE DOP      00086701003502201      IC00000010099999999900001FL000867010120140306999912310000000107000L0000012014030699991231U0001000000000015908020250408113358RIVO      False 0 0 0     0  0  ALL$$$$$$$$$$ FalseFalseTrue False  N20150806FalseFalseFalse
002130M0035932001FETTINE DI SPALLA VITELLO          10000290000010000190000150000120021202100  1  N$KG000010000000010000S00000005009999910KGU00010000000000100086701IFETTINE DI SPALLA VI$99999I00086701003593201      FETTINE DI SPALLA VITELLO          00086701003593201      IC00000010099999999900001IL000867010120250210999912310000000101800L0000012024121699991231U0001000000000018459120250408113358RIVO      False 0 0 0     0  0  ALL$$$$$$$$$$ FalseFalseTrue False  N20250406FalseFalseFalse
002130M0035949001HAMBURGER DI VITELLO               10000290000010000190000460000120021202100  1  N$KG000010000000010000S00000005009999910KGU00010000000000100086701IHAMBURGER DI VITELLO$99999I00086701003594901      HAMBURGER DI VITELLO               00086701003594901      IC00000010099999999900001IL000867010120241216999912310000000098500L0000012022111499991231U0001000000000013959120250408113358RIVO      False 0 0 0     0  0  ALL$$$$$$$$$$ FalseFalseTrue False  N20250406FalseFalseFalse
002130M0037308001SALSA TARTUFONA CORRADI            10000230000070000070000040000119971015100  1  N$KG000004800000010000S00000003000072010PZU00010000000000100086701FSALSA TARTUFONA     $00720F00086701003730801      SALSA TARTUFONA CORRADI            00086701003730801      IC00000010099999999900003FL000867010120220428999912310000000095400L0000012022042899991231U0001000000000014908020250408113358RIVO      False 0 0 0     0  0  PAC$$$$$$$$$$ FalseFalseTrue False  N20240106FalseFalseFalse
002130M0037323001FORMAGGIO PRIMO SALE NONNO NANNI   10000250000010000010000220000120021209040  1  N$KG000010000000010000S00000002000001410KGU00010000000000100086701EFORMAGGIO PRIMO SALE$00014E00086701               FROM.GOLOSETTA NONNO NANNI GR.180  00086701               IC00000010009999990000001IL000867010120140819999912310000000090000L0000012014081999991231U0001000000000012608020250408113358RIVO      False 0 0 0     0  0$$$$$$$$$$ $$$$ FalseFalseTrue False  N20240408FalseFalseFalse
002130M0037680001COCKTAIL REALE SURIMI FORMA GAMBERO10000250000070000040000100000119971104100  1  NCKG000010000000017390S00000002000006010KGU00010000000000100086701FCOCKTAIL REALE SURIM$00060F00086701003768001      COCKTAIL REALE SURIMI FORMA GAMBERO00086701003768001      IC00000010099999999900001FL000867010120240814999912310000016900000L0000012009021999991231U0001000000000025508020250408113358RIVO      False 0 0 0     0  0 LL$$ $$$$ $$$$ FalseFalseTrue False  N20190816FalseFalseFalse
002130M0037828001EMMENTAL BAVARESE BURLANDER        10000250000010000100000040000119971112040  1  N$KG000010000000010000S00000002000006010KGU00010000100000100086701FEMMENTAL BAVARESE   $00060F00086701003782801      EMMENTAL BAVARESE BURLANDER        00086701003782801      IC00000010099999999900001FL000867010120071115999912310000000056600L0000012007111599991231U0001000000000008708020250408113358RIVO      False 0 0 0     0  0  ALL$$$$$$$$$$ FalseFalseTrue False  N20200828FalseFalseFalse
002130M0039032001PECORINO CAMPAGNOLO PETRUCCI       10000250000010000070000010000119980204040  1  N$KG000010000000010000S00000002009999910KGU00010000100000100086701FPECORINO CAMPAGNOLO $99999F00086701003903201      PECORINO CAMPAGNOLO PETRUCCI       00086701003903201      IC00000010099999999900007FL000867010120220804999912310000000154000L0000012022080499991231U0001000000000022908020250408113358RIVO      False 0 0 0     0  0  PAC$$$$$$$$$$ FalseFalseTrue False  N20250407FalseFalseFalse
002130M0040460001CASCIOTTA DURBINO D.O.P.           10000250000010000040000010000119980515040  1  N$KG000010000000010000S00000002000006010KGU00010000300000100086701FCASCIOTTA DURBINO   $00060F00086701004046001      CASCIOTTA D'URBINO D.O.P.          00086701004046001      IC00000010099999999900005FL000867010120220407999912310000000097000L0000012022040799991231U0001000000000015108020250408113358RIVO      False 0 0 0     0  0  ALL$$$$$$$$$$ FalseFalseTrue False  N20230404FalseFalseFalse
002130M0043797001PEPERONI ARROSTITI BUSCEMA IN OLIO 10000250000070000190000010000119981202100  1  N$KG000010000000015380S00000002000006010KGU00010000000000100086701IPEPERONI ARROSTITI B$00060I00086701004379701      PEPERONI ARROSTITI BUSCEMA IN OLIO 00086701004379701      IC00000010099999999900001EL000867010120250408999912310000013100000L0000012008051599991231U0001000000000017908020250408113358RIVO      False 0 0 0     0  0 $$$$ $$$$ $$$$ FalseFalseTrue False  N20241202FalseFalseFalse
002130M0046395001PECORINO STAGIONATO  GRAN CAO      10000250000010000070000010000119990323040  1  N$KG000010000000010000S00000002009999910KGU00010000100000100086701FPECORINO STAGIONATO $99999F00086701004639501      PECORINO STAGIONATO "GRAN CAO"     00086701004639501      IC00000010099999999900001FL000867010120121115999912310000000125000L0000012012111599991231U0001000000000018508020250408113358RIVO      False 0 0 0     0  0  ALL$$$$$$$$$$ FalseFalseTrue False  N20171020FalseFalseFalse
002130M0049206001TRENTA CON POCO COLESTEROLO        10000250000010000190000130000119990604100  1  N$KG000010000000080000S00000002000006010KGU00010000300000100086701FTRENTA POCO COLESTER$00060F00086701004920601      TRENTA CON POCO COLESTEROLO        00086701004920601      IC00000010099999999900001FL000867010120221027999912310000000147500L0000012022102799991231U0001000000000023908020250408113358RIVO      False 0 0 0     0  0  ALL$$$$$$$$$$ FalseFalseTrue False  N00000000FalseFalseFalse
002130M0058122001GIRELLO IN SALSA VERDE GASTRO.UMBRA10000250000070000040000070000119920228100  1  N$KG000010000000010000S00000002009999910KGU00010000000000102065501FGIRELLO IN SALSA VER$99999F00377001201                                               00086701005812201      KG00000010099999999900001IL003770010120130509999912310000000170000L0000012013050999991231U0001000000000027109920250408113358RIVO      False 0 0 0     0  0  ALL$$$$$$$$$$ FalseFalseTrue False  N00000000FalseFalseFalse
002130M0085847001FORMAGGIO FILANTE GALBANI          10000250000010000040000190000120030128040  1  N$KG000010000000010000S00000002000005010KGS00020000300000100086701FFORMAGGIO FILANTE GA$00000F00086701008584701      FORMAGGIO FILANTE GALBANI          00086701008584701      IC00000010099999999900001FL000867010120221117999912310000000201500L0000012022111799991231S0002000000000014908020250408113358RIVO      False 0 0 0     0  0  ALL$$$$$$$$$$ FalseFalseTrue False  N20190904FalseFalseFalse
002130M0086431001RICOTTA AL FORNO AL LIMONE ZAPPALA 10000250000010000010000190000120030218040  1  N$KG000010000000010000S00000002000003010KGU00010000500000100086701FRICOTTA AL FORNO AL $00030F00086701008643101      RICOTTA AL FORNO AL LIMONE ZAPPALA'00086701008643101      IC00000010099999999900001FL000867010120180628999912310000000089000L0000012018062899991231U0001000000000014508020250408113358RIVO      False 0 0 0     0  0  ALL$$$$$$$$$$ FalseFalseTrue False  N20220826FalseFalseFalse
002130M0087022001FORMAGGIO LATTERIA VAL DI FASSA    10000250000010000130000250000120030307040  1  N$KG000010000000010000S00000002000006010KGU00010000300000100086701FFORMAGGIO LATTERIA  $00060F00086701008702201      FORMAGGIO LATTERIA VAL DI FASSA    00086701008702201      IC00000010099999999900001FL000867010120121108999912310000000086000L0000012012110899991231U0001000000000012908020250408113358RIVO      False 0 0 0     0  0  ALL$$$$$$$$$$ FalseFalseTrue False  N20230913FalseFalseFalse
002130M0087057001FORMAGGIO VEZZENA STAGIONATO       10000250000010000130000250000120030311040  1  N$KG000010000000010000S00000002000009010KGU00010000100000100086701FFORM.VEZZENA STAGION$00090F00086701008705701      FORMAGGIO VEZZENA STAGIONATO       00086701008705701      IC00000010099999999900001FL000867010120180412999912310000000107000L0000012018041299991231U0001000000000015908020250408113358RIVO      False 0 0 0     0  0  ALL$$$$$$$$$$ FalseFalseTrue False  N20240210FalseFalseFalse
002130M0087214001TOMA DI CAPRA "CAPRITILLA"         10000250000010000130000250008020030324040  1  N$KG000010000000000000S00000002000009002KGU00010000300000200086701FTOMA DI CAPRA       $00000F00086701008721401      TOMA DI CAPRA "CAPRITILLA"         00086701008721401      IC00000010099999999900001FL000867010120230105999912310000000195000L0000012023010599991231U0001000000000029908020250408113358RIVO      False 0 0 0     0  0$ALL  $$$$$     True FalseTrue False  N20230705FalseFalseFalse
002130M0088780001ANTIPASTO TRE GUSTI IN OLIO        10000250000070000190000010000120030625100  1  N$KG000014810000014810S00000002000006010KGU00010000000000100086701FANTIPASTO TRE GUSTI $00060F00086701008878001      ANTIPASTO TRE GUSTI IN OLIO        00086701008878001      IC00000010099999999900001FL000867010120061019999912310000000132000L0000012006101999991231U0001000000000014808020250408113358RIVO      False 0 0 0     0  0  ALL$$$$$$$$$$ FalseFalseTrue False  N20190817FalseFalseFalse
002130M0091086001FETTINE DI COLLO SENZA OSSO SUINO  10000290000030000010000190010020031028100  1  N$KG000010000000000000S00000005009999931KGU00010000000000300086701IFETTINE COLLO S/OSSO$00000I00086701009108601      FETTINE DI COLLO SENZA OSSO SUINO  00086701009108601      IC00000010099999999900001IL000867010120250210999912310000000056500L0000012023081899991231U0001000000000011909120250408113358RIVO      False 0 0 0     0  0      $$$$$     FalseFalseTrue False  N20250407FalseFalseFalse
002130M0091166001FORMAGGIO PUZZONE DI MOENA DOP     10000250000010000130000250000120031028040  1  N$KG000010000000010000S00000002000009010KGU00010000300000100086701FPUZZONE DI MOENA DOP$00090F00086701009116601      FORMAGGIO PUZZONE DI MOENA DOP     00086701009116601      IC00000010099999999900001FL000867010120130103999912310000000117000L0000012013010399991231U0001000000000017908020250408113358RIVO      False 0 0 0     0  0  ALL$$$$$$$$$$ FalseFalseTrue False  N20200103FalseFalseFalse
002130M0095897001FORMAGGIO FRESCO N.NANNI RUCOLA    10000250000010000010000220000120040702040  1  N$KG000010000000010000S00000002000001210KGU00010000300000100086701IFORM.FRESCO RUCOLA  $00012I00086701009589701      FORMAGGIO FRESCO N.NANNI RUCOLA    00086701009589701      IC00000010099999999900002EL000867010120150507999912310000000093000L0000012015050799991231U0001000000000014508020250408113359RIVO      False 0 0 0     0  0 ALL$$$$$$ $$$$ FalseFalseTrue False  S20230727FalseFalseFalse
002130M0096527001FORMAGGIO ASIAGO VECCHIO DOP       10000250000010000130000130000120041020040  1  N$KG000010000000000000S00000002000009002KGU00010000000000200086701FFORMAGGIO ASIAGO VEC$00000F00086701009652701      FORMAGGIO ASIAGO VECCHIO DOP       00086701009652701      IC00000010099999999900001FL000867010120220728999912310000000117000L0000012022072899991231U0001000000000016908020250408113359RIVO      False 0 0 0     0  0$ALL  $$$$$     FalseFalseTrue False  N20231118FalseFalseFalse
002130M0096654001FORMAGGIO LATTERIA STAG.SOTTO FIENO10000250000010000130000250034020041109040  1  N$KG000010000000000000S00000002000009002KGU00010000300000200086701FFORMAGGIO LATTERIA S$00000F00086701009665401      FORMAGGIO LATTERIA STAG.SOTTO FIENO00086701009665401      IC00000010099999999900001FL000867010120220728999912310000000113000L0000012022072899991231U0001000000000017908020250408113359RIVO      False 0 0 0     0  0$ALL  $$$$$     FalseFalseTrue False  N20220901FalseFalseFalse
002130M0096655001FORMAGGIO PINCION RISERVA          10000250000010000130000250000120041109040  1  N$KG000010000000010000S00000002000009010KGU00010000300000100086701FFORMAGGIO PINCION RI$00090F00086701009665501      FORMAGGIO PINCION RISERVA          00086701009665501      IC00000010099999999900001FL000867010120210429999912310000000103000L0000012013011799991231U0001000000000015908020250408113359RIVO      False 0 0 0     0  0  ALL$$$$$$$$$$ FalseFalseTrue False  N20190528FalseFalseFalse
002130M0098943001PECORINO PRATICELLO COOPERLAT      10000250000010000070000010000120060210040  1  N$KG000010000000010000S00000002000006010KGU00010000300000100086701FPECORINO PRATICELLO $00060F00086701009894301      PECORINO PRATICELLO COOPERLAT      00086701009894301      IC00000010099999999900004FL000867010120150226999912310000000083000L0000012015022699991231U0001000000000012908020250408113359RIVO      False 0 0 0     0  0  ALL$$$$$$$$$$ FalseFalseTrue False  N20210802FalseFalseFalse
002130M0099531001CARPACCIO DI POLPO MEDUSA          10000250000070000040000100000120060703100  1  N$KG000018180000018180S00000002000006010KGU00010000000000100086701ICARPACCIO DI POLPO M$00060I00086701009953101      CARPACCIO DI POLPO MEDUSA          00086701009953101      IC00000010099999999900001EL000867010120250408999912310000016900000L0000012018042699991231U0001000000000047908020250408113359RIVO      False 0 0 0     0  0$$$$$$$$$$ $$$$ FalseFalseTrue False  N00000000FalseFalseFalse
002130M0099532001CARPACCIO DI SALMONE MARINATO      10000250000070000040000100000120060703100  1  N$KG000016130000016130S00000002550006010KGU00010000000000100086701ICARPACCIO DI SALMONE$00060I00086701009953201      CARPACCIO DI SALMONE MARINATO MED. 00086701009953201      IC00000010099999999900001EL000867010120250408999912310000022900000L0000012012010599991231U0001000000000054908020250408113359RIVO      False 0 0 0     0  0 $$$$ $$$$ $$$$ FalseFalseTrue False  S20201030FalseFalseFalse
002130M0099616001FORMAGGIO GALBANONE AFFUMICATO     10000250000010000130000070000120060802040  1  N$KG000010000000010000S00000002000003010KGU00010000300000100086701FFORM.GALBANONE AFFUM$00000E00086701009961601      FORMAGGIO GALBANONE AFFUMICATO     00086701009961601      IC00000010099999999900002EL000867010120230518999912310000000119000L0000012023051899991231U0001000000000016908020250408113359RIVO      False 0 0 0     0  0  ALL$$$$$$$$$$ FalseFalseTrue False  N20230903FalseFalseFalse
002130M0101281001LIEVITO PANETTO GR.500             10000230000090000100000010000120200323100  1  N$KG000005000000005000S00000002000003010KGU00010000000000100086701ILIEVITO PANETTO GR.5$00030I00086701               LIEVITO PANETTO GR.500             00086701               IC00000010009999990000001IL000867010120200323999912310000000012000L0000012025040899991231U0001000000000004508020250408113359RIVO      False 0 0 0     0  0$$$$$ $$$$ $$$$ FalseFalseFalseFalse  S20230415FalseFalseFalse
002130M0101448001FIGLIATA DI BUFALA                 10000250000010000010000070000120210806040  1  N$KG000010000000010000S00000002000002510KGU00010000300000100086701IFIGLIATA DI BUFALA  $00025I00086701               FIGLIATA DI BUFALA                 00086701               IC00000010009999990000001EL000867010120210806999912310000000168000L0000012021080699991231U0001000000000026508020250408113359RIVO      False 0 0 0     0  0$$$$$$$$$$ $$$$ FalseFalseFalseFalse  S20210911FalseFalseFalse
002130M0501170001CACIOTTA MORBIDA GRIFO             10000250000010000040000010000120071115040  1  N$KG000010000000010000S00000002009999910KGU00010000300000100097201ICACIOTTA MORBIDA GRI$99999I000972016500                                              00086701050117001      IF00000010099999999900001IL000972010120250408999912310000000090500L0000012023030599991231U0001000000000019509920250408113359RIVO      False 0 0 0     0  0  ALL$$$$$$$$$$ FalseFalseTrue False  N20150520FalseFalseFalse
002130M0511135001PECORINO STAGIONATO TESTANERA      10000250000010000070000010000120091127040  1  N$KG000010000000010000S00000002009999910KGU00010000100000100097201IPECORINO STAGIONATO $99999I000972016571                                              00086701051113501      IF00000010099999999900001IL000972010120220922999912310000000192000L0000012022092299991231U0001000000000027909920250408113359RIVO      False 0 0 0     0  0  ALL$$$$$$$$$$ FalseFalseTrue False  N20230724FalseFalseFalse
002130M0516478001STRACCIATELLA CAS.ARTIGIANA        10000250000010000010000310000120111006040  1  N$KG000010000000010000S00000002009999910KGU00010000000000101356801FSTRACCIATELLA CAS.AR$99999F01231501000000000012002                                   00086701051647801      IF00000010099999999900001IL012315010120130124999912310000000114000L0000012023081799991231U0001000000000019909920250408113359RIVO      False 0 0 0     0  0  ALL$$$$$$$$$$ FalseFalseTrue False  N20241030FalseFalseFalse
002130M0670170001INSALATA MARE LAGUNE NATURALE      10000250000070000040000100000120061205100  1  N$KG000015710000015710S00000002000009010KGU00010000000000100086701FINSALATA MARE LAGUNE$00090F00086701067017001      INSALATA MARE LAGUNE NATURALE      00086701067017001      IC00000010099999999900001FL000867010120180531999912310000000429000L0000012018053199991231U0001000000000021908020250408113359RIVO      False 0 0 0     0  0  ALL$$$$$$$$$$ FalseFalseTrue False  N20140124FalseFalseFalse
002130M0670595001EMMENTAL GRAN PAVOIS               10000250000010000100000040000120070207040  1  N$KG000010000000010000S00000002000006010KGU00010000100000100086701FEMMENTAL GRAN PAVOIS$00060F00086701067059501      EMMENTAL GRAN PAVOIS               00086701067059501      IC00000010099999999900002FL000867010120240510999912310000000089000L0000012024051099991231U0001000000000011908020250408113359RIVO      False 0 0 0     0  0  ALL$$$$$$$$$$ FalseFalseTrue False  N20240720FalseFalseFalse
002130M0672395002OLIVE GIG.C/PEPERONCINO VER.COPAIM 10000250000070000190000100000120070717100  1  N$KG000011540000011540S00000002000006010KGU00010000000000100086701FOLIVE GIG.C/PEPER.VE$00060F00086701067239502      OLIVE GIG.C/PEPERONCINO VER.COPAIM 00086701067239502      IC00000010099999999900001FL000867010120070802999912310000000159000L0000012007080299991231U0001000000000019508020250408113359RIVO      False 0 0 0     0  0  ALL$$$$$$$$$$ FalseFalseTrue False  N20200822FalseFalseFalse
002130M0672666001FORMAGGIO GOUDA OLANDESE           10000250000010000130000160006020070913040  1  N$KG000010000000000000S00000002000009002KGU00010000100000200086701IFORMAGGIO GOUDA OLAN$00000I00086701067266601      FORMAGGIO GOUDA OLANDESE           00086701067266601      IC00000010099999999900001IL000867010120241107999912310000000079000L0000012024110799991231U0001000000000012508020250408113359RIVO      False 0 0 0     0  0$ALL  $$$$$     True FalseTrue False  N00000000FalseFalseFalse
002130M0672916001STRACCHINO CREMOSO CONAD           10000250000010000010000130000120071005040  1  NCKG000010000000010000S00000002000001610KGU00010000300000100086701FSTRACCHINO CONAD    $00016F00086701067291601      STRACCHINO CREMOSO CONAD           00086701067291601      IC00000010099999999900002FL000867010120230105999912310000000085000L0000012023010599991231U0001000000000013908020250408113359RIVO      False 0 0 0     0  0  ALL$$$$$$$$$$ FalseFalseTrue False  N20230621FalseFalseFalse
002130M0673644001SALAMINO PICCANTE ISAL             10000250000030000250000190000120080121100  1  N$KG000010000000010000S00000002000018010KGU00010000500000100086701FSALAME PICCANTE ISAL$00180F00086701067364401      SALAMINO PICCANTE ISAL             00086701067364401      IC00000010099999999900006FL000867010120200109999912310000000096000L0000012020010999991231U0001000000000016908020250408113359RIVO      False 0 0 0     0  0  ALL$$$$$$$$$$ FalseFalseTrue False  N20221018FalseFalseFalse
002130M0675323001FORMAGGIO AL VINO LAGREIN          10000250000010000130000250005020081020040  1  N$KG000010000000000000S00000002000006002KGU00010000100000200086701FFORMAGGIO AL VINO   $00000F00086701067532301      FORMAGGIO AL VINO LAGREIN          00086701067532301      IC00000010099999999900001FL000867010120230126999912310000000156000L0000012023012699991231U0001000000000023508020250408113359RIVO      False 0 0 0     0  0$ALL  $$$$$     FalseFalseTrue False  N20200601FalseFalseFalse
002130M0675559001FORM.OCCHIATO NOSTRANO TRENTO      10000250000010000130000250000120081113040  1  N$KG000010000000010000S00000002009999910KGU00010000300000100086701FFORM.OCCHIATO NOSTRA$99999F00086701067555901      FORM.OCCHIATO NOSTRANO TRENTO      00086701067555901      IC00000010099999999900001FL000867010120140306999912310000000076000L0000012014030699991231U0001000000000011908020250408113359RIVO      False 0 0 0     0  0  ALL$$$$$$$$$$ FalseFalseTrue False  N20231229FalseFalseFalse
002130M0675594002FORM.GROTTONE AFFUMICATO           10000250000010000130000010012220081120040  1  N$KG000010000000000000S00000002000030002KGU00010000500000200086701FFORMAGGIO GROTTONE  $00000F00086701067559402      FORM.GROTTONE AFFUMICATO           00086701067559402      IC00000010099999999900001FL000867010120221006999912310000000175800L0000012022100699991231U0001000000000027508020250408113359RIVO      False 0 0 0     0  0$ALL  $$$$$     True FalseTrue False  N20140215FalseFalseFalse
002130M0676016001FIORDILATTE COLFIORITO             10000250000010000010000010000120090212040  1  N$KG000010000000010000S00000002000001010KGU00010000000000100086701FFIORDILATTE COLFIORI$00010F00086701               FIORDILATTE ROMANINA               00086701               IC00000010009999990000001FL000867010120230401999912310000000270000L0000012013100399991231U0001000000000012508020250408113359RIVO      False 0 0 0     0  0  ALL$$$$$$$$$$ FalseFalseTrue False  N20250222FalseFalseFalse
002130M0676213001FIORDILATTE VALLELATA SFUSA        10000250000010000010000010000120090305040  1  N$KG000010000000010000S00000002000001010KGU00010000000000100086701FFIORDILATTE VALLELAT$00010F00086701067621301      FIORDILATTE VALLELATA SFUSA        00086701067621301      IC00000010099999999900002FL000867010120220630999912310000000167000L0000012022063099991231U0001000000000012508020250408113359RIVO      False 0 0 0     0  0  ALL$$$$$$$$$$ FalseFalseTrue False  N20241106FalseFalseFalse
002130M0676268001FORM.FIORONI DI CAPRA MAURI        10000250000010000010000220000120090310040  1  N$KG000010000000010000S00000002000003010KGU00010000300000100086701IFORM.FIORONI CAPRA  $00030I00086701067626801      FORM.FIORONI DI CAPRA MAURI        00086701067626801      IC00000010099999999900003EL000867010120250408999912310000006100000L0000012014071099991231U0001000000000016908020250408113359RIVO      False 0 0 0     0  0$$$$$$$$$$ $$$$ FalseFalseTrue False  N20181024FalseFalseFalse
002130M0676268002FORM.FIORONI CAPRA ERBE MAURI      10000250000010000010000220000120090310040  1  N$KG000010000000010000S00000002000003010KGU00010000300000100086701FFORM.FIORONI CAPRA  $00030F00086701067626802      FORM.FIORONI CAPRA ERBE MAURI      00086701067626802      IC00000010099999999900003FL000867010120140710999912310000000061000L0000012014071099991231U0001000000000016908020250408113359RIVO      False 0 0 0     0  0  ALL$$$$$$$$$$ FalseFalseTrue False  N20240923FalseFalseFalse
002130M0676395001CREMA DI MAGGIO CAMOSCIO DORO      10000250000010000190000070000120090326040  1  N$KG000005560000010000S00000002000002510KGS00020000300000100086701FCREMA DI MAGGIO CAMO$00025F00086701067639501      CREMA DI MAGGIO CAMOSCIO D'ORO     00086701067639501      IC00000010099999999900001FL000867010120230216999912310000000228000L0000012023021699991231S0001800000000019508020250408113359RIVO      False 0 0 0     0  0  ALL$$$$$$$$$$ FalseFalseTrue False  N20240607FalseFalseFalse
002130M0678098001PROSCIUTTO DI CINGHIALE VIANI      10000250000030000010000160000120091125100  1  N$KG000010000000010000S00000002000054010KGU00010006000000100086701FPROSC.DI CINGHIALE  $00540F00086701067809801      PROSCIUTTO DI CINGHIALE VIANI      00086701067809801      IC00000010099999999900001FL000867010120200430999912310000000293000L0000012020043099991231U0001000000000109008020250408113359RIVO      False 0 0 0     0  0  ALL$$$$$$$$$$ FalseFalseTrue False  N00000000FalseFalseFalse
002130M0678116001FIOCCO DI PROSCIUTTO NAZ.LA BADIA  10000250000030000010000250000120091203100  1  N$KG000010000000010000S00000002000036010KGU00010000000000100086701FFIOCCO PROSC.BADIA  $00360F00086701067811601      FIOCCO DI PROSCIUTTO NAZ.LA BADIA  00086701067811601      IC00000010099999999900002FL000867010120211104999912310000000106000L0000012023081299991231U0001000000000014908020250408113359RIVO      False 0 0 0     0  0  ALL$$$$$$$$$$ FalseFalseTrue False  N20230712FalseFalseFalse
002130M0679058001PECORINO DEL PASTORELLO PETRUCCI   10000250000010000070000010030120100402040  1  N$KG000010000000000000S00000002000009002KGU00010000300000200086701FPECORINO PASTORELLO $00000F00086701067905801      PECORINO DEL PASTORELLO PETRUCCI   00086701067905801      IC00000010099999999900004FL000867010120230504999912310000000131000L0000012023050499991231U0001000000000019908020250408113359RIVO      False 0 0 0     0  0$PAC  $$$$$     True FalseTrue False  N20140404FalseFalseFalse
002130M0679110001BISTECCA DI LOMBO S/O BOVINO ADULTO10000290000010000010000010000120100413100  1  N$KG000010000000010000S00000005009999910KGU00010000000000100086701IBISTECCA LOMBO S/OSS$00000I00086701067911001      BISTECCA DI LOMBO S/O BOVINO ADULTO00086701067911001      IC00000010099999999900001IL000867010120250210999912310000000094700L0000012024121699991231U0001000000000019959120250408113359RIVO      False 0 0 0     0  0  ALL$$$$$$$$$$ FalseFalseTrue False  N20250326FalseFalseFalse
002130M0680062001P.CRUDO SPAGNOLO JAMON SERRANO 16M 10000250000030000010000220000120100826100  1  N$KG000010000000010000S00000002000012010KGU00010006000000100086701IP.CRUDO SPAGNOLO JAM$00120I00086701068006201      P.CRUDO SPAGNOLO JAMON SERRANO 16M 00086701068006201      IC00000010099999999900001EL000867010120161013999912310000000105000L0000012016101399991231U0001000000000039908020250408113359RIVO      False 0 0 0     0  0$$$$$$$$$$ $$$$ FalseFalseTrue False  N20190503FalseFalseFalse
002130M0680303001SPEZZATINO DI BOVINO ADULTO CON RIS10000290000010000010000010000120100921100  1  N$KG000010000000010000S00000005009999910KGU00010000000000100086701ISPEZZA.B.A.CONF.RISP$00000I00086701068030301      SPEZZATINO DI BOVINO ADULTO CON RIS00086701068030301      IC00000010099999999900001IL000867010120241216999912310000000092000L0000012024110699991231U0001000000000009959120250408113359RIVO      False 0 0 0     0  0  ALL$$$$$$$$$$ FalseFalseTrue False  N20250209FalseFalseFalse
002130M0680312001BRACIOLA DI LOMBO SUINO CONF.RISPAR10000290000030000010000190010020100921100  1  N$KG000010000000000000S00000005009999931KGU00010000000000300086701IBRACIOLA LOMBO SUINO$00000I00086701068031201      BRACIOLA DI LOMBO SUINO CONF.RISPAR00086701068031201      IC00000010099999999900001IL000867010120250210999912310000000034100L0000012024101199991231U0001000000000008759120250408113359RIVO      False 0 0 0     0  0      $$$$$     FalseFalseTrue False  N20250403FalseFalseFalse
002130M0680324001COSCIOTTO DI POLLO CONFEZ RISPAR   10000290000050000010000010010020100921100  1  N$KG000010000000000000S00000005009999931KGU00010000000000300086701ICOSCIOT.POLLO CONF/R$00000I00086701068032401      COSCIOTTO DI POLLO CONFEZ RISPAR   00086701068032401      IC00000010099999999900001IL000867010120241106999912310000000033100L0000012023121199991231U0001000000000004959120250408113359RIVO      False 0 0 0     0  0      $$$$$     FalseFalseTrue False  N20250405FalseFalseFalse
002130M0680426001PECORINO STAGION.IN GIARA L'ULIVO  10000250000010000070000010040020100930040  1  N$KG000010000000000000S00000002000012002KGU00010000100000200086701FPECOR.STAG.L'ULIVO  $00000F00086701068042601      PECORINO STAGION.IN GIARA L'ULIVO  00086701068042601      IC00000010099999999900004FL000867010120230202999912310000000200000L0000012023020299991231U0001000000000028508020250408113359RIVO      False 0 0 0     0  0$ALL  $$$$$     True FalseTrue False  N20160629FalseFalseFalse
002130M0680496001FORMAGGIO IL CASOLET               10000250000010000010000280000120101005040  1  N$KG000010000000010000S00000002000009010KGU00010000300000100086701FFORMAGGIO IL CASOLET$00090F00086701068049601      FORMAGGIO "IL CASOLET"             00086701068049601      IC00000010099999999900001FL000867010120101118999912310000000089000L0000012010111899991231U0001000000000012908020250408113359RIVO      False 0 0 0     0  0  ALL$$$$$$$$$$ FalseFalseTrue False  N20241209FalseFalseFalse
002130M0681399001FIOCCO PROSC.NAZ.CONAD INTERO KG2,510000250000030000010000250000120110217100  1  NCKG000010000000010000S00000002000015010KGU00010000000000100086701FFIOCCO PR.NAZ.CONAD $00150F00086701068139901      FIOCCO PROSC.NAZ.CONAD INTERO KG2,500086701068139901      IC00000010099999999900002FL000867010120240304999912310000000113000L0000012023120799991231U0001000000000015908020250408113359RIVO      False 0 0 0     0  0  ALL$$$$$ $$$$ FalseFalseTrue False  N20240315FalseFalseFalse
002130M0681446001FILETTI DI SGOMBRO IN OLIO MEDUSA  10000250000070000040000100000120110224100  1  N$KG000013570000013570S00000002000018010KGU00010000000000100086701FFILETTI DI SGOMBRO  $00180F00086701068144601      FILETTI DI SGOMBRO IN OLIO MEDUSA  00086701068144601      IC00000010099999999900001FL000867010120180426999912310000000215000L0000012018042699991231U0001000000000023908020250408113359RIVO      False 0 0 0     0  0  ALL$$$$$$$$$$ FalseFalseTrue False  N20220329FalseFalseFalse
002130M0682607002TOMETTA AL PEPERONCINO BOTALLA     10000250000010000130000250006220121218040  1  N$KG000010000000000000S00000002000006002KGU00010000300000200086701FTOMETTA PEPERONCINO $00000F00086701068260702      TOMETTA AL PEPERONCINO BOTALLA     00086701068260702      IC00000010099999999900004FL000867010120230105999912310000000134000L0000012022102799991231U0001000000000019908020250408113359RIVO      False 0 0 0     0  0$ALL  $$$$$     True FalseTrue False  N20160906FalseFalseFalse
002130M0682609001CACIOTTA CAPRINA BOTALLA           10000250000010000080000010000120110809040  1  N$KG000010000000010000S00000002000006010KGU00010000300000100086701FCACIOTTA CAPRINA    $00060F00086701068260901      CACIOTTA CAPRINA BOTALLA           00086701068260901      IC00000010099999999900004FL000867010120230105999912310000000195000L0000012023010599991231U0001000000000029908020250408113359RIVO      False 0 0 0     0  0  ALL$$$$$$$$$$ FalseFalseTrue False  N20190721FalseFalseFalse
002130M0683009001MORTADELLA FAVOLA IN COTENNA       10000250000030000340000010000120110927100  1  N$KG000010000000010000S00000002000003510KGU00010001300000100086701FMORTADELLA FAVOLA   $00035F00086701068300901      MORTADELLA FAVOLA IN COTENNA       00086701068300901      IC00000010099999999900001FL000867010120191212999912310000000088000L0000012019121299991231U0001000000000017908020250408113359RIVO      False 0 0 0     0  0  ALL$$$$$$$$$$ FalseFalseTrue False  N20240210FalseFalseFalse
002130M0683264001FORMAGGIO BORSO GRAN RISERVA       10000250000010000130000250000120111013040  1  N$KG000010000000010000S00000002000006010KGU00010000300000100086701FFORMAGGIO BORSO GRAN$00060F00086701068326401      FORMAGGIO BORSO GRAN RISERVA       00086701068326401      IC00000010099999999900001FL000867010120111110999912310000000078000L0000012011111099991231U0001000000000011908020250408113359RIVO      False 0 0 0     0  0  ALL$$$$$$$$$$ FalseFalseTrue False  N00000000FalseFalseFalse
002130M0684012001TRECCIONE AFFUMICATO ALIVAL        10000250000010000010000070000120120222040  1  N$KG000010000000010000S00000002000006010KGU00010000300000100086701FTRECCIONE AFFUMICATO$00060F00086701068401201      TRECCIONE AFFUMICATO ALIVAL        00086701068401201      IC00000010099999999900001FL000867010120220714999912310000000089000L0000012022071499991231U0001000000000013908020250408113359RIVO      False 0 0 0     0  0  ALL$$$$$$$$$$ FalseFalseTrue False  N20230424FalseFalseFalse
002130M0684201001FET.E DI FRACOSTA BOVINO ADULTO C/R10000290000010000010000010000120120320100  1  N$KG000010000000010000S00000005009999910KGU00010000000000100086701IFET.NE FRACOSTA BOVI$00000I00086701068420101      FET.E DI FRACOSTA BOVINO ADULTO C/R00086701068420101      IC00000010099999999900001IL000867010120241216999912310000000092000L0000012024101199991231U0001000000000013459120250408113359RIVO      False 0 0 0     0  0  ALL$$$$$$$$$$ FalseFalseTrue False  N20231104FalseFalseFalse
002130M0684316001FORMAGGIO DOLCESELVA TONIOLO       10000250000010000130000250000120120328040  1  N$KG000010000000010000S00000002000006010KGU00010000300000100086701FFORMAGGIO DOLCESELVA$00060F00086701068431601      FORMAGGIO DOLCESELVA TONIOLO       00086701068431601      IC00000010099999999900001FL000867010120180111999912310000000076000L0000012018011199991231U0001000000000011908020250408113400RIVO      False 0 0 0     0  0  ALL$$$$$$$$$$ FalseFalseTrue False  N20201019FalseFalseFalse
002130M0684463001PANCETTA INTERA DA SALE DI SUINO   10000290000030000010000010010020120417100  1  N$KG000010000000000000S00000005009999931KGU00010000000000300086701IPANCETTA SUINO SALE $00000I00086701068446301      PANCETTA INTERA DA SALE DI SUINO   00086701068446301      IC00000010099999999900001IL000867010120240122999912310000000039800L0000012024101299991231U0001000000000006509120250408113400RIVO      False 0 0 0     0  0      $$$$$     FalseFalseTrue False  N20250405FalseFalseFalse
002130M0684881001SPALLA STAGIONATA LANZI            10000250000030000040000010000120120515100  1  N$KG000010000000010000S00000002000009010KGU00010000000000100086701FSPALLA STAG. LANZI  $00090F00086701068488101      SPALLA STAGIONATA LANZI            00086701068488101      IC00000010099999999900002FL000867010120230202999912310000000064500L0000012023020299991231U0001000000000009908020250408113400RIVO      False 0 0 0     0  0  PAC$$$$$$$$$$ FalseFalseTrue False  N20231013FalseFalseFalse
002130M0684967001CIAUSCOLO CORTE MARCHIGIANA IGP    10000250000030000250000130000120120530100  1  N$KG000010000000010000S00000002009999910KGU00010000500000100086701FCIAUSCOLO MARCHIGIAN$99999F00086701068496701      CIAUSCOLO CORTE MARCHIGIANA IGP    00086701068496701      IC00000010099999999900004FL000867010120231012999912310000000096500L0000012023101299991231U0001000000000017908020250408113400RIVO      False 0 0 0     0  0 ALL$$$$$$ $$$$ FalseFalseTrue False  N20250207FalseFalseFalse
002130M0685298001FORMAGGIO LUNATICO BOTALLA         10000250000010000130000250007020120713040  1  N$KG000010000000006000S00000002000006002KGU00010000300000200086701FFORMAGGIO LUNATICO  $00000F00086701068529801      FORMAGGIO LUNATICO BOTALLA         00086701068529801      IC00000010099999999900004FL000867010120230105999912310000000147000L0000012023010599991231U0001000000000021908020250408113400RIVO      False 0 0 0     0  0$ALL  $$$$$     True FalseTrue False  N20200102FalseFalseFalse
002130M0685759001FORMAGGIO GALBANINO                10000250000010000130000070000120120913040  1  N$KG000005000000010000S00000002000005010KGS00020000300000100086701FFORMAGGIO GALBANINO $00050F00086701068575901      FORMAGGIO GALBANINO                00086701068575901      IC00000010099999999900001FL000867010120220630999912310000000189000L0000012022063099991231S0002000000000013908020250408113400RIVO      False 0 0 0     0  0  ALL$$$$$$$$$$ FalseFalseTrue False  N20250306FalseFalseFalse
002130M0685770001BOLLITO C/OSSO BOVINO ADULTO C.RISP10000290000010000010000010010020120917100  1  N$KG000010000000000000S00000005009999931KGU00010000000000300086701IBOLLITO C/OSSO BOVIN$00000I00086701068577001      BOLLITO C/OSSO BOVINO ADULTO C.RISP00086701068577001      IC00000010099999999900001IL000867010120241216999912310000000092000L0000012024101199991231U0001000000000008759120250408113400RIVO      False 0 0 0     0  0$ALL  $$$$$     FalseFalseTrue False  N20190908FalseFalseFalse
002130M0685841001SQUACQUERONE AL CUCCHIAIO          10000250000010000010000130100020120921040  1  N$KG000010000000000000S00000002000001202KGU00010000300000200086701FSQUACQUER.CUCCHIAIO $00000F00086701068584101      SQUACQUERONE AL CUCCHIAIO          00086701068584101      IC00000010099999999900002FL000867010120220224999912310000000093000L0000012022022499991231U0001000000000014508020250408113400RIVO      False 0 0 0     0  0$ALL  $$$$$     FalseFalseTrue False  N20230509FalseFalseFalse
002130M0686522001CONF.SQUACQUERONE + GIARINA        10000250000010000010000130100020121217040  1  N$KG000010000000040000S00000002000001202KGU00010000300000200086701FCONF.SQUACQUER.GIAR.$00000F00086701068652201      CONF.SQUACQUERONE + GIARINA        00086701068652201      IC00000010099999999900001FL000867010120220224999912310000000099000L0000012022022499991231U0001000000000014508020250408113400RIVO      False 0 0 0     0  0$ALL  $$$$$     FalseFalseTrue False  N20201005FalseFalseFalse
002130M0687286001PECORINO SARDO DOP S.TERESA PINNA  10000250000010000070000010013020130412040  1  N$KG000010000000000000S00000002000006002KGU00010000300000200086701FPEC.SARDO S.TERESA  $00000F00086701068728601      PECORINO SARDO DOP S.TERESA PINNA  00086701068728601      IC00000010099999999900002FL000867010120221201999912310000000140000L0000012022120199991231U0001000000000021508020250408113400RIVO      False 0 0 0     0  0$ALL  $$$$$     True FalseTrue False  N20220317FalseFalseFalse
002130M0687748001SQUACQUERONE DI ROMAGNA DOP SAP&DIN10000250000010000010000130000520130516040  1  NCKG000010000000000000S00000002000001502KGU00010000300000200086701FSQUACQUERONE ROMAGNA$00000F00086701068774801      SQUACQUERONE DI ROMAGNA DOP SAP&DIN00086701068774801      IC00000010099999999900004FL000867010120221013999912310000000080000L0000012022101399991231U0001000000000012908020250408113400RIVO      False 0 0 0     0  0SALL  $$$$$     True FalseTrue False  N20250328FalseFalseFalse
002130M0687777001SALAME CONTADINO P.SUINO CAVAZZUTI 10000250000030000250000130130020130520100  1  N$KG000010000000000000S00000002000006002KGU00010000500000200086701FSALAME CONTADINO P.S$00000F00086701068777701      SALAME CONTADINO P.SUINO CAVAZZUTI 00086701068777701      IC00000010099999999900001FL000867010120230112999912310000000108000L0000012023011299991231U0001000000000018908020250408113400RIVO      False 0 0 0     0  0$PAC  $$$$$     FalseFalseTrue False  N20240609FalseFalseFalse
002130M0687796001FETTINE ANTER.BOVINO ADULTO C/RISP 10000290000010000010000080010020130522100  1  N$KG000010000000000000S00000005009999931KGU00010000000000300086701IFETT.ANTER.BOVINO RI$00000I00086701068779601      FETTINE ANTER.BOVINO ADULTO C/RISP 00086701068779601      IC00000000000000000000001IL000867010120250210999912310000000084000L0000012024112899991231U0001000000000013459120250408113400RIVO      False 0 0 0     0  0      $$$$$     FalseFalseTrue False  N20250215FalseFalseFalse
002130M0689664001FORM.CASATICO DI BUFALA QUATTRO P. 10000250000010000040000160000120140212040  1  N$KG000010000000010000S00000002000006010KGU00010000300000100086701FFORM.CASATICO BUFALA$00060F00086701068966401      FORM.CASATICO DI BUFALA QUATTRO P. 00086701068966401      IC00000010099999999900001FL000867010120140306999912310000000165000L0000012014030699991231U0001000000000024908020250408113400RIVO      False 0 0 0     0  0  ALL$$$$$$$$$$ FalseFalseTrue False  N20160508FalseFalseFalse
002130M0690047001CACIOCAV.SILANO DOP CAMPOLONGO     10000250000010000130000010000120140325040  1  N$KG000010000000010000S00000002000009010KGU00010000300000100086701FCACIOCAV.SILANO DOP $00090F00086701069004701      CACIOCAV.SILANO DOP CAMPOLONGO     00086701069004701      IC00000010099999999900006FL000867010120191030999912310000000094000L0000012019103099991231U0001000000000014908020250408113400RIVO      False 0 0 0     0  0  ALL$$$$$$$$$$ FalseFalseTrue False  N20231023FalseFalseFalse
002130M0690400001FORMAG.PIAVE DOP VECCHIO ORO       10000250000010000130000250000120140527040  1  N$KG000010000000010000S00000002009999910KGU00010000100000100086701FFORM.PIAVE DOP VECC.$99999F00086701069040001      FORMAG.PIAVE DOP VECCHIO "ORO"     00086701069040001      IC00000010099999999900001FL000867010120140904999912310000000106000L0000012014090499991231U0001000000000016508020250408113400RIVO      False 0 0 0     0  0  ALL$$$$$$$$$$ FalseFalseTrue False  N20181118FalseFalseFalse
002130M0691638001BURRATA IN FOGLIA GIOIELLA         10000250000010000010000280000120141014040  1  N$KG000010000000010000S00000002000001310KGS00009000000000100086701FBURRATA IN FOGLIA   $00013F00086701069163801      BURRATA IN FOGLIA GIOIELLA         00086701069163801      IC00000010099999999900002FL000867010120240502999912310000000091000L0000012024050299991231S0001000000000013908020250408113400RIVO      False 0 0 0     0  0  ALL$$$$$$$$$$ FalseFalseTrue False  N20220307FalseFalseFalse
002130M0691639001BURRATA AL TARTUFO GIOIELLA        10000250000010000010000280020220141014040  1  N$KG000010000000010000S00000002000001302KGS00010000000000200086701FBURRATA AL TARTUFO  $00000F00086701069163901      BURRATA AL TARTUFO GIOIELLA        00086701069163901      IC00000010099999999900002FL000867010120220915999912310000000101000L0000012022091599991231S0001000000000015908020250408113400RIVO      False 0 0 0     0  0$ALL  $$$$$     FalseFalseTrue False  N20210617FalseFalseFalse
002130M0691640001BURRATA FUME GIOIELLA              10000250000010000010000280000120141014040  1  N$KG000013330000010000S00000002000001310KGS00010000000000100086701FBURRATA FUMEGIOIEL. $00013F00086701069164001      BURRATA FUME' GIOIELLA             00086701069164001      IC00000010099999999900002FL000867010120220915999912310000000076000L0000012022091599991231S0000750000000015908020250408113400RIVO      False 0 0 0     0  0  ALL$$$$$$$$$$ FalseFalseTrue False  N00000000FalseFalseFalse
002130M0692489001MORTADELLA S&D C/PEPE SV KG14      10000250000030000340000010000120150305100  1  NCKG000010000000010000S00000002000009110KGU00010000500000100086701FMORTADELLA S&D.     $00091F00086701069248901      MORTADELLA S&D C/PEPE SV KG14      00086701069248901      IC00000010099999999900001FL000867010120230202999912310000000079500L0000012023020299991231U0001000000000014908020250408113400RIVO      False 0 0 0     0  0  ALL$$$$$$$$$$ FalseFalseTrue False  N20250211FalseFalseFalse
002130M0692500001FORMAGGIO ASIAGO DOP LATTEBUSCHE   10000250000010000130000130000120150305040  1  N$KG000010000000010000S00000002000018010KGU00010000300000100086701IFORM.ASIAGO DOP     $00180I00086701069250001      FORMAGGIO ASIAGO DOP LATTEBUSCHE   00086701069250001      IC00000010099999999900001EL000867010120150709999912310000000062000L0000012015070999991231U0001000000000008908020250408113400RIVO      False 0 0 0     0  0$$$$$$$$$$ $$$$ FalseFalseTrue False  N20240125FalseFalseFalse
002130M0693941002PARMIGIANO REGGIANO DOP 36 MESIOS  10000250000010000160000010000120151211040  1  N$KG000010000000010000S00000002000004510KGU00010000000000100086701IP.REGGIANO DOP 36 M.$00045I00086701069394102      PARMIGIANO REGGIANO DOP 36 MESI"OS"00086701069394102      IC00000010099999999900010IL000867010120250226999912310000000177000L0000012025020899991231U0001000000000021908020250408113400RIVO      False 0 0 0     0  0  ALL$$$$$$$$$$ FalseFalseTrue False  N20250219FalseFalseFalse
002130M0696537001INSALATA DI POLPO MEDUSA           10000250000070000040000010000120160615100  1  N$KG000016130000016130S00000002000013510KGU00010000000000100086701IINSALATA DI POLPO   $00135I00086701069653701      INSALATA DI POLPO MEDUSA           00086701069653701      IC00000010099999999900004EL000867010120250408999912310000015900000L0000012018042699991231U0001000000000039908020250408113400RIVO      False 0 0 0     0  0$$$$$$$$$$ $$$$ FalseFalseTrue False  N20230801FalseFalseFalse
002130M0701825001PROSC.COTTO NATURISSIMO AQ FIORUCCI10000250000030000160000010000120180313100  1  N$KG000010000000010000S00000002000009010KGU00010001000000100086701IPR.COTTO NATURISSIMO$00090I00086701070182501      PROSC.COTTO NATURISSIMO AQ FIORUCCI00086701070182501      IC00000010099999999900002EL000867010120180405999912310000000116000L0000012018040599991231U0001000000000019908020250408113400RIVO      False 0 0 0     0  0$$$$$$$$$$ $$$$ FalseFalseTrue False  N20201028FalseFalseFalse
002130M0704804001MORTAD.FAVOLA IN COTENNA C/PISTACCH10000250000030000340000010000120190226100  1  N$KG000010000000010000S00000002000004510KGU00010001300000100086701EMORTAD.FAVOLA IN COT$00045E00086701070480401      MORTAD.FAVOLA IN COTENNA C/PISTACCH00086701070480401      IC00000010099999999900001EL000867010120191212999912310000000088000L0000012019121299991231U0001000000000017908020250408113400RIVO      False 0 0 0     0  0  ALL$$$$$$$$$$ FalseFalseTrue False  N20240210FalseFalseFalse
002130M0708650001MORTAD.FAVOLA IN COTENNA C/PISTACC.10000250000030000340000010000120200504100  1  N$KG000010000000010000S00000002000009010KGU00010001300000100086701IMORTAD.FAVOLA COTEN.$00090I00086701070865001      MORTAD.FAVOLA IN COTENNA C/PISTACC.00086701070865001      IC00000010099999999900001IL000867010120230301999912310000000098000L0000012022051999991231U0001000000000018908020250408113400RIVO      False 0 0 0     0  0  ALL$$$$$$$$$$ FalseFalseTrue False  N00000000FalseFalseFalse
002130M0722713001MORTADELLA FAVOLA IN COTENNA       10000250000030000340000010095020220719100  1  N$KG000010000000000000S00000002000009002KGU00010001300000200086701IMORTADELLA FAVOLA   $00000I00086701072271301      MORTADELLA FAVOLA IN COTENNA       00086701072271301      IC00000010099999999900001IL000867010120220901999912310000000094000L0000012022090199991231U0001000000000018908020250408113400RIVO      False 0 0 0     0  0$ALL  $$$$$     True FalseTrue False  N00000000FalseFalseFalse
002130M0723280001ARINGHE ARGENT.AFF.HS EX.LARG.KG.3 10000250000070000160000040000120220909100  1  N$KG000010000000010000S00000002000018010KGS00030000500000100086701EARINGHE ARGENT.AFF.H$00000E00086701072328001      ARINGHE ARGENT.AFF.HS EX.LARG.KG.3 00086701072328001      IC00000010099999999900001EL000867010120220929999912310000000250000L0000012022092999991231S0003000000000014908020250408113400RIVO      False 0 0 0     0  0  ALL$$$$$$$$$$ FalseFalseTrue False  N20241109FalseFalseFalse
002130M0725223098CAPOC.BUDELLO PICCOLO VALT. TRANCI 10000250000030000130000040000120250408100  1  N$KG000010000000010000S000000020000030  KGU00010000000000000086701ICAPOC.BUDELLO PICCOL$00030I00086701               CAPOC.BUDELLO PICCOLO VALT. TRANCI 00086701               IC00000010009999990000001IL000867010120250408999912310000000132000L0000012025040899991231U0001000000000019909920250408113400RIVO      False 0 0 0     0  1  ALL$$$$$$$$$$ FalseFalseFalseFalse  N00000000FalseFalseFalse
002130M0725853001BOCCONCINI BOVINO ADULTO CONVEN.X6 10000290000010000010000490000120230221100  1  N$KG000010000000010000N00000005009999910KGU00010000000000100086701IBOCCONCINI BOVINO AD$99999I00086701072585301      BOCCONCINI BOVINO ADULTO CONVEN.X6 00086701072585301      IC00000000000000000000001IL000867010120250408999912310000000072000L0000012025040899991231U0001000000000009909120250408113400RIVO      False 0 0 00    0  0$  ALL$$$$$$$$$$FalseFalseTrue False  N20230427FalseFalseFalse
002130M5662394001LONZINO STAG.ALTOPIANO COLFIORITO  10000250000030000130000100000120240701100  1  N$KG000010000000010000S00000002009999910KGU00010000500000102332301ILONZINO STAG.ALTOPIA$99999I02332301130031                                            00086701566239401      IF00000010099999999900001IL023323010120240725999912310000000166000L0000012024072599991231U0001000000000027909920250408113400RIVO      False 0 0 0     0  0ALL$$ $$$$ $$$$ FalseFalseTrue False  N00000000FalseFalseFalse
