002105M0909360018052787086465       E20250416234457CGA        000000
002105M0909360018053178170053       E20250416234457CGA        000000
002105M0909361018052787085420       E20250416234457CGA        000000
002105M0909361018052787081804       E20250416234457CGA        000000
002105M0665906018033448725268       E20250416234457CGA        000000
002105M0665906018033448725251       E20250416234457CGA        000000
002105M0665906018033448725244       E20250416234457CGA        000000
002105M0665906018033448725237       E20250416234457CGA        000000
002105M0909397018059019094984       E20250416234457CGA        000000
002105M0653155018710103794455       E20250416234457CGA        000000
