002105M0733358012849508             G20250417145745TROIANI    000000
002105M0725937018437011109156       E20250417145746TROIANI    000000
002105M0098476012465336             G20250417145746TROIANI    000000
002105M0709073012854279             G20250417145746TROIANI    000000
002105M0091086016324                U20250417145746TROIANI    000000
002105M0734726012752795             G20250417145746TROIANI    000000
002105M0699306012183390             G20250417145746TROIANI    000000
002105M0699306012189830             G20250417145746TROIANI    000000
002105M0735881018017806001096       E20250417145746TROIANI    000000
002105M0680324016448                U20250417145746TROIANI    000000
002105M0683649012195260             G20250417145746TROIANI    000000
002105M0729095018007281614843       E20250417145746TROIANI    000000
