002105M0909007018015244524504       E20250418082111SPINA      000000
002105M0909008018015244526584       E20250418082111SPINA      000000
002105M0909009018015244527406       E20250418082111SPINA      000000
