002105M0688910012648950             G20250418154706TROIANI    000000
002105M0681064018008110260538       E20250418154706TROIANI    000000
002105M0672548018008110260033       E20250418154706TROIANI    000000
002105M0734971018008110042929       E20250418154706TROIANI    000000
002105M0734972018008110042943       E20250418154706TROIANI    000000
002105M0096933012228950             G20250418154706TROIANI    000000
002105M0096933012509913             G20250418154706TROIANI    000000
002105M0735207018008110043070       E20250418154706TROIANI    000000
002105M0690900018008110004330       E20250418154706TROIANI    000000
002105M0694612018008110001148       E20250418154706TROIANI    000000
002105M0712856018008110028077       E20250418154706TROIANI    000000
002105M0717749018008110259259       E20250418154706TROIANI    000000
002105M0697780018008110000141       E20250418154706TROIANI    000000
002105M0701050018008110008871       E20250418154706TROIANI    000000
002105M0674229018008110258948       E20250418154706TROIANI    000000
002105M0725405018008110035709       E20250418154706TROIANI    000000
