002105M0668046018014966409724       E20250418081533SPINA      000000
002105M0902013018014966421368       E20250418081533SPINA      000000
002105M0014722028001011010349       E20250418081533SPINA      000000
002105M0014722028001011021123       E20250418081533SPINA      000000
