002105M0687795016190                U20250417160521TROIANI    000000
002105M0687795016778                U20250417160521TROIANI   A000000
002105M0699401012190920             G20250417160521TROIANI    000000
