002105M0909360018052787086465       E20250418081343SPINA      000000
002105M0909360018053178170053       E20250418081343SPINA      000000
002105M0909361018052787085420       E20250418081343SPINA      000000
002105M0909361018052787081804       E20250418081343SPINA      000000
002105M0665906018033448725268       E20250418081343SPINA      000000
002105M0665906018033448725251       E20250418081343SPINA      000000
002105M0665906018033448725244       E20250418081343SPINA      000000
002105M0665906018033448725237       E20250418081343SPINA      000000
002105M0669563028056777821074       E20250418081343SPINA      000000
002105M0669563038056777763282       E20250418081343SPINA      000000
002105M0669563048056777821036       E20250418081343SPINA      000000
002105M0669563018056777763190       E20250418081343SPINA      000000
002105M0908356018056777821098       E20250418081343SPINA      000000
002105M0908356028056777615079       E20250418081343SPINA      000000
002105M0909363018056269634823       E20250418081343SPINA      000000
002105M0909364018056269634816       E20250418081343SPINA      000000
002105M0909398018033779077562       E20250418081343SPINA      000000
002105M0909397018059019094984       E20250418081343SPINA      000000
002105M0653155018710103794455       E20250418081343SPINA      000000
