002105MT90079809 SE GIOC.ESTIVO 23/4-4/5    T900798        066804601L0000000101202504232025050400000000215202504232025050400000000399$T00000000000000000000000000000000000 0000000000000000000 000000000000000000000000000000000000000000020250418081533SPINA     EUR000
002105MT90079809 SE GIOC.ESTIVO 23/4-4/5    T900798        090201301L0000000101202504232025050400000000600202504232025050400000000890$T00000000000000000000000000000000000 0000000000000000000 000000000000000000000000000000000000000000020250418081533SPINA     EUR000
002105MT90079809 SE GIOC.ESTIVO 23/4-4/5    T900798        001472202L0000000101202504232025050400000000270202504232025050400000000399$T00000000000000000000000000000000000 0000000000000000000 000000000000000000000000000000000000000000020250418081533SPINA     EUR000
