002105MT90077009 SE ARREDO GIARDINO 23/4-4/5T900770        066317901L0000000101202504232025050400000001210202504232025050400000001850$T00000000000000000000000000000000000 0000000000000000000 000000000000000000000000000000000000000000020250418081446SPINA     EUR000
002105MT90077009 SE ARREDO GIARDINO 23/4-4/5T900770        090820001L0000000101202504232025050400000002150202504232025050400000002990$T00000000000000000000000000000000000 0000000000000000000 000000000000000000000000000000000000000000020250418081446SPINA     EUR000
002105MT90077009 SE ARREDO GIARDINO 23/4-4/5T900770        090820101L0000000101202504232025050400000002150202504232025050400000002990$T00000000000000000000000000000000000 0000000000000000000 000000000000000000000000000000000000000000020250418081446SPINA     EUR000
002105MT90077009 SE ARREDO GIARDINO 23/4-4/5T900770        066318001L0000000101202504232025050400000001500202504232025050400000002290$T00000000000000000000000000000000000 0000000000000000000 000000000000000000000000000000000000000000020250418081446SPINA     EUR000
002105MT90077009 SE ARREDO GIARDINO 23/4-4/5T900770        064221001L0000000101202504232025050400000007900202504232025050400000010900$T00000000000000000000000000000000000 0000000000000000000 000000000000000000000000000000000000000000020250418081446SPINA     EUR000
002105MT90077009 SE ARREDO GIARDINO 23/4-4/5T900770        066714501L0000000101202504232025050400000009000202504232025050400000012900$T00000000000000000000000000000000000 0000000000000000000 000000000000000000000000000000000000000000020250418081446SPINA     EUR000
002105MT90077009 SE ARREDO GIARDINO 23/4-4/5T900770        062078502L0000000101202504232025050400000004100202504232025050400000005990$T00000000000000000000000000000000000 0000000000000000000 000000000000000000000000000000000000000000020250418081446SPINA     EUR000
002105MT90077009 SE ARREDO GIARDINO 23/4-4/5T900770        065623201L0000000101202504232025050400000004100202504232025050400000005990$T00000000000000000000000000000000000 0000000000000000000 000000000000000000000000000000000000000000020250418081446SPINA     EUR000
