002105MT90090309 SE FRES.CONV.23/4-4/5      T900903        090900701L0000000101202504232025050400000010500202504232025050400000014900$T00000000000000000000000000000000000 0000000000000000000 000000000000000000000000000000000000000000020250418082111SPINA     EUR000
002105MT90090309 SE FRES.CONV.23/4-4/5      T900903        090900801L0000000101202504232025050400000009700202504232025050400000013900$T00000000000000000000000000000000000 0000000000000000000 000000000000000000000000000000000000000000020250418082111SPINA     EUR000
002105MT90090309 SE FRES.CONV.23/4-4/5      T900903        090900901L0000000101202504232025050400000009700202504232025050400000013900$T00000000000000000000000000000000000 0000000000000000000 000000000000000000000000000000000000000000020250418082111SPINA     EUR000
