002105M069949101BISC.OREO VANIGLIA VASCHETTA       1010507010101120170606100  1  NNKG000003960000003960N00000001000036001PZU00010000000000100000000IOREO VANIGLIA VASCH.$00000I00000000069949101      BISC.OREO VANIGLIA VASCHETTA       00000000069949101      IC00000010099999999900006IL0000000101202307209999999900000000205E0000012023072099999999U0001000000000002998020250418082857CALZUOLA  EUR000000P00078S      $$$$$      000000
002105M070979101PASSATA BASILICO MUTTI BOTTIGLIA   1011910040020320140102040  1  NNKG000007000000007000N00000001000108001PZU00010000000000100000000IPASS.BASILICO MUTTI $00000I00000000070979101      PASSATA BASILICO MUTTI BOTTIGLIA   00000000070979101      IC00000010099999990000012IL0000000101202402229999999900000000135E0000012024022299999999U0001000000000001798020250418082857CALZUOLA  EUR000000P00072N      $$$$$      000000
002105M073094901TRANCI TONNO SAP.MARE GR80 X2+1 OM 1012107010019020231120100  1  NNKG000002400000002400N00000001000144001PZU00010000000000100000000ITRANCI TONNO SAP.MAR$00000I00000000073094901      TRANCI TONNO SAP.MARE GR80 X2+1 OM 00000000073094901      IC00000010099999999900016IL0000000101202312079999999900000000300E0000012023120799999999U0001000000000004498020250418082857CALZUOLA  EUR000000P00112S      $$$$$      000000
002105M069516501ACQUA S.ANNA LA BABY NATUR.CL.25 X61030101100005120160108220  1  NNLT000015000000015000N00000001000072001PZU00010000000000100000000IACQUA S.ANNA LA BABY$00000I00000000069516501      ACQUA S.ANNA LA BABY NATUR.CL.25 X600000000069516501      IC00000010099999999900004IL0000000101202410109999999900000000162E0000012024101099999999U0001000000000002468020250418082857CALZUOLA  EUR000000P00081S      $$$$$      000000
002105M073274901THE'DET.LIMONE P/P S/BE.CL25X3+1 OM1030313010000420240410220  1  NNLT000010000000010000N00000001000036001PZU00010000000000100000000ITHE'DET.LIMONE P/P S$00000I00000000073274901      THE'DET.LIMONE P/P S/BE.CL25X3+1 OM00000000073274901      IC00000010099999999900006IL0000000101202406069999999900000000155E0000012024060699999999U0001000000000002408020250418082857CALZUOLA  EUR000000P00088S      $$$$$      000000
002105M073274902THE'DET.PESCA P/P S/BE.CL25X3+1 OM 1030313010000420240410220  1  NNLT000010000000010000N00000001000036001PZU00010000000000100000000ITHE'DET.PESCA P/P S $00000I00000000073274902      THE'DET.PESCA P/P S/BE.CL25X3+1 OM 00000000073274902      IC00000000000000000000006IL0000000101202406069999999900000000155E0000012024060699999999U0001000000000002408020250418082857CALZUOLA  EUR000000 00000S      $$$$$      000000
002105M072326901ACE CANDEGGINA REGOLARE            1050501010003220220908220  1  NNLT000010000000010000N00000001009999901PZU00010000000000100000000IACE CANDEGGINA REGOL$00000I00000000072326901      ACE CANDEGGINA REGOLARE            00000000072326901      IC00000010099999999900018IL0000000101202209299999999900000000103E0000012022092999999999U0001000000000001498020250418082857CALZUOLA  EUR000000P00036S      $$$$$      000000
002105M072614101ACE GENTILE                        1050501070013020230316220  1  NNLT000009500000009500N00000001009999901PZU00010000000000100000000IACE GENTILE         $00000I00000000072614101      ACE GENTILE                        00000000072614101      IC00000010099999999900008IL0000000101202303309999999900000000158E0000012023033099999999U0001000000000002198020250418082857CALZUOLA  EUR000000P00060S      $$$$$      000000
002105M072614102ACE GENTILE LAVANDA/M.BIANCO       1050501070013020230316220  1  NNLT000009500000009500N00000001009999901PZU00010000000000100000000IACE GENTILE         $00000I00000000072614102      ACE GENTILE LAVANDA/M.BIANCO       00000000072614102      IC00000010099999999900008IL0000000101202303309999999900000000158E0000012023033099999999U0001000000000002198020250418082857CALZUOLA  EUR000000P00060S      $$$$$      000000
002105M070831604SALV.IGIEN.BIOD.NAPISAN LIMONE X40 1050510100010020200318220  1  NN$$000000000000010000N00000001009999901PZU00010000000000100000000ISALV.IGIEN.NAPISAN  $00000I00000000070831604      SALV.IGIEN.BIOD.NAPISAN LIMONE X40 00000000070831604      IC00000010099999999900008IL0000000101202004029999999900000000185E0000012020040299999999U0001000000000002908020250418082857CALZUOLA  EUR000000P00104S      $$$$$      000000
002105M073496101SALV.IGI.BIOD.NAPISAN GIARD.X40+10 1050510100010020241016220  1  NN$$000000000000010000N00000001009999901PZU00010000000000100000000ISALV.IGI.BIOD.NAPISA$00000I00000000073496101      SALV.IGI.BIOD.NAPISAN GIARD.X40+10 00000000073496101      IC00000010099999999900008IL0000000101202411079999999900000000185E0000012024110799999999U0001000000000002908020250418082857CALZUOLA  EUR000000P00104S      $$$$$      000000
002105M073496102SALV.IGI.BIOD.NAPISAN FLORE.X40+10 1050510100010020241016220  1  NN$$000000000000010000N00000001009999901PZU00010000000000100000000ISALV.IGI.BIOD.NAPISA$00000I00000000073496102      SALV.IGI.BIOD.NAPISAN FLORE.X40+10 00000000073496102      IC00000010099999999900008IL0000000101202411079999999900000000185E0000012024110799999999U0001000000000002908020250418082857CALZUOLA  EUR000000P00104S      $$$$$      000000
002105M067603301DOCCIASCHIUMA FELCE AZZURRA        1090310040004020090213220  1  NNLT000004000000004000N00000001009999901PZU00010000000000100000000IDOCCIASCHIUMA FELCE $00000I00000000067603301      DOCCIASCHIUMA FELCE AZZURRA        00000000067603301      IC00000010099999999900012IL0000000101202308319999999900000000152E0000012023083199999999U0001000000000002298020250418082857CALZUOLA  EUR000000P00064S      $$$$$      000000
002105M068350701DOCCIASHAM.F/AZZ.FRES.INT.         1090310040004020111115220  1  NNLT000004000000004000N00000001009999901PZU00010000000000100000000IDOCCIASHAM.F/AZZURRA$00000I00000000068350701      DOCCIASHAM.F/AZZ.FRES.INT.         00000000068350701      IC00000010099999999900012IL0000000101202412129999999900000000175E0000012024121299999999U0001000000000002598020250418082857CALZUOLA  EUR000000P00064N      $$$$$      000000
002105M068350702DOCCIASHAM.F/AZZ.MENTA/LIME        1090310040004020241119220  1  NNLT000004000000004000N00000001009999901PZU00010000000000100000000IDOCCIASHAM.F/AZZURRA$00000I00000000068350702      DOCCIASHAM.F/AZZ.MENTA/LIME        00000000068350702      IC00000010099999999900012IL0000000101202412129999999900000000175E0000012024121299999999U0001000000000002598020250418082857CALZUOLA  EUR000000P00064S      $$$$$      000000
002105M072074701LYCIA DEO VAPO ORIGINAL            1090319010001720220221220  1  NNLT000000750000000750N00000001009999901PZU00010000000000100000000ILYCIA DEO VAPO      $00000I00000000072074701      LYCIA DEO VAPO ORIGINAL            00000000072074701      IC00000010099999999900012IL0000000101202203179999999900000000260E0000012022031799999999U0001000000000003998020250418082857CALZUOLA  EUR000000P00210S      $$$$$      000000
002105M072074702LYCIA DEO VAPO FRESH ENERGY        1090319010001720220221220  1  NNLT000000750000000750N00000001009999901PZU00010000000000100000000ILYCIA DEO VAPO      $00000I00000000072074702      LYCIA DEO VAPO FRESH ENERGY        00000000072074702      IC00000010099999999900012IL0000000101202203179999999900000000260E0000012022031799999999U0001000000000003998020250418082857CALZUOLA  EUR000000P00210S      $$$$$      000000
002105M072074703LYCIA DEO VAPO INVISIBLE           1090319010001720220221220  1  NNLT000000750000007500N00000001009999901PZU00010000000000100000000ILYCIA DEO VAPO      $00000I00000000072074703      LYCIA DEO VAPO INVISIBLE           00000000072074703      IC00000010099999999900012IL0000000101202203179999999900000000260E0000012022031799999999U0001000000000003998020250418082857CALZUOLA  EUR000000P00210S      $$$$$      000000
002105M072074704LYCIA DEO VAPO NATURE CETR/TE'VERDE1090319010001720220221220  1  NNLT000000750000000750N00000001009999901PZU00010000000000100000000ILYCIA DEO VAPO      $00000I00000000072074704      LYCIA DEO VAPO NATURE CETR/TE'VERDE00000000072074704      IC00000010099999999900012IL0000000101202203179999999900000000260E0000012022031799999999U0001000000000003998020250418082857CALZUOLA  EUR000000P00210S      $$$$$      000000
002105M072074705LYCIA DEO VAPO PURE TALC           1090319010001720220221220  1  NNLT000000750000000750N00000001009999901PZU00010000000000100000000ILYCIA DEO VAPO      $00000I00000000072074705      LYCIA DEO VAPO PURE TALC           00000000072074705      IC00000010099999999900012IL0000000101202203179999999900000000260E0000012022031799999999U0001000000000003998020250418082857CALZUOLA  EUR000000P00210S      $$$$$      000000
002105M070184101INFASIL DEODOR.VAPO EXTRA DELICATO 1090319010008420180314220  1  NNLT000000700000000700N00000001009999901PZU00010000000000100000000IINFASIL DEO VAPO EXT$00000I00000000070184101      INFASIL DEODOR.VAPO EXTRA DELICATO 00000000070184101      IC00000010099999999900012IL0000000101201803299999999900000000255E0000012018032999999999U0001000000000003998020250418082857CALZUOLA  EUR000000P00228S      $$$$$      000000
002105M070184701INFASIL DEOSPRAY UOMO S/CAMICE     1090319040008920180314220  1  NNLT000001500000001500N00000001009999901PZU00010000000000100000000IINFASIL SPRAY UOMO  $00000I00000000070184701      INFASIL DEOSPRAY UOMO S/CAMICE     00000000070184701      IC00000010099999999900006IL0000000101201803299999999900000000230E0000012018032999999999U0001000000000003498020250418082857CALZUOLA  EUR000000P00330S      $$$$$      000000
002105M070184702INFASIL DEOSPRAY UOMO FRESH        1090319040008920180314220  1  NNLT000001500000001500N00000001009999901PZU00010000000000100000000IINFAS.DEO SPRAY UOMO$00000I00000000070184702      INFASIL DEOSPRAY UOMO FRESH        00000000070184702      IC00000010099999999900006IL0000000101201803299999999900000000230E0000012018032999999999U0001000000000003498020250418082857CALZUOLA  EUR000000P00330S      $$$$$      000000
002105M070184703INFASIL DEOSPRAY TRIPLA PROT.ML150 1090319040008920180314220  1  NNLT000001500000001500N00000001009999901PZU00010000000000100000000IINFASIL DEOD.SPRAY  $00000I00000000070184703      INFASIL DEOSPRAY TRIPLA PROT.ML150 00000000070184703      IC00000010099999999900006IL0000000101201803299999999900000000230E0000012018032999999999U0001000000000003498020250418082857CALZUOLA  EUR000000P00330S      $$$$$      000000
002105M070184704INFASIL DEO SPRAY FRES.NATURALE 2 C1090319040008920180314220  1  NNLT000001500000001500N00000001009999901PZU00010000000000100000000IINFASIL DEOSPRAY NAT$00000I00000000070184704      INFASIL DEO SPRAY FRES.NATURALE 2 C00000000070184704      IC00000010099999999900006IL0000000101201803299999999900000000230E0000012018032999999999U0001000000000003498020250418082857CALZUOLA  EUR000000P00330S      $$$$$      000000
002105M070184705INFASIL DEOSPRAY EXTRA DELIC ML150 1090319040008920180314220  1  NNLT000001500000001500N00000001009999901PZU00010000000000100000000IINFASIL DEOD.SPRAY  $00000I00000000070184705      INFASIL DEOSPRAY EXTRA DELIC ML150 00000000070184705      IC00000010099999999900006IL0000000101201803299999999900000000230E0000012018032999999999U0001000000000003498020250418082857CALZUOLA  EUR000000P00330S      $$$$$      000000
002105M070184706INFASIL DEOSPRAY BOUQUET ML.150    1090319040008920180314220  1  NNLT000001500000001500N00000001009999901PZU00010000000000100000000IINFASIL DEOD.SPRAY  $00000I00000000070184706      INFASIL DEOSPRAY BOUQUET ML.150    00000000070184706      IC00000010099999999900006IL0000000101201803299999999900000000230E0000012018032999999999U0001000000000003498020250418082857CALZUOLA  EUR000000P00330S      $$$$$      000000
002105M070184707INFASIL DEOSPRAY FRESC/DINAM.ML150 1090319040008920180314220  1  NNLT000001500000001500N00000001009999901PZU00010000000000100000000IINFAS.DEO SPRAY FR.D$00000I00000000070184707      INFASIL DEOSPRAY FRESC/DINAM.ML150 00000000070184707      IC00000010099999999900006IL0000000101201803299999999900000000230E0000012018032999999999U0001000000000003498020250418082857CALZUOLA  EUR000000P00330S      $$$$$      000000
002105M070184708INFASIL DEO SPRAY FRESCHEZZA ATTIVA1090319040008920180314220  1  NNLT000001500000001500N00000001009999901PZU00010000000000100000000IINFASIL DEOD.SPRAY  $00000I00000000070184708      INFASIL DEO SPRAY FRESCHEZZA ATTIVA00000000070184708      IC00000010099999999900006IL0000000101201803299999999900000000230E0000012018032999999999U0001000000000003498020250418082857CALZUOLA  EUR000000P00330S      $$$$$      000000
002105M070184709INFASIL DEOSPRAY SENS/NAT.OLIO     1090319040008920210319220  1  NNLT000001500000001500N00000001009999901PZU00010000000000100000000IINFASIL DEOSPR. SENS$00000I00000000070184709      INFASIL DEOSPRAY SENS/NAT.OLIO     00000000070184709      IC00000010099999999900006IL0000000101202104089999999900000000230E0000012021040899999999U0001000000000003498020250418082857CALZUOLA  EUR000000P00330S      $$$$$      000000
002105M070184401INFASIL DEO STICK TRIPLA PROTEZIONE1090319070007920180314220  1  NNLT000000400000000400N00000001009999901PZU00010000000000100000000IINFASIL DEOD.STICK  $00000I00000000070184401      INFASIL DEO STICK TRIPLA PROTEZIONE00000000070184401      IC00000010099999999900012IL0000000101201803299999999900000000200E0000012018032999999999U0001000000000002988020250418082857CALZUOLA  EUR000000P00312S      $$$$$      000000
002105M070184501INFASIL DEOD.STICK EXTRA DELICATO  1090319070007920180314220  1  NNLT000000500000000500N00000001009999901PZU00010000000000100000000IINFASIL DEOD.STICK  $00000I00000000070184501      INFASIL DEOD.STICK EXTRA DELICATO  00000000070184501      IC00000010099999999900012IL0000000101201803299999999900000000200E0000012018032999999999U0001000000000002988020250418082857CALZUOLA  EUR000000P00312S      $$$$$      000000
002105M070184601INFASIL DEOROLLON EXT.DELICATO     1090319070007920180314220  1  NNLT000000500000000500N00000001009999901PZU00010000000000100000000IINFASIL DEOROLLON   $00000I00000000070184601      INFASIL DEOROLLON EXT.DELICATO     00000000070184601      IC00000010099999999900012IL0000000101201803299999999900000000200E0000012018032999999999U0001000000000002988020250418082857CALZUOLA  EUR000000P00270S      $$$$$      000000
