002105R054256401CALZA CTA U. FS NRO          39/41 1830306060010020150416220  1  NS$$000000000000010000N00000008009999916PZU00010000000001601850202ICALZA CTA U. FS NRO $99999I01850202CND002/01/88                                      00000000054256401      IF00000010099999999900003IL0185020201202504072025050400000000145Q0000012024112199999999U0001000000000003499920250418081933SPINA     EUR000000 00000S      $$$$$      000000
002105R054256402CALZA CTA U. FS NRO          42/44 1830306060010020150416220  1  NS$$000000000000010000N00000008009999916PZU00010000000001601850202ICALZA CTA U. FS NRO $99999I01850202CND002/01/116                                     00000000054256402      IF00000010099999999900003IL0185020201202504072025050400000000145Q0000012024112199999999U0001000000000003499920250418081933SPINA     EUR000000 00000S      $$$$$      000000
002105R054256403CALZA CTA U. FS NRO          45/47 1830306060010020150416220  1  NS$$000000000000010000N00000008009999916PZU00010000000001601850202ICALZA CTA U. FS NRO $99999I01850202CND002/01/83                                      00000000054256403      IF00000010099999999900003IL0185020201202504072025050400000000145Q0000012024112199999999U0001000000000003499920250418081933SPINA     EUR000000 00000S      $$$$$      000000
002105R054256411CALZA CTA U. FS BLU          39/41 1830306060010020150416220  1  NS$$000000000000010000N00000008009999916PZU00010000000001601850202ICALZA CTA U. FS BLU $99999I01850202CND002/02/88                                      00000000054256411      IF00000010099999999900003IL0185020201202504072025050400000000145Q0000012024112199999999U0001000000000003499920250418081933SPINA     EUR000000 00000N      $$$$$      000000
002105R054256412CALZA CTA U. FS BLU          42/44 1830306060010020150416220  1  NS$$000000000000010000N00000008009999916PZU00010000000001601850202ICALZA CTA U. FS BLU $99999I01850202CND002/02/116                                     00000000054256412      IF00000010099999999900003IL0185020201202504072025050400000000145Q0000012024112199999999U0001000000000003499920250418081933SPINA     EUR000000 00000N      $$$$$      000000
002105R054256413CALZA CTA U. FS BLU          45/47 1830306060010020150416220  1  NS$$000000000000010000N00000008009999916PZU00010000000001601850202ICALZA CTA U. FS BLU $99999I01850202CND002/02/83                                      00000000054256413      IF00000010099999999900003IL0185020201202504072025050400000000145Q0000012024112199999999U0001000000000003499920250418081933SPINA     EUR000000 00000N      $$$$$      000000
002105R054256421CALZA CTA U. FS GRI          39/41 1830306060010020150416220  1  NS$$000000000000010000N00000008009999916PZU00010000000001601850202ICALZA CTA U. FS GRI $99999I01850202CND002/03/88                                      00000000054256421      IF00000010099999999900003IL0185020201202504072025050400000000145Q0000012024112199999999U0001000000000003499920250418081933SPINA     EUR000000 00000N      $$$$$      000000
002105R054256422CALZA CTA U. FS GRI          42/44 1830306060010020150416220  1  NS$$000000000000010000N00000008009999916PZU00010000000001601850202ICALZA CTA U. FS GRI $99999I01850202CND002/03/116                                     00000000054256422      IF00000010099999999900003IL0185020201202504072025050400000000145Q0000012024112199999999U0001000000000003499920250418081933SPINA     EUR000000 00000N      $$$$$      000000
002105R054256423CALZA CTA U. FS GRI          45/47 1830306060010020150416220  1  NS$$000000000000010000N00000008009999916PZU00010000000001601850202ICALZA CTA U. FS GRI $99999I01850202CND002/03/83                                      00000000054256423      IF00000010099999999900003IL0185020201202504072025050400000000145Q0000012024112199999999U0001000000000003499920250418081933SPINA     EUR000000 00000N      $$$$$      000000
002105R054258201CALZA CTA U.CONF. NRO        39/41 1830306060020020150416220  1  NS$$000000000000010000N00000008009999916PZU00010000000001601850202ICALZA CTA U.CONF. NR$99999I01850202CND004/01/89                                      00000000054258201      IF00000010099999999900003IL0185020201202504072025050400000000167Q0000012024112199999999U0001000000000003999920250418081933SPINA     EUR000000 00000S      $$$$$      000000
002105R054258202CALZA CTA U.CONF. NRO        43/46 1830306060020020150416220  1  NS$$000000000000010000N00000008009999916PZU00010000000001601850202ICALZA CTA U.CONF. NR$99999I01850202CND004/01/106                                     00000000054258202      IF00000010099999999900003IL0185020201202504072025050400000000167Q0000012024112199999999U0001000000000003999920250418081933SPINA     EUR000000 00000S      $$$$$      000000
002105R054258211CALZA CTA U.CONF. BLU        39/41 1830306060020020150416220  1  NS$$000000000000010000N00000008009999916PZU00010000000001601850202ICALZA CTA U.CONF. BL$99999I01850202CND004/02/89                                      00000000054258211      IF00000010099999999900003IL0185020201202504072025050400000000167Q0000012024112199999999U0001000000000003999920250418081933SPINA     EUR000000 00000N      $$$$$      000000
002105R054258212CALZA CTA U.CONF. BLU        43/46 1830306060020020150416220  1  NS$$000000000000010000N00000008009999916PZU00010000000001601850202ICALZA CTA U.CONF. BL$99999I01850202CND004/02/106                                     00000000054258212      IF00000010099999999900003IL0185020201202504072025050400000000167Q0000012024112199999999U0001000000000003999920250418081933SPINA     EUR000000 00000N      $$$$$      000000
002105R054258221CALZA CTA U.CONF. BCO        39/41 1830306060020020150416220  1  NS$$000000000000010000N00000008009999916PZU00010000000001601850202ICALZA CTA U.CONF.BCO$99999I01850202CND004/03/89                                      00000000054258221      IF00000010099999999900003IL0185020201202504072025050400000000167Q0000012024112199999999U0001000000000003999920250418081933SPINA     EUR000000 00000N      $$$$$      000000
002105R054258222CALZA CTA U.CONF. BCO        43/46 1830306060020020150416220  1  NS$$000000000000010000N00000008009999916PZU00010000000001601850202ICALZA CTA U.CONF.BCO$99999I01850202CND004/03/106                                     00000000054258222      IF00000010099999999900003IL0185020201202504072025050400000000167Q0000012024112199999999U0001000000000003999920250418081933SPINA     EUR000000 00000N      $$$$$      000000
002105R054390301CALZA CTA U.CALDO COT.NERO   39/41 1830306060025020150817220  1  NS$$000000000000010000N00000008009999916PZU00010000000001601850202ICALZA CTA U.CALDO COV99999I01850202CND005/01/89                                      00000000054390301      IF00000010099999999900003IL0185020201202504072025050400000000145Q0000012024112199999999U0001000000000003459920250418081933SPINA     EUR000000 00000S      $$$$$      000000
002105R054390302CALZA CTA U.CALDO COT.NERO   43/46 1830306060025020150817220  1  NS$$000000000000010000N00000008009999916PZU00010000000001601850202ICALZA CTA U.CALDO COV99999I01850202CND005/01/106                                     00000000054390302      IF00000010099999999900003IL0185020201202504072025050400000000145Q0000012024112199999999U0001000000000003459920250418081933SPINA     EUR000000 00000S      $$$$$      000000
002105R054390311CALZA CTA U.CALDO COT.BLU    39/41 1830306060025020150818220  1  NS$$000000000000010000N00000008009999916PZU00010000000001601850202ICALZA CTA U.CALDO COV99999I01850202CND005/02/89                                      00000000054390311      IF00000010099999999900003IL0185020201202504072025050400000000145Q0000012024112199999999U0001000000000003459920250418081933SPINA     EUR000000 00000N      $$$$$      000000
002105R054390312CALZA CTA U.CALDO COT.BLU    43/46 1830306060025020150818220  1  NS$$000000000000010000N00000008009999916PZU00010000000001601850202ICALZA CTA U.CALDO COV99999I01850202CND005/02/106                                     00000000054390312      IF00000010099999999900003IL0185020201202504072025050400000000145Q0000012024112199999999U0001000000000003459920250418081933SPINA     EUR000000 00000N      $$$$$      000000
002105R054390321CALZA CTA U.CALDO COT.GRIGIO 39/41 1830306060025020150818220  1  NS$$000000000000010000N00000008009999916PZU00010000000001601850202ICALZA CTA U.CALDO COV99999I01850202CND005/03/89                                      00000000054390321      IF00000010099999999900003IL0185020201202504072025050400000000145Q0000012024112199999999U0001000000000003459920250418081933SPINA     EUR000000 00000N      $$$$$      000000
002105R054390322CALZA CTA U.CALDO COT.GRIGIO 43/46 1830306060025020150818220  1  NS$$000000000000010000N00000008009999916PZU00010000000001601850202ICALZA CTA U.CALDO COV99999I01850202CND005/03/106                                     00000000054390322      IF00000010099999999900003IL0185020201202504072025050400000000145Q0000012024112199999999U0001000000000003459920250418081933SPINA     EUR000000 00000N      $$$$$      000000
002105R054256301CALZA LGA U. FS NRO          39/41 1830306070010020150416220  1  NS$$000000000000010000N00000008009999916PZU00010000000001601850202ICALZA LGA U. FS NRO $99999I01850202CND001/01/88                                      00000000054256301      IF00000010099999999900003IL0185020201202504072025050400000000185Q0000012024112199999999U0001000000000003999920250418081933SPINA     EUR000000 00000S      $$$$$      000000
002105R054256302CALZA LGA U. FS NRO          42/44 1830306070010020150416220  1  NS$$000000000000010000N00000008009999916PZU00010000000001601850202ICALZA LGA U. FS NRO $99999I01850202CND001/01/116                                     00000000054256302      IF00000010099999999900003IL0185020201202504072025050400000000185Q0000012024112199999999U0001000000000003999920250418081933SPINA     EUR000000 00000S      $$$$$      000000
002105R054256303CALZA LGA U. FS NRO          45/47 1830306070010020150416220  1  NS$$000000000000010000N00000008009999916PZU00010000000001601850202ICALZA LGA U. FS NRO $99999I01850202CND001/01/83                                      00000000054256303      IF00000010099999999900003IL0185020201202504072025050400000000185Q0000012024112199999999U0001000000000003999920250418081933SPINA     EUR000000 00000S      $$$$$      000000
002105R054256311CALZA LGA U. FS BLU          39/41 1830306070010020150416220  1  NS$$000000000000010000N00000008009999916PZU00010000000001601850202ICALZA LGA U. FS BLU $99999I01850202CND001/02/88                                      00000000054256311      IF00000010099999999900003IL0185020201202504072025050400000000185Q0000012024112199999999U0001000000000003999920250418081933SPINA     EUR000000 00000S      $$$$$      000000
002105R054256312CALZA LGA U. FS BLU          42/44 1830306070010020150416220  1  NS$$000000000000010000N00000008009999916PZU00010000000001601850202ICALZA LGA U. FS BLU $99999I01850202CND001/02/116                                     00000000054256312      IF00000010099999999900003IL0185020201202504072025050400000000185Q0000012024112199999999U0001000000000003999920250418081933SPINA     EUR000000 00000S      $$$$$      000000
002105R054256313CALZA LGA U. FS BLU          45/47 1830306070010020150416220  1  NS$$000000000000010000N00000008009999916PZU00010000000001601850202ICALZA LGA U. FS BLU $99999I01850202CND001/02/83                                      00000000054256313      IF00000010099999999900003IL0185020201202504072025050400000000185Q0000012024112199999999U0001000000000003999920250418081933SPINA     EUR000000 00000S      $$$$$      000000
002105R054256321CALZA LGA U. FS GRI          39/41 1830306070010020150416220  1  NS$$000000000000010000N00000008009999916PZU00010000000001601850202ICALZA LGA U. FS GRI $99999I01850202CND001/03/88                                      00000000054256321      IF00000010099999999900003IL0185020201202504072025050400000000185Q0000012024112199999999U0001000000000003999920250418081933SPINA     EUR000000 00000S      $$$$$      000000
002105R054256322CALZA LGA U. FS GRI          42/44 1830306070010020150416220  1  NS$$000000000000010000N00000008009999916PZU00010000000001601850202ICALZA LGA U. FS GRI $99999I01850202CND001/03/116                                     00000000054256322      IF00000010099999999900003IL0185020201202504072025050400000000185Q0000012024112199999999U0001000000000003999920250418081933SPINA     EUR000000 00000S      $$$$$      000000
002105R054256323CALZA LGA U. FS GRI          45/47 1830306070010020150416220  1  NS$$000000000000010000N00000008009999916PZU00010000000001601850202ICALZA LGA U. FS GRI $99999I01850202CND001/03/83                                      00000000054256323      IF00000010099999999900003IL0185020201202504072025050400000000185Q0000012024112199999999U0001000000000003999920250418081933SPINA     EUR000000 00000S      $$$$$      000000
002105R054257101CALZA LGA U.COSTA NRO        39/41 1830306070020020150416220  1  NS$$000000000000010000N00000008009999916PZU00010000000001601850202ICALZA LGA U.COSTA NR$99999I01850202CND003/01/88                                      00000000054257101      IF00000010099999999900003IL0185020201202504072025050400000000185Q0000012024112199999999U0001000000000003999920250418081933SPINA     EUR000000 00000S      $$$$$      000000
002105R054257102CALZA LGA U.COSTA NRO        42/44 1830306070020020150416220  1  NS$$000000000000010000N00000008009999916PZU00010000000001601850202ICALZA LGA U.COSTA NR$99999I01850202CND003/01/116                                     00000000054257102      IF00000010099999999900003IL0185020201202504072025050400000000185Q0000012024112199999999U0001000000000003999920250418081933SPINA     EUR000000 00000N      $$$$$      000000
002105R054257103CALZA LGA U.COSTA NRO        45/47 1830306070020020150416220  1  NS$$000000000000010000N00000008009999916PZU00010000000001601850202ICALZA LGA U.COSTA NR$99999I01850202CND003/01/83                                      00000000054257103      IF00000010099999999900003IL0185020201202504072025050400000000185Q0000012024112199999999U0001000000000003999920250418081933SPINA     EUR000000 00000S      $$$$$      000000
002105R054257111CALZA LGA U.COSTA BLU        39/41 1830306070020020150416220  1  NS$$000000000000010000N00000008009999916PZU00010000000001601850202ICALZA LGA U.COSTA BL$99999I01850202CND003/02/88                                      00000000054257111      IF00000010099999999900003IL0185020201202504072025050400000000185Q0000012024112199999999U0001000000000003999920250418081933SPINA     EUR000000 00000S      $$$$$      000000
002105R054257112CALZA LGA U.COSTA BLU        42/44 1830306070020020150416220  1  NS$$000000000000010000N00000008009999916PZU00010000000001601850202ICALZA LGA U.COSTA BL$99999I01850202CND003/02/116                                     00000000054257112      IF00000010099999999900003IL0185020201202504072025050400000000185Q0000012024112199999999U0001000000000003999920250418081933SPINA     EUR000000 00000S      $$$$$      000000
002105R054257113CALZA LGA U.COSTA BLU        45/47 1830306070020020150416220  1  NS$$000000000000010000N00000008009999916PZU00010000000001601850202ICALZA LGA U.COSTA BL$99999I01850202CND003/02/83                                      00000000054257113      IF00000010099999999900003IL0185020201202504072025050400000000185Q0000012024112199999999U0001000000000003999920250418081933SPINA     EUR000000 00000S      $$$$$      000000
002105R054257121CALZA LGA U.COSTA GRI        39/41 1830306070020020150416220  1  NS$$000000000000010000N00000008009999916PZU00010000000001601850202ICALZA LGA U.COSTA GR$99999I01850202CND003/03/88                                      00000000054257121      IF00000010099999999900003IL0185020201202504072025050400000000185Q0000012024112199999999U0001000000000003999920250418081933SPINA     EUR000000 00000S      $$$$$      000000
002105R054257122CALZA LGA U.COSTA GRI        42/44 1830306070020020150416220  1  NS$$000000000000010000N00000008009999916PZU00010000000001601850202ICALZA LGA U.COSTA GR$99999I01850202CND003/03/116                                     00000000054257122      IF00000010099999999900003IL0185020201202504072025050400000000185Q0000012024112199999999U0001000000000003999920250418081933SPINA     EUR000000 00000S      $$$$$      000000
002105R054257123CALZA LGA U.COSTA GRI        45/47 1830306070020020150416220  1  NS$$000000000000010000N00000008009999916PZU00010000000001601850202ICALZA LGA U.COSTA GR$99999I01850202CND003/03/83                                      00000000054257123      IF00000010099999999900003IL0185020201202504072025050400000000185Q0000012024112199999999U0001000000000003999920250418081933SPINA     EUR000000 00000N      $$$$$      000000
002105R054390201CALZA LGA U.CALDO COT.NERO    39/411830306070025020150817220  1  NS$$000000000000010000N00000008009999916PZU00010000000001601850202ICALZA LGA U.CALDO COV99999I01850202CND006/01/89                                      00000000054390201      IF00000010099999999900003IL0185020201202504072025050400000000170Q0000012024112199999999U0001000000000003999920250418081933SPINA     EUR000000 00000S      $$$$$      000000
002105R054390202CALZA LGA U.CALDO COT.NERO    43/461830306070025020150817220  1  NS$$000000000000010000N00000008009999916PZU00010000000001601850202ICALZA LGA U.CALDO COV99999I01850202CND006/01/106                                     00000000054390202      IF00000010099999999900003IL0185020201202504072025050400000000170Q0000012024112199999999U0001000000000003999920250418081933SPINA     EUR000000 00000S      $$$$$      000000
002105R054390211CALZA LGA U.CALDO COT.BLU     39/411830306070025020150817220  1  NS$$000000000000010000N00000008009999916PZU00010000000001601850202ICALZA LGA U.CALDO COV99999I01850202CND006/02/89                                      00000000054390211      IF00000010099999999900003IL0185020201202504072025050400000000170Q0000012024112199999999U0001000000000003999920250418081933SPINA     EUR000000 00000S      $$$$$      000000
002105R054390212CALZA LGA U.CALDO COT.BLU     43/461830306070025020150817220  1  NS$$000000000000010000N00000008009999916PZU00010000000001601850202ICALZA LGA U.CALDO COV99999I01850202CND006/02/106                                     00000000054390212      IF00000010099999999900003IL0185020201202504072025050400000000170Q0000012024112199999999U0001000000000003999920250418081933SPINA     EUR000000 00000S      $$$$$      000000
002105R054390221CALZA LGA U.CALDO COT.GRIGIO  39/411830306070025020150817220  1  NS$$000000000000010000N00000008009999916PZU00010000000001601850202ICALZA LGA U.CALDO COV99999I01850202CND006/03/89                                      00000000054390221      IF00000010099999999900003IL0185020201202504072025050400000000170Q0000012024112199999999U0001000000000003999920250418081933SPINA     EUR000000 00000S      $$$$$      000000
002105R054390222CALZA LGA U.CALDO COT.GRIGIO  43/461830306070025020150817220  1  NS$$000000000000010000N00000008009999916PZU00010000000001601850202ICALZA LGA U.CALDO COV99999I01850202CND006/03/106                                     00000000054390222      IF00000010099999999900003IL0185020201202504072025050400000000170Q0000012024112199999999U0001000000000003999920250418081933SPINA     EUR000000 00000S      $$$$$      000000
002105R054259001CALZE SPORT U.X2 BCO         39/42 1830306080010020150416220  1  NS$$000000000000010000N00000008009999916PZU00010000000001601850202ICALZE SPORT U.X2 BCO$99999I01850202CND008/04/89                                      00000000054259001      IF00000010099999999900003IL0185020201202504072025050400000000196Q0000012024112199999999U0001000000000004999920250418081933SPINA     EUR000000 00000S      $$$$$      000000
002105R054259002CALZE SPORT U.X2 BCO         43/46 1830306080010020150416220  1  NS$$000000000000010000N00000008009999916PZU00010000000001601850202ICALZE SPORT U.X2 BCO$99999I01850202CND008/04/106                                     00000000054259002      IF00000010099999999900003IL0185020201202504072025050400000000196Q0000012024112199999999U0001000000000004999920250418081933SPINA     EUR000000 00000S      $$$$$      000000
002105R054259011CALZE SPORT U.X2 NRO         39/42 1830306080010020150416220  1  NS$$000000000000010000N00000008009999916PZU00010000000001601850202ICALZE SPORT U.X2 NRO$99999I01850202CND008/01/89                                      00000000054259011      IF00000010099999999900003IL0185020201202504072025050400000000196Q0000012024112199999999U0001000000000004999920250418081933SPINA     EUR000000 00000N      $$$$$      000000
002105R054259012CALZE SPORT U.X2 NRO         43/46 1830306080010020150416220  1  NS$$000000000000010000N00000008009999916PZU00010000000001601850202ICALZE SPORT U.X2 NRO$99999I01850202CND008/01/106                                     00000000054259012      IF00000010099999999900003IL0185020201202504072025050400000000196Q0000012024112199999999U0001000000000004999920250418081933SPINA     EUR000000 00000N      $$$$$      000000
002105R054259021CALZE SPORT U.X2 BLU         39/42 1830306080010020150416220  1  NS$$000000000000010000N00000008009999916PZU00010000000001601850202ICALZE SPORT U.X2 BLU$99999I01850202CND008/02/89                                      00000000054259021      IF00000010099999999900003IL0185020201202504072025050400000000196Q0000012024112199999999U0001000000000004999920250418081933SPINA     EUR000000 00000N      $$$$$      000000
002105R054259022CALZE SPORT U.X2 BLU         43/46 1830306080010020150416220  1  NS$$000000000000010000N00000008009999916PZU00010000000001601850202ICALZE SPORT U.X2 BLU$99999I01850202CND008/02/106                                     00000000054259022      IF00000010099999999900003IL0185020201202504072025050400000000196Q0000012024112199999999U0001000000000004999920250418081933SPINA     EUR000000 00000N      $$$$$      000000
002105R054260001FANTASMINO U.X2 BCO          39/42 1830306080020020150416220  1  NS$$000000000000010000N00000008009999916PZU00010000000001601850202IFANTASMINO U.X2 BCO $99999I01850202CND010/04/89                                      00000000054260001      IF00000010099999999900003IL0185020201202504072025050400000000205Q0000012024112199999999U0001000000000004999920250418081933SPINA     EUR000000 00000S      $$$$$      000000
002105R054260002FANTASMINO U.X2 BCO          43/46 1830306080020020150416220  1  NS$$000000000000010000N00000008009999916PZU00010000000001601850202IFANTASMINO U.X2 BCO $99999I01850202CND010/04/106                                     00000000054260002      IF00000010099999999900003IL0185020201202504072025050400000000205Q0000012024112199999999U0001000000000004999920250418081933SPINA     EUR000000 00000S      $$$$$      000000
002105R054260011FANTASMINO U.X2 NRO          39/42 1830306080020020150416220  1  NS$$000000000000010000N00000008009999916PZU00010000000001601850202IFANTASMINO U.X2 NRO $99999I01850202CND010/01/89                                      00000000054260011      IF00000010099999999900003IL0185020201202504072025050400000000205Q0000012024112199999999U0001000000000004999920250418081933SPINA     EUR000000 00000N      $$$$$      000000
002105R054260012FANTASMINO U.X2 NRO          43/46 1830306080020020150416220  1  NS$$000000000000010000N00000008009999916PZU00010000000001601850202IFANTASMINO U.X2 NRO $99999I01850202CND010/01/106                                     00000000054260012      IF00000010099999999900003IL0185020201202504072025050400000000205Q0000012024112199999999U0001000000000004999920250418081933SPINA     EUR000000 00000N      $$$$$      000000
002105R054260021FANTASMINO U.X2 BLU          39/42 1830306080020020150416220  1  NS$$000000000000010000N00000008009999916PZU00010000000001601850202IFANTASMINO U.X2 BLU $99999I01850202CND010/02/89                                      00000000054260021      IF00000010099999999900003IL0185020201202504072025050400000000205Q0000012024112199999999U0001000000000004999920250418081933SPINA     EUR000000 00000N      $$$$$      000000
002105R054260022FANTASMINO U.X2 BLU          43/46 1830306080020020150416220  1  NS$$000000000000010000N00000008009999916PZU00010000000001601850202IFANTASMINO U.X2 BLU $99999I01850202CND010/02/106                                     00000000054260022      IF00000010099999999900003IL0185020201202504072025050400000000205Q0000012024112199999999U0001000000000004999920250418081933SPINA     EUR000000 00000N      $$$$$      000000
002105R054260031FANTASMINO U.X2 GRI.         39/42 1830306080020020150416220  1  NS$$000000000000010000N00000008009999916PZU00010000000001601850202IFANTASMINO U.X2 GRI.$99999I01850202CND010/03/89                                      00000000054260031      IF00000010099999999900003IL0185020201202504072025050400000000205Q0000012024112199999999U0001000000000004999920250418081933SPINA     EUR000000 00000N      $$$$$      000000
002105R054260032FANTASMINO U.X2 GRI.         43/46 1830306080020020150416220  1  NS$$000000000000010000N00000008009999916PZU00010000000001601850202IFANTASMINO U.X2 GRI.$99999I01850202CND010/03/106                                     00000000054260032      IF00000010099999999900003IL0185020201202504072025050400000000205Q0000012024112199999999U0001000000000004999920250418081933SPINA     EUR000000 00000N      $$$$$      000000
002105R054260901SAVAPIEDE U.X2 BCO           39/42 1830306080030020150416220  1  NS$$000000000000010000N00000008009999916PZU00010000000001601850202ISAVAPIEDE U.X2 BCO  $99999I01850202CND012/02/89                                      00000000054260901      IF00000010099999999900003IL0185020201202504072025050400000000275Q0000012024112199999999U0001000000000005999920250418081933SPINA     EUR000000 00000S      $$$$$      000000
002105R054260902SAVAPIEDE U.X2 BCO           43/46 1830306080030020150416220  1  NS$$000000000000010000N00000008009999916PZU00010000000001601850202ISAVAPIEDE U.X2 BCO  $99999I01850202CND012/02/106                                     00000000054260902      IF00000010099999999900003IL0185020201202504072025050400000000275Q0000012024112199999999U0001000000000005999920250418081933SPINA     EUR000000 00000S      $$$$$      000000
002105R054260911SAVAPIEDE U.X2 NRO           39/42 1830306080030020150416220  1  NS$$000000000000010000N00000008009999916PZU00010000000001601850202ISAVAPIEDE U.X2 NRO  $99999I01850202CND012/01/89                                      00000000054260911      IF00000010099999999900003IL0185020201202504072025050400000000275Q0000012024112199999999U0001000000000005999920250418081933SPINA     EUR000000 00000S      $$$$$      000000
002105R054260912SAVAPIEDE U.X2 NRO           43/46 1830306080030020150416220  1  NS$$000000000000010000N00000008009999916PZU00010000000001601850202ISAVAPIEDE U.X2 NRO  $99999I01850202CND012/01/106                                     00000000054260912      IF00000010099999999900003IL0185020201202504072025050400000000275Q0000012024112199999999U0001000000000005999920250418081933SPINA     EUR000000 00000S      $$$$$      000000
