002105M008506201POSTERIORE BOVINO ADU S/PANCIA CPQ 1290101010021020021218100  1  NS$$000000000000000000S00000005009999931KGU00010000000000300000000IPOSTERIORE BOVINO AD$00000I00000000008506201      POSTERIORE BOVINO ADU S/PANCIA CPQ 00000000008506201      IC00000010099999999900001IL0000000101202504139999999900000000932E0004002025041399999999U0001000000000017909120250412210050EL5       EUR000000 00000NPALL  $$$$$      000000N
002105M009779701POSTERIORE BOV.ADULTO S/PANCIA     1290101010021020050701100  1  NN$$000000000000000000S00000005009999931KGU00010000000000300000000IPOSTERIORE VIT.NE NA$00000I00000000009779701      POSTERIORE BOV.ADULTO S/PANCIA     00000000009779701      IC00000010099999999900001IL0000000101202504139999999900000000922E0004002025041399999999U0001000000000017909120250412210050EL5       EUR000000 00000N$ALL  $$$$$      000000N
002105M008508401PERO BOVINO ADULTO CPQ             1290101010021520021218100  1  NS$$000000000000000000S00000005009999931KGU00010000000000300000000IPERO BOVINO ADULTO C$00000I00000000008508401      PERO BOVINO ADULTO CPQ             00000000008508401      IC00000010099999999900001IL0000000101202504139999999900000000858E0004002025041399999999U0001000000000016909120250412210050EL5       EUR000000 00000NPALL  $$$$$      000000N
002105M009940801PERO BOVINO ADULTO C/O             1290101010021520060529100  1  NN$$000000000000000000S00000005009999931KGU00010000000000300000000IPERO VITELLONE C/O  $00000S00000000009940801      PERO BOVINO ADULTO C/O             00000000009940801      IC00000010099999999900001SL0000000101202504139999999900000000848E0004002025041399999999U0001000000000016909120250412210050EL5       EUR000000 00000N$ALL  $$$$$      000000N
002105M008508701LOMBATA C/O BOVINO ADULTO C/FIL.CPQ1290101010024020021218100  1  NS$$000000000000000000S00000005009999931KGU00010000000000300000000ILOMBATA C/O BOVINO A$00000I00000000008508701      LOMBATA C/O BOVINO ADULTO C/FIL.CPQ00000000008508701      IC00000010099999999900001IL0000000101202504139999999900000001178E0004002025041399999999U0001000000000022909120250412210050EL5       EUR000000 00000NPALL  $$$$$      000000N
002105M009779801LOMBATA C/O BOVINO ADULTO C/FIL    1290101010024020050701100  1  NN$$000000000000000000S00000005009999931KGU00010000000000300000000ILOMBATA C/O BOVINO A$00000S00000000009779801      LOMBATA C/O BOVINO ADULTO C/FIL    00000000009779801      IC00000010099999999900001SL0000000101202504139999999900000001165E0004002025041399999999U0001000000000022909120250412210050EL5       EUR000000 00000N$ALL  $$$$$      000000N
002105M008512101PANCIA BOVINO ADULTO CPQ           1290101010025520021218100  1  NS$$000000000000000000S00000005009999931KGU00010000000000300000000IPANCIA BOVINO ADULTO$00000I00000000008512101      PANCIA BOVINO ADULTO CPQ           00000000008512101      IC00000010099999999900001IL0000000101202504139999999900000000666E0004002025041399999999U0001000000000013909120250412210050EL5       EUR000000 00000NPALL  $$$$$      000000N
002105M009780101PANCIA DI BOVINO ADULTO            1290101010025620050701100  1  NN$$000000000000000000S00000005009999931KGU00010000000000300000000IPANCIA DI VITELLONE $00000S00000000009780101      PANCIA DI BOVINO ADULTO            00000000009780101      IC00000010099999999900001SL0000000101202504139999999900000000658E0004002025041399999999U0001000000000013909120250412210050EL5       EUR000000 00000N$ALL  $$$$$      000000N
002105M009397401POSTERIORE BOVINO ADULTO IT/IT/IT  1290101010026120040323100  1  NN$$000000000000000000S00000005009999931KGU00010000000000300000000IPOSTERIORE BOVINO AD$00000I00000000009397401      POSTERIORE BOVINO ADULTO IT/IT/IT  00000000009397401      IC00000010099999999900001IL0000000101202504139999999900000000951E0004002025041399999999U0001000000000017909120250412210050EL5       EUR000000 00000N$ALL  $$$$$      000000N
002105M008906501POSTERIORE BOV.AD.(VACCA) S/P IT/IT1290101010027320030707100  1  NN$$000000000000000000S00000005009999931KGU00010000000000300000000SPOSTERIORE BOV.AD.(V$00000S00000000008906501      POSTERIORE BOV.AD.(VACCA) S/P IT/IT00000000008906501      IC00000010099999999900001SL0000000101202504139999999900000000848E0004002025041399999999U0001000000000016909120250412210050EL5       EUR000000 00000N$ALL  $$$$$      000000N
002105M071809101MEZZENA BOVINO ADULTO ALL.UMBRI ABN1290101040050020210729100  1  NN$$000000000000000000S00000005009999931KGU00010000000000300000000IMEZZENA BOVINO ADULT$00000S00000000071809101      MEZZENA BOVINO ADULTO ALL.UMBRI ABN00000000071809101      IC00000000000000000000001SL0000000101202504139999999900000000825E0004002025041399999999U0001000000000015909120250412210050EL5       EUR000000 00000N$ALL  $$$$$      000000N
002105M072079101POSTERIORE S/P BOV.AD.ALL.UMBRI ABN1290101040051020220223100  1  NN$$000000000000000000S00000005009999931KGU00010000000000300000000SPOSTERIORE S/P BOV.A$00000S00000000072079101      POSTERIORE S/P BOV.AD.ALL.UMBRI ABN00000000072079101      IC00000000000000000000001SL0000000101202504139999999900000000950E0004002025041399999999U0001000000000018909120250412210050EL5       EUR000000 00000N$ALL  $$$$$      000000N
002105M008506501POSTER. BOVINO ADULTO TEDESCO      1290101080011520021218100  1  NN$$000000000000000000S00000005009999931KGU00010000000000300000000IPOSTER. BOVINO ADULT$00000S00000000008506501      POSTER. BOVINO ADULTO TEDESCO      00000000008506501      IC00000010099999999900001SL0000000101202504139999999900000000855E0004002025041399999999U0001000000000015909120250412210050EL5       EUR000000 00000N$ALL  $$$$$      000000N
002105M008508501PERO BOV.AD. TEDESCO               1290101080012020021218100  1  NN$$000000000000000000S00000005009999931KGU00010000000000300000000SPERO BOV.AD. TEDESCO$00000S00000000008508501      PERO BOV.AD. TEDESCO               00000000008508501      IC00000010099999999900001SL0000000101202504139999999900000000792E0004002025041399999999U0001000000000015909120250412210050EL5       EUR000000 00000N$ALL  $$$$$      000000N
002105M008508901ROAST-BEEF BOVINO AD.TEDESCO C/FIL.1290101080013520021218100  1  NN$$000000000000000000S00000005009999931KGU00010000000000300000000IROAST-BEEF BOVINO AD$00000S00000000008508901      ROAST-BEEF BOVINO AD.TEDESCO C/FIL.00000000008508901      IC00000010099999999900001SL0000000101202504139999999900000001198E0004002025041399999999U0001000000000022909120250412210050EL5       EUR000000 00000N$ALL  $$$$$      000000N
002105M068231601POSTERIORE S/PANCIA VACCA DK       1290101080030020110614100  1  NN$$000000000000000000S00000005009999931KGU00010000000000300000000IPOSTERIORE S/PANCIA $00000S00000000068231601      POSTERIORE S/PANCIA VACCA DK       00000000068231601      IC00000010099999999900001SL0000000101202504139999999900000000838E0004002025041399999999U0001000000000015909120250412210050EL5       EUR000000 00000N$ALL  $$$$$      000000N
002105M068691601POSTERIORE BOVINO ADULTO S/V       1290101150010620130215100  1  NN$$000000000000000000S00000005000002031KGU00010000000000300000000IPOSTERIORE BOVINO AD$00000I00000000068691601      POSTERIORE BOVINO ADULTO S/V       00000000068691601      IC00000000000000000000001IL0000000101202504139999999900000001160E0004002025041399999999U0001000000000023909120250412210050EL5       EUR000000P00008N$ALL  $$$$$      000000N
002105M008517001PERO BOVINO ADULTO S/V CPQ         1290101150011020021218100  1  NS$$000000000000000000S00000005000002031KGU00010000000000300000000SPERO BOVINO ADULTO S$00000S00000000008517001      PERO BOVINO ADULTO S/V CPQ         00000000008517001      IC00000010099999999900001SL0000000101202504139999999900000001044E0004002025041399999999U0001000000000019909120250412210050EL5       EUR000000 00000NPALL  $$$$$      000000N
002105M009780401PERA BOVINO ADULTO S/V             1290101150011020050701100  1  NN$$000000000000000000S00000005000002031KGU00010000000000300000000IPERA BOVINO ADULTO S$00000I00000000009780401      PERA BOVINO ADULTO S/V             00000000009780401      IC00000010099999999900001IL0000000101202504139999999900000001044E0004002025041399999999U0001000000000019909120250412210050EL5       EUR000000P00012N$ALL  $$$$$      000000N
002105M068985001PERA BOVINO ADULTO S/O S/V IT/IT   1290101150011020140227100  1  NN$$000000000000000000S00000005000002031KGU00010000000000300000000IPERA BOVINO ADULTO S$00000I00000000068985001      PERA BOVINO ADULTO S/O S/V IT/IT   00000000068985001      IC00000000000000000000001IL0000000101202504139999999900000001059E0004002025041399999999U0001000000000019909120250412210050EL5       EUR000000P00012N$ALL  $$$$$      000000N
002105M009616501PERO BOV.AD.B/N S/V                1290101150011120040809100  1  NN$$000000000000000000S00000005000002031KGU00010000000000300000000IPERO BOV.AD.B/N S/V $00000F00000000009616501      PERO BOV.AD.B/N S/V                00000000009616501      IC00000010099999999900001FL0000000101202504139999999900000001018E0004002025041399999999U0001000000000018909120250412210050EL5       EUR000000 00000N$ALL  $$$$$      000000N
002105M009679301LOMBATA BOV.AD.C/O C/FIL S/V CPQ   1290101150011220050111100  1  NS$$000000000000000000S00000005000002031KGU00010000000000300000000SLOMBATA BOV.AD.C/O C$00000S00000000009679301      LOMBATA BOV.AD.C/O C/FIL S/V CPQ   00000000009679301      IC00000010099999999900001SL0000000101202504139999999900000001370E0004002025041399999999U0001000000000026909120250412210050EL5       EUR000000 00000NPALL  $$$$$      000000N
002105M067333001LOMBATA BOV.AD. B/N C/O C/FIL S/V  1290101150011220071114100  1  NN$$000000000000000000S00000005000002031KGU00010000000000300000000ILOMBATA BOV.AD. B/N $00000S00000000067333001      LOMBATA BOV.AD. B/N C/O C/FIL S/V  00000000067333001      IC00000010099999999900001SL0000000101202504139999999900000001325E0004002025041399999999U0001000000000025909120250412210050EL5       EUR000000 00000N$ALL  $$$$$      000000N
002105M068606301LOMBATA BOV.AD.C/O C/FIL S/V       1290101150011220121006100  1  NN$$000000000000000000S00000005000002031KGU00010000000000300000000ILOMBATA BOV.AD.C/O C$00000I00000000068606301      LOMBATA BOV.AD.C/O C/FIL S/V       00000000068606301      IC00000010099999999900001IL0000000101202504139999999900000001370E0004002025041399999999U0001000000000026909120250412210050EL5       EUR000000P00016N$ALL  $$$$$      000000N
002105M068985401LOMBATA BOVINO AD.C/O C/FIL S/V IT 1290101150011220140227100  1  NN$$000000000000000000S00000005000002031KGU00010000000000300000000ILOMBATA BOVINO AD.C/$00000I00000000068985401      LOMBATA BOVINO AD.C/O C/FIL S/V IT 00000000068985401      IC00000000000000000000001IL0000000101202504139999999900000001420E0004002025041399999999U0001000000000027909120250412210050EL5       EUR000000P00016N$ALL  $$$$$      000000N
002105M070175801LOMBATA B.A.VACCA C/O C/FIL S/V    1290101150011320180307100  1  NN$$000000000000000000S00000005000002031KGU00010000000000300000000SLOMBATA B.A.VACCA C/$00000S00000000070175801      LOMBATA B.A.VACCA C/O C/FIL S/V    00000000070175801      IC00000000000000000000001SL0000000101202504139999999900000001320E0004002025041399999999U0001000000000024909120250412210050EL5       EUR000000P00020N$ALL  $$$$$      000000N
002105M068831901ROAST BEEF BOV.ADU.C/O S/FIL S/V   1290101150011420130729100  1  NN$$000000000000000000S00000005000002031KGU00010000000000300000000IROAST BEEF BOV.ADU.C$00000I00000000068831901      ROAST BEEF BOV.ADU.C/O S/FIL S/V   00000000068831901      IC00000000000000000000001IL0000000101202504139999999900000001230E0004002025041399999999U0001000000000023909120250412210050EL5       EUR000000P00016N$ALL  $$$$$      000000N
002105M008519201PANCIA BOVINO ADULTO C/O S/V       1290101150012620021218100  1  NN$$000000000000000000S00000005000002031KGU00010000000000300000000IPANCIA BOVINO ADULTO$00000I00000000008519201      PANCIA BOVINO ADULTO C/O S/V       00000000008519201      IC00000010099999999900001IL0000000101202504139999999900000000655E0004002025041399999999U0001000000000014909120250412210050EL5       EUR000000P00016N$ALL  $$$$$      000000N
002105M068985301PANCIA BOVINO ADULTO S/O S/V       1290101150012620140227100  1  NN$$000000000000000000S00000005000002031KGU00010000000000300000000IPANCIA BOVINO ADULTO$00000I00000000068985301      PANCIA BOVINO ADULTO S/O S/V       00000000068985301      IC00000000000000000000001IL0000000101202504139999999900000000730E0004002025041399999999U0001000000000015909120250412210050EL5       EUR000000P00016N$ALL  $$$$$      000000N
002105M008519601FILETTI BOVINO ADULTO S/V          1290101150013520021218100  1  NN$$000000000000000000S00000005000002031KGU00010000000000300000000IFILETTI BOVINO ADULT$00000I00000000008519601      FILETTI BOVINO ADULTO S/V          00000000008519601      IC00000010099999999900001IL0000000101202504139999999900000002550E0004002025041399999999U0001000000000039909120250412210050EL5       EUR000000P00032N$ALL  $$$$$      000000N
002105M008519701SCAMONE(PEZZA) BOVINO ADULTO S/V   1290101150014020021218100  1  NN$$000000000000000000S00000005000002031KGU00010000000000300000000ISCAMONE(PEZZA) BOVIN$00000I00000000008519701      SCAMONE(PEZZA) BOVINO ADULTO S/V   00000000008519701      IC00000010099999999900001IL0000000101202504139999999900000001120E0004002025041399999999U0001000000000021909120250412210050EL5       EUR000000P00032N$ALL  $$$$$      000000N
002105M070207801SPINACINO(SFIANCO)BOV.AD.S/V X 6 PZ1290101150014420180410100  1  NN$$000000000000000000S00000005000002031KGU00010000000000300000000ISPINACINO(SFIANCO)BO$00000I00000000070207801      SPINACINO(SFIANCO)BOV.AD.S/V X 6 PZ00000000070207801      IC00000000000000000000001IL0000000101202504139999999900000000898E0004002025041399999999U0001000000000016909120250412210050EL5       EUR000000P00032N$ALL  $$$$$      000000N
002105M008519801NOCE (ROSA) BOVINO ADULTO S/V      1290101150014520021218100  1  NN$$000000000000000000S00000005000002031KGU00010000000000300000000INOCE (ROSA) BOVINO A$00000I00000000008519801      NOCE (ROSA) BOVINO ADULTO S/V      00000000008519801      IC00000010099999999900001IL0000000101202504139999999900000001070E0004002025041399999999U0001000000000019909120250412210050EL5       EUR000000P00032N$ALL  $$$$$      000000N
002105M069167401FESA BOVINO ADULTO S/V             1290101150014620141016100  1  NN$$000000000000000000S00000005000002031KGU00010000000000300000000IFESA BOVINO ADULTO S$00000I00000000069167401      FESA BOVINO ADULTO S/V             00000000069167401      IC00000000000000000000001IL0000000101202504139999999900000001060E0004002025041399999999U0001000000000019909120250412210050EL5       EUR000000 00000N$ALL  $$$$$      000000N
002105M067733801FESA BOVINO ADULTO S/V CPQ         1290101150014720090813100  1  NS$$000000000000000000S00000005009999931KGU00010000000000300000000SFESA BOVINO ADULTO S$00000S00000000067733801      FESA BOVINO ADULTO S/V CPQ         00000000067733801      IC00000010099999999900001SL0000000101202504139999999900000001060E0004002025041399999999U0001000000000018909120250412210050EL5       EUR000000 00000NPALL  $$$$$      000000N
002105M069167301SPALLA BOVINO ADULTO S/V           1290101150014720141016100  1  NN$$000000000000000000S00000005009999931KGU00010000000000300000000ISPALLA BOVINO ADULTO$00000S00000000069167301      SPALLA BOVINO ADULTO S/V           00000000069167301      IC00000000000000000000001SL0000000101202504139999999900000000920E0004002025041399999999U0001000000000016909120250412210050EL5       EUR000000 00000N$ALL  $$$$$      000000N
002105M008519901GIRELLO BOVINO ADULTO S/V          1290101150015020021218100  1  NN$$000000000000000000S00000005000002031KGU00010000000000300000000IGIRELLO BOVINO ADULT$00000I00000000008519901      GIRELLO BOVINO ADULTO S/V          00000000008519901      IC00000010099999999900001IL0000000101202504139999999900000001280E0004002025041399999999U0001000000000023909120250412210050EL5       EUR000000P00040N$ALL  $$$$$      000000N
002105M009976001SOTTOFESA BOVINO ADULTO S/V        1290101150015120060911100  1  NN$$000000000000000000S00000005000002031KGU00010000000000300000000ISOTTOFESA BOVINO ADU$00000I00000000009976001      SOTTOFESA BOVINO ADULTO S/V        00000000009976001      IC00000010099999999900001IL0000000101202504139999999900000000960E0004002025041399999999U0001000000000018909120250412210050EL5       EUR000000P00040N$ALL  $$$$$      000000N
002105M068628201SOTTOFESA BOVINO ADULTO S/V CPQ    1290101150015120121030100  1  NS$$000000000000000000S00000005000002031KGU00010000000000300000000SSOTTOFESA BOVINO ADU$00000S00000000068628201      SOTTOFESA BOVINO ADULTO S/V CPQ    00000000068628201      IC00000010099999999900001SL0000000101202504139999999900000000960E0004002025041399999999U0001000000000018909120250412210050EL5       EUR000000 00000NPALL  $$$$$      000000N
002105M008520101CAMPANELLO (PESCE) BOV.AD. S/V     1290101150015520021218100  1  NN$$000000000000000000S00000005000002031KGU00010000000000300000000ICAMPANELLO (PESCE) B$00000I00000000008520101      CAMPANELLO (PESCE) BOV.AD. S/V     00000000008520101      IC00000010099999999900001IL0000000101202504139999999900000000960E0004002025041399999999U0001000000000018909120250412210050EL5       EUR000000 00000N$ALL  $$$$$      000000N
002105M008520901LOMBATA BOV.AD.S/O S/FIL S/V       1290101150053020021218100  1  NN$$000000000000000000S00000005000002031KGU00010000000000300000000ILOMBATA BOV.AD.S/O S$00000I00000000008520901      LOMBATA BOV.AD.S/O S/FIL S/V       00000000008520901      IC00000010099999999900001IL0000000101202504139999999900000001380E0004002025041399999999U0001000000000026909120250412210050EL5       EUR000000P00032N$ALL  $$$$$      000000N
002105M009590401SOTTOSP/REALE SQ BOVINO ADULTO S/V 1290101150060520040706100  1  NN$$000000000000000000S00000005009999931KGU00010000000000300000000ISOTTOSP/REALE SQ BOV$00000S00000000009590401      SOTTOSP/REALE SQ BOVINO ADULTO S/V 00000000009590401      IC00000010099999999900001SL0000000101202504139999999900000001094E0004002025041399999999U0001000000000021909120250412210050EL5       EUR000000P00032N$ALL  $$$$$      000000N
002105M070005201MEZZENA BOV.AD.S/V ALL.UMBRI       1290101150070020170831100  1  NN$$000000000000000000S00000005000002031KGU00010000000000300000000SMEZZENA BOV.AD.S/V A$00000S00000000070005201      MEZZENA BOV.AD.S/V ALL.UMBRI       00000000070005201      IC00000000000000000000001SL0000000101202504139999999900000001010E0004002025041399999999U0001000000000018909120250412210050EL5       EUR000000P00004N$ALL  $$$$$      000000N
002105M068787001PERO BOV.AD.(VACCA DANESE) S/O S/V 1290101180016420130604100  1  NN$$000000000000000000S00000005009999931KGU00010000000000300000000IPERO BOV.AD.(VACCA) $00000I00000000068787001      PERO BOV.AD.(VACCA DANESE) S/O S/V 00000000068787001      IC00000000000000000000001IL0000000101202504139999999900000000845E0004002025041399999999U0001000000000015909120250412210050EL5       EUR000000 00000N$ALL  $$$$$      000000N
002105M008509301LOMBATA BOV.AD.(VACCA)DANESE C/O SV1290101180016520021218100  1  NN$$000000000000000000S00000005000002031KGU00010000000000300000000ILOMBATA BOV.AD.(VACC$00000I00000000008509301      LOMBATA BOV.AD.(VACCA)DANESE C/O SV00000000008509301      IC00000010099999999900001IL0000000101202504139999999900000001555E0004002025041399999999U0001000000000031909120250412210050EL5       EUR000000P00016N$ALL  $$$$$      000000N
002105M073488801LOMBATA B.A.SCOTTONA DK INCARTO    1290101180016520241010100  1  NN$$000000000000000000S00000005009999931KGU00010000000000300000000ILOMBATA B.A.SCOTTONA$00000I00000000073488801      LOMBATA B.A.SCOTTONA DK INCARTO    00000000073488801      IC00000000000000000000001IL0000000101202504139999999900000001555E0004002025041399999999U0001000000000028909120250412210050EL5       EUR000000P00016S$ALL  $$$$$      000000N
002105M073488901LOMBATA B.A.SCOTTONA EST INCARTO   1290101180016620241010100  1  NN$$000000000000000000S00000005009999931KGU00010000000000300000000ILOMBATA B.A.SCOTTONA$00000I00000000073488901      LOMBATA B.A.SCOTTONA EST INCARTO   00000000073488901      IC00000000000000000000001IL0000000101202504139999999900000001395E0004002025041399999999U0001000000000025909120250412210050EL5       EUR000000P00016S$ALL  $$$$$      000000N
002105M009015201NOCE(ROSA) BOV.AD.IRLANDESE S/V CPQ1290101180071020030906100  1  NS$$000000000000000000S00000005000002031KGU00010000000000300000000INOCE(ROSA) BOV.AD.IR$00000I00000000009015201      NOCE(ROSA) BOV.AD.IRLANDESE S/V CPQ00000000009015201      IC00000010099999999900001IL0000000101202504139999999900000001192E0004002025041399999999U0001000000000021909120250412210050EL5       EUR000000P00032NPALL  $$$$$      000000N
002105M009015601COSTATA BA.IRL.DA C/O SV CPQ(TRONC)1290101180073020030906100  1  NS$$000000000000000000S00000005000002031KGU00010000000000300000000ICOSTATA BA.IRL.DA C/$00000I00000000009015601      COSTATA BA.IRL.DA C/O SV CPQ(TRONC)00000000009015601      IC00000010099999999900001IL0000000101202504139999999900000001399E0004002025041399999999U0001000000000026909120250412210050EL5       EUR000000P00032NPALL  $$$$$      000000N
002105M068834701COSTATA BOVINO ADULTO C/O S/V X2 PZ1290101180073120130731100  1  NN$$000000000000000000S00000005000002031KGU00010000000000300000000ICOSTATA BOVINO ADULT$00000S00000000068834701      COSTATA BOVINO ADULTO C/O S/V X2 PZ00000000068834701      IC00000000000000000000001SL0000000101202504139999999900000001145E0004002025041399999999U0001000000000021909120250412210050EL5       EUR000000P00032N$ALL  $$$$$      000000N
002105M069167801PERO BOV.AD. S/O INCARTO           1290101220011020141016100  1  NN$$000000000000000000S00000005009999931KGU00010000000000300000000IPERO BOV.AD. S/O INC$00000I00000000069167801      PERO BOV.AD. S/O INCARTO           00000000069167801      IC00000000000000000000001IL0000000101202504139999999900000001044E0004002025041399999999U0001000000000019909120250412210050EL5       EUR000000P00012N$ALL  $$$$$      000000N
002105M069181301ROAST BEEF BOV.AD.C/O C/F INCARTO  1290101220011320141103100  1  NN$$000000000000000000S00000005009999931KGU00010000000000300000000SROAST BEEF BOV.AD.C/$00000S00000000069181301      ROAST BEEF BOV.AD.C/O C/F INCARTO  00000000069181301      IC00000000000000000000001SL0000000101202504139999999900000001370E0004002025041399999999U0001000000000026909120250412210050EL5       EUR000000 00000N$ALL  $$$$$      000000N
002105M069171901LOMBATA BOV.AD. ESTERA C/O INCARTO 1290101220041520141021100  1  NN$$000000000000000000S00000005009999931KGU00010000000000300000000SLOMBATA BOV.AD. ESTE$00000S00000000069171901      LOMBATA BOV.AD. ESTERA C/O INCARTO 00000000069171901      IC00000000000000000000001SL0000000101202504139999999900000001380E0004002025041399999999U0001000000000025909120250412210050EL5       EUR000000 00000N$ALL  $$$$$      000000N
002105M008507101POSTERIORE SCOTTONA CPQ            1290113010020520021218100  1  NS$$000000000000000000S00000005009999931KGU00010000000000300000000IPOSTERIORE SCOTTONA $00000I00000000008507101      POSTERIORE SCOTTONA CPQ            00000000008507101      IC00000010099999999900001IL0000000101202504139999999900000000991E0004002025041399999999U0001000000000018909120250412210050EL5       EUR000000 00000NPALL  $$$$$      000000N
002105M008509001ROAST-BEEF SCOTTONA C/F CPQ CRENBA 1290113010021020021218100  1  NS$$000000000000000000S00000005009999931KGU00010000000000300000000IROAST-BEEF SCOTTONA $00000I00000000008509001      ROAST-BEEF SCOTTONA C/F CPQ CRENBA 00000000008509001      IC00000010099999999900001IL0000000101202504139999999900000001530E0004002025041399999999U0001000000000029909120250412210050EL5       EUR000000 00000NPALL  $$$$$      000000N
002105M070741101LOMBATA SCOTTONA C/O C/FIL.        1290113010021020200115100  1  NN$$000000000000000000S00000005009999931KGU00010000000000300000000ILOMBATA SCOTTONA C/O$00000S00000000070741101      LOMBATA SCOTTONA C/O C/FIL.        00000000070741101      IC00000000000000000000001SL0000000101202504139999999900000001530E0004002025041399999999U0001000000000029909120250412210050EL5       EUR000000 00000N$ALL  $$$$$      000000N
002105M008512001ANTERIORE SCOTTONA T/P CPQ         1290113010022020021218100  1  NS$$000000000000000000S00000005009999931KGU00010000000000300000000IANTERIORE SCOTTONA T$00000I00000000008512001      ANTERIORE SCOTTONA T/P CPQ         00000000008512001      IC00000010099999999900001IL0000000101202504139999999900000000659E0004002025041399999999U0001000000000012909120250412210050EL5       EUR000000 00000NPALL  $$$$$      000000N
002105M069268201ANTERIORE SCOTTONA S/PANCIA        1290113010022520150319100  1  NN$$000000000000000000S00000005009999931KGU00010000000000300000000IANTERIORE SCOTTONA S$00000F00000000069268201      ANTERIORE SCOTTONA S/PANCIA        00000000069268201      IC00000000000000000000001FL0000000101202504139999999900000000652E0004002025041399999999U0001000000000012909120250412210050EL5       EUR000000 00000N$ALL  $$$$$      000000N
002105M008506801POSTERIORE SCOTTONA                1290113010030520021218100  1  NN$$000000000000000000S00000005009999931KGU00010000000000300000000IPOSTERIORE SCOTTONA $00000I00000000008506801      POSTERIORE SCOTTONA                00000000008506801      IC00000010099999999900001IL0000000101202504139999999900000000980E0004002025041399999999U0001000000000018909120250412210050EL5       EUR000000 00000N$ALL  $$$$$      000000N
002105M071809501MEZZENA SCOTTONA ALL.UMBRI ABN     1290113100015020210729100  1  NN$$000000000000000000S00000005009999931KGU00010000000000300000000IMEZZENA SCOTTONA ALL$00000S00000000071809501      MEZZENA SCOTTONA ALL.UMBRI ABN     00000000071809501      IC00000000000000000000001SL0000000101202504139999999900000000840E0004002025041399999999U0001000000000015909120250412210050EL5       EUR000000 00000N$ALL  $$$$$      000000N
002105M008516801POSTERIORE SCOTTONA S/V            1290113490010520021218100  1  NN$$000000000000000000S00000005000002031KGU00010000000000300000000IPOSTERIORE SCOTTONA $00000I00000000008516801      POSTERIORE SCOTTONA S/V            00000000008516801      IC00000010099999999900001IL0000000101202504139999999900000001250E0004002025041399999999U0001000000000024909120250412210050EL5       EUR000000P00008N$ALL  $$$$$      000000N
002105M008507701PERA SCOTTONA S/O S/V              1290113490012520021218100  1  NN$$000000000000000000S00000005000002031KGU00010000000000300000000IPERA SCOTTONA S/O S/$00000I00000000008507701      PERA SCOTTONA S/O S/V              00000000008507701      IC00000010099999999900001IL0000000101202504139999999900000001055E0004002025041399999999U0001000000000019909120250412210050EL5       EUR000000P00016N$ALL  $$$$$      000000N
002105M068369101PERO SCOTTONA S/O S/V CPQ          1290113490012520120104100  1  NS$$000000000000000000S00000005009999931KGU00010000000000300000000SPERO SCOTTONA S/O S/$00000S00000000068369101      PERO SCOTTONA S/O S/V CPQ          00000000068369101      IC00000010099999999900001SL0000000101202504139999999900000001055E0004002025041399999999U0001000000000019909120250412210050EL5       EUR000000 00000NPALL  $$$$$      000000N
002105M009707201LOMBATA SCOTTONA C/O C/FIL S/V     1290113490081220050223100  1  NN$$000000000000000000S00000005000002031KGU00010000000000300000000ILOMBATA SCOTTONA C/O$00000I00000000009707201      LOMBATA SCOTTONA C/O C/FIL S/V     00000000009707201      IC00000010099999999900001IL0000000101202504139999999900000001530E0004002025041399999999U0001000000000028909120250412210050EL5       EUR000000P00016N$ALL  $$$$$      000000N
002105M072503501LOMBATA SCOTTONA POLONIA C/O C/F SV1290113490081320230112100  1  NN$$000000000000000000S00000005009999931KGU00010000000000300000000ILOMBATA SCOTTONA POL$00000S00000000072503501      LOMBATA SCOTTONA POLONIA C/O C/F SV00000000072503501      IC00000000000000000000001SL0000000101202504139999999900000001395E0004002025041399999999U0001000000000025909120250412210050EL5       EUR000000P00016S$ALL  $$$$$      000000N
002105M008506901POSTERIORE SCOTTONA DANESE         1290116010011220021218100  1  NN$$000000000000000000S00000005009999931KGU00010000000000300000000SPOSTERIORE SCOTTONA $00000S00000000008506901      POSTERIORE SCOTTONA DANESE         00000000008506901      IC00000010099999999900001SL0000000101202504139999999900000000845E0004002025041399999999U0001000000000015909120250412210050EL5       EUR000000 00000N$ALL  $$$$$      000000N
002105M069901801POSTERIORE SCOTTONA S/P ESTERO     1290116010011220170419100  1  NN$$000000000000000000S00000005009999931KGU00010000000000300000000SPOSTERIORE SCOTTONA $00000S00000000069901801      POSTERIORE SCOTTONA S/P ESTERO     00000000069901801      IC00000000000000000000001SL0000000101202504139999999900000000850E0004002025041399999999U0001000000000015909120250412210050EL5       EUR000000 00000N$ALL  $$$$$      000000N
002105M072675901POSTERIORI B.A.SCOTTONA MASURIA(PL)1290116010011220230427100  1  NN$$000000000000000000S00000005009999931KGU00010000000000300000000IPOSTERIORI B.A.SCOTT$00000S00000000072675901      POSTERIORI B.A.SCOTTONA MASURIA(PL)00000000072675901      IC00000000000000000000001SL0000000101202504139999999900000000850E0004002025041399999999U0001000000000018909120250412210050EL5       EUR000000 00000S$ALL  $$$$$      000000N
002105M008511601ANTERIORE T/P SCOTTONA ESTERO      1290116010011320021218100  1  NN$$000000000000000000S00000005009999931KGU00010000000000300000000SANTERIORE T/P SCOTTO$00000S00000000008511601      ANTERIORE T/P SCOTTONA ESTERO      00000000008511601      IC00000010099999999900001SL0000000101202504139999999900000000640E0004002025041399999999U0001000000000012909120250412210050EL5       EUR000000 00000N$ALL  $$$$$      000000N
002105M008513601SELLA VITELLO S/PANCIA (POSTER.)CPQ1290119010012020021218100  1  NS$$000000000000000000S00000005009999931KGU00010000000000300000000ISELLA VITELLO S/PANC$00000I00000000008513601      SELLA VITELLO S/PANCIA (POSTER.)CPQ00000000008513601      IC00000010099999999900001IL0000000101202504139999999900000001074E0004002025041399999999U0001000000000019909120250412210050EL5       EUR000000 00000NPALL  $$$$$      000000N
002105M009133501CARRE' DI VITELLO C/OSSO S/V CPQ   1290119150010620031112100  1  NS$$000000000000000000S00000005000002031KGU00010000000000300000000SCARRE' DI VITELLO C/$00000S00000000009133501      CARRE' DI VITELLO C/OSSO S/V CPQ   00000000009133501      IC00000010099999999900001SL0000000101202504139999999900000001315E0004002025041399999999U0001000000000024909120250412210050EL5       EUR000000 00000NPALL  $$$$$      000000N
002105M068999701LOMBO DI VITELLO C/O S/V (CARRE')  1290119150010720140320100  1  NN$$000000000000000000S00000005000002031KGU00010000000000300000000ILOMBO DI VITELLO C/O$00000I00000000068999701      LOMBO DI VITELLO C/O S/V (CARRE')  00000000068999701      IC00000000000000000000001IL0000000101202504139999999900000001315E0004002025041399999999U0001000000000024909120250412210050EL5       EUR000000P00032N$ALL  $$$$$      000000N
002105M070375601CARRE' DI VITELLO C/O INCARTO      1290119150010720181023100  1  NN$$000000000000000000S00000005009999931KGU00010000000000300000000ICARRE' DI VITELLO C/$00000I00000000070375601      CARRE' DI VITELLO C/O INCARTO      00000000070375601      IC00000000000000000000001IL0000000101202504139999999900000001315E0004002025041399999999U0001000000000024909120250412210050EL5       EUR000000P00032N$ALL  $$$$$      000000N
002105M070844801CARRE' VITELLO C/FIL S/O S/V       1290119150010820200403100  1  NSKG000010000000000000S00000005009999931KGU00010000000000300000000ICARRE' VITELLO C/FIL$00000I00000000070844801      CARRE' VITELLO C/FIL S/O S/V       00000000070844801      IC00000000000000000000001IL0000000101202504139999999900000001470E0004002025041399999999U0001000000000028909120250412210050EL5       EUR000000P00032NPALL  $$$$$      000000N
002105M008521201PERO VITELLO S/O S/V CPQ           1290119150011020021218100  1  NS$$000000000000000000S00000005000002031KGU00010000000000300000000SPERO VITELLO S/O S/V$00000S00000000008521201      PERO VITELLO S/O S/V CPQ           00000000008521201      IC00000010099999999900001SL0000000101202504139999999900000001235E0004002025041399999999U0001000000000022909120250412210050EL5       EUR000000 00000NPALL  $$$$$      000000N
002105M009942101PERA DI VITELLO S/O S/V            1290119150011120060530100  1  NN$$000000000000000000S00000005000002031KGU00010000000000300000000IPERA DI VITELLO S/O $00000I00000000009942101      PERA DI VITELLO S/O S/V            00000000009942101      IC00000010099999999900001IL0000000101202504139999999900000001235E0004002025041399999999U0001000000000022909120250412210050EL5       EUR000000P00032N$ALL  $$$$$      000000N
002105M071668301POLPA COSCIA VITELLO S/V           1290119150011120210326100  1  NN$$000000000000000000S00000005009999931KGU00010000000000300000000IPOLPA COSCIA VITELLO$00000I00000000071668301      POLPA COSCIA VITELLO S/V           00000000071668301      IC00000000000000000000001IL0000000101202504139999999900000001325E0004002025041399999999U0001000000000025909120250412210050EL5       EUR000000P00032N$ALL  $$$$$      000000N
002105M068170101MAGATELLO VITELLO S/V X KG 6       1290119150011220110324100  1  NN$$000000000000000000S00000005000002031KGU00010000000000300000000IMAGATELLO VITELLO S/$00000I00000000068170101      MAGATELLO VITELLO S/V X KG 6       00000000068170101      IC00000010099999999900001IL0000000101202504139999999900000001620E0004002025041399999999U0001000000000029909120250412210050EL5       EUR000000 00000N$ALL  $$$$$      000000N
002105M071668201FESA DI VITELLO S/V                1290119150011420210326100  1  NN$$000000000000000000S00000005009999931KGU00010000000000300000000IFESA DI VITELLO S/V $00000S00000000071668201      FESA DI VITELLO S/V                00000000071668201      IC00000000000000000000001SL0000000101202504139999999900000001325E0004002025041399999999U0001000000000025909120250412210050EL5       EUR000000P00032N$ALL  $$$$$      000000N
002105M009635201NOCI VITELLO S/V                   1290119150011820040927100  1  NN$$000000000000000000S00000005000002231KGU00010000000000300000000INOCI VITELLO S/V    $00000I00000000009635201      NOCI VITELLO S/V                   00000000009635201      IC00000010099999999900001IL0000000101202504139999999900000001475E0004002025041399999999U0001000000000028909120250412210050EL5       EUR000000P00040N$ALL  $$$$$      000000N
002105M009679601PERO VITELLO IT/IT S/O S/V         1290119150014820050111100  1  NN$$000000000000000000S00000005000002031KGU00010000000000300000000IPERO VITELLO IT/IT S$00000I00000000009679601      PERO VITELLO IT/IT S/O S/V         00000000009679601      IC00000010099999999900001IL0000000101202504139999999900000001245E0004002025041399999999U0001000000000022909120250412210050EL5       EUR000000P00036N$ALL  $$$$$      000000N
002105M073145101MEZZENA SUINO INTEGRALE RUSTICI    1290301010005020240119100  1  NN$$000000000000000000S00000005009999931KGU00010000000000300000000SMEZZENA SUINO INTEGR$00000S00000000073145101      MEZZENA SUINO INTEGRALE RUSTICI    00000000073145101      IC00000000000000000000001SL0000000101202504139999999900000000329E0004002025041399999999U0001000000000006039120250412210050EL5       EUR000000 00000S$ALL  $$$$$      000000N
002105M008502001SUINETTO KG. 15/25                 1290301010010020021217100  1  NN$$000000000000000000S00000005009999931KGU00010000000000300000000ISUINETTO KG. 15/25  U00000S00000000008502001      SUINETTO KG. 15/25                 00000000008502001      IC00000010099999999900001SL0000000101202504112025041900000000650E0004002025041120250419U0001000000000011929120250412210050EL5       EUR000000 00000N$ALL  $$$$$      000000N
002105M008503401SUINETTO KG. 8/15                  1290301010010520021217100  1  NN$$000000000000000000S00000005009999931KGU00010000000000300000000ISUINETTO KG. 8/15   U00000S00000000008503401      SUINETTO KG. 8/15                  00000000008503401      IC00000010099999999900001SL0000000101202504112025041900000000768E0004002025041120250419U0001000000000013009120250412210050EL5       EUR000000 00000N$ALL  $$$$$      000000N
002105M008516101FILONE (LONZA) SUINO ESTERO S/V X5 1290301160000520021218100  1  NN$$000000000000000000S00000005000001203KGU00010000000000300000000IFILONE (LONZA) SUINOU00000I00000000008516101      FILONE (LONZA) SUINO ESTERO S/V X5 00000000008516101      IC00000010099999999900001IL0000000101202504089999999900000000550E0004002025040899999999U0001000000000009319120250412210050EL5       EUR000000P00032N$ALL  $$$$$      000000N
002105M067575401PANCETTA SUINO C/COSTA ESTERA SV X31290301160003520090112100  1  NN$$000000000000000000S00000005000001231KGU00010000000000300000000IPANCETTA SUINO C/COSU00000I00000000067575401      PANCETTA SUINO C/COSTA ESTERA SV X300000000067575401      IC00000010099999999900001IL0000000101202504082025041400000000490E0004002025040820250414U0001000000000008989120250412210050EL5       EUR000000P00036N$ALL  $$$$$      000000N
002105M073465901LOMBO SUINO T/BOLOGNA ESTERO       1290301160005020240924100  1  NN$$000000000000000000S00000005009999931KGU00010000000000300000000SLOMBO SUINO T/BOLOGN$00000S00000000073465901      LOMBO SUINO T/BOLOGNA ESTERO       00000000073465901      IC00000000000000000000001SL0000000101202503319999999900000000360E0004002025033199999999U0001000000000006609120250412210050EL5       EUR000000 00000S$ALL  $$$$$      000000N
002105M067818601PUNTINE SUINO S/V ESTERE           1290301160005520091216100  1  NN$$000000000000000000S00000005009999931KGU00010000000000300000000SPUNTINE SUINO S/V ESU00000S00000000067818601      PUNTINE SUINO S/V ESTERE           00000000067818601      IC00000000000000000000001SL0000000101202501249999999900000000450E0004002025012499999999U0001000000000007079120250412210050EL5       EUR000000 00000N$ALL  $$$$$      000000N
002105M073366901MAIALINO META'COMPENSATO ESTERO    1290301190019920240705100  1  NN$$000000000000000000S00000005009999931KGU00010000000000300000000IMAIALINO META'COMPEN$00000I00000000073366901      MAIALINO META'COMPENSATO ESTERO    00000000073366901      IC00000000000000000000001IL0000000101202407069999999900000000599E0004002024070699999999U0001000000000009509120250412210050EL5       EUR000000 00000S$ALL  $$$$$      000000N
002105M068854001SUINETTO CARTONATO KG. 8/15        1290301190019920130903100  1  NN$$000000000000000000S00000005009999931KGU00010000000000300000000ISUINETTO CARTONATO K$00000S00000000068854001      SUINETTO CARTONATO KG. 8/15        00000000068854001      IC00000010099999999900001SL0000000101202504112025041900000000789E0004002025041120250419U0001000000000013359120250412210050EL5       EUR000000P00032N$ALL  $$$$$      000000N
002105M073587501BURRITO BOVINO-VITELLO CATERING    1290301220001020250203100  1  NN$$000000000000000000S00000005009999931KGU00010000000000300000000IBURRITO BOVINO-VITEL$00000I00000000073587501      BURRITO BOVINO-VITELLO CATERING    00000000073587501      IC00000000000000000000001IL0000000101202502079999999900000001140E0004002025020799999999U0001000000000021009120250412210050EL5       EUR000000 00000N$ALL  $$$$$      000000N
002105M008661001CAPRETTO                           1290410100052020030222100  1  NNKG000010000000000000S00000005009999931KGU00010000000000300000000ICAPRETTO            $00000I00000000008661001      CAPRETTO                           00000000008661001      IC00000010099999999900001IL0000000101202504109999999900000001090E0004002019010499999999U0001000000000017909120250412210050EL5       EUR000000 00000N$ALL  $$$$$      000000N
002105M068264501CARRE'DI AGNELLO S/V               1290410250004020110819100  1  NNKG000010000000000000S00000005009999931KGU00010000000000300000000ICARRE'DI AGNELLO    $00000I00000000068264501      CARRE'DI AGNELLO S/V               00000000068264501      IC00000010099999999900001IL0000000101202503109999999900000001520E0004002024092199999999U0001000000000025909120250412210050EL5       EUR000000P00080N$ALL  $$$$$      000000N
002105M068818901CORATA DI OVINO CONF.              1290410300012520130716100  1  NNKG000010000000000000S00000005009999903KGU00010000000000300000000ICORATA DI OVINO     $00000I00000000068818901      CORATA DI OVINO CONF.              00000000068818901      IC00000010009999990000001IL0000000101202504129999999900000000880E0004002025041299999999U0001000000000010909120250412210050EL5       EUR000000P00080N$ALL  $$$$$      000000N
002105M071424701PRONTOCUOCI CONAD PQ               1290501010100020201030100  1  NSKG000010000000000000S00000005009999903KGU00010000000000300000000IPRONTOCUOCI CONAD   $00000I00000000071424701      PRONTOCUOCI CONAD PQ               00000000071424701      IC00000010099999999900001IL0000000101202504139999999900000000394E0004002025041399999999U0001000000000007909120250412210050EL5       EUR000000 00000NPALL  $$$$$      000000N
002105M072853501BUSTO POLLO BIANCO SOTTOPESO CPQ   1290501010100320230817100  1  NS$$000000000000000000S00000005009999903KGU00010000000000300000000IBUSTO SOTTOPESO B.  $00000I00000000072853501      BUSTO POLLO BIANCO SOTTOPESO CPQ   00000000072853501      IC00000010099999999900001IL0000000101202504139999999900000000367E0004002025041399999999U0001000000000007909120250412210050EL5       EUR000000 00000SPALL  $$$$$      000000N
002105M072858201BUSTO POLLO BIANCO 1,00/1,20 CPQ   1290501010101520230818100  1  NS$$000000000000000000S00000005009999903KGU00010000000000300000000IBUSTO POLLO BIANCO  $00000I00000000072858201      BUSTO POLLO BIANCO 1,00/1,20 CPQ   00000000072858201      IC00000010099999999900001IL0000000101202504139999999900000000372E0004002025041399999999U0001000000000007909120250412210050EL5       EUR000000 00000SPALL  $$$$$      000000N
002105M072854001BUSTO POLLO GIALLO SOTTOPESO CPQ   1290501010103320230817100  1  NS$$000000000000000000S00000005009999903KGU00010000000000300000000IBUSTO SOTTOPESO G.  $00000I00000000072854001      BUSTO POLLO GIALLO SOTTOPESO CPQ   00000000072854001      IC00000010099999999900001IL0000000101202504139999999900000000367E0004002025041399999999U0001000000000007909120250412210050EL5       EUR000000 00000SPALL  $$$$$      000000N
002105M072858301BUSTO POLLO GIALLO 1,00/1,20 CPQ   1290501010104520230818100  1  NS$$000000000000000000S00000005009999903KGU00010000000000300000000IBUSTO POLLO GIALLO  $00000I00000000072858301      BUSTO POLLO GIALLO 1,00/1,20 CPQ   00000000072858301      IC00000010099999999900001IL0000000101202504139999999900000000372E0004002025041399999999U0001000000000007909120250412210050EL5       EUR000000 00000SPALL  $$$$$      000000N
002105M008525801PETTO POLLO BIANCO                 1290501010116020021219100  1  NN$$000000000000000000S00000005009999903KGU00010000000000300000000IPETTO POLLO BIANCO  $00000I00000000008525801      PETTO POLLO BIANCO                 00000000008525801      IC00000010099999999900001IL0000000101202504139999999900000000700E0004002025041399999999U0001000000000012909120250412210050EL5       EUR000000P00040N$ALL  $$$$$      000000N
002105M008525901PETTO POLLO GIALLO                 1290501010116520021219100  1  NN$$000000000000000000S00000005009999903KGU00010000000000300000000IPETTO POLLO GIALLO  $00000I00000000008525901      PETTO POLLO GIALLO                 00000000008525901      IC00000010099999999900001IL0000000101202504139999999900000000700E0004002025041399999999U0001000000000012909120250412210050EL5       EUR000000P00040N$ALL  $$$$$      000000N
002105M068364901QUARTO POSTERIORE POLLO CPQ CONF.  1290501280052020111215100  1  NSKG000010000000000000S00000005009999903KGU00010000000000300000000IQUARTO POSTERIORE PQ$00000I00000000068364901      QUARTO POSTERIORE POLLO CPQ CONF.  00000000068364901      IC00000010099999999900001IL0000000101202203279999999900000000410E0004002022032799999999U0001000000000005959120250412210050EL5       EUR000000P00080NPALL  $$$$$      000000N
002105M070669301BUSTO TACCHINO MASCHIO CPQ         1290519010100120190924100  1  NS$$000000000000000000S00000005009999931KGU00010000000000300000000IBUSTO TACCH. MASCHIO$00000I00000000070669301      BUSTO TACCHINO MASCHIO CPQ         00000000070669301      IC00000010099999999900001IL0000000101202504139999999900000000367E0004002025041399999999U0001000000000006999120250412210050EL5       EUR000000 00000NPALL  $$$$$      000000N
002105M070670001COSCIA TACCHINO MASCHIO CPQ        1290519010100620190924100  1  NS$$000000000000000000S00000005009999931KGU00010000000000300000000ICOSCIA TACCH.MASCHIO$00000I00000000070670001      COSCIA TACCHINO MASCHIO CPQ        00000000070670001      IC00000010099999999900001IL0000000101202504139999999900000000378E0004002025041399999999U0001000000000006999120250412210050EL5       EUR000000 00000NPALL  $$$$$      000000N
002105M070669901SOVRACOSCIA TACCHINO MASCHIO CPQ   1290519010101120190924100  1  NS$$000000000000000000S00000005009999931KGU00010000000000300000000ISOVRACOSCIA TACCHINO$00000I00000000070669901      SOVRACOSCIA TACCHINO MASCHIO CPQ   00000000070669901      IC00000010099999999900001IL0000000101202504139999999900000000500E0004002025041399999999U0001000000000008999120250412210050EL5       EUR000000 00000NPALL  $$$$$      000000N
002105M070669801FUSI DI TACCHINO CPQ               1290519010101620190924100  1  NS$$000000000000000000S00000005009999931KGU00010000000000300000000IFUSI DI TACCHINO CPQ$00000I00000000070669801      FUSI DI TACCHINO CPQ               00000000070669801      IC00000010099999999900001IL0000000101202504139999999900000000367E0004002025041399999999U0001000000000006999120250412210050EL5       EUR000000 00000NPALL  $$$$$      000000N
002105M070669601ALI TACCHINO MASCHIO CPQ           1290519010102120190924100  1  NS$$000000000000000000S00000005009999931KGU00010000000000300000000IALI TACCHINO MASCHIO$00000I00000000070669601      ALI TACCHINO MASCHIO CPQ           00000000070669601      IC00000010099999999900001IL0000000101202504139999999900000000267E0004002025041399999999U0001000000000004909120250412210050EL5       EUR000000 00000NPALL  $$$$$      000000N
002105M070513801FESA TACCHINO MASCHIO CPQ          1290519010103020190404100  1  NS$$000000000000000000S00000005009999931KGU00010000000000300000000IFESA TACCHINO MASCHI$00000I00000000070513801      FESA TACCHINO MASCHIO CPQ          00000000070513801      IC00000010099999999900001IL0000000101202504139999999900000000822E0004002025041399999999U0001000000000014909120250412210050EL5       EUR000000 00000NPALL  $$$$$      000000N
002105M070513901FESA TACCHINO MASCHIO CPQ          1290519010103120190404100  1  NS$$000000000000000000S00000005009999903KGU00010000000000300000000IFESA TACCHINO MASCHI$00000I00000000070513901      FESA TACCHINO MASCHIO CPQ          00000000070513901      IC00000010099999999900001IL0000000101202504139999999900000000822E0004002025041399999999U0001000000000014909120250412210050EL5       EUR000000 00000NPALL  $$$$$      000000N
002105M070669401BUSTO TACCHINO FEMMINA CPQ         1290519010104620190924100  1  NS$$000000000000000000S00000005009999931KGU00010000000000300000000IBUSTO TACCH. FEMMINA$00000I00000000070669401      BUSTO TACCHINO FEMMINA CPQ         00000000070669401      IC00000010099999999900001IL0000000101202504139999999900000000367E0004002025041399999999U0001000000000006999120250412210050EL5       EUR000000 00000NPALL  $$$$$      000000N
002105M070670101COSCIA TACCHINO FEMMINA CPQ        1290519010105620190924100  1  NS$$000000000000000000S00000005009999931KGU00010000000000300000000ICOSCIA TACCHINO FEMM$00000I00000000070670101      COSCIA TACCHINO FEMMINA CPQ        00000000070670101      IC00000010099999999900001IL0000000101202504139999999900000000383E0004002025041399999999U0001000000000006999120250412210050EL5       EUR000000 00000NPALL  $$$$$      000000N
002105M070669501FESA TACCHINO FEMMINA CPQ          1290519010106120190924100  1  NS$$000000000000000000S00000005009999931KGU00010000000000300000000IFESA TACCHINO FEMMIN$00000I00000000070669501      FESA TACCHINO FEMMINA CPQ          00000000070669501      IC00000010099999999900001IL0000000101202504139999999900000000822E0004002025041399999999U0001000000000014909120250412210050EL5       EUR000000 00000NPALL  $$$$$      000000N
002105M070669701ALI TACCHINO FEMMINA CPQ           1290519010106620190924100  1  NS$$000000000000000000S00000005009999931KGU00010000000000300000000IALI TACCHINO FEMMINA$00000I00000000070669701      ALI TACCHINO FEMMINA CPQ           00000000070669701      IC00000010099999999900001IL0000000101202504139999999900000000267E0004002025041399999999U0001000000000004909120250412210050EL5       EUR000000 00000NPALL  $$$$$      000000N
002105M070184001FESA TACCHINO FETTE CPQ RISPARMIO  1290519100001220180314100  1  NSKG000010000000000000S00000005009999903KGU00010000000000300000000IFESA TACCHINO FETTE $00000I00000000070184001      FESA TACCHINO FETTE CPQ RISPARMIO  00000000070184001      IC00000010099999999900001IL0000000101202504139999999900000000870E0004002025041399999999U0001000000000012959120250412210050EL5       EUR000000 00000NPALL  $$$$$      000000N
002105M068964801FESA TACCHINO FETTE SOTTILI CPQ    1290519340004020140211100  1  NSKG000010000000000000S00000005009999903KGU00010000000000300000000IFESA TACCHINO SOTTIL$00000I00000000068964801      FESA TACCHINO FETTE SOTTILI CPQ    00000000068964801      IC00000010099999999900001IL0000000101202308069999999900000000920E0004002025041399999999U0001000000000014959120250412210050EL5       EUR000000P00080NPALL  $$$$$      000000N
