002105M066317901S2-POLTR-FER-PLAST.BAR GLO         1840409030229020210714220  1  NN$$000000000000010000N00000008009999906PZU00010000000000600000000ISEDIA BISTROT FER.RAB99999O00000000066317901      S2-POLTR-FER-PLAST.BAR GLO         00000000066317901      IC00000010099999999900002OL0000000101202502179999999900000001300E0000012025021799999999U0001000000000022908020250418081446SPINA     EUR000000 00000N      $$$$$      000000
002105M090820001S5-SDRAIO GRAVITY ECRU KAS         1840409070399020240722220  1  NN$$000000000000010000N00000008009999906PZU00010000000000600000000OSDRAIO GRAVITY ECRU B99999O00000000090820001      S5-SDRAIO GRAVITY ECRU KAS         00000000090820001      IC00000010099999999900002OL0000000101202502179999999900000002350E0000012025021799999999U0001000000000036908020250418081446SPINA     EUR000000 00000N      $$$$$      000000
002105M090820101S5-SDRAIO GRAVITY GRIGIO KAS       1840409070399020240722220  1  NN$$000000000000010000N00000008009999906PZU00010000000000600000000OSDRAIO GRAVITY GRIGIB99999O00000000090820101      S5-SDRAIO GRAVITY GRIGIO KAS       00000000090820101      IC00000010099999999900002OL0000000101202502179999999900000002350E0000012025021799999999U0001000000000036908020250418081446SPINA     EUR000000 00000N      $$$$$      000000
002105M066318001S2-TAV.TDO FER-VET.BAR D60 GLO     1840410020279020210714220  1  NN$$000000000000010000N00000008009999906PZU00010000000000600000000ITAVOLINO BISTRO D60 B99999O00000000066318001      S2-TAV.TDO FER-VET.BAR D60 GLO     00000000066318001      IC00000010099999999900001OL0000000101202502179999999900000001650E0000012025021799999999U0001000000000027908020250418081446SPINA     EUR000000 00000N      $$$$$      000000
002105M064221001S8-SET JAVA 4P ANTR.CUSC.PRO       1840411081190020151204220  1  NN$$000000000000010000N00000008009999906PZU00010000000000600000000OSET JAVA 4P CUSC. ANB99999O00000000064221001      S8-SET JAVA 4P ANTR.CUSC.PRO       00000000064221001      IC00000010099999999900001OL0000000101202502179999999900000008300E0000012025021799999999U0001000000000119008020250418081446SPINA     EUR000000 00000N      $$$$$      000000
002105M066714501S3-LETTINO DOND.DOP.T ANTR.RIG     1840411091490020220712220  1  NN$$000000000000010000N00000008009999906PZU00010000000000600000000OLETTINO DOND.DOPPIO B99999O00000000066714501      S3-LETTINO DOND.DOP.T ANTR.RIG     00000000066714501      IC00000010099999999900001OL0000000101202502179999999900000009500E0000012025021799999999U0001000000000149008020250418081446SPINA     EUR000000 00000N      $$$$$      000000
002105M062078502S1-OMBR.BAN.FER D300 ECR.IMP       1840412030799020130729220  1  NN$$000000000000010000N00000008009999906PZU00010000000000600000000OOMBR.BANANA FER. D30B99999O00000000062078502      S1-OMBR.BAN.FER D300 ECR.IMP       00000000062078502      IC00000010099999999900001OL0000000101202502179999999900000004450E0000012025021799999999U0001000000000069908020250418081446SPINA     EUR000000 00000S      $$$$$      000000
002105M065623201S1-OMBR.BAN.FER 3X2 ECR IMP        1840412030799020200811220  1  NN$$000000000000010000N00000008009999906PZU00010000000000600000000OOMBR.BANANA FER. 3X2B99999O00000000065623201      S1-OMBR.BAN.FER 3X2 ECR IMP        00000000065623201      IC00000010099999999900001OL0000000101202502179999999900000004450E0000012025021799999999U0001000000000069908020250418081446SPINA     EUR000000 00000S      $$$$$      000000
