002105M021274201POM.DATTERINO NICKEL FREE 250G IT.I1320301010000220180713040  1  NNKG000002500000002500N00000006509999951PZU00010000000000900000000IPOM.DATTERINO NICKEL$00000I00000000021274201      POM.DATTERINO NICKEL FREE 250G IT.I00000000021274201      IC00000010000001500000008IL0000000101202402069999999900000000200C0000012024020699999999U0001000000000002899220250414211202EL5       EUR000000 00000S$ALL  $$$$$      000000N
002105M020683501COMPOSIZIONE PHALAENOPSIS/HEDERA   1320505010039020040128100  1  NN$$000000000000010000N00000006159999951PZU00010000000000900000000OCOMPOSIZIONE PHALAEN200000I00000000020683501      COMPOSIZIONE PHALAENOPSIS/HEDERA   00000000020683501      IC00000010000001500000006IL0000000101202504159999999900000001340C0000012025041599999999U0001000000000019909220250414211202EL5       EUR000000 00000N$ALL  $$$$$      000000N
002105M020803001COMP.PALLINA IN CERAMICA           1320505010039020060428100  1  NN$$000000000000010000N00000006159999951PZU00010000000000900000000OCOMP.PALLINA IN CERA100000I00000000020803001      COMP.PALLINA IN CERAMICA           00000000020803001      IC00000010000001500000006IL0000000101202504159999999900000000840C0000012025041599999999U0001000000000012909220250414211202EL5       EUR000000 00000N$ALL  $$$$$      000000N
002105M021249701COMPOSIZIONE GALLINA IN CERAMICA   1320505010039020180320100  1  NN$$000000000000010000N00000006159999951PZU00010000000000900000000OCOMPOSIZIONE GALLINA$00000I00000000021249701      COMPOSIZIONE GALLINA IN CERAMICA   00000000021249701      IC00000010000001500000006IL0000000101202504159999999900000001000C0000012025041599999999U0001000000000014909220250414211202EL5       EUR000000 00000S$ALL  $$$$$      000000N
002105M021250101COMPOSIZIONE UOVO PASQUALE         1320505010039020180320100  1  NN$$000000000000010000N00000006159999951PZU00010000000000900000000OCOMPOSIZIONE UOVO PA100000I00000000021250101      COMPOSIZIONE UOVO PASQUALE         00000000021250101      IC00000010000001500000008IL0000000101202504159999999900000000850C0000012025041599999999U0001000000000012909220250414211202EL5       EUR000000 00000S$ALL  $$$$$      000000N
002105M020530601PIANTA CALLA CONFEZIONATA V.13     1320505010039920020412100  1  NN$$000000000000010000N00000006159999951PZU00010000000000900000000IPIANTA CALLA CONFEZI$00000I00000000020530601      PIANTA CALLA CONFEZIONATA V.13     00000000020530601      IC00000010000001500000012IL0000000101202504159999999900000000700C0000012025041599999999U0001000000000009909220250414211202EL5       EUR000000 00000N$ALL  $$$$$      000000N
002105M020441801COMP.PIANTA CALLA VASO IN CERAMICA 1320505010040420010305100  1  NN$$000000000000010000N00000006159999951PZU00010000000000900000000ICOMP.PIANTA CALLA VA100000I00000000020441801      COMP.PIANTA CALLA VASO IN CERAMICA 00000000020441801      IC00000010000001500000006IL0000000101202504159999999900000000930C0000012025041599999999U0001000000000013909220250414211202EL5       EUR000000 00000N$ALL  $$$$$      000000N
002105M021101301AR.TAROCCO CAL.5 CPQ ITALIA I CAT  1330101010000220160128040  1  NSKG000010000000000000S00000006509999951KGU00010000000000900000000IAR.TAROCCO CAL.5 CPQ$00000I00000000021101301      AR.TAROCCO CAL.5 CPQ ITALIA I CAT  00000000021101301      IC00000010000001500000001IL0000000101202504159999999900000000215C0000012025041599999999U0001000000000002999220250414211202EL5       EUR000000 00000NPALL  $$$$$      010001N
002105M021457601ARANCE TAROCCO C.7 KG.1,5 CPQ.IT.IC1330101010000620210223040  1  NSKG000015000000015000N00000006509999951PZU00010000000000900000000IARANCE TAROCCO C.7 K$00000I00000000021457601      ARANCE TAROCCO C.7 KG.1,5 CPQ.IT.IC00000000021457601      IC00000010000001500000008IL0000000101202504159999999900000000245C0000012025041599999999U0001000000000003499220250414211202EL5       EUR000000 00000SPALL  $$$$$      000000N
002105M022022701AR.VALENCIA KG1 BIO SICIL.CL4/6 3X41330101130000120250411040  1  NNKG000010000000010000N00000006509999951PZU00010000000000900000000IAR.VALENCIA KG1 BIO $00000I00000000022022701      AR.VALENCIA KG1 BIO SICIL.CL4/6 3X400000000022022701      IC00000010000001500000006IL0000000101202504149999999900000000170C0000012025041499999999U0001000000000002499220250414211202EL5       EUR000000 00000N$ALL  BIOOF      000000N
002105M021224201AR.NAVEL 4 KG.1 BIO CONAD VN.IT.IIC1330101190000120171204040  1  NSKG000010000000010000N00000006509999951PZU00010000000000900000000IAR.NAVEL 4 KG.1 BIO $00000I00000000021224201      AR.NAVEL 4 KG.1 BIO CONAD VN.IT.IIC00000000021224201      IC00000010000001500000005IL0000000101202503049999999900000000215C0000012025030499999999U0001000000000002999220250414211202EL5       EUR000000 00000SVALL  BIOOF      000000N
002105M021316901AR.LANELATE ROSARIA CAL.5 ITA I CAT1330101190000720190218040  1  NNKG000010000000000000S00000006509999951KGU00010000000000900000000IAR.LANELATE ROSARIA $00000I00000000021316901      AR.LANELATE ROSARIA CAL.5 ITA I CAT00000000021316901      IC00000010000001500000001IL0000000101202504159999999900000000155C0000012025041599999999U0001000000000002299220250414211202EL5       EUR000000 00000S$ALL  $$$$$      004001N
002105M021933201POMP.ROSSI A PEZZO 250G S.AFRICA IC1330113010000220240708040  1  NNKG000002500000002500N00000006509999951PZU00010000000000900000000IPOMP.ROSSI A PEZZO 2$00000I00000000021933201      POMP.ROSSI A PEZZO 250G S.AFRICA IC00000000021933201      IC00000010000001500000012IL0000000101202504159999999900000000065C0000012025041599999999U0001000000000000999220250414211202EL5       EUR000000 00000S$ALL  $$$$$      000000N
002105M021139801LIMONI RT.500G BIO CONAD VN.IT.IICT1330116010000120160801040  1  NSKG000005000000005000N00000006509999951PZU00010000000000900000000ILIMONI RT.500G CONAD800000I00000000021139801      LIMONI RT.500G BIO CONAD VN.IT.IICT00000000021139801      IC00000010000001500000010IL0000000101202501289999999900000000080C0000012025012899999999U0001000000000001299220250414211202EL5       EUR000000 00000NVALL  BIOOF      000000N
002105M021821401LIMONI ALCENERO BIO 400G 2FR IT II 1330116010000120231006040  1  NNKG000004000000004000N00000006509999951PZU00010000000000900000000ILIMONI ALCENERO BIO $00000I00000000021821401      LIMONI ALCENERO BIO 400G 2FR IT II 00000000021821401      IC00000010000001500000012IL0000000101202410299999999900000000070C0000012024102999999999U0001000000000001109220250414211202EL5       EUR000000 00000S$ALL  BIOOF      000000N
002105M020549501LIMONI FOGLIA OR.ITALIA I CAT      1330116010000820020524040  1  NNKG000010000000000000S00000006509999951KGU00010000000000900000000ILIMONI FOGLIA OR.ITA$00000I00000000020549501      LIMONI FOGLIA OR.ITALIA I CAT      00000000020549501      IC00000010000001500000001IL0000000101202504159999999900000000140C0000012025041599999999U0001000000000001999220250414211202EL5       EUR000000 00000N$ALL  $$$$$      010001N
002105M020915101LIMONI AMALFI IGP.500G S&D.IT.I CAT1330116040000320100204040  1  NSKG000005000000005000N00000006509999951PZU00010000000000900000000ILIMONI AMALFI S&D.IT$00000I00000000020915101      LIMONI AMALFI IGP.500G S&D.IT.I CAT00000000020915101      IC00000010000001500000016I 0000000000000000000000000000000000000 0000000000000000000000U0001000000000000009220250414211202EL5       EUR000000 00000NSALL  $$$$$      000000N
002105M021950401M.GOLDEN 75/85 400G BIO A.NERO IT  1330119010000120240923040  1  NNKG000004000000004000N00000006509999951PZU00010000000000900000000IM.GOLDEN 75/85 400G $00000S00000000021950401      M.GOLDEN 75/85 400G BIO A.NERO IT  00000000021950401      IC00000010000001500000006SL0000000101202409249999999900000000072C0000012024092499999999U0001000000000000999220250414211202EL5       EUR000000 00000S$ALL  BIOOF      000000N
002105M020025101M.GRANNY SMITH 75/80 ITALIA I CAT. 1330119130000419921201040  1  NNKG000010000000000000S00000006509999951KGU00010000000000900000000IM.GRANNY SMITH 75/80$00000I00000000020025101      M.GRANNY SMITH 75/80 ITALIA I CAT. 00000000020025101      IC00000010000001500000001I 0000000000000000000000000000000000000 0000000000000000000000U0001000000000000009220250414211202EL5       EUR000000 00000N$ALL  $$$$$      010001N
002105M021803601ROYAL GALA 75/85 A.NERO BIO 400G IT1330119310000120230825040  1  NNKG000004000000004000N00000006509999951PZU00010000000000900000000IROYAL GALA 75/85 A.N$00000S00000000021803601      ROYAL GALA 75/85 A.NERO BIO 400G IT00000000021803601      IC00000010000001500000006SL0000000101202409189999999900000000074C0000012024091899999999U0001000000000000999220250414211202EL5       EUR000000 00000S$ALL  BIOOF      000000N
002105M021972501DOLCE VITA BIO 65/75 700G ITALIA IC1330119310000120241125040  1  NNKG000007000000007000N00000006509999951PZU00010000000000900000000IDOLCE VITA BIO 65/75$00000I00000000021972501      DOLCE VITA BIO 65/75 700G ITALIA IC00000000021972501      IC00000010000001500000006IL0000000101202411309999999900000000138C0000012024113099999999U0001000000000001989220250414211202EL5       EUR000000 00000S$ALL  BIOOF      000000N
002105M021905101NETTARINE GIALLE CAL.C 500G SPA.ICT1330131070002020240417040  1  NNKG000005000000005000N00000006509999951PZU00010000000000900000000INETTARINE GIALLE CAL$00000I00000000021905101      NETTARINE GIALLE CAL.C 500G SPA.ICT00000000021905101      IC00000010000001500000010IL0000000101202504159999999900000000270C0000012025041599999999U0001000000000003909220250414211202EL5       EUR000000 00000S$ALL  $$$$$      000000N
002105M021248101FRAGOLE BIO CONAD V.N.250G ITA.ICT 1330146010000120180316040  1  NSKG000002500000002500N00000006509999951PZU00010000000000900000000IFRAGOLE BIO CONAD V.$00000I00000000021248101      FRAGOLE BIO CONAD V.N.250G ITA.ICT 00000000021248101      IC00000010000001500000010IL0000000101202504089999999900000000245C0000012025040899999999U0001000000000003499220250414211202EL5       EUR000000 00000SVALL  BIOOF      000000N
002105M020038601FRAGOLE CANDONGA ORIGINE ITALIA ICT1330146010000819921204040  1  NNKG000010000000000000S00000006509999951KGU00010000000000900000000IFRAGOLE CANDONGA ITA$00000I00000000020038601      FRAGOLE CANDONGA ORIGINE ITALIA ICT00000000020038601      IC00000010000001500000001IL0000000101202504159999999900000000555C0000012025041599999999U0001000000000007909220250414211202EL5       EUR000000 00000N$ALL  $$$$$      005001N
002105M021884801FRAG.CANDONGA TOP QUAL.400G ITA.ICT1330146010000920240229040  1  NNKG000004000000004000N00000006509999951PZU00010000000000900000000IFRAG.CANDONGA TOP QU$00000S00000000021884801      FRAG.CANDONGA TOP QUAL.400G ITA.ICT00000000021884801      IC00000010000001500000012SL0000000101202503249999999900000000280C0000012025032499999999U0001000000000003999220250414211202EL5       EUR000000 00000S$ALL  $$$$$      000000N
002105M021213101MELONI GIALLI BRASILE I CAT        1330161070005020171023040  1  NNKG000010000000000000S00000006509999951KGU00010000000000900000000IMELONI GIALLI BRASIL$00000I00000000021213101      MELONI GIALLI BRASILE I CAT        00000000021213101      IC00000010000001500000001IL0000000101202504159999999900000000165C0000012025041599999999U0001000000000002499220250414211202EL5       EUR000000 00000S$ALL  $$$$$      001001S
002105M021090001MELONI GIALLI HONDURAS I CAT.      1330161070016020151105040  1  NNKG000010000000000000S00000006509999951KGU00010000000000900000000IMELONI GIALLI HONDUR$00000S00000000021090001      MELONI GIALLI HONDURAS I CAT.      00000000021090001      IC00000010000001500000001SL0000000101202504139999999900000000175C0000012025041399999999U0001000000000002499220250414211202EL5       EUR000000 00000N$ALL  $$$$$      005001N
002105M021139901BANANE VS.620G BIO CONAD VN.EC.I.CT1330164010000120160801040  1  NSKG000006200000006200N00000006509999951PZU00010000000000900000000IBANANE VS.620G BIO C800000I00000000021139901      BANANE VS.620G BIO CONAD VN.EC.I.CT00000000021139901      IC00000010000001500000008IL0000000101202503119999999900000000165C0000012025031199999999U0001000000000002499220250414211202EL5       EUR000000 00000NVALL  BIOOF      000000N
002105M021828901KIWI VERDE 500G CONAD VN.OR.ITA ICT1330167010000120231030040  1  NSKG000005000000005000N00000006509999951PZU00010000000000900000000IKIWI VERDE 500G CONA800000I00000000021828901      KIWI VERDE 500G CONAD VN.OR.ITA ICT00000000021828901      IC00000010000001500000008IL0000000101202410159999999900000000220C0000012024101599999999U0001000000000002999220250414211202EL5       EUR000000 00000SVALL  BIOOF      000000N
002105M021839801KIWI GREEN 285G ALCE NERO OR.ITALIA1330167010000120231121040  1  NNKG000002850000002850N00000006509999951PZU00010000000000900000000IKIWI GREEN 285G ALCE$00000I00000000021839801      KIWI GREEN 285G ALCE NERO OR.ITALIA00000000021839801      IC00000010000001500000008IL0000000101202412039999999900000000125C0000012024120399999999U0001000000000001799220250414211202EL5       EUR000000 00000S$ALL  BIOOF      000000N
002105M021926701MISTO BOSCO+PHYSALIS 200G CONAD ICT1330170040000120240614040  1  NSKG000002000000002000N00000006509999951PZU00010000000000900000000IMISTO BOSCO+PHYSALIS$00000I00000000021926701      MISTO BOSCO+PHYSALIS 200G CONAD ICT00000000021926701      IC00000010000001500000007IL0000000101202504159999999900000000340C0000012025041599999999U0001000000000004509220250414211202EL5       EUR000000 00000SCALL  $$$$$      000000N
002105M021900201MISTO BOSCO TRIS 150G CONAD I CAT  1330170040000220240408040  1  NSKG000001500000001500N00000006509999951PZU00010000000000900000000IMISTO BOSCO TRIS 150$00000I00000000021900201      MISTO BOSCO TRIS 150G CONAD I CAT  00000000021900201      IC00000010000001500000010IL0000000101202504159999999900000000290C0000012025041599999999U0001000000000003909220250414211202EL5       EUR000000 00000SCALL  $$$$$      000000N
002105M021380701LAMPONI 125G CONAD 3X4 I CAT       1330170040000620200228040  1  NSKG000001250000001250N00000006509999951PZU00010000000000900000000ILAMPONI 125G CONAD  $00000I00000000021380701      LAMPONI 125G CONAD 3X4 I CAT       00000000021380701      IC00000010000001500000008IL0000000101202504159999999900000000240C0000012025041599999999U0001000000000003499220250414211202EL5       EUR000000 00000SCALL  $$$$$      000000N
002105M021380901RIBES ROSSO 125G CONAD 3X4 ICT     1330170040000620200228040  1  NSKG000001250000001250N00000006509999951PZU00010000000000900000000IRIBES ROSSO 125G CON$00000I00000000021380901      RIBES ROSSO 125G CONAD 3X4 ICT     00000000021380901      IC00000010000001500000008IL0000000101202504159999999900000000290C0000012025041599999999U0001000000000003909220250414211202EL5       EUR000000 00000SCALL  $$$$$      000000N
002105M020991301NESPOLE SPAGNA CAL.G VASS.500G ICT 1330170070000120130506040  1  NNKG000005000000005000N00000006509999951PZU00010000000000900000000INESPOLE SPAGNA CAL.G$00000I00000000020991301      NESPOLE SPAGNA CAL.G VASS.500G ICT 00000000020991301      IC00000010000001500000012IL0000000101202504159999999900000000255C0000012025041599999999U0001000000000003499220250414211202EL5       EUR000000 00000N$ALL  $$$$$      000000N
002105M021066301NESPOLE RUCHEY SPAGNA CAL.GG I CAT 1330170070000520150417040  1  NNKG000010000000050000S00000006509999951KGU00010000000000900000000INESPOLE RUCHEY SPAGN$00000I00000000021066301      NESPOLE RUCHEY SPAGNA CAL.GG I CAT 00000000021066301      IC00000010000001500000001IL0000000101202504159999999900000000535C0000012025041599999999U0001000000000006989220250414211202EL5       EUR000000 00000N$ALL  $$$$$      005001N
002105M020889801MANGO VIA AEREA 400G PERU'I CAT    1330173040002120081204040  1  NNKG000003800000003800N00000006509999951PZU00010000000000900000000IMANGO VIA AEREA 400G$00000I00000000020889801      MANGO VIA AEREA 400G PERU'I CAT    00000000020889801      IC00000010000001500000009IL0000000101202504159999999900000000345C0000012025041599999999U0001000000000004909220250414211202EL5       EUR000000 00000N$ALL  $$$$$      000000N
002105M022022901PLATANO COSTA RICA I CAT           1330173130000020250414040  1  NNKG000010000000010000S00000006509999951KGU00010000000000900000000IPLATANO COSTA RICA I$00000I00000000022022901      PLATANO COSTA RICA I CAT           00000000022022901      IC00000010000001500000001IL0000000101202504159999999900000000280C0000012025041599999999U0001000000000003909220250414211202EL5       EUR000000 00000N$ALL  $$$$$      005001N
002105M020148701CASSAVA MANIOCA COSTA RICA ICT     1330173130001019941018100  1  NNKG000010000000000000S00000006509999951KGU00010000000000900000000ICASSAVA MANIOCA COST$00000I00000000020148701      CASSAVA MANIOCA COSTA RICA ICT     00000000020148701      IC00000010000001500000001IL0000000101202504159999999900000000330C0000012025041599999999U0001000000000004909220250414211202EL5       EUR000000 00000S$ALL  $$$$$      010001N
002105M021346701SPREMUTA DI ARANCE HPP CONAD 250G  1330174040070020190710100  1  NSLT000002500000002500N00000006509999951PZU00010000000000900000000ISPREMUTA DI ARANCE H$00000S00000000021346701      SPREMUTA DI ARANCE HPP CONAD 250G  00000000021346701      IC00000010000001500000008SL0000000101202501022025043000000000130C0000012025010220250430U0001000000000001999220250414211202EL5       EUR000000 00000SCALL  BEF        000000N
002105M021347301FRULLATO TROPICALE HPP CONAD 250G  1330174040070020190710100  1  NSLT000002500000002500N00000006509999951PZU00010000000000900000000IFRULLATO TROPICALE  $00000I00000000021347301      FRULLATO TROPICALE HPP CONAD 250G  00000000021347301      IC00000010000001500000008IL0000000101202501022025043000000000130C0000012025010220250430U0001000000000001999220250414211202EL5       EUR000000 00000SCALL  BEF        000000N
002105M021589501SPR.MELA/LIMONE/MENTA 250ML CONAD  1330174040070020220601100  1  NSLT000002500000002500N00000006509999951PZU00010000000000900000000ISPR.MELA/LIMONE/MENT$00000S00000000021589501      SPR.MELA/LIMONE/MENTA 250ML CONAD  00000000021589501      IC00000010000001500000008SL0000000101202501022025043000000000130C0000012025010220250430U0001000000000001999220250414211202EL5       EUR000000 00000SCALL  BEF        000000N
002105M020281801LATTUGA ROMANA ITALIA 4X6 I CAT.   1330301010000119980427040  1  NNKG000010000000000000S00000006509999951KGU00010000000000900000000ILATTUGA ROMANA      $00000I00000000020281801      LATTUGA ROMANA ITALIA 4X6 I CAT.   00000000020281801      IC00000010000001500000001IL0000000101202504159999999900000000175C0000012025041599999999U0001000000000002499220250414211202EL5       EUR000000 00000N$ALL  $$$$$      001001S
002105M020541801IN.GENTILINA ROSSA/BIANCA ITA.I CAT1330301010000420020507040  1  NNKG000010000000000000S00000006509999951KGU00010000000000900000000IIN.GENTILINA ROSSA/B$00000I00000000020541801      IN.GENTILINA ROSSA/BIANCA ITA.I CAT00000000020541801      IC00000010000001500000001IL0000000101202504159999999900000000175C0000012025041599999999U0001000000000002499220250414211202EL5       EUR000000 00000N$ALL  $$$$$      004001N
002105M020105801INS.TROCADERO/CAPPUCCINA ITALIA ICT1330301040000719921124040  1  NNKG000010000000000000S00000006509999951KGU00010000000000900000000ITROC.CAPPUCCINA     $00000I00000000020105801      INS.TROCADERO/CAPPUCCINA ITALIA ICT00000000020105801      IC00000010000001500000001IL0000000101202504159999999900000000175C0000012025041599999999U0001000000000002499220250414211202EL5       EUR000000 00000N$ALL  $$$$$      005001N
002105M021383401CIOT.MIX&GUSTA OL./GRANA CONAD 120G1330302010000120200313040  1  NSKG000001200000001200N00000006509999953PZU00010000000000900000000ICIOT.MIX&GUSTA OL./G400000I00000000021383401      CIOT.MIX&GUSTA OL./GRANA CONAD 120G00000000021383401      IC00000010000001500000006IL0000000101202501022025043000000000190C0000012025010220250430U0001000000000002799220250414211202EL5       EUR000000 00000SCALL  BEF        000000N
002105M021383601CIOT.MIX&GUSTA POM./MOZZ.CONAD 135G1330302010000120200313040  1  NSKG000001200000001350N00000006509999953PZU00010000000000900000000ICIOT.MIX&GUSTA POM./400000I00000000021383601      CIOT.MIX&GUSTA POM./MOZZ.CONAD 135G00000000021383601      IC00000010000001500000006IL0000000101202501022025043000000000190C0000012025010220250430U0001000000000002799220250414211202EL5       EUR000000 00000SCALL  BEF        000000N
002105M021383701CIOT.MIX&GUSTA FETA/OLIV.CONAD 140G1330302010000120200313040  1  NSKG000001400000001400N00000006509999953PZU00010000000000900000000ICIOT.MIX&GUSTA FETA/400000I00000000021383701      CIOT.MIX&GUSTA FETA/OLIV.CONAD 140G00000000021383701      IC00000010000001500000006IL0000000101202501022025043000000000190C0000012025010220250430U0001000000000002799220250414211202EL5       EUR000000 00000SCALL  BEF        000000N
002105M021383801CIOT.MIX&GUSTA POM/GRANA CONAD 145G1330302010000120200313040  1  NSKG000001450000001450N00000006509999953PZU00010000000000900000000ICIOT.MIX&GUSTA POM/G400000I00000000021383801      CIOT.MIX&GUSTA POM/GRANA CONAD 145G00000000021383801      IC00000010000001500000006IL0000000101202501022025043000000000190C0000012025010220250430U0001000000000002799220250414211202EL5       EUR000000 00000SCALL  BEF        000000N
002105M021578901CIOTOLA RICETTA REG.TRENTINA 130G  1330302010000220220503040  1  NNKG000001300000001300N00000006509999953PZU00010000000000900000000ICIOTOLA RICETTA REG.$00000I00000000021578901      CIOTOLA RICETTA REG.TRENTINA 130G  00000000021578901      IC00000010000001500000005IL0000000101202401039999999900000000260C0000012024010399999999U0001000000000003699220250414211202EL5       EUR000000 00000S$ALL  $$$$$      000000N
002105M022007101CIOT.REGION.ALL'ITALIANA 130G BND  1330302010000220250310040  1  NNKG000001300000001300N00000006509999951PZU00010000000000900000000ICIOT.REGION.ALL'ITAL$00000I00000000022007101      CIOT.REGION.ALL'ITALIANA 130G BND  00000000022007101      IC00000010000001500000005IL0000000101202503119999999900000000250C0000012025031199999999U0001000000000003499220250414211202EL5       EUR000000 00000N$ALL  $$$$$      000000N
002105M022007201CIOT.BENESSERE VITALITY 130G BND   1330302010000220250310040  1  NNKG000001300000001300N00000006509999951PZU00010000000000900000000ICIOT.BENESSERE VITAL$00000I00000000022007201      CIOT.BENESSERE VITALITY 130G BND   00000000022007201      IC00000010000001500000005IL0000000101202503119999999900000000250C0000012025031199999999U0001000000000003499220250414211202EL5       EUR000000 00000N$ALL  $$$$$      000000N
002105M021579001CIOTOLA RICETTA REG.PUGLIESE 130G  1330302010000320220503040  1  NNKG000001300000001300N00000006509999953PZU00010000000000900000000ICIOTOLA RICETTA REG.$00000I00000000021579001      CIOTOLA RICETTA REG.PUGLIESE 130G  00000000021579001      IC00000010000001500000005IL0000000101202401039999999900000000260C0000012024010399999999U0001000000000003699220250414211202EL5       EUR000000 00000S$ALL  $$$$$      000000N
002105M021578801CIOTOLA RICETTA REG.LOMBARDA 130G  1330302010000520220503040  1  NNKG000001300000001300N00000006509999953PZU00010000000000900000000ICIOTOLA RICETTA REG.$00000I00000000021578801      CIOTOLA RICETTA REG.LOMBARDA 130G  00000000021578801      IC00000010000001500000005IL0000000101202401039999999900000000260C0000012024010399999999U0001000000000003699220250414211202EL5       EUR000000 00000S$ALL  $$$$$      000000N
002105M021579201CIOTOLA RICETTA REG.SICILIANA 130G 1330302010000520220503040  1  NNKG000001300000001300N00000006509999953PZU00010000000000900000000ICIOTOLA RICETTA REG.$00000I00000000021579201      CIOTOLA RICETTA REG.SICILIANA 130G 00000000021579201      IC00000010000001500000005IL0000000101202401039999999900000000260C0000012024010399999999U0001000000000003699220250414211202EL5       EUR000000 00000S$ALL  $$$$$      000000N
002105M021911801CIOTOLA BENESSERE ACTIVE POLLO 130G1330302010001020240513040  1  NNKG000001300000001300N00000006509999953PZU00010000000000900000000ICIOTOLA BENESSERE AC$00000I00000000021911801      CIOTOLA BENESSERE ACTIVE POLLO 130G00000000021911801      IC00000010000001500000005IL0000000101202405149999999900000000250C0000012024051499999999U0001000000000003499220250414211202EL5       EUR000000 00000S$ALL  $$$$$      000000N
002105M021912001CIOT.BENESSERE BALANCE FETA 130G   1330302010001020240513040  1  NNKG000001300000001300N00000006509999953PZU00010000000000900000000ICIOT.BENESSERE BALAN$00000I00000000021912001      CIOT.BENESSERE BALANCE FETA 130G   00000000021912001      IC00000010000001500000005IL0000000101202503119999999900000000250C0000012025031199999999U0001000000000003499220250414211202EL5       EUR000000 00000S$ALL  $$$$$      000000N
002105M021139501INS.MISTA CONAD VER.NATURA BIO 150G1330302030000120160801040  1  NSKG000001500000001500N00000006509999953PZU00010000000000900000000IINS.MISTA CONAD VER.$00000I00000000021139501      INS.MISTA CONAD VER.NATURA BIO 150G00000000021139501      IC00000010000001500000006IL0000000101202210109999999900000000102C0000012022101099999999U0001000000000001499220250414211202EL5       EUR000000 00000NVALL  BIOOF      000000N
002105M021139601INS.MISTICANZA CONAD V.NAT.BIO 80G 1330302040000120160801040  1  NSKG000000800000000800N00000006509999953PZU00010000000000900000000IINS.MISTICANZA CONAD$00000I00000000021139601      INS.MISTICANZA CONAD V.NAT.BIO 80G 00000000021139601      IC00000010000001500000006IL0000000101201702149999999900000000095C0000012017021499999999U0001000000000001399220250414211202EL5       EUR000000 00000NVALL  BIOOF      000000N
002105M021195501INSALATINA CONAD VER.NATURA BIO 80G1330302040000120170707040  1  NSKG000000800000000800N00000006509999953PZU00010000000000900000000IINSALATINA CONAD VER800000I00000000021195501      INSALATINA CONAD VER.NATURA BIO 80G00000000021195501      IC00000010000001500000006IL0000000101201707249999999900000000093C0000012017072499999999U0001000000000001399220250414211202EL5       EUR000000 00000SVALL  BIOOF      000000N
002105M021195601VALERIANA CONAD VER.NATURA BIO 70G 1330302040000120170707040  1  NSKG000000700000000700N00000006509999953PZU00010000000000900000000IVALERIANA CONAD VER.800000I00000000021195601      VALERIANA CONAD VER.NATURA BIO 70G 00000000021195601      IC00000010000001500000006IL0000000101201707249999999900000000093C0000012017072499999999U0001000000000001399220250414211202EL5       EUR000000 00000SVALL  BIOOF      000000N
002105M021195701RUCOLA CONAD VERSO NATURA BIO 80G  1330302040000120170707040  1  NSKG000000800000000800N00000006509999953PZU00010000000000900000000IRUCOLA CONAD VERSO N800000I00000000021195701      RUCOLA CONAD VERSO NATURA BIO 80G  00000000021195701      IC00000010000001500000006IL0000000101202102069999999900000000093C0000012021020699999999U0001000000000001399220250414211202EL5       EUR000000 00000SVALL  BIOOF      000000N
002105M021857701CUORE DI ICEBERG BIO 150G CONAD V.N1330302050000120240115040  1  NNKG000001500000001500N00000006509999951PZU00010000000000900000000ICUORE DI ICEBERG BIO$00000I00000000021857701      CUORE DI ICEBERG BIO 150G CONAD V.N00000000021857701      IC00000010000001500000006IL0000000101202501029999999900000000110C0000012025010299999999U0001000000000001699220250414211202EL5       EUR000000 00000S$ALL  BIOOF      000000N
002105M021806201ZUCCA A CUBETTI VASS.350G V.NAT.BIO1330302060000120230904040  1  NSKG000003500000003500N00000006509999951PZU00010000000000900000000IZUCCA A CUBETTI VASS$00000I00000000021806201      ZUCCA A CUBETTI VASS.350G V.NAT.BIO00000000021806201      IC00000010000001500000004IL0000000101202411189999999900000000220C0000012024111899999999U0001000000000003289220250414211202EL5       EUR000000 00000SVALL  BIOOF      000000N
002105M021376201RADICCHIO TONDO BST.350G CPQ IT.ICT1330307010000320200120040  1  NSKG000003500000003500N00000006509999951PZU00010000000000900000000IRADICCHIO TONDO BST.$00000I00000000021376201      RADICCHIO TONDO BST.350G CPQ IT.ICT00000000021376201      IC00000010000001500000006IL0000000101202504159999999900000000200C0000012025041599999999U0001000000000002799220250414211202EL5       EUR000000 00000SPALL  BEF        000000N
002105M022006801INSAL.COUS COUS/CECI 220G I PRONTI 1330309220000020250310100  1  NNKG000002200000002200N00000006509999951PZU00010000000000900000000OINSAL.COUS COUS/CECI$00000O00000000022006801      INSAL.COUS COUS/CECI 220G I PRONTI 00000000022006801      IC00000010000001500000006OL0000000101202504159999999900000000155C0000012025041599999999U0001000000000002289220250414211202EL5       EUR000000 00000N$ALL  $$$$$      000000N
002105M020676901CRAUTO/VERZA BIANCA I CT.ITALIA    1330310070000220040112040  1  NNKG000010000000000000S00000006509999951KGU00010000000000900000000ICRAUTO/VERZA BIANCA $00000I00000000020676901      CRAUTO/VERZA BIANCA I CT.ITALIA    00000000020676901      IC00000010000001500000001IL0000000101202504159999999900000000120C0000012025041599999999U0001000000000001699220250414211202EL5       EUR000000 00000N$ALL  $$$$$      004001N
002105M020625201CRAUTO VERZA ROSSA OR.ITALIA I CAT.1330310070007020030130040  1  NNKG000010000000000000S00000006509999951KGU00010000000000900000000ICRAUTO VERZA ROSSA O$00000I00000000020625201      CRAUTO VERZA ROSSA OR.ITALIA I CAT.00000000020625201      IC00000010000001500000001IL0000000101202504159999999900000000120C0000012025041599999999U0001000000000001699220250414211202EL5       EUR000000 00000N$ALL  $$$$$      003001N
002105M020854301RAPE BIANCHE FRESCHE A MAZZO IT.   1330310130000520071113040  1  NNKG000005000000005000N00000006509999951PZU00010000000000900000000IRAPE BIANCHE FRESCHE$00000I00000000020854301      RAPE BIANCHE FRESCHE A MAZZO IT.   00000000020854301      IC00000010000001500000006IL0000000101202504159999999900000000145C0000012025041599999999U0001000000000001999220250414211202EL5       EUR000000 00000N$ALL  $$$$$      000000N
002105M022007601CAVOLINI BRUXELLES 370G OR.SCOZIA  1330310160000120250310040  1  NNKG000003700000003700N00000006509999951PZU00010000000000900000000ICAVOLINI BRUXELLES 3$00000I00000000022007601      CAVOLINI BRUXELLES 370G OR.SCOZIA  00000000022007601      IC00000010000001500000011IL0000000101202504159999999900000000215C0000012025041599999999U0001000000000002999220250414211202EL5       EUR000000 00000N$ALL  $$$$$      000000N
002105M021653201ROS.BROCC.BARESANI 400 G CPQ ITI°CT1330310190000120221017040  1  NSKG000004000000004000N00000006509999951PZU00010000000000900000000SROS.BROCC.BARESANI 4$00000S00000000021653201      ROS.BROCC.BARESANI 400 G CPQ ITI°CT00000000021653201      IC00000010000001500000006SL0000000101202504089999999900000000165C0000012025040899999999U0001000000000002489220250414211202EL5       EUR000000 00000SPALL  $$$$$      000000N
002105M021431701TRIS DI BROCCOLI 400G UMBRIA IT.ICT1330310191695620201027040  1  NNKG000004000000004000N00000006509999951PZU00010000000000900000000STRIS DI BROCCOLI 400500000S00000000021431701      TRIS DI BROCCOLI 400G UMBRIA IT.ICT00000000021431701      IC00000010000001500000006SL0000000101202504089999999900000000200C0000012025040899999999U0001000000000002989220250414211202EL5       EUR000000 00000S$ALL  $$$$$      000000N
002105M020854901FAG.TAC/CORALLO 500G MAROCCO I CAT 1330312130000220071123040  1  NNKG000005000000005000N00000006509999951PZU00010000000000900000000IFAG.TAC/CORALLO 500G$00000I00000000020854901      FAG.TAC/CORALLO 500G MAROCCO I CAT 00000000020854901      IC00000010000001500000008IL0000000101202504159999999900000000190C0000012025041599999999U0001000000000002799220250414211202EL5       EUR000000 00000N$ALL  $$$$$      000000N
002105M021157401PEPERONE CRUSCO ZAFARAN BS.100G    1330312240000120161207040  1  NNKG000001000000001000N00000006509999951PZU00010000000000900000000IPEPERONE CRUSCO ZAFA$00000E00000000021157401      PEPERONE CRUSCO ZAFARAN BS.100G    00000000021157401      IC00000010000001500000020EL0000000101202502119999999900000000390C0000012025021199999999U0001000000000005499220250414211202EL5       EUR000000 00000N$ALL  $$$$$      000000N
002105M021189601ZUCCHINE BIO 700G CONAD V.N.IT.I CT1330313010000120170612040  1  NSKG000007000000007000N00000006509999951PZU00010000000000900000000IZUCCHINE BIO 700G CO$00000I00000000021189601      ZUCCHINE BIO 700G CONAD V.N.IT.I CT00000000021189601      IC00000010000001500000006IL0000000101202504019999999900000000200C0000012025040199999999U0001000000000002899220250414211202EL5       EUR000000 00000SVALL  BIOOF      000000N
002105M020798101ZUCCHINE BIANCHE CAL.14/21 ITALIA I1330313010001120060331040  1  NNKG000010000000000000S00000006509999951KGU00010000000000900000000IZUCCHINE BIANCHE CAL$00000I00000000020798101      ZUCCHINE BIANCHE CAL.14/21 ITALIA I00000000020798101      IC00000010000001500000001IL0000000101202504159999999900000000120C0000012025041599999999U0001000000000001699220250414211202EL5       EUR000000 00000N$ALL  $$$$$      005001N
002105M020914701ZUCCHINE VERDI GR.500 IT.I CAT.    1330313010002120100129040  1  NNKG000005000000005000N00000006509999951PZU00010000000000900000000IZUCCHINE VERDI GR.50$00000I00000000020914701      ZUCCHINE VERDI GR.500 IT.I CAT.    00000000020914701      IC00000010000001500000006IL0000000101202504159999999900000000100C0000012025041599999999U0001000000000001499220250414211202EL5       EUR000000 00000N$ALL  $$$$$      000000N
002105M020176301FIORI DI ZUCCA 90G ITALIA I CAT.   1330313040000219960524040  1  NNKG000000900000000900N00000006509999951PZU00010000000000900000000IFIORI DI ZUCCA      $00000I00000000020176301      FIORI DI ZUCCA 90G ITALIA I CAT.   00000000020176301      IC00000010000001500000006IL0000000101202504159999999900000000100C0000012025041599999999U0001000000000001499220250414211202EL5       EUR000000 00000N$ALL  $$$$$      001001N
002105M021389801ZUCCHINE TONDE VS.500G ITALIA ICAT 1330313100020120200504040  1  NNKG000005000000005000N00000006509999951PZU00010000000000900000000IZUCCHINE TONDE VS.50500000S00000000021389801      ZUCCHINE TONDE VS.500G ITALIA ICAT 00000000021389801      IC00000010000001500000010SL0000000101202504159999999900000000090C0000012025041599999999U0001000000000001299220250414211202EL5       EUR000000 00000S$ALL  $$$$$      000000N
002105M022022801ZUCCA DELICA OR.COSTA RICA I CAT   1330316010000120250414040  1  NNKG000010000000000000S00000006509999951KGU00010000000000900000000IZUCCA DELICA OR.COST$00000I00000000022022801      ZUCCA DELICA OR.COSTA RICA I CAT   00000000022022801      IC00000010000001500000001IL0000000101202504159999999900000000190C0000012025041599999999U0001000000000002699220250414211202EL5       EUR000000 00000N$ALL  $$$$$      001001N
002105M020291501MELANZ.OBLUNGHE 140/170 ITALIA I CT1330319040001019980608040  1  NNKG000010000000000000S00000006509999951KGU00010000000000900000000IMELANZ.OBLUNGHE 140/$00000I00000000020291501      MELANZ.OBLUNGHE 140/170 ITALIA I CT00000000020291501      IC00000010000001500000001IL0000000101202504159999999900000000165C0000012025041599999999U0001000000000002499220250414211202EL5       EUR000000 00000N$ALL  $$$$$      005001N
002105M020010801MELANZ.VIOLA STRIATE 60/80 ITA.ICAT1330319100006119921124040  1  NNKG000010000000000000S00000006509999951KGU00010000000000900000000IMELANZ.VIOLA STRIATE$00000I00000000020010801      MELANZ.VIOLA STRIATE 60/80 ITA.ICAT00000000020010801      IC00000010000001500000001IL0000000101202504159999999900000000190C0000012025041599999999U0001000000000002699220250414211202EL5       EUR000000 00000N$ALL  $$$$$      005001N
002105M020615901PEPERONI ROSSI IT CL 80/100 ICT 1F.1330322010010020021127040  1  NNKG000010000000000000S00000006509999951KGU00010000000000900000000IPEPERONI ROSSI IT CL$00000I00000000020615901      PEPERONI ROSSI IT CL 80/100 ICT 1F.00000000020615901      IC00000010000001500000001IL0000000101202504159999999900000000295C0000012025041599999999U0001000000000003909220250414211202EL5       EUR000000 00000N$ALL  $$$$$      005001N
002105M020615801PEPERONI GIALLI IT CL 80/100 ICT 1F1330322040010020021127040  1  NNKG000010000000000000S00000006509999951KGU00010000000000900000000IPEPERONI GIALLI IT C$00000I00000000020615801      PEPERONI GIALLI IT CL 80/100 ICT 1F00000000020615801      IC00000010000001500000001IL0000000101202504159999999900000000295C0000012025041599999999U0001000000000003909220250414211202EL5       EUR000000 00000N$ALL  $$$$$      005001N
002105M021184701P.GRAPPOLO BIO CONAD VN.500G IT.IIC1330325010000120170525040  1  NSKG000005000000005000N00000006509999951PZU00010000000000900000000IP.GRAPPOLO BIO CONAD$00000Z00000000021184701      P.GRAPPOLO BIO CONAD VN.500G IT.IIC00000000021184701      IC00000010000001500000006ZL0000000101202504089999999900000000185C0000012025040899999999U0001000000000002699220250414211202EL5       EUR000000 00000SVALL  BIOOF      000000N
002105M021790001POM.CILIEG.300G BIO CONAD VN IT.ICT1330325010000120230703040  1  NSKG000003000000003000N00000006509999951PZU00010000000000900000000IPOM.CILIEG.300G BIO $00000I00000000021790001      POM.CILIEG.300G BIO CONAD VN IT.ICT00000000021790001      IC00000010000001500000010IL0000000101202502259999999900000000145C0000012025022599999999U0001000000000001999220250414211202EL5       EUR000000 00000SVALL  BIOOF      000000N
002105M022009401POM.CILIEGINO A/N 400G BIO ITALIA I1330325010000120250313040  1  NNKG000004000000004000N00000006509999951PZU00010000000000900000000IPOM.CILIEGINO A/N 40$00000I00000000022009401      POM.CILIEGINO A/N 400G BIO ITALIA I00000000022009401      IC00000010000001500000010IL0000000101202503179999999900000000142C0000012025031799999999U0001000000000001989220250414211202EL5       EUR000000 00000N$ALL  BIOOF      000000N
002105M022009501CILIEGINO GIALLO A/N 350G BIO IT.I 1330325010000120250313040  1  NNKG000003500000003500N00000006509999951PZU00010000000000900000000ICILIEGINO GIALLO A/N$00000I00000000022009501      CILIEGINO GIALLO A/N 350G BIO IT.I 00000000022009501      IC00000010000001500000008IL0000000101202503179999999900000000140C0000012025031799999999U0001000000000001989220250414211202EL5       EUR000000 00000N$ALL  BIOOF      000000N
002105M020525101POM.TONDO CILIEGINO 500G CPQ IT.ICT1330325010000120020323040  1  NSKG000005000000005000N00000006509999951PZU00010000000000900000000IPOM.CILIEGINO 500 G $00000I00000000020525101      POM.TONDO CILIEGINO 500G CPQ IT.ICT00000000020525101      IC00000010000001500000010IL0000000101202504159999999900000000160C0000012025041599999999U0001000000000002299220250414211202EL5       EUR000000 00000NPALL  $$$$$      000000N
002105M020361701POMODORO ROSSO CILIEGINO OR.IT ICAT1330325010000219991123040  1  NNKG000010000000000000S00000006509999951KGU00010000000000900000000IPOMODORO ROSSO CILIE$00000I00000000020361701      POMODORO ROSSO CILIEGINO OR.IT ICAT00000000020361701      IC00000010000001500000001IL0000000101202504159999999900000000260C0000012025041599999999U0001000000000003909220250414211202EL5       EUR000000 00000S$ALL  $$$$$      005001N
002105M020221501POMODORI TONDI ROSSO GRAPPOLO IT IC1330325010001419970618040  1  NNKG000010000000000000S00000006509999951KGU00010000000000900000000IPOMODORI TONDI ROSSO$00000I00000000020221501      POMODORI TONDI ROSSO GRAPPOLO IT IC00000000020221501      IC00000010000001500000001IL0000000101202504159999999900000000200C0000012025041599999999U0001000000000002899220250414211202EL5       EUR000000 00000N$ALL  $$$$$      005001N
002105M020982301POMODORI GRAPPOLO CPQ 700G OR.IT IC1330325010001520130118040  1  NSKG000007000000007000N00000006509999951PZU00010000000000900000000IPOMODORI GRAPPOLO CP$00000I00000000020982301      POMODORI GRAPPOLO CPQ 700G OR.IT IC00000000020982301      IC00000010000001500000010IL0000000101202504159999999900000000190C0000012025041599999999U0001000000000002699220250414211202EL5       EUR000000 00000NPALL  $$$$$      000000N
002105M020236401POMODORO COSTOLUTO VERDE IT.I CAT. 1330325010027019970820040  1  NNKG000010000000000000S00000006509999951KGU00010000000000900000000IPOMODORO COSTOLUTO  $00000I00000000020236401      POMODORO COSTOLUTO VERDE IT.I CAT. 00000000020236401      IC00000010000001500000001IL0000000101202504159999999900000000265C0000012025041599999999U0001000000000003499220250414211202EL5       EUR000000 00000S$ALL  $$$$$      003001N
002105M020273401POM.VERDE CUORE DI BUE 67/82 IT.ICT1330325010066219980212040  1  NNKG000010000000000000S00000006509999951KGU00010000000000900000000IPOM.VERDE CUORE DI B$00000I00000000020273401      POM.VERDE CUORE DI BUE 67/82 IT.ICT00000000020273401      IC00000010000001500000001IL0000000101202504159999999900000000220C0000012025041599999999U0001000000000002999220250414211202EL5       EUR000000 00000N$ALL  $$$$$      005001N
002105M021480601POM.CUORE DI BUE KG.1 ITALIA I CAT.1330325010070020210524040  1  NNKG000010000000010000N00000006509999951PZU00010000000000900000000IPOM.CUORE DI BUE KG.$00000I00000000021480601      POM.CUORE DI BUE KG.1 ITALIA I CAT.00000000021480601      IC00000010000001500000010IL0000000101202504159999999900000000175C0000012025041599999999U0001000000000002499220250414211202EL5       EUR000000 00000S$ALL  $$$$$      000000N
002105M021184801P.DATTERINO BIO CONAD VN.250G IT.IC1330325020000120170525040  1  NSKG000002500000002500N00000006509999951PZU00010000000000900000000IP.DATTERINO BIO CONA$00000I00000000021184801      P.DATTERINO BIO CONAD VN.250G IT.IC00000000021184801      IC00000010000001500000008IL0000000101202504019999999900000000140C0000012025040199999999U0001000000000001999220250414211202EL5       EUR000000 00000SVALL  BIOOF      000000N
002105M021774701P.PICCADILLY BIO ALCENERO 400G IT I1330325020000120230609040  1  NNKG000004000000004000N00000006509999951PZU00010000000000900000000IP.PICCADILLY BIO ALC$00000I00000000021774701      P.PICCADILLY BIO ALCENERO 400G IT I00000000021774701      IC00000010000001500000010IL0000000101202503179999999900000000142C0000012025031799999999U0001000000000001989220250414211202EL5       EUR000000 00000S$ALL  BIOOF      000000N
002105M021973501POM.DATTERINO BIO A/N 180G ITA.ICT 1330325020000120241128040  1  NNKG000001800000001800N00000006509999951PZU00010000000000900000000IPOM.DATTERINO BIO A/$00000I00000000021973501      POM.DATTERINO BIO A/N 180G ITA.ICT 00000000021973501      IC00000010000001500000008IL0000000101202412039999999900000000118C0000012024120399999999U0001000000000001599220250414211202EL5       EUR000000 00000S$ALL  BIOOF      000000N
002105M021190601POM.PICCADILLY VASS.KG.1 ITA.I CAT 1330325020000720170619040  1  NNKG000010000000010000N00000006509999951PZU00010000000000900000000IPOM.PICCADILLY VASS.$00000O00000000021190601      POM.PICCADILLY VASS.KG.1 ITA.I CAT 00000000021190601      IC00000010000001500000006O 0000000000000000000000000000000000000 0000000000000000000000U0001000000000000009220250414211202EL5       EUR000000 00000S$ALL  $$$$$      000000N
002105M020633701POMODORO COCKT.PICC.500G CPQ IT ICT1330325020000720030328040  1  NSKG000005000000005000N00000006509999951PZU00010000000000900000000IPOMODORO COCKT.PICC.$00000I00000000020633701      POMODORO COCKT.PICC.500G CPQ IT ICT00000000020633701      IC00000010000001500000010IL0000000101202504159999999900000000140C0000012025041599999999U0001000000000001999220250414211202EL5       EUR000000 00000NPALL  $$$$$      000000N
002105M020173801POM.OBLUNGO VERDE 40/47 3X4 ITA.ICT1330325020001019960509040  1  NNKG000010000000000000S00000006509999951KGU00010000000000900000000IPOM.OBLUNGO VERDE 40$00000I00000000020173801      POM.OBLUNGO VERDE 40/47 3X4 ITA.ICT00000000020173801      IC00000010000001500000001IL0000000101202504159999999900000000185C0000012025041599999999U0001000000000002699220250414211202EL5       EUR000000 00000N$ALL  $$$$$      005001N
002105M020982101POMODORO OBL.VERDE CPQ 700G IT ICAT1330325020001020130118040  1  NSKG000007000000007000N00000006509999951PZU00010000000000900000000IPOMODORO OBL.VERDE C$00000I00000000020982101      POMODORO OBL.VERDE CPQ 700G IT ICAT00000000020982101      IC00000010000001500000010IL0000000101202504159999999900000000175C0000012025041599999999U0001000000000002499220250414211202EL5       EUR000000 00000NPALL  $$$$$      000000N
002105M020008001POM.ROSSO TONDO RISO 3B MAROCCO ICT1330325040006819921126040  1  NNKG000010000000000000S00000006509999951KGU00010000000000900000000IPOM.ROSSO TONDO RISO$00000S00000000020008001      POM.ROSSO TONDO RISO 3B MAROCCO ICT00000000020008001      IC00000010000001500000001SL0000000101202504159999999900000000270C0000012025041599999999U0001000000000003909220250414211202EL5       EUR000000 00000N$ALL  $$$$$      010001N
002105M020847701FINOCCHI BIO VASS.600G IT.II CAT.  1330334010000120070928040  1  NNKG000006000000006000N00000006509999951PZU00010000000000900000000IFINOCCHI BIO        800000I00000000020847701      FINOCCHI BIO VASS.600G IT.II CAT.  00000000020847701      IC00000010000001500000005I 0000000000000000000000000000000000000 0000000000000000000000U0001000000000000009220250414211202EL5       EUR000000 00000N$ALL  BIOOF      000000N
002105M021008701SEDANO BST.IT.500G X 8PZ I CAT.    1330337040003020140303040  1  NNKG000005000000005000N00000006509999951PZU00010000000000900000000ISEDANO BST.IT.500G X$00000I00000000021008701      SEDANO BST.IT.500G X 8PZ I CAT.    00000000021008701      IC00000010000001500000008IL0000000101202504159999999900000000120C0000012025041599999999U0001000000000001799220250414211202EL5       EUR000000 00000N$ALL  $$$$$      000000N
002105M021140201CAROTE VAS.500G BIO CONAD VN.IT.IIC1330340010000120160801040  1  NSKG000005000000005000N00000006509999951PZU00010000000000900000000ICAROTE VAS.500G BIO 800000I00000000021140201      CAROTE VAS.500G BIO CONAD VN.IT.IIC00000000021140201      IC00000010000001500000006IL0000000101202406049999999900000000150C0000012024060499999999U0001000000000002299220250414211202EL5       EUR000000 00000NVALL  BIOOF      000000N
002105M021730501CAROTE ALCENERO 350G 14/21 O.IT ICT1330340010000120230425040  1  NNKG000003500000003500N00000006509999951PZU00010000000000900000000ICAROTE ALCENERO 350G$00000I00000000021730501      CAROTE ALCENERO 350G 14/21 O.IT ICT00000000021730501      IC00000010000001500000008IL0000000101202307189999999900000000085C0000012023071899999999U0001000000000001299220250414211202EL5       EUR000000 00000S$ALL  BIOOF      000000N
002105M021139701BABY CAROTINE BIO CONAD V.NAT.150G 1330340070000120160801040  1  NSKG000001500000001500N00000006509999953PZU00010000000000900000000IBABY CAROTINE BIO CO$00000I00000000021139701      BABY CAROTINE BIO CONAD V.NAT.150G 00000000021139701      IC00000010000001500000008IL0000000101202308239999999900000000085C0000012023082399999999U0001000000000001299220250414211202EL5       EUR000000 00000NVALL  BIOOF      000000N
002105M021571801CARC.VIOLETTI ROSSI X30 PZ ITA. IC 1330343010005020220415040  1  NNKG000001000000001000N00000006509999951PZU00010000000000900000000ICARC.VIOLETTI ROSSI $00000I00000000021571801      CARC.VIOLETTI ROSSI X30 PZ ITA. IC 00000000021571801      IC00000010000001500000030IL0000000101202504152025041900000000043C0000012025041520250419U0001000000000000599220250414211202EL5       EUR000000 00000S$ALL  $$$$$      000000N
002105M020132001CARC.MAMMOLE ROSSE X25PZ ITA.ICT   1330343070001619940204040  1  NNKG000003500000003500N00000006509999951PZU00010000000000900000000ICARC.MAMMOLE ROSSE  $00000S00000000020132001      CARC.MAMMOLE ROSSE X25PZ ITA.ICT   00000000020132001      IC00000010000001500000025SL0000000101202503259999999900000000053C0000012025032599999999U0001000000000000799220250414211202EL5       EUR000000 00000N$ALL  $$$$$      000000N
002105M020900601ASPARAGI VERDI 500G CPQ.OR.IT.I CAT1330349010000120090423040  1  NSKG000005000000005000N00000006509999951PZU00010000000000900000000IASPARAGI VERDI 500G $00000S00000000020900601      ASPARAGI VERDI 500G CPQ.OR.IT.I CAT00000000020900601      IC00000010000001500000012SL0000000101202504099999999900000000320C0000012025040999999999U0001000000000004509220250414211202EL5       EUR000000 00000NPALL  $$$$$      000000N
002105M021730401ASPARAGO ALCENERO 250G 8/10 IT.ICT 1330349010000120230425040  1  NNKG000002500000002500N00000006509999951PZU00010000000000900000000IASPARAGO ALCENERO 25$00000I00000000021730401      ASPARAGO ALCENERO 250G 8/10 IT.ICT 00000000021730401      IC00000010000001500000010IL0000000101202504079999999900000000178C0000012025040799999999U0001000000000002489220250414211202EL5       EUR000000 00000S$ALL  BIOOF      000000N
002105M020923301ASPARAGI COLTIVATI 500G ITALIA IC  1330349010000220100427040  1  NNKG000005000000005000N00000006509999951PZU00010000000000900000000IASPARAGI COLTIVATI G$00000I00000000020923301      ASPARAGI COLTIVATI 500G ITALIA IC  00000000020923301      IC00000010000001500000012IL0000000101202504159999999900000000320C0000012025041599999999U0001000000000004509220250414211202EL5       EUR000000 00000N$ALL  $$$$$      000000N
002105M021150601SPINACI SFUSI"PULITI"ITALIA I CAT  1330352070002120161011040  1  NNKG000010000000000000S00000006509999951KGU00010000000000900000000ISPINACI SFUSI PULITI$00000I00000000021150601      SPINACI SFUSI"PULITI"ITALIA I CAT  00000000021150601      IC00000010000001500000001I 0000000000000000000000000000000000000 0000000000000000000000U0001000000000000009220250414211202EL5       EUR000000 00000N$ALL  $$$$$      005001N
002105M020508601BROCCOLETTI DI RAPI ITALIA I CAT.  1330352100080020020108040  1  NNKG000010000000000000S00000006509999951KGU00010000000000900000000IBROCCOLETTI DI RAPI $00000I00000000020508601      BROCCOLETTI DI RAPI ITALIA I CAT.  00000000020508601      IC00000010000001500000001IL0000000101202504159999999900000000155C0000012025041599999999U0001000000000002299220250414211202EL5       EUR000000 00000N$ALL  $$$$$      005001N
002105M021290501ZENZERO 150G VERSO NATURA BIO I CAT1330355010000120180926100  1  NSKG000001500000001500N00000006509999951PZU00010000000000900000000IZENZERO 150G VERSO N$00000I00000000021290501      ZENZERO 150G VERSO NATURA BIO I CAT00000000021290501      IC00000010000001500000009IL0000000101202502049999999900000000150C0000012025020499999999U0001000000000002299220250414211202EL5       EUR000000 00000SVALL  BIOOF      000000N
002105M021140301PATATE KG.1 BIO CONAD VN.IT.I CT   1330361010000120160801040  1  NSKG000010000000010000N00000006509999951PZU00010000000000900000000IPATATE KG.1 BIO C   800000I00000000021140301      PATATE KG.1 BIO CONAD VN.IT.I CT   00000000021140301      IC00000010000001500000006IL0000000101202410299999999900000000215C0000012024102999999999U0001000000000002899220250414211202EL5       EUR000000 00000NVALL  BIOOF      000000N
002105M021800901PAT.IGP ALTO VITERBESE IT.KG.1,5 IC1330361010000520230814040  1  NNKG000015000000015000N00000006509999951PZU00010000000000900000000IPAT.IGP ALTO VITERBE$00000S00000000021800901      PAT.IGP ALTO VITERBESE IT.KG.1,5 IC00000000021800901      IC00000010000001500000010SL0000000101202407309999999900000000195C0000012024073099999999U0001000000000002989220250414211202EL5       EUR000000 00000S$ALL  $$$$$      000000N
002105M021431201PATATE NATUR.BOLL/FORNO KG1,5 FR IC1330361010000720201026040  1  NNKG000015000000015000N00000006509999951PZU00010000000000900000000IPATATE NATUR.BOLL/FO$00000I00000000021431201      PATATE NATUR.BOLL/FORNO KG1,5 FR IC00000000021431201      IC00000010000001500000012IL0000000101202503259999999900000000210C0000012025032599999999U0001000000000002989220250414211202EL5       EUR000000 00000S$ALL  $$$$$      000000N
002105M021985901PATATE IODI'RT.KG.1 FRANCIA I CAT  1330361010001220250116040  1  NNKG000010000000010000N00000006509999951PZU00010000000000900000000IPATATE IODI'RT.KG.1 $00000S00000000021985901      PATATE IODI'RT.KG.1 FRANCIA I CAT  00000000021985901      IC00000010000001500000009SL0000000101202501239999999900000000142C0000012025012399999999U0001000000000001989220250414211202EL5       EUR000000 00000N$ALL  $$$$$      000000N
002105M022021901PATATE IODI'RT.KG.1 ISRAELE I CAT  1330361040002020250410040  1  NNKG000010000000010000N00000006509999951PZU00010000000000900000000IPATATE IODI'RT.KG.1 $00000I00000000022021901      PATATE IODI'RT.KG.1 ISRAELE I CAT  00000000022021901      IC00000010000001500000009IL0000000101202504159999999900000000155C0000012025041599999999U0001000000000002299220250414211202EL5       EUR000000 00000N$ALL  $$$$$      000000N
002105M020528001PAT.GIALLE NOVELLE KG.1,5 CPQ.IT.IC1330361070000120020404040  1  NSKG000015000000015000N00000006509999951PZU00010000000000900000000IPAT.GIALLE NOVELLE K$00000I00000000020528001      PAT.GIALLE NOVELLE KG.1,5 CPQ.IT.IC00000000020528001      IC00000010000001500000010I 0000000000000000000000000000000000000 0000000000000000000000U0001000000000000009220250414211202EL5       EUR000000 00000NPALL  $$$$$      000000N
002105M021855701PAT.BUCCIA CASAREC.CROC.DORATE 100G1330361130002120240111100  1  NNKG000001000000001000N00000006509999951PZU00010000000000900000000IPAT.BUCCIA CASAREC.C$00000I00000000021855701      PAT.BUCCIA CASAREC.CROC.DORATE 100G00000000021855701      IC00000010000001500000026IL0000000101202504159999999900000000145C0000012025041599999999U0001000000000002199220250414211202EL5       EUR000000 00000S$ALL  $$$$$      000000N
002105M020994101CIPOLLA ROSSA BIO 500G.IT.II CAT   1330367040000120130620040  1  NNKG000005000000005000N00000006509999951PZU00010000000000900000000ICIPOLLA ROSSA BIO 50800000I00000000020994101      CIPOLLA ROSSA BIO 500G.IT.II CAT   00000000020994101      IC00000010000001500000010I 0000000000000000000000000000000000000 0000000000000000000000U0001000000000000009220250414211202EL5       EUR000000 00000N$ALL  BIOOF      000000N
002105M020905201CIP.DORATE TUBO 300G CPQ IT.II CT  1330367070000120090727040  1  NSKG000003000000003000N00000006509999951PZU00010000000000900000000ICIP.DORATE TUBO 300G$00000I00000000020905201      CIP.DORATE TUBO 300G CPQ IT.II CT  00000000020905201      IC00000010000001500000012IL0000000101202504019999999900000000080C0000012025040199999999U0001000000000001299220250414211202EL5       EUR000000 00000NPALL  BEF        000000N
002105M021140401CIP.DORATE BIO 500G CONAD VN IT.ICT1330367070000120160801040  1  NSKG000005000000005000N00000006509999951PZU00010000000000900000000ICIP.DORATE BIO 500G 800000I00000000021140401      CIP.DORATE BIO 500G CONAD VN IT.ICT00000000021140401      IC00000010000001500000010IL0000000101202502189999999900000000115C0000012025021899999999U0001000000000001699220250414211202EL5       EUR000000 00000NVALL  BIOOF      000000N
002105M021140501AGLIO RT.150G BIO CONAD V.N.SPA.IIC1330370040000120160801040  1  NSKG000001500000001500N00000006509999951PZU00010000000000900000000IAGLIO 150G BIO CONAD800000I00000000021140501      AGLIO RT.150G BIO CONAD V.N.SPA.IIC00000000021140501      IC00000010000001500000028IL0000000101202503189999999900000000140C0000012025031899999999U0001000000000001999220250414211202EL5       EUR000000 00000NVALL  BIOOF      000000N
002105M021730301AGLIO B.ALCENERO 100G 30/45 O.SP IC1330370040000120230425040  1  NNKG000001000000001000N00000006509999951PZU00010000000000900000000IAGLIO B.ALCENERO 100$00000I00000000021730301      AGLIO B.ALCENERO 100G 30/45 O.SP IC00000000021730301      IC00000010000001500000018IL0000000101202503119999999900000000075C0000012025031199999999U0001000000000001109220250414211202EL5       EUR000000 00000S$ALL  BIOOF      000000N
002105M021853801LENTICCHIE ALT.COLFIOR.300G S.& D  1330510040000220240103040  1  NSKG000003000000003000N00000006009999954PZU00010000000000900000000ILENTICCHIE ALT.COLFI900000I00000000021853801      LENTICCHIE ALT.COLFIOR.300G S.& D  00000000021853801      IC00000010000001500000012IL0000000101202401089999999900000000240C0000012024010899999999U0001000000000003499220250414211202EL5       EUR000000 00000SSALL  $$$$$      000000N
002105M021992901LENTICCHIE COLFIORITO S&D 250G     1330510040001020250128040  1  NSKG000002500000002500N00000006009999954PZU00010000000000900000000ILENTICCHIE COLFIORIT900000I00000000021992901      LENTICCHIE COLFIORITO S&D 250G     00000000021992901      IC00000010000001500000012IL0000000101202503019999999900000000210C0000012025030199999999U0001000000000002989220250414211202EL5       EUR000000 00000NSALL  $$$$$      000000N
002105M021084901SPINACINO ALMAVERDE BIO BST.80G    1330701010000120151016040  1  NNKG000000800000000800N00000006509999953PZU00010000000000900000000ISPINACINO ALMAVERDE $00000I00000000021084901      SPINACINO ALMAVERDE BIO BST.80G    00000000021084901      IC00000010000001500000006IL0000000101201510279999999900000000098C0000012015102799999999U0001000000000001399220250414211202EL5       EUR000000 00000N$ALL  BIOOF      000000N
