002105M021728901MELA SNACK BIO 20G CONAD VER.NAT.  1320101010000020230420040  1  NSKG000000200000000200N00000006000015054PZU00010000000000900000000IMELA SNACK BIO 20G C900000I00000000021728901      MELA SNACK BIO 20G CONAD VER.NAT.  00000000021728901      IC00000010000001500000020IL0000000101202305089999999900000000088C0000012023050899999999U0001000000000001299220250418083038DESILVERI EUR000000 00000S      BIOOF      000000
002105M021136501MAND.SGUSC.70G BIO CONAD VER.NAT.  1320101010002420160716040  1  NSKG000000700000000700N00000006000015054PZU00010000000000900000000IMAND.SGUSC.70G BIO C900000I00000000021136501      MAND.SGUSC.70G BIO CONAD VER.NAT.  00000000021136501      IC00000010000001500000010IL0000000101202501079999999900000000132C0000012025010799999999U0001000000000001899220250418083038DESILVERI EUR000000 00000N      BIOOF      000000
002105M021136601MAND.PELATE 70G BIO CONAD VER.NAT  1320101010002420160716040  1  NSKG000000700000000700N00000006000018054PZU00010000000000900000000IMAND.PELATE 70G BIO 900000I00000000021136601      MAND.PELATE 70G BIO CONAD VER.NAT  00000000021136601      IC00000010000001500000012IL0000000101202501079999999900000000140C0000012025010799999999U0001000000000001989220250418083038DESILVERI EUR000000 00000N      BIOOF      000000
002105M021136701NOCI SGUSC.70G BIO CONAD VER.NAT.  1320101010002420160716040  1  NSKG000000700000000700N00000006000015054PZU00010000000000900000000INOCI SGUSC.70G BIO C900000I00000000021136701      NOCI SGUSC.70G BIO CONAD VER.NAT.  00000000021136701      IC00000010000001500000010IL0000000101202111309999999900000000138C0000012021113099999999U0001000000000001909220250418083038DESILVERI EUR000000 00000N      BIOOF      000000
002105M021136901PINOLI BIO 30 G CONAD VERSO NATURA 1320101010002420160716040  1  NSKG000000300000000300N00000006000018054PZU00010000000000900000000IPINOLI BIO 30 G CONA900000I00000000021136901      PINOLI BIO 30 G CONAD VERSO NATURA 00000000021136901      IC00000010000001500000012IL0000000101202401299999999900000000210C0000012024012999999999U0001000000000002989220250418083038DESILVERI EUR000000 00000N      BIOOF      000000
002105M021137001PISTAC.C/GUSCIO 150 G BIO CONAD VN 1320101010002420160716100  1  NSKG000001500000001500N00000006000015054PZU00010000000000900000000IPISTAC.C/GUSCIO 150 900000I00000000021137001      PISTAC.C/GUSCIO 150 G BIO CONAD VN 00000000021137001      IC00000010000001500000010IL0000000101202212019999999900000000335C0000012022120199999999U0001000000000004989220250418083038DESILVERI EUR000000 00000N      BIOOF      000000
002105M021137101MIX GUSTOSO 150 G BIO CONAD V.NAT. 1320101010002420160716040  1  NSKG000001500000001500N00000006000015054PZU00010000000000900000000IMIX GUSTOSO 150 G BI900000I00000000021137101      MIX GUSTOSO 150 G BIO CONAD V.NAT. 00000000021137101      IC00000010000001500000012IL0000000101202501079999999900000000225C0000012025010799999999U0001000000000003299220250418083038DESILVERI EUR000000 00000N      BIOOF      000000
002105M021137201UVA SULTANINA 200 G BIO CONAD VN   1320101010002420160716040  1  NSKG000002000000002000N00000006000018054PZU00010000000000900000000IUVA SULTANINA 200 G 900000I00000000021137201      UVA SULTANINA 200 G BIO CONAD VN   00000000021137201      IC00000010000001500000012IL0000000101202501079999999900000000150C0000012025010799999999U0001000000000002199220250418083038DESILVERI EUR000000 00000N      BIOOF      000000
002105M021137301ALBIC.ESSICCATE 150 G BIO CONAD VN 1320101010002420160716040  1  NSKG000001500000001500N00000006000015054PZU00010000000000900000000IALBIC.ESSICCATE 150 900000I00000000021137301      ALBIC.ESSICCATE 150 G BIO CONAD VN 00000000021137301      IC00000010000001500000010IL0000000101202212019999999900000000210C0000012022120199999999U0001000000000002989220250418083038DESILVERI EUR000000 00000N      BIOOF      000000
002105M021351001MIX DINAMICO 150G BIO CONAD V.NAT. 1320101010002520190816100  1  NSKG000001500000001500N00000006000012054PZU00010000000000900000000IMIX DINAMICO 150G BI900000I00000000021351001      MIX DINAMICO 150G BIO CONAD V.NAT. 00000000021351001      IC00000010000001500000012IL0000000101202501079999999900000000225C0000012025010799999999U0001000000000003299220250418083038DESILVERI EUR000000 00000S      BIOOF      000000
002105M021354501ANACARDI CONAD VERSO NAT.BIO 30G   1320101010002520190914040  1  NSKG000000300000000300N00000006000015054PZU00010000000000900000000IANACARDI CONAD VERSO900000I00000000021354501      ANACARDI CONAD VERSO NAT.BIO 30G   00000000021354501      IC00000010000001500000012IL0000000101202501079999999900000000069C0000012025010799999999U0001000000000000999220250418083038DESILVERI EUR000000 00000S      BIOOF      000000
002105M021354601MIX GUSTOSO 40G CONAD VERSO NAT.BIO1320101010002620190914040  1  NSKG000000400000000400N00000006000015054PZU00010000000000900000000IMIX GUSTOSO 40G CONA900000I00000000021354601      MIX GUSTOSO 40G CONAD VERSO NAT.BIO00000000021354601      IC00000010000001500000012IL0000000101202501079999999900000000069C0000012025010799999999U0001000000000000999220250418083038DESILVERI EUR000000 00000S      BIOOF      000000
002105M021354701MIX DINAMICO CONAD V.NAT.BIO 40G   1320101010002720190914100  1  NSKG000000400000000400N00000006000012054PZU00010000000000900000000IMIX DINAMICO CONAD V900000I00000000021354701      MIX DINAMICO CONAD V.NAT.BIO 40G   00000000021354701      IC00000010000001500000015IL0000000101202212019999999900000000068C0000012022120199999999U0001000000000000999220250418083038DESILVERI EUR000000 00000S      BIOOF      000000
002105M021728801CASTAGNE BIO 35G CONAD VERSO NATURA1320101010005020230420040  1  NSKG000000350000000350N00000006000015054PZU00010000000000900000000ICASTAGNE BIO 35G CON900000I00000000021728801      CASTAGNE BIO 35G CONAD VERSO NATURA00000000021728801      IC00000010000001500000016IL0000000101202305089999999900000000088C0000012023050899999999U0001000000000001299220250418083038DESILVERI EUR000000 00000S      BIOOF      000000
002105M020445201GERANIO PARIGINO MIX COLOR V/12    1320505010019920010322100  1  NN$$000000000000010000N00000006159999951PZU00010000000000900000000IGERANIO PARIGINO MIX100000S00000000020445201      GERANIO PARIGINO MIX COLOR V/12    00000000020445201      IC00000010000001500000015SL0000000101202504229999999900000000125C0000012025042299999999U0001000000000001989220250418083038DESILVERI EUR000000 00000N      $$$$$      000000
002105M020753801GERANIO ZONALE MIX COLOR V/12      1320505010019920050531100  1  NN$$000000000000010000N00000006159999951PZU00010000000000900000000IGERANIO ZONALE MIX C100000S00000000020753801      GERANIO ZONALE MIX COLOR V/12      00000000020753801      IC00000010000001500000015SL0000000101202504229999999900000000125C0000012025042299999999U0001000000000001989220250418083038DESILVERI EUR000000 00000N      $$$$$      000000
002105M021055801MELE PINOVA 75/80 CPQ 1F.4X6 IT.ICT1330119310001120150128040  1  NSKG000010000000000000S00000006509999951KGU00010000000000900000000IMELE PINOVA 75/80 CP$00000I00000000021055801      MELE PINOVA 75/80 CPQ 1F.4X6 IT.ICT00000000021055801      IC00000010000001500000001IL0000000101202504229999999900000000133C0000012025042299999999U0001000000000001989220250418083038DESILVERI EUR000000 00000N      $$$$$      000000
002105M020544501MELONI RETATI OR.ITALIA 3X4 I CAT. 1330161010000320020514040  1  NNKG000010000000000000S00000006509999951KGU00010000000000900000000IMELONI RETATI OR.ITA$00000I00000000020544501      MELONI RETATI OR.ITALIA 3X4 I CAT. 00000000020544501      IC00000010000001500000001IL0000000101202504199999999900000000255C0000012025041999999999U0001000000000003499220250418083038DESILVERI EUR000000 00000N      $$$$$      000000
002105M021077801BANANE CONAD P.Q.I°CAT.            1330164010000220150807040  1  NSKG000010000000000000S00000006509999951KGU00010000000000900000000IBANANE CONAD P.Q.   $00000I00000000021077801      BANANE CONAD P.Q.I°CAT.            00000000021077801      IC00000010000001500000001IL0000000101202504229999999900000000122C0000012025010799999999U0001000000000001799220250418083038DESILVERI EUR000000 00000N      $$$$$      000000
002105M021816501CUORI DI LATTUGA 140G BONDUELLE    1330302050000020230928040  1  NNKG000001400000001400N00000006509999953PZU00010000000000900000000ICUORI DI LATTUGA 140$00000F00000000021816501      CUORI DI LATTUGA 140G BONDUELLE    00000000021816501      IC00000010000001500000008FL0000000101202310029999999900000000146C0000012023100299999999U0001000000000002189220250418083038DESILVERI EUR000000 00000S      $$$$$      000000
002105M021166701CUORE DI ICEBERG CPQ 200G          1330302050002120170213040  1  NSKG000002000000002000N00000006509999953PZU00010000000000900000000ICUORE DI ICEBERG CPQ$00000I00000000021166701      CUORE DI ICEBERG CPQ 200G          00000000021166701      IC00000010000001500000006IL0000000101202212019999999900000000093C0000012022120199999999U0001000000000001499220250418083038DESILVERI EUR000000 00000N      $$$$$      000000
002105M020291501MELANZ.OBLUNGHE 140/170 ITALIA I CT1330319040001019980608040  1  NNKG000010000000000000S00000006509999951KGU00010000000000900000000IMELANZ.OBLUNGHE 140/$00000I00000000020291501      MELANZ.OBLUNGHE 140/170 ITALIA I CT00000000020291501      IC00000010000001500000001IL0000000101202504159999999900000000165C0000012025041599999999U0001000000000002499220250418083038DESILVERI EUR000000 00000N      $$$$$      000000
002105M021892001P.DATT.SGRA.GIALLO ITA.250G S&I IC 1330325020000120240315040  1  NSKG000002500000002500N00000006509999951PZU00010000000000900000000IPOM.DATTERINO GIALLO$00000I00000000021892001      P.DATT.SGRA.GIALLO ITA.250G S&I IC 00000000021892001      IC00000010000001500000006IL0000000101202504089999999900000000120C0000012025040899999999U0001000000000001799220250418083038DESILVERI EUR000000 00000S      $$$$$      000000
002105M022021901PATATE IODI'RT.KG.1 ISRAELE I CAT  1330361040002020250410040  1  NNKG000010000000010000N00000006509999951PZU00010000000000900000000IPATATE IODI'RT.KG.1 $00000S00000000022021901      PATATE IODI'RT.KG.1 ISRAELE I CAT  00000000022021901      IC00000010000001500000009SL0000000101202504159999999900000000155C0000012025041599999999U0001000000000002299220250418083038DESILVERI EUR000000 00000N      $$$$$      000000
