002105M073335801FILETTO A FETTE BOV.AD. SKIN X6    1290101450012020240530100  1  NNKG000010000000000000S00000005009999903KGU00010000000000300000000IFILETTO A FETTE BOV.$00000I00000000073335801      FILETTO A FETTE BOV.AD. SKIN X6    00000000073335801      IC00000000000000000000001IL0000000101202412089999999900000002047E0004002024120899999999U0001000000000028909120250417145745TROIANI   EUR000000 00000S      $$$$$      000000
002105M072593701HAMBURGER BOVINO ADU.WAGYU GR.300  1290101500049520230228100  1  NNKG000003000000003000N00000005009999903PZU00010000000000300000000IHAMBURGER BOVINO ADU$00000I00000000072593701      HAMBURGER BOVINO ADU.WAGYU GR.300  00000000072593701      IC00000000000000000000006IL0000000101202312109999999900000000660E0004002023121099999999U0001000000000009509120250417145746TROIANI   EUR000000P00080S      $$$$$      000000
002105M009847601HAMBURGER BOVINO ADULTO IT         1290101520003320051020100  1  NN$$000000000000000000S00000005009999903KGU00010000000000300000000IHAMBURGER BOVINO ADU$00000I00000000009847601      HAMBURGER BOVINO ADULTO IT         00000000009847601      IC00000010099999999900001IL0000000101202412089999999900000000988E0004002024120899999999U0001000000000013959120250417145746TROIANI   EUR000000P00080N      $$$$$      000000
002105M070907301ARROSTICINO DI SCOTTONA X 6        1290113520018520200703100  1  NNKG000010000000000000S00000005009999903KGU00010000000000300000000IARROSTICINO SCOTTONA$00000I00000000070907301      ARROSTICINO DI SCOTTONA X 6        00000000070907301      IC00000000000000000000001IL0000000101202412089999999900000001410E0004002024120899999999U0001000000000019959120250417145746TROIANI   EUR000000P00080N      $$$$$      000000
002105M009108601FETTINE DI COLLO SENZA OSSO SUINO  1290301190010020031028100  1  NNKG000010000000000000S00000005009999931KGU00010000000000300000000OFETTINE COLLO S/OSSO$00000O00000000009108601      FETTINE DI COLLO SENZA OSSO SUINO  00000000009108601      IC00000010099999999900001OL0000000101202502109999999900000000565E0004002025021099999999U0001000000000011909120250417145746TROIANI   EUR000000 00000N      $$$$$      000000
002105M073472601MINI SPIEDINI TRADIZIONALI         1290301220000520240926100  1  NN$$000000000000000000S00000005009999903KGU00010000000000300000000IMINI SPIEDINI       $00000I00000000073472601      MINI SPIEDINI TRADIZIONALI         00000000073472601      IC00000000000000000000001IL0000000101202502079999999900000001290E0004002025020799999999U0001000000000018909120250417145746TROIANI   EUR000000 00000S      $$$$$      000000
002105M069930601BRACIOLA COLLO SUINO S/OSSO CPQ    1290301340030520170519100  1  NS$$000000000000000000S00000005009999903KGU00010000000000300000000IBRACIOLA COLLO SUINO$00000I00000000069930601      BRACIOLA COLLO SUINO S/OSSO CPQ    00000000069930601      IC00000010099999999900001IL0000000101202412089999999900000000776E0004002024120899999999U0001000000000010959120250417145746TROIANI   EUR000000 00000N      $$$$$      000000
002105M073588101SALS.FRESCA FRIARIELLI             1290301500013020250203100  1  NNKG000003600000003600N00000005009999903PZU00010000000000300000000ISALS.FRESCA FRIARIEL$00000I00000000073588101      SALS.FRESCA FRIARIELLI             00000000073588101      IC00000000000000000000006IL0000000101202502079999999900000000395E0004002025020799999999U0001000000000005709120250417145746TROIANI   EUR000000 00000N      $$$$$      000000
002105M068032401COSCIOTTO DI POLLO CONFEZ RISPAR   1290501010010020100921100  1  NNKG000010000000000000S00000005009999931KGU00010000000000300000000OCOSCIOT.POLLO CONF/R$00000O00000000068032401      COSCIOTTO DI POLLO CONFEZ RISPAR   00000000068032401      IC00000010099999999900001OL0000000101202411069999999900000000331E0004002024110699999999U0001000000000004959120250417145746TROIANI   EUR000000 00000N      $$$$$      000000
002105M068364901QUARTO POSTERIORE POLLO CPQ CONF.  1290501280052020111215100  1  NSKG000010000000000000S00000005009999903KGU00010000000000300000000IQUARTO POSTERIORE PQ$00000I00000000068364901      QUARTO POSTERIORE POLLO CPQ CONF.  00000000068364901      IC00000010099999999900001IL0000000101202203279999999900000000410E0004002022032799999999U0001000000000005959120250417145746TROIANI   EUR000000P00080N      $$$$$      000000
002105M072909501RICCI DI POLLO/PATATE MARTINI G.2501291504100085020230913100  1  NNKG000002500000002500N00000005009999903PZU00010000000000300000000IRICCI POLLO/PATATE  $00000I00000000072909501      RICCI DI POLLO/PATATE MARTINI G.25000000000072909501      IC00000000000000000000008IL0000000101202309189999999900000000320E0004002023091899999999U0001000000000004609120250417145746TROIANI   EUR000000 00000S      $$$$$      000000
