002105M090683201A4-FUR FURBLETS HAS                1840305030000120240513220  1  NN$$000000000000010000N00000008009999906PZU00010000000001600000000IFUR FURBLETS HAS    $99999I00000000090683201      A4-FUR FURBLETS HAS                00000000090683201      IC00000010099999999900012IL0000000101202502259999999900000000760E0000012025022599999999U0001000000000011908020250416083037          EUR000000 00000N$PAC  $$$$$      000000N
002105M064507801A7-BARBIE FASHIONISTAS MTT         1840307020149020161220220  1  NN$$000000000000010000N00000008009999906PZU00010000000001600000000IBARBIE FASHIONISTAS $99999I00000000064507801      A7-BARBIE FASHIONISTAS MTT         00000000064507801      IC00000010099999999900006IL0000000101202502252025051100000000810E0000012025022520250511U0001000000000014908020250416083037          EUR000000 00000N$PAC  $$$$$      000000N
002105M065231401S9-CARS MINI RACERS MTT            1840309010043020190614220  1  NN$$000000000000010000N00000008009999906PZU00010000000001600000000ICARS MINI RACERS MTT$99999I00000000065231401      S9-CARS MINI RACERS MTT            00000000065231401      IC00000010099999999900036IL0000000101202502259999999900000000201E0000012025022599999999U0001000000000004308020250416083037          EUR000000 00000N$PAC  $$$$$      000000N
002105M065780601S1-CREART SERIE D RAV              1840311040109020210325220  1  NN$$000000000000010000N00000008009999906PZU00010000000001600000000ICREART SERIE D RAV  $99999I00000000065780601      S1-CREART SERIE D RAV              00000000065780601      IC00000010099999999900008IL0000000101202502252025051100000000630E0000012025022520250511U0001000000000010908020250416083037          EUR000000 00000N$PAC  $$$$$      000000N
