002105M090900701A5-MTB 24 AC. SH18V AM.SLOP.DEN    1840212010000120241111220  1  NN$$000000000000010000N00000008009999906PZU00010000000001600000000IMTB 24 AC. SH18V AM.$99999I00000000090900701      A5-MTB 24 AC. SH18V AM.SLOP.DEN    00000000090900701      IC00000010099999999900001IL0000000101202411112025111300000010800E0000012024111120251113U0001000000000159008020250418082111SPINA     EUR000000 00000N      $$$$$      000000
002105M090900801A5-MTB 26 U ACC 18V DEN            1840212030000120241111220  1  NN$$000000000000010000N00000008009999906PZU00010000000001600000000IMTB 26 U ACC 18V DEN$99999I00000000090900801      A5-MTB 26 U ACC 18V DEN            00000000090900801      IC00000010099999999900001IL0000000101202411119999999900000010000E0000012024111199999999U0001000000000149008020250418082111SPINA     EUR000000 00000N      $$$$$      000000
002105M090900901A5-MTB 26 D ACC 18V DEN            1840212030000120241111220  1  NN$$000000000000010000N00000008009999906PZU00010000000001600000000IMTB 26 D ACC 18V DEN$99999I00000000090900901      A5-MTB 26 D ACC 18V DEN            00000000090900901      IC00000010099999999900001IL0000000101202411119999999900000010000E0000012024111199999999U0001000000000149008020250418082111SPINA     EUR000000 00000N      $$$$$      000000
