002105M073699601POSTERIORE S/PANCIA VACCA TEDESCA  1290101080029020250401100  1  NN$$000000000000000000S00000005009999931KGU00010000000000300000000SPOSTERIORE S/PANCIA $00000S00000000073699601      POSTERIORE S/PANCIA VACCA TEDESCA  00000000073699601      IC00000000000000000000001SL0000000101202504029999999900000000799E0004002025040299999999U0001000000000016909120250415210146EL5       EUR000000 00000N$ALL  $$$$$      000000N
002105M008502601MEZZENA SUINO INTEGRALE            1290301010005020021217100  1  NN$$000000000000000000S00000005009999931KGU00010000000000300000000IMEZZENA SUINO INTEGRU00000I00000000008502601      MEZZENA SUINO INTEGRALE            00000000008502601      IC00000010099999999900001IL0000000101202504169999999900000000315E0004002025041699999999U0001000000000005789120250415210146EL5       EUR000000 00000N$ALL  $$$$$      000000N
002105M069213401MEZZENA SUINO INTEGRALE T/UMBRO    1290301010005020150126100  1  NN$$000000000000000000S00000005009999931KGU00010000000000300000000IMEZZENA SUINO INTEGRU00000I00000000069213401      MEZZENA SUINO INTEGRALE T/UMBRO    00000000069213401      IC00000000000000000000001IL0000000101202504159999999900000000384E0004002025041599999999U0001000000000007049120250415210146EL5       EUR000000 00000N$ALL  $$$$$      000000N
002105M072512801MEZZENA SUINO INT."ALLEVATO APERTO"1290301010005020230114100  1  NN$$000000000000000000S00000005009999931KGU00010000000000300000000SMEZZENA SUINO INT."AU00000S00000000072512801      MEZZENA SUINO INT."ALLEVATO APERTO"00000000072512801      IC00000010099999999900001SL0000000101202504159999999900000000476E0004002025041599999999U0001000000000008739120250415210146EL5       EUR000000 00000S$ALL  $$$$$      000000N
002105M008503501MEZZENA SUINO T/MEC PESANTE        1290301010005520021217100  1  NN$$000000000000000000S00000005009999931KGU00010000000000300000000IMEZZENA SUINO T/MEC U00000I00000000008503501      MEZZENA SUINO T/MEC PESANTE        00000000008503501      IC00000010099999999900001IL0000000101202504169999999900000000365E0004002025041699999999U0001000000000006699120250415210146EL5       EUR000000 00000N$ALL  $$$$$      000000N
002105M008503701MEZZENA SUINO T/MEC S/PROSC        1290301010006020021217100  1  NN$$000000000000000000S00000005009999931KGU00010000000000300000000IMEZZENA SUINO T/MEC U00000I00000000008503701      MEZZENA SUINO T/MEC S/PROSC        00000000008503701      IC00000010099999999900001IL0000000101202504169999999900000000340E0004002025041699999999U0001000000000006239120250415210146EL5       EUR000000 00000N$ALL  $$$$$      000000N
002105M008504801TRONCONE SUINO T/VE-PANC C/C       1290301010013620021217100  1  NN$$000000000000000000S00000005009999931KGU00010000000000300000000ITRONCONE SUINO T/VE-U00000I00000000008504801      TRONCONE SUINO T/VE-PANC C/C       00000000008504801      IC00000010099999999900001IL0000000101202504169999999900000000420E0004002025041699999999U0001000000000007709120250415210146EL5       EUR000000 00000N$ALL  $$$$$      000000N
002105M069472101TRONCONE SUINO  T/UMBRO            1290301010013620151028100  1  NN$$000000000000000000S00000005009999931KGU00010000000000300000000ITRONCONE SUINO  T/UMU00000I00000000069472101      TRONCONE SUINO  T/UMBRO            00000000069472101      IC00000000000000000000001IL0000000101202504159999999900000000447E0004002025041599999999U0001000000000008209120250415210146EL5       EUR000000 00000N$ALL  $$$$$      000000N
002105M067765701TRONCONE SUINO C/COLLO             1290301010013720090922100  1  NN$$000000000000000000S00000005009999931KGU00010000000000300000000ITRONCONE SUINO C/COLU00000I00000000067765701      TRONCONE SUINO C/COLLO             00000000067765701      IC00000010099999999900001IL0000000101202504169999999900000000395E0004002025041699999999U0001000000000007249120250415210146EL5       EUR000000 00000N$ALL  $$$$$      000000N
002105M073416001COPPA SUINO C/OSSO S/V ESTERA      1290301160002020240827100  1  NN$$000000000000000000S00000005009999931KGU00010000000000300000000ICOPPA SUINO C/OSSO S$00000S00000000073416001      COPPA SUINO C/OSSO S/V ESTERA      00000000073416001      IC00000000000000000000001SL0000000101202504179999999900000000476E0004002025041799999999U0001000000000008739120250415210146EL5       EUR000000 00000S$ALL  $$$$$      000000N
002105M067818801COPPA SUINO S/OSSO S/V             1290301160002520091216100  1  NN$$000000000000000000S00000005009999903KGU00010000000000300000000ICOPPA SUINO S/OSSO SU00000I00000000067818801      COPPA SUINO S/OSSO S/V             00000000067818801      IC00000000000000000000001IL0000000101202504159999999900000000565E0004002025041599999999U0001000000000010369120250415210146EL5       EUR000000P00040N$ALL  $$$$$      000000N
002105M067818901SPALLA SUINO S/OSSO S/V ESTERA X3PZ1290301160003020091216100  1  NN$$000000000000000000S00000005009999903KGU00010000000000300000000ISPALLA SUINO S/OSSO U00000I00000000067818901      SPALLA SUINO S/OSSO S/V ESTERA X3PZ00000000067818901      IC00000000000000000000001IL0000000101202504159999999900000000410E0004002025041599999999U0001000000000007529120250415210146EL5       EUR000000P00040N$ALL  $$$$$      000000N
002105M067575401PANCETTA SUINO C/COSTA ESTERA SV X31290301160003520090112100  1  NN$$000000000000000000S00000005000001231KGU00010000000000300000000IPANCETTA SUINO C/COSU00000I00000000067575401      PANCETTA SUINO C/COSTA ESTERA SV X300000000067575401      IC00000010099999999900001IL0000000101202504159999999900000000499E0004002025041599999999U0001000000000009159120250415210146EL5       EUR000000P00036N$ALL  $$$$$      000000N
002105M009673701CARRE' BUSTO SUINO CARTONATO       1290301190020020041214100  1  NN$$000000000000000000S00000005009999931KGU00010000000000300000000ICARRE' BUSTO SUINO CU00000I00000000009673701      CARRE' BUSTO SUINO CARTONATO       00000000009673701      IC00000010099999999900001IL0000000101202504169999999900000000482E0004002025041699999999U0001000000000008849120250415210146EL5       EUR000000P00016N$ALL  $$$$$      000000N
002105M067830201LOMBO SUINO T/B0 + COPPA C/O       1290301190020120100119100  1  NN$$000000000000000000S00000005009999931KGU00010000000000300000000ILOMBO SUINO T/B0 + CU00000S00000000067830201      LOMBO SUINO T/B0 + COPPA C/O       00000000067830201      IC00000010099999999900001SL0000000101202504169999999900000000441E0004002025041699999999U0001000000000008099120250415210146EL5       EUR000000P00032N$ALL  $$$$$      000000N
002105M071615801LOMBO SUINO T/B0 + COPPA C/O       1290301190020120210301100  1  NN$$000000000000000000S00000005009999931KGU00010000000000300000000ILOMBO SUINO T/B0 + CU00000I00000000071615801      LOMBO SUINO T/B0 + COPPA C/O       00000000071615801      IC00000010099999999900001IL0000000101202504169999999900000000441E0004002025041699999999U0001000000000008099120250415210146EL5       EUR000000P00032N$ALL  $$$$$      000000N
002105M008598701LOMBO SUINO T/BO. CARTONATO        1290301190020520030203100  1  NN$$000000000000000000S00000005009999931KGU00010000000000300000000ILOMBO SUINO T/BO.   U00000I00000000008598701      LOMBO SUINO T/BO. CARTONATO        00000000008598701      IC00000010099999999000001IL0000000101202504169999999900000000430E0004002025041699999999U0001000000000007889120250415210146EL5       EUR000000P00032N$ALL  $$$$$      000000N
002105M008598801LOMBO SUINO T/VE CARTONATO X 2 PZ. 1290301190020620030203100  1  NN$$000000000000000000S00000005009999931KGU00010000000000300000000ILOMBO SUINO T/VE CARU00000I00000000008598801      LOMBO SUINO T/VE CARTONATO X 2 PZ. 00000000008598801      IC00000010009999999900001IL0000000101202504169999999900000000513E0004002025041699999999U0001000000000009419120250415210146EL5       EUR000000P00032N$ALL  $$$$$      000000N
002105M008598901PUNTINE DI SUINO                   1290301190021020030203100  1  NN$$000000000000000000S00000005009999903KGU00010000000000300000000IPUNTINE DI SUINO    U00000I00000000008598901      PUNTINE DI SUINO                   00000000008598901      IC00000010009999999900001IL0000000101202504169999999900000000724E0004002025041699999999U0001000000000013279120250415210146EL5       EUR000000P00040N$ALL  $$$$$      000000N
002105M068096001PANCETTONE SUINO C/COTENNA         1290301190021820101125100  1  NN$$000000000000000000S00000005009999931KGU00010000000000300000000IPANCETTONE SUINO C/CU00000I00000000068096001      PANCETTONE SUINO C/COTENNA         00000000068096001      IC00000010099999999900001IL0000000101202504169999999900000000324E0004002025041699999999U0001000000000005949120250415210146EL5       EUR000000P00040N$ALL  $$$$$      000000N
002105M068095901PANCETTA SUINO S/COTENNA           1290301190021920101125100  1  NN$$000000000000000000S00000005009999931KGU00010000000000300000000IPANCETTA SUINO S/COTU00000I00000000068095901      PANCETTA SUINO S/COTENNA           00000000068095901      IC00000010099999999900001IL0000000101202504169999999900000000613E0004002025041699999999U0001000000000011249120250415210146EL5       EUR000000P00036N$ALL  $$$$$      000000N
002105M008599101PANCETTA RIFILATA CARTONATA        1290301190022020030203100  1  NN$$000000000000000000S00000005009999931KGU00010000000000300000000IPANCETTA RIFILATA CAU00000I00000000008599101      PANCETTA RIFILATA CARTONATA        00000000008599101      IC00000010099999999900001IL0000000101202504169999999900000000550E0004002025041699999999U0001000000000010089120250415210146EL5       EUR000000P00036N$ALL  $$$$$      000000N
002105M008599201COPPA C/OSSO CARTONATA             1290301190022620030203100  1  NN$$000000000000000000S00000005009999931KGU00010000000000300000000ICOPPA C/OSSO        U00000I00000000008599201      COPPA C/OSSO CARTONATA             00000000008599201      IC00000010099999999900001IL0000000101202504169999999900000000467E0004002025041699999999U0001000000000008569120250415210146EL5       EUR000000P00040N$ALL  $$$$$      000000N
002105M008599301COPPA S/OSSO CARTONATA             1290301190022820030203100  1  NN$$000000000000000000S00000005009999931KGU00010000000000300000000ICOPPA S/OSSO CARTONAU00000I00000000008599301      COPPA S/OSSO CARTONATA             00000000008599301      IC00000010099999999900001IL0000000101202504169999999900000000600E0004002025041699999999U0001000000000011009120250415210146EL5       EUR000000P00040N$ALL  $$$$$      000000N
002105M067982201FILONE SUINO NAZIONALE S/V         1290301190023520100716100  1  NN$$000000000000000000S00000005009999931KGU00010000000000300000000IFILONE SUINO NAZIONAU00000I00000000067982201      FILONE SUINO NAZIONALE S/V         00000000067982201      IC00000010099999999900001IL0000000101202504169999999900000000575E0004002025041699999999U0001000000000010549120250415210146EL5       EUR000000P00032N$ALL  $$$$$      000000N
002105M008600401STINCHI SUINO X5                   1290301190025020030204100  1  NN$$000000000000000000S00000005000001431KGU00010000000000300000000ISTINCHI SUINO       U00000S00000000008600401      STINCHI SUINO X5                   00000000008600401      IC00000010009999999900001SL0000000101202504159999999900000000330E0004002025041599999999U0001000000000006059120250415210146EL5       EUR000000P00080N$ALL  $$$$$      000000N
002105M073712201SPIEDINO SUINO RUSTICO             1290301220001020250410100  1  NN$$000000000000000000S00000005009999931KGU00010000000000300000000ISPIEDINO SUINO RUSTI$00000I00000000073712201      SPIEDINO SUINO RUSTICO             00000000073712201      IC00000000000000000000001IL0000000101202504159999999900000001050E0004002025041599999999U0001000000000019259120250415210146EL5       EUR000000 00000N$ALL  $$$$$      000000N
002105M073712301SPIEDINO SUINO RUSTICO             1290301500001020250410100  1  NN$$000000000000000000S00000005009999903KGU00010000000000300000000ISPIEDINO SUINO RUSTI$00000I00000000073712301      SPIEDINO SUINO RUSTICO             00000000073712301      IC00000000000000000000001IL0000000101202504159999999900000001050E0004002025041599999999U0001000000000014809120250415210146EL5       EUR000000 00000N$ALL  $$$$$      000000N
